:100000000C9480010C94C7010C94C7010C94C70197
:100010000C94C7010C94C7010C94C7010C94C70140
:100020000C94C7010C94C7010C944A190C941D1A26
:100030000C9441140C94C7010C94C7010C94C70193
:100040000C94C7010C94C7010C94C7010C94C70110
:100050000C94C7010C94A7140C94C7010C94C7010D
:100060000C94C7010C94C7010C94C7010C94C701F0
:100070000C94C7010C94C7010C94C7010C94C701E0
:100080000C94C7010C94C7010C94C7010C94C701D0
:100090000C94C7010C94C7010C94C7010C94C701C0
:1000A0000C94C7010C94C7010C94C70102E33603FA
:1000B000E30002E302E15B03E103E30002E3330355
:1000C000E30002E302E15B03E103E30002E3320346
:1000D000E30002E302E15B5B03E103E30002E331DF
:1000E00003E3006A6B6C01280002E302E16403E1B0
:1000F00003E3006C01280002E302E16403E103E38F
:1001000000A900AA00025700570157000000000094
:100110000000002A2B280000000000000000000062
:1001200000000000000029000000002C1E342021E7
:100130002224342627252E362D3738271E1F20212E
:1001400022232425263333362E37381F040506078D
:1001500008090A0B0C0D0E0F1011121314151617A7
:1001600018191A1B1C1D2F3130232D3504050607C5
:1001700008090A0B0C0D0E0F101112131415161787
:1001800018191A1B1C1D2F3130354C0000000000BF
:10019000000000000000000000000000000000005F
:1001A000000000000000000000000000010101014B
:1001B0000101000101010100000000000000000039
:1001C0000000000000010001000101010101010126
:1001D000010101010101010101010101010101010F
:1001E0000101010101010000000101000000000007
:1001F00000000000000000000000000000000000FF
:1002000000000000000001010101000403300000B3
:100210000012034D00650064006900610052006F28
:100220000077000000120372006100690064007A28
:1002300000650072006F0000000403090409023B1E
:1002400000020100A0FA09040000010301010009F5
:1002500021110100012240000705810308000A095D
:1002600004010001030000000921110100012236F0
:10027000000705820308000A1201100100000008AF
:10028000EDFE000001000102030105010980A1014A
:1002900085021601002603001A81002A83007510CA
:1002A00095018100C0050C0901A10185031601001B
:1002B000269C021A01002A9C02751095018100C03B
:1002C00005010906A101050719E029E71500250127
:1002D00095087501810295017508810105081901CC
:1002E0002905950575019102950175039101050791
:1002F000190029FF150026FF00950675088100C02A
:1003000011241FBECFEFDAE0DEBFCDBF04B603FE7F
:1003100027C08091E5019091E601A091E701B0919D
:10032000E8018730904BA740B04BD1F41092E50123
:100330001092E6011092E7011092E80114BE84B712
:10034000877F84BF0FB6F894A8958091600088617C
:1003500080936000109260000FBEE0E0F8E3099522
:1003600011E0A0E0B1E0EAEAF8E302C005900D92E6
:10037000A435B107D9F721E0A4E5B1E001C01D9291
:10038000A53EB207E1F70E9478160C94041C0C9469
:1003900000000C946A070C946B070C94D4020C9424
:1003A000B704CF93DF93EC0188818230B0F087EF00
:1003B00090E00E94AE042FEF83EC99E02150804042
:1003C0009040E1F700C0000083EF90E00E94AE048F
:1003D000CE01DF91CF910C943F088BEA0E94C712A7
:1003E000DF91CF910C940B13CF93DF93EC018881B5
:1003F000823008F456C089EE90E00E94AE042FEFE0
:1004000083EC99E0215080409040E1F700C000006B
:1004100083EE90E00E94AE042FEF83ED90E3215035
:1004200080409040E1F700C000008DED90E00E9418
:10043000AE0482ED90E00E94AE042FEF81EE94E0D6
:10044000215080409040E1F700C000008CEC90E02B
:100450000E94AE0482EC90E00E94AE042FEF81EE89
:1004600094E0215080409040E1F700C000008CEB08
:1004700090E00E94AE0482EB90E00E94AE042FEF69
:1004800081EE94E0215080409040E1F700C00000F0
:100490008CEA90E00E94AE04CE01DF91CF910C94E3
:1004A0003F088CEA0E94C712DF91CF910C940B1386
:1004B0000F931F93CF93DF938C01EB019A958115D6
:1004C0009F4138F510FF03C080EEFB01099511FF35
:1004D00003C081EEFE01099512FF03C082EEFE010A
:1004E000099513FF03C083EEFE0109950115104124
:1004F00080F084EEFE01099585EEFE01099586EEF9
:10050000FE01099587EEFE01DF91CF911F910F91BA
:100510000994DF91CF911F910F910895877091E019
:1005200001C0990F8A95EAF7892F0E9454130C9401
:100530000B130C948E02877091E001C0990F8A957D
:10054000EAF7892F0E945A130C940B130C949B0208
:10055000CF93DF93EC01805E9109089720F06EE85D
:1005600072E0209711F469E972E0CE010E9458020E
:100570008C2FDF91CF910C94810ACF93DF93EC0104
:100580000E94340BCE01805E9109089720F06BE940
:1005900072E0209711F466EA72E0CE01DF91CF910C
:1005A0000C94580281E0089581E008950E94BC0DEA
:1005B0002FEF84E39CE0215080409040E1F700C0A1
:1005C00000000C94CB140F931F93CF93DF938C01F7
:1005D000FC01C081D181CE010E947812BE010E942F
:1005E000BE04EC01B8010E948208B801CE010E944D
:1005F000CD01882309F459C0B801CE010E94C60874
:10060000882309F452C0B801CE010E941B07882339
:1006100009F44BC0C531FCE5DF0709F427C1B0F48C
:10062000C130ECE5DE0709F446C008F056C0C1153C
:10063000DC45B1F181E08093590180935A01C801F2
:10064000DF91CF911F910F910C94D202C63DECE542
:10065000DE0709F4F0C0B8F4C43D8CE5D80709F40E
:10066000AEC0C53DDC4531F7F8018281882309F42D
:10067000CDC010925A010E9471149093580180933A
:10068000570180E2A9C0C93DFCE5DF07F1F0CA3D92
:10069000DC4581F6F8018281882339F082E01AC0B6
:1006A000F801828181110E94D60280E0DF91CF9112
:1006B0001F910F910895F80182818823B1F38091F1
:1006C000C50181608093C501F0CFF8018281882344
:1006D00061F380E00E941417E8CFF801828188233B
:1006E00009F4ADCF0E949713811102C00E947D13BF
:1006F0000E94AA1390E09093D7018093D601FE0147
:10070000E350FC458091D6018160E231F10538F477
:10071000EA5FF34E0C94C81B8091D60182608093EF
:10072000D6018091D6010E94AE130E94BC0DBDCFB0
:100730008091D6018460F3CF8091D6018860EFCF9D
:100740008091D6018061EBCF8091D6018062E7CFA6
:100750008091D6018064E3CF8091D6018068DFCF9D
:100760008091D6018C60DBCF8091D6018E7FD7CF70
:100770008091D6018D7FD3CF8091D6018B7FCFCF53
:100780008091D601877FCBCF8091D6018F7EC7CF56
:100790008091D6018F7DC3CF8091D6018F7BBFCF53
:1007A0008091D6018F77BBCF8091D601837FB7CF61
:1007B0009091D601892F97FB87F98058B0CFF80127
:1007C0008281882361F0109259010E9471149093E4
:1007D00056018093550182E00E945C0B66CF8091A8
:1007E000590181110FC080915501909156010E94CD
:1007F0007D14883C910530F486E20E94810A86E2ED
:100800000E94340B82E00E94630B4FCF80915A010B
:1008100081110FC080915701909158010E947D1461
:10082000883C910530F487E20E94810A87E20E94A9
:10083000340B80E2E8CFF801828181111ACF8091D8
:100840005A018111F6CF80915701909158010E9471
:100850007D14883C910568F780E20E94630B88E272
:100860000E94810A88E20E94340B1FCF0E943E132F
:10087000F8019281992381F08A7A91E009F490E05D
:1008800090935401811106C089E20E94C7120E9410
:100890000B130BCF85E3F9CF80915401811104C074
:1008A00089E20E94CE12F3CF85E3FBCFCF9390E095
:1008B000FC01E55FFE4FC49185579E4FFC0184917A
:1008C000882369F081EE0E94810A8C2F0E94810AA0
:1008D0008C2F0E94340B81EECF910C94340B8C2F13
:1008E0000E94810A8C2FF8CFFF920F931F93CF9312
:1008F000DF938C01F62EF8018491882349F1E801F9
:100900002196813049F4FE011491812F0E94810AC1
:10091000812F0E94340B06C0823089F4FE0184913D
:100920000E94810A8E010F5F1F4F8F2D815018F397
:10093000EFE9FFE03197F1F700C00000F7CF833017
:1009400019F4FE018491E5CF0E945604E801EACF34
:10095000DF91CF911F910F91FF90089560E00C946B
:1009600074040C94C9010E9420090C94CB010895D1
:100970000C94CF0190E080E008950895E62F272F92
:10098000280F3327331FC90125E0289FB001299F75
:10099000700D1124E60FF72FF11DEE0FFF1FEF5F13
:1009A000FE4F859194910895FC01EE0FFF1FE55FC6
:1009B000FD4F859194910895CF93DF930E94BE04DB
:1009C0000E947C06EC01811520E5920708F042C0E8
:1009D000811530E4930708F007C1883E910528F59A
:1009E000803E910508F09BC0883A910588F4853ACD
:1009F000910508F08AC08130910509F490C00097F4
:100A000009F48DC0049708F08AC0D0E0C0E087C028
:100A10008D3B910508F487C0805C9109C03CD105ED
:100A2000A0F30E94D404EC017AC08115904250F4E6
:100A3000C11581E0D80708F072C0C03FD10528F386
:100A4000D0656DC0C11590E3D90708F0C3C0CE01D1
:100A50009F70E7CF811525E5920758F5811534E59C
:100A6000930708F0F0C0811542E5940750F4C115D2
:100A700081E5D80708F4BBC0DC2FCC27C16FD06A52
:100A80004EC0982F969596959E0123703327C115D9
:100A9000D34508F0C9C0C1E0D0E002C0CC0FDD1FD3
:100AA0002A95E2F720E2929FC0011124C82BD92B8E
:100AB000B9C0C11589E5D80780F4C11598E5D907F3
:100AC00008F0C6C0C11526E5D20708F09ECFDC2F7E
:100AD000CC27CC27DF71D06222C0CE01C1153AE508
:100AE000D30708F4BAC090568115904208F08DCF14
:100AF0008D2F8F710E94F70690E0982F8827882706
:100B00009F719C012C2BE901E6CF853A910509F4F0
:100B1000AEC0863A910509F0ADC0C2E8D0E4CE017E
:100B2000DF91CF910895883A910509F4A6C0893ADA
:100B3000910509F4A5C08A3A910509F4A4C08B3A3D
:100B4000910509F4A3C08C3A910509F4A2C08B3B2E
:100B5000910509F4A1C08C3B910509F4A0C08D3A20
:100B6000910509F49FC0803B910509F49EC08E3A1F
:100B7000910509F49DC08F3A910509F49CC0813B11
:100B8000910509F49BC0823B910509F49AC0833B0F
:100B9000910509F499C0843B910509F498C0853BFF
:100BA000910509F497C0863B910509F496C0873BEF
:100BB000910509F495C0883B910509F494C0893BDF
:100BC000910509F493C08A3B910509F492C0C0E0F5
:100BD000D4E4A5CFCE019927D3FF03C0EC01D86C94
:100BE0009ECFEC01D06C9BCFDF70D06A98CFCE0146
:100BF000E4E096958795EA95E1F783702C2F26958A
:100C00002695237090E2299F90011124382B8C2F78
:100C10008370C1E0D0E002C0CC0FDD1F8A95E2F7FF
:100C2000C22BD32BDC687BCFC1E0D0E002C0CC0F5D
:100C3000DD1F2A95E2F730E2939FC0011124C82BF3
:100C4000D92BDA686CCFD82FCC27C46FD06A67CF86
:100C5000DC2FCC27C06FD06A62CF34E096958795A1
:100C60003A95E1F78F70CF70C06ED82FBECFC1E834
:100C7000D0E455CFC3E8D0E452CFC2EED4E44FCF96
:100C8000C9EED4E44CCFCAEED4E449CFC5EBD4E4EA
:100C900046CFC6EBD4E443CFC3EBD4E440CFC4EBA0
:100CA000D4E43DCFC7EBD4E43ACFCCECD4E437CF97
:100CB000CDECD4E434CFC3E8D5E431CFCAE8D5E4F1
:100CC0002ECFC2E9D5E42BCFC4E9D5E428CFC1E2C9
:100CD000D6E425CFC3E2D6E422CFC4E2D6E41FCFC8
:100CE000C5E2D6E41CCFC6E2D6E419CFC7E2D6E40B
:100CF00016CFCAE2D6E413CF8238910549F1B0F499
:100D00008133910509F462C048F48932910509F4F0
:100D100056C08A32910509F460C008958533910563
:100D200009F446C08933910599F00895833E9105F1
:100D300031F138F4803E910591F0823E9105B1F099
:100D40000895863E910521F1873E910551F1089560
:100D50002091D6012370D9F080EE90E00895209183
:100D6000D60120FF14C089E390E008952091D601B8
:100D700022FF0DC024FD09C083EE90E0089520916C
:100D8000D60122FD31C024FF02C090E080E008952A
:100D90002091D60123FFFBCF24FDF7CF87EE90E013
:100DA00008952091D60123FFEECF86EE90E00895BE
:100DB0002091D60125FFEBCF89E290E008952091A4
:100DC000D60125FFE4CF85E390E008952091D60178
:100DD00026FFDDCF8AE290E008952091D60126FF1C
:100DE000D6CF81E390E0089582EE90E0089590914F
:100DF000D60192FF06C0282F2871283069F4877F1A
:100E0000846093FF06C0282F2871283161F4877E03
:100E1000846194FD877E0895282F2471243089F7FA
:100E20008B7F8860EECF282F2471243191F78B7E41
:100E30008861EFCF08950F931F93CF938C01FB012F
:100E40008281811106C0C1E08C2FCF911F910F913B
:100E50000895C0916801C11125C006311C4599F75C
:100E60000E941A0781E0809368010E947114909398
:100E700067018093660110925B0110925D011092F0
:100E80005C0110925F0110925E011092610110925C
:100E9000600110926301109262011092650110923C
:100EA0006401D2CF80916601909167010E947D1408
:100EB0008C32914040F680915B01E82FF0E0EE0F1C
:100EC000FF1FE45AFE4F118300838F5F80935B0105
:100ED000C0E0BACF08950895CF93DF9385B78068B7
:100EE00085BF85B7806885BF25982D9AAEE4B1E0AF
:100EF00043E551E0C1E0D0E08D91E82FE295EF703D
:100F0000F0E061A18F709E0101C0220F8A95EAF77F
:100F1000922F9095962391A382A1822B82A34A17A8
:100F20005B0751F710926A0110926901DF91CF912E
:100F30000C94B1045091690110926901259A2D9881
:100F400080EA8A95F1F7AEE4B1E090E080E061E0FC
:100F500070E03D91E32FE295EF70F0E020A1409129
:100F600069013F70FB0101C0EE0F3A95EAF72E23AD
:100F700091F5262F082E01C0220F0A94EAF7242BA0
:100F80002093690101968530910519F725982D9ACE
:100F900080916901581749F081E080936B010E94AC
:100FA000711490936D0180936C0180916B01882383
:100FB00071F080916C0190916D010E947D140697F3
:100FC00030F08091690180936A0110926B010E9458
:100FD000B30481E0089520E0D2CFE82FF0E0E65995
:100FE000FE4F808108950895CF93DF93EC0181E057
:100FF0008F878F810E94411388850E9454130E941D
:101000000B13EA81FB81309739F06A897B89CE0125
:101010000696DF91CF910994DF91CF910895CF93F8
:10102000DF93EC018881823039F4FB018281938166
:101030000E94A80281E08987DF91CF910895FC0189
:101040008081813029F4FB01808191810C94A80278
:10105000823021F4FB0182819381F8CF0895FC0155
:101060008081813029F4FB01808191810C94BD0243
:10107000823021F4FB0182819381F8CF0895EF92B1
:10108000FF920F931F93CF93DF93EC01888581111B
:1010900032C0EB80FC8087E5F81A24E12E9DC00168
:1010A0002F9D900D1124DC01A050BF4F1496ED919F
:1010B000FC911597309731F052966D917C918A5F33
:1010C0009E4F099584E18E9D80018F9D100D112406
:1010D00000501F4FF80187810E944713F801808557
:1010E0000E945A130E940B1318821F8219861092B5
:1010F0006F0110926E01DF91CF911F910F91FF90C0
:10110000EF900895DF92EF92FF920F931F93CF938A
:10111000DF937C01FB018281882391F08091400163
:101120008F3F71F0C0E0D1E010E000E0DD24D39407
:1011300080914001082E000C990B8017910744F410
:10114000DF91CF911F910F91FF90EF90DF90089565
:101150008E818823B9F089859A858E159F0539F48B
:1011600080916E0190916F018E159F0559F0DD867B
:101170008F85811103C0CE010E94F407CE0106962F
:101180000E943F080F5F1F4F6496D2CFEF92FF92ED
:101190000F931F93CF93DF937C0197558F3F91055A
:1011A00009F0D8F520914001022E000C330B2817CE
:1011B000390714F480934001FB01228134E1389F08
:1011C0008001399F100D1124E801C050DF4F2E8798
:1011D00092818E81992349F1FA86E9868F5F8E8309
:1011E0000E9471149C878B870E947A138F830E94C0
:1011F0003E1388870E9451139885892B8887E88140
:10120000F981309731F06A897B89C8018A5F9E4FE6
:101210000995F0926F01E0926E0181E0DF91CF912C
:101220001F910F91FF90EF9008958823B1F38F8560
:10123000882399F3C8018A5F9E4F0E943F08EDCF33
:10124000EF92FF920F931F93CF93DF938091400112
:1012500010E004E18F3FC1F5DF91CF911F910F9115
:10126000FF90EF900895029FF001039FF00D11246D
:10127000E050FF4FE088F188E114F10419F488ECA4
:10128000E82EF12C029FE001039FD00D1124C050E5
:10129000DF4F8E818823B9F08B859C850E947D1459
:1012A000E816F90680F4109F700111248F858111D2
:1012B00005C0C70180509F4F0E94F407C7018A5F95
:1012C0009E4F0E943F081F5F212F30E08091400118
:1012D000082E000C990B821793072CF6BDCF909324
:1012E0007501809374010895E0917401F091750186
:1012F000309721F00190F081E02D099480E008956D
:10130000E0917401F0917501309721F00280F38132
:10131000E02D0994089520917201309173012817EE
:10132000390771F09093730180937201E091740119
:10133000F0917501309721F00680F781E02D099436
:10134000089520917001309171012817390771F0CB
:101350009093710180937001E0917401F091750197
:10136000309721F00084F185E02D099408950895C7
:101370000C94B70981E008950E9468140E946C07DC
:101380000C94EF14EF92FF920F931F93CF93DF9380
:10139000CDB7DEB72A970FB6F894DEBF0FBECDBF2C
:1013A0000E949A070E94BA0981112EC08FEF89838B
:1013B0008A831B820E9471148160782F9D838C83A5
:1013C00049815A816B818D810E94520A0E94740961
:1013D00090917601891709F458C00E94740980938E
:1013E00076012A960FB6F894DEBF0FBECDBFDF910F
:1013F000CF911F910F91FF90EF900C94B80401963C
:101400008530910599F4D2CF80E00E94ED07182F26
:1014100000917701081751F28091C50181FD0E946A
:10142000F30790E080E00127202F30E0482FB9013A
:10143000082E02C0759567950A94E2F760FFDFCF2A
:101440008E831F8281E090E07C0102C0EE0CFF1CC5
:101450004A95E2F7812F90E08E219F2121E0892B90
:1014600009F420E028870E9471148160782F9A8700
:1014700089874E815F8168858A850E94520A8091A2
:101480007701E826E0927701A1CF2A960FB6F8946B
:10149000DEBF0FBECDBFDF91CF911F910F91FF90A7
:1014A000EF900895CF93DF93CDB7DEB72B970FB6AC
:1014B000F894DEBF0FBECDBF4F83588769877A8708
:1014C0008B871E821D8285E0FE013796DE01119614
:1014D00001900D928A95E1F749815A816B817C8157
:1014E0008D819E812B960FB6F894DEBF0FBECDBFC7
:1014F000DF91CF910C945A10FC01808191810C9462
:10150000BA12882309F4AFC09CEF980F913A20F4E7
:101510000E94C7120C940B1390E2980F983050F46D
:10152000877091E001C0990F8A95EAF7892F0E9490
:101530004113F0CF9BE5980F933070F4853A31F06A
:10154000863A39F083E890E00C948B0981E890E0CA
:10155000FBCF82E890E0F8CF98E5980F953108F03E
:1015600082C0883A09F440C0893A09F440C08A3AF6
:1015700009F440C08B3A09F440C08C3A09F440C0E9
:101580008B3B09F440C08C3B09F440C08D3A09F410
:1015900040C0803B09F440C08E3A09F440C08F3A05
:1015A00009F440C0813B09F440C0823B09F440C0CB
:1015B000833B09F440C0843B09F440C0853B09F4F7
:1015C00040C0863B09F440C0873B09F440C0883BDB
:1015D00009F440C0893B09F440C08A3B09F440C08B
:1015E00090E080E00C94A10982EE90E0FBCF89EEC0
:1015F00090E0F8CF8AEE90E0F5CF85EB90E0F2CF67
:1016000086EB90E0EFCF83EB90E0ECCF84EB90E0C3
:10161000E9CF87EB90E0E6CF8CEC90E0E3CF8DEC68
:1016200090E0E0CF83E891E0DDCF8AE891E0DACF87
:1016300082E991E0D7CF84E991E0D4CF81E292E0D2
:10164000D1CF83E292E0CECF84E292E0CBCF85E2AD
:1016500092E0C8CF86E292E0C5CF87E292E0C2CFA7
:101660008AE292E0BFCF0895882329F19CEF980F7A
:10167000913A20F40E94CE120C940B1390E2980F32
:10168000983050F4877091E001C0990F8A95EAF77D
:10169000892F0E944713F0CF9BE5980F933020F4D9
:1016A00090E080E00C948B09885A853120F490E01A
:1016B00080E00C94A1090895882321F00E94411331
:1016C0000C940B130895882321F00E9447130C9467
:1016D0000B1308958F929F92AF92BF92CF92DF9299
:1016E000EF92FF920F931F93CF93DF937C01D62F3E
:1016F000C72FFC01058102950F70128111110E9404
:1017000061130E940413C82E882371F01123B1F0D5
:1017100080E28D0F883090F082E00E94EE120E94ED
:10172000041391E0C82EC926DC2ED2949FE0D92262
:10173000ED2DF0E0E85EF34E0C94C81BC12CF4CF05
:101740000C2F0F70C07F11F00295007F1123A9F0BC
:10175000002359F080E28D0F883010F0D11109C0BC
:10176000802F0E9441130E940B138D2F0E94810A2B
:1017700014C0802F0E945413F6CF8D2F0E94340B7B
:10178000002359F080E28D0F883010F0D11133C062
:10179000802F0E9447130E940B1398E0D91639F04E
:1017A000D91648F086EF8D0D8F70823020F40E949C
:1017B00074090E94B804CC2009F497C10E94E11278
:1017C00080FD93C1F70112820E94DB120E94DC119E
:1017D000C7010E94820D0E94DB12DF91CF911F9101
:1017E0000F91FF90EF90DF90CF90BF90AF909F90C0
:1017F0008F900C94FD11802F0E945A13CCCFFC2F98
:10180000FF70BF2EC07FC03219F0B29480EFB822B3
:10181000DD2369F0D13049F1112391F1002351F119
:10182000F701858180FFA1CF8F70858323C01123AD
:1018300081F0011106C00E947A138B290E945C0B73
:10184000ACCF0130C1F70E947A138B290E94741328
:10185000A4CF011106C00E9477138B2D0E94630B49
:101860009CCF013009F499CFF6CF112329F006302F
:1018700008F093CF8B2DE2CF053008F08ECFEDCF5F
:10188000002359F38D2F0E94340B87CF8C2F869520
:101890008695837069F0813009F07FCF8D2F9C2F62
:1018A0009370111102C090E080E00E94A10975CFF1
:1018B0008D2F9C2F9370111102C090E080E00E9448
:1018C0008B096BCF8C2F837009F047C0111165CF46
:1018D0002D2F229526952770220F220F6D2F6F70C6
:1018E000862E912CB12CA12C022E04C0880C991CA0
:1018F000AA1CBB1C0A94D2F760E070E0CB01D4FFB5
:101900000FC06FE070E080E090E004C0660F771FCA
:10191000881F991F2A95D2F76095709580959095AC
:10192000C695C695C370C23051F080F468297929F4
:101930008A299B29C13071F00E948E112ECF68290F
:1019400079298A299B290E94A01127CF0E948E11F4
:10195000C501B4010E947C1120CF8695112311F09E
:101960008C2F8170882309F418CF2D2F229526956E
:101970002770220F220F6D2F6F70862E912CB12CA5
:10198000A12C022E04C0880C991CAA1CBB1C0A9412
:10199000D2F760E070E0CB01D4FF0FC06FE070E0E1
:1019A00080E090E004C0660F771F881F991F2A957A
:1019B000D2F76095709580959095C695C695C37041
:1019C000C23051F080F4682979298A299B29C130D5
:1019D00071F00E945312E1CE682979298A299B2946
:1019E0000E946512DACE0E945312C501B4010E9412
:1019F0004112D3CEE0E2ED0FE53108F04DC0F0E04A
:101A0000E85DF34E0C94C81BDF708C2F8F7111238F
:101A100021F00E94DC118D2F11CF0E94FD118D2F1E
:101A20001DCF112341F0053008F0B7CE8C2F8F71F8
:101A30000E942012B2CE063008F0AFCEF7CF8C2F26
:101A40008F71112339F00E94DC11A7CE8C2F8F717A
:101A50001123C9F30E94FD11A0CE112329F08C2F70
:101A60008F710E94C71199CE0E94C21196CE112388
:101A700049F0CF718C2F0E94DC1163E08C2F0E9403
:101A8000E5128BCE81E00E94EE12023008F485CE82
:101A900082E00E94EE1281CE112329F0011165CE61
:101AA0008C2F8F71D0CF002369F0D93309F0EACEA3
:101AB000FFEF27EE83E0F15020408040E1F700C0C7
:101AC0000000E0CE8C2F8F71C5CF4C2F4F706D2F43
:101AD000C7010E94BA040E94F4105FCE4C2F4F70D1
:101AE0006D2FC7010E94BD0458CEDF91CF911F9189
:101AF0000F91FF90EF90DF90CF90BF90AF909F90AD
:101B00008F9008950F931F93CF93DF93EC018B81F8
:101B10009C81892B29F08881998189238F3F29F421
:101B2000DF91CF911F910F910895CE010E94E302A2
:101B30008823B1F3688179818A810E94C4128C0163
:101B40000E9477120E947911B801CE01DF91CF91E6
:101B50001F910F910C946A0B0E9461130E947113E4
:101B60000E94D5120E940B1390E080E00E948B0926
:101B700090E080E00C94A1090E944E130C94AC0DEF
:101B80000E94BA12E92FE295EF70E250EE3070F445
:101B9000F0E0E35CF34E0C94C81B803F19F020F496
:101BA000803E20F481E00895843FE1F380E00895D1
:101BB000803EC0F3813FD1F7F5CF93FB882780F9B2
:101BC0000895CF93DF9300D000D00F92CDB7DEB74A
:101BD0000F900F900F900F900F90DF91CF9108957D
:101BE000CF93DF9300D000D000D0CDB7DEB72696DC
:101BF0000FB6F894DEBF0FBECDBFDF91CF91089531
:101C00001F93CF93DF93C091780116E08091790103
:101C10008C1304C0DF91CF911F910895D0E01C9FD9
:101C2000F0011D9FF00D1124E658FE4F40815181B7
:101C300062817381848195810E94F00D2196C77025
:101C4000E5CF4091AA015091AB016091AC01709138
:101C5000AD018091AE019091AF010C94F00D1F93F6
:101C6000CF93DF938091AF01807FC1F48091AC016D
:101C70008823A1F080917801C09179016091AA0137
:101C80007091AB014091AD015091AE01D62FD72399
:101C9000DA01A095B09516E0C81304C0DF91CF918A
:101CA0001F91089590E04115510511F0DF3F31F487
:101CB00001968770F1CF2A0F3B1F17C0189FF001C4
:101CC000199FF00D1124E658FE4F21812713F0CF04
:101CD00020812613EDCF22812111EACF2381348187
:101CE0002417350740F3241B350B283C310500F73A
:101CF0002091AF012F7020612093AF0126E0289F33
:101D0000F001299FF00D1124E158FE4F80818F7062
:101D1000806180838AEA91E00E94820DDF91CF91F9
:101D20001F910C94000EBF92CF92DF92EF92FF9220
:101D30000F931F93CF93DF93CDB7DEB761970FB6A5
:101D4000F894DEBF0FBECDBF8C0185E0F801DE0147
:101D50001D9601900D928A95E1F7D8014C9111964C
:101D60005C9111971296EC9012978091AD01909131
:101D7000AE01009709F47FC12091AA013091AB0117
:101D8000622F63236F3F09F476C11396CD90DC90E8
:101D9000B090AC01BB2009F411C1C816D906D0F12E
:101DA000F601E81BF90BCF01FF24F394883C910561
:101DB00008F0F12C8091AF01982F907FFF2009F45B
:101DC000B8C091117FC0FE2C351329C0241327C041
:101DD000E11025C08F7080618093AF010E94210EB9
:101DE0008AEA91E00E94820D8091AF01D801159698
:101DF0008C938F2D61960FB6F894DEBF0FBECDBFCA
:101E0000DF91CF911F910F91FF90EF90DF90CF90D6
:101E1000BF900895809590958C0D9D1DC5CFCD28C0
:101E200029F0852F84238F3F09F041C180E0B82F2E
:101E3000B170DB2E80FF3CC0809178012091790148
:101E400036E0821315C04D875E878D859E850E9482
:101E5000BA12292F22952F702230F0F0243018F575
:101E60009F70F1F0F8019581907FD1F4D12C1EC0C4
:101E700090E0389FF001399FF00D1124E658FE4F95
:101E80006181651306C06081641303C06281E6123C
:101E90000FC001968770D5CF9F7011F0882331F362
:101EA000805E883018F3C8010E94820DFD2CA1CFFE
:101EB000EE2009F49ECF8091AF0181608093AF0145
:101EC000F12C97CF351306C0241304C0D801EE209F
:101ED00009F49AC04D875E878D859E850E94C00D4E
:101EE000882319F1EE2009F18091AF01803270F062
:101EF0002091AA013091AB0138872F831986DB86A8
:101F0000CA868C87CE0107960E94820D86E0F80172
:101F1000AAEAB1E001900D928A95E1F70E942F0E96
:101F20000E94210EFF24F39464CFC8010E94820D09
:101F3000F9CF911113C07C2DD98AC88A6E2D898959
:101F40000E94E10D8AEA91E00E94820D86E0EAEAB1
:101F5000F1E0DF011D928A95E9F763C0351312C0E5
:101F6000241310C0E1100EC0F8018583C8010E943F
:101F7000820DEAEAF1E086E0DF011D928A95E9F739
:101F8000FB2C37CF4D875E878D859E850E94C00DC7
:101F9000882359F2EE2049F28091AF01803208F493
:101FA000B5CF2091AA013091AB013A8329831B82DE
:101FB000DD82CC828E83CE010196A6CFC816D906CB
:101FC00098F1F601E81BF90BCF01F12C883C910543
:101FD00008F049C0FE2CEE2009F4A7CF351332C01B
:101FE000241330C08091AF0180FD23C0982F907FD3
:101FF00001F1D80115968C931597903F39F0982FE1
:10200000907F905F8F70892B15968C93C8010E94EA
:10201000820D86E0F801AAEAB1E001900D928A955E
:10202000E1F70E94210EE5CE809590958C0D9D1DC7
:10203000CCCF86E0F801AAEAB1E001900D928A9532
:10204000E1F7D7CE4D875E878D859E850E94C00DB6
:1020500081115CCF8091AF0181608093AF01C80195
:102060000E94820DC6CE7C2DD98AC88A6E2D8989A0
:102070000E94E10D6BCFEE2009F457CF4D875E87AC
:102080008D859E850E94C00DF82E882309F44DCFC2
:1020900086E0F801AAEAB1E001900D928A95E1F795
:1020A0008AEA91E00E947C0A0E942F0EBACF81E05A
:1020B0008E25BDCE1F93CF93DF93CDB7DEB72C9780
:1020C0000FB6F894DEBF0FBECDBF4F835887698728
:1020D0007A878B879C87CE0107960E94930E882370
:1020E00069F08A859B85892B39F04F815885842F2B
:1020F00085238F3F09F071C016E05FC086E0FE01C6
:102100003796DE01119601900D928A95E1F78A8546
:102110009B85892B89F388859F8189238F3F61F374
:102120002091790130E0C90101968770992740918B
:1021300078014817190671F40E94BC0D10927901BC
:102140001092780186E0EAEAF1E0DF011D928A95BB
:10215000E9F7D2CF96E0929FD001939FB00D112462
:10216000A658BE4FFE01319601900D929A95E1F767
:10217000809379010E94000EBFCF819FC00111247E
:1021800086589E4F0E94930E8823E9F0E0917801D3
:102190001E9FF0011124E658FE4F4081518162815B
:1021A0007381848195810E94F00D8091780190E087
:1021B000019687709927809378018091780190919A
:1021C00079018913DACF2C960FB6F894DEBF0FBED3
:1021D000CDBFDF91CF911F91089569857A858B8559
:1021E0009C850E94F00D88CFEF92FF920F931F9372
:1021F000CF93DF938C01892B81F0F12CEE24E394B3
:10220000E8012196F8018491843770F4843008F055
:102210005FC08130B1F08230A1F1DF91CF911F9189
:102220000F91FF90EF900895853709F44CC008F4A2
:102230003DC09CE7980F903780F78F770E94340B52
:1022400049C00E5F1F4FFE01849190E2980F9830B5
:1022500060F48770FE2D01C0FF0F8A95EAF78F2F7B
:102260000E9464130E940B1302C00E94810A8F2DEA
:10227000815030F2EFE9FFE03197F1F700C0000044
:10228000F7CF0E5F1F4FFE01849190E2980F9830B8
:1022900050F48770FE2D01C0FF0F8A95EAF78F2F4B
:1022A0000E946A13DFCF0E94340BE1CF0E5F1F4FF5
:1022B000FE01C491C150D8F28FE99FE00197F1F778
:1022C00000C00000F7CF0E5F1F4FFE01F490CFCF8C
:1022D0000E94810A8E01CBCF08950E946C116093F9
:1022E000B4017093B5018093B6019093B7010C943B
:1022F000AC0D08950C946D110F931F930091B401D0
:102300001091B5012091B6013091B701602B712B6E
:10231000822B932B1F910F910C946D110F931F9390
:102320000091B4011091B5012091B6013091B7012F
:1023300060237123822393231F910F910C946D11BD
:102340000F931F930091B4011091B5012091B60134
:102350003091B70160277127822793271F910F9132
:102360000C946D110C946C110C94B2110E94B41168
:102370006093B0017093B1018093B2019093B30167
:102380000C94AC0D60E070E0CB010C94B6110F938F
:102390001F9341E050E060E070E08A019B0104C0BF
:1023A000000F111F221F331F8A95D2F7C901B801F0
:1023B0001F910F910C94B6110F931F9341E050E0C1
:1023C00060E070E004C0440F551F661F771F8A95B8
:1023D000D2F78091B0019091B101A091B201B0917A
:1023E000B3018A019B01082B192B2A2B3B2BC90116
:1023F000B8011F910F910C94B6110F931F9341E0F8
:1024000050E060E070E004C0440F551F661F771F66
:102410008A95D2F7CB01BA01609570958095909519
:102420000091B0011091B1012091B2013091B3013E
:1024300060237123822393231F910F910C94B61173
:102440000F931F9341E050E060E070E004C0440F40
:10245000551F661F771F8A95D2F78091B001909122
:10246000B101A091B201B091B3018A019B0108278B
:1024700019272A273B27C901B8011F910F910C94F6
:10248000B6110F931F930091B0011091B1012091EB
:10249000B2013091B301602B712B822B932B1F91D2
:1024A0000F910C94B6110F931F930091B0011091EE
:1024B000B1012091B2013091B301602371238223D5
:1024C00093231F910F910C94B6110F931F930091BA
:1024D000B0011091B1012091B2013091B301602798
:1024E0007127822793271F910F910C94B61108959D
:1024F000BF92CF92DF92EF92FF920F931F93CF93F1
:10250000DF938C01C090B001D090B101E090B20196
:10251000F090B3018091B4019091B501A091B60102
:10252000B091B701C82AD92AEA2AFB2ACFE1D0E024
:10253000BC2ED701C6010C2E04C0B695A795979561
:1025400087950A94D2F780FD0EC0219788F7B12CA9
:102550008B2DDF91CF911F910F91FF90EF90DF9026
:10256000CF90BF900895B8018C2F0E94DC04019792
:1025700061F3EECFCF93DF93EC010E947812BE019E
:10258000DF91CF910C94DC04CB010C94BA12682F2C
:1025900080914101909142010C94E713682F809142
:1025A0004101909142010C94E91380914101909175
:1025B00042010C94EB138091B80185958595859522
:1025C00008958091B8018770089598E0899F9001DF
:1025D0001124622B6093B8010C94DC119091B80126
:1025E000809589238093B801282F277061F4282FC4
:1025F000082E000C330B9217130629F0859585954C
:1026000085950C94FD1108959091B801977081E023
:1026100009F480E00895E0914101F0914201809138
:10262000C4018083E0914101F09142018081909149
:10263000C301892B8083E0914101F09142018081A7
:102640009091C201892B80839091B901992381F0E7
:10265000E0914101F09142018081892B808380913A
:102660004101909142010E94B31381111092B9016E
:1026700080914101909142010C9480098091C401A4
:1026800008959091C401892B8093C4010895809589
:102690009091C40198239093C40108951092C401AD
:1026A00008958091C30108959091C301892B80936F
:1026B000C301089580959091C30198239093C3011D
:1026C00008951092C30108959091C201892B8093BF
:1026D000C201089580959091C20198239093C20100
:1026E00008951092C20108958093B901089510923F
:1026F000B90108958091B90108956DEE7EEF90E0E3
:1027000080E00E94EE1B60E082E090E00E94DC1B13
:1027100060E083E090E00E94DC1B60E084E090E0F9
:102720000E94DC1B60E085E090E00C94DC1B90E0F4
:1027300080E00E94D61B21E08D3E9E4F09F020E0F4
:10274000822F089582E090E00C94CE1B83E090E00D
:102750000C94CE1B84E090E00C94CE1B682F84E098
:1027600090E00C94DC1BFC0131969C01285F3F4FEC
:1027700080E0919191118F5FE217F307D1F70895EF
:102780009C01FC0132969FEF80E04191461751F089
:102790009F3F19F4411101C0982F8F5F8630A9F730
:1027A0009F3F09F40895290F311D97FD3A95F901CE
:1027B00062830895FC01329608962191261303C086
:1027C000DF0111971C92E817F907B9F708950C94E7
:1027D000C0130C94DA13FC0111821282138214824A
:1027E0001582168217820895089508950C94F513A2
:1027F0008091DC01843049F11092C60188E190E0BB
:1028000020E40FB6F894A895809360000FBE209343
:10281000600080E00E94B8040E94F61383B7817FB5
:10282000846083BF83B7816083BF7894889583B7C2
:102830008E7F83BF0FB6F894A89580916000886161
:1028400080936000109260000FBE089508950E946A
:10285000F4130E949A070E94261480E00E94ED075C
:1028600091E0811101C090E0892F089508950C94A2
:1028700036140E94BC0D0E9474090E94B8040C9486
:1028800037141F921FB61F9211248F939F93AF93FB
:10289000BF938091C601811113C08091D2019091A4
:1028A000D301A091D401B091D5014196A11DB11DD4
:1028B0008093D2019093D301A093D401B093D5011A
:1028C000BF91AF919F918F911F901FBE1F90189540
:1028D00082E084BD93E095BD9AEF97BD80936E0032
:1028E00008952FB7F8948091D2019091D301A091CF
:1028F000D401B091D5012FBF0895CF92DF92EF920E
:10290000FF920F931F932FB7F8944091D2015091EB
:10291000D3016091D4017091D5012FBF6A017B0171
:10292000EE24FF248C0130E020E0C016D106E20640
:10293000F30650F0481B590BCA011F910F91FF90ED
:10294000EF90DF90CF90089541505109F3CF7894E4
:102950001F921FB61F9211248F939F93AF93BF9323
:102960008091D2019091D301A091D401B091D50171
:102970000196A11DB11D8093D2019093D301A09324
:10298000D401B093D501BF91AF919F918F911F90CA
:102990001FBE1F90189581E08093E00080E2809335
:1029A000D8001092C9008FE19EE40197F1F700C0B2
:1029B000000087E090EBDC018093E5019093E60155
:1029C000A093E701B093E80188E19CE00FB6F8948A
:1029D000A895809360000FBE90936000FFCF0E9487
:1029E0009713811102C00E947D130E94A21380934D
:1029F000C5010E94AA1390E09093D7018093D6015D
:102A00000E94A613682F70E090E080E00C947A1189
:102A10008091CF01089508950F931F93CF93DF9373
:102A200000D00F92CDB7DEB78C010E942417823000
:102A300011F0843021F583E089831B830A8382E0CF
:102A40008093E9008FEF9091E800815095FD06C0DA
:102A500095ED9A95F1F700008111F5CF8091E8008E
:102A600085FF0DC050E040E063E070E0CE010196CC
:102A70000E9441178091E8008E778093E8000F90C4
:102A80000F900F90DF91CF911F910F910895CF93E9
:102A9000DF9300D00F92CDB7DEB72091DC01243058
:102AA00029F522E02983805891099B838A8320930A
:102AB000E9008FEF9091E800815095FD06C095EDFB
:102AC0009A95F1F700008111F5CF8091E80085FF1C
:102AD0000DC050E040E063E070E0CE0101960E943E
:102AE00041178091E8008E778093E8000F900F9057
:102AF0000F90DF91CF910895CF93DF93EC010E9467
:102B00002417823011F0843039F581E08093E90098
:102B10008FEF9091E800815095FD06C095ED9A9554
:102B2000F1F700008111F5CF8091E80085FF14C016
:102B300050E040E068E070E0CE010E9441178091D3
:102B4000E8008E778093E80088E0FE01A7ECB1E012
:102B500001900D928A95E1F7DF91CF9108958091D0
:102B6000DB01811109C00E94CF180E942C198091AD
:102B7000E20084608093E20008951092DB010895E2
:102B8000089508950C94391442E061EC81E00E94AC
:102B90004D1842E061EC82E00C944D188091DE010A
:102BA000833009F452C030F4813059F1823009F495
:102BB0008EC008958A3009F47AC08B3009F460C061
:102BC000893009F041C08091DD018132E9F58091C1
:102BD000E1019091E201892BB9F58091E800877FAE
:102BE0008093E8008091E80082FF2AC08091F10084
:102BF0008093CF018091E8008B778093E8000C945C
:102C000081188091DD01813AF9F48091E800877F95
:102C10008093E8008091E1019091E201892B61F4B9
:102C200068E087EC91E070E00E9490178091E800E6
:102C30008B778093E800089560E090E080E0F3CF28
:102C40008091DC018111CECF08958091DD01813A20
:102C5000D9F78091E1019091E201892BA9F7809148
:102C6000E800877F8093E8008091E80080FFFCCF38
:102C700080914D018093F1008091E8008E77BDCF67
:102C80008091DD01813201F78091E1019091E201B3
:102C9000892BD1F68091E800877F8093E8000E941D
:102CA00081188091DF0180934D010C94BC0D8091BF
:102CB000DD01813249F68091E800877F8093E8004A
:102CC0000E9481188091E0018093D0010895809145
:102CD000DD01813A09F0B8CF8091E800877F8093C9
:102CE000E8008091E80080FFFCCF8091D001C2CF46
:102CF00084B7877F84BF0FB6F894A8958091600051
:102D0000886180936000109260000FBE80E880931D
:102D10006100109261000E94B8090E94CF180E94C1
:102D20002C198091E20084608093E20078940E94E4
:102D3000AC1B0E94BC0983E491E00E946F09809162
:102D4000DC01853019F00E94C209F9CF0E94F81306
:102D50008091DA01882399F30E942714882379F35C
:102D60000E942B17ECCF0C94B516292F3327233054
:102D7000310519F168F42130310509F44AC02230D7
:102D8000310509F44BC090E080E030E020E028C03D
:102D90002132310579F122323105A9F780E490E042
:102DA00020EC32E061157105D9F086E390E02AE865
:102DB00032E061307105A1F0E6CF992781309105AD
:102DC00099F0009741F08230910589F00397D9F688
:102DD000EBE0F2E002C0E9E3F2E0849190E09F01D1
:102DE000FA01318320830895E5E2F2E0F6CFE1E1D4
:102DF000F2E0F3CF89E090E02FE432E06115710555
:102E000079F389E090E028E632E06130710541F322
:102E1000BACF82E190E028E732E0E2CF8BE390E0A6
:102E20002DE332E0DDCF0895CF93C82F0E94131712
:102E3000C093D101CF9108958091DC01843011F4C9
:102E400082E0089581E008958091D101811102C04E
:102E50000C941C17089580E189BD82E189BD09B4F5
:102E600000FEFDCF8091D8008F7D8093D8008091A7
:102E7000E00082608093E0008091E00081FDFCCF63
:102E80000895AF92BF92CF92DF92FF920F931F935C
:102E9000CF93DF936C01EB018A010E94A018F82EFA
:102EA000811123C00115110539F0F801808191814C
:102EB000C81BD90BC80ED91EB12CA12C2097A9F084
:102EC0008091E80085FD22C08091E8008E77809394
:102ED000E80001151105A1F0F80180819181A80E8B
:102EE000B91EB182A08285E0F82E8F2DDF91CF919F
:102EF0001F910F91FF90DF90CF90BF90AF900895FA
:102F00000E94A0188823D1F2F82EEFCFF60181910C
:102F10006F018093F1002197FFEFAF1ABF0ACECF68
:102F2000FC018091E3019091E40186179707A0F0DE
:102F30006115710529F49091E8009E779093E8005F
:102F400090E06115710551F4911108C08091E8007D
:102F500082FF34C080E00895BC01F2CF8091DC0193
:102F60008823C1F18530C1F18091E80083FD30C034
:102F70008091E80082FDEACF8091E80080FFE1CFF8
:102F80008091F3002091F200382F6115710519F03E
:102F90002830310558F091E02830310509F090E0F3
:102FA0002091E8002E772093E800CBCF8191809389
:102FB000F100615071092F5F3F4FE7CF8091DC0135
:102FC000882341F0853041F08091E80083FFBECF37
:102FD00081E0089582E0089583E00895FC018091E6
:102FE000E3019091E40186179707A0F06115710540
:102FF00029F48091E8008E778093E80090E06115D5
:10300000710551F4911108C08091E80082FF35C02C
:1030100080E00895BC01F2CF8091DC018823C9F1E2
:103020008530C9F18091E80083FD31C08091E800CE
:1030300082FDEACF8091E80080FFE1CF8091F3002C
:103040002091F200382F6115710519F028303105F3
:1030500058F091E02830310509F090E08091E800C7
:103060008E778093E800CBCF84918093F1003196E6
:10307000615071092F5F3F4FE6CF8091DC018823BB
:1030800041F0853041F08091E80083FFBDCF81E0C1
:10309000089582E0089583E00895982F973028F0EE
:1030A0008F708093E90081E008959093E900242FC8
:1030B000762F50E0981731F07091EC002091ED00E0
:1030C0005091F00021FD02C09F5FE8CF3091EB00EE
:1030D0003E7F3093EB003091ED003D7F3093ED006B
:1030E0003091EB0031603093EB007093EC00209353
:1030F000ED005093F0002091EE0027FDE5CF80E039
:1031000008958091DD0187FF13C08091E80082FF60
:1031100006C08091E8008B778093E80004C080911E
:10312000DC018111F2CF08958091DC018823D9F36D
:103130008091E80080FFF8CF8091E8008E77ECCF97
:103140002091E4003091E50085E6A9019091EC0022
:1031500090FF06C09091E80090FF06C080E00895BF
:103160009091E80092FDFACF9091DC01992389F0CB
:10317000953089F09091EB0095FD0FC02091E4000F
:103180003091E5004217530709F38150F1F684E0CE
:10319000089582E0089583E0089581E008950E94F3
:1031A0003D190E944519E0EEF0E080818160808346
:1031B000E8EDF0E080818F77808319BCA7EDB0E067
:1031C0008C918E7F8C9380818F7E80831092DB0127
:1031D00008950F931F93CF93DF930E943D190E9490
:1031E0004519C8EDD0E088818F7788838881806811
:1031F000888388818F7D888319BC1092DC011092AE
:10320000D8011092DA011092D90100EE10E0F80115
:1032100080818B7F808388818160888342E060E049
:1032200080E00E944D18E1EEF0E080818E7F808387
:10323000E2EEF0E08081816080838081886080831D
:10324000F80180818E7F8083888180618883DF910F
:10325000CF911F910F910895E8EDF0E080818F7E6E
:103260008083E7EDF0E080818160808384E082BF2D
:1032700081E08093DB010C94E918E8EDF0E08081B7
:103280008E7F80831092E20008951092DA001092EF
:10329000E10008951F920F920FB60F9211242F9301
:1032A0003F934F935F936F937F938F939F93AF93CE
:1032B000BF93EF93FF938091E10082FF0BC0809159
:1032C000E20082FF07C08091E1008B7F8093E100E4
:1032D0000E94AB1B8091DA0080FF19C08091D8005A
:1032E00080FF15C08091DA008E7F8093DA00809194
:1032F000D90080FF94C080E189BD82E189BD09B415
:1033000000FEFDCF81E08093DC010E94AF1580912B
:10331000E10080FF19C08091E20080FF15C080911C
:10332000E2008E7F8093E2008091E20080618093D2
:10333000E2008091D80080628093D80019BC85E0BB
:103340008093DC010E94C1158091E10084FF29C0B7
:103350008091E20084FF25C080E189BD82E189BDC2
:1033600009B400FEFDCF8091D8008F7D8093D800F6
:103370008091E1008F7E8093E1008091E2008F7E5A
:103380008093E2008091E20081608093E20080916E
:10339000D801882309F449C084E08093DC010E94AD
:1033A000C2158091E10083FF29C08091E20083FF74
:1033B00025C08091E100877F8093E10082E08093C7
:1033C000DC011092D8018091E1008E7F8093E100B2
:1033D0008091E2008E7F8093E2008091E200806124
:1033E0008093E20042E060E080E00E944D1880910E
:1033F000F00088608093F0000E94C015FF91EF916B
:10340000BF91AF919F918F917F916F915F914F91FC
:103410003F912F910F900FBE0F901F90189519BCE0
:103420001092DC010E94BD1572CF8091E30087FDF0
:1034300002C081E0B2CF83E0B0CF1F920F920FB6EF
:103440000F9211242F933F934F935F936F937F932A
:103450008F939F93AF93BF93CF93EF93FF93C091BD
:10346000E900CF708091EC001092E9008091F000AB
:10347000877F8093F00078940E94591A1092E90097
:103480008091F00088608093F000C093E900FF9184
:10349000EF91CF91BF91AF919F918F917F916F915C
:1034A0005F914F913F912F910F900FBE0F901F9002
:1034B00018951F93CF93DF93CDB7DEB7AA970FB6BA
:1034C000F894DEBF0FBECDBF8DED91E02091F100ED
:1034D000FC012193CF01F1E0853E9F07B9F70E94DF
:1034E000CE158091E80083FF1EC18091DD0190918F
:1034F000DE019A3008F017C1E92FF0E0E55BF34EEA
:103500000C94C81B803899F0823809F00CC1809166
:10351000E1018F70873008F006C18093E900809147
:10352000EB0085FB882780F91092E90006C08091A6
:10353000D9019091DA01911182609091E800977F12
:103540009093E8008093F1001092F1008091E800E0
:103550008E77E5C0882309F4D3C0823009F0E3C038
:103560008091DF018111D6C08091E1018F702FEF32
:10357000280F263008F0D7C08093E9002091EB0097
:1035800020FFC8C0933031F48091EB0080628093BB
:10359000EB00C0C09091EB0090619093EB0021E0B4
:1035A00030E001C0220F8A95EAF72093EA001092DA
:1035B000EA008091EB008860EACF8111B4C01091DD
:1035C000DF011F778091E3008078812B8093E300F7
:1035D0008091E800877F8093E8000E9481188091A5
:1035E000E80080FFFCCF8091E30080688093E300D7
:1035F00082E0111183E08093DC0195C08058823015
:1036000008F091C08091DF019091E0018C3D23E0B2
:103610009207A1F583E08A838AE289834FB7F89401
:10362000DE01139620E03EE051E2E32FF0E05093FC
:103630005700E49120FF03C0E295EF703F5FEF7009
:103640008E2F90E0EA30C0F0C7968D939D932F5F48
:10365000243159F74FBF8091E800877F8093E800BD
:103660006AE270E0CE0101960E9490178091E80016
:103670008B778093E80057C0C096E7CF6091E10157
:103680007091E201AE014F5F5F4F0E94B316BC0123
:10369000892B09F448C09091E800977F9093E80047
:1036A00089819A810E94EE17E1CF8038E1F58091FF
:1036B000E800877F8093E8008091D8018093F10033
:1036C00045CF811130C09091DF01923060F580913B
:1036D000E800877F8093E8009093D8010E948118CA
:1036E0008091D801882311F084E005C08091E30027
:1036F00087FDFACF81E08093DC010E94C41513C0DE
:103700008091DF01813079F481E0933009F080E02D
:103710008093DA011092E9008091E800877F80931E
:10372000E8000E9481188091E80083FF0AC0809120
:10373000E800877F8093E8008091EB0080628093AF
:10374000EB00AA960FB6F894DEBF0FBECDBFDF9197
:10375000CF911F9108950895CF938091DC01882324
:1037600099F0C091E900CF708091EC0080FD0EC00F
:1037700080E0C82B1092E9008091E80083FD0E9450
:10378000591ACF70C093E900CF91089580E8F1CF26
:10379000EE0FFF1F0590F491E02D0994F999FECFEB
:1037A00092BD81BDF89A992780B50895A8E1B0E04F
:1037B00042E050E00C94F61B262FF999FECF92BD03
:1037C00081BDF89A019700B4021639F01FBA20BDE6
:1037D0000FB6F894FA9AF99A0FBE08950196272F1A
:1037E0000E94DD1B0C94DC1BDC01CB01FC01F99970
:1037F000FECF06C0F2BDE1BDF89A319600B40D923D
:1038000041505040B8F70895F894FFCF8C039803C7
:103810009C03A003A403A803AC03B003B403B80340
:10382000BC03C003C403C803CC03D003D403D80330
:10383000A00BA00BFF0BFF0B460CCD0BCD0BCD0B44
:10384000620CCD0BFA0CFA0C650DCD0BCD0B6E0D89
:10385000040D040D040D040D040D040D040D040DE0
:10386000040D040D040D040D040D040D040D040DD0
:10387000110D1F0D260D2D0D370DCD0DCD0DD60DB6
:10388000D60DD80DD60DD60DD60DCD0DCD0DDD0D29
:10389000D60DD60DDD0D821AAA1A931BAA1A931BF8
:0A38A000DD1AFE1A931B551B611B75
:1038AA000F081F082F080000000000000000000099
:1038BA0000003C010000D1010000000000000000EF
:1038CA0000000000000000000000F40100000000F9
:1038DA00000000000000000000000000AE00230805
:1038EA00FFBA0108157C150B1547150C15019466CE
:0438FA0097C6340039
:00000001FF
