:100000000C9480010C94C7010C94C7010C94C70197
:100010000C94C7010C94C7010C94C7010C94C70140
:100020000C94C7010C94C7010C9456190C94291A0E
:100030000C944D140C94C7010C94C7010C94C70187
:100040000C94C7010C94C7010C94C7010C94C70110
:100050000C94C7010C94B3140C94C7010C94C70101
:100060000C94C7010C94C7010C94C7010C94C701F0
:100070000C94C7010C94C7010C94C7010C94C701E0
:100080000C94C7010C94C7010C94C7010C94C701D0
:100090000C94C7010C94C7010C94C7010C94C701C0
:1000A0000C94C7010C94C7010C94C70102E33603FA
:1000B000E30002E302E15B03E103E30002E3330355
:1000C000E30002E302E15B03E103E30002E3320346
:1000D000E30002E302E15B5B03E103E30002E331DF
:1000E00003E3006A6B6C01280002E302E16403E1B0
:1000F00003E3006C01280002E302E16403E103E38F
:1001000000A900AA00025700570157000000000094
:100110000000002A2B280000000000000000000062
:1001200000000000000029000000002C1E342021E7
:100130002224342627252E362D3738271E1F20212E
:1001400022232425263333362E37381F040506078D
:1001500008090A0B0C0D0E0F1011121314151617A7
:1001600018191A1B1C1D2F3130232D3504050607C5
:1001700008090A0B0C0D0E0F101112131415161787
:1001800018191A1B1C1D2F3130354C0000000000BF
:10019000000000000000000000000000000000005F
:1001A000000000000000000000000000010101014B
:1001B0000101000101010100000000000000000039
:1001C0000000000000010001000101010101010126
:1001D000010101010101010101010101010101010F
:1001E0000101010101010000000101000000000007
:1001F00000000000000000000000000000000000FF
:1002000000000000000001010101000403300000B3
:100210000012034D00650064006900610052006F28
:100220000077000000120372006100690064007A28
:1002300000650072006F0000000403090409023B1E
:1002400000020100A0FA09040000010301010009F5
:1002500021110100012240000705810308000A095D
:1002600004010001030000000921110100012236F0
:10027000000705820308000A1201100100000008AF
:10028000EDFE000001000102030105010980A1014A
:1002900085021601002603001A81002A83007510CA
:1002A00095018100C0050C0901A10185031601001B
:1002B000269C021A01002A9C02751095018100C03B
:1002C00005010906A101050719E029E71500250127
:1002D00095087501810295017508810105081901CC
:1002E0002905950575019102950175039101050791
:1002F000190029FF150026FF00950675088100C02A
:1003000011241FBECFEFDAE0DEBFCDBF04B603FE7F
:1003100027C08091E5019091E601A091E701B0919D
:10032000E8018730904BA740B04BD1F41092E50123
:100330001092E6011092E7011092E80114BE84B712
:10034000877F84BF0FB6F894A8958091600088617C
:1003500080936000109260000FBEE0E0F8E3099522
:1003600011E0A0E0B1E0E2ECF8E302C005900D92EC
:10037000A435B107D9F721E0A4E5B1E001C01D9291
:10038000A53EB207E1F70E9484160C94101C0C9451
:1003900000000C9476070C9477070C94E0020C9400
:1003A000C304CF93DF93EC0188818230B0F087EFF4
:1003B00090E00E94BA042FEF83EC99E02150804036
:1003C0009040E1F700C0000083EF90E00E94BA0483
:1003D000CE01DF91CF910C944B088BEADF91CF9146
:1003E0000C948D0ACF93DF93EC018881823008F45E
:1003F00056C089EE90E00E94BA042FEF83EC99E09A
:10040000215080409040E1F700C0000083EE90E072
:100410000E94BA042FEF83ED90E32150804090407A
:10042000E1F700C000008DED90E00E94BA0482ED7B
:1004300090E00E94BA042FEF81EE94E021508040BA
:100440009040E1F700C000008CEC90E00E94BA04FC
:1004500082EC90E00E94BA042FEF81EE94E02150EC
:1004600080409040E1F700C000008CEB90E00E94DB
:10047000BA0482EB90E00E94BA042FEF81EE94E080
:10048000215080409040E1F700C000008CEA90E0ED
:100490000E94BA04CE01DF91CF910C944B088CEAF4
:1004A000DF91CF910C948D0AFC018081813019F489
:1004B0008BEA0C94400B0895FC018081813019F483
:1004C0008CEA0C94400B08950F931F93CF93DF9306
:1004D0008C01EB019A9581159F4138F510FF03C0FF
:1004E00080EEFB01099511FF03C081EEFE01099525
:1004F00012FF03C082EEFE01099513FF03C083EED5
:10050000FE0109950115104180F084EEFE01099568
:1005100085EEFE01099586EEFE01099587EEFE0146
:10052000DF91CF911F910F910994DF91CF911F918E
:100530000F910895877091E001C0990F8A95EAF7AD
:10054000892F0E9460130C9417130C949A028770E1
:1005500091E001C0990F8A95EAF7892F0E946613EE
:100560000C9417130C94A702CF93DF93EC01805ED9
:100570009109089720F06AE972E0209711F465EA82
:1005800072E0CE010E9464028C2FDF91CF910C9417
:100590008D0ACF93DF93EC010E94400BCE01805E69
:1005A0009109089720F067EA72E0209711F462EB56
:1005B00072E0CE01DF91CF910C94640281E0089546
:1005C00081E008950E94C80D2FEF84E39CE0215044
:1005D00080409040E1F700C000000C94D7140F93C6
:1005E0001F93CF93DF938C01FC01C081D181CE0199
:1005F0000E948412BE010E94CA04EC01B8010E944C
:100600008E08B801CE010E94CD01882309F459C09B
:10061000B801CE010E94D208882309F452C0B80163
:10062000CE010E942707882309F44BC0C531FCE5A1
:10063000DF0709F427C1B0F4C130ECE5DE0709F4A7
:1006400046C008F056C0C115DC45B1F181E0809389
:10065000590180935A01C801DF91CF911F910F91E9
:100660000C94DE02C63DECE5DE0709F4F0C0B8F4F8
:10067000C43D8CE5D80709F4AEC0C53DDC4531F773
:10068000F8018281882309F4CDC010925A010E949A
:100690007D14909358018093570180E2A9C0C93D11
:1006A000FCE5DF07F1F0CA3DDC4581F6F801828107
:1006B000882339F082E01AC0F801828181110E94FA
:1006C000E20280E0DF91CF911F910F910895F80130
:1006D00082818823B1F38091C50181608093C50137
:1006E000F0CFF8018281882361F380E00E94201717
:1006F000E8CFF8018281882309F4ADCF0E94A313CB
:10070000811102C00E9489130E94B61390E0909359
:10071000D7018093D601FE01E350FC458091D601BC
:100720008160E231F10538F4EE5EF34E0C94D41B97
:100730008091D60182608093D6018091D6010E947B
:10074000BA130E94C80DBDCF8091D6018460F3CF4B
:100750008091D6018860EFCF8091D6018061EBCF88
:100760008091D6018062E7CF8091D6018064E3CF8B
:100770008091D6018068DFCF8091D6018C60DBCF7D
:100780008091D6018E7FD7CF8091D6018D7FD3CF38
:100790008091D6018B7FCFCF8091D601877FCBCF41
:1007A0008091D6018F7EC7CF8091D6018F7DC3CF38
:1007B0008091D6018F7BBFCF8091D6018F77BBCF41
:1007C0008091D601837FB7CF9091D601892F97FB77
:1007D00087F98058B0CFF8018281882361F01092A8
:1007E00059010E947D14909356018093550182E037
:1007F0000E94680B66CF8091590181110FC08091D2
:100800005501909156010E948914883C910530F45D
:1008100086E20E948D0A86E20E94400B82E00E94DE
:100820006F0B4FCF80915A0181110FC080915701FA
:10083000909158010E948914883C910530F487E218
:100840000E948D0A87E20E94400B80E2E8CFF80107
:10085000828181111ACF80915A018111F6CF809146
:100860005701909158010E948914883C910568F7BE
:1008700080E20E946F0B88E20E948D0A88E20E944B
:10088000400B1FCF0E944A13F8019281992381F0F7
:100890008A7A91E009F490E090935401811106C0A6
:1008A00089E20E94D3120E9417130BCF85E3F9CF80
:1008B00080915401811104C089E20E94DA12F3CFC1
:1008C00085E3FBCFCF9390E0FC01E55FFE4FC49141
:1008D00085579E4FFC018491882369F081EE0E9428
:1008E0008D0A8C2F0E948D0A8C2F0E94400B81EE66
:1008F000CF910C94400B8C2F0E948D0A8C2FF8CF37
:10090000FF920F931F93CF93DF938C01F62EF80184
:100910008491882349F1E8012196813049F4FE0150
:100920001491812F0E948D0A812F0E94400B06C0D6
:10093000823089F4FE0184910E948D0A8E010F5F3E
:100940001F4F8F2D815018F3EFE9FFE03197F1F73A
:1009500000C00000F7CF833019F4FE018491E5CF89
:100960000E946204E801EACFDF91CF911F910F91BD
:10097000FF90089560E00C9480040C94C9010E94DB
:100980002C090C94CB0108950C94CF0190E080E0E9
:1009900008950895E62F272F280F3327331FC90105
:1009A00025E0289FB001299F700D1124E60FF72F35
:1009B000F11DEE0FFF1FEF5FFE4F8591949108959B
:1009C000FC01EE0FFF1FE55FFD4F859194910895A7
:1009D000CF93DF930E94CA040E948806EC01811520
:1009E00020E5920708F042C0811530E4930708F033
:1009F00007C1883E910528F5803E910508F09BC00F
:100A0000883A910588F4853A910508F08AC08130CA
:100A1000910509F490C0009709F48DC0049708F07F
:100A20008AC0D0E0C0E087C08D3B910508F487C044
:100A3000805C9109C03CD105A0F30E94E004EC0168
:100A40007AC08115904250F4C11581E0D80708F0B2
:100A500072C0C03FD10528F3D0656DC0C11590E3C9
:100A6000D90708F0C3C0CE019F70E7CF811525E5F7
:100A7000920758F5811534E5930708F0F0C0811509
:100A800042E5940750F4C11581E5D80708F4BBC0CE
:100A9000DC2FCC27C16FD06A4EC0982F96959695C3
:100AA0009E0123703327C115D34508F0C9C0C1E0AA
:100AB000D0E002C0CC0FDD1F2A95E2F720E2929F22
:100AC000C0011124C82BD92BB9C0C11589E5D8079D
:100AD00080F4C11598E5D90708F0C6C0C11526E510
:100AE000D20708F09ECFDC2FCC27CC27DF71D06255
:100AF00022C0CE01C1153AE5D30708F4BAC090561A
:100B00008115904208F08DCF8D2F8F710E940307C1
:100B100090E0982F882788279F719C012C2BE90152
:100B2000E6CF853A910509F4AEC0863A910509F001
:100B3000ADC0C2E8D0E4CE01DF91CF910895883AEC
:100B4000910509F4A6C0893A910509F4A5C08A3A2D
:100B5000910509F4A4C08B3A910509F4A3C08C3A1D
:100B6000910509F4A2C08B3B910509F4A1C08C3B0F
:100B7000910509F4A0C08D3A910509F49FC0803B0E
:100B8000910509F49EC08E3A910509F49DC08F3AF3
:100B9000910509F49CC0813B910509F49BC0823BFF
:100BA000910509F49AC0833B910509F499C0843BEF
:100BB000910509F498C0853B910509F497C0863BDF
:100BC000910509F496C0873B910509F495C0883BCF
:100BD000910509F494C0893B910509F493C08A3BBF
:100BE000910509F492C0C0E0D4E4A5CFCE019927C5
:100BF000D3FF03C0EC01D86C9ECFEC01D06C9BCF2F
:100C0000DF70D06A98CFCE01E4E096958795EA959B
:100C1000E1F783702C2F26952695237090E2299F6B
:100C200090011124382B8C2F8370C1E0D0E002C0DA
:100C3000CC0FDD1F8A95E2F7C22BD32BDC687BCF6C
:100C4000C1E0D0E002C0CC0FDD1F2A95E2F730E210
:100C5000939FC0011124C82BD92BDA686CCFD82FF1
:100C6000CC27C46FD06A67CFDC2FCC27C06FD06A87
:100C700062CF34E0969587953A95E1F78F70CF7003
:100C8000C06ED82FBECFC1E8D0E455CFC3E8D0E4C2
:100C900052CFC2EED4E44FCFC9EED4E44CCFCAEE6B
:100CA000D4E449CFC5EBD4E446CFC6EBD4E443CF7C
:100CB000C3EBD4E440CFC4EBD4E43DCFC7EBD4E4E2
:100CC0003ACFCCECD4E437CFCDECD4E434CFC3E886
:100CD000D5E431CFCAE8D5E42ECFC2E9D5E42BCF95
:100CE000C4E9D5E428CFC1E2D6E425CFC3E2D6E4F7
:100CF00022CFC4E2D6E41FCFC5E2D6E41CCFC6E2C1
:100D0000D6E419CFC7E2D6E416CFCAE2D6E413CFB1
:100D10008238910549F1B0F48133910509F462C03C
:100D200048F48932910509F456C08A32910509F4D4
:100D300060C008958533910509F446C08933910553
:100D400099F00895833E910531F138F4803E910584
:100D500091F0823E9105B1F00895863E910521F112
:100D6000873E910551F108952091D6012370D9F065
:100D700080EE90E008952091D60120FF14C089E311
:100D800090E008952091D60122FF0DC024FD09C0F6
:100D900083EE90E008952091D60122FD31C024FF1A
:100DA00002C090E080E008952091D60123FFFBCFA0
:100DB00024FDF7CF87EE90E008952091D60123FF20
:100DC000EECF86EE90E008952091D60125FFEBCF7F
:100DD00089E290E008952091D60125FFE4CF85E3D4
:100DE00090E008952091D60126FFDDCF8AE290E0C1
:100DF00008952091D60126FFD6CF81E390E0089593
:100E000082EE90E008959091D60192FF06C0282FBF
:100E10002871283069F4877F846093FF06C0282FEB
:100E20002871283161F4877E846194FD877E08955E
:100E3000282F2471243089F78B7F8860EECF282FEC
:100E40002471243191F78B7E8861EFCF08950F9341
:100E50001F93CF938C01FB018281811106C0C1E0F9
:100E60008C2FCF911F910F910895C0916801C111EE
:100E700025C006311C4599F70E94260781E0809322
:100E800068010E947D14909367018093660110921F
:100E90005B0110925D0110925C0110925F01109253
:100EA0005E01109261011092600110926301109234
:100EB00062011092650110926401D2CF80916601A7
:100EC000909167010E9489148C32914040F6809184
:100ED0005B01E82FF0E0EE0FFF1FE45AFE4F118395
:100EE00000838F5F80935B01C0E0BACF08950895BF
:100EF000CF93DF9385B7806885BF85B7806885BF4E
:100F000025982D9AAEE4B1E043E551E0C1E0D0E090
:100F10008D91E82FE295EF70F0E061A18F709E0156
:100F200001C0220F8A95EAF7922F9095962391A3FC
:100F300082A1822B82A34A175B0751F710926A01A4
:100F400010926901DF91CF910C94BD045091690119
:100F500010926901259A2D9880EA8A95F1F7AEE4FE
:100F6000B1E090E080E061E070E03D91E32FE29538
:100F7000EF70F0E020A1409169013F70FB0101C0DA
:100F8000EE0F3A95EAF72E2391F5262F082E01C091
:100F9000220F0A94EAF7242B2093690101968530E9
:100FA000910519F725982D9A80916901581749F0F4
:100FB00081E080936B010E947D1490936D0180937A
:100FC0006C0180916B01882371F080916C0190918C
:100FD0006D010E948914069730F080916901809319
:100FE0006A0110926B010E94BF0481E0089520E025
:100FF000D2CFE82FF0E0E659FE4F808108950895A2
:10100000CF93DF93EC0181E08F878F810E944D1396
:1010100088850E9460130E941713EA81FB81309734
:1010200039F06A897B89CE010696DF91CF910994C8
:10103000DF91CF910895CF93DF93EC0188818230C7
:1010400039F4FB01828193810E94B40281E0898797
:10105000DF91CF910895FC018081813029F4FB015B
:10106000808191810C94B402823021F4FB01828151
:101070009381F8CF0895FC018081813029F4FB0130
:10108000808191810C94C902823021F4FB0182811C
:101090009381F8CF0895EF92FF920F931F93CF9310
:1010A000DF93EC018885811132C0EB80FC8087E5FD
:1010B000F81A24E12E9DC0012F9D900D1124DC0112
:1010C000A050BF4F1496ED91FC911597309731F0D9
:1010D00052966D917C918A5F9E4F099584E18E9D19
:1010E00080018F9D100D112400501F4FF801878142
:1010F0000E945313F80180850E9466130E94171303
:1011000018821F82198610926F0110926E01DF9172
:10111000CF911F910F91FF90EF900895DF92EF9282
:10112000FF920F931F93CF93DF937C01FB0182818A
:10113000882391F0809140018F3F71F0C0E0D1E0B1
:1011400010E000E0DD24D39480914001082E000CD3
:10115000990B8017910744F4DF91CF911F910F9164
:10116000FF90EF90DF9008958E818823B9F08985F4
:101170009A858E159F0539F480916E0190916F01CB
:101180008E159F0559F0DD868F85811103C0CE0134
:101190000E940008CE0106960E944B080F5F1F4F69
:1011A0006496D2CFEF92FF920F931F93CF93DF936A
:1011B0007C0197558F3F910509F0D8F520914001AA
:1011C000022E000C330B2817390714F480934001CA
:1011D000FB01228134E1389F8001399F100D1124D9
:1011E000E801C050DF4F2E8792818E81992349F10B
:1011F000FA86E9868F5F8E830E947D149C878B8799
:101200000E9486138F830E944A1388870E945D1371
:101210009885892B8887E881F981309731F06A8930
:101220007B89C8018A5F9E4F0995F0926F01E09219
:101230006E0181E0DF91CF911F910F91FF90EF90B0
:1012400008958823B1F38F85882399F3C8018A5FB5
:101250009E4F0E944B08EDCFEF92FF920F931F938A
:10126000CF93DF938091400110E004E18F3FC1F5FF
:10127000DF91CF911F910F91FF90EF900895029F02
:10128000F001039FF00D1124E050FF4FE088F1883A
:10129000E114F10419F488ECE82EF12C029FE0012E
:1012A000039FD00D1124C050DF4F8E818823B9F0E9
:1012B0008B859C850E948914E816F90680F4109F9E
:1012C000700111248F85811105C0C70180509F4F87
:1012D0000E940008C7018A5F9E4F0E944B081F5F53
:1012E000212F30E080914001082E000C990B8217CD
:1012F00093072CF6BDCF90937501809374010895E8
:10130000E0917401F0917501309721F00190F08126
:10131000E02D099480E00895E0917401F091750149
:10132000309721F00280F381E02D099408952091F7
:101330007201309173012817390771F0909373018E
:1013400080937201E0917401F0917501309721F062
:101350000680F781E02D0994089520917001309165
:1013600071012817390771F0909371018093700112
:10137000E0917401F0917501309721F00084F185BE
:10138000E02D0994089508950C94C30981E008950F
:101390000E9474140E9478070C94FB14EF92FF9241
:1013A0000F931F93CF93DF93CDB7DEB72A970FB676
:1013B000F894DEBF0FBECDBF0E94A6070E94C609EB
:1013C00081112EC08FEF89838A831B820E947D1436
:1013D0008160782F9D838C8349815A816B818D81B7
:1013E0000E945E0A0E94800990917601891709F493
:1013F00058C00E948009809376012A960FB6F8940F
:10140000DEBF0FBECDBFDF91CF911F910F91FF9037
:10141000EF900C94C40401968530910599F4D2CFD5
:1014200080E00E94F907182F00917701081751F208
:101430008091C50181FD0E94FF0790E080E00127B7
:10144000202F30E0482FB901082E02C0759567950E
:101450000A94E2F760FFDFCF8E831F8281E090E085
:101460007C0102C0EE0CFF1C4A95E2F7812F90E050
:101470008E219F2121E0892B09F420E028870E94FA
:101480007D148160782F9A8789874E815F81688576
:101490008A850E945E0A80917701E826E0927701B2
:1014A000A1CF2A960FB6F894DEBF0FBECDBFDF9155
:1014B000CF911F910F91FF90EF900895CF93DF93FD
:1014C000CDB7DEB72B970FB6F894DEBF0FBECDBFFA
:1014D0004F83588769877A878B871E821D8285E0B4
:1014E000FE013796DE01119601900D928A95E1F783
:1014F00049815A816B817C818D819E812B960FB6AB
:10150000F894DEBF0FBECDBFDF91CF910C94661073
:10151000FC01808191810C94C612882309F4AFC02C
:101520009CEF980F913A20F40E94D3120C94171359
:1015300090E2980F983050F4877091E001C0990FB5
:101540008A95EAF7892F0E944D13F0CF9BE5980FFB
:10155000933070F4853A31F0863A39F083E890E0C0
:101560000C94970981E890E0FBCF82E890E0F8CFF7
:1015700098E5980F953108F082C0883A09F440C088
:10158000893A09F440C08A3A09F440C08B3A09F418
:1015900040C08C3A09F440C08B3B09F440C08C3BFE
:1015A00009F440C08D3A09F440C0803B09F440C0C2
:1015B0008E3A09F440C08F3A09F440C0813B09F4E7
:1015C00040C0823B09F440C0833B09F440C0843BE7
:1015D00009F440C0853B09F440C0863B09F440C093
:1015E000873B09F440C0883B09F440C0893B09F4BB
:1015F00040C08A3B09F440C090E080E00C94AD0903
:1016000082EE90E0FBCF89EE90E0F8CF8AEE90E09A
:10161000F5CF85EB90E0F2CF86EB90E0EFCF83EB58
:1016200090E0ECCF84EB90E0E9CF87EB90E0E6CF61
:101630008CEC90E0E3CF8DEC90E0E0CF83E891E09C
:10164000DDCF8AE891E0DACF82E991E0D7CF84E973
:1016500091E0D4CF81E292E0D1CF83E292E0CECF8D
:1016600084E292E0CBCF85E292E0C8CF86E292E0BE
:10167000C5CF87E292E0C2CF8AE292E0BFCF089561
:10168000882329F19CEF980F913A20F40E94DA12F6
:101690000C94171390E2980F983050F4877091E0F3
:1016A00001C0990F8A95EAF7892F0E945313F0CF52
:1016B0009BE5980F933020F490E080E00C9497091C
:1016C000885A853120F490E080E00C94AD090895AB
:1016D000882321F00E944D130C941713089588233A
:1016E00021F00E9453130C94171308958F929F9228
:1016F000AF92BF92CF92DF92EF92FF920F931F9320
:10170000CF93DF937C01D62FC72FFC010581029573
:101710000F70128111110E946D130E941013C82EB8
:10172000882371F01123B1F080E28D0F883090F0A2
:1017300082E00E94FA120E94101391E0C82EC9267E
:10174000DC2ED2949FE0D922ED2DF0E0EC5DF34E3B
:101750000C94D41BC12CF4CF0C2F0F70C07F11F050
:101760000295007F1123A9F0002359F080E28D0F2C
:10177000883010F0D11109C0802F0E944D130E94B3
:1017800017138D2F0E948D0A14C0802F0E946013A2
:10179000F6CF8D2F0E94400B002359F080E28D0F71
:1017A000883010F0D11133C0802F0E9453130E9453
:1017B000171398E0D91639F0D91648F086EF8D0D39
:1017C0008F70823020F40E9480090E94C404CC20D3
:1017D00009F497C10E94ED1280FD93C1F7011282B6
:1017E0000E94E7120E94E811C7010E948E0D0E941C
:1017F000E712DF91CF911F910F91FF90EF90DF9053
:10180000CF90BF90AF909F908F900C940912802F33
:101810000E946613CCCFFC2FFF70BF2EC07FC0325A
:1018200019F0B29480EFB822DD2369F0D13049F18C
:10183000112391F1002351F1F701858180FFA1CFA0
:101840008F70858323C0112381F0011106C00E948F
:1018500086138B290E94680BACCF0130C1F70E9420
:1018600086138B290E948013A4CF011106C00E9409
:1018700083138B2D0E946F0B9CCF013009F499CFFD
:10188000F6CF112329F0063008F093CF8B2DE2CF4D
:10189000053008F08ECFEDCF002359F38D2F0E9435
:1018A000400B87CF8C2F86958695837069F08130A9
:1018B00009F07FCF8D2F9C2F9370111102C090E003
:1018C00080E00E94AD0975CF8D2F9C2F9370111170
:1018D00002C090E080E00E9497096BCF8C2F83704C
:1018E00009F047C0111165CF2D2F2295269527703D
:1018F000220F220F6D2F6F70862E912CB12CA12CF0
:10190000022E04C0880C991CAA1CBB1C0A94D2F796
:1019100060E070E0CB01D4FF0FC06FE070E080E0CA
:1019200090E004C0660F771F881F991F2A95D2F791
:101930006095709580959095C695C695C370C23098
:1019400051F080F4682979298A299B29C13071F0E6
:101950000E949A112ECF682979298A299B290E94F1
:10196000AC1127CF0E949A11C501B4010E948811C1
:1019700020CF8695112311F08C2F8170882309F4D4
:1019800018CF2D2F229526952770220F220F6D2F0D
:101990006F70862E912CB12CA12C022E04C0880CC5
:1019A000991CAA1CBB1C0A94D2F760E070E0CB0122
:1019B000D4FF0FC06FE070E080E090E004C0660FDD
:1019C000771F881F991F2A95D2F76095709580958B
:1019D0009095C695C695C370C23051F080F46829C1
:1019E00079298A299B29C13071F00E945F12E1CECA
:1019F000682979298A299B290E947112DACE0E94CE
:101A00005F12C501B4010E944D12D3CEE0E2ED0F8A
:101A1000E53108F04DC0F0E0EC5CF34E0C94D41BC3
:101A2000DF708C2F8F71112321F00E94E8118D2F10
:101A300011CF0E9409128D2F1DCF112341F00530C7
:101A400008F0B7CE8C2F8F710E942C12B2CE0630C8
:101A500008F0AFCEF7CF8C2F8F71112339F00E9491
:101A6000E811A7CE8C2F8F711123C9F30E940912A0
:101A7000A0CE112329F08C2F8F710E94D31199CE03
:101A80000E94CE1196CE112349F0CF718C2F0E9467
:101A9000E81163E08C2F0E94F1128BCE81E00E944E
:101AA000FA12023008F485CE82E00E94FA1281CE4A
:101AB000112329F0011165CE8C2F8F71D0CF002317
:101AC00069F0D93309F0EACEFFEF27EE83E0F15059
:101AD00020408040E1F700C00000E0CE8C2F8F71E5
:101AE000C5CF4C2F4F706D2FC7010E94C6040E94B6
:101AF00000115FCE4C2F4F706D2FC7010E94C9049B
:101B000058CEDF91CF911F910F91FF90EF90DF9012
:101B1000CF90BF90AF909F908F9008950F931F9399
:101B2000CF93DF93EC018B819C81892B29F08881F5
:101B3000998189238F3F29F4DF91CF911F910F91D4
:101B40000895CE010E94EF028823B1F36881798164
:101B50008A810E94D0128C010E9483120E948511FA
:101B6000B801CE01DF91CF911F910F910C94760BAC
:101B70000E946D130E947D130E94E1120E941713B0
:101B800090E080E00E94970990E080E00C94AD091D
:101B90000E945A130C94B80D0E94C612E92FE295C8
:101BA000EF70E250EE3070F4F0E0E75BF34E0C942F
:101BB000D41B803F19F020F4803E20F481E008958A
:101BC000843FE1F380E00895803EC0F3813FD1F788
:101BD000F5CF93FB882780F90895CF93DF9300D04A
:101BE00000D00F92CDB7DEB70F900F900F900F90EF
:101BF0000F90DF91CF910895CF93DF9300D000D065
:101C000000D0CDB7DEB726960FB6F894DEBF0FBE74
:101C1000CDBFDF91CF9108951F93CF93DF93C091F4
:101C2000780116E0809179018C1304C0DF91CF9187
:101C30001F910895D0E01C9FF0011D9FF00D11240D
:101C4000E658FE4F40815181628173818481958184
:101C50000E94FC0D2196C770E5CF4091AA015091DA
:101C6000AB016091AC017091AD018091AE0190919A
:101C7000AF010C94FC0D1F93CF93DF938091AF01C4
:101C8000807FC1F48091AC018823A1F0809178011C
:101C9000C09179016091AA017091AB014091AD01B1
:101CA0005091AE01D62FD723DA01A095B09516E05A
:101CB000C81304C0DF91CF911F91089590E04115A2
:101CC000510511F0DF3F31F401968770F1CF2A0FF3
:101CD0003B1F17C0189FF001199FF00D1124E65803
:101CE000FE4F21812713F0CF20812613EDCF2281D3
:101CF0002111EACF238134812417350740F3241BB7
:101D0000350B283C310500F72091AF012F70206181
:101D10002093AF0126E0289FF001299FF00D1124A8
:101D2000E158FE4F80818F70806180838AEA91E064
:101D30000E948E0DDF91CF911F910C940C0EBF92DB
:101D4000CF92DF92EF92FF920F931F93CF93DF9387
:101D5000CDB7DEB761970FB6F894DEBF0FBECDBF2B
:101D60008C0185E0F801DE011D9601900D928A95A7
:101D7000E1F7D8014C9111965C9111971296EC9075
:101D800012978091AD019091AE01009709F47FC147
:101D90002091AA013091AB01622F63236F3F09F4B8
:101DA00076C11396CD90DC90B090AC01BB2009F4C5
:101DB00011C1C816D906D0F1F601E81BF90BCF0105
:101DC000FF24F394883C910508F0F12C8091AF0139
:101DD000982F907FFF2009F4B8C091117FC0FE2C8E
:101DE000351329C0241327C0E11025C08F708061EE
:101DF0008093AF010E942D0E8AEA91E00E948E0D21
:101E00008091AF01D80115968C938F2D61960FB6F6
:101E1000F894DEBF0FBECDBFDF91CF911F910F9120
:101E2000FF90EF90DF90CF90BF90089580959095B0
:101E30008C0D9D1DC5CFCD2829F0852F84238F3F84
:101E400009F041C180E0B82FB170DB2E80FF3CC0AB
:101E5000809178012091790136E0821315C04D8779
:101E60005E878D859E850E94C612292F22952F7030
:101E70002230F0F0243018F59F70F1F0F8019581D0
:101E8000907FD1F4D12C1EC090E0389FF001399F93
:101E9000F00D1124E658FE4F6181651306C0608184
:101EA000641303C06281E6120FC001968770D5CF1C
:101EB0009F7011F0882331F3805E883018F3C801D9
:101EC0000E948E0DFD2CA1CFEE2009F49ECF8091B3
:101ED000AF0181608093AF01F12C97CF351306C01D
:101EE000241304C0D801EE2009F49AC04D875E8700
:101EF0008D859E850E94CC0D882319F1EE2009F175
:101F00008091AF01803270F02091AA013091AB0135
:101F100038872F831986DB86CA868C87CE01079681
:101F20000E948E0D86E0F801AAEAB1E001900D92C0
:101F30008A95E1F70E943B0E0E942D0EFF24F39438
:101F400064CFC8010E948E0DF9CF911113C07C2D72
:101F5000D98AC88A6E2D89890E94ED0D8AEA91E09E
:101F60000E948E0D86E0EAEAF1E0DF011D928A957B
:101F7000E9F763C0351312C0241310C0E1100EC07E
:101F8000F8018583C8010E948E0DEAEAF1E086E03F
:101F9000DF011D928A95E9F7FB2C37CF4D875E87CD
:101FA0008D859E850E94CC0D882359F2EE2049F242
:101FB0008091AF01803208F4B5CF2091AA01309111
:101FC000AB013A8329831B82DD82CC828E83CE01D2
:101FD0000196A6CFC816D90698F1F601E81BF90BB1
:101FE000CF01F12C883C910508F049C0FE2CEE2071
:101FF00009F4A7CF351332C0241330C08091AF014C
:1020000080FD23C0982F907F01F1D80115968C9305
:102010001597903F39F0982F907F905F8F70892BA4
:1020200015968C93C8010E948E0D86E0F801AAEAED
:10203000B1E001900D928A95E1F70E942D0EE5CE58
:10204000809590958C0D9D1DCCCF86E0F801AAEA75
:10205000B1E001900D928A95E1F7D7CE4D875E876A
:102060008D859E850E94CC0D81115CCF8091AF0142
:1020700081608093AF01C8010E948E0DC6CE7C2D79
:10208000D98AC88A6E2D89890E94ED0D6BCFEE200A
:1020900009F457CF4D875E878D859E850E94CC0DB4
:1020A000F82E882309F44DCF86E0F801AAEAB1E0C2
:1020B00001900D928A95E1F78AEA91E00E94880AE0
:1020C0000E943B0EBACF81E08E25BDCE1F93CF93E9
:1020D000DF93CDB7DEB72C970FB6F894DEBF0FBEF7
:1020E000CDBF4F83588769877A878B879C87CE01BE
:1020F00007960E949F0E882369F08A859B85892B0D
:1021000039F04F815885842F85238F3F09F071C0A6
:1021100016E05FC086E0FE013796DE011196019061
:102120000D928A95E1F78A859B85892B89F38885AD
:102130009F8189238F3F61F32091790130E0C901AC
:10214000019687709927409178014817190671F414
:102150000E94C80D109279011092780186E0EAEA97
:10216000F1E0DF011D928A95E9F7D2CF96E0929FC8
:10217000D001939FB00D1124A658BE4FFE01319699
:1021800001900D929A95E1F7809379010E940C0ECF
:10219000BFCF819FC001112486589E4F0E949F0E81
:1021A0008823E9F0E09178011E9FF0011124E658A0
:1021B000FE4F4081518162817381848195810E94AB
:1021C000FC0D8091780190E00196877099278093AB
:1021D000780180917801909179018913DACF2C965A
:1021E0000FB6F894DEBF0FBECDBFDF91CF911F9128
:1021F000089569857A858B859C850E94FC0D88CF22
:10220000EF92FF920F931F93CF93DF938C01892B53
:1022100081F0F12CEE24E394E8012196F8018491F9
:10222000843770F4843008F05FC08130B1F08230C0
:10223000A1F1DF91CF911F910F91FF90EF90089541
:10224000853709F44CC008F43DC09CE7980F9037DF
:1022500080F78F770E94400B49C00E5F1F4FFE0131
:10226000849190E2980F983060F48770FE2D01C041
:10227000FF0F8A95EAF78F2F0E9470130E941713A1
:1022800002C00E948D0A8F2D815030F2EFE9FFE0ED
:102290003197F1F700C00000F7CF0E5F1F4FFE012E
:1022A000849190E2980F983050F48770FE2D01C011
:1022B000FF0F8A95EAF78F2F0E947613DFCF0E94D7
:1022C000400BE1CF0E5F1F4FFE01C491C150D8F209
:1022D0008FE99FE00197F1F700C00000F7CF0E5F94
:1022E0001F4FFE01F490CFCF0E948D0A8E01CBCFFD
:1022F00008950E9478116093B4017093B5018093A2
:10230000B6019093B7010C94B80D08950C9479110F
:102310000F931F930091B4011091B5012091B60164
:102320003091B701602B712B822B932B1F910F9152
:102330000C9479110F931F930091B4011091B50182
:102340002091B6013091B70160237123822393233A
:102350001F910F910C9479110F931F930091B40169
:102360001091B5012091B6013091B7016027712716
:10237000822793271F910F910C9479110C94781157
:102380000C94BE110E94C0116093B0017093B10112
:102390008093B2019093B3010C94B80D60E070E0AB
:1023A000CB010C94C2110F931F9341E050E060E009
:1023B00070E08A019B0104C0000F111F221F331F10
:1023C0008A95D2F7C901B8011F910F910C94C211DF
:1023D0000F931F9341E050E060E070E004C0440FB1
:1023E000551F661F771F8A95D2F78091B001909193
:1023F000B101A091B201B091B3018A019B01082BF8
:10240000192B2A2B3B2BC901B8011F910F910C945A
:10241000C2110F931F9341E050E060E070E004C0F0
:10242000440F551F661F771F8A95D2F7CB01BA015B
:1024300060957095809590950091B0011091B101D3
:102440002091B2013091B301602371238223932341
:102450001F910F910C94C2110F931F9341E050E014
:1024600060E070E004C0440F551F661F771F8A9517
:10247000D2F78091B0019091B101A091B201B091D9
:10248000B3018A019B01082719272A273B27C90185
:10249000B8011F910F910C94C2110F931F930091DB
:1024A000B0011091B1012091B2013091B301602BC4
:1024B000712B822B932B1F910F910C94C2110F93B0
:1024C0001F930091B0011091B1012091B2013091A0
:1024D000B30160237123822393231F910F910C94E6
:1024E000C2110F931F930091B0011091B10120917F
:1024F000B2013091B30160277127822793271F9182
:102500000F910C94C2110895BF92CF92DF92EF9277
:10251000FF920F931F93CF93DF938C01C090B00174
:10252000D090B101E090B201F090B3018091B4017C
:102530009091B501A091B601B091B701C82AD92AEE
:10254000EA2AFB2ACFE1D0E0BC2ED701C6010C2E2F
:1025500004C0B695A795979587950A94D2F780FD04
:102560000EC0219788F7B12C8B2DDF91CF911F9151
:102570000F91FF90EF90DF90CF90BF900895B8013A
:102580008C2F0E94E804019761F3EECFCF93DF9385
:10259000EC010E948412BE01DF91CF910C94E804FB
:1025A000CB010C94C612682F809141019091420199
:1025B0000C94F313682F80914101909142010C9487
:1025C000F51380914101909142010C94F713809191
:1025D000B80185958595859508958091B801877096
:1025E000089598E0899F90011124622B6093B801AF
:1025F0000C94E8119091B801809589238093B801DB
:10260000282F277061F4282F082E000C330B921707
:10261000130629F08595859585950C9409120895E2
:102620009091B801977081E009F480E00895E091FD
:102630004101F09142018091C4018083E091410108
:10264000F091420180819091C301892B8083E091B8
:102650004101F091420180819091C201892B8083D8
:102660009091B901992381F0E0914101F0914201EB
:102670008081892B808380914101909142010E9449
:10268000BF1381111092B9018091410190914201D3
:102690000C948C098091C40108959091C401892BF8
:1026A0008093C401089580959091C40198239093DC
:1026B000C40108951092C40108958091C301089542
:1026C0009091C301892B8093C301089580959091C7
:1026D000C30198239093C30108951092C3010895F4
:1026E0009091C201892B8093C201089580959091A9
:1026F000C20198239093C20108951092C2010895D7
:102700008093B90108951092B90108958091B9019B
:1027100008956DEE7EEF90E080E00E94FA1B60E08D
:1027200082E090E00E94E81B60E083E090E00E947D
:10273000E81B60E084E090E00E94E81B60E085E038
:1027400090E00C94E81B90E080E00E94E21B21E006
:102750008D3E9E4F09F020E0822F089582E090E0A8
:102760000C94DA1B83E090E00C94DA1B84E090E098
:102770000C94DA1B682F84E090E00C94E81BFC01B9
:1027800031969C01285F3F4F80E0919191118F5FBE
:10279000E217F307D1F708959C01FC0132969FEFF1
:1027A00080E04191461751F09F3F19F4411101C05B
:1027B000982F8F5F8630A9F79F3F09F40895290F5E
:1027C000311D97FD3A95F90162830895FC01329617
:1027D00008962191261303C0DF0111971C92E81778
:1027E000F907B9F708950C94CC130C94E613FC0187
:1027F0001182128213821482158216821782089522
:10280000089508950C9401148091DC01843049F1FD
:102810001092C60188E190E020E40FB6F894A895E4
:10282000809360000FBE2093600080E00E94C4048B
:102830000E94021483B7817F846083BF83B7816065
:1028400083BF7894889583B78E7F83BF0FB6F89443
:10285000A89580916000886180936000109260006C
:102860000FBE089508950E9400140E94A6070E94BA
:10287000321480E00E94F90791E0811101C090E0DC
:10288000892F089508950C9442140E94C80D0E9447
:1028900080090E94C4040C9443141F921FB61F9217
:1028A00011248F939F93AF93BF938091C6018111A1
:1028B00013C08091D2019091D301A091D401B09125
:1028C000D5014196A11DB11D8093D2019093D301F2
:1028D000A093D401B093D501BF91AF919F918F91F7
:1028E0001F901FBE1F90189582E084BD93E095BD98
:1028F0009AEF97BD80936E0008952FB7F89480915A
:10290000D2019091D301A091D401B091D5012FBFF4
:102910000895CF92DF92EF92FF920F931F932FB7FC
:10292000F8944091D2015091D3016091D4017091FB
:10293000D5012FBF6A017B01EE24FF248C0130E01A
:1029400020E0C016D106E206F30650F0481B590BF2
:10295000CA011F910F91FF90EF90DF90CF900895E3
:1029600041505109F3CF78941F921FB61F92112442
:102970008F939F93AF93BF938091D2019091D30196
:10298000A091D401B091D5010196A11DB11D8093F4
:10299000D2019093D301A093D401B093D501BF91FC
:1029A000AF919F918F911F901FBE1F90189581E04E
:1029B0008093E00080E28093D8001092C9008FE1FC
:1029C0009EE40197F1F700C0000087E090EBDC0186
:1029D0008093E5019093E601A093E701B093E801AD
:1029E00088E19CE00FB6F894A895809360000FBE34
:1029F00090936000FFCF0E94A313811102C00E9438
:102A000089130E94AE138093C5010E94B61390E013
:102A10009093D7018093D6010E94B213682F70E083
:102A200090E080E00C9486118091CF010895089584
:102A30000F931F93CF93DF9300D00F92CDB7DEB7E4
:102A40008C010E943017823011F0843021F583E030
:102A500089831B830A8382E08093E9008FEF909142
:102A6000E800815095FD06C095ED9A95F1F70000BC
:102A70008111F5CF8091E80085FF0DC050E040E066
:102A800063E070E0CE0101960E944D178091E8004E
:102A90008E778093E8000F900F900F90DF91CF9189
:102AA0001F910F910895CF93DF9300D00F92CDB770
:102AB000DEB72091DC01243029F522E029838058FB
:102AC00091099B838A832093E9008FEF9091E8001E
:102AD000815095FD06C095ED9A95F1F700008111A2
:102AE000F5CF8091E80085FF0DC050E040E063E045
:102AF00070E0CE0101960E944D178091E8008E771C
:102B00008093E8000F900F900F90DF91CF91089580
:102B1000CF93DF93EC010E943017823011F08430A4
:102B200039F581E08093E9008FEF9091E8008150C2
:102B300095FD06C095ED9A95F1F700008111F5CF4E
:102B40008091E80085FF14C050E040E068E070E04C
:102B5000CE010E944D178091E8008E778093E800A7
:102B600088E0FE01A7ECB1E001900D928A95E1F7B3
:102B7000DF91CF9108958091DB01811109C00E94FE
:102B8000DB180E9438198091E20084608093E20093
:102B900008951092DB010895089508950C9445144A
:102BA00042E061EC81E00E94591842E061EC82E071
:102BB0000C9459188091DE01833009F452C030F42E
:102BC000813059F1823009F48EC008958A3009F4B9
:102BD0007AC08B3009F460C0893009F041C080911F
:102BE000DD018132E9F58091E1019091E201892BCB
:102BF000B9F58091E800877F8093E8008091E80034
:102C000082FF2AC08091F1008093CF018091E8007B
:102C10008B778093E8000C948D188091DD01813AC8
:102C2000F9F48091E800877F8093E8008091E101CA
:102C30009091E201892B61F468E087EC91E070E00B
:102C40000E949C178091E8008B778093E80008959C
:102C500060E090E080E0F3CF8091DC018111CECF85
:102C600008958091DD01813AD9F78091E101909139
:102C7000E201892BA9F78091E800877F8093E80023
:102C80008091E80080FFFCCF80914D018093F1009E
:102C90008091E8008E77BDCF8091DD01813201F710
:102CA0008091E1019091E201892BD1F68091E800B9
:102CB000877F8093E8000E948D188091DF018093C8
:102CC0004D010C94C80D8091DD01813249F680914F
:102CD000E800877F8093E8000E948D188091E001D2
:102CE0008093D00108958091DD01813A09F0B8CF39
:102CF0008091E800877F8093E8008091E80080FF62
:102D0000FCCF8091D001C2CF84B7877F84BF0FB63C
:102D1000F894A8958091600088618093600010927B
:102D200060000FBE80E880936100109261000E94F5
:102D3000C4090E94DB180E9438198091E200846067
:102D40008093E20078940E94B81B0E94C80983E433
:102D500091E00E947B098091DC01853019F00E948E
:102D6000CE09F9CF0E9404148091DA01882399F3E7
:102D70000E943314882379F30E943717ECCF0C9408
:102D8000C116292F33272330310519F168F421307A
:102D9000310509F44AC02230310509F44BC090E0F6
:102DA00080E030E020E028C02132310579F1223284
:102DB0003105A9F780E490E020EC32E0611571055F
:102DC000D9F086E390E02AE832E061307105A1F0A5
:102DD000E6CF99278130910599F0009741F0823034
:102DE000910589F00397D9F6EBE0F2E002C0E9E340
:102DF000F2E0849190E09F01FA01318320830895ED
:102E0000E5E2F2E0F6CFE1E1F2E0F3CF89E090E035
:102E10002FE432E06115710579F389E090E028E64E
:102E200032E06130710541F3BACF82E190E028E7EA
:102E300032E0E2CF8BE390E02DE332E0DDCF089586
:102E4000CF93C82F0E941F17C093D101CF9108952F
:102E50008091DC01843011F482E0089581E00895CE
:102E60008091D101811102C00C942817089580E14E
:102E700089BD82E189BD09B400FEFDCF8091D800F3
:102E80008F7D8093D8008091E00082608093E00085
:102E90008091E00081FDFCCF0895AF92BF92CF9268
:102EA000DF92FF920F931F93CF93DF936C01EB019F
:102EB0008A010E94AC18F82E811123C0011511055A
:102EC00039F0F80180819181C81BD90BC80ED91E39
:102ED000B12CA12C2097A9F08091E80085FD22C09B
:102EE0008091E8008E778093E80001151105A1F02C
:102EF000F80180819181A80EB91EB182A08285E07F
:102F0000F82E8F2DDF91CF911F910F91FF90DF90C1
:102F1000CF90BF90AF9008950E94AC188823D1F253
:102F2000F82EEFCFF60181916F018093F100219788
:102F3000FFEFAF1ABF0ACECFFC018091E301909161
:102F4000E40186179707A0F06115710529F49091A7
:102F5000E8009E779093E80090E06115710551F4C8
:102F6000911108C08091E80082FF34C080E008958C
:102F7000BC01F2CF8091DC018823C1F18530C1F121
:102F80008091E80083FD30C08091E80082FDEACFA7
:102F90008091E80080FFE1CF8091F3002091F20062
:102FA000382F6115710519F02830310558F091E07E
:102FB0002830310509F090E02091E8002E77209329
:102FC000E800CBCF81918093F100615071092F5FB0
:102FD0003F4FE7CF8091DC01882341F0853041F0FD
:102FE0008091E80083FFBECF81E0089582E00895DC
:102FF00083E00895FC018091E3019091E40186173C
:103000009707A0F06115710529F48091E8008E778B
:103010008093E80090E06115710551F4911108C0AA
:103020008091E80082FF35C080E00895BC01F2CFB6
:103030008091DC018823C9F18530C9F18091E800D5
:1030400083FD31C08091E80082FDEACF8091E800E5
:1030500080FFE1CF8091F3002091F200382F6115BD
:10306000710519F02830310558F091E0283031050C
:1030700009F090E08091E8008E778093E800CBCF54
:1030800084918093F1003196615071092F5F3F4F19
:10309000E6CF8091DC01882341F0853041F08091BA
:1030A000E80083FFBDCF81E0089582E0089583E0CA
:1030B0000895982F973028F08F708093E90081E071
:1030C00008959093E900242F762F50E0981731F05F
:1030D0007091EC002091ED005091F00021FD02C0B4
:1030E0009F5FE8CF3091EB003E7F3093EB00309153
:1030F000ED003D7F3093ED003091EB003160309377
:10310000EB007093EC002093ED005093F0002091C1
:10311000EE0027FDE5CF80E008958091DD0187FF77
:1031200013C08091E80082FF06C08091E8008B7791
:103130008093E80004C08091DC018111F2CF0895F2
:103140008091DC018823D9F38091E80080FFF8CFDB
:103150008091E8008E77ECCF2091E4003091E5007B
:1031600085E6A9019091EC0090FF06C09091E800DF
:1031700090FF06C080E008959091E80092FDFACF9C
:103180009091DC01992389F0953089F09091EB00C2
:1031900095FD0FC02091E4003091E50042175307E0
:1031A00009F38150F1F684E0089582E0089583E008
:1031B000089581E008950E9449190E945119E0EE96
:1031C000F0E0808181608083E8EDF0E080818F779E
:1031D000808319BCA7EDB0E08C918E7F8C938081A9
:1031E0008F7E80831092DB0108950F931F93CF93FE
:1031F000DF930E9449190E945119C8EDD0E08881DF
:103200008F77888388818068888388818F7D888391
:1032100019BC1092DC011092D8011092DA011092C0
:10322000D90100EE10E0F80180818B7F80838881D6
:103230008160888342E060E080E00E945918E1EEFE
:10324000F0E080818E7F8083E2EEF0E0808181601B
:103250008083808188608083F80180818E7F808375
:10326000888180618883DF91CF911F910F910895AC
:10327000E8EDF0E080818F7E8083E7EDF0E08081F3
:103280008160808384E082BF81E08093DB010C94C5
:10329000F518E8EDF0E080818E7F80831092E200E7
:1032A00008951092DA001092E10008951F920F9293
:1032B0000FB60F9211242F933F934F935F936F9309
:1032C0007F938F939F93AF93BF93EF93FF938091DF
:1032D000E10082FF0BC08091E20082FF07C0809175
:1032E000E1008B7F8093E1000E94B71B8091DA00A0
:1032F00080FF19C08091D80080FF15C08091DA004E
:103300008E7F8093DA008091D90080FF94C080E1A5
:1033100089BD82E189BD09B400FEFDCF81E08093C3
:10332000DC010E94BB158091E10080FF19C08091F3
:10333000E20080FF15C08091E2008E7F8093E20062
:103340008091E20080618093E2008091D8008062E9
:103350008093D80019BC85E08093DC010E94CD15D4
:103360008091E10084FF29C08091E20084FF25C0A4
:1033700080E189BD82E189BD09B400FEFDCF809165
:10338000D8008F7D8093D8008091E1008F7E80935C
:10339000E1008091E2008F7E8093E2008091E20064
:1033A00081608093E2008091D801882309F449C0AC
:1033B00084E08093DC010E94CE158091E10083FFC0
:1033C00029C08091E20083FF25C08091E100877FC2
:1033D0008093E10082E08093DC011092D80180911B
:1033E000E1008E7F8093E1008091E2008E7F8093E8
:1033F000E2008091E20080618093E20042E060E0C0
:1034000080E00E9459188091F00088608093F0005D
:103410000E94CC15FF91EF91BF91AF919F918F9139
:103420007F916F915F914F913F912F910F900FBEC0
:103430000F901F90189519BC1092DC010E94C915BD
:1034400072CF8091E30087FD02C081E0B2CF83E0BC
:10345000B0CF1F920F920FB60F9211242F933F936C
:103460004F935F936F937F938F939F93AF93BF938C
:10347000CF93EF93FF93C091E900CF708091EC0060
:103480001092E9008091F000877F8093F00078949B
:103490000E94651A1092E9008091F0008860809384
:1034A000F000C093E900FF91EF91CF91BF91AF91F0
:1034B0009F918F917F916F915F914F913F912F914C
:1034C0000F900FBE0F901F9018951F93CF93DF930F
:1034D000CDB7DEB7AA970FB6F894DEBF0FBECDBF4B
:1034E0008DED91E02091F100FC012193CF01F1E0FD
:1034F000853E9F07B9F70E94DA158091E80083FFA7
:103500001EC18091DD019091DE019A3008F017C153
:10351000E92FF0E0E95AF34E0C94D41B803899F06F
:10352000823809F00CC18091E1018F70873008F07A
:1035300006C18093E9008091EB0085FB882780F924
:103540001092E90006C08091D9019091DA019111A1
:1035500082609091E800977F9093E8008093F1005B
:103560001092F1008091E8008E77E5C0882309F47D
:10357000D3C0823009F0E3C08091DF018111D6C051
:103580008091E1018F702FEF280F263008F0D7C00F
:103590008093E9002091EB0020FFC8C0933031F404
:1035A0008091EB0080628093EB00C0C09091EB00B3
:1035B00090619093EB0021E030E001C0220F8A95EA
:1035C000EAF72093EA001092EA008091EB0088600D
:1035D000EACF8111B4C01091DF011F778091E30021
:1035E0008078812B8093E3008091E800877F80932F
:1035F000E8000E948D188091E80080FFFCCF809148
:10360000E30080688093E30082E0111183E08093FF
:10361000DC0195C08058823008F091C08091DF01B4
:103620009091E0018C3D23E09207A1F583E08A832D
:103630008AE289834FB7F894DE01139620E03EE0DA
:1036400051E2E32FF0E050935700E49120FF03C0D4
:10365000E295EF703F5FEF708E2F90E0EA30C0F0A0
:10366000C7968D939D932F5F243159F74FBF80915B
:10367000E800877F8093E8006AE270E0CE0101965F
:103680000E949C178091E8008B778093E80057C0D8
:10369000C096E7CF6091E1017091E201AE014F5F0A
:1036A0005F4F0E94BF16BC01892B09F448C090915E
:1036B000E800977F9093E80089819A810E94FA1729
:1036C000E1CF8038E1F58091E800877F8093E800C2
:1036D0008091D8018093F10045CF811130C0909145
:1036E000DF01923060F58091E800877F8093E800E9
:1036F0009093D8010E948D188091D801882311F0F1
:1037000084E005C08091E30087FDFACF81E08093DB
:10371000DC010E94D01513C08091DF01813079F463
:1037200081E0933009F080E08093DA011092E900A3
:103730008091E800877F8093E8000E948D18809137
:10374000E80083FF0AC08091E800877F8093E8004B
:103750008091EB0080628093EB00AA960FB6F894FC
:10376000DEBF0FBECDBFDF91CF911F9108950895A9
:10377000CF938091DC01882399F0C091E900CF704C
:103780008091EC0080FD0EC080E0C82B1092E90013
:103790008091E80083FD0E94651ACF70C093E90014
:1037A000CF91089580E8F1CFEE0FFF1F0590F491BF
:1037B000E02D0994F999FECF92BD81BDF89A992721
:1037C00080B50895A8E1B0E042E050E00C94021CFE
:1037D000262FF999FECF92BD81BDF89A019700B4CA
:1037E000021639F01FBA20BD0FB6F894FA9AF99A6A
:1037F0000FBE08950196272F0E94E91B0C94E81B29
:10380000DC01CB01FC01F999FECF06C0F2BDE1BDA0
:10381000F89A319600B40D9241505040B8F708958F
:10382000F894FFCF9803A403A803AC03B003B40338
:10383000B803BC03C003C403C803CC03D003D40340
:10384000D803DC03E003E403AC0BAC0B0B0C0B0C58
:10385000520CD90BD90BD90B6E0CD90B060D060DDA
:10386000710DD90BD90B7A0D100D100D100D100D17
:10387000100D100D100D100D100D100D100D100D60
:10388000100D100D100D100D1D0D2B0D320D390DDD
:10389000430DD90DD90DE20DE20DE40DE20DE20D5F
:1038A000E20DD90DD90DE90DE20DE20DE90D8E1AEB
:1038B000B61A9F1BB61A9F1BE91A0A1B9F1B611B96
:0238C0006D1B7E
:1038C2001B082B083B08000000000000000000005D
:1038D20000003C010000D101540200000000000081
:1038E20000000000000000000000F2015C02000085
:1038F200000000000000000000000000AE002308ED
:10390200FFBA011415881517155315181501946679
:0439120097C6340020
:00000001FF
