:100000000C944A030C9491030C9491030C94910367
:100010000C9491030C9491030C9491030C94910310
:100020000C9491030C9491030C94AB290C947E2AAC
:100030000C945D200C9491030C9491030C94910307
:100040000C9491030C9491030C9491030C949103E0
:100050000C9498080C94C3200C9491030C94910375
:100060000C9491030C9491030C9491030C949103C0
:100070000C9491030C9491030C9491030C949103B0
:100080000C9491030C9491030C9491030C949103A0
:100090000C9491030C9491030C9491030C94910390
:1000A0000C9491030C9491030C94910307634236D2
:1000B000B79BD8A71A39685618AEBAAB558C1D3CF9
:1000C000B7CC5763BD6DEDFD753EF6177231BF00BD
:1000D0000000803F05A84CCDB2D44EB93836A902F5
:1000E0000C50B9918688083CA6AAAA2ABE00000036
:1000F000803F155C1E001F0020002100220023000D
:1001000024002500260027002D002E0000002A00D4
:100110002B0014001A000800150017001C0018001E
:100120000C00120013002F00300031000000E3002B
:1001300004001600070009000A000B000D000E0065
:100140000F0033003400000028000000E100000030
:100150001D001B00060019000500110010003600EC
:10016000370038000000E5000000E000E300E20096
:100170000000000000002C42000000000000E6002B
:1001800002510351E40000000100010001000100E0
:100190000100010001000100010001000100010057
:1001A0000100010001000100010001000100010047
:1001B0000100010001000100010001000100010037
:1001C0000100000001000100010001000100010028
:1001D0000100010001000100010001000100010017
:1001E0000000010001000100010001000100010008
:1001F00001000100010001000100000001000100F8
:100200000100010001000000000000002C000000BF
:100210000000000001000251035101000000350000
:100220003A003B003C003D003E003F0040004100E2
:10023000420043004400450000004C000000F40070
:10024000F000F5000000F90000000000520000007E
:10025000460047004800000000003900F200F100AD
:10026000F300FB00FA00FC00500051004F000000BA
:10027000000000000000000001000000AC00AE0023
:10028000AB00A900AA000000000000000000000070
:10029000000001000000010001000100000000005A
:1002A00000000153000000000000010000000000F9
:1002B000010000000000000000000000000000003D
:1002C000000000000000000000000000000000002E
:1002D00000000000CB5CCC5CCD5CCE5CCF5CD05C25
:1002E000D35C0000000000000000000000000000DF
:1002F0000100DB5CC75CC85CDC5CDD5C000000000E
:100300000000DE5C000000000000000000000100B2
:100310000000C05CC15CC35CC45CC55CC65CBF5C07
:10032000BB5CBD5CBC5C0000010000000100010082
:1003300001000000000000000000000000000000BC
:1003400001000000000001000000000000000000AB
:10035000000000000001010203040506080A0C0F5A
:100360001114181C2024292E33393F464C535B624C
:100370006A7179818A929AA2AAB2B9C1C8CFD5DC32
:10038000E1E7EBF0F4F7FAFCFDFEFFFEFDFCFAF707
:10039000F4F0EBE7E1DCD5CFC8C1B9B2AAA29A92DA
:1003A0008A8179716A625B534C463F39332E292426
:1003B000201C1814110F0C0A080605040302010181
:1003C0000000000000000000000000046801F000D0
:1003D000B40078005A007F3F1F64321464321478EE
:1003E0003C1E1E140A05000000000001010101016D
:1003F00001010101020202020202020202030303DE
:1004000003030303030404040404040505050505AC
:100410000606060606070707070808080809090967
:100420000A0A0A0A0B0B0B0C0C0C0D0D0D0E0E0F0D
:100430000F0F101011111112121313141415151699
:10044000161717181819191A1A1B1C1C1D1D1E1F08
:100450001F20202122222324252526272728292A58
:100460002B2B2C2D2E2F2F3031323334353636377F
:1004700038393A3B3C3D3E3F404142434446474881
:10048000494A4B4C4D4F50515253555657585A5B51
:100490005C5E5F606263646667696A6C6D6E7071F2
:1004A00073747678797B7C7E8081838486888A8B5E
:1004B0008D8F91929496989A9B9D9FA1A3A5A7A991
:1004C000ABADAFB1B3B5B7B9BBBDBFC1C4C6C8CA88
:1004D000CCCFD1D3D6D8DADCDFE1E4E6E8EBEDF03F
:1004E000F2F5F7FAFCFF0403300000001403530098
:1004F000360030002D0058002D0052004700420009
:1005000000001003530065006E007400720061006B
:10051000710000000403090409026D00040100A039
:10052000FA09040000010301010009211101000181
:100530002240000705810308000A090401000103A5
:10054000010200092111010001224D00070582036B
:1005500008000A090402000103000000092111013A
:1005600000012236000705830308000A090403007E
:1005700001030000000921110100012239000705D3
:1005800084032000011201100100000008EDFE604C
:100590006001000102030105010906A10105071917
:1005A000E029E71500250195087501810205081964
:1005B00001290595057501910295017503910105C4
:1005C00007190029F71500250195F875018102C06A
:1005D00005010980A10185021601002603001A8188
:1005E000002A8300751095018100C0050C0901A146
:1005F000018503160100269C021A01002A9C02753F
:100600001095018100C005010902A1010901A100A5
:1006100005091901290515002501950575018102B6
:100620009501750381010501093009311581257F87
:1006300095027508810609381581257F9501750891
:100640008106050C0A38021581257F950175088100
:1006500006C0C005010906A101050719E029E71533
:100660000025019508750181029501750881010534
:1006700008190129059505750191029501750391E8
:10068000010507190029FF150026FF0095067508CA
:100690008100C00011241FBECFEFDAE0DEBFCDBF66
:1006A00004B603FE27C08091DE029091DF02A09184
:1006B000E002B091E1028730904BA740B04BD1F4FB
:1006C0001092DE021092DF021092E0021092E1021C
:1006D00014BE84B7877F84BF0FB6F894A895809125
:1006E0006000886180936000109260000FBEE0E0BF
:1006F000F8E3099511E0A0E0B1E0E0E1F2E602C024
:1007000005900D92A634B107D9F722E0A6E4B1E036
:1007100001C01D92AE3DB207E1F70E94D8260C94AD
:10072000B7300C940000CF93DF93EC010E940A10C5
:1007300081E00E94F40FE8E4F1E08FEFD183C08301
:1007400082838383369691E0E438F907B9F7DF9125
:10075000CF910895E8E4F1E01382369681E0E43821
:10076000F807D1F708957F928F929F92AF92BF9230
:10077000CF92DF92EF92FF920F931F93CF93DF936D
:10078000082F0E940A1081E00E94F40F0E94AA0321
:10079000D0E0C0E010E08AE0A82EB12C96E0792EDF
:1007A000C017D10774F0DF91CF911F910F91FF9087
:1007B000EF90DF90CF90BF90AF909F908F907F9001
:1007C00008950E943830B5010E94962F7C014C019B
:1007D00099240E943830887691706C012E2D4FEF4D
:1007E0006FEF0E9464100E948D20909347018093C8
:1007F0004601789CF001799CF00D1124E85BFE4FD6
:10080000E482D182C0828FEF828383832196C8CF16
:10081000FC019091060190FF17C082818823A1F00E
:1008200093FF08C00E94383068E671E00E94962F5E
:100830000C94930392FF08C00E9438306AE070E085
:100840000E94962F0C94B3030895CF93DF93809169
:100850004601909147010E94992020910501281797
:10086000190690F4C8E4D1E08B818A3080F08A5078
:100870008B830E948D20909347018093460126969A
:1008800081E0C438D80781F7DF91CF9108951B82AA
:10089000F0CFCF93DF93C8E4D1E04B81442331F014
:1008A0002C816A81888199810E946410269681E05A
:1008B000C438D80791F78091810181110AC08091D5
:1008C000060181FF06C080910401DF91CF910C9455
:1008D000F40FDF91CF9108958091060180FF07C04A
:1008E0000E9449048091060184FD0C94250408951A
:1008F00090910601892B809306010895809590912F
:10090000060198239093060108959091060198237B
:1009100011F00C947E040C9478049091A502892F18
:1009200086958F738093040182E090FF0DC00E9432
:10093000780481E00E9485048091060180FF0BC04D
:1009400081FD05C00C9482100E947E04F2CF80913C
:1009500004010C94F40F089580E10C94850488E060
:100960000C94850482E00C9485040E94D4050E94B6
:100970000D25811103C085E00E94F1248FEF809343
:10098000A7028093A80208950C946C0490918401AE
:10099000892B8093840108958095909184019823F8
:1009A00090938401089590918401982311F00C9400
:1009B000CC040C94C6040F931F93CF93DF93EC01E8
:1009C0008B01CB010E940804CE3D8CE5D80719F4B9
:1009D00081E00E94D3048091840180FD37C0C03C37
:1009E000ECE5DE0709F456C060F4CD32D105D9F04C
:1009F000AE9771F1C1E08C2FDF91CF911F910F91D4
:100A00000895CC3D8CE5D807A9F1CD3DECE5DE0796
:100A1000C9F1CB3DDC4571F7F8018281882351F3A0
:100A20000E948D0413C00E94F01E85FFE3CF0E9438
:100A3000F01E81FFDFCFF80182818823D9F20E9466
:100A4000821080E00E94F1240E942C1FC0E0D3CFCE
:100A50000E94F01E85FFCECF0E94F01E81FFCACFFC
:100A6000F8018281882331F280E00E94F1240E9403
:100A70009305ECCFF8018281882309F4BBCF0E9453
:100A8000AC04E4CFF8018281882309F4B3CF0E943B
:100A9000AF04DCCFF801C281CC2309F4ABCF0E94B4
:100AA000B204A9CFCF92DF92EF92FF928C3724E16C
:100AB000920750F469E070E00E94822FCB01FF9012
:100AC000EF90DF90CF900895B0E0A0E0BC01CD01A1
:100AD0006A50774D8F4F9F4F982F872F762F66271D
:100AE00025EF38E241E050E00E94AA2F69017A0127
:100AF000CA01B9010E94722F9B01AC01C701B60166
:100B00000E94722F672F782F892F99276115710501
:100B100021E08207910591F66FEF7FEFCFCF81E063
:100B200008950C94DB040E94F9182FEF84E39CE0F5
:100B3000215080409040E1F700C000000C94E72075
:100B40000C94010C8630D8F481111AC09091800069
:100B5000977F90938000282F30E0AFEFBFEF0E9487
:100B6000D22F25E030E040E050E00E94AA2FC901DA
:100B70000E94520590938D0080938C00089585E02B
:100B8000909180009860E5CF80916F00817008950A
:100B9000109286011092850110928701EFE6F0E035
:100BA0008081816080830895EFE6F0E080818E7F10
:100BB00080830E940D250C94A2050E94C40581111A
:100BC0000C94D4050C94C805FF920F931F93CF93F8
:100BD000DF938C01FC01C081D1818091DF01811103
:100BE00050C08281882309F447C0CE010E94091EAB
:100BF000F82E682FCE010E94B51DBE018F2D0E94D8
:100C00002409EC01B8010E949105882309F410C160
:100C1000B801CE010E94B00B882309F409C1C93C78
:100C2000FCE5DF0709F444C108F071C0C13C9CE554
:100C3000D90709F415C108F048C0C531FCE5DF0744
:100C400028F5C2308CE5D80708F0B2C1C1159CE583
:100C5000D90709F4E8C0C130DC4509F4F0C081E0EF
:100C600080938D0180938E01C801DF91CF911F91F8
:100C70000F91FF900C948F05CE010E94E11DF82E7C
:100C8000BCCFCE010E94091EBE01B9CFCF3BFCE50F
:100C9000DF0709F445C208F0DCC0C531DC45F9F6D0
:100CA0000E94F01EF8019281992309F42FC28A7ADA
:100CB00091E009F490E090938801811125C289E2C6
:100CC0000E94791E0E94BD1EB3C0F8018281C53CFE
:100CD000FCE5DF0709F4DDC068F4C33CECE5DE07A2
:100CE00009F4D2C008F4C7C0882309F4A1C00E9447
:100CF000270F9EC0C73C9CE5D90709F4D4C008F46F
:100D0000CDC0882309F494C00E948E0F91C0C13DCC
:100D1000FCE5DF0709F41CC1F0F5F8018281CD3C48
:100D2000FCE5DF0709F4D9C0D8F4CB3CECE5DE07DD
:100D300009F4CCC008F4C4C0882309F479C00E9427
:100D4000D30D623071058105910540F00E94D30DED
:100D5000653071058105910508F493C082E0BAC041
:100D6000CF3C9CE5D90709F4DFC008F4C9C088234B
:100D700009F45EC00E94D30D6531710581059105AE
:100D800040F00E94D30D673171058105910508F48B
:100D900078C085E19FC0C53DFCE5DF0709F491C13E
:100DA000C0F4F8018281C33DFCE5DF0709F4EBC024
:100DB00008F4D5C0882309F46DC110928D010E94FA
:100DC0008D2090938A018093890182E00E943016E1
:100DD0002FC0C93DECE5DE0709F4DAC0CA3DFCE5E9
:100DE000DF0709F4DEC0C63DDC4509F038CFF80165
:100DF000828181116AC180918E01811183C18091AC
:100E00008B0190918C010E949920883C910508F0FB
:100E100079C180E20E94371688E20E94EA1488E2D3
:100E20000E94E11505C0F801828181110E9493059D
:100E300080E0DF91CF911F910F91FF900895F8010D
:100E400082818823A9F38091770281608093770261
:100E5000EFCFF8018281882359F30E949A10E8CFDE
:100E6000F8018281882321F30E94F01E827249F0EA
:100E70000E940110DDCF8823D9F20E94F01E8272F9
:100E8000B9F30E94F70FD4CF882391F20E940F0F7D
:100E9000CFCF882369F20E94460FCACF882341F240
:100EA0000E945E0FC5CF882319F20E94760FC0CF33
:100EB000F8018281882309F4BBCF0E94E10DB8CFED
:100EC000882309F4B5CF0E94F60DB2CF882309F428
:100ED000AFCF81E00E94F40FABCF882309F4A8CFF5
:100EE0000E94D30D663071058105910538F00E948E
:100EF000D30D683071058105910518F286E0EACFBF
:100F0000882309F495CF0E94D30D693071058105BE
:100F1000910540F00E94D30D6E3071058105910559
:100F200008F4AFCF89E0D6CF882309F481CF0E949F
:100F3000D30D6F3071058105910540F00E94D30DEE
:100F4000643171058105910508F49BCF8FE0C2CF14
:100F5000F8018281882309F46BCF88E1BBCF882315
:100F600009F466CF0E94D30D6931710581059105A1
:100F700040F00E94D30D623271058105910508F49D
:100F800080CF89E1A7CF882309F452CF83E2A2CF93
:100F9000F8018281882309F44BCF80E00E947527F5
:100FA00047CFF8018281882309F442CF82E0F6CF4F
:100FB000F8018281882309F457CE0E94521F8111C3
:100FC00002C00E942C1F0E946F1F90E09093CF02DE
:100FD0008093CE02FE01E350FC458091CE028160F9
:100FE000E231F10538F4E754FF4C0C94CC2F80919A
:100FF000CE0282608093CE028091CE020E94731F47
:101000000E94F91815CF8091CE028460F3CF8091B1
:10101000CE028860EFCF8091CE028061EBCF8091CD
:10102000CE028062E7CF8091CE028064E3CF8091D0
:10103000CE028068DFCF8091CE028C60DBCF8091C2
:10104000CE028E7FD7CF8091CE028D7FD3CF80917D
:10105000CE028B7FCFCF8091CE02877FCBCF809186
:10106000CE028F7EC7CF8091CE028F7DC3CF80917D
:10107000CE028F7BBFCF8091CE028F77BBCF809186
:10108000CE02837FB7CF9091CE02892F97FB87F94D
:101090008058B0CF80918D0181110FC0809189015E
:1010A00090918A010E949920883C910530F486E253
:1010B0000E94EA1486E20E94E11582E00E9437163F
:1010C000B7CEF8018281882351F010928E010E94E0
:1010D0008D2090938C0180938B0180E277CE80915C
:1010E0008E0181110FC080918B0190918C010E9423
:1010F0009920883C910530F487E20E94EA1487E247
:101100000E94E11580E2DACF85E3DACD8091880193
:10111000811104C089E20E94801ED4CD85E3FBCFFB
:10112000F8018281882309F483CE0E94DD0580CEF8
:101130001F920F920FB60F9211242F933F934F934C
:101140005F936F937F938F939F93AF93BF93CF934F
:10115000EF93FF9320910701809185019091860183
:10116000019644EF249F90011124B9010E94822F1F
:101170009093860180938501B901660F672F661FE2
:10118000770B71950E94822F6F7780918701823053
:1011900041F4603451F480916F008E7F80936F0032
:1011A00004C0813011F46F37B1F3E62FF0E0E65B55
:1011B000FC4FC4910E940D25282F41E051E0C49FAF
:1011C000C001C59F900D112465E070E00E94822F40
:1011D000269FC001279F900D11240E9452059093D5
:1011E0008D0080938C00FF91EF91CF91BF91AF91D3
:1011F0009F918F917F916F915F914F913F912F912F
:101200000F900FBE0F901F901895279A2F988AE085
:101210008093800089E1809381008FEF9FEF90930E
:101220008700809386000E946A240C94C8050E945F
:1012300005090C94FF0B08950C941B090C941C09D0
:1012400090E080E008950895972F70E02FE0929F3E
:10125000600D711D1124FB019BE4899FE00DF11DC0
:101260001124EE0FFF1FEE50FF4F859194910895CA
:10127000FC01EE0FFF1FE653FC4F859194910895FA
:10128000CF93DF930E9424090E94110BEC0181157A
:1012900021E5920708F049C0811530E5930708F071
:1012A00021C1883E910508F5803E910570F5883A88
:1012B000910570F4853A910508F0A7C08130910539
:1012C00021F1009711F1049700F5D0E0C0E01DC0B6
:1012D0008D3B910508F4A4C0805C9109C03CD10508
:1012E000A0F30E943809EC0110C08115904388F4E6
:1012F000C11580E2D80708F0ECC0C03FD10528F343
:10130000CF3FD10509F008F4E2C0CE01DF91CF91C3
:101310000895C11590E4D90708F0E1C0CE019927DE
:10132000D3FFDAC0EC01D86CF0CF811529E5920724
:1013300040F5811538E5930708F01AC1811544E599
:10134000940778F4C11583E5D80708F0F8C0C115F3
:1013500092E5D90708F0E2C0DC2FCC27C16FD06A34
:10136000D4CF811525E5920708F4FDC0811536E537
:10137000930708F0AACFD82FCC27CC27DF71D062F3
:10138000C4CF8B3B9C4509F4F8C0CC3B8CE5D80717
:10139000B8F4C93B9CE5D90709F4F2C008F0F3C0E2
:1013A000C1153AE5D30708F090CFCE0134E0969509
:1013B00087953A95E1F78F70CF70C06ED82F90C0A7
:1013C000CE3B4CE5D40709F4E1C060F4CC3B9CE58E
:1013D000D90709F4DEC0CD3BDC4509F076CFC0E08B
:1013E000D2ED93CFCE0190568115904208F06DCF8B
:1013F0008D2F8F710E948C0B90E0982F8827882763
:101400009F719C012C2BE901BACF853A910509F413
:10141000C3C0863A910509F0C2C0C2E8D0E475CFD6
:10142000883A910509F4BEC0893A910509F4BDC016
:101430008A3A910509F4BCC08B3A910509F4BBC006
:101440008C3A910509F4BAC08B3B910509F4B9C0F7
:101450008C3B910509F4B8C08D3A910509F4B7C0E9
:10146000803B910509F4B6C08E3A910509F4B5C0E8
:101470008F3A910509F4B4C0813B910509F4B3C0DA
:10148000823B910509F4B2C0833B910509F4B1C0D8
:10149000843B910509F4B0C0853B910509F4AFC0C8
:1014A000863B910509F4AEC0873B910509F4ADC0B8
:1014B000883B910509F4ACC0893B910509F4ABC0A8
:1014C0008A3B910509F4AAC0C0E0D4E41ECFD065E0
:1014D0001CCFCE019F7005CFEC01D06C16CFDF7012
:1014E000D06A13CFE4E096958795EA95E1F783708B
:1014F0002C2F26952695237040E2249F90011124DD
:10150000382B8C2F8370C1E0D0E002C0CC0FDD1FE0
:101510008A95E2F7C22BD32BDC68F7CECE0183701D
:10152000992721E030E002C0220F331F8A95E2F7AD
:10153000C695C69580E2C89FE0011124EBCFCE018D
:101540008370992721E030E002C0220F331F8A9573
:10155000E2F7C695C69590E2C99FE0011124C22B1F
:10156000D32BDA68D2CED82FCC27C46FD06ACDCE99
:10157000D82FCC27C06FD06AC8CEC0E0D1EDC5CE81
:10158000C0E0D4EDC2CEC0E0D5EDBFCEC0E0D3ED1B
:10159000BCCEC0E0D0EDB9CEC1E8D0E4B6CEC3E851
:1015A000D0E4B3CEC2EED4E4B0CEC9EED4E4ADCE36
:1015B000CAEED4E4AACEC5EBD4E4A7CEC6EBD4E4FD
:1015C000A4CEC3EBD4E4A1CEC4EBD4E49ECEC7EB4F
:1015D000D4E49BCECCECD4E498CECDECD4E495CE40
:1015E000C3E8D5E492CECAE8D5E48FCEC2E9D5E40B
:1015F0008CCEC4E9D5E489CEC1E2D6E486CEC3E27E
:10160000D6E483CEC4E2D6E480CEC5E2D6E47DCE75
:10161000C6E2D6E47ACEC7E2D6E477CECAE2D6E412
:1016200074CE8238910549F1B0F48133910509F403
:1016300062C048F48932910509F456C08A32910596
:1016400009F460C008958533910509F446C08933D3
:10165000910599F00895833E910531F138F4803E6B
:10166000910591F0823E9105B1F00895863E910575
:1016700021F1873E910551F108952091CE0223700A
:10168000D9F080EE90E008952091CE0220FF14C0A2
:1016900089E390E008952091CE0222FF0DC024FD41
:1016A00009C083EE90E008952091CE0222FD31C062
:1016B00024FF02C090E080E008952091CE0223FF35
:1016C000FBCF24FDF7CF87EE90E008952091CE0266
:1016D00023FFEECF86EE90E008952091CE0225FF05
:1016E000EBCF89E290E008952091CE0225FFE4CF70
:1016F00085E390E008952091CE0226FFDDCF8AE2B7
:1017000090E008952091CE0226FFD6CF81E390E0AD
:10171000089582EE90E008959091CE0292FF06C067
:10172000282F2871283069F4877F846093FF06C0D2
:10173000282F2871283161F4877E846194FD877E8B
:101740000895282F2471243089F78B7F8860EECF8D
:10175000282F2471243191F78B7E8861EFCF089573
:101760000F931F93CF938C01FB018281811106C0DF
:10177000C1E08C2FCF911F910F910895C0919C01D2
:10178000C11125C006311C4599F70E94AF0B81E0BD
:1017900080939C010E948D2090939B0180939A01DD
:1017A00010928F011092910110929001109293016A
:1017B000109292011092950110929401109297014B
:1017C000109296011092990110929801D2CF8091B7
:1017D0009A0190919B010E9499208C32914040F691
:1017E00080918F01E82FF0E0EE0FFF1FE057FE4FD2
:1017F000118300838F5F80938F01C0E0BACF0C9478
:10180000B5040C94C404CF93DF9385B7806885BF7B
:1018100085B7806885BFACE2B1E041E351E0C1E04B
:10182000D0E08D91E82FE295EF70F0E061A18F702C
:101830009E0101C0220F8A95EAF7922F9095962378
:1018400091A382A1822B82A34A175B0751F7ADE1D6
:10185000B1E061E070E08D91E82FE295EF70F0E08B
:1018600041A18F709B0101C0220F8A95EAF7922F48
:101870009095942391A382A1822B82A381E0AC3224
:10188000B80749F71092A8011092A70110929E0183
:1018900010929D011092AA011092A9011092A0012C
:1018A00010929F011092AC011092AB011092A20114
:1018B0001092A1011092AE011092AD011092A401FC
:1018C0001092A3011092B0011092AF011092A601E4
:1018D0001092A501DF91CF910C9417094F925F925E
:1018E0007F928F929F92AF92BF92CF92DF92EF92B0
:1018F000FF920F931F93CF93DF939DE9492E91E0C1
:10190000592E2CE2E22E21E0F22E01E010E0992483
:101910009394E201A990B9902E01DE011E921E92CD
:10192000F70181917F01E82FE295EF70F0E091A13E
:101930008F70980101C0220F8A95EAF7892F822BB8
:1019400081A382A1822E8094882182A380EA8A9535
:10195000F1F78DE1C82E81E0D82E90E080E0E6011D
:1019600079916E01472F42954F7050E0EA0178A0BF
:101970004D915C9111977F70E80102C0CC0FDD1F83
:101980007A95E2F7BE01672109F072C0B801082E0E
:1019900002C0660F771F0A94E2F7462B572B119669
:1019A0005C934E9301968F309105C9F681A18822F0
:1019B00081A282A1282B22A38D919C91A816B90601
:1019C00041F09092B1010E948D209093B3018093D9
:1019D000B201D7EA4D16D1E05D0609F09ACF8091A9
:1019E000B101882391F18091B2019091B3010E94DD
:1019F0009920069750F180919D0190919E019093BE
:101A0000A8018093A70180919F019091A0019093DC
:101A1000AA018093A9018091A1019091A2019093C4
:101A2000AC018093AB018091A3019091A4019093AC
:101A3000AE018093AD018091A5019091A601909394
:101A4000B0018093AF011092B1010E94A00581E026
:101A5000DF91CF911F910F91FF90EF90DF90CF908A
:101A6000BF90AF909F908F907F905F904F90089520
:101A700070E060E092CFE82FF0E0EE0FFF1FE95535
:101A8000FE4F8081918108950895CF92DF92EF9269
:101A9000FF920F931F93CF93DF93E901662309F41D
:101AA00066C0E42EF12CEFEFF0E0E61BF109EE9DAD
:101AB0008001EF9D100DFE9D100D1124212FE12FAF
:101AC000FF27EE1AFF0A5CE3C52ED12CB6010E9457
:101AD000822FFB01BC01E69EC001E79E900DF69EA1
:101AE000900D1124B6010E94822FE230F10589F198
:101AF00068F4812F262F210F309781F0242F461B69
:101B0000319761F080E020E040E008C0E430F1056A
:101B100051F128F1842F861B3597A1F7E42FF0E0CF
:101B2000EA51FC4F4491E22FF0E0EA51FC4F9491CE
:101B3000E82FF0E0EA51FC4FE49149839883EA836F
:101B4000DF91CF911F910F91FF90EF90DF90CF9099
:101B50000895862F810FE42F412F2E2FDFCFE42F02
:101B6000E61B842FF9CF842F462F410FD7CF842F28
:101B7000242FD4CF88E090E00C945030AB01BC010E
:101B800088E090E00C946E30E5EAF2E083E0808338
:101B900011828FEF828383831482608171818281BD
:101BA00093810C94BE0D6091A50260FF06C06695FE
:101BB0006F7370E090E080E0089560E070E0CB012A
:101BC00008958091A90290E001968430910514F067
:101BD00083E090E08093A9026091A5027091A60233
:101BE0008091A7029091A8020C94BE0D8091A90249
:101BF0008150990B97FF02C090E080E084309105FE
:101C000014F083E090E08093A9026091A5027091A6
:101C1000A6028091A7029091A8020C94BE0D80911B
:101C2000A502EAEAF2E080FF06C06AE070E08AEA14
:101C300092E00C949713118210821282339682E004
:101C4000E83CF807C1F7F1CF9091A50290FF0CC0D6
:101C5000EAEAF2E0818360834283339692E0E83CD3
:101C6000F907C1F70C940F0E0895CF93DF9300D0BE
:101C70000F92CDB7DEB72091A50220FF0AC09E01CA
:101C80002F5F3F4F0E94450D4B8169818A810E94E1
:101C9000240E0F900F900F90DF91CF9108953F92F7
:101CA0004F925F926F927F928F929F92AF92BF926C
:101CB000CF92DF92EF92FF920F931F93CF93DF9318
:101CC00000D00F92CDB7DEB78C01462E542E322EA7
:101CD0008091A50280FF30C0982F9E77923009F046
:101CE00040C09E012F5F3F4FC8010E94450D4B81B0
:101CF00069818A810E94240E8091A50200FB87F9E8
:101D00008093A502902F96958091A6028078892BCA
:101D100010FB87F98093A6024092A7025092A80276
:101D2000332051F06091A5027091A6028091A70224
:101D30009091A8020E94BE0D0F900F900F90DF911E
:101D4000CF911F910F91FF90EF90DF90CF90BF90B8
:101D5000AF909F908F907F906F905F904F903F904B
:101D60000895E82FE695EF739EE39E0F9F739430DE
:101D700018F45090A802C0CF9AE39E0F9F73993039
:101D800068F4881F8827881F9091A602292F220FA8
:101D9000022F082B97FB112710F9AECF87E28E0F89
:101DA0008F738A3008F0A8CFE951FF0B21E0E0FDE6
:101DB0002FEFEE7FE453FC4F859194916AE070E041
:101DC0000E94822F26033001279F700C1124680186
:101DD00088E9C81A8EEFD80A8AEAE82E82E0F82E3F
:101DE00098ECA92E92E0B92E28E6822E992493949D
:101DF000C601B4010E94822F9701452D642D0E94D7
:101E0000450DC60CD71C83E0E80EF11CAE14BF04D0
:101E100079F70E940F0E70CF21E00C944F0EE5EA87
:101E2000F2E02081221F2227221F3091A602432F99
:101E3000440F842F822B37FB992790F9089668E688
:101E400071E00E94962F438162810C940C0F2091C7
:101E5000A502221F2227221F3091A602432F440FE2
:101E6000842F822B37FB992790F98830910540F415
:101E7000805A9E4F4091A8026091A7020C940C0FCB
:101E8000089768E671E00E94962FF4CF6091A70250
:101E9000683F90F4685F8091A502881F8827881F9B
:101EA0009091A602292F220F97FB992790F9409134
:101EB000A802822B0C940C0F6FEFEDCF6091A7025C
:101EC000683090F068508091A502881F8827881F8D
:101ED0009091A602292F220F97FB992790F9409104
:101EE000A802822B0C940C0F60E0EDCF4091A80269
:101EF000483F90F4485F8091A502881F8827881F7B
:101F00009091A602292F220F97FB992790F96091B3
:101F1000A702822B0C940C0F4FEFEDCF4091A8023B
:101F2000483090F048508091A502881F8827881F6C
:101F30009091A602292F220F97FB992790F9609183
:101F4000A702822B0C940C0F40E0EDCF20E00C9404
:101F50004F0E9091A50290FF46C09178811128C044
:101F600092609093A502662351F06091A502709152
:101F7000A6028091A7029091A8020E94BE0D8091B6
:101F8000A502382F3E773230D9F41092CD01881F48
:101F90008827881F9091A602292F220F97FB992747
:101FA00090F94091A8026091A702822B0C94A60F91
:101FB000843210F09664D5CF8F73880F982BD1CFD1
:101FC000982F96959F732EE3290F2F73273110F0CA
:101FD000363421F491E09093CD01D9CF995D9F7370
:101FE0009A30A8F6D2CF089561E00C94A90F8091A1
:101FF000A50286958F738F5F843208F081E00C9480
:10200000F40F8091A50286958F73815009F483E2C5
:102010000C94F40FE5EAF2E080818160808386957C
:102020008F730C94F40F60E00C94A90F80917702E9
:102030008160809377020E94521F811104C00E9428
:102040002C1F0E94C40D0E94BA0D6093A5027093CC
:10205000A6028093A7029093A8026E7761F40E9473
:10206000C40D0E94BA0D6093A5027093A6028093DE
:10207000A7029093A80281E08093CD018091A502F0
:1020800080FF04C086958F730C9413100895E5EAC1
:10209000F2E080818160808386958F730C941310A9
:1020A0009091A50290FF0FC02A3068F430E0F9014A
:1020B000EE0FFF1FE20FF31FE655FD4F8183608394
:1020C00042830C940F0E08951F93CF93DF9300D09B
:1020D0000F92CDB7DEB7122F2091A50220FF0BC0C3
:1020E0009E012F5F3F4F0E94450D212F4B8169813B
:1020F0008A810E9450100F900F900F90DF91CF9126
:102100001F910895E5EAF2E080818E7F80836081EF
:102110007181828193810E94BE0D1092CD012FEFBB
:1021200080E792E0215080409040E1F700C000003D
:102130000C940F0E8091A50280FD0C9482100C94DB
:102140000A10E5EAF2E080818E7F80831092CD0153
:102150002FEF80E792E0215080409040E1F700C0EF
:1021600000000C940F0E81E08093CD010895109231
:10217000CD010895CF93C82F8091CB019091CC01D0
:102180000E949920EC2FF0E0EE51FC4FE491E8170B
:10219000190611F008F042C00E948D209093CC01E6
:1021A0008093CB016091CA0170E090E080E00E94D2
:1021B000732D20E030E04FE753E40E94962C2BED86
:1021C0003FE049E450E40E949C2E0E94092F0E94A7
:1021D000102D2BE43AE34EE25FE30E94292C20EF1E
:1021E0003BEF48ED52E40E949C2E0E94422D462F68
:1021F0008091A502881F8827881F9091A602292F09
:10220000220F97FB992790F96091A702822B0E94D9
:10221000350E8091CA018F5F8093CA01CF910895D6
:10222000CF93C82F8091C8019091C9010E94992035
:10223000EC2FF0E0E152FC4FE491E817190609F0A9
:10224000E8F40E948D209093C9018093C8014091C9
:10225000A8026091A7028091C6019091C7010E94D7
:10226000350E8091C6019091C701019668E671E034
:102270000E94822F9093C7018093C601CF91089549
:10228000CF92DF92FF920F931F93CF93DF93F82E9D
:102290008091C4019091C5010E949920EF2DE6958F
:1022A000F0E0E452FC4FE491E817190609F0A8F5B4
:1022B0000E948D209093C5018093C4010AEA12E028
:1022C000D0E0C0E088E6C82EDD24D3948091C2011E
:1022D0009091C3018C0F9D1FB6010E94822F98011F
:1022E0004091A8026091A7020E94450DA4960D5F3F
:1022F0001F4FC83681E0D80749F70E940F0E809122
:10230000C2019091C301F0FE10C00196BE010E946F
:10231000822F9093C3018093C201DF91CF911F91CF
:102320000F91FF90DF90CF9008950197F2CFCF9259
:10233000DF92EF92FF920F931F93CF93DF93C82FFB
:10234000FF24FA9480FD02C0FF24F3948091C00121
:102350009091C1010E949920C695EC2FF0E0E752C0
:10236000FC4FE491E817190611F008F051C00E94E3
:102370008D209093C1018093C0010AEA12E0D0E061
:10238000C0E0F80111821082128294E0C92ED12C93
:10239000E12C8091BF018E0D87FD865F082E000C19
:1023A000990B8C179D07E9F48091A8028C9DA001E0
:1023B0008D9D500D112455954795559547958091C4
:1023C000A502881F8827881F9091A602592F550FB4
:1023D00097FB992790F998016091A702852B0E949D
:1023E000450DEF0CF1E0CF1AD10899F621960D5F5B
:1023F0001F4FCA30D10529F60E940F0E8091BF01F0
:1024000091E0F91210C081110CC089E08093BF01E6
:10241000DF91CF911F910F91FF90EF90DF90CF90C0
:1024200008958150F3CF90E00196BE010E94962F4F
:10243000EDCF0F931F93CF93DF93C82F8091BD01F2
:102440009091BE010E949920EC2FF0E0EA52FC4FDF
:10245000E491E817190611F008F052C00E948D208F
:102460009093BE018093BD01CAEAD2E0FE011182C1
:1024700010821282339682E0E83CF807C1F710E040
:1024800000E08091BC01082E000C990B0817190779
:10249000E4F180910901082E000C990B8017910737
:1024A000A4F18091A502881F8827881F9091A60219
:1024B000592F550F97FB992790F99E014091A8023B
:1024C0006091A702852B0E94450D0F5F1F4F239639
:1024D0000A301105B1F60E940F0E8091080190910B
:1024E000BC01980F9093BC0120910901280F209303
:1024F0000901121614F499301CF08195809308019B
:10250000DF91CF911F910F910895198218821A823D
:10251000DCCFEF92FF920F931F93CF93DF938091C5
:10252000BA019091BB010E949920883E9340C8F166
:102530000E948D209093BB018093BA01C091B80195
:10254000D091B9012196C170DD27D093B901C09314
:10255000B8018AEAE82E82E0F82E10E008E7812F21
:1025600086958C0F9D2F911D817099279701409121
:10257000A8026091A702FC010E9FC0010F9F900D61
:1025800011240E94450D1F5FF3E0EF0EF11C1A307D
:1025900031F7DF91CF911F910F91FF90EF900C9445
:1025A0000F0EDF91CF911F910F91FF90EF90089543
:1025B000CF93DF9300D00F92CDB7DEB78091B601F5
:1025C0009091B7010E949920EAECF3E025913491B3
:1025D00082179307C0F18091B50181110CC09E0153
:1025E0002F5F3F4F4FEF6FEF90E080E00E94450D6F
:1025F0008A818093B5010E948D209093B7018093CA
:10260000B6018091B401813071F0882339F040E047
:10261000823011F44091B50180E003C08091B50192
:1026200040E060E004C06091B50140E080E00E94BD
:10263000240E8091B40190E0019663E070E00E9466
:10264000962F8093B4010F900F900F90DF91CF9150
:1026500008958091CD018823B1F19091A502892F31
:1026600086958F732EE3280F2F73243018F4825031
:102670000C94BA102AE3280F2F73233018F48650D5
:102680000C94101127E3280F2F73263018F489506B
:102690000C94401121E3280F2F73263018F48F502B
:1026A0000C9497112BE2280F2F73233018F48551C7
:1026B0000C9419129E77903311F40C94891296346D
:1026C00011F40C94D812089531B3242F20952323AC
:1026D00031B3432B3FB7F894680F791F86179707DC
:1026E00011F43FBF0895FC015191CF01E8E041BBD7
:1026F000000000C057FF21BB550F000000C000C004
:1027000000C021BB00C0EA9591F7E8CF20B3242B8D
:1027100020BB9B01220F331F620F731F0E946413A3
:1027200087EC90E00197F1F700C00000089540E4C5
:102730000C9486139093D3018093D2010895E09175
:10274000D201F091D301309721F00190F081E02D7A
:10275000099480E00895E091D201F091D30130977F
:1027600021F00280F381E02D09940895E091D201D7
:10277000F091D301309721F00480F581E02D099488
:1027800008952091D0013091D1012817390771F0B7
:102790009093D1018093D001E091D201F091D301C7
:1027A000309721F00680F781E02D0994089520915B
:1027B000CE013091CF012817390771F09093CF01E6
:1027C0008093CE01E091D201F091D301309721F0B6
:1027D0000084F185E02D0994089508950C94ED137B
:1027E00081E008950E9484200E94030C0E945621DB
:1027F0000E946A240C9416105F926F927F928F92BF
:102800009F92AF92BF92CF92DF92EF92FF920F937F
:102810001F93CF93DF93CDB7DEB72A970FB6F89407
:10282000DEBF0FBECDBF0E946E0C0E94F013882346
:1028300009F47AC095EDA92E91E0B92E10E000E0E0
:1028400088248394912C502E802F0E943B0D7C0174
:10285000F501C190D1905F01C816D90609F45EC098
:102860008091770281FD0E94440D90E080E0CE24AB
:10287000DF243401082E02C0660C771C0A94E2F7AC
:10288000960126213721232B09F443C08E835F82D2
:10289000E620F72081E0EF2809F480E088870E9495
:1028A0008D208160782F9A8789874E815F81688526
:1028B0008A850E94BB14000F111FF801EB52FE4FD6
:1028C0008081918168267926718260820E94D4235A
:1028D0000E949F139091D4018917B9F10E949F1310
:1028E0008093D4012A960FB6F894DEBF0FBECDBFF9
:1028F000DF91CF911F910F91FF90EF90DF90CF90DC
:10290000BF90AF909F908F907F906F905F900C944E
:102910001E0901968F30910509F0ABCF0F5F1F4F55
:102920000530110509F08FCF8FEF89838A831B82D1
:102930000E948D208160782F9D838C8349815A81EC
:102940006B818D810E94BB14C1CF2A960FB6F8947B
:10295000DEBF0FBECDBFDF91CF911F910F91FF90D2
:10296000EF90DF90CF90BF90AF909F908F907F902F
:102970006F905F900895CF93DF93CDB7DEB72B971D
:102980000FB6F894DEBF0FBECDBF4F83588769875F
:102990007A878B871E821D8285E0FE013796DE01D5
:1029A000119601900D928A95E1F749815A816B81C8
:1029B0007C818D819E812B960FB6F894DEBF0FBE71
:1029C000CDBFDF91CF910C94971BFC018081918149
:1029D0000C944B1E882309F4F3C08238B9F40E948A
:1029E0009F1381FDEDC089E30E94791E0E94BD1EE8
:1029F0002FEF81EE94E0215080409040E1F700C03D
:102A0000000089E30E94801E0C94BD1E8338A1F44F
:102A10000E949F1380FDD4C083E50E94791E0E940E
:102A2000BD1E2FEF81EE94E0215080409040E1F7F1
:102A300000C0000083E5E6CF8438A1F40E949F1314
:102A400082FDBEC087E40E94791E0E94BD1E2FEF4A
:102A500081EE94E0215080409040E1F700C00000FA
:102A600087E4D0CF9CEF980F913A18F40E94791E1A
:102A7000CBCF90E2980F983050F4877091E001C06E
:102A8000990F8A95EAF7892F0E94F31EBDCF9BE527
:102A9000980F933070F4853A31F0863A39F083E834
:102AA00090E00C94C11381E890E0FBCF82E890E0C5
:102AB000F8CF98E5980F953108F082C0883A09F46C
:102AC00040C0893A09F440C08A3A09F440C08B3AC0
:102AD00009F440C08C3A09F440C08B3B09F440C073
:102AE0008C3B09F440C08D3A09F440C0803B09F4A6
:102AF00040C08E3A09F440C08F3A09F440C0813B8F
:102B000009F440C0823B09F440C0833B09F440C053
:102B1000843B09F440C0853B09F440C0863B09F47E
:102B200040C0873B09F440C0883B09F440C0893B62
:102B300009F440C08A3B09F440C090E080E00C9466
:102B4000D71382EE90E0FBCF89EE90E0F8CF8AEECB
:102B500090E0F5CF85EB90E0F2CF86EB90E0EFCF01
:102B600083EB90E0ECCF84EB90E0E9CF87EB90E053
:102B7000E6CF8CEC90E0E3CF8DEC90E0E0CF83E803
:102B800091E0DDCF8AE891E0DACF82E991E0D7CF1A
:102B900084E991E0D4CF81E292E0D1CF83E292E068
:102BA000CECF84E292E0CBCF85E292E0C8CF86E23E
:102BB00092E0C5CF87E292E0C2CF8AE292E0BFCF37
:102BC0000895882309F44BC0823871F40E949F1342
:102BD00081FF45C089E30E94791E0E94BD1E89E3E2
:102BE0000E94801E0C94BD1E833859F40E949F13CE
:102BF00080FF35C083E50E94791E0E94BD1E83E5DB
:102C0000EFCF843859F40E949F1382FF28C087E4D5
:102C10000E94791E0E94BD1E87E4E2CF9CEF980FB0
:102C2000913AF0F290E2980F983050F4877091E06A
:102C300001C0990F8A95EAF7892F0E94F91ED2CF19
:102C40009BE5980F933020F490E080E00C94C11342
:102C5000885A853120F490E080E00C94D7130895D1
:102C6000882321F00E94F31E0C94BD1E0895882332
:102C700021F00E94F91E0C94BD1E08958F929F9220
:102C8000AF92BF92CF92DF92EF92FF920F931F937A
:102C9000CF93DF937C01D62FC72FFC0105810295CE
:102CA0000F70128111110E94101F0E94B61EC82EB3
:102CB000882371F01123B1F080E28D0F883090F0FD
:102CC00082E00E94A01E0E94B61E91E0C82EC92676
:102CD000DC2ED2949FE0D922ED2DF0E0E553FF4C9D
:102CE0000C94CC2FC12CF4CF0C2F0F70C07F11F09F
:102CF0000295007F1123A9F0002359F080E28D0F87
:102D0000883010F0D11109C0802F0E94F31E0E945C
:102D1000BD1E8D2F0E94EA1414C0802F0E94031F35
:102D2000F6CF8D2F0E94E115002359F080E28D0F20
:102D3000883010F0D11133C0802F0E94F91E0E94FC
:102D4000BD1E98E0D91639F0D91648F086EF8D0DE2
:102D50008F70823020F40E949F130E941E09CC20A5
:102D600009F4FCC10E94931E80FDF8C1F701128294
:102D70000E948D1E0E94191DC7010E94BB180E944F
:102D80008D1EDF91CF911F910F91FF90EF90DF90FB
:102D9000CF90BF90AF909F908F900C943A1D802F52
:102DA0000E94091FCCCFFC2FFF70BF2EC07FC03206
:102DB00019F0B29480EFB822DD2369F0D13049F1E7
:102DC000112391F1002351F1F701858180FFA1CFFB
:102DD0008F70858323C0112381F0011106C00E94EA
:102DE000291F8B290E943016ACCF0130C1F70E94F9
:102DF000291F8B290E94231FA4CF011106C00E9406
:102E0000261F8B2D0E9437169CCF013009F499CFD5
:102E1000F6CF112329F0063008F093CF8B2DE2CFA7
:102E2000053008F08ECFEDCF002359F38D2F0E948F
:102E3000E11587CF8C2F86958695837069F0813058
:102E400009F07FCF8D2F9C2F9370111102C090E05D
:102E500080E00E94D71375CF8D2F9C2F9370111196
:102E600002C090E080E00E94C1136BCF112309F1F2
:102E7000D53F99F0D63FB9F0D43F49F48091C802CC
:102E80009091C90281609093C9028093C8028D2FEE
:102E90000E94E2220E94C92354CF8091C8029091DF
:102EA000C9028260F0CF8091C8029091C90284600B
:102EB000EACFD53F89F0D63FA9F0D43F49F48091BD
:102EC000C8029091C9028E7F9093C9028093C80274
:102ED0008D2F0E944A23DECF8091C8029091C902B3
:102EE0008D7FF2CF8091C8029091C9028B7FECCF89
:102EF0008C2F837009F047C0111123CF2D2F2295FD
:102F000026952770220F220F6D2F6F70862E912C21
:102F1000B12CA12C022E04C0880C991CAA1CBB1C2D
:102F20000A94D2F760E070E0CB01D4FF0FC06FE0ED
:102F300070E080E090E004C0660F771F881F991F43
:102F40002A95D2F76095709580959095C695C6950F
:102F5000C370C23051F080F4682979298A299B29ED
:102F6000C13071F00E94CB1CECCE682979298A29E6
:102F70009B290E94DD1CE5CE0E94CB1CC501B4013B
:102F80000E94B91CDECE8695112311F08C2F817022
:102F9000882309F4D6CE2D2F229526952770220F4F
:102FA000220F6D2F6F70862E912CB12CA12C022E2A
:102FB00004C0880C991CAA1CBB1C0A94D2F760E0C0
:102FC00070E0CB01D4FF0FC06FE070E080E090E0D4
:102FD00004C0660F771F881F991F2A95D2F7609546
:102FE000709580959095C695C695C370C23051F086
:102FF00080F4682979298A299B29C13071F00E94BF
:10300000901D9FCE682979298A299B290E94A21D9B
:1030100098CE0E94901DC501B4010E947E1D91CEE4
:10302000E0E2ED0FE53108F04DC0F0E0E552FF4C75
:103030000C94CC2FDF708C2F8F71112321F00E9404
:10304000191D8D2FCFCE0E943A1D8D2FDBCE11235F
:1030500041F0053008F075CE8C2F8F710E945D1DF8
:1030600070CE063008F06DCEF7CF8C2F8F71112304
:1030700039F00E94191D65CE8C2F8F711123C9F371
:103080000E943A1D5ECE112329F08C2F8F710E9471
:10309000041D57CE0E94FF1C54CE112349F0CF715E
:1030A0008C2F0E94191D63E08C2F0E94971E49CE21
:1030B00081E00E94A01E023008F443CE82E00E940C
:1030C000A01E3FCE112329F0011123CE8C2F8F712A
:1030D000D0CF002369F0D93309F0A8CEFFEF27EE57
:1030E00083E0F15020408040E1F700C000009ECE18
:1030F0008C2F8F71C5CF4C2F4F706D2FC7010E9441
:1031000020090E94311C1DCE11111BCECF70C23080
:10311000B1F040F4CC2381F0C13009F012CE0E940E
:103120009B240FCEC43089F068F080E0C53009F0F0
:1031300008CE0E94F12405CE0E94832402CE0E9474
:10314000B424FFCD0E94CE24FCCD85E0F2CF4C2FDD
:103150004F706D2FC7010E942309F3CDDF91CF91EE
:103160001F910F91FF90EF90DF90CF90BF90AF90A5
:103170009F908F9008950F931F93CF93DF93EC014F
:103180008B819C81892B29F08881998189238F3FAC
:1031900029F4DF91CF911F910F910895CE010E94E4
:1031A000E4058823B1F3688179818A810E94551EE4
:1031B0008C010E94B41D0E94B61CB801CE01DF91A3
:1031C000CF911F910F910C943E160E94101F0E94E8
:1031D000201F0E94871E0E94BD1E0E945E240E9426
:1031E000C92390E080E00E94C11390E080E00C943D
:1031F000D7130E94001F0C94E5180E944B1EE92F64
:10320000E295EF70E250EE3070F4F0E0E051FF4CE8
:103210000C94CC2F803F19F020F4803E20F481E004
:103220000895843FE1F380E00895803EC0F3813F3C
:10323000D1F7F5CF93FB882780F90895CF93DF93DB
:1032400000D000D00F92CDB7DEB70F900F900F9047
:103250000F900F90DF91CF910895CF93DF9300D01F
:1032600000D000D0CDB7DEB726960FB6F894DEBFFB
:103270000FBECDBFDF91CF9108951F93CF93DF9302
:10328000C091E00116E08091E1018C1304C0DF9150
:10329000CF911F910895D0E01C9FF0011D9FF00D6C
:1032A0001124EE51FE4F40815181628173818481EE
:1032B00095810E942D192196C770E5CF4091120289
:1032C00050911302609114027091150280911602C0
:1032D000909117020C942D191F93CF93DF93809137
:1032E0001702807FC1F4809114028823A1F080919D
:1032F000E001C091E10160911202709113024091CE
:10330000150250911602D62FD723DA01A095B09559
:1033100016E0C81304C0DF91CF911F91089590E08B
:103320004115510511F0DF3F31F401968770F1CF5F
:103330002A0F3B1F17C0189FF001199FF00D112491
:10334000EE51FE4F21812713F0CF20812613EDCFC0
:1033500022812111EACF238134812417350740F3DC
:10336000241B350B283C310500F7209117022F70E4
:1033700020612093170226E0289FF001299FF00D7D
:103380001124E951FE4F80818F708061808382E13A
:1033900092E00E94BB18DF91CF911F910C943D19D0
:1033A000BF92CF92DF92EF92FF920F931F93CF9332
:1033B000DF93CDB7DEB761970FB6F894DEBF0FBECF
:1033C000CDBF8C0185E0F801DE011D9601900D92C4
:1033D0008A95E1F7D8014C9111965C91119712965C
:1033E000EC9012978091150290911602009709F4C3
:1033F0007FC12091120230911302622F63236F3F2D
:1034000009F476C11396CD90DC90B0901402BB20E5
:1034100009F411C1C816D906D0F1F601E81BF90B61
:10342000CF01FF24F394883C910508F0F12C8091A2
:103430001702982F907FFF2009F4B8C091117FC028
:10344000FE2C351329C0241327C0E11025C08F702E
:103450008061809317020E945E1982E192E00E94CF
:10346000BB1880911702D80115968C938F2D619609
:103470000FB6F894DEBF0FBECDBFDF91CF911F9185
:103480000F91FF90EF90DF90CF90BF9008958095BF
:1034900090958C0D9D1DC5CFCD2829F0852F8423B7
:1034A0008F3F09F041C180E0B82FB170DB2E80FF63
:1034B0003CC08091E0012091E10136E0821315C00B
:1034C0004D875E878D859E850E944B1E292F2295F4
:1034D0002F702230F0F0243018F59F70F1F0F801D1
:1034E0009581907FD1F4D12C1EC090E0389FF001DF
:1034F000399FF00D1124EE51FE4F6181651306C016
:103500006081641303C06281E6120FC00196877068
:10351000D5CF9F7011F0882331F3805E883018F387
:10352000C8010E94BB18FD2CA1CFEE2009F49ECF4C
:1035300080911702816080931702F12C97CF351389
:1035400006C0241304C0D801EE2009F49AC04D87A8
:103550005E878D859E850E94FD18882319F1EE20D7
:1035600009F180911702803270F02091120230919F
:10357000130238872F831986DB86CA868C87CE0193
:1035800007960E94BB1886E0F801A2E1B2E0019024
:103590000D928A95E1F70E946C190E945E19FF2432
:1035A000F39464CFC8010E94BB18F9CF911113C0E6
:1035B0007C2DD98AC88A6E2D89890E941E1982E1C4
:1035C00092E00E94BB1886E0E2E1F2E0DF011D928A
:1035D0008A95E9F763C0351312C0241310C0E110B7
:1035E0000EC0F8018583C8010E94BB18E2E1F2E039
:1035F00086E0DF011D928A95E9F7FB2C37CF4D87D6
:103600005E878D859E850E94FD18882359F2EE20E5
:1036100049F280911702803208F4B5CF209112024E
:10362000309113023A8329831B82DD82CC828E8300
:10363000CE010196A6CFC816D90698F1F601E81B6F
:10364000F90BCF01F12C883C910508F049C0FE2C04
:10365000EE2009F4A7CF351332C0241330C0809177
:10366000170280FD23C0982F907F01F1D801159695
:103670008C931597903F39F0982F907F905F8F70C3
:10368000892B15968C93C8010E94BB1886E0F8011F
:10369000A2E1B2E001900D928A95E1F70E945E19D5
:1036A000E5CE809590958C0D9D1DCCCF86E0F801E0
:1036B000A2E1B2E001900D928A95E1F7D7CE4D8755
:1036C0005E878D859E850E94FD1881115CCF80915B
:1036D0001702816080931702C8010E94BB18C6CEF2
:1036E0007C2DD98AC88A6E2D89890E941E196BCFBC
:1036F000EE2009F457CF4D875E878D859E850E9409
:10370000FD18F82E882309F44DCF86E0F801A2E1D8
:10371000B2E001900D928A95E1F782E192E00E9479
:10372000E5140E946C19BACF81E08E25BDCE1F939F
:10373000CF93DF93CDB7DEB72C970FB6F894DEBFEB
:103740000FBECDBF4F83588769877A878B879C8749
:10375000CE0107960E94D019882369F08A859B853F
:10376000892B39F04F815885842F85238F3F09F0AD
:1037700071C016E05FC086E0FE013796DE0111964B
:1037800001900D928A95E1F78A859B85892B89F3B3
:1037900088859F8189238F3F61F32091E10130E08B
:1037A000C9010196877099274091E00148171906D1
:1037B00071F40E94F9181092E1011092E00186E084
:1037C000E2E1F2E0DF011D928A95E9F7D2CF96E0BF
:1037D000929FD001939FB00D1124AE51BE4FFE01B8
:1037E000319601900D929A95E1F78093E1010E9444
:1037F0003D19BFCF819FC00111248E519E4F0E9461
:10380000D0198823E9F0E091E0011E9FF001112416
:10381000EE51FE4F40815181628173818481958197
:103820000E942D198091E00190E001968770992700
:103830008093E0018091E0019091E1018913DACF5A
:103840002C960FB6F894DEBF0FBECDBFDF91CF919F
:103850001F91089569857A858B859C850E942D1915
:1038600088CFEF92FF920F931F93CF93DF938C013A
:10387000892B81F0F12CEE24E394E8012196F801E4
:103880008491843770F4843008F05FC08130B1F0E7
:103890008230A1F1DF91CF911F910F91FF90EF90B6
:1038A0000895853709F44CC008F43DC09CE7980F93
:1038B000903780F78F770E94E11549C00E5F1F4F48
:1038C000FE01849190E2980F983060F48770FE2D8D
:1038D00001C0FF0F8A95EAF78F2F0E94131F0E94E5
:1038E000BD1E02C00E94EA148F2D815030F2EFE914
:1038F000FFE03197F1F700C00000F7CF0E5F1F4FD8
:10390000FE01849190E2980F983050F48770FE2D5C
:1039100001C0FF0F8A95EAF78F2F0E94191FDFCF92
:103920000E94E115E1CF0E5F1F4FFE01C491C1500F
:10393000D8F28FE99FE00197F1F700C00000F7CFC0
:103940000E5F1F4FFE01F490CFCF0E94EA148E014C
:10395000CBCF08950E94A91C60934E0270934F0232
:1039600080935002909351020C94E51808950C94A2
:10397000AA1C0F931F9300914E0210914F022091A9
:10398000500230915102602B712B822B932B1F918F
:103990000F910C94AA1C0F931F9300914E0210914B
:1039A0004F022091500230915102602371238223F3
:1039B00093231F910F910C94AA1C0F931F930091B6
:1039C0004E0210914F022091500230915102602717
:1039D0007127822793271F910F910C94AA1C0C9496
:1039E000A91C0C94EF1C0E94F11C60934A02709376
:1039F0004B0280934C0290934D020C94E51860E0CA
:103A000070E0CB010C94F31C0F931F9341E050E046
:103A100060E070E08A019B0104C0000F111F221FAB
:103A2000331F8A95D2F7C901B8011F910F910C94E9
:103A3000F31C0F931F9341E050E060E070E004C07E
:103A4000440F551F661F771F8A95D2F780914A024F
:103A500090914B02A0914C02B0914D028A019B01C2
:103A6000082B192B2A2B3B2BC901B8011F910F9151
:103A70000C94F31C0F931F9341E050E060E070E062
:103A800004C0440F551F661F771F8A95D2F7CB01DC
:103A9000BA01609570958095909500914A021091B9
:103AA0004B0220914C0230914D02602371238223FE
:103AB00093231F910F910C94F31C0F931F9341E0DC
:103AC00050E060E070E004C0440F551F661F771F90
:103AD0008A95D2F780914A0290914B02A0914C02B4
:103AE000B0914D028A019B01082719272A273B27FD
:103AF000C901B8011F910F910C94F31C0F931F93F0
:103B000000914A0210914B0220914C0230914D02DB
:103B1000602B712B822B932B1F910F910C94F31C14
:103B20000F931F9300914A0210914B0220914C0277
:103B300030914D0260237123822393231F910F91B3
:103B40000C94F31C0F931F9300914A0210914B02A7
:103B500020914C0230914D026027712782279327D4
:103B60001F910F910C94F31C08952FE0929F800DEC
:103B70001124982F977041E001C0440F9A95EAF7FD
:103B800086958695869595E0899FF0011124E85EDB
:103B9000FD4F90E080E070E05191DF0111979B01B3
:103BA000082E02C0369527950A94E2F721702195D8
:103BB0002527242325272C9301968530910561F72D
:103BC00008952FE0929F800D1124982F977086956D
:103BD0008695869525E0829FF0011124E85EFD4FD1
:103BE00050E040E080E0219130E0092E02C036959F
:103BF00027950A94E2F721703327042E01C0220F83
:103C00000A94EAF7822B4F5F5F4F4530510559F711
:103C10000895BF92CF92DF92EF92FF920F931F937E
:103C2000CF93DF938C01C0904A02D0904B02E0907A
:103C30004C02F0904D0280914E0290914F02A09163
:103C40005002B0915102C82AD92AEA2AFB2ACFE1B0
:103C5000D0E0BC2ED701C6010C2E04C0B695A795A6
:103C6000979587950A94D2F780FD0EC0219788F723
:103C7000B12C8B2DDF91CF911F910F91FF90EF9081
:103C8000DF90CF90BF900895B8018C2F0E9440091B
:103C9000019761F3EECFCF93DF93EC010E94091EF1
:103CA000BE01DF91CF910C9440091F93CF93DF9316
:103CB000EB019091DF01992331F0CB01DF91CF919E
:103CC0001F910C944B1E882379F0CB010E94091E92
:103CD000182F682FCE010E94B51DBE01812FDF91E4
:103CE000CF911F910C944009CB010E94E11D182F28
:103CF000F4CF682F80910A0190910B010C94DE1F84
:103D0000682F80910A0190910B010C94E91F80911A
:103D10000A0190910B010C94F41F80915202859539
:103D2000859585950895809152028770089598E051
:103D3000899F90011124622B609352020C94191DEB
:103D4000909152028095892380935202282F2770E8
:103D500061F4282F082E000C330B9217130629F05C
:103D60008595859585950C943A1D089590915202FC
:103D7000977081E009F480E00895E0910A01F091E4
:103D80000B01809176028083E0910A01F0910B0192
:103D9000808190917502892B8083E0910A01F091D6
:103DA0000B01808190917402892B80839091530242
:103DB000992381F0E0910A01F0910B018081892B18
:103DC000808380910A0190910B010E94811F8111D3
:103DD0001092530280910A0190910B010C94AB1345
:103DE00080917602089590917602892B80937602D5
:103DF0000895809590917602982390937602089585
:103E000010927602089590917502892B8093750225
:103E10000895809590917502982390937502089566
:103E200010927502089590917402892B8093740208
:103E30000895809590917402982390937402089548
:103E400010927402089580935302089510925302C1
:103E500008958091530208956DEE7EEF90E080E02A
:103E60000E947A3060E082E090E00E945C3060E086
:103E700083E090E00E945C3060E084E090E00E948B
:103E80005C3060E085E090E00E945C3060E086E0BD
:103E900090E00E945C3040E050E0BA0188E090E0A1
:103EA0000C946E3090E080E00E94563021E08D3E10
:103EB0009E4F09F020E0822F089582E090E00C945C
:103EC0004830682F82E090E00C945C3083E090E012
:103ED0000C944830682F83E090E00C945C3084E0D0
:103EE00090E00C944830682F84E090E00C945C30B3
:103EF00086E090E00C944830682F86E090E00C94C7
:103F00005C30FC0131969C01205E3F4F80E0919136
:103F100091118F5FE217F307D1F708959C01FC011F
:103F200032969FEF80E04191461751F09F3F19F480
:103F3000411101C0982F8F5F8E31A9F79F3F09F47F
:103F40000895290F311D97FD3A95F901628308956F
:103F5000FC01329680962191261303C0DF01119750
:103F60001C92E817F907B9F70895E62FE695E6954C
:103F7000E695EF3169F0E80FF92FF11D677021E048
:103F800030E001C0220F6A95EAF78181822B81839C
:103F90000895E62FE695E695E695EF3171F0E80F86
:103FA000F92FF11D677021E030E001C0220F6A9502
:103FB000EAF72095818128232183089520911C010F
:103FC000222329F02091CE0227FD0C94B51F0C94DA
:103FD0008E1F20911C01222329F02091CE0227FD63
:103FE0000C94C91F0C94A81FFC0131968096119265
:103FF000E817F907E1F70895089508950C94FD1F57
:104000008091D502843009F430C01092780288E1A2
:1040100090E020E40FB6F894A895809360000FBE5E
:104020002093600080E00E94A20580E00E941E09AB
:104030000E94B7100E94A1100E94FE1F83B7817FCB
:10404000846083BF83B7816083BF7894889583B78A
:104050008E7F83BF0FB6F894A89580916000886129
:1040600080936000109260000FBE08950895CF9372
:104070000E94FC1F0E946E0C0E943620C0E08C2F14
:104080000E943B0D892B31F4CF5FC530C1F780E032
:10409000CF91089581E0FCCF08950C944C200E94AC
:1040A000F9180E946A240E949F130E941E090E9410
:1040B00047100E94B3100C944D201F921FB61F9200
:1040C00011248F939F93AF93BF93809178028111B6
:1040D00013C08091CA029091CB02A091CC02B09102
:1040E000CD024196A11DB11D8093CA029093CB02CF
:1040F000A093CC02B093CD02BF91AF919F918F91CD
:104100001F901FBE1F90189582E084BD93E095BD5F
:104110009AEF97BD80936E0008952FB7F894809121
:10412000CA029091CB02A091CC02B091CD022FBFD8
:104130000895CF92DF92EF92FF920F931F932FB7C4
:10414000F8944091CA025091CB026091CC027091D8
:10415000CD022FBF6A017B01EE24FF248C0130E0E9
:1041600020E0C016D106E206F30650F0481B590BBA
:10417000CA011F910F91FF90EF90DF90CF900895AB
:1041800041505109F3CF78941F921FB61F9211240A
:104190008F939F93AF93BF938091CA029091CB026C
:1041A000A091CC02B091CD020196A11DB11D8093CA
:1041B000CA029093CB02A093CC02B093CD02BF91E0
:1041C000AF919F918F911F901FBE1F90189581E016
:1041D0008093E00080E28093D8001092C9008FE1C4
:1041E0009EE40197F1F700C0000087E090EBDC014E
:1041F0008093DE029093DF02A093E002B093E1028D
:1042000088E19CE00FB6F894A895809360000FBEFB
:1042100090936000FFCFAF92BF92CF92DF92EF9268
:10422000FF920F931F93CF93C0E0CC24C394D12C63
:10423000E82EF12C8C2F0E943B0D5C0110E000E079
:10424000C601002E02C0880F991F0A94E2F78A2146
:104250009B21892B99F40F5F1F4F0F30110581F7B8
:10426000CF5FC53039F780E0CF911F910F91FF905C
:10427000EF90DF90CF90BF90AF900895602F7C2F8C
:1042800080E00E942409E816F90629F781E0ECCFC6
:10429000CF93C82F8CE20E940B21882321F08C2F12
:1042A000CF910C940B2180E0CF910895CF930E9481
:1042B000521F811102C00E942C1FC5E608C00E9437
:1042C0006E0C8FE39CE90197F1F700C00000C1502C
:1042D000B1F789E20E9448218111EFC08AE20E9471
:1042E000482181110E942C1F85E00E9448218111E4
:1042F0000E94E7200E945D1F8093770287E00E9462
:104300004821882371F08BE10E944821882309F419
:10431000B1C090917702892F8D7F91FF8260809349
:104320007702809177020E94611F0E946F1F90E0C8
:104330009093CF028093CE0280EE0E944821882382
:1043400041F09091CE02892F8E7F90FF8160809303
:10435000CE0289E30E944821882341F09091CE0249
:10436000892F8D7F91FF82608093CE0282EE0E9422
:104370004821882341F09091CE02892F8B7F92FFB4
:1043800084608093CE0286EE0E944821882341F00B
:104390009091CE02892F877F93FF88608093CE0211
:1043A00083EE0E944821882341F09091CE02892F0C
:1043B0008F7E94FF80618093CE0285E30E94482126
:1043C000882341F09091CE02892F8F7D95FF8062E6
:1043D0008093CE0281E30E944821882341F090918E
:1043E000CE02892F8F7B96FF80648093CE0281E17D
:1043F0000E944821882341F09091CE02892F97FB9B
:1044000087F980588093CE028091CE020E94731F5C
:1044100087E20E944821C82F8EE10E944821811125
:10442000C2608FE10E9448218111C46080E20E9435
:1044300048218111C86081E20E9448218111C06138
:1044400082E20E9448218111C06283E20E944821D9
:104450008111C06484E20E944821882341F1C06830
:104460008C2F0E946A1F6C2F70E090E080E0CF914B
:104470000C94B71C8EE00E944821882339F090915B
:104480007702892F8B7F92FF846049CF80E10E9461
:10449000482190917702882329F0892F877F93FF05
:1044A00088603DCF892F8E7F90FF816038CFC1110A
:1044B000D7CF0E94661F682FD7CFCF9108958091E4
:1044C0007B0280FF12C060910F0185E0689FB00100
:1044D0001124759567957595679560387105A8F5F0
:1044E00061157105A1F1862F089581FF09C06091C2
:1044F0000F0185E0689FB001112475956795EDCF98
:1045000060910F0182FD0AC080917C028823D1F066
:1045100090910E0160910F01891728F085E0689F46
:10452000B0011124DACF869FB001112485E0869F67
:104530009001879F300D1124692F70E0C9010E94FE
:10454000962FCBCF65E070E0CECF8FE7089581E066
:10455000089580917B0280FF0CC060910D0170E096
:1045600075956795759567956115710549F1862F64
:10457000089581FF06C060910D0170E07595679503
:10458000F3CF60910D0182FD0BC090917C029923C5
:10459000A1F060910C0180910D01961738F0682F01
:1045A00070E06038710500F38FE70895899FC001BE
:1045B000112470E00E94962FF4CF61E070E0D7CF15
:1045C00081E00895803F31F40E945F2281958093BD
:1045D0007F020895813F19F40E945F22F8CF823F45
:1045E00031F40E945F22819580937E020895833F7B
:1045F00019F40E945F22F8CF893F29F40E94A92272
:104600008093800208958A3F21F40E94A922819517
:10461000F7CF8B3F31F40E94A922819580938102CC
:1046200008958C3F19F40E94A922F8CF843F31F4F9
:1046300080917D02816080937D020895853F21F401
:1046400080917D028260F7CF863F21F480917D02C8
:104650008460F1CF873F21F480917D028860EBCFA9
:10466000883F21F480917D028061E5CF8D3F31F458
:1046700080917B02816080937B0208958E3F21F4BC
:1046800080917B028260F7CF8F3FB9F780917B02E8
:104690008460F1CF90917E02803F41F480917F024F
:1046A00087FD10927F02992371F00895813F29F4CC
:1046B00080917F021816ACF3F6CF823F81F497FF0A
:1046C000F2CF10927E0280917F0290918002892B1E
:1046D00090918102892B49F710927C020895833FC3
:1046E00019F4191674F3DFCF893F39F480918002F1
:1046F0001816CCF610928002D6CF8A3F29F480910A
:10470000800287FFD0CFF6CF8B3F39F480918102B2
:1047100087FFC9CF10928102C6CF8C3F29F48091C8
:1047200081021816BCF3BFCF843F31F480917D0223
:104730008E7F80937D02B7CF853F21F480917D02EB
:104740008D7FF7CF863F21F480917D028B7FF1CF63
:10475000873F21F480917D02877FEBCF883F21F452
:1047600080917D028F7EE5CF8D3F31F480917B0279
:104770008E7F80937B0297CF8E3F21F480917B02C6
:104780008D7FF7CF8F3F09F08ECF80917B028B7F9B
:10479000F0CF8DE792E00E94B6130E948D20909397
:1047A0007A028093790208951F93CF93DF938091CB
:1047B000790290917A020E949920AC0190917C023A
:1047C0002091100130E0911106C0209111018AE082
:1047D000289F900111244217530778F020917E0200
:1047E000C0917F02D091800210918102211109C0F5
:1047F0008C2F8D2B812B09F05DC0DF91CF911F9104
:1048000008959F3F19F09F5F90937C02121624F445
:104810000E945F2280937E0280917E0287FF05C006
:104820000E945F22819580937E021C1624F40E94D0
:104830005F2280937F0280917F0287FF05C00E94E4
:104840005F22819580937F0240917E02442379F01C
:1048500030917F02332359F025EB4203A00111244C
:1048600050937E0232039001112430937F021D1673
:1048700024F40E94A922809380028091800287FF05
:1048800005C00E94A922819580938002111624F40C
:104890000E94A922809381028091810287FF05C036
:1048A0000E94A922819580938102DF91CF911F916F
:1048B0000C94C9239F3F09F0A6CFB7CF85E0EDE761
:1048C000F2E0DF011D928A95E9F710927C021092C6
:1048D0007B0208950E94521F811102C00E942C1F6A
:1048E0000E94781F8093D0028C3020F081708A6003
:1048F0008093D0028091D00280FF03C086950C94F3
:10490000A20580E0FCCF8091D002982F969595303B
:1049100030F49F5F990F8170892B8093D002809132
:10492000D00281608093D0020E947C1F8091D002CF
:1049300086950C94A2058091D002982F9E7F79F0E5
:1049400082508093D0028E7F91E009F490E08091B4
:10495000D00290FB80F98093D0020E947C1F80914E
:10496000D00286950C94A2059091D002892F8E7F5B
:1049700090FF81608093D002813019F483E08093AE
:10498000D0028091D0020E947C1F8091D00280FFD3
:1049900003C086950C94A20580E0FCCF9091D002D4
:1049A000892F86958F5F8F7791708630B8F4880F46
:1049B000892B8093D0028091D0028E7F91E009F400
:1049C00090E08091D00290FB80F98093D0020E9409
:1049D0007C1F8091D00286950C94A2059093D00202
:1049E000EACF863008F085E0982F990F8091D002A9
:1049F0008170892B8093D0028E7F91E009F490E042
:104A00008091D00290FB80F98093D0020E947C1F9D
:104A10008091D00286950C94A2058091D002869553
:104A200008958091A20208950F931F93CF93DF936F
:104A300000D00F92CDB7DEB78C010E94852782305F
:104A400011F0843019F583E089831B830A838093F6
:104A5000E9008FEF9091E800815095FD06C095ED3B
:104A60009A95F1F700008111F5CF8091E80085FF5C
:104A70000DC050E040E063E070E0CE0101960E947E
:104A8000A2278091E8008E778093E8000F900F9026
:104A90000F90DF91CF911F910F910895CF93DF93E6
:104AA00000D00F92CDB7DEB72091D502243031F57A
:104AB00022E02983805891099B838A8383E0809335
:104AC000E9008FEF9091E800815095FD06C095EDCB
:104AD0009A95F1F700008111F5CF8091E80085FFEC
:104AE0000DC050E040E063E070E0CE0101960E940E
:104AF000A2278091E8008E778093E8000F900F90B6
:104B00000F90DF91CF910895CF93DF93EC010E9436
:104B10008527823011F08430F9F482E08093E90037
:104B20008FEF9091E800815095FD06C095ED9A9524
:104B3000F1F700008111F5CF8091E80085FF0CC0EE
:104B400050E040E065E070E0CE010E94A227809135
:104B5000E8008E778093E800DF91CF910895CF939E
:104B6000DF93EC010E948527823011F08430F9F444
:104B700080911C018823F1F08091CE0287FF1AC03A
:104B800084E08093E9008FEF9091E800815095FDDB
:104B900006C095E19A95F1F700008111F5CF80915B
:104BA000E80050E040E060E270E085FD1AC0DF916F
:104BB000CF91089581E08093E9008FEF9091E80014
:104BC000815095FD06C095ED9A95F1F70000811191
:104BD000F5CF8091E80085FFEACF50E040E068E043
:104BE00070E0CE010E94A2278091E8008E7780932A
:104BF000E80080E2FE01A2E8B2E001900D928A9501
:104C0000E1F7D5CF8091D402811109C00E943029EB
:104C10000E948D298091E20084608093E2000895D3
:104C20001092D4020895089508950C944F2042E004
:104C300061EC81E00E94AE2842E061EC82E00E94DB
:104C4000AE2842E061EC83E00E94AE2842E261ECD3
:104C500084E00C94AE288091D702833009F455C0CB
:104C600030F4813071F1823009F491C008958A30B6
:104C700009F47DC08B3009F463C0893009F044C069
:104C80008091D602813209F03FC08091DA02909182
:104C9000DB02009711F00397B9F58091E800877F58
:104CA0008093E8008091E80082FF2AC08091F100A3
:104CB0008093A2028091E8008B778093E8000C94A7
:104CC000E2288091D602813AF9F48091E800877F4A
:104CD0008093E8008091DA029091DB02892B61F4E5
:104CE00060E282E892E070E00E94F1278091E800A3
:104CF0008B778093E800089560E090E080E0F3CF48
:104D00008091D5028111CECF08958091D602813A4B
:104D1000D9F78091DA029091DB02892BA9F7809173
:104D2000E800877F8093E8008091E80080FFFCCF57
:104D300080911C018093F1008091E8008E77BDCFB7
:104D40008091D602813201F78091DA029091DB02E4
:104D5000892BD1F68091E800877F8093E8000E943C
:104D6000E2288091D80280931C010C94F91880915C
:104D7000D602813249F68091E800877F8093E8006F
:104D80000E94E2288091D9028093A3020895809125
:104D9000D602813A09F0B8CF8091E800877F8093EE
:104DA000E8008091E80080FFFCCF8091A302C2CF91
:104DB00084B7877F84BF0FB6F894A8958091600070
:104DC000886180936000109260000FBE80E880933D
:104DD0006100109261000E94EE130E9430290E942F
:104DE0008D298091E20084608093E20078940E9493
:104DF0000D2C0E94F21382E191E00E949A1380919F
:104E0000D502853029F00E94FC130E942913F7CFA8
:104E10000E9400208091D302882389F30E943720CA
:104E2000882369F30E948C27EACF0C941727292F37
:104E300033272330310521F168F42130310509F49D
:104E400049C02230310509F44AC090E080E030E0EA
:104E500020E029C02132310581F122323105A9F744
:104E60006430710590F7FB01EE0FFF1FEB5CFE4F06
:104E7000208131816F5C7E4FFB01808190E013C007
:104E800099278130910599F0009741F08230910582
:104E900089F00397D1F6E6EEF4E002C0E4E1F5E034
:104EA000849190E09F01FA01318320830895E2E02C
:104EB000F5E0F6CFECEEF4E0F3CF6430710528F6C0
:104EC000660F771FFB01E35CFE4F2081318189E093
:104ED00090E0E9CF82E190E025E835E0E4CF8DE68F
:104EE00090E028E135E0DFCF0895CF93C82F0E94EE
:104EF0007427C093A402CF9108958091D502843085
:104F000011F482E0089581E008958091A402811156
:104F100002C00C947D27089580E189BD82E189BD9E
:104F200009B400FEFDCF8091D8008F7D8093D8001A
:104F30008091E00082608093E0008091E00081FD3C
:104F4000FCCF0895AF92BF92CF92DF92FF920F9362
:104F50001F93CF93DF936C01EB018A010E9401291B
:104F6000F82E811123C00115110539F0F801808157
:104F70009181C81BD90BC80ED91EB12CA12C20972A
:104F8000A9F08091E80085FD22C08091E8008E772D
:104F90008093E80001151105A1F0F801808191814D
:104FA000A80EB91EB182A08285E0F82E8F2DDF9168
:104FB000CF911F910F91FF90DF90CF90BF90AF9056
:104FC00008950E9401298823D1F2F82EEFCFF6012F
:104FD00081916F018093F1002197FFEFAF1ABF0A13
:104FE000CECFFC018091DC029091DD0286179707FD
:104FF000A0F06115710529F49091E8009E779093D7
:10500000E80090E06115710551F4911108C080919C
:10501000E80082FF34C080E00895BC01F2CF8091A7
:10502000D5028823C1F18530C1F18091E80083FD6C
:1050300030C08091E80082FDEACF8091E80080FFD7
:10504000E1CF8091F3002091F200382F61157105B6
:1050500019F02830310558F091E02830310509F079
:1050600090E02091E8002E772093E800CBCF81914B
:105070008093F100615071092F5F3F4FE7CF80911E
:10508000D502882341F0853041F08091E80083FF0C
:10509000BECF81E0089582E0089583E00895FC0189
:1050A0008091DC029091DD0286179707A0F06115D0
:1050B000710529F48091E8008E778093E80090E0F4
:1050C0006115710551F4911108C08091E80082FFCB
:1050D00035C080E00895BC01F2CF8091D5028823CD
:1050E000C9F18530C9F18091E80083FD31C080911C
:1050F000E80082FDEACF8091E80080FFE1CF809157
:10510000F3002091F200382F6115710519F0283055
:10511000310558F091E02830310509F090E0809198
:10512000E8008E778093E800CBCF84918093F100E4
:105130003196615071092F5F3F4FE6CF8091D502C4
:10514000882341F0853041F08091E80083FFBDCF96
:1051500081E0089582E0089583E00895982F9730C4
:1051600028F08F708093E90081E008959093E90022
:10517000242F762F50E0981731F07091EC00209199
:10518000ED005091F00021FD02C09F5FE8CF30910B
:10519000EB003E7F3093EB003091ED003D7F30938C
:1051A000ED003091EB0031603093EB007093EC0038
:1051B0002093ED005093F0002091EE0027FDE5CF05
:1051C00080E008958091D60287FF13C08091E800A7
:1051D00082FF06C08091E8008B778093E80004C0CE
:1051E0008091D5028111F2CF08958091D502882354
:1051F000D9F38091E80080FFF8CF8091E8008E77A6
:10520000ECCF2091E4003091E50085E6A901909172
:10521000EC0090FF06C09091E80090FF06C080E08F
:1052200008959091E80092FDFACF9091D5029923CC
:1052300089F0953089F09091EB0095FD0FC0209199
:10524000E4003091E5004217530709F38150F1F66D
:1052500084E0089582E0089583E0089581E0089550
:105260000E949E290E94A629E0EEF0E080818160E4
:105270008083E8EDF0E080818F77808319BCA7ED13
:10528000B0E08C918E7F8C9380818F7E8083109292
:10529000D40208950F931F93CF93DF930E949E290A
:1052A0000E94A629C8EDD0E088818F778883888105
:1052B0008068888388818F7D888319BC1092D5028D
:1052C0001092D1021092D3021092D20200EE10E09E
:1052D000F80180818B7F808388818160888342E0B0
:1052E00060E080E00E94AE28E1EEF0E080818E7FF9
:1052F0008083E2EEF0E0808181608083808188603D
:105300008083F80180818E7F80838881806188839B
:10531000DF91CF911F910F910895E8EDF0E080812A
:105320008F7E8083E7EDF0E080818160808384E080
:1053300082BF81E08093D4020C944A29E8EDF0E02A
:1053400080818E7F80831092E20008951092DA00AF
:105350001092E10008951F920F920FB60F92112440
:105360002F933F934F935F936F937F938F939F936D
:10537000AF93BF93EF93FF938091E10082FF0BC047
:105380008091E20082FF07C08091E1008B7F8093D3
:10539000E1000E940C2C8091DA0080FF19C08091FE
:1053A000D80080FF15C08091DA008E7F8093DA00EC
:1053B0008091D90080FF94C080E189BD82E189BDE0
:1053C00009B400FEFDCF81E08093D5020E94022641
:1053D0008091E10080FF19C08091E20080FF15C03C
:1053E0008091E2008E7F8093E2008091E2008061F4
:1053F0008093E2008091D80080628093D80019BC2D
:1054000085E08093D5020E9414268091E10084FFFC
:1054100029C08091E20084FF25C080E189BD82E13E
:1054200089BD09B400FEFDCF8091D8008F7D8093A7
:10543000D8008091E1008F7E8093E1008091E200AE
:105440008F7E8093E2008091E20081608093E20091
:105450008091D102882309F449C084E08093D50269
:105460000E9415268091E10083FF29C08091E2000F
:1054700083FF25C08091E100877F8093E10082E077
:105480008093D5021092D1028091E1008E7F8093AB
:10549000E1008091E2008E7F8093E2008091E20043
:1054A00080618093E20042E060E080E00E94AE28EC
:1054B0008091F00088608093F0000E941326FF9195
:1054C000EF91BF91AF919F918F917F916F915F917C
:1054D0004F913F912F910F900FBE0F901F901895F5
:1054E00019BC1092D5020E94102672CF8091E30061
:1054F00087FD02C081E0B2CF83E0B0CF1F920F9250
:105500000FB60F9211242F933F934F935F936F9396
:105510007F938F939F93AF93BF93CF93EF93FF931B
:10552000C091E900CF708091EC001092E900809169
:10553000F000877F8093F00078940E94BA2A10923E
:10554000E9008091F00088608093F000C093E9004A
:10555000FF91EF91CF91BF91AF919F918F917F91EB
:105560006F915F914F913F912F910F900FBE0F90D0
:105570001F9018951F93CF93DF93CDB7DEB7AA97EF
:105580000FB6F894DEBF0FBECDBF86ED92E020913E
:10559000F100FC012193CF01F2E08E3D9F07B9F7A6
:1055A0000E942B268091E80083FF1EC18091D602C5
:1055B0009091D7029A3008F017C1E92FF0E0E2503D
:1055C000FF4C0C94CC2F803899F0823809F00CC134
:1055D0008091DA028F70873008F006C18093E9006D
:1055E0008091EB0085FB882780F91092E90006C0C6
:1055F0008091D2029091D302911182609091E80043
:10560000977F9093E8008093F1001092F1008091D1
:10561000E8008E77E5C0882309F4D3C0823009F012
:10562000E3C08091D8028111D6C08091DA028F70D8
:105630002FEF280F263008F0D7C08093E900209183
:10564000EB0020FFC8C0933031F48091EB00806202
:105650008093EB00C0C09091EB0090619093EB00C1
:1056600021E030E001C0220F8A95EAF72093EA009A
:105670001092EA008091EB008860EACF8111B4C0FB
:105680001091D8021F778091E3008078812B80935E
:10569000E3008091E800877F8093E8000E94E22881
:1056A0008091E80080FFFCCF8091E30080688093C8
:1056B000E30082E0111183E08093D50295C0805809
:1056C000823008F091C08091D8029091D9028C3D2F
:1056D00023E09207A1F583E08A838AE289834FB7AA
:1056E000F894DE01139620E03EE051E2E32FF0E073
:1056F00050935700E49120FF03C0E295EF703F5FA5
:10570000EF708E2F90E0EA30C0F0C7968D939D9396
:105710002F5F243159F74FBF8091E800877F809336
:10572000E8006AE270E0CE0101960E94F1278091C4
:10573000E8008B778093E80057C0C096E7CF609170
:10574000DA027091DB02AE014F5F5F4F0E941527B6
:10575000BC01892B09F448C09091E800977F909391
:10576000E80089819A810E944F28E1CF8038E1F5D5
:105770008091E800877F8093E8008091D102809338
:10578000F10045CF811130C09091D802923060F580
:105790008091E800877F8093E8009093D1020E9477
:1057A000E2288091D102882311F084E005C0809125
:1057B000E30087FDFACF81E08093D5020E9417268F
:1057C00013C08091D802813079F481E0933009F0E0
:1057D00080E08093D3021092E9008091E800877FF7
:1057E0008093E8000E94E2288091E80083FF0AC0CD
:1057F0008091E800877F8093E8008091EB008062D1
:105800008093EB00AA960FB6F894DEBF0FBECDBF13
:10581000DF91CF911F9108950895CF938091D50284
:10582000882399F0C091E900CF708091EC0080FD51
:105830000EC080E0C82B1092E9008091E80083FD43
:105840000E94BA2ACF70C093E900CF91089580E8F2
:10585000F1CF5058BB27AA270E94412C0C94EC2D65
:105860000E94DE2D38F00E94E52D20F039F49F3F94
:1058700019F426F40C94B42D0EF4E095E7FB0C9487
:10588000AE2DE92F0E94FD2D58F3BA17620773075A
:105890008407950720F079F4A6F50C941F2E0EF4DA
:1058A000E0950B2EBA2FA02D0B01B90190010C0130
:1058B000CA01A0011124FF27591B99F0593F50F448
:1058C000503E68F11A16F040A22F232F342F4427A0
:1058D000585FF3CF469537952795A795F040539598
:1058E000C9F77EF41F16BA0B620B730B840BBAF068
:1058F0009150A1F0FF0FBB1F661F771F881FC2F7D3
:105900000EC0BA0F621F731F841F48F487957795E6
:105910006795B795F7959E3F08F0B0CF9395880FA0
:1059200008F09927EE0F9795879508950E94AA2C65
:105930000C94EC2D0E94E52D58F00E94DE2D40F0D5
:1059400029F45F3F29F00C94AE2D51110C94202EB8
:105950000C94B42D0E94FD2D68F39923B1F35523C7
:1059600091F3951B550BBB27AA2762177307840772
:1059700038F09F5F5F4F220F331F441FAA1FA9F308
:1059800035D00E2E3AF0E0E832D091505040E695F6
:10599000001CCAF72BD0FE2F29D0660F771F881F57
:1059A000BB1F261737074807AB07B0E809F0BB0B4A
:1059B000802DBF01FF2793585F4F3AF09E3F51055E
:1059C00078F00C94AE2D0C94202E5F3FE4F3983EBB
:1059D000D4F3869577956795B795F7959F5FC9F747
:1059E000880F911D9695879597F90895E1E0660FC8
:1059F000771F881FBB1F621773078407BA0720F041
:105A0000621B730B840BBA0BEE1F88F7E0950895A9
:105A100029F416F00C94AE2D0C941F2E0C94B42D7A
:105A20000E94052EA8F39638A0F707F80F92E89485
:105A30002BE33AEA48EB5FE70E94B22E0F920F92F7
:105A40000F924DB75EB70F920E94682EECEAF0E01D
:105A50000E94B72D4F915F91EF91FF91E595EE1F59
:105A6000FF1F49F0FE57E0684427EE0F441FFA95E8
:105A7000E1F74195550B0E94322E0F9007FE0C94D2
:105A8000262E08950E94052E88F09F5798F0B92F72
:105A90009927B751B0F0E1F0660F771F881F991F63
:105AA0001AF0BA95C9F714C0B13091F00E941F2EB8
:105AB000B1E008950C941F2E672F782F8827B85FC8
:105AC00039F0B93FCCF3869577956795B395D9F7BB
:105AD0003EF490958095709561957F4F8F4F9F4FC5
