:100000000C944A030C9491030C9491030C94910367
:100010000C9491030C9491030C9491030C94910310
:100020000C9491030C9491030C9437290C940A2A94
:100030000C94E91F0C9491030C9491030C9491037C
:100040000C9491030C9491030C9491030C949103E0
:100050000C9421080C944F200C9491030C94910360
:100060000C9491030C9491030C9491030C949103C0
:100070000C9491030C9491030C9491030C949103B0
:100080000C9491030C9491030C9491030C949103A0
:100090000C9491030C9491030C9491030C94910390
:1000A0000C9491030C9491030C94910307634236D2
:1000B000B79BD8A71A39685618AEBAAB558C1D3CF9
:1000C000B7CC5763BD6DEDFD753EF6177231BF00BD
:1000D0000000803F05A84CCDB2D44EB93836A902F5
:1000E0000C50B9918688083CA6AAAA2ABE00000036
:1000F000803F155C1E001F0020002100220023000D
:1001000024002500260027002D002E0000002A00D4
:100110002B0014001A000800150017001C0018001E
:100120000C00120013002F00300031000000E3002B
:1001300004001600070009000A000B000D000E0065
:100140000F0033003400000028000000E100000030
:100150001D001B00060019000500110010003600EC
:10016000370038000000E5000000E000E300E20096
:100170000000000000002C42000000000000E6002B
:1001800002510351E40000000100010001000100E0
:100190000100010001000100010001000100010057
:1001A0000100010001000100010001000100010047
:1001B0000100010001000100010001000100010037
:1001C0000100000001000100010001000100010028
:1001D0000100010001000100010001000100010017
:1001E0000000010001000100010001000100010008
:1001F00001000100010001000100000001000100F8
:100200000100010001000000000000002C000000BF
:100210000000000001000251035101000000350000
:100220003A003B003C003D003E003F0040004100E2
:10023000420043004400450000004C000000F40070
:10024000F000F5000000F90000000000520000007E
:10025000460047004800000000003900F200F100AD
:10026000F300FB00FA00FC00500051004F000000BA
:10027000000000000000000001000000AC00AE0023
:10028000AB00A900AA000000000000000000000070
:10029000000001000000010001000100000000005A
:1002A00000000153000000000000010000000000F9
:1002B000010000000000000000000000000000003D
:1002C000000000000000000000000000000000002E
:1002D00000000000CB5CCC5CCD5CCE5CCF5CD05C25
:1002E000D35C0000000000000000000000000000DF
:1002F0000100DB5C0000C75CC85C0000000000007F
:1003000000000000000000000000000000000100EC
:100310000000C05CC15CC35CC45CC55CC65CBF5C07
:10032000BB5CBD5CBC5C0000010000000100010082
:1003300001000000000000000000000000000000BC
:1003400001000000000001000000000000000000AB
:10035000000000000001010203040506080A0C0F5A
:100360001114181C2024292E33393F464C535B624C
:100370006A7179818A929AA2AAB2B9C1C8CFD5DC32
:10038000E1E7EBF0F4F7FAFCFDFEFFFEFDFCFAF707
:10039000F4F0EBE7E1DCD5CFC8C1B9B2AAA29A92DA
:1003A0008A8179716A625B534C463F39332E292426
:1003B000201C1814110F0C0A080605040302010181
:1003C0000000000000000000000000046801F000D0
:1003D000B40078005A007F3F1F64321464321478EE
:1003E0003C1E1E140A05000000000001010101016D
:1003F00001010101020202020202020202030303DE
:1004000003030303030404040404040505050505AC
:100410000606060606070707070808080809090967
:100420000A0A0A0A0B0B0B0C0C0C0D0D0D0E0E0F0D
:100430000F0F101011111112121313141415151699
:10044000161717181819191A1A1B1C1C1D1D1E1F08
:100450001F20202122222324252526272728292A58
:100460002B2B2C2D2E2F2F3031323334353636377F
:1004700038393A3B3C3D3E3F404142434446474881
:10048000494A4B4C4D4F50515253555657585A5B51
:100490005C5E5F606263646667696A6C6D6E7071F2
:1004A00073747678797B7C7E8081838486888A8B5E
:1004B0008D8F91929496989A9B9D9FA1A3A5A7A991
:1004C000ABADAFB1B3B5B7B9BBBDBFC1C4C6C8CA88
:1004D000CCCFD1D3D6D8DADCDFE1E4E6E8EBEDF03F
:1004E000F2F5F7FAFCFF0403300000001403530098
:1004F000360030002D0058002D0052004700420009
:1005000000001003530065006E007400720061006B
:10051000710000000403090409026D00040100A039
:10052000FA09040000010301010009211101000181
:100530002240000705810308000A090401000103A5
:10054000010200092111010001224D00070582036B
:1005500008000A090402000103000000092111013A
:1005600000012236000705830308000A090403007E
:1005700001030000000921110100012239000705D3
:1005800084032000011201100100000008EDFE604C
:100590006001000102030105010906A10105071917
:1005A000E029E71500250195087501810205081964
:1005B00001290595057501910295017503910105C4
:1005C00007190029F71500250195F875018102C06A
:1005D00005010980A10185021601002603001A8188
:1005E000002A8300751095018100C0050C0901A146
:1005F000018503160100269C021A01002A9C02753F
:100600001095018100C005010902A1010901A100A5
:1006100005091901290515002501950575018102B6
:100620009501750381010501093009311581257F87
:1006300095027508810609381581257F9501750891
:100640008106050C0A38021581257F950175088100
:1006500006C0C005010906A101050719E029E71533
:100660000025019508750181029501750881010534
:1006700008190129059505750191029501750391E8
:10068000010507190029FF150026FF0095067508CA
:100690008100C00011241FBECFEFDAE0DEBFCDBF66
:1006A00004B603FE27C08091E4029091E502A09178
:1006B000E602B091E7028730904BA740B04BD1F4EF
:1006C0001092E4021092E5021092E6021092E70204
:1006D00014BE84B7877F84BF0FB6F894A895809125
:1006E0006000886180936000109260000FBEE0E0BF
:1006F000F8E3099511E0A0E0B1E0E8E2F1E602C01C
:1007000005900D92A634B107D9F722E0A6E4B1E036
:1007100001C01D92A43EB207E1F70E9464260C942A
:1007200043300C9400000E945D050E9499248111C1
:1007300003C085E00E947D248FEF8093AD028093FB
:10074000AE02EEE4F1E01582369681E0EA38F80771
:10075000D1F708957F928F929F92AF92BF92CF92DE
:10076000DF92EF92FF920F931F93CF93DF93082FA7
:100770000E94930F81E00E947D0FD0E0C0E010E066
:100780008AE0A82EB12C96E0792EC017D10774F01C
:10079000DF91CF911F910F91FF90EF90DF90CF905D
:1007A000BF90AF909F908F907F9008950E94C42F2C
:1007B000B5010E94222F7C014C0199240E94C42F74
:1007C000887691706C012E2D4FEF6FEF0E94F00F25
:1007D0000E9419209093470180934601789CF00174
:1007E000799CF00D1124E25BFE4FE482D182C0823D
:1007F0008FEF828383832196C8CFCF93DF93EC0161
:100800000E94930F81E00E947D0F4FEF6FEFCE01AA
:10081000DF91CF910C94950E0F931F93CF93DF939D
:100820008C01EB0180914D01882379F08A81882326
:1008300061F0809104018823C1F00E94C42F6AE016
:1008400070E00E94222F0E94AA030E32110551F17E
:100850000B3D8CE51807B9F10D32110521F40E940A
:100860007C1E85FD0FC0C1E05AC0809149018823DC
:1008700061F30E94C42F68E671E00E94222F0E945B
:10088000FD03E3CF0E947C1E81FFEDCF8A81882388
:1008900051F30E940E1080E00E947D240E94B81E39
:1008A000C0E03DC00E947C1E85FFDDCF0E947C1E03
:1008B00081FFD9CF8A818823B1F280E00E947D2414
:1008C0000E941C05EDCF8A81882369F29091AB02CA
:1008D000892F86958F7380930601C92FC170C093AD
:1008E0000501292F221F2227221F9091AC02990F68
:1008F000922B90934C019091AD0290934B0190916B
:10090000AE0290934A0190914D0121E0922790937D
:100910004D019111C5CFC11108C00E940E108C2F3E
:10092000DF91CF911F910F9108950E947D0FB8CF55
:10093000CF93DF9380914601909147010E9425203B
:100940000B9790F0CEE4D1E08B818A3080F08A5012
:100950008B830E941920909347018093460126962D
:1009600081E0CA38D80781F7DF91CF9108951B82C3
:10097000F0CFCF93DF93CEE4D1E02C814B816A811D
:10098000888199810E94F00F81E09B81911180E024
:1009900080934801269681E0CA38D80771F7DF9125
:1009A000CF91089580914D01882321F00E949804F1
:1009B0000C94B9040895CF92DF92EF92FF928C3796
:1009C00024E1920750F469E070E00E940E2FCB0101
:1009D000FF90EF90DF90CF900895B0E0A0E0BC01D1
:1009E000CD016A50774D8F4F9F4F982F872F762FCD
:1009F000662725EF38E241E050E00E94362F69017A
:100A00007A01CA01B9010E94FE2E9B01AC01C70107
:100A1000B6010E94FE2E672F782F892F9927611526
:100A2000710521E08207910591F66FEF7FEFCFCF3F
:100A300081E008950C940C040E9485182FEF84E344
:100A40009CE0215080409040E1F700C000000C94F1
:100A500073200C948A0B8630D8F481111AC09091BF
:100A60008000977F90938000282F30E0AFEFBFEF9A
:100A70000E945E2F25E030E040E050E00E94362FDB
:100A8000C9010E94DB0490938D0080938C0008952F
:100A900085E0909180009860E5CF80916F00817033
:100AA000089510928B0110928A0110928C01EFE64A
:100AB000F0E08081816080830895EFE6F0E080813E
:100AC0008E7F80830E9499240C942B050E944D05F3
:100AD00081110C945D050C945105FF920F931F93A7
:100AE000CF93DF938C01FC01C081D1818091E5011E
:100AF000811150C08281882309F447C0CE010E9431
:100B0000951DF82E682FCE010E94411DBE018F2D2C
:100B10000E94AD08EC01B8010E941A05882309F46F
:100B200010C1B801CE010E94390B882309F409C114
:100B3000C93CFCE5DF0709F444C108F071C0C13CC1
:100B40009CE5D90709F415C108F048C0C531FCE59A
:100B5000DF0728F5C2308CE5D80708F0B2C1C1150F
:100B60009CE5D90709F4E8C0C130DC4509F4F0C0C0
:100B700081E08093920180939301C801DF91CF912E
:100B80001F910F91FF900C941805CE010E946D1DCE
:100B9000F82EBCCFCE010E94951DBE01B9CFCF3B30
:100BA000FCE5DF0709F445C208F0DCC0C531DC45CF
:100BB000F9F60E947C1EF8019281992309F42FC254
:100BC0008A7A91E009F490E090938D01811125C219
:100BD00089E20E94051E0E94491EB3C0F80182816D
:100BE000C53CFCE5DF0709F4DDC068F4C33CECE577
:100BF000DE0709F4D2C008F4C7C0882309F4A1C0F5
:100C00000E94B00E9EC0C73C9CE5D90709F4D4C031
:100C100008F4CDC0882309F494C00E94170F91C036
:100C2000C13DFCE5DF0709F41CC1F0F5F801828144
:100C3000CD3CFCE5DF0709F4D9C0D8F4CB3CECE5AA
:100C4000DE0709F4CCC008F4C4C0882309F479C0D5
:100C50000E945C0D623071058105910540F00E9493
:100C60005C0D653071058105910508F493C082E043
:100C7000BAC0CF3C9CE5D90709F4DFC008F4C9C06D
:100C8000882309F45EC00E945C0D65317105810501
:100C9000910540F00E945C0D673171058105910559
:100CA00008F478C085E19FC0C53DFCE5DF0709F485
:100CB00091C1C0F4F8018281C33DFCE5DF0709F46E
:100CC000EBC008F4D5C0882309F46DC110929201DD
:100CD0000E94192090938F0180938E0182E00E94E0
:100CE000BC152FC0C93DECE5DE0709F4DAC0CA3DEA
:100CF000FCE5DF0709F4DEC0C63DDC4509F038CF6E
:100D0000F801828181116AC180919301811183C1AF
:100D100080919001909191010E942520883C91053D
:100D200008F079C180E20E94C31588E20E9476141F
:100D300088E20E946D1505C0F801828181110E9430
:100D40001C0580E0DF91CF911F910F91FF900895D6
:100D5000F80182818823A9F380917D0281608093CC
:100D60007D02EFCFF8018281882359F30E9426107B
:100D7000E8CFF8018281882321F30E947C1E8272D1
:100D800049F00E948A0FDDCF8823D9F20E947C1E91
:100D90008272B9F30E94800FD4CF882391F20E940F
:100DA000980ECFCF882369F20E94CF0ECACF882336
:100DB00041F20E94E70EC5CF882319F20E94FF0E70
:100DC000C0CFF8018281882309F4BBCF0E946A0D4D
:100DD000B8CF882309F4B5CF0E947F0DB2CF882306
:100DE00009F4AFCF81E00E947D0FABCF882309F4D7
:100DF000A8CF0E945C0D663071058105910538F021
:100E00000E945C0D683071058105910518F286E03D
:100E1000EACF882309F495CF0E945C0D69307105F3
:100E20008105910540F00E945C0D6E3071058105D1
:100E3000910508F4AFCF89E0D6CF882309F481CF9C
:100E40000E945C0D6F3071058105910540F00E9494
:100E50005C0D643171058105910508F49BCF8FE02D
:100E6000C2CFF8018281882309F46BCF88E1BBCF20
:100E7000882309F466CF0E945C0D693171058105F4
:100E8000910540F00E945C0D62327105810591056B
:100E900008F480CF89E1A7CF882309F452CF83E2F9
:100EA000A2CFF8018281882309F44BCF80E00E9411
:100EB000012747CFF8018281882309F442CF82E0DD
:100EC000F6CFF8018281882309F457CE0E94DE1EF6
:100ED000811102C00E94B81E0E94FB1E90E09093F8
:100EE000D5028093D402FE01E350FC458091D402E8
:100EF0008160E231F10538F4EB5BFF4C0C94582F24
:100F00008091D40282608093D4028091D4020E94A6
:100F1000FF1E0E94851815CF8091D4028460F3CF04
:100F20008091D4028860EFCF8091D4028061EBCFB2
:100F30008091D4028062E7CF8091D4028064E3CFB5
:100F40008091D4028068DFCF8091D4028C60DBCFA7
:100F50008091D4028E7FD7CF8091D4028D7FD3CF62
:100F60008091D4028B7FCFCF8091D402877FCBCF6B
:100F70008091D4028F7EC7CF8091D4028F7DC3CF62
:100F80008091D4028F7BBFCF8091D4028F77BBCF6B
:100F90008091D402837FB7CF9091D402892F97FBA1
:100FA00087F98058B0CF8091920181110FC0809154
:100FB0008E0190918F010E942520883C910530F48C
:100FC00086E20E94761486E20E946D1582E00E94FD
:100FD000C315B7CEF8018281882351F01092930196
:100FE0000E941920909391018093900180E277CE26
:100FF0008091930181110FC0809190019091910196
:101000000E942520883C910530F487E20E947614E6
:1010100087E20E946D1580E2DACF85E3DACD809118
:101020008D01811104C089E20E940C1ED4CD85E39C
:10103000FBCFF8018281882309F483CE0E946605E4
:1010400080CE1F920F920FB60F9211242F933F93D1
:101050004F935F936F937F938F939F93AF93BF93C0
:10106000CF93EF93FF932091070180918A01909194
:101070008B01019644EF249F90011124B9010E9435
:101080000E2F90938B0180938A01B901660F672F11
:10109000661F770B71950E940E2F6F7780918C01E0
:1010A000823041F4603451F480916F008E7F8093E0
:1010B0006F0004C0813011F46F37B1F3E62FF0E018
:1010C000E65BFC4FC4910E949924282F41E051E037
:1010D000C49FC001C59F900D112465E070E00E947F
:1010E0000E2F269FC001279F900D11240E94DB0424
:1010F00090938D0080938C00FF91EF91CF91BF91E1
:10110000AF919F918F917F916F915F914F913F919F
:101110002F910F900FBE0F901F901895279A2F9820
:101120008AE08093800089E1809381008FEF9FEFB8
:1011300090938700809386000E94F6230C945105BB
:101140000E948E080C94880B08950C94A4080C94AB
:10115000A50890E080E008950895972F70E02FE0B3
:10116000929F600D711D1124FB019BE4899FE00D8E
:10117000F11D1124EE0FFF1FEE50FF4F859194914A
:101180000895FC01EE0FFF1FE653FC4F85919491EB
:101190000895CF93DF930E94AD080E949A0AEC0154
:1011A000811521E5920708F049C0811530E59307C4
:1011B00008F021C1883E910508F5803E910570F543
:1011C000883A910570F4853A910508F0A7C08130FE
:1011D000910521F1009711F1049700F5D0E0C0E0EE
:1011E0001DC08D3B910508F4A4C0805C9109C03CF2
:1011F000D105A0F30E94C108EC0110C081159043F5
:1012000088F4C11580E2D80708F0ECC0C03FD105D2
:1012100028F3CF3FD10509F008F4E2C0CE01DF91F9
:10122000CF910895C11590E4D90708F0E1C0CE012F
:101230009927D3FFDAC0EC01D86CF0CF811529E5EE
:10124000920740F5811538E5930708F01AC181151A
:1012500044E5940778F4C11583E5D80708F0F8C091
:10126000C11592E5D90708F0E2C0DC2FCC27C16F89
:10127000D06AD4CF811525E5920708F4FDC0811509
:1012800036E5930708F0AACFD82FCC27CC27DF71FB
:10129000D062C4CF8B3B9C4509F4F8C0CC3B8CE5B5
:1012A000D807B8F4C93B9CE5D90709F4F2C008F0A7
:1012B000F3C0C1153AE5D30708F090CFCE0134E072
:1012C000969587953A95E1F78F70CF70C06ED82FBD
:1012D00090C0CE3B4CE5D40709F4E1C060F4CC3BB0
:1012E0009CE5D90709F4DEC0CD3BDC4509F076CF9B
:1012F000C0E0D2ED93CFCE0190568115904208F018
:101300006DCF8D2F8F710E94150B90E0982F88273D
:1013100088279F719C012C2BE901BACF853A910552
:1013200009F4C3C0863A910509F0C2C0C2E8D0E40E
:1013300075CF883A910509F4BEC0893A910509F440
:10134000BDC08A3A910509F4BCC08B3A910509F4F5
:10135000BBC08C3A910509F4BAC08B3B910509F4E6
:10136000B9C08C3B910509F4B8C08D3A910509F4D8
:10137000B7C0803B910509F4B6C08E3A910509F4D7
:10138000B5C08F3A910509F4B4C0813B910509F4C9
:10139000B3C0823B910509F4B2C0833B910509F4C7
:1013A000B1C0843B910509F4B0C0853B910509F4B7
:1013B000AFC0863B910509F4AEC0873B910509F4A7
:1013C000ADC0883B910509F4ACC0893B910509F497
:1013D000ABC08A3B910509F4AAC0C0E0D4E41ECF9B
:1013E000D0651CCFCE019F7005CFEC01D06C16CF1D
:1013F000DF70D06A13CFE4E096958795EA95E1F720
:1014000083702C2F26952695237040E2249F90010F
:101410001124382B8C2F8370C1E0D0E002C0CC0F98
:10142000DD1F8A95E2F7C22BD32BDC68F7CECE0105
:101430008370992721E030E002C0220F331F8A9584
:10144000E2F7C695C69580E2C89FE0011124EBCF74
:10145000CE018370992721E030E002C0220F331FB4
:101460008A95E2F7C695C69590E2C99FE0011124DE
:10147000C22BD32BDA68D2CED82FCC27C46FD06A38
:10148000CDCED82FCC27C06FD06AC8CEC0E0D1ED6A
:10149000C5CEC0E0D4EDC2CEC0E0D5EDBFCEC0E039
:1014A000D3EDBCCEC0E0D0EDB9CEC1E8D0E4B6CE2D
:1014B000C3E8D0E4B3CEC2EED4E4B0CEC9EED4E4F7
:1014C000ADCECAEED4E4AACEC5EBD4E4A7CEC6EB2B
:1014D000D4E4A4CEC3EBD4E4A1CEC4EBD4E49ECE3A
:1014E000C7EBD4E49BCECCECD4E498CECDECD4E4E2
:1014F00095CEC3E8D5E492CECAE8D5E48FCEC2E952
:10150000D5E48CCEC4E9D5E489CEC1E2D6E486CE5A
:10151000C3E2D6E483CEC4E2D6E480CEC5E2D6E40C
:101520007DCEC6E2D6E47ACEC7E2D6E477CECAE272
:10153000D6E474CE8238910549F1B0F48133910537
:1015400009F462C048F48932910509F456C08A3220
:10155000910509F460C008958533910509F446C0EA
:101560008933910599F00895833E910531F138F45E
:10157000803E910591F0823E9105B1F00895863E3E
:10158000910521F1873E910551F108952091D402F2
:101590002370D9F080EE90E008952091D40220FFCE
:1015A00014C089E390E008952091D40222FF0DC079
:1015B00024FD09C083EE90E008952091D40222FD1D
:1015C00031C024FF02C090E080E008952091D40251
:1015D00023FFFBCF24FDF7CF87EE90E00895209105
:1015E000D40223FFEECF86EE90E008952091D4023E
:1015F00025FFEBCF89E290E008952091D40225FFEA
:10160000E4CF85E390E008952091D40226FFDDCF5A
:101610008AE290E008952091D40226FFD6CF81E39C
:1016200090E0089582EE90E008959091D40292FFA8
:1016300006C0282F2871283069F4877F846093FFC3
:1016400006C0282F2871283161F4877E846194FDBB
:10165000877E0895282F2471243089F78B7F886036
:10166000EECF282F2471243191F78B7E8861EFCF44
:1016700008950F931F93CF938C01FB0182818111F9
:1016800006C0C1E08C2FCF911F910F910895C0919A
:10169000A101C11125C006311C4599F70E94380BE4
:1016A00081E08093A1010E9419209093A001809372
:1016B0009F01109294011092960110929501109240
:1016C00098011092970110929A011092990110922C
:1016D0009C0110929B0110929E0110929D01D2CF0D
:1016E00080919F019091A0010E9425208C32914011
:1016F00040F680919401E82FF0E0EE0FFF1FEB56CB
:10170000FE4F118300838F5F80939401C0E0BACFB6
:101710000C9493030C94D204CF93DF9385B7806825
:1017200085BF85B7806885BFACE2B1E041E351E099
:10173000C1E0D0E08D91E82FE295EF70F0E061A17B
:101740008F709E0101C0220F8A95EAF7922F909523
:10175000962391A382A1822B82A34A175B0751F79C
:10176000ADE1B1E061E070E08D91E82FE295EF70BE
:10177000F0E041A18F709B0101C0220F8A95EAF72A
:10178000922F9095942391A382A1822B82A381E032
:10179000AC32B80749F71092AD011092AC0110922B
:1017A000A3011092A2011092AF011092AE0110920B
:1017B000A5011092A4011092B1011092B0011092F3
:1017C000A7011092A6011092B3011092B2011092DB
:1017D000A9011092A8011092B5011092B4011092C3
:1017E000AB011092AA01DF91CF910C94A0084F9207
:1017F0005F927F928F929F92AF92BF92CF92DF9231
:10180000EF92FF920F931F93CF93DF9392EA492EAB
:1018100091E0592E2CE2E22E21E0F22E01E010E0C0
:1018200099249394E201A990B9902E01DE011E92B1
:101830001E92F70181917F01E82FE295EF70F0E0B1
:1018400091A18F70980101C0220F8A95EAF7892F24
:10185000822B81A382A1822E8094882182A380EA98
:101860008A95F1F78DE1C82E81E0D82E90E080E0D6
:10187000E60179916E01472F42954F7050E0EA01E1
:1018800078A04D915C9111977F70E80102C0CC0F58
:10189000DD1F7A95E2F7BE01672109F072C0B80139
:1018A000082E02C0660F771F0A94E2F7462B572BCB
:1018B00011965C934E9301968F309105C9F681A1E4
:1018C000882281A282A1282B22A38D919C91A81607
:1018D000B90641F09092B6010E9419209093B80188
:1018E0008093B701DCEA4D16D1E05D0609F09ACF8E
:1018F0008091B601882391F18091B7019091B80150
:101900000E942520069750F18091A2019091A30199
:101910009093AD018093AC018091A4019091A501B9
:101920009093AF018093AE018091A6019091A701A1
:101930009093B1018093B0018091A8019091A90189
:101940009093B3018093B2018091AA019091AB0171
:101950009093B5018093B4011092B6010E942905BD
:1019600081E0DF91CF911F910F91FF90EF90DF9079
:10197000CF90BF90AF909F908F907F905F904F904F
:10198000089570E060E092CFE82FF0E0EE0FFF1FC7
:10199000E455FE4F8081918108950895CF92DF92A2
:1019A000EF92FF920F931F93CF93DF93E90166238A
:1019B00009F466C0E42EF12CEFEFF0E0E61BF1092C
:1019C000EE9D8001EF9D100DFE9D100D1124212F25
:1019D000E12FFF27EE1AFF0A5CE3C52ED12CB601DA
:1019E0000E940E2FFB01BC01E69EC001E79E900DF8
:1019F000F69E900D1124B6010E940E2FE230F105E3
:101A000089F168F4812F262F210F309781F0242F40
:101A1000461B319761F080E020E040E008C0E430F0
:101A2000F10551F128F1842F861B3597A1F7E42F9A
:101A3000F0E0EA51FC4F4491E22FF0E0EA51FC4F14
:101A40009491E82FF0E0EA51FC4FE49149839883A8
:101A5000EA83DF91CF911F910F91FF90EF90DF907C
:101A6000CF900895862F810FE42F412F2E2FDFCFA7
:101A7000E42FE61B842FF9CF842F462F410FD7CFB9
:101A8000842F242FD4CF88E090E00C94DC2FAB017E
:101A9000BC0188E090E00C94FA2FEBEAF2E083E0DE
:101AA000808311828FEF82838383148260817181AE
:101AB000828193810C94470D6091AB0260FF06C058
:101AC00066956F7370E090E080E0089560E070E0EC
:101AD000CB0108958091AF0290E00196843091058A
:101AE00014F083E090E08093AF026091AB027091BC
:101AF000AC028091AD029091AE020C94470D8091A2
:101B0000AF028150990B97FF02C090E080E08430D3
:101B1000910514F083E090E08093AF026091AB02F6
:101B20007091AC028091AD029091AE020C94470D81
:101B30008091AB02E0EBF2E080FF06C06AE070E06B
:101B400080EB92E00C942313118210821282339660
:101B500082E0EE3CF807C1F7F1CF9091AB0290FF25
:101B60000CC0E0EBF2E0818360834283339692E025
:101B7000EE3CF907C1F70C94980D0895CF93DF93CD
:101B800000D00F92CDB7DEB72091AB0220FF0AC084
:101B90009E012F5F3F4F0E94CE0C4B8169818A814D
:101BA0000E94AD0D0F900F900F90DF91CF9108958F
:101BB0003F924F925F926F927F928F929F92AF92DD
:101BC000BF92CF92DF92EF92FF920F931F93CF932A
:101BD000DF9300D00F92CDB7DEB78C01462E542E86
:101BE000322E8091AB0280FF30C0982F9E779230CA
:101BF00009F040C09E012F5F3F4FC8010E94CE0CEC
:101C00004B8169818A810E94AD0D8091AB0200FBFE
:101C100087F98093AB02902F96958091AC028078E3
:101C2000892B10FB87F98093AC024092AD02509251
:101C3000AE02332051F06091AB027091AC02809102
:101C4000AD029091AE020E94470D0F900F900F9041
:101C5000DF91CF911F910F91FF90EF90DF90CF9088
:101C6000BF90AF909F908F907F906F905F904F90BC
:101C70003F900895E82FE695EF739EE39E0F9F73C4
:101C8000943018F45090AE02C0CF9AE39E0F9F7329
:101C9000993068F4881F8827881F9091AC02292FFB
:101CA000220F022F082B97FB112710F9AECF87E2E6
:101CB0008E0F8F738A3008F0A8CFE951FF0B21E017
:101CC000E0FD2FEFEE7FE453FC4F859194916AE0A5
:101CD00070E00E940E2F26033001279F700C112404
:101CE000680188E9C81A8EEFD80A80EBE82E82E0F6
:101CF000F82E9EECA92E92E0B92E28E6822E992489
:101D00009394C601B4010E940E2F9701452D642DB6
:101D10000E94CE0CC60CD71C83E0E80EF11CAE145A
:101D2000BF0479F70E94980D70CF21E00C94D80D74
:101D3000EBEAF2E02081221F2227221F3091AC0221
:101D4000432F440F842F822B37FB992790F9089655
:101D500068E671E00E94222F438162810C94950E07
:101D60002091AB02221F2227221F3091AC02432F69
:101D7000440F842F822B37FB992790F988309105E7
:101D800040F4805A9E4F4091AE026091AD020C9497
:101D9000950E089768E671E00E94222FF4CF6091BB
:101DA000AD02683F90F4685F8091AB02881F88277E
:101DB000881F9091AC02292F220F97FB992790F949
:101DC0004091AE02822B0C94950E6FEFEDCF609197
:101DD000AD02683090F068508091AB02881F882770
:101DE000881F9091AC02292F220F97FB992790F919
:101DF0004091AE02822B0C94950E60E0EDCF4091A5
:101E0000AE02483F90F4485F8091AB02881F88275C
:101E1000881F9091AC02292F220F97FB992790F9E8
:101E20006091AD02822B0C94950E4FEFEDCF409157
:101E3000AE02483090F048508091AB02881F88274E
:101E4000881F9091AC02292F220F97FB992790F9B8
:101E50006091AD02822B0C94950E40E0EDCF20E016
:101E60000C94D80D9091AB0290FF46C091788111EF
:101E700028C092609093AB02662351F06091AB0250
:101E80007091AC028091AD029091AE020E94470D1C
:101E90008091AB02382F3E773230D9F41092D201C4
:101EA000881F8827881F9091AC02292F220F97FB4B
:101EB000992790F94091AE026091AD02822B0C946B
:101EC0002F0F843210F09664D5CF8F73880F982B24
:101ED000D1CF982F96959F732EE3290F2F7327311B
:101EE00010F0363421F491E09093D201D9CF995D6E
:101EF0009F739A30A8F6D2CF089561E00C94320F08
:101F00008091AB0286958F738F5F843208F081E0F9
:101F10000C947D0F8091AB0286958F73815009F4EC
:101F200083E20C947D0FEBEAF2E080818160808394
:101F300086958F730C947D0F60E00C94320F809126
:101F40007D02816080937D0281E08093D3010E94B5
:101F5000DE1E811104C00E94B81E0E944D0D0E9419
:101F6000430D6093AB027093AC028093AD029093EB
:101F7000AE026E7761F40E944D0D0E94430D609396
:101F8000AB027093AC028093AD029093AE0281E0FD
:101F90008093D2018091AB0280FF04C086958F733D
:101FA0000C949C0F0895EBEAF2E0808181608083BD
:101FB00086958F730C949C0F9091AB0290FF0FC08D
:101FC0002A3068F430E0F901EE0FFF1FE20FF31F33
:101FD000E055FD4F8183608342830C94980D0895F2
:101FE0001F93CF93DF9300D00F92CDB7DEB7122FA0
:101FF0002091AB0220FF0BC09E012F5F3F4F0E943C
:10200000CE0C212F4B8169818A810E94DC0F0F90B9
:102010000F900F90DF91CF911F910895EBEAF2E0BE
:1020200080818E7F808360817181828193810E9413
:10203000470D1092D2012FEF80E792E021508040AF
:102040009040E1F700C000000C94980D8091AB0225
:1020500080FD0C940E100C94930FEBEAF2E080815B
:102060008E7F80831092D2012FEF80E792E0215083
:1020700080409040E1F700C000000C94980D81E092
:102080008093D20108951092D2010895CF93C82F62
:102090008091D0019091D1010E942520EC2FF0E099
:1020A000EE51FC4FE491E817190611F008F042C018
:1020B0000E9419209093D1018093D0016091CF01AB
:1020C00070E090E080E00E94FF2C20E030E04FE7DD
:1020D00053E40E94222C2BED3FE049E450E40E949F
:1020E000282E0E94952E0E949C2C2BE43AE34EE26F
:1020F0005FE30E94B52B20EF3BEF48ED52E40E94D6
:10210000282E0E94CE2C462F8091AB02881F882754
:10211000881F9091AC02292F220F97FB992790F9E5
:102120006091AD02822B0E94BE0D8091CF018F5F26
:102130008093CF01CF910895CF93C82F8091CD0187
:102140009091CE010E942520EC2FF0E0E152FC4F4F
:10215000E491E817190609F0E8F40E941920909319
:10216000CE018093CD014091AE026091AD0280918D
:10217000CB019091CC010E94BE0D8091CB0190913A
:10218000CC01019668E671E00E940E2F9093CC017D
:102190008093CB01CF910895CF92DF92FF920F935E
:1021A0001F93CF93DF93F82E8091C9019091CA01BC
:1021B0000E942520EF2DE695F0E0E452FC4FE491DB
:1021C000E817190609F0A8F50E9419209093CA0192
:1021D0008093C90100EB12E0D0E0C0E088E6C82E91
:1021E000DD24D3948091C7019091C8018C0F9D1F6D
:1021F000B6010E940E2F98014091AE026091AD028F
:102200000E94CE0CA4960D5F1F4FC83681E0D80700
:1022100049F70E94980D8091C7019091C801F0FE86
:1022200010C00196BE010E940E2F9093C8018093AA
:10223000C701DF91CF911F910F91FF90DF90CF9059
:1022400008950197F2CFCF92DF92EF92FF920F9312
:102250001F93CF93DF93C82FFF24FA9480FD02C011
:10226000FF24F3948091C5019091C6010E9425201E
:10227000C695EC2FF0E0E752FC4FE491E817190601
:1022800011F008F051C00E9419209093C60180936C
:10229000C50100EB12E0D0E0C0E0F801118210822D
:1022A000128294E0C92ED12CE12C8091C4018E0DB4
:1022B00087FD865F082E000C990B8C179D07E9F4AB
:1022C0008091AE028C9DA0018D9D500D11245595DD
:1022D0004795559547958091AB02881F8827881FA1
:1022E0009091AC02592F550F97FB992790F99801BF
:1022F0006091AD02852B0E94CE0CEF0CF1E0CF1A5D
:10230000D10899F621960D5F1F4FCA30D10529F6E5
:102310000E94980D8091C40191E0F91210C08111C2
:102320000CC089E08093C401DF91CF911F910F9180
:10233000FF90EF90DF90CF9008958150F3CF90E021
:102340000196BE010E94222FEDCF0F931F93CF93D2
:10235000DF93C82F8091C2019091C3010E94252074
:10236000EC2FF0E0EA52FC4FE491E817190611F067
:1023700008F052C00E9419209093C3018093C201BB
:10238000C0EBD2E0FE01118210821282339682E00D
:10239000EE3CF807C1F710E000E08091C101082E83
:1023A000000C990B08171907E4F180910901082E18
:1023B000000C990B80179107A4F18091AB02881F44
:1023C0008827881F9091AC02592F550F97FB9927AA
:1023D00090F99E014091AE026091AD02852B0E9462
:1023E000CE0C0F5F1F4F23960A301105B1F60E94E5
:1023F000980D809108019091C101980F9093C101AF
:1024000020910901280F20930901121614F4993024
:102410001CF0819580930801DF91CF911F910F915E
:102420000895198218821A82DCCFEF92FF920F93DF
:102430001F93CF93DF938091BF019091C0010E94C1
:102440002520883E9340C8F10E9419209093C00136
:102450008093BF01C091BD01D091BE012196C17092
:10246000DD27D093BE01C093BD0180EBE82E82E052
:10247000F82E10E008E7812F86958C0F9D2F911D77
:102480008170992797014091AE026091AD02FC01E5
:102490000E9FC0010F9F900D11240E94CE0C1F5F54
:1024A000F3E0EF0EF11C1A3031F7DF91CF911F915D
:1024B0000F91FF90EF900C94980DDF91CF911F91A9
:1024C0000F91FF90EF900895CF93DF9300D00F927C
:1024D000CDB7DEB78091BB019091BC010E94252051
:1024E000EAECF3E02591349182179307C0F18091D3
:1024F000BA0181110CC09E012F5F3F4F4FEF6FEF6C
:1025000090E080E00E94CE0C8A818093BA010E9404
:1025100019209093BC018093BB018091B901813057
:1025200071F0882339F040E0823011F44091BA0113
:1025300080E003C08091BA0140E060E004C0609197
:10254000BA0140E080E00E94AD0D8091B90190E0B9
:10255000019663E070E00E94222F8093B9010F90F2
:102560000F900F90DF91CF9108958091D201882331
:10257000B1F19091AB02892F86958F732EE3280FCE
:102580002F73243018F482500C9446102AE3280F3D
:102590002F73233018F486500C949C1027E3280FD7
:1025A0002F73263018F489500C94CC1021E3280F97
:1025B0002F73263018F48F500C9423112BE2280F20
:1025C0002F73233018F485510C94A5119E77903306
:1025D00011F40C941512963411F40C9464120895AD
:1025E00031B3242F2095232331B3432B3FB7F894E5
:1025F000680F791F8617970711F43FBF0895FC01F4
:102600005191CF01E8E041BB000000C057FF21BB62
:10261000550F000000C000C000C021BB00C0EA95FB
:1026200091F7E8CF20B3242B20BB9B01220F331F4F
:10263000620F731F0E94F01287EC90E00197F1F790
:1026400000C00000089540E40C9412139093D90147
:102650008093D8010895E091D801F091D901309785
:1026600021F00190F081E02D099480E00895E0913F
:10267000D801F091D901309721F00280F381E02D4B
:1026800009940895E091D801F091D901309721F093
:102690000480F581E02D099408952091D6013091B0
:1026A000D7012817390771F09093D7018093D6018D
:1026B000E091D801F091D901309721F00680F7819F
:1026C000E02D099408952091D4013091D501281767
:1026D000390771F09093D5018093D401E091D8012E
:1026E000F091D901309721F00084F185E02D099413
:1026F000089508950C94791381E008950E941020A4
:102700000E948C0B0E94E2200E94F6230C949F0FE3
:102710005F926F927F928F929F92AF92BF92CF9271
:10272000DF92EF92FF920F931F93CF93DF93CDB77A
:10273000DEB72A970FB6F894DEBF0FBECDBF0E945A
:10274000F70B0E947C13882309F47AC09BEDA92E15
:1027500091E0B92E10E000E088248394912C502E53
:10276000802F0E94C40C7C01F501C190D1905F01C3
:10277000C816D90609F45EC080917D0281FD0E94D1
:10278000CD0C90E080E0CE24DF243401082E02C07E
:10279000660C771C0A94E2F7960126213721232B39
:1027A00009F443C08E835F82E620F72081E0EF28A2
:1027B00009F480E088870E9419208160782F9A8729
:1027C00089874E815F8168858A850E944714000F42
:1027D000111FF801E552FE4F80819181682679260C
:1027E000718260820E9460230E942B139091DA0113
:1027F0008917B9F10E942B138093DA012A960FB63C
:10280000F894DEBF0FBECDBFDF91CF911F910F9126
:10281000FF90EF90DF90CF90BF90AF909F908F9000
:102820007F906F905F900C94A70801968F30910570
:1028300009F0ABCF0F5F1F4F0530110509F08FCFA7
:102840008FEF89838A831B820E9419208160782FF1
:102850009D838C8349815A816B818D810E944714AD
:10286000C1CF2A960FB6F894DEBF0FBECDBFDF9161
:10287000CF911F910F91FF90EF90DF90CF90BF907D
:10288000AF909F908F907F906F905F900895CF93BF
:10289000DF93CDB7DEB72B970FB6F894DEBF0FBE30
:1028A000CDBF4F83588769877A878B871E821D82A9
:1028B00085E0FE013796DE01119601900D928A9512
:1028C000E1F749815A816B817C818D819E812B96B4
:1028D0000FB6F894DEBF0FBECDBFDF91CF910C9441
:1028E000231BFC01808191810C94D71D882309F45E
:1028F000F3C08238B9F40E942B1381FDEDC089E347
:102900000E94051E0E94491E2FEF81EE94E0215087
:1029100080409040E1F700C0000089E30E940C1E57
:102920000C94491E8338A1F40E942B1380FDD4C05F
:1029300083E50E94051E0E94491E2FEF81EE94E060
:10294000215080409040E1F700C0000083E5E6CFD1
:102950008438A1F40E942B1382FDBEC087E40E943C
:10296000051E0E94491E2FEF81EE94E02150804009
:102970009040E1F700C0000087E4D0CF9CEF980FB3
:10298000913A18F40E94051ECBCF90E2980F983030
:1029900050F4877091E001C0990F8A95EAF7892F6A
:1029A0000E947F1EBDCF9BE5980F933070F4853A4F
:1029B00031F0863A39F083E890E00C944D1381E8C9
:1029C00090E0FBCF82E890E0F8CF98E5980F953142
:1029D00008F082C0883A09F440C0893A09F440C03E
:1029E0008A3A09F440C08B3A09F440C08C3A09F4A1
:1029F00040C08B3B09F440C08C3B09F440C08D3A89
:102A000009F440C0803B09F440C08E3A09F440C04C
:102A10008F3A09F440C0813B09F440C0823B09F47D
:102A200040C0833B09F440C0843B09F440C0853B6F
:102A300009F440C0863B09F440C0873B09F440C01C
:102A4000883B09F440C0893B09F440C08A3B09F443
:102A500040C090E080E00C94631382EE90E0FBCFE6
:102A600089EE90E0F8CF8AEE90E0F5CF85EB90E02C
:102A7000F2CF86EB90E0EFCF83EB90E0ECCF84EBEE
:102A800090E0E9CF87EB90E0E6CF8CEC90E0E3CFED
:102A90008DEC90E0E0CF83E891E0DDCF8AE891E033
:102AA000DACF82E991E0D7CF84E991E0D4CF81E217
:102AB00092E0D1CF83E292E0CECF84E292E0CBCF1E
:102AC00085E292E0C8CF86E292E0C5CF87E292E04D
:102AD000C2CF8AE292E0BFCF0895882309F44BC0A9
:102AE000823871F40E942B1381FF45C089E30E9454
:102AF000051E0E94491E89E30E940C1E0C94491E6B
:102B0000833859F40E942B1380FF35C083E50E945F
:102B1000051E0E94491E83E5EFCF843859F40E94B8
:102B20002B1382FF28C087E40E94051E0E94491EC5
:102B300087E4E2CF9CEF980F913AF0F290E2980F81
:102B4000983050F4877091E001C0990F8A95EAF7A8
:102B5000892F0E94851ED2CF9BE5980F933020F4D9
:102B600090E080E00C944D13885A853120F490E079
:102B700080E00C9463130895882321F00E947F1E47
:102B80000C94491E0895882321F00E94851E0C9400
:102B9000491E08958F929F92AF92BF92CF92DF927B
:102BA000EF92FF920F931F93CF93DF937C01D62F69
:102BB000C72FFC01058102950F70128111110E942F
:102BC0009C1E0E94421EC82E882371F01123B1F072
:102BD00080E28D0F883090F082E00E942C1E0E94CF
:102BE000421E91E0C82EC926DC2ED2949FE0D92245
:102BF000ED2DF0E0E95AFF4C0C94582FC12CF4CF86
:102C00000C2F0F70C07F11F00295007F1123A9F0E7
:102C1000002359F080E28D0F883010F0D11109C0E7
:102C2000802F0E947F1E0E94491E8D2F0E947614C5
:102C300014C0802F0E948F1EF6CF8D2F0E946D151D
:102C4000002359F080E28D0F883010F0D11133C08D
:102C5000802F0E94851E0E94491E98E0D91639F0E7
:102C6000D91648F086EF8D0D8F70823020F40E94C7
:102C70002B130E94A708CC2009F4FCC10E941F1E40
:102C800080FDF8C1F70112820E94191E0E94A51C46
:102C9000C7010E9447180E94191EDF91CF911F9112
:102CA0000F91FF90EF90DF90CF90BF90AF909F90EB
:102CB0008F900C94C61C802F0E94951ECCCFFC2FA9
:102CC000FF70BF2EC07FC03219F0B29480EFB822DF
:102CD000DD2369F0D13049F1112391F1002351F145
:102CE000F701858180FFA1CF8F70858323C01123D9
:102CF00081F0011106C00E94B51E8B290E94BC15EF
:102D0000ACCF0130C1F70E94B51E8B290E94AF1EC7
:102D1000A4CF011106C00E94B21E8B2D0E94C315C4
:102D20009CCF013009F499CFF6CF112329F006305A
:102D300008F093CF8B2DE2CF053008F08ECFEDCF8A
:102D4000002359F38D2F0E946D1587CF8C2F869508
:102D50008695837069F0813009F07FCF8D2F9C2F8D
:102D60009370111102C090E080E00E94631375CF50
:102D70008D2F9C2F9370111102C090E080E00E9473
:102D80004D136BCF112309F1D53F99F0D63FB9F020
:102D9000D43F49F48091CE029091CF02816090930C
:102DA000CF028093CE028D2F0E946E220E94552367
:102DB00054CF8091CE029091CF028260F0CF80916B
:102DC000CE029091CF028460EACFD53F89F0D63F02
:102DD000A9F0D43F49F48091CE029091CF028E7F2A
:102DE0009093CF028093CE028D2F0E94D622DECF09
:102DF0008091CE029091CF028D7FF2CF8091CE0252
:102E00009091CF028B7FECCF8C2F837009F047C05D
:102E1000111123CF2D2F229526952770220F220FD7
:102E20006D2F6F70862E912CB12CA12C022E04C018
:102E3000880C991CAA1CBB1C0A94D2F760E070E0B5
:102E4000CB01D4FF0FC06FE070E080E090E004C0E1
:102E5000660F771F881F991F2A95D2F76095709586
:102E600080959095C695C695C370C23051F080F498
:102E7000682979298A299B29C13071F00E94571C41
:102E8000ECCE682979298A299B290E94691CE5CE04
:102E90000E94571CC501B4010E94451CDECE8695D8
:102EA000112311F08C2F8170882309F4D6CE2D2F99
:102EB000229526952770220F220F6D2F6F70862E78
:102EC000912CB12CA12C022E04C0880C991CAA1C98
:102ED000BB1C0A94D2F760E070E0CB01D4FF0FC0B6
:102EE0006FE070E080E090E004C0660F771F881FFD
:102EF000991F2A95D2F76095709580959095C69503
:102F0000C695C370C23051F080F4682979298A29A6
:102F10009B29C13071F00E941C1D9FCE6829792920
:102F20008A299B290E942E1D98CE0E941C1DC50136
:102F3000B4010E940A1D91CEE0E2ED0FE53108F0E8
:102F40004DC0F0E0E959FF4C0C94582FDF708C2FE6
:102F50008F71112321F00E94A51C8D2FCFCE0E94CE
:102F6000C61C8D2FDBCE112341F0053008F075CE45
:102F70008C2F8F710E94E91C70CE063008F06DCE48
:102F8000F7CF8C2F8F71112339F00E94A51C65CECD
:102F90008C2F8F711123C9F30E94C61C5ECE1123A2
:102FA00029F08C2F8F710E94901C57CE0E948B1C91
:102FB00054CE112349F0CF718C2F0E94A51C63E0E1
:102FC0008C2F0E94231E49CE81E00E942C1E0230CD
:102FD00008F443CE82E00E942C1E3FCE112329F03C
:102FE000011123CE8C2F8F71D0CF002369F0D933FC
:102FF00009F0A8CEFFEF27EE83E0F150204080409B
:10300000E1F700C000009ECE8C2F8F71C5CF4C2FF2
:103010004F706D2FC7010E94A9080E94BD1B1DCED5
:1030200011111BCECF70C230B1F040F4CC2381F02F
:10303000C13009F012CE0E9427240FCEC43089F08F
:1030400068F080E0C53009F008CE0E947D2405CEEE
:103050000E940F2402CE0E944024FFCD0E945A24D9
:10306000FCCD85E0F2CF4C2F4F706D2FC7010E9431
:10307000AC08F3CDDF91CF911F910F91FF90EF90AE
:10308000DF90CF90BF90AF909F908F9008950F9357
:103090001F93CF93DF93EC018B819C81892B29F0C7
:1030A0008881998189238F3F29F4DF91CF911F91E6
:1030B0000F910895CE010E946D058823B1F36881B8
:1030C00079818A810E94E11D8C010E94401D0E942D
:1030D000421CB801CE01DF91CF911F910F910C944A
:1030E000CA150E949C1E0E94AC1E0E94131E0E94C4
:1030F000491E0E94EA230E94552390E080E00E942E
:103100004D1390E080E00C9463130E948C1E0C948D
:1031100071180E94D71DE92FE295EF70E250EE3052
:1031200070F4F0E0E458FF4C0C94582F803F19F0F5
:1031300020F4803E20F481E00895843FE1F380E0B4
:103140000895803EC0F3813FD1F7F5CF93FB8827E8
:1031500080F90895CF93DF9300D000D00F92CDB7C0
:10316000DEB70F900F900F900F900F90DF91CF91DF
:103170000895CF93DF9300D000D000D0CDB7DEB755
:1031800026960FB6F894DEBF0FBECDBFDF91CF916C
:1031900008951F93CF93DF93C091E60116E08091CD
:1031A000E7018C1304C0DF91CF911F910895D0E007
:1031B0001C9FF0011D9FF00D1124E851FE4F40812E
:1031C000518162817381848195810E94B918219611
:1031D000C770E5CF409118025091190260911A0210
:1031E00070911B0280911C0290911D020C94B918E1
:1031F0001F93CF93DF9380911D02807FC1F4809154
:103200001A028823A1F08091E601C091E701609144
:1032100018027091190240911B0250911C02D62F86
:10322000D723DA01A095B09516E0C81304C0DF914A
:10323000CF911F91089590E04115510511F0DF3FA6
:1032400031F401968770F1CF2A0F3B1F17C0189FEA
:10325000F001199FF00D1124E851FE4F2181271331
:10326000F0CF20812613EDCF22812111EACF2381D7
:1032700034812417350740F3241B350B283C3105D6
:1032800000F720911D022F70206120931D0226E07F
:10329000289FF001299FF00D1124E351FE4F8081FA
:1032A0008F708061808388E192E00E944718DF91EF
:1032B000CF911F910C94C918BF92CF92DF92EF92D9
:1032C000FF920F931F93CF93DF93CDB7DEB7619734
:1032D0000FB6F894DEBF0FBECDBF8C0185E0F801BC
:1032E000DE011D9601900D928A95E1F7D8014C916F
:1032F00011965C9111971296EC90129780911B0297
:1033000090911C02009709F47FC12091180230911E
:103310001902622F63236F3F09F476C11396CD9093
:10332000DC90B0901A02BB2009F411C1C816D9066E
:10333000D0F1F601E81BF90BCF01FF24F394883C90
:10334000910508F0F12C80911D02982F907FFF20AD
:1033500009F4B8C091117FC0FE2C351329C0241385
:1033600027C0E11025C08F70806180931D020E94EC
:10337000EA1888E192E00E94471880911D02D80166
:1033800015968C938F2D61960FB6F894DEBF0FBE05
:10339000CDBFDF91CF911F910F91FF90EF90DF9004
:1033A000CF90BF900895809590958C0D9D1DC5CFB1
:1033B000CD2829F0852F84238F3F09F041C180E07B
:1033C000B82FB170DB2E80FF3CC08091E6012091C8
:1033D000E70136E0821315C04D875E878D859E8597
:1033E0000E94D71D292F22952F702230F0F0243013
:1033F00018F59F70F1F0F8019581907FD1F4D12CF0
:103400001EC090E0389FF001399FF00D1124E85163
:10341000FE4F6181651306C06081641303C0628141
:10342000E6120FC001968770D5CF9F7011F08823E8
:1034300031F3805E883018F3C8010E944718FD2CD4
:10344000A1CFEE2009F49ECF80911D028160809370
:103450001D02F12C97CF351306C0241304C0D801E8
:10346000EE2009F49AC04D875E878D859E850E9467
:103470008918882319F1EE2009F180911D0280320C
:1034800070F0209118023091190238872F83198625
:10349000DB86CA868C87CE0107960E94471886E095
:1034A000F801A8E1B2E001900D928A95E1F70E943F
:1034B000F8180E94EA18FF24F39464CFC8010E9410
:1034C0004718F9CF911113C07C2DD98AC88A6E2D67
:1034D00089890E94AA1888E192E00E94471886E034
:1034E000E8E1F2E0DF011D928A95E9F763C0351348
:1034F00012C0241310C0E1100EC0F8018583C8016A
:103500000E944718E8E1F2E086E0DF011D928A950B
:10351000E9F7FB2C37CF4D875E878D859E850E940E
:103520008918882359F2EE2049F280911D028032D9
:1035300008F4B5CF20911802309119023A832983FB
:103540001B82DD82CC828E83CE010196A6CFC81667
:10355000D90698F1F601E81BF90BCF01F12C883C54
:10356000910508F049C0FE2CEE2009F4A7CF3513D1
:1035700032C0241330C080911D0280FD23C0982FDB
:10358000907F01F1D80115968C931597903F39F0F3
:10359000982F907F905F8F70892B15968C93C80120
:1035A0000E94471886E0F801A8E1B2E001900D9270
:1035B0008A95E1F70E94EA18E5CE809590958C0DEA
:1035C0009D1DCCCF86E0F801A8E1B2E001900D92FC
:1035D0008A95E1F7D7CE4D875E878D859E850E94BF
:1035E000891881115CCF80911D02816080931D023A
:1035F000C8010E944718C6CE7C2DD98AC88A6E2D74
:1036000089890E94AA186BCFEE2009F457CF4D8705
:103610005E878D859E850E948918F82E882309F47F
:103620004DCF86E0F801A8E1B2E001900D928A95B5
:10363000E1F788E192E00E9471140E94F818BACF75
:1036400081E08E25BDCE1F93CF93DF93CDB7DEB73C
:103650002C970FB6F894DEBF0FBECDBF4F835887AF
:1036600069877A878B879C87CE0107960E945C19B1
:10367000882369F08A859B85892B39F04F8158858D
:10368000842F85238F3F09F071C016E05FC086E06C
:10369000FE013796DE01119601900D928A95E1F7B1
:1036A0008A859B85892B89F388859F8189238F3F14
:1036B00061F32091E70130E0C901019687709927F5
:1036C0004091E6014817190671F40E94851810927E
:1036D000E7011092E60186E0E8E1F2E0DF011D92E9
:1036E0008A95E9F7D2CF96E0929FD001939FB00DD3
:1036F0001124A851BE4FFE01319601900D929A956A
:10370000E1F78093E7010E94C918BFCF819FC001F4
:10371000112488519E4F0E945C198823E9F0E091A2
:10372000E6011E9FF0011124E851FE4F40815181B6
:1037300062817381848195810E94B9188091E6012C
:1037400090E00196877099278093E6018091E601C9
:103750009091E7018913DACF2C960FB6F894DEBF6B
:103760000FBECDBFDF91CF911F91089569857A85F6
:103770008B859C850E94B91888CFEF92FF920F939A
:103780001F93CF93DF938C01892B81F0F12CEE24D2
:10379000E394E8012196F8018491843770F4843031
:1037A00008F05FC08130B1F08230A1F1DF91CF919C
:1037B0001F910F91FF90EF900895853709F44CC049
:1037C00008F43DC09CE7980F903780F78F770E94F0
:1037D0006D1549C00E5F1F4FFE01849190E2980F56
:1037E000983060F48770FE2D01C0FF0F8A95EAF7CC
:1037F0008F2F0E949F1E0E94491E02C00E947614B5
:103800008F2D815030F2EFE9FFE03197F1F700C0E2
:103810000000F7CF0E5F1F4FFE01849190E2980FDA
:10382000983050F48770FE2D01C0FF0F8A95EAF79B
:103830008F2F0E94A51EDFCF0E946D15E1CF0E5F76
:103840001F4FFE01C491C150D8F28FE99FE001974C
:10385000F1F700C00000F7CF0E5F1F4FFE01F4909C
:10386000CFCF0E9476148E01CBCF08950E94351CD5
:1038700060935402709355028093560290935702BE
:103880000C94711808950C94361C0F931F9300919B
:103890005402109155022091560230915702602B2C
:1038A000712B822B932B1F910F910C94361C0F932D
:1038B0001F930091540210915502209156023091AD
:1038C000570260237123822393231F910F910C943D
:1038D000361C0F931F9300915402109155022091B2
:1038E00056023091570260277127822793271F9134
:1038F0000F910C94361C0C94351C0C947B1C0E946C
:103900007D1C6093500270935102809352029093F9
:1039100053020C94711860E070E0CB010C947F1C92
:103920000F931F9341E050E060E070E08A019B013B
:1039300004C0000F111F221F331F8A95D2F7C9013F
:10394000B8011F910F910C947F1C0F931F9341E0BE
:1039500050E060E070E004C0440F551F661F771F01
:103960008A95D2F78091500290915102A091520213
:10397000B09153028A019B01082B192B2A2B3B2B58
:10398000C901B8011F910F910C947F1C0F931F93D5
:1039900041E050E060E070E004C0440F551F661F36
:1039A000771F8A95D2F7CB01BA0160957095809503
:1039B0009095009150021091510220915202309145
:1039C000530260237123822393231F910F910C9440
:1039D0007F1C0F931F9341E050E060E070E004C053
:1039E000440F551F661F771F8A95D2F780915002AA
:1039F00090915102A0915202B09153028A019B0111
:103A0000082719272A273B27C901B8011F910F91C1
:103A10000C947F1C0F931F93009150021091510240
:103A20002091520230915302602B712B822B932BE9
:103A30001F910F910C947F1C0F931F9300915002C4
:103A40001091510220915202309153026023712350
:103A5000822393231F910F910C947F1C0F931F932C
:103A60000091500210915102209152023091530264
:103A700060277127822793271F910F910C947F1C39
:103A800008952FE0929F800D1124982F977041E0A8
:103A900001C0440F9A95EAF786958695869595E03C
:103AA000899FF0011124E25EFD4F90E080E070E01C
:103AB0005191DF0111979B01082E02C03695279581
:103AC0000A94E2F7217021952527242325272C939A
:103AD00001968530910561F708952FE0929F800D42
:103AE0001124982F977086958695869525E0829F5C
:103AF000F0011124E25EFD4F50E040E080E02191B2
:103B000030E0092E02C0369527950A94E2F721701D
:103B10003327042E01C0220F0A94EAF7822B4F5F4D
:103B20005F4F4530510559F70895BF92CF92DF920C
:103B3000EF92FF920F931F93CF93DF938C01C0906E
:103B40005002D0905102E0905202F09053028091C6
:103B5000540290915502A0915602B0915702C82A82
:103B6000D92AEA2AFB2ACFE1D0E0BC2ED701C60130
:103B70000C2E04C0B695A795979587950A94D2F711
:103B800080FD0EC0219788F7B12C8B2DDF91CF914E
:103B90001F910F91FF90EF90DF90CF90BF9008950D
:103BA000B8018C2F0E94C908019761F3EECFCF9323
:103BB000DF93EC010E94951DBE01DF91CF910C9423
:103BC000C9081F93CF93DF93EB019091E5019923EF
:103BD00031F0CB01DF91CF911F910C94D71D882339
:103BE00079F0CB010E94951D182F682FCE010E94FD
:103BF000411DBE01812FDF91CF911F910C94C90807
:103C0000CB010E946D1D182FF4CF682F80910A01FF
:103C100090910B010C946A1F682F80910A0190917A
:103C20000B010C94751F80910A0190910B010C946B
:103C3000801F80915802859585958595089580917E
:103C400058028770089598E0899F90011124622B93
:103C5000609358020C94A51C90915802809589237A
:103C600080935802282F277061F4282F082E000C0B
:103C7000330B9217130629F08595859585950C943D
:103C8000C61C089590915802977081E009F480E075
:103C90000895E0910A01F0910B0180917C028083EC
:103CA000E0910A01F0910B01808190917B02892BB8
:103CB0008083E0910A01F0910B01808190917A025A
:103CC000892B808390915902992381F0E0910A0118
:103CD000F0910B018081892B808380910A01909162
:103CE0000B010E940D1F81111092590280910A014F
:103CF00090910B010C94371380917C020895909160
:103D00007C02892B80937C020895809590917C029F
:103D1000982390937C02089510927C0208959091CC
:103D20007B02892B80937B020895809590917B0282
:103D3000982390937B02089510927B0208959091AE
:103D40007A02892B80937A020895809590917A0265
:103D5000982390937A02089510927A02089580939E
:103D600059020895109259020895809159020895B8
:103D70006DEE7EEF90E080E00E94063060E082E031
:103D800090E00E94E82F60E083E090E00E94E82F3E
:103D900060E084E090E00E94E82F60E085E090E041
:103DA0000E94E82F60E086E090E00E94E82F40E06B
:103DB00050E0BA0188E090E00C94FA2F90E080E0A7
:103DC0000E94E22F21E08D3E9E4F09F020E0822FDD
:103DD000089582E090E00C94D42F682F82E090E068
:103DE0000C94E82F83E090E00C94D42F682F83E0AC
:103DF00090E00C94E82F84E090E00C94D42F682F8E
:103E000084E090E00C94E82F86E090E00C94D42FAE
:103E1000682F86E090E00C94E82FFC0131969C011D
:103E2000205E3F4F80E0919191118F5FE217F30781
:103E3000D1F708959C01FC0132969FEF80E04191FB
:103E4000461751F09F3F19F4411101C0982F8F5F21
:103E50008E31A9F79F3F09F40895290F311D97FD71
:103E60003A95F90162830895FC013296809621917A
:103E7000261303C0DF0111971C92E817F907B9F761
:103E80000895E62FE695E695E695EF3169F0E80F9F
:103E9000F92FF11D677021E030E001C0220F6A9513
:103EA000EAF78181822B81830895E62FE695E695D6
:103EB000E695EF3171F0E80FF92FF11D677021E001
:103EC00030E001C0220F6A95EAF72095818128230E
:103ED0002183089520911C01222329F02091D402EE
:103EE00027FD0C94411F0C941A1F20911C012223C2
:103EF00029F02091D40227FD0C94551F0C94341FF7
:103F0000FC01319680961192E817F907E1F70895C0
:103F1000089508950C94891F8091DB02843009F480
:103F200030C010927E0288E190E020E40FB6F89451
:103F3000A895809360000FBE2093600080E00E94EF
:103F40002B0580E00E94A7080E9443100E942D10BC
:103F50000E948A1F83B7817F846083BF83B781609B
:103F600083BF7894889583B78E7F83BF0FB6F8940C
:103F7000A895809160008861809360001092600035
:103F80000FBE08950895CF930E94881F0E94F70BDB
:103F90000E94C21FC0E08C2F0E94C40C892B31F4F8
:103FA000CF5FC530C1F780E0CF91089581E0FCCFAD
:103FB00008950C94D81F0E9485180E94F6230E9431
:103FC0002B130E94A7080E94D30F0E943F100C944D
:103FD000D91F1F921FB61F9211248F939F93AF93E7
:103FE000BF9380917E02811113C08091D002909185
:103FF000D102A091D202B091D3024196A11DB11D70
:104000008093D0029093D102A093D202B093D302B6
:10401000BF91AF919F918F911F901FBE1F901895D8
:1040200082E084BD93E095BD9AEF97BD80936E00CA
:1040300008952FB7F8948091D0029091D102A09169
:10404000D202B091D3022FBF0895CF92DF92EF92A8
:10405000FF920F931F932FB7F8944091D002509185
:10406000D1026091D2027091D3022FBF6A017B010D
:10407000EE24FF248C0130E020E0C016D106E206D9
:10408000F30650F0481B590BCA011F910F91FF9086
:10409000EF90DF90CF90089541505109F3CF78947D
:1040A0001F921FB61F9211248F939F93AF93BF93BC
:1040B0008091D0029091D102A091D202B091D3020E
:1040C0000196A11DB11D8093D0029093D102A093BF
:1040D000D202B093D302BF91AF919F918F911F9065
:1040E0001FBE1F90189581E08093E00080E28093CE
:1040F000D8001092C9008FE19EE40197F1F700C04B
:10410000000087E090EBDC018093E4029093E502ED
:10411000A093E602B093E70288E19CE00FB6F89422
:10412000A895809360000FBE90936000FFCFAF9280
:10413000BF92CF92DF92EF92FF920F931F93CF9394
:10414000C0E0CC24C394D12CE82EF12C8C2F0E94FB
:10415000C40C5C0110E000E0C601002E02C0880F14
:10416000991F0A94E2F78A219B21892B99F40F5F0A
:104170001F4F0F30110581F7CF5FC53039F780E051
:10418000CF911F910F91FF90EF90DF90CF90BF9054
:10419000AF900895602F7C2F80E00E94AD08E81654
:1041A000F90629F781E0ECCFCF93C82F8CE20E946B
:1041B0009720882321F08C2FCF910C94972080E0BA
:1041C000CF910895CF930E94DE1E811102C00E94FC
:1041D000B81EC5E608C00E94F70B8FE39CE9019763
:1041E000F1F700C00000C150B1F789E20E94D4206D
:1041F0008111EFC08AE20E94D42081110E94B81E72
:1042000085E00E94D42081110E9473200E94E91E43
:1042100080937D0287E00E94D420882371F08BE197
:104220000E94D420882309F4B1C090917D02892F87
:104230008D7F91FF826080937D0280917D020E943C
:10424000ED1E0E94FB1E90E09093D5028093D40255
:1042500080EE0E94D420882341F09091D402892FCF
:104260008E7F90FF81608093D40289E30E94D420E6
:10427000882341F09091D402892F8D7F91FF826035
:104280008093D40282EE0E94D420882341F0909142
:10429000D402892F8B7F92FF84608093D40286EEB4
:1042A0000E94D420882341F09091D402892F877FE7
:1042B00093FF88608093D40283EE0E94D4208823E9
:1042C00041F09091D402892F8F7E94FF806180937A
:1042D000D40285E30E94D420882341F09091D40237
:1042E000892F8F7D95FF80628093D40281E30E94A5
:1042F000D420882341F09091D402892F8F7B96FFA0
:1043000080648093D40281E10E94D420882341F00C
:104310009091D402892F97FB87F980588093D4021B
:104320008091D4020E94FF1E87E20E94D420C82FF1
:104330008EE10E94D4208111C2608FE10E94D420BE
:104340008111C46080E20E94D4208111C86081E2A2
:104350000E94D4208111C06182E20E94D420811188
:10436000C06283E20E94D4208111C06484E20E9472
:10437000D420882341F1C0688C2F0E94F61E6C2F38
:1043800070E090E080E0CF910C94431C8EE00E949E
:10439000D420882339F090917D02892F8B7F92FF62
:1043A000846049CF80E10E94D42090917D028823CF
:1043B00029F0892F877F93FF88603DCF892F8E7FDB
:1043C00090FF816038CFC111D7CF0E94F21E682FB5
:1043D000D7CFCF9108958091810280FF12C0609164
:1043E0000F0185E0689FB00111247595679575955B
:1043F000679560387105A8F561157105A1F1862FE3
:10440000089581FF09C060910F0185E0689FB001A8
:10441000112475956795EDCF60910F0182FD0AC05B
:10442000809182028823D1F090910E0160910F015A
:10443000891728F085E0689FB0011124DACF869FA4
:10444000B001112485E0869F9001879F300D1124D3
:10445000692F70E0C9010E94222FCBCF65E070E088
:10446000CECF8FE7089581E008958091810280FF8B
:104470000CC060910D0170E0759567957595679515
:104480006115710549F1862F089581FF06C060917D
:104490000D0170E075956795F3CF60910D0182FD78
:1044A0000BC0909182029923A1F060910C01809140
:1044B0000D01961738F0682F70E06038710500F331
:1044C0008FE70895899FC001112470E00E94222F78
:1044D000F4CF61E070E0D7CF81E00895803F31F400
:1044E0000E94EB218195809385020895813F19F404
:1044F0000E94EB21F8CF823F31F40E94EB2181959D
:10450000809384020895833F19F40E94EB21F8CF31
:10451000893F29F40E9435228093860208958A3FBC
:1045200021F40E9435228195F7CF8B3F31F40E9410
:10453000352281958093870208958C3F19F40E945B
:104540003522F8CF843F31F48091830281608093DB
:1045500083020895853F21F4809183028260F7CF22
:10456000863F21F4809183028460F1CF873F21F45C
:10457000809183028860EBCF883F21F48091830291
:104580008061E5CF8D3F31F480918102816080931D
:10459000810208958E3F21F4809181028260F7CFDD
:1045A0008F3FB9F7809181028460F1CF90918402AE
:1045B000803F41F48091850287FD10928502992306
:1045C00071F00895813F29F4809185021816ACF3AB
:1045D000F6CF823F81F497FFF2CF10928402809150
:1045E000850290918602892B90918702892B49F749
:1045F000109282020895833F19F4191674F3DFCFE5
:10460000893F39F4809186021816CCF61092860202
:10461000D6CF8A3F29F48091860287FFD0CFF6CF8C
:104620008B3F39F48091870287FFC9CF10928702B0
:10463000C6CF8C3F29F4809187021816BCF3BFCFF8
:10464000843F31F4809183028E7F80938302B7CFC1
:10465000853F21F4809183028D7FF7CF863F21F43F
:10466000809183028B7FF1CF873F21F48091830279
:10467000877FEBCF883F21F4809183028F7EE5CF47
:104680008D3F31F4809181028E7F8093810297CF9C
:104690008E3F21F4809181028D7FF7CF8F3F09F00B
:1046A0008ECF809181028B7FF0CF83E892E00E94D1
:1046B00042130E9419209093800280937F020895F4
:1046C0001F93CF93DF9380917F02909180020E948D
:1046D0002520AC01909182022091100130E09111CF
:1046E00006C0209111018AE0289F900111244217F1
:1046F000530778F020918402C0918502D091860200
:1047000010918702211109C08C2F8D2B812B09F06C
:104710005DC0DF91CF911F9108959F3F19F09F5F7A
:1047200090938202121624F40E94EB21809384025B
:104730008091840287FF05C00E94EB2181958093C0
:1047400084021C1624F40E94EB2180938502809140
:10475000850287FF05C00E94EB2181958093850229
:1047600040918402442379F030918502332359F03B
:1047700025EB4203A00111245093840232039001DF
:104780001124309385021D1624F40E943522809353
:1047900086028091860287FF05C00E94352281959E
:1047A00080938602111624F40E943522809387029A
:1047B0008091870287FF05C00E94352281958093F2
:1047C0008702DF91CF911F910C9455239F3F09F0F1
:1047D000A6CFB7CF85E0E3E8F2E0DF011D928A952E
:1047E000E9F7109282021092810208950E94DE1E63
:1047F000811102C00E94B81E0E94041F8093D6023D
:104800008C3020F081708A608093D6028091D6022D
:1048100080FF03C086950C942B0580E0FCCF80912F
:10482000D602982F9695953030F49F5F990F81703E
:10483000892B8093D6028091D60281608093D60224
:104840000E94081F8091D60286950C942B058091BA
:10485000D602982F9E7F79F082508093D6028E7F69
:1048600091E009F490E08091D60290FB80F980936A
:10487000D6020E94081F8091D60286950C942B05C3
:104880009091D602892F8E7F90FF81608093D6020F
:10489000813019F483E08093D6028091D6020E9481
:1048A000081F8091D60280FF03C086950C942B05CB
:1048B00080E0FCCF9091D602892F86958F5F8F770D
:1048C00091708630B8F4880F892B8093D60280913E
:1048D000D6028E7F91E009F490E08091D60290FBA1
:1048E00080F98093D6020E94081F8091D602869597
:1048F0000C942B059093D602EACF863008F085E021
:10490000982F990F8091D6028170892B8093D602BF
:104910008E7F91E009F490E08091D60290FB80F9BF
:104920008093D6020E94081F8091D60286950C942F
:104930002B058091D602869508958091A80208954E
:104940000F931F93CF93DF9300D00F92CDB7DEB7B5
:104950008C010E941127823011F0843019F583E018
:1049600089831B830A838093E9008FEF9091E8008D
:10497000815095FD06C095ED9A95F1F700008111E3
:10498000F5CF8091E80085FF0DC050E040E063E086
:1049900070E0CE0101960E942E278091E8008E776C
:1049A0008093E8000F900F900F90DF91CF911F91AF
:1049B0000F910895CF93DF9300D00F92CDB7DEB75C
:1049C0002091DB02243031F522E0298380589109BF
:1049D0009B838A8383E08093E9008FEF9091E800C6
:1049E000815095FD06C095ED9A95F1F70000811173
:1049F000F5CF8091E80085FF0DC050E040E063E016
:104A000070E0CE0101960E942E278091E8008E77FB
:104A10008093E8000F900F900F90DF91CF91089551
:104A2000CF93DF93EC010E941127823011F0843084
:104A3000F9F482E08093E9008FEF9091E8008150D3
:104A400095FD06C095ED9A95F1F700008111F5CF1F
:104A50008091E80085FF0CC050E040E065E070E028
:104A6000CE010E942E278091E8008E778093E80087
:104A7000DF91CF910895CF93DF93EC010E9411272E
:104A8000823011F08430F9F480911C018823F1F018
:104A90008091D40287FF1AC084E08093E9008FEFF1
:104AA0009091E800815095FD06C095E19A95F1F747
:104AB00000008111F5CF8091E80050E040E060E215
:104AC00070E085FD1AC0DF91CF91089581E0809359
:104AD000E9008FEF9091E800815095FD06C095EDBB
:104AE0009A95F1F700008111F5CF8091E80085FFDC
:104AF000EACF50E040E068E070E0CE010E942E274F
:104B00008091E8008E778093E80080E2FE01A8E8BB
:104B1000B2E001900D928A95E1F7D5CF8091DA024B
:104B2000811109C00E94BC280E9419298091E200CD
:104B300084608093E20008951092DA020895089547
:104B400008950C94DB1F42E061EC81E00E943A285A
:104B500042E061EC82E00E943A2842E061EC83E0AE
:104B60000E943A2842E261EC84E00C943A28809159
:104B7000DD02833009F455C030F4813071F18230A8
:104B800009F491C008958A3009F47DC08B3009F48E
:104B900063C0893009F044C08091DC02813209F0A1
:104BA0003FC08091E0029091E102009711F00397DD
:104BB000B9F58091E800877F8093E8008091E80054
:104BC00082FF2AC08091F1008093A8028091E800C2
:104BD0008B778093E8000C946E288091DC02813AF8
:104BE000F9F48091E800877F8093E8008091E002EB
:104BF0009091E102892B61F460E288E892E070E034
:104C00000E947D278091E8008B778093E8000895CB
:104C100060E090E080E0F3CF8091DB028111CECFA5
:104C200008958091DC02813AD9F78091E002909159
:104C3000E102892BA9F78091E800877F8093E80043
:104C40008091E80080FFFCCF80911C018093F100EF
:104C50008091E8008E77BDCF8091DC02813201F730
:104C60008091E0029091E102892BD1F68091E800D9
:104C7000877F8093E8000E946E288091DE028093F7
:104C80001C010C9485188091DC02813249F68091D8
:104C9000E800877F8093E8000E946E288091DF0201
:104CA0008093A90208958091DC02813A09F0B8CF7F
:104CB0008091E800877F8093E8008091E80080FF82
:104CC000FCCF8091A902C2CF84B7877F84BF0FB683
:104CD000F894A8958091600088618093600010929C
:104CE00060000FBE80E880936100109261000E9416
:104CF0007A130E94BC280E9419298091E2008460E6
:104D00008093E20078940E94992B0E947E1382E1A6
:104D100091E00E9426138091DB02853029F00E94E9
:104D200088130E94B512F7CF0E948C1F8091D90280
:104D3000882389F30E94C31F882369F30E941827E0
:104D4000EACF0C94A326292F33272330310521F1F4
:104D500068F42130310509F449C02230310509F4E5
:104D60004AC090E080E030E020E029C021323105E7
:104D700081F122323105A9F76430710590F7FB010A
:104D8000EE0FFF1FEB5CFE4F208131816F5C7E4F89
:104D9000FB01808190E013C099278130910599F043
:104DA000009741F08230910589F00397D1F6E6EE45
:104DB000F4E002C0E4E1F5E0849190E09F01FA01A3
:104DC000318320830895E2E0F5E0F6CFECEEF4E0E5
:104DD000F3CF6430710528F6660F771FFB01E35CA3
:104DE000FE4F2081318189E090E0E9CF82E190E0BF
:104DF00025E835E0E4CF8DE690E028E135E0DFCF2F
:104E00000895CF93C82F0E940027C093AA02CF9184
:104E100008958091DB02843011F482E0089581E0EE
:104E200008958091AA02811102C00C940927089567
:104E300080E189BD82E189BD09B400FEFDCF80918A
:104E4000D8008F7D8093D8008091E00082608093AD
:104E5000E0008091E00081FDFCCF0895AF92BF9209
:104E6000CF92DF92FF920F931F93CF93DF936C014A
:104E7000EB018A010E948D28F82E811123C00115B3
:104E8000110539F0F80180819181C81BD90BC80E3A
:104E9000D91EB12CA12C2097A9F08091E80085FDA6
:104EA00022C08091E8008E778093E80001151105FB
:104EB000A1F0F80180819181A80EB91EB182A08273
:104EC00085E0F82E8F2DDF91CF911F910F91FF90EC
:104ED000DF90CF90BF90AF9008950E948D288823D7
:104EE000D1F2F82EEFCFF60181916F018093F1009E
:104EF0002197FFEFAF1ABF0ACECFFC018091E202EB
:104F00009091E30286179707A0F06115710529F4C7
:104F10009091E8009E779093E80090E0611571050C
:104F200051F4911108C08091E80082FF34C080E004
:104F30000895BC01F2CF8091DB028823C1F1853056
:104F4000C1F18091E80083FD30C08091E80082FDCE
:104F5000EACF8091E80080FFE1CF8091F3002091BB
:104F6000F200382F6115710519F02830310558F01D
:104F700091E02830310509F090E02091E8002E778B
:104F80002093E800CBCF81918093F10061507109AB
:104F90002F5F3F4FE7CF8091DB02882341F08530C0
:104FA00041F08091E80083FFBECF81E0089582E068
:104FB000089583E00895FC018091E2029091E3025C
:104FC00086179707A0F06115710529F48091E80014
:104FD0008E778093E80090E06115710551F491118E
:104FE00008C08091E80082FF35C080E00895BC01D0
:104FF000F2CF8091DB028823C9F18530C9F180911D
:10500000E80083FD31C08091E80082FDEACF809105
:10501000E80080FFE1CF8091F3002091F200382F6B
:105020006115710519F02830310558F091E02830EC
:10503000310509F090E08091E8008E778093E800D8
:10504000CBCF84918093F1003196615071092F5F2D
:105050003F4FE6CF8091DB02882341F0853041F05D
:105060008091E80083FFBDCF81E0089582E008953C
:1050700083E00895982F973028F08F708093E9008F
:1050800081E008959093E900242F762F50E098173F
:1050900031F07091EC002091ED005091F00021FD75
:1050A00002C09F5FE8CF3091EB003E7F3093EB0072
:1050B0003091ED003D7F3093ED003091EB00316099
:1050C0003093EB007093EC002093ED005093F000D0
:1050D0002091EE0027FDE5CF80E008958091DC026D
:1050E00087FF13C08091E80082FF06C08091E8002E
:1050F0008B778093E80004C08091DB028111F2CFAE
:1051000008958091DB028823D9F38091E80080FF25
:10511000F8CF8091E8008E77ECCF2091E4003091B9
:10512000E50085E6A9019091EC0090FF06C0909102
:10513000E80090FF06C080E008959091E80092FD9D
:10514000FACF9091DB02992389F0953089F0909104
:10515000EB0095FD0FC02091E4003091E50042176F
:10516000530709F38150F1F684E0089582E0089531
:1051700083E0089581E008950E942A290E9432293F
:10518000E0EEF0E0808181608083E8EDF0E08081F6
:105190008F77808319BCA7EDB0E08C918E7F8C93C4
:1051A00080818F7E80831092DA0208950F931F937F
:1051B000CF93DF930E942A290E943229C8EDD0E0C4
:1051C00088818F77888388818068888388818F7DB4
:1051D000888319BC1092DB021092D7021092D90278
:1051E0001092D80200EE10E0F80180818B7F80835E
:1051F00088818160888342E060E080E00E943A28F4
:10520000E1EEF0E080818E7F8083E2EEF0E080814D
:1052100081608083808188608083F80180818E7FB7
:105220008083888180618883DF91CF911F910F9166
:105230000895E8EDF0E080818F7E8083E7EDF0E077
:1052400080818160808384E082BF81E08093DA0284
:105250000C94D628E8EDF0E080818E7F8083109258
:10526000E20008951092DA001092E10008951F9272
:105270000F920FB60F9211242F933F934F935F938A
:105280006F937F938F939F93AF93BF93EF93FF930E
:105290008091E10082FF0BC08091E20082FF07C095
:1052A0008091E1008B7F8093E1000E94982B809198
:1052B000DA0080FF19C08091D80080FF15C080916E
:1052C000DA008E7F8093DA008091D90080FF94C04D
:1052D00080E189BD82E189BD09B400FEFDCF81E096
:1052E0008093DB020E948E258091E10080FF19C02F
:1052F0008091E20080FF15C08091E2008E7F809354
:10530000E2008091E20080618093E2008091D80009
:1053100080628093D80019BC85E08093DB020E94F4
:10532000A0258091E10084FF29C08091E20084FFE4
:1053300025C080E189BD82E189BD09B400FEFDCFB1
:105340008091D8008F7D8093D8008091E1008F7E7E
:105350008093E1008091E2008F7E8093E200809153
:10536000E20081608093E2008091D702882309F4F3
:1053700049C084E08093DB020E94A1258091E10076
:1053800083FF29C08091E20083FF25C08091E10066
:10539000877F8093E10082E08093DB021092D70246
:1053A0008091E1008E7F8093E1008091E2008E7F0A
:1053B0008093E2008091E20080618093E20042E00D
:1053C00060E080E00E943A288091F000886080933D
:1053D000F0000E949F25FF91EF91BF91AF919F91A7
:1053E0008F917F916F915F914F913F912F910F908E
:1053F0000FBE0F901F90189519BC1092DB020E94EF
:105400009C2572CF8091E30087FD02C081E0B2CF7E
:1054100083E0B0CF1F920F920FB60F9211242F93FB
:105420003F934F935F936F937F938F939F93AF932C
:10543000BF93CF93EF93FF93C091E900CF7080911A
:10544000EC001092E9008091F000877F8093F000DB
:1054500078940E94462A1092E9008091F0008860BA
:105460008093F000C093E900FF91EF91CF91BF913D
:10547000AF919F918F917F916F915F914F913F91EC
:105480002F910F900FBE0F901F9018951F93CF93E1
:10549000DF93CDB7DEB7AA970FB6F894DEBF0FBE85
:1054A000CDBF8CED92E02091F100FC012193CF0162
:1054B000F2E0843E9F07B9F70E94B7258091E8008B
:1054C00083FF1EC18091DC029091DD029A3008F0CA
:1054D00017C1E92FF0E0E657FF4C0C94582F8038A5
:1054E00099F0823809F00CC18091E0028F7087300A
:1054F00008F006C18093E9008091EB0085FB8827C6
:1055000080F91092E90006C08091D8029091D902EA
:10551000911182609091E800977F9093E8008093CA
:10552000F1001092F1008091E8008E77E5C08823A9
:1055300009F4D3C0823009F0E3C08091DE0281110A
:10554000D6C08091E0028F702FEF280F263008F030
:10555000D7C08093E9002091EB0020FFC8C09330B2
:1055600031F48091EB0080628093EB00C0C0909199
:10557000EB0090619093EB0021E030E001C0220F3E
:105580008A95EAF72093EA001092EA008091EB00F6
:105590008860EACF8111B4C01091DE021F7780913C
:1055A000E3008078812B8093E3008091E800877F7F
:1055B0008093E8000E946E288091E80080FFFCCF75
:1055C0008091E30080688093E30082E0111183E022
:1055D0008093DB0295C08058823008F091C08091A2
:1055E000DE029091DF028C3D23E09207A1F583E07B
:1055F0008A838AE289834FB7F894DE01139620E00C
:105600003EE051E2E32FF0E050935700E49120FF99
:1056100003C0E295EF703F5FEF708E2F90E0EA30AD
:10562000C0F0C7968D939D932F5F243159F74FBFDC
:105630008091E800877F8093E8006AE270E0CE0105
:1056400001960E947D278091E8008B778093E80087
:1056500057C0C096E7CF6091E0027091E102AE01C1
:105660004F5F5F4F0E94A126BC01892B09F448C0FF
:105670009091E800977F9093E80089819A810E9439
:10568000DB27E1CF8038E1F58091E800877F8093C8
:10569000E8008091D7028093F10045CF811130C09E
:1056A0009091DE02923060F58091E800877F8093D0
:1056B000E8009093D7020E946E288091D702882339
:1056C00011F084E005C08091E30087FDFACF81E00E
:1056D0008093DB020E94A32513C08091DE028130FB
:1056E00079F481E0933009F080E08093D902109240
:1056F000E9008091E800877F8093E8000E946E288F
:105700008091E80083FF0AC08091E800877F809342
:10571000E8008091EB0080628093EB00AA960FB6C0
:10572000F894DEBF0FBECDBFDF91CF911F910895DA
:105730000895CF938091DB02882399F0C091E9000E
:10574000CF708091EC0080FD0EC080E0C82B1092DD
:10575000E9008091E80083FD0E94462ACF70C09343
:10576000E900CF91089580E8F1CF5058BB27AA27D0
:105770000E94CD2B0C94782D0E946A2D38F00E9447
:10578000712D20F039F49F3F19F426F40C94402D2C
:105790000EF4E095E7FB0C943A2DE92F0E94892D39
:1057A00058F3BA17620773078407950720F079F456
:1057B000A6F50C94AB2D0EF4E0950B2EBA2FA02D70
:1057C0000B01B90190010C01CA01A0011124FF27AE
:1057D000591B99F0593F50F4503E68F11A16F040A9
:1057E000A22F232F342F4427585FF3CF46953795A8
:1057F0002795A795F0405395C9F77EF41F16BA0B6D
:10580000620B730B840BBAF09150A1F0FF0FBB1F1A
:10581000661F771F881FC2F70EC0BA0F621F731F63
:10582000841F48F4879577956795B795F7959E3FC0
:1058300008F0B0CF9395880F08F09927EE0F979551
:10584000879508950E94362C0C94782D0E94712D16
:1058500058F00E946A2D40F029F45F3F29F00C9423
:105860003A2D51110C94AC2D0C94402D0E94892D91
:1058700068F39923B1F3552391F3951B550BBB277F
:10588000AA2762177307840738F09F5F5F4F220FC4
:10589000331F441FAA1FA9F335D00E2E3AF0E0E8BB
:1058A00032D091505040E695001CCAF72BD0FE2F05
:1058B00029D0660F771F881FBB1F26173707480799
:1058C000AB07B0E809F0BB0B802DBF01FF27935851
:1058D0005F4F3AF09E3F510578F00C943A2D0C94AE
:1058E000AC2D5F3FE4F3983ED4F3869577956795AA
:1058F000B795F7959F5FC9F7880F911D9695879586
:1059000097F90895E1E0660F771F881FBB1F6217A4
:1059100073078407BA0720F0621B730B840BBA0B62
:10592000EE1F88F7E095089529F416F00C943A2DAF
:105930000C94AB2D0C94402D0E94912DA8F3963819
:10594000A0F707F80F92E8942BE33AEA48EB5FE7F9
:105950000E943E2E0F920F920F924DB75EB70F929C
:105960000E94F42DECEAF0E00E94432D4F915F91EC
:10597000EF91FF91E595EE1FFF1F49F0FE57E0689C
:105980004427EE0F441FFA95E1F74195550B0E940D
:10599000BE2D0F9007FE0C94B22D08950E94912DFC
:1059A00088F09F5798F0B92F9927B751B0F0E1F0E0
:1059B000660F771F881F991F1AF0BA95C9F714C090
:1059C000B13091F00E94AB2DB1E008950C94AB2D55
:1059D000672F782F8827B85F39F0B93FCCF38695C9
:1059E00077956795B395D9F73EF490958095709526
:1059F00061957F4F8F4F9F4F0895E89409C097FBA3
:105A00003EF490958095709561957F4F8F4F9F4F95
:105A10009923A9F0F92F96E9BB279395F6958795D9
:105A200077956795B795F111F8CFFAF4BB0F11F49C
:105A300060FF1BC06F5F7F4F8F4F9F4F16C0882343
:105A400011F096E911C0772321F09EE8872F762F79
:105A500005C0662371F096E8862F70E060E02AF0BA
:105A60009A95660F771F881FDAF7880F96958795A6
:105A700097F9089597F99F6780E870E060E00895CE
:105A80009FEF80EC0895DF93CF931F930F93FF92C6
:105A9000EF92DF927B018C01689406C0DA2EEF0151
:105AA0000E943B2EFE01E894A591259135914591E8
:105AB0005591A6F3EF010E94CD2BFE019701A8019D
:105AC000DA9469F7DF90EF90FF900F911F91CF91DB
:105AD000DF91089500240A94161617061806090681
