:100000000C944A030C9491030C9491030C94910367
:100010000C9491030C9491030C9491030C94910310
:100020000C9491030C9491030C945A290C942D2A4E
:100030000C940C200C9491030C9491030C94910358
:100040000C9491030C9491030C9491030C949103E0
:100050000C9444080C9472200C9491030C9491031A
:100060000C9491030C9491030C9491030C949103C0
:100070000C9491030C9491030C9491030C949103B0
:100080000C9491030C9491030C9491030C949103A0
:100090000C9491030C9491030C9491030C94910390
:1000A0000C9491030C9491030C94910307634236D2
:1000B000B79BD8A71A39685618AEBAAB558C1D3CF9
:1000C000B7CC5763BD6DEDFD753EF6177231BF00BD
:1000D0000000803F05A84CCDB2D44EB93836A902F5
:1000E0000C50B9918688083CA6AAAA2ABE00000036
:1000F000803F155C1E001F0020002100220023000D
:1001000024002500260027002D002E0000002A00D4
:100110002B0014001A000800150017001C0018001E
:100120000C00120013002F00300031000000E3002B
:1001300004001600070009000A000B000D000E0065
:100140000F0033003400000028000000E100000030
:100150001D001B00060019000500110010003600EC
:10016000370038000000E5000000E000E300E20096
:100170000000000000002C42000000000000E6002B
:1001800002510351E40000000100010001000100E0
:100190000100010001000100010001000100010057
:1001A0000100010001000100010001000100010047
:1001B0000100010001000100010001000100010037
:1001C0000100000001000100010001000100010028
:1001D0000100010001000100010001000100010017
:1001E0000000010001000100010001000100010008
:1001F00001000100010001000100000001000100F8
:100200000100010001000000000000002C000000BF
:100210000000000001000251035101000000350000
:100220003A003B003C003D003E003F0040004100E2
:10023000420043004400450000004C000000F40070
:10024000F000F5000000F90000000000520000007E
:10025000460047004800000000003900F200F100AD
:10026000F300FB00FA00FC00500051004F000000BA
:10027000000000000000000001000000AC00AE0023
:10028000AB00A900AA000000000000000000000070
:10029000000001000000010001000100000000005A
:1002A00000000153000000000000010000000000F9
:1002B000010000000000000000000000000000003D
:1002C000000000000000000000000000000000002E
:1002D00000000000CB5CCC5CCD5CCE5CCF5CD05C25
:1002E000D35C0000000000000000000000000000DF
:1002F0000100DB5CC75CC85CDC5CDD5C000000000E
:1003000000000000000000000000000000000100EC
:100310000000C05CC15CC35CC45CC55CC65CBF5C07
:10032000BB5CBD5CBC5C0000010000000100010082
:1003300001000000000000000000000000000000BC
:1003400001000000000001000000000000000000AB
:10035000000000000001010203040506080A0C0F5A
:100360001114181C2024292E33393F464C535B624C
:100370006A7179818A929AA2AAB2B9C1C8CFD5DC32
:10038000E1E7EBF0F4F7FAFCFDFEFFFEFDFCFAF707
:10039000F4F0EBE7E1DCD5CFC8C1B9B2AAA29A92DA
:1003A0008A8179716A625B534C463F39332E292426
:1003B000201C1814110F0C0A080605040302010181
:1003C0000000000000000000000000046801F000D0
:1003D000B40078005A007F3F1F64321464321478EE
:1003E0003C1E1E140A05000000000001010101016D
:1003F00001010101020202020202020202030303DE
:1004000003030303030404040404040505050505AC
:100410000606060606070707070808080809090967
:100420000A0A0A0A0B0B0B0C0C0C0D0D0D0E0E0F0D
:100430000F0F101011111112121313141415151699
:10044000161717181819191A1A1B1C1C1D1D1E1F08
:100450001F20202122222324252526272728292A58
:100460002B2B2C2D2E2F2F3031323334353636377F
:1004700038393A3B3C3D3E3F404142434446474881
:10048000494A4B4C4D4F50515253555657585A5B51
:100490005C5E5F606263646667696A6C6D6E7071F2
:1004A00073747678797B7C7E8081838486888A8B5E
:1004B0008D8F91929496989A9B9D9FA1A3A5A7A991
:1004C000ABADAFB1B3B5B7B9BBBDBFC1C4C6C8CA88
:1004D000CCCFD1D3D6D8DADCDFE1E4E6E8EBEDF03F
:1004E000F2F5F7FAFCFF0403300000001403530098
:1004F000360030002D0058002D0052004700420009
:1005000000001003530065006E007400720061006B
:10051000710000000403090409026D00040100A039
:10052000FA09040000010301010009211101000181
:100530002240000705810308000A090401000103A5
:10054000010200092111010001224D00070582036B
:1005500008000A090402000103000000092111013A
:1005600000012236000705830308000A090403007E
:1005700001030000000921110100012239000705D3
:1005800084032000011201100100000008EDFE604C
:100590006001000102030105010906A10105071917
:1005A000E029E71500250195087501810205081964
:1005B00001290595057501910295017503910105C4
:1005C00007190029F71500250195F875018102C06A
:1005D00005010980A10185021601002603001A8188
:1005E000002A8300751095018100C0050C0901A146
:1005F000018503160100269C021A01002A9C02753F
:100600001095018100C005010902A1010901A100A5
:1006100005091901290515002501950575018102B6
:100620009501750381010501093009311581257F87
:1006300095027508810609381581257F9501750891
:100640008106050C0A38021581257F950175088100
:1006500006C0C005010906A101050719E029E71533
:100660000025019508750181029501750881010534
:1006700008190129059505750191029501750391E8
:10068000010507190029FF150026FF0095067508CA
:100690008100C00011241FBECFEFDAE0DEBFCDBF66
:1006A00004B603FE27C08091D2029091D302A0919C
:1006B000D402B091D5028730904BA740B04BD1F413
:1006C0001092D2021092D3021092D4021092D5024C
:1006D00014BE84B7877F84BF0FB6F894A895809125
:1006E0006000886180936000109260000FBEE0E0BF
:1006F000F8E3099511E0A0E0B1E0EEE6F1E602C012
:1007000005900D92A434B107D9F722E0A4E4B1E03A
:1007100001C01D92A23DB207E1F70E9487260C940A
:1007200066300C9400000E9480050E94BC24811158
:1007300003C085E00E94A0248FEF80939B028093EA
:100740009C020895CF93DF93EC010E94B60F81E0E5
:100750000E94A00FE6E4F1E08FEFD183C083828393
:100760008383359691E0E837F907B9F7DF91CF91A8
:100770000895E6E4F1E01382359681E0E837F80762
:10078000D1F708957F928F929F92AF92BF92CF92AE
:10079000DF92EF92FF920F931F93CF93DF93082F77
:1007A0000E94B60F81E00E94A00F0E94B903D0E022
:1007B000C0E010E08AE0A82EB12C95E0792EC01799
:1007C000D10774F0DF91CF911F910F91FF90EF90BF
:1007D000DF90CF90BF90AF909F908F907F900895C3
:1007E0000E94E72FB5010E94452F7C014C019924FE
:1007F0000E94E72F887691706C012E2D4FEF6FEFDE
:100800000E9413100E943C20909345018093440164
:10081000789CF001799CF00D1124EA5BFE4FE48294
:10082000D182C0828FEF828383832196C8CFCF93FA
:10083000DF9380914401909145010E9448200B97DD
:1008400090F0C6E4D1E08B818A3080F08A508B83AF
:100850000E943C209093450180934401259681E0BD
:10086000C837D80781F7DF91CF9108951B82F0CF69
:10087000CF93DF93C6E4D1E02C814B816A818881DC
:1008800099810E941310259681E0C837D807A1F7F7
:10089000DF91CF9108958091050180FF07C00E94EC
:1008A00038048091050184FD0C94170408959091FB
:1008B0000501892B8093050108958095909105018C
:1008C000982390930501089590910501982311F0C4
:1008D0000C945D040C9457040F931F93CF93DF93F4
:1008E0008C01EB018091050180FF0DC09A81992355
:1008F00051F083FF1AC00E94E72F68E671E00E9462
:10090000452F0E94A2030B3D8CE5180709F44AC04D
:10091000B8F40D32110509F10E32110591F181E0A3
:10092000DF91CF911F910F91089582FFECCF0E942C
:10093000E72F6AE070E00E94452F0E94C203E3CFD8
:100940000C3D8CE5180709F451C00D3D1C4539F7E5
:100950008A81882321F388E04EC00E949F1E85FF74
:10096000DECF0E949F1E81FFDACF8A818823B9F2F1
:100970000E94311080E00E94A0240E94DB1E80E0D3
:10098000CFCF0E949F1E85FFCACF0E949F1E81FF6E
:10099000C6CF8A81882319F280E00E94A0240E9499
:1009A0003F05EDCF8A81882309F4B9CF9091990250
:1009B000892F86958F738093040182E090FF0EC08B
:1009C0000E94570481E00E9464048091050180FF29
:1009D000D6CF81FD06C00E943110D1CF0E945D04A8
:1009E000F1CF809104010E94A00FC9CF8A81882392
:1009F00009F495CF80E10E946404C1CFCF92DF92C9
:100A0000EF92FF928C3724E1920750F469E070E096
:100A10000E94312FCB01FF90EF90DF90CF9008958F
:100A2000B0E0A0E0BC01CD016A50774D8F4F9F4FE1
:100A3000982F872F762F662725EF38E241E050E088
:100A40000E94592F69017A01CA01B9010E94212F20
:100A50009B01AC01C701B6010E94212F672F782F9F
:100A6000892F99276115710521E08207910591F67B
:100A70006FEF7FEFCFCF81E008950C946C040E945C
:100A8000A8182FEF84E39CE0215080409040E1F7CC
:100A900000C000000C9496200C94AD0B8630D8F466
:100AA00081111AC090918000977F90938000282F29
:100AB00030E0AFEFBFEF0E94812F25E030E040E053
:100AC00050E00E94592FC9010E94FE0490938D00AE
:100AD00080938C00089585E0909180009860E5CF28
:100AE00080916F00817008951092790110927801C1
:100AF00010927A01EFE6F0E08081816080830895B2
:100B0000EFE6F0E080818E7F80830E94BC240C940D
:100B10004E050E94700581110C9480050C9474059B
:100B2000FF920F931F93CF93DF938C01FC01C08141
:100B3000D1818091D301811150C08281882309F431
:100B400047C0CE010E94B81DF82E682FCE010E942A
:100B5000641DBE018F2D0E94D008EC01B8010E94D7
:100B60003D05882309F410C1B801CE010E945C0B39
:100B7000882309F409C1C93CFCE5DF0709F444C135
:100B800008F071C0C13C9CE5D90709F415C108F013
:100B900048C0C531FCE5DF0728F5C2308CE5D80731
:100BA00008F0B2C1C1159CE5D90709F4E8C0C1300D
:100BB000DC4509F4F0C081E08093800180938101DD
:100BC000C801DF91CF911F910F91FF900C943B05CD
:100BD000CE010E94901DF82EBCCFCE010E94B81D00
:100BE000BE01B9CFCF3BFCE5DF0709F445C208F0F1
:100BF000DCC0C531DC45F9F60E949F1EF8019281E8
:100C0000992309F42FC28A7A91E009F490E0909335
:100C10007B01811125C289E20E94281E0E946C1E60
:100C2000B3C0F8018281C53CFCE5DF0709F4DDC0F3
:100C300068F4C33CECE5DE0709F4D2C008F4C7C091
:100C4000882309F4A1C00E94D30E9EC0C73C9CE536
:100C5000D90709F4D4C008F4CDC0882309F494C09E
:100C60000E943A0F91C0C13DFCE5DF0709F41CC1A9
:100C7000F0F5F8018281CD3CFCE5DF0709F4D9C02D
:100C8000D8F4CB3CECE5DE0709F4CCC008F4C4C0D2
:100C9000882309F479C00E947F0D623071058105B7
:100CA000910540F00E947F0D653071058105910529
:100CB00008F493C082E0BAC0CF3C9CE5D90709F4A0
:100CC000DFC008F4C9C0882309F45EC00E947F0D0C
:100CD000653171058105910540F00E947F0D6731F6
:100CE00071058105910508F478C085E19FC0C53D77
:100CF000FCE5DF0709F491C1C0F4F8018281C33D2E
:100D0000FCE5DF0709F4EBC008F4D5C0882309F43B
:100D10006DC1109280010E943C2090937D018093D0
:100D20007C0182E00E94DF152FC0C93DECE5DE07A3
:100D300009F4DAC0CA3DFCE5DF0709F4DEC0C63DB0
:100D4000DC4509F038CFF801828181116AC18091B8
:100D50008101811183C180917E0190917F010E9468
:100D60004820883C910508F079C180E20E94E61590
:100D700088E20E94991488E20E94901505C0F8014B
:100D8000828181110E943F0580E0DF91CF911F9108
:100D90000F91FF900895F80182818823A9F3809133
:100DA0006B02816080936B02EFCFF8018281882310
:100DB00059F30E944910E8CFF8018281882321F37A
:100DC0000E949F1E827249F00E94AD0FDDCF8823E2
:100DD000D9F20E949F1E8272B9F30E94A30FD4CF52
:100DE000882391F20E94BB0ECFCF882369F20E9424
:100DF000F20ECACF882341F20E940A0FC5CF882382
:100E000019F20E94220FC0CFF8018281882309F4D1
:100E1000BBCF0E948D0DB8CF882309F4B5CF0E94B7
:100E2000A20DB2CF882309F4AFCF81E00E94A00FBA
:100E3000ABCF882309F4A8CF0E947F0D66307105DF
:100E40008105910538F00E947F0D6830710581059C
:100E5000910518F286E0EACF882309F495CF0E9425
:100E60007F0D693071058105910540F00E947F0D6D
:100E70006E3071058105910508F4AFCF89E0D6CFBA
:100E8000882309F481CF0E947F0D6F3071058105A1
:100E9000910540F00E947F0D643171058105910537
:100EA00008F49BCF8FE0C2CFF8018281882309F438
:100EB0006BCF88E1BBCF882309F466CF0E947F0DFA
:100EC000693171058105910540F00E947F0D623204
:100ED00071058105910508F480CF89E1A7CF8823AA
:100EE00009F452CF83E2A2CFF8018281882309F46A
:100EF0004BCF80E00E94242747CFF80182818823CE
:100F000009F442CF82E0F6CFF8018281882309F408
:100F100057CE0E94011F811102C00E94DB1E0E9459
:100F20001E1F90E09093C3028093C202FE01E35023
:100F3000FC458091C2028160E231F10538F4E85944
:100F4000FF4C0C947B2F8091C20282608093C2027E
:100F50008091C2020E94221F0E94A81815CF809182
:100F6000C2028460F3CF8091C2028860EFCF80918B
:100F7000C2028061EBCF8091C2028062E7CF809194
:100F8000C2028064E3CF8091C2028068DFCF80918B
:100F9000C2028C60DBCF8091C2028E7FD7CF80915E
:100FA000C2028D7FD3CF8091C2028B7FCFCF809141
:100FB000C202877FCBCF8091C2028F7EC7CF809144
:100FC000C2028F7DC3CF8091C2028F7BBFCF809141
:100FD000C2028F77BBCF8091C202837FB7CF90913F
:100FE000C202892F97FB87F98058B0CF809180018A
:100FF00081110FC080917C0190917D010E94482059
:10100000883C910530F486E20E94991486E20E94A1
:10101000901582E00E94E615B7CEF8018281882300
:1010200051F0109281010E943C2090937F018093A7
:101030007E0180E277CE8091810181110FC0809185
:101040007E0190917F010E944820883C910530F4F8
:1010500087E20E94991487E20E94901580E2DACF1D
:1010600085E3DACD80917B01811104C089E20E9481
:101070002F1ED4CD85E3FBCFF8018281882309F4AC
:1010800083CE0E94890580CE1F920F920FB60F92D9
:1010900011242F933F934F935F936F937F938F937D
:1010A0009F93AF93BF93CF93EF93FF93209106014C
:1010B0008091780190917901019644EF249F9001ED
:1010C0001124B9010E94312F909379018093780106
:1010D000B901660F672F661F770B71950E94312F3C
:1010E0006F7780917A01823041F4603451F48091BD
:1010F0006F008E7F80936F0004C0813011F46F37D2
:10110000B1F3E62FF0E0E65BFC4FC4910E94BC24F3
:10111000282F41E051E0C49FC001C59F900D1124CC
:1011200065E070E00E94312F269FC001279F900D3F
:1011300011240E94FE0490938D0080938C00FF91F7
:10114000EF91CF91BF91AF919F918F917F916F91CF
:101150005F914F913F912F910F900FBE0F901F9075
:101160001895279A2F988AE08093800089E18093D0
:1011700081008FEF9FEF90938700809386000E94FD
:1011800019240C9474050E94B1080C94AB0B0895BB
:101190000C94C7080C94C80890E080E00895089566
:1011A000972F70E02FE0929F600D711D1124FB01BD
:1011B0009BE4899FE00DF11D1124EE0FFF1FEE50FF
:1011C000FF4F859194910895FC01EE0FFF1FE653A8
:1011D000FC4F859194910895CF93DF930E94D0089E
:1011E0000E94BD0AEC01811521E5920708F049C073
:1011F000811530E5930708F021C1883E910508F577
:10120000803E910570F5883A910570F4853A910514
:1012100008F0A7C08130910521F1009711F10497E2
:1012200000F5D0E0C0E01DC08D3B910508F4A4C0DE
:10123000805C9109C03CD105A0F30E94E408EC0158
:1012400010C08115904388F4C11580E2D80708F0DA
:10125000ECC0C03FD10528F3CF3FD10509F008F419
:10126000E2C0CE01DF91CF910895C11590E4D90776
:1012700008F0E1C0CE019927D3FFDAC0EC01D86CA9
:10128000F0CF811529E5920740F5811538E59307E0
:1012900008F01AC1811544E5940778F4C11583E577
:1012A000D80708F0F8C0C11592E5D90708F0E2C0E8
:1012B000DC2FCC27C16FD06AD4CF811525E59207EA
:1012C00008F4FDC0811536E5930708F0AACFD82FA2
:1012D000CC27CC27DF71D062C4CF8B3B9C4509F46F
:1012E000F8C0CC3B8CE5D807B8F4C93B9CE5D907DE
:1012F00009F4F2C008F0F3C0C1153AE5D30708F0CD
:1013000090CFCE0134E0969587953A95E1F78F70AE
:10131000CF70C06ED82F90C0CE3B4CE5D40709F4F7
:10132000E1C060F4CC3B9CE5D90709F4DEC0CD3BBD
:10133000DC4509F076CFC0E0D2ED93CFCE019056D8
:101340008115904208F06DCF8D2F8F710E94380B60
:1013500090E0982F882788279F719C012C2BE9010A
:10136000BACF853A910509F4C3C0863A910509F0D0
:10137000C2C0C2E8D0E475CF883A910509F4BEC076
:10138000893A910509F4BDC08A3A910509F4BCC0B7
:101390008B3A910509F4BBC08C3A910509F4BAC0A7
:1013A0008B3B910509F4B9C08C3B910509F4B8C099
:1013B0008D3A910509F4B7C0803B910509F4B6C098
:1013C0008E3A910509F4B5C08F3A910509F4B4C07D
:1013D000813B910509F4B3C0823B910509F4B2C089
:1013E000833B910509F4B1C0843B910509F4B0C079
:1013F000853B910509F4AFC0863B910509F4AEC069
:10140000873B910509F4ADC0883B910509F4ACC058
:10141000893B910509F4ABC08A3B910509F4AAC048
:10142000C0E0D4E41ECFD0651CCFCE019F7005CFA5
:10143000EC01D06C16CFDF70D06A13CFE4E0969544
:101440008795EA95E1F783702C2F269526952370D2
:1014500040E2249F90011124382B8C2F8370C1E02F
:10146000D0E002C0CC0FDD1F8A95E2F7C22BD32B50
:10147000DC68F7CECE018370992721E030E002C00E
:10148000220F331F8A95E2F7C695C69580E2C89F62
:10149000E0011124EBCFCE018370992721E030E0E9
:1014A00002C0220F331F8A95E2F7C695C69590E2D7
:1014B000C99FE0011124C22BD32BDA68D2CED82FDA
:1014C000CC27C46FD06ACDCED82FCC27C06FD06ABE
:1014D000C8CEC0E0D1EDC5CEC0E0D4EDC2CEC0E0F4
:1014E000D5EDBFCEC0E0D3EDBCCEC0E0D0EDB9CEDF
:1014F000C1E8D0E4B6CEC3E8D0E4B3CEC2EED4E4C3
:10150000B0CEC9EED4E4ADCECAEED4E4AACEC5EBDB
:10151000D4E4A7CEC6EBD4E4A4CEC3EBD4E4A1CEEE
:10152000C4EBD4E49ECEC7EBD4E49BCECCECD4E4A5
:1015300098CECDECD4E495CEC3E8D5E492CECAE8FB
:10154000D5E48FCEC2E9D5E48CCEC4E9D5E489CE0A
:10155000C1E2D6E486CEC3E2D6E483CEC4E2D6E4CA
:1015600080CEC5E2D6E47DCEC6E2D6E47ACEC7E22E
:10157000D6E477CECAE2D6E474CE8238910549F13A
:10158000B0F48133910509F462C048F489329105C1
:1015900009F456C08A32910509F460C00895853374
:1015A000910509F446C08933910599F00895833E69
:1015B000910531F138F4803E910591F0823E91051C
:1015C000B1F00895863E910521F1873E910551F1D4
:1015D00008952091C2022370D9F080EE90E0089522
:1015E0002091C20220FF14C089E390E00895209169
:1015F000C20222FF0DC024FD09C083EE90E00895D1
:101600002091C20222FD31C024FF02C090E080E0A0
:1016100008952091C20223FFFBCF24FDF7CF87EE70
:1016200090E008952091C20223FFEECF86EE90E075
:1016300008952091C20225FFEBCF89E290E0089542
:101640002091C20225FFE4CF85E390E00895209128
:10165000C20226FFDDCF8AE290E008952091C20207
:1016600026FFD6CF81E390E0089582EE90E00895C2
:101670009091C20292FF06C0282F2871283069F489
:10168000877F846093FF06C0282F2871283161F47A
:10169000877E846194FD877E0895282F24712430ED
:1016A00089F78B7F8860EECF282F2471243191F742
:1016B0008B7E8861EFCF08950F931F93CF938C019A
:1016C000FB018281811106C0C1E08C2FCF911F9157
:1016D0000F910895C0918F01C11125C006311C459D
:1016E00099F70E945B0B81E080938F010E943C2060
:1016F00090938E0180938D0110928201109284014B
:101700001092830110928601109285011092880137
:101710001092870110928A011092890110928C0117
:1017200010928B01D2CF80918D0190918E010E94F9
:1017300048208C32914040F680918201E82FF0E001
:10174000EE0FFF1FED57FE4F118300838F5F8093D5
:101750008201C0E0BACF0C9493030C944B04CF9356
:10176000DF9385B7806885BF85B7806885BFABE2AA
:10177000B1E040E351E0C1E0D0E08D91E82FE29587
:10178000EF70F0E061A18F709E0101C0220F8A9579
:10179000EAF7922F9095962391A382A1822B82A3A0
:1017A0004A175B0751F7ACE1B1E061E070E08D9161
:1017B000E82FE295EF70F0E041A18F709B0101C02E
:1017C000220F8A95EAF7922F9095942391A382A1F4
:1017D000822B82A381E0AB32B80749F710929B01BC
:1017E00010929A01109291011092900110929D0115
:1017F00010929C01109293011092920110929F01FD
:1018000010929E0110929501109294011092A101E4
:101810001092A00110929701109296011092A301CC
:101820001092A2011092990110929801DF91CF912C
:101830000C94C3084F925F927F928F929F92AF92C7
:10184000BF92CF92DF92EF92FF920F931F93CF93AD
:10185000DF9390E9492E91E0592E2BE2E22E21E010
:10186000F22E01E010E099249394E201A990B9903E
:101870002E01DE011E921E92F70181917F01E82F59
:10188000E295EF70F0E091A18F70980101C0220FF6
:101890008A95EAF7892F822B81A382A1822E8094D8
:1018A000882182A380EA8A95F1F78CE1C82E81E035
:1018B000D82E90E080E0E60179916E01472F4295A5
:1018C0004F7050E0EA0178A04D915C9111977F70C4
:1018D000E80102C0CC0FDD1F7A95E2F7BE01672157
:1018E00009F072C0B801082E02C0660F771F0A9473
:1018F000E2F7462B572B11965C934E9301968F304F
:101900009105C9F681A1882281A282A1282B22A358
:101910008D919C91A816B90641F09092A4010E9465
:101920003C209093A6018093A501DAE94D16D1E001
:101930005D0609F09ACF8091A401882391F18091EE
:10194000A5019091A6010E944820069750F1809130
:1019500090019091910190939B0180939A018091C5
:1019600092019091930190939D0180939C018091AD
:1019700094019091950190939F0180939E01809195
:101980009601909197019093A1018093A00180917D
:101990009801909199019093A3018093A2011092D4
:1019A000A4010E944C0581E0DF91CF911F910F911E
:1019B000FF90EF90DF90CF90BF90AF909F908F906F
:1019C0007F905F904F90089570E060E092CFE82F95
:1019D000F0E0EE0FFF1FE656FE4F808191810895E3
:1019E0000895CF92DF92EF92FF920F931F93CF93C0
:1019F000DF93E901662309F466C0E42EF12CEFEFD2
:101A0000F0E0E61BF109EE9D8001EF9D100DFE9DBB
:101A1000100D1124212FE12FFF27EE1AFF0A5CE39E
:101A2000C52ED12CB6010E94312FFB01BC01E69ED0
:101A3000C001E79E900DF69E900D1124B6010E9404
:101A4000312FE230F10589F168F4812F262F210F23
:101A5000309781F0242F461B319761F080E020E021
:101A600040E008C0E430F10551F128F1842F861BD5
:101A70003597A1F7E42FF0E0EA51FC4F4491E22FB3
:101A8000F0E0EA51FC4F9491E82FF0E0EA51FC4F6E
:101A9000E49149839883EA83DF91CF911F910F915D
:101AA000FF90EF90DF90CF900895862F810FE42F65
:101AB000412F2E2FDFCFE42FE61B842FF9CF842F69
:101AC000462F410FD7CF842F242FD4CF88E090E02A
:101AD0000C94FF2FAB01BC0188E090E00C941D300A
:101AE000E9E9F2E083E0808311828FEF82838383D0
:101AF000148260817181828193810C946A0D60915E
:101B0000990260FF06C066956F7370E090E080E018
:101B1000089560E070E0CB01089580919D0290E00F
:101B200001968430910514F083E090E080939D024B
:101B30006091990270919A0280919B0290919C020F
:101B40000C946A0D80919D028150990B97FF02C001
:101B500090E080E08430910514F083E090E0809381
:101B60009D026091990270919A0280919B029091DE
:101B70009C020C946A0D80919902EEE9F2E080FFDC
:101B800006C06AE070E08EE992E00C944613118280
:101B900010821282339682E0EC3BF807C1F7F1CF56
:101BA0009091990290FF0CC0EEE9F2E0818360838E
:101BB0004283339692E0EC3BF907C1F70C94BB0DDE
:101BC0000895CF93DF9300D00F92CDB7DEB7209169
:101BD000990220FF0AC09E012F5F3F4F0E94F10C27
:101BE0004B8169818A810E94D00D0F900F900F90D8
:101BF000DF91CF9108953F924F925F926F927F92C3
:101C00008F929F92AF92BF92CF92DF92EF92FF920C
:101C10000F931F93CF93DF9300D00F92CDB7DEB712
:101C20008C01462E542E322E8091990280FF30C0B6
:101C3000982F9E77923009F040C09E012F5F3F4F52
:101C4000C8010E94F10C4B8169818A810E94D00DEC
:101C50008091990200FB87F980939902902F9695C5
:101C600080919A028078892B10FB87F980939A02E1
:101C700040929B0250929C02332051F06091990255
:101C800070919A0280919B0290919C020E946A0D31
:101C90000F900F900F90DF91CF911F910F91FF90B8
:101CA000EF90DF90CF90BF90AF909F908F907F90FC
:101CB0006F905F904F903F900895E82FE695EF73F7
:101CC0009EE39E0F9F73943018F450909C02C0CFF7
:101CD0009AE39E0F9F73993068F4881F8827881FA6
:101CE00090919A02292F220F022F082B97FB112780
:101CF00010F9AECF87E28E0F8F738A3008F0A8CF2D
:101D0000E951FF0B21E0E0FD2FEFEE7FE453FC4FA4
:101D1000859194916AE070E00E94312F2603300192
:101D2000279F700C1124680188E9C81A8EEFD80A21
:101D30008EE9E82E82E0F82E9CEBA92E92E0B92ED7
:101D400028E6822E99249394C601B4010E94312F73
:101D50009701452D642D0E94F10CC60CD71C83E021
:101D6000E80EF11CAE14BF0479F70E94BB0D70CFD2
:101D700021E00C94FB0DE9E9F2E02081221F2227EB
:101D8000221F30919A02432F440F842F822B37FB5E
:101D9000992790F9089668E671E00E94452F4381E3
:101DA00062810C94B80E20919902221F2227221FD3
:101DB00030919A02432F440F842F822B37FB9927AF
:101DC00090F98830910540F4805A9E4F40919C02D2
:101DD00060919B020C94B80E089768E671E00E942F
:101DE000452FF4CF60919B02683F90F4685F80912B
:101DF0009902881F8827881F90919A02292F220F05
:101E000097FB992790F940919C02822B0C94B80E75
:101E10006FEFEDCF60919B02683090F06850809139
:101E20009902881F8827881F90919A02292F220FD4
:101E300097FB992790F940919C02822B0C94B80E45
:101E400060E0EDCF40919C02483F90F4485F809164
:101E50009902881F8827881F90919A02292F220FA4
:101E600097FB992790F960919B02822B0C94B80EF6
:101E70004FEFEDCF40919C02483090F04850809158
:101E80009902881F8827881F90919A02292F220F74
:101E900097FB992790F960919B02822B0C94B80EC6
:101EA00040E0EDCF20E00C94FB0D9091990290FF63
:101EB00046C09178811128C0926090939902662360
:101EC00051F06091990270919A0280919B029091D9
:101ED0009C020E946A0D80919902382F3E77323021
:101EE000D9F41092C001881F8827881F90919A0208
:101EF000292F220F97FB992790F940919C0260911E
:101F00009B02822B0C94520F843210F09664D5CF32
:101F10008F73880F982BD1CF982F96959F732EE3B0
:101F2000290F2F73273110F0363421F491E090936C
:101F3000C001D9CF995D9F739A30A8F6D2CF08958A
:101F400061E00C94550F8091990286958F738F5F95
:101F5000843208F081E00C94A00F8091990286955C
:101F60008F73815009F483E20C94A00FE9E9F2E049
:101F700080818160808386958F730C94A00F60E0D0
:101F80000C94550F80916B02816080936B0281E00D
:101F90008093C1010E94011F811104C00E94DB1EB9
:101FA0000E94700D0E94660D6093990270939A02D0
:101FB00080939B0290939C026E7761F40E94700D57
:101FC0000E94660D6093990270939A0280939B021F
:101FD00090939C0281E08093C0018091990280FFE0
:101FE00004C086958F730C94BF0F0895E9E9F2E061
:101FF00080818160808386958F730C94BF0F909150
:10200000990290FF0FC02A3068F430E0F901EE0F1A
:10201000FF1FE20FF31FE256FD4F8183608342836F
:102020000C94BB0D08951F93CF93DF9300D00F92B4
:10203000CDB7DEB7122F2091990220FF0BC09E0171
:102040002F5F3F4F0E94F10C212F4B8169818A81C4
:102050000E94FF0F0F900F900F90DF91CF911F9173
:102060000895E9E9F2E080818E7F8083608171814B
:10207000828193810E946A0D1092C0012FEF80E748
:1020800092E0215080409040E1F700C000000C94A5
:10209000BB0D8091990280FD0C9431100C94B60F09
:1020A000E9E9F2E080818E7F80831092C0012FEFFA
:1020B00080E792E0215080409040E1F700C00000AE
:1020C0000C94BB0D81E08093C00108951092C00173
:1020D0000895CF93C82F8091BE019091BF010E94B7
:1020E0004820EC2FF0E0EE51FC4FE491E817190680
:1020F00011F008F042C00E943C209093BF018093F1
:10210000BE016091BD0170E090E080E00E94222D50
:1021100020E030E04FE753E40E94452C2BED3FE0F8
:1021200049E450E40E944B2E0E94B82E0E94BF2C1E
:102130002BE43AE34EE25FE30E94D82B20EF3BEF23
:1021400048ED52E40E944B2E0E94F12C462F8091C4
:102150009902881F8827881F90919A02292F220FA1
:1021600097FB992790F960919B02822B0E94E10DC9
:102170008091BD018F5F8093BD01CF910895CF9372
:10218000C82F8091BB019091BC010E944820EC2F88
:10219000F0E0E152FC4FE491E817190609F0E8F489
:1021A0000E943C209093BC018093BB0140919C0213
:1021B00060919B028091B9019091BA010E94E10D5A
:1021C0008091B9019091BA01019668E671E00E9490
:1021D000312F9093BA018093B901CF910895CF9296
:1021E000DF92FF920F931F93CF93DF93F82E80918E
:1021F000B7019091B8010E944820EF2DE695F0E0DC
:10220000E452FC4FE491E817190609F0A8F50E9482
:102210003C209093B8018093B7010EE912E0D0E022
:10222000C0E088E6C82EDD24D3948091B50190915A
:10223000B6018C0F9D1FB6010E94312F980140916D
:102240009C0260919B020E94F10CA4960D5F1F4FAF
:10225000C83681E0D80749F70E94BB0D8091B501CF
:102260009091B601F0FE10C00196BE010E94312F80
:102270009093B6018093B501DF91CF911F910F919B
:10228000FF90DF90CF9008950197F2CFCF92DF9229
:10229000EF92FF920F931F93CF93DF93C82FFF24EA
:1022A000FA9480FD02C0FF24F3948091B3019091D1
:1022B000B4010E944820C695EC2FF0E0E752FC4F95
:1022C000E491E817190611F008F051C00E943C2073
:1022D0009093B4018093B3010EE912E0D0E0C0E026
:1022E000F80111821082128294E0C92ED12CE12CC7
:1022F0008091B2018E0D87FD865F082E000C990B30
:102300008C179D07E9F480919C028C9DA0018D9D06
:10231000500D1124559547955595479580919902F3
:10232000881F8827881F90919A02592F550F97FB75
:10233000992790F9980160919B02852B0E94F10CDE
:10234000EF0CF1E0CF1AD10899F621960D5F1F4FDF
:10235000CA30D10529F60E94BB0D8091B20191E0EF
:10236000F91210C081110CC089E08093B201DF9195
:10237000CF911F910F91FF90EF90DF90CF90089534
:102380008150F3CF90E00196BE010E94452FEDCF22
:102390000F931F93CF93DF93C82F8091B00190913B
:1023A000B1010E944820EC2FF0E0EA52FC4FE4918A
:1023B000E817190611F008F052C00E943C209093D3
:1023C000B1018093B001CEE9D2E0FE01118210820A
:1023D0001282339682E0EC3BF807C1F710E000E090
:1023E0008091AF01082E000C990B08171907E4F132
:1023F00080910801082E000C990B80179107A4F119
:1024000080919902881F8827881F90919A02592FDE
:10241000550F97FB992790F99E0140919C0260917E
:102420009B02852B0E94F10C0F5F1F4F23960A30F1
:102430001105B1F60E94BB0D809107019091AF018B
:10244000980F9093AF0120910801280F2093080165
:10245000121614F499301CF0819580930701DF91D6
:10246000CF911F910F910895198218821A82DCCFA3
:10247000EF92FF920F931F93CF93DF938091AD0163
:102480009091AE010E944820883E9340C8F10E947E
:102490003C209093AE018093AD01C091AB01D091EF
:1024A000AC012196C170DD27D093AC01C093AB0184
:1024B0008EE9E82E82E0F82E10E008E7812F86955D
:1024C0008C0F9D2F911D81709927970140919C023F
:1024D00060919B02FC010E9FC0010F9F900D112483
:1024E0000E94F10C1F5FF3E0EF0EF11C1A3031F780
:1024F000DF91CF911F910F91FF90EF900C94BB0D46
:10250000DF91CF911F910F91FF90EF900895CF939E
:10251000DF9300D00F92CDB7DEB78091A9019091E3
:10252000AA010E944820EAECF3E025913491821739
:102530009307C0F18091A80181110CC09E012F5F0B
:102540003F4F4FEF6FEF90E080E00E94F10C8A81E7
:102550008093A8010E943C209093AA018093A90136
:102560008091A701813071F0882339F040E08230FA
:1025700011F44091A80180E003C08091A80140E0DF
:1025800060E004C06091A80140E080E00E94D00DAE
:102590008091A70190E0019663E070E00E94452FD2
:1025A0008093A7010F900F900F90DF91CF91089526
:1025B0008091C0018823B1F190919902892F86956D
:1025C0008F732EE3280F2F73243018F482500C944D
:1025D00069102AE3280F2F73233018F486500C94C7
:1025E000BF1027E3280F2F73263018F489500C945E
:1025F000EF1021E3280F2F73263018F48F500C941E
:1026000046112BE2280F2F73233018F485510C94B8
:10261000C8119E77903311F40C943812963411F44B
:102620000C948712089531B3242F2095232331B3BE
:10263000432B3FB7F894680F791F8617970711F45B
:102640003FBF0895FC015191CF01E8E041BB00007C
:1026500000C057FF21BB550F000000C000C000C0E4
:1026600021BB00C0EA9591F7E8CF20B3242B20BB13
:102670009B01220F331F620F731F0E94131387ECFD
:1026800090E00197F1F700C00000089540E40C9439
:1026900035139093C7018093C6010895E091C60158
:1026A000F091C701309721F00190F081E02D09945D
:1026B00080E00895E091C601F091C701309721F0C4
:1026C0000280F381E02D09940895E091C601F09114
:1026D000C701309721F00480F581E02D0994089519
:1026E0002091C4013091C5012817390771F09093EA
:1026F000C5018093C401E091C601F091C7013097F4
:1027000021F00680F781E02D099408952091C201FF
:102710003091C3012817390771F09093C30180935A
:10272000C201E091C601F091C701309721F0008409
:10273000F185E02D0994089508950C949C1381E08F
:1027400008950E9433200E94AF0B0E9405210E9431
:1027500019240C94C20F5F926F927F928F929F9276
:10276000AF92BF92CF92DF92EF92FF920F931F939F
:10277000CF93DF93CDB7DEB72A970FB6F894DEBFBD
:102780000FBECDBF0E941A0C0E949F13882309F42C
:102790007AC099ECA92E91E0B92E10E000E08824CF
:1027A0008394912C502E802F0E94E70C7C01F50120
:1027B000C190D1905F01C816D90609F45EC080911E
:1027C0006B0281FD0E94F00C90E080E0CE24DF24BB
:1027D0003401082E02C0660C771C0A94E2F79601B9
:1027E00026213721232B09F443C08E835F82E62004
:1027F000F72081E0EF2809F480E088870E943C20E0
:102800008160782F9A8789874E815F8168858A8564
:102810000E946A14000F111FF801E753FE4F8081D8
:10282000918168267926718260820E9483230E94AA
:102830004E139091C8018917B9F10E944E138093ED
:10284000C8012A960FB6F894DEBF0FBECDBFDF9148
:10285000CF911F910F91FF90EF90DF90CF90BF909D
:10286000AF909F908F907F906F905F900C94CA086C
:1028700001968F30910509F0ABCF0F5F1F4F0530E8
:10288000110509F08FCF8FEF89838A831B820E9405
:102890003C208160782F9D838C8349815A816B8194
:1028A0008D810E946A14C1CF2A960FB6F894DEBFBC
:1028B0000FBECDBFDF91CF911F910F91FF90EF9091
:1028C000DF90CF90BF90AF909F908F907F906F9050
:1028D0005F900895CF93DF93CDB7DEB72B970FB6F8
:1028E000F894DEBF0FBECDBF4F83588769877A87C4
:1028F0008B871E821D8285E0FE013796DE011196D0
:1029000001900D928A95E1F749815A816B817C8112
:102910008D819E812B960FB6F894DEBF0FBECDBF82
:10292000DF91CF910C94461BFC01808191810C9426
:10293000FA1D882309F4F3C08238B9F40E944E13BB
:1029400081FDEDC089E30E94281E0E946C1E2FEFBE
:1029500081EE94E0215080409040E1F700C00000FB
:1029600089E30E942F1E0C946C1E8338A1F40E94F0
:102970004E1380FDD4C083E50E94281E0E946C1E69
:102980002FEF81EE94E0215080409040E1F700C0AD
:10299000000083E5E6CF8438A1F40E944E1382FD47
:1029A000BEC087E40E94281E0E946C1E2FEF81EE9D
:1029B00094E0215080409040E1F700C0000087E49F
:1029C000D0CF9CEF980F913A18F40E94281ECBCFDD
:1029D00090E2980F983050F4877091E001C0990F01
:1029E0008A95EAF7892F0E94A21EBDCF9BE5980F1A
:1029F000933070F4853A31F0863A39F083E890E00C
:102A00000C94701381E890E0FBCF82E890E0F8CF5F
:102A100098E5980F953108F082C0883A09F440C0D3
:102A2000893A09F440C08A3A09F440C08B3A09F463
:102A300040C08C3A09F440C08B3B09F440C08C3B49
:102A400009F440C08D3A09F440C0803B09F440C00D
:102A50008E3A09F440C08F3A09F440C0813B09F432
:102A600040C0823B09F440C0833B09F440C0843B32
:102A700009F440C0853B09F440C0863B09F440C0DE
:102A8000873B09F440C0883B09F440C0893B09F406
:102A900040C08A3B09F440C090E080E00C9486136B
:102AA00082EE90E0FBCF89EE90E0F8CF8AEE90E0E6
:102AB000F5CF85EB90E0F2CF86EB90E0EFCF83EBA4
:102AC00090E0ECCF84EB90E0E9CF87EB90E0E6CFAD
:102AD0008CEC90E0E3CF8DEC90E0E0CF83E891E0E8
:102AE000DDCF8AE891E0DACF82E991E0D7CF84E9BF
:102AF00091E0D4CF81E292E0D1CF83E292E0CECFD9
:102B000084E292E0CBCF85E292E0C8CF86E292E009
:102B1000C5CF87E292E0C2CF8AE292E0BFCF0895AC
:102B2000882309F44BC0823871F40E944E1381FF50
:102B300045C089E30E94281E0E946C1E89E30E9402
:102B40002F1E0C946C1E833859F40E944E1380FF84
:102B500035C083E50E94281E0E946C1E83E5EFCFDE
:102B6000843859F40E944E1382FF28C087E40E94E3
:102B7000281E0E946C1E87E4E2CF9CEF980F913ACA
:102B8000F0F290E2980F983050F4877091E001C015
:102B9000990F8A95EAF7892F0E94A81ED2CF9BE54C
:102BA000980F933020F490E080E00C947013885AD2
:102BB000853120F490E080E00C94861308958823FA
:102BC00021F00E94A21E0C946C1E0895882321F00F
:102BD0000E94A81E0C946C1E08958F929F92AF9233
:102BE000BF92CF92DF92EF92FF920F931F93CF93FA
:102BF000DF937C01D62FC72FFC01058102950F7052
:102C0000128111110E94BF1E0E94651EC82E8823CA
:102C100071F01123B1F080E28D0F883090F082E0E6
:102C20000E944F1E0E94651E91E0C82EC926DC2E10
:102C3000D2949FE0D922ED2DF0E0E658FF4C0C94A1
:102C40007B2FC12CF4CF0C2F0F70C07F11F0029599
:102C5000007F1123A9F0002359F080E28D0F883006
:102C600010F0D11109C0802F0E94A21E0E946C1E7C
:102C70008D2F0E94991414C0802F0E94B21EF6CF8F
:102C80008D2F0E949015002359F080E28D0F88301F
:102C900010F0D11133C0802F0E94A81E0E946C1E1C
:102CA00098E0D91639F0D91648F086EF8D0D8F705F
:102CB000823020F40E944E130E94CA08CC2009F4EE
:102CC000FCC10E94421E80FDF8C1F70112820E94E1
:102CD0003C1E0E94C81CC7010E946A180E943C1E2C
:102CE000DF91CF911F910F91FF90EF90DF90CF90E8
:102CF000BF90AF909F908F900C94E91C802F0E9402
:102D0000B81ECCCFFC2FFF70BF2EC07FC03219F091
:102D1000B29480EFB822DD2369F0D13049F111235C
:102D200091F1002351F1F701858180FFA1CF8F70D0
:102D3000858323C0112381F0011106C00E94D81E93
:102D40008B290E94DF15ACCF0130C1F70E94D81E3D
:102D50008B290E94D21EA4CF011106C00E94D51E4D
:102D60008B2D0E94E6159CCF013009F499CFF6CF48
:102D7000112329F0063008F093CF8B2DE2CF0530D8
:102D800008F08ECFEDCF002359F38D2F0E949015C0
:102D900087CF8C2F86958695837069F0813009F0F6
:102DA0007FCF8D2F9C2F9370111102C090E080E097
:102DB0000E94861375CF8D2F9C2F9370111102C026
:102DC00090E080E00E9470136BCF112309F1D53F92
:102DD00099F0D63FB9F0D43F49F48091BC0290916C
:102DE000BD0281609093BD028093BC028D2F0E9432
:102DF00091220E94782354CF8091BC029091BD0211
:102E00008260F0CF8091BC029091BD028460EACFD5
:102E1000D53F89F0D63FA9F0D43F49F48091BC0258
:102E20009091BD028E7F9093BD028093BC028D2F46
:102E30000E94F922DECF8091BC029091BD028D7F6D
:102E4000F2CF8091BC029091BD028B7FECCF8C2F92
:102E5000837009F047C0111123CF2D2F229526959D
:102E60002770220F220F6D2F6F70862E912CB12CA0
:102E7000A12C022E04C0880C991CAA1CBB1C0A940D
:102E8000D2F760E070E0CB01D4FF0FC06FE070E0DC
:102E900080E090E004C0660F771F881F991F2A9575
:102EA000D2F76095709580959095C695C695C3703C
:102EB000C23051F080F4682979298A299B29C130D0
:102EC00071F00E947A1CECCE682979298A299B2905
:102ED0000E948C1CE5CE0E947A1CC501B4010E94A0
:102EE000681CDECE8695112311F08C2F817088230B
:102EF00009F4D6CE2D2F229526952770220F220F6A
:102F00006D2F6F70862E912CB12CA12C022E04C037
:102F1000880C991CAA1CBB1C0A94D2F760E070E0D4
:102F2000CB01D4FF0FC06FE070E080E090E004C000
:102F3000660F771F881F991F2A95D2F760957095A5
:102F400080959095C695C695C370C23051F080F4B7
:102F5000682979298A299B29C13071F00E943F1D77
:102F60009FCE682979298A299B290E94511D98CED4
:102F70000E943F1DC501B4010E942D1D91CEE0E2CB
:102F8000ED0FE53108F04DC0F0E0E657FF4C0C9432
:102F90007B2FDF708C2F8F71112321F00E94C81CB2
:102FA0008D2FCFCE0E94E91C8D2FDBCE112341F057
:102FB000053008F075CE8C2F8F710E940C1D70CEDD
:102FC000063008F06DCEF7CF8C2F8F71112339F0BA
:102FD0000E94C81C65CE8C2F8F711123C9F30E94EB
:102FE000E91C5ECE112329F08C2F8F710E94B31C37
:102FF00057CE0E94AE1C54CE112349F0CF718C2FB6
:103000000E94C81C63E08C2F0E94461E49CE81E0BE
:103010000E944F1E023008F443CE82E00E944F1EF1
:103020003FCE112329F0011123CE8C2F8F71D0CFE9
:10303000002369F0D93309F0A8CEFFEF27EE83E033
:10304000F15020408040E1F700C000009ECE8C2F60
:103050008F71C5CF4C2F4F706D2FC7010E94CC08C8
:103060000E94E01B1DCE11111BCECF70C230B1F0FB
:1030700040F4CC2381F0C13009F012CE0E944A24E2
:103080000FCEC43089F068F080E0C53009F008CE7A
:103090000E94A02405CE0E94322402CE0E94632406
:1030A000FFCD0E947D24FCCD85E0F2CF4C2F4F70E8
:1030B0006D2FC7010E94CF08F3CDDF91CF911F91F3
:1030C0000F91FF90EF90DF90CF90BF90AF909F90C7
:1030D0008F9008950F931F93CF93DF93EC018B8113
:1030E0009C81892B29F08881998189238F3F29F43C
:1030F000DF91CF911F910F910895CE010E9490050D
:103100008823B1F3688179818A810E94041E8C0131
:103110000E94631D0E94651CB801CE01DF91CF9112
:103120001F910F910C94ED150E94BF1E0E94CF1E9F
:103130000E94361E0E946C1E0E940D240E9478235D
:1031400090E080E00E94701390E080E00C94861381
:103150000E94AF1E0C9494180E94FA1DE92FE2956C
:10316000EF70E250EE3070F4F0E0E156FF4C0C945A
:103170007B2F803F19F020F4803E20F481E00895F9
:10318000843FE1F380E00895803EC0F3813FD1F7B2
:10319000F5CF93FB882780F90895CF93DF9300D074
:1031A00000D00F92CDB7DEB70F900F900F900F9019
:1031B0000F90DF91CF910895CF93DF9300D000D08F
:1031C00000D0CDB7DEB726960FB6F894DEBF0FBE9F
:1031D000CDBFDF91CF9108951F93CF93DF93C0911F
:1031E000D40116E08091D5018C1304C0DF91CF91FA
:1031F0001F910895D0E01C9FF0011D9FF00D112438
:10320000EA52FE4F408151816281738184819581B0
:103210000E94DC182196C770E5CF409106025091BC
:103220000702609108027091090280910A02909150
:103230000B020C94DC181F93CF93DF9380910B0249
:10324000807FC1F4809108028823A1F08091D4018D
:10325000C091D50160910602709107024091090268
:1032600050910A02D62FD723DA01A095B09516E027
:10327000C81304C0DF91CF911F91089590E04115CC
:10328000510511F0DF3F31F401968770F1CF2A0F1D
:103290003B1F17C0189FF001199FF00D1124EA522F
:1032A000FE4F21812713F0CF20812613EDCF2281FD
:1032B0002111EACF238134812417350740F3241BE1
:1032C000350B283C310500F720910B022F7020614F
:1032D00020930B0226E0289FF001299FF00D112476
:1032E000E552FE4F80818F708061808386E092E09E
:1032F0000E946A18DF91CF911F910C94EC18BF9235
:10330000CF92DF92EF92FF920F931F93CF93DF93B1
:10331000CDB7DEB761970FB6F894DEBF0FBECDBF55
:103320008C0185E0F801DE011D9601900D928A95D1
:10333000E1F7D8014C9111965C9111971296EC909F
:1033400012978091090290910A02009709F47FC1B7
:103350002091060230910702622F63236F3F09F428
:1033600076C11396CD90DC90B0900802BB2009F492
:1033700011C1C816D906D0F1F601E81BF90BCF012F
:10338000FF24F394883C910508F0F12C80910B0206
:10339000982F907FFF2009F4B8C091117FC0FE2CB8
:1033A000351329C0241327C0E11025C08F70806118
:1033B00080930B020E940D1986E092E00E946A1829
:1033C00080910B02D80115968C938F2D61960FB6C4
:1033D000F894DEBF0FBECDBFDF91CF911F910F914B
:1033E000FF90EF90DF90CF90BF90089580959095DB
:1033F0008C0D9D1DC5CFCD2829F0852F84238F3FAF
:1034000009F041C180E0B82FB170DB2E80FF3CC0D5
:103410008091D4012091D50136E0821315C04D87EB
:103420005E878D859E850E94FA1D292F22952F701B
:103430002230F0F0243018F59F70F1F0F8019581FA
:10344000907FD1F4D12C1EC090E0389FF001399FBD
:10345000F00D1124EA52FE4F6181651306C06081B0
:10346000641303C06281E6120FC001968770D5CF46
:103470009F7011F0882331F3805E883018F3C80103
:103480000E946A18FD2CA1CFEE2009F49ECF8091F6
:103490000B02816080930B02F12C97CF351306C08D
:1034A000241304C0D801EE2009F49AC04D875E872A
:1034B0008D859E850E94AC18882319F1EE2009F1B4
:1034C00080910B02803270F0209106023091070249
:1034D00038872F831986DB86CA868C87CE010796AC
:1034E0000E946A1886E0F801A6E0B2E001900D9211
:1034F0008A95E1F70E941B190E940D19FF24F3948D
:1035000064CFC8010E946A18F9CF911113C07C2DB5
:10351000D98AC88A6E2D89890E94CD1886E092E0EA
:103520000E946A1886E0E6E0F2E0DF011D928A95CB
:10353000E9F763C0351312C0241310C0E1100EC0A8
:10354000F8018583C8010E946A18E6E0F2E086E08F
:10355000DF011D928A95E9F7FB2C37CF4D875E87F7
:103560008D859E850E94AC18882359F2EE2049F281
:1035700080910B02803208F4B5CF20910602309181
:1035800007023A8329831B82DD82CC828E83CE019F
:103590000196A6CFC816D90698F1F601E81BF90BDB
:1035A000CF01F12C883C910508F049C0FE2CEE209B
:1035B00009F4A7CF351332C0241330C080910B0219
:1035C00080FD23C0982F907F01F1D80115968C9330
:1035D0001597903F39F0982F907F905F8F70892BCF
:1035E00015968C93C8010E946A1886E0F801A6E03F
:1035F000B2E001900D928A95E1F70E940D19E5CE97
:10360000809590958C0D9D1DCCCF86E0F801A6E0AD
:10361000B2E001900D928A95E1F7D7CE4D875E8793
:103620008D859E850E94AC1881115CCF80910B0224
:10363000816080930B02C8010E946A18C6CE7C2D5F
:10364000D98AC88A6E2D89890E94CD186BCFEE2049
:1036500009F457CF4D875E878D859E850E94AC18F3
:10366000F82E882309F44DCF86E0F801A6E0B2E0F9
:1036700001900D928A95E1F786E092E00E94941401
:103680000E941B19BACF81E08E25BDCE1F93CF9328
:10369000DF93CDB7DEB72C970FB6F894DEBF0FBE21
:1036A000CDBF4F83588769877A878B879C87CE01E8
:1036B00007960E947F19882369F08A859B85892B4C
:1036C00039F04F815885842F85238F3F09F071C0D1
:1036D00016E05FC086E0FE013796DE01119601908C
:1036E0000D928A95E1F78A859B85892B89F38885D8
:1036F0009F8189238F3F61F32091D50130E0C9017B
:103700000196877099274091D4014817190671F4E2
:103710000E94A8181092D5011092D40186E0E6E02C
:10372000F2E0DF011D928A95E9F7D2CF96E0929FF1
:10373000D001939FB00D1124AA52BE4FFE013196C5
:1037400001900D929A95E1F78093D5010E94EC18B3
:10375000BFCF819FC00111248A529E4F0E947F19C2
:103760008823E9F0E091D4011E9FF0011124EA5270
:10377000FE4F4081518162817381848195810E94D5
:10378000DC188091D40190E001968770992780938E
:10379000D4018091D4019091D5018913DACF2C9670
:1037A0000FB6F894DEBF0FBECDBFDF91CF911F9152
:1037B000089569857A858B859C850E94DC1888CF61
:1037C000EF92FF920F931F93CF93DF938C01892B7E
:1037D00081F0F12CEE24E394E8012196F801849124
:1037E000843770F4843008F05FC08130B1F08230EB
:1037F000A1F1DF91CF911F910F91FF90EF9008956C
:10380000853709F44CC008F43DC09CE7980F903709
:1038100080F78F770E94901549C00E5F1F4FFE0101
:10382000849190E2980F983060F48770FE2D01C06B
:10383000FF0F8A95EAF78F2F0E94C21E0E946C1E0E
:1038400002C00E9499148F2D815030F2EFE9FFE001
:103850003197F1F700C00000F7CF0E5F1F4FFE0158
:10386000849190E2980F983050F48770FE2D01C03B
:10387000FF0F8A95EAF78F2F0E94C81EDFCF0E94A4
:103880009015E1CF0E5F1F4FFE01C491C150D8F2D9
:103890008FE99FE00197F1F700C00000F7CF0E5FBE
:1038A0001F4FFE01F490CFCF0E9499148E01CBCF11
:1038B00008950E94581C60934202709343028093C3
:1038C0004402909345020C94941808950C94591C4A
:1038D0000F931F93009142021091430220914402E2
:1038E00030914502602B712B822B932B1F910F91EE
:1038F0000C94591C0F931F930091420210914302A4
:103900002091440230914502602371238223932346
:103910001F910F910C94591C0F931F930091420219
:103920001091430220914402309145026027712793
:10393000822793271F910F910C94591C0C94581CAB
:103940000C949E1C0E94A01C60933E0270933F0248
:1039500080934002909341020C94941860E070E0D0
:10396000CB010C94A21C0F931F9341E050E060E048
:1039700070E08A019B0104C0000F111F221F331F3A
:103980008A95D2F7C901B8011F910F910C94A21C1E
:103990000F931F9341E050E060E070E004C0440FDB
:1039A000551F661F771F8A95D2F780913E0290912E
:1039B0003F02A0914002B09141028A019B01082B75
:1039C000192B2A2B3B2BC901B8011F910F910C9485
:1039D000A21C0F931F9341E050E060E070E004C030
:1039E000440F551F661F771F8A95D2F7CB01BA0186
:1039F000609570958095909500913E0210913F02E0
:103A0000209140023091410260237123822393234D
:103A10001F910F910C94A21C0F931F9341E050E053
:103A200060E070E004C0440F551F661F771F8A9541
:103A3000D2F780913E0290913F02A0914002B09156
:103A400041028A019B01082719272A273B27C90120
:103A5000B8011F910F910C94A21C0F931F9300911A
:103A60003E0210913F022091400230914102602BB2
:103A7000712B822B932B1F910F910C94A21C0F93EF
:103A80001F9300913E0210913F022091400230911D
:103A9000410260237123822393231F910F910C9481
:103AA000A21C0F931F9300913E0210913F022091A0
:103AB00040023091410260277127822793271F918E
:103AC0000F910C94A21C08952FE0929F800D112459
:103AD000982F977041E001C0440F9A95EAF78695B8
:103AE0008695869595E0899FF0011124E45FFD4F4E
:103AF00090E080E070E05191DF0111979B01082E6A
:103B000002C0369527950A94E2F721702195252762
:103B1000242325272C9301968530910561F708957C
:103B20002FE0929F800D1124982F9770869586958F
:103B3000869525E0829FF0011124E45FFD4F50E05F
:103B400040E080E0219130E0092E02C036952795B3
:103B50000A94E2F721703327042E01C0220F0A9441
:103B6000EAF7822B4F5F5F4F4530510559F70895B3
:103B7000BF92CF92DF92EF92FF920F931F93CF935A
:103B8000DF938C01C0903E02D0903F02E090400253
:103B9000F09041028091420290914302A091440230
:103BA000B0914502C82AD92AEA2AFB2ACFE1D0E0FF
:103BB000BC2ED701C6010C2E04C0B695A7959795CB
:103BC00087950A94D2F780FD0EC0219788F7B12C13
:103BD0008B2DDF91CF911F910F91FF90EF90DF9090
:103BE000CF90BF900895B8018C2F0E94EC080197E8
:103BF00061F3EECFCF93DF93EC010E94B81DBE01BD
:103C0000DF91CF910C94EC081F93CF93DF93EB01DE
:103C10009091D301992331F0CB01DF91CF911F9186
:103C20000C94FA1D882379F0CB010E94B81D182F3F
:103C3000682FCE010E94641DBE01812FDF91CF91BC
:103C40001F910C94EC08CB010E94901D182FF4CF0B
:103C5000682F8091090190910A010C948D1F682FA3
:103C60008091090190910A010C94981F809109019B
:103C700090910A010C94A31F809146028595859529
:103C800085950895809146028770089598E0899FF0
:103C900090011124622B609346020C94C81C9091F1
:103CA00046028095892380934602282F277061F46D
:103CB000282F082E000C330B9217130629F0859538
:103CC000859585950C94E91C08959091460297700E
:103CD00081E009F480E00895E0910901F0910A0182
:103CE00080916A028083E0910901F0910A0180814C
:103CF00090916902892B8083E0910901F0910A017A
:103D0000808190916802892B80839091470299234A
:103D100081F0E0910901F0910A018081892B808373
:103D20008091090190910A010E94301F8111109227
:103D300047028091090190910A010C945A138091D5
:103D40006A02089590916A02892B80936A0208950D
:103D5000809590916A02982390936A020895109238
:103D60006A02089590916902892B809369020895EF
:103D7000809590916902982390936902089510921A
:103D80006902089590916802892B809368020895D2
:103D900080959091680298239093680208951092FC
:103DA000680208958093470208951092470208958B
:103DB0008091470208956DEE7EEF90E080E00E94D2
:103DC000293060E082E090E00E940B3060E083E008
:103DD00090E00E940B3060E084E090E00E940B30A5
:103DE00060E085E090E00E940B3060E086E090E0CB
:103DF0000E940B3040E050E0BA0188E090E00C9463
:103E00001D3090E080E00E94053021E08D3E9E4F05
:103E100009F020E0822F089582E090E00C94F72FC3
:103E2000682F82E090E00C940B3083E090E00C94DB
:103E3000F72F682F83E090E00C940B3084E090E043
:103E40000C94F72F682F84E090E00C940B3086E000
:103E500090E00C94F72F682F86E090E00C940B30E4
:103E6000FC0131969C01205E3F4F80E091919111C1
:103E70008F5FE217F307D1F708959C01FC0132969A
:103E80009FEF80E04191461751F09F3F19F4411197
:103E900001C0982F8F5F8E31A9F79F3F09F40895D5
:103EA000290F311D97FD3A95F90162830895FC01B0
:103EB000329680962191261303C0DF0111971C9240
:103EC000E817F907B9F70895E62FE695E695E69520
:103ED000EF3169F0E80FF92FF11D677021E030E054
:103EE00001C0220F6A95EAF78181822B81830895B0
:103EF000E62FE695E695E695EF3171F0E80FF92F9C
:103F0000F11D677021E030E001C0220F6A95EAF7E9
:103F10002095818128232183089520911B0122234C
:103F200029F02091C20227FD0C94641F0C943D1FC0
:103F300020911B01222329F02091C20227FD0C941D
:103F4000781F0C94571FFC01319680961192E81748
:103F5000F907E1F70895089508950C94AC1F809136
:103F6000C902843009F430C010926C0288E190E0FC
:103F700020E40FB6F894A895809360000FBE2093BC
:103F8000600080E00E944E0580E00E94CA080E9406
:103F900066100E9450100E94AD1F83B7817F84601D
:103FA00083BF83B7816083BF7894889583B78E7F02
:103FB00083BF0FB6F894A8958091600088618093C4
:103FC0006000109260000FBE08950895CF930E9484
:103FD000AB1F0E941A0C0E94E51FC0E08C2F0E94AC
:103FE000E70C892B31F4CF5FC530C1F780E0CF916A
:103FF000089581E0FCCF08950C94FB1F0E94A8183F
:104000000E9419240E944E130E94CA080E94F60FB3
:104010000E9462100C94FC1F1F921FB61F92112465
:104020008F939F93AF93BF9380916C02811113C0C4
:104030008091BE029091BF02A091C002B091C102D6
:104040004196A11DB11D8093BE029093BF02A09323
:10405000C002B093C102BF91AF919F918F911F9009
:104060001FBE1F90189582E084BD93E095BD9AEF26
:1040700097BD80936E0008952FB7F8948091BE028B
:104080009091BF02A091C002B091C1022FBF0895CC
:10409000CF92DF92EF92FF920F931F932FB7F89476
:1040A0004091BE025091BF026091C0027091C10266
:1040B0002FBF6A017B01EE24FF248C0130E020E059
:1040C000C016D106E206F30650F0481B590BCA0190
:1040D0001F910F91FF90EF90DF90CF900895415086
:1040E0005109F3CF78941F921FB61F9211248F931A
:1040F0009F93AF93BF938091BE029091BF02A09116
:10410000C002B091C1020196A11DB11D8093BE02F3
:104110009093BF02A093C002B093C102BF91AF9130
:104120009F918F911F901FBE1F90189581E08093E3
:10413000E00080E28093D8001092C9008FE19EE4F5
:104140000197F1F700C0000087E090EBDC0180935D
:10415000D2029093D302A093D402B093D50288E107
:104160009CE00FB6F894A895809360000FBE9093E2
:104170006000FFCFAF92BF92CF92DF92EF92FF929B
:104180000F931F93CF93C0E0CC24C394D12CE82E7F
:10419000F12C8C2F0E94E70C5C0110E000E0C601BE
:1041A000002E02C0880F991F0A94E2F78A219B21F2
:1041B000892B99F40F5F1F4F0F30110581F7CF5FE7
:1041C000C53039F780E0CF911F910F91FF90EF90AC
:1041D000DF90CF90BF90AF900895602F7C2F80E04C
:1041E0000E94D008E816F90629F781E0ECCFCF93BA
:1041F000C82F8CE20E94BA20882321F08C2FCF9107
:104200000C94BA2080E0CF910895CF930E94011FB3
:10421000811102C00E94DB1EC5E608C00E941A0C74
:104220008FE39CE90197F1F700C00000C150B1F79E
:1042300089E20E94F7208111EFC08AE20E94F720F4
:1042400081110E94DB1E85E00E94F72081110E94EF
:1042500096200E940C1F80936B0287E00E94F7203B
:10426000882371F08BE10E94F720882309F4B1C004
:1042700090916B02892F8D7F91FF826080936B02FA
:1042800080916B020E94101F0E941E1F90E090936D
:10429000C3028093C20280EE0E94F720882341F07F
:1042A0009091C202892F8E7F90FF81608093C2021D
:1042B00089E30E94F720882341F09091C202892F60
:1042C0008D7F91FF82608093C20282EE0E94F72070
:1042D000882341F09091C202892F8B7F92FF8460E6
:1042E0008093C20286EE0E94F720882341F09091CD
:1042F000C202892F877F93FF88608093C20283EE7A
:104300000E94F720882341F09091C202892F8F7E6E
:1043100094FF80618093C20285E30E94F720882386
:1043200041F09091C202892F8F7D95FF806280932A
:10433000C20281E30E94F720882341F09091C202DB
:10434000892F8F7B96FF80648093C20281E10E9457
:10435000F720882341F09091C202892F97FB87F9BB
:1043600080588093C2028091C2020E94221F87E27D
:104370000E94F720C82F8EE10E94F7208111C260B1
:104380008FE10E94F7208111C46080E20E94F72033
:104390008111C86081E20E94F7208111C06182E230
:1043A0000E94F7208111C06283E20E94F7208111F0
:1043B000C06484E20E94F720882341F1C0688C2FFA
:1043C0000E94191F6C2F70E090E080E0CF910C9458
:1043D000661C8EE00E94F720882339F090916B02D2
:1043E000892F8B7F92FF846049CF80E10E94F72064
:1043F00090916B02882329F0892F877F93FF886033
:104400003DCF892F8E7F90FF816038CFC111D7CFEC
:104410000E94151F682FD7CFCF91089580916F020A
:1044200080FF12C060910E0185E0689FB0011124E9
:10443000759567957595679560387105A8F561154F
:104440007105A1F1862F089581FF09C060910E01C9
:1044500085E0689FB001112475956795EDCF609157
:104460000E0182FD0AC0809170028823D1F09091E4
:104470000D0160910E01891728F085E0689FB00159
:104480001124DACF869FB001112485E0869F900128
:10449000879F300D1124692F70E0C9010E94452FBC
:1044A000CBCF65E070E0CECF8FE7089581E008952F
:1044B00080916F0280FF0CC060910C0170E07595D7
:1044C0006795759567956115710549F1862F089572
:1044D00081FF06C060910C0170E075956795F3CF80
:1044E00060910C0182FD0BC0909170029923A1F0A4
:1044F00060910B0180910C01961738F0682F70E0E5
:104500006038710500F38FE70895899FC001112479
:1045100070E00E94452FF4CF61E070E0D7CF81E0DA
:104520000895803F31F40E940E228195809373029A
:104530000895813F19F40E940E22F8CF823F31F492
:104540000E940E228195809372020895833F19F490
:104550000E940E22F8CF893F29F40E9458228093AE
:10456000740208958A3F21F40E9458228195F7CF62
:104570008B3F31F40E9458228195809375020895F3
:104580008C3F19F40E945822F8CF843F31F4809177
:1045900071028160809371020895853F21F48091BA
:1045A00071028260F7CF863F21F4809171028460AE
:1045B000F1CF873F21F4809171028860EBCF883F73
:1045C00021F4809171028061E5CF8D3F31F48091BB
:1045D0006F02816080936F0208958E3F21F4809175
:1045E0006F028260F7CF8F3FB9F780916F028460CE
:1045F000F1CF90917202803F41F48091730287FD68
:1046000010927302992371F00895813F29F48091EB
:1046100073021816ACF3F6CF823F81F497FFF2CF06
:10462000109272028091730290917402892B909182
:104630007502892B49F7109270020895833F19F48F
:10464000191674F3DFCF893F39F48091740218167C
:10465000CCF610927402D6CF8A3F29F4809174026E
:1046600087FFD0CFF6CF8B3F39F48091750287FF5B
:10467000C9CF10927502C6CF8C3F29F48091750284
:104680001816BCF3BFCF843F31F4809171028E7F46
:1046900080937102B7CF853F21F4809171028D7FA5
:1046A000F7CF863F21F4809171028B7FF1CF873F56
:1046B00021F480917102877FEBCF883F21F48091B4
:1046C00071028F7EE5CF8D3F31F480916F028E7F36
:1046D00080936F0297CF8E3F21F480916F028D7F80
:1046E000F7CF8F3F09F08ECF80916F028B7FF0CF95
:1046F00081E792E00E9465130E943C2090936E0235
:1047000080936D0208951F93CF93DF9380916D0284
:1047100090916E020E944820AC019091700220910D
:104720000F0130E0911106C0209110018AE0289F0E
:10473000900111244217530778F020917202C09122
:104740007302D091740210917502211109C08C2F4F
:104750008D2B812B09F05DC0DF91CF911F910895C2
:104760009F3F19F09F5F90937002121624F40E94ED
:104770000E22809372028091720287FF05C00E9410
:104780000E228195809372021C1624F40E940E2240
:10479000809373028091730287FF05C00E940E22EE
:1047A00081958093730240917202442379F0309195
:1047B0007302332359F025EB4203A00111245093D7
:1047C0007202320390011124309373021D1624F4F7
:1047D0000E945822809374028091740287FF05C062
:1047E0000E945822819580937402111624F40E942D
:1047F0005822809375028091750287FF05C00E9440
:104800005822819580937502DF91CF911F910C946E
:1048100078239F3F09F0A6CFB7CF85E0E1E7F2E02C
:10482000DF011D928A95E9F71092700210926F02D3
:1048300008950E94011F811102C00E94DB1E0E9488
:10484000271F8093C4028C3020F081708A6080938F
:10485000C4028091C40280FF03C086950C944E056B
:1048600080E0FCCF8091C402982F9695953030F46B
:104870009F5F990F8170892B8093C4028091C4023D
:1048800081608093C4020E942B1F8091C402869590
:104890000C944E058091C402982F9E7F79F082502F
:1048A0008093C4028E7F91E009F490E08091C4026D
:1048B00090FB80F98093C4020E942B1F8091C40258
:1048C00086950C944E059091C402892F8E7F90FF9F
:1048D00081608093C402813019F483E08093C40224
:1048E0008091C4020E942B1F8091C40280FF03C0EC
:1048F00086950C944E0580E0FCCF9091C402892FE0
:1049000086958F5F8F7791708630B8F4880F892BEA
:104910008093C4028091C4028E7F91E009F490E0FC
:104920008091C40290FB80F98093C4020E942B1FE7
:104930008091C40286950C944E059093C402EACFF0
:10494000863008F085E0982F990F8091C40281701D
:10495000892B8093C4028E7F91E009F490E08091CE
:10496000C40290FB80F98093C4020E942B1F8091A7
:10497000C40286950C944E058091C40286950895D4
:104980008091960208950F931F93CF93DF9300D0E9
:104990000F92CDB7DEB78C010E943427823011F020
:1049A000843019F583E089831B830A838093E900AF
:1049B0008FEF9091E800815095FD06C095ED9A9596
:1049C000F1F700008111F5CF8091E80085FF0DC05F
:1049D00050E040E063E070E0CE0101960E94512774
:1049E0008091E8008E778093E8000F900F900F90F1
:1049F000DF91CF911F910F910895CF93DF9300D056
:104A00000F92CDB7DEB72091C902243031F522E0F4
:104A10002983805891099B838A8383E08093E900EE
:104A20008FEF9091E800815095FD06C095ED9A9525
:104A3000F1F700008111F5CF8091E80085FF0DC0EE
:104A400050E040E063E070E0CE0101960E94512703
:104A50008091E8008E778093E8000F900F900F9080
:104A6000DF91CF910895CF93DF93EC010E9434271B
:104A7000823011F08430F9F482E08093E9008FEF06
:104A80009091E800815095FD06C095ED9A95F1F75B
:104A900000008111F5CF8091E80085FF0CC050E047
:104AA00040E065E070E0CE010E9451278091E8006F
:104AB0008E778093E800DF91CF910895CF93DF93B5
:104AC000EC010E943427823011F08430F9F4809197
:104AD0001B018823F1F08091C20287FF1AC084E095
:104AE0008093E9008FEF9091E800815095FD06C01A
:104AF00095E19A95F1F700008111F5CF8091E800DA
:104B000050E040E060E270E085FD1AC0DF91CF9197
:104B1000089581E08093E9008FEF9091E800815043
:104B200095FD06C095ED9A95F1F700008111F5CF3E
:104B30008091E80085FFEACF50E040E068E070E057
:104B4000CE010E9451278091E8008E778093E80083
:104B500080E2FE01A6E7B2E001900D928A95E1F7AE
:104B6000D5CF8091C802811109C00E94DF280E9420
:104B70003C298091E20084608093E20008951092C5
:104B8000C8020895089508950C94FE1F42E061EC58
:104B900081E00E945D2842E061EC82E00E945D2895
:104BA00042E061EC83E00E945D2842E261EC84E037
:104BB0000C945D288091CB02833009F455C030F409
:104BC000813071F1823009F491C008958A3009F47E
:104BD0007DC08B3009F463C0893009F044C08091F6
:104BE000CA02813209F03FC08091CE029091CF027B
:104BF000009711F00397B9F58091E800877F8093C3
:104C0000E8008091E80082FF2AC08091F100809343
:104C100096028091E8008B778093E8000C949128AD
:104C20008091CA02813AF9F48091E800877F8093ED
:104C3000E8008091CE029091CF02892B61F460E26E
:104C400086E792E070E00E94A0278091E8008B77D1
:104C50008093E800089560E090E080E0F3CF8091D9
:104C6000C9028111CECF08958091CA02813AD9F745
:104C70008091CE029091CF02892BA9F78091E80014
:104C8000877F8093E8008091E80080FFFCCF8091CF
:104C90001B018093F1008091E8008E77BDCF809159
:104CA000CA02813201F78091CE029091CF02892B06
:104CB000D1F68091E800877F8093E8000E949128D8
:104CC0008091CC0280931B010C94A8188091CA0299
:104CD000813249F68091E800877F8093E8000E9446
:104CE00091288091CD028093970208958091CA0205
:104CF000813A09F0B8CF8091E800877F8093E8007F
:104D00008091E80080FFFCCF80919702C2CF84B7EA
:104D1000877F84BF0FB6F894A89580916000886162
:104D200080936000109260000FBE80E88093610065
:104D3000109261000E949D130E94DF280E943C296E
:104D40008091E20084608093E20078940E94BC2B02
:104D50000E94A11381E191E00E9449138091C90250
:104D6000853029F00E94AB130E94D812F7CF0E9421
:104D7000AF1F8091C702882389F30E94E61F882312
:104D800069F30E943B27EACF0C94C626292F3327CC
:104D90002330310521F168F42130310509F449C08F
:104DA0002230310509F44AC090E080E030E020E094
:104DB00029C02132310581F122323105A9F7643051
:104DC000710590F7FB01EE0FFF1FEC5CFE4F208199
:104DD0003181605D7E4FFB01808190E013C0992797
:104DE0008130910599F0009741F08230910589F06A
:104DF0000397D1F6E6EEF4E002C0E4E1F5E0849139
:104E000090E09F01FA01318320830895E2E0F5E00C
:104E1000F6CFECEEF4E0F3CF6430710528F6660FC0
:104E2000771FFB01E45CFE4F2081318189E090E037
:104E3000E9CF82E190E025E835E0E4CF8DE690E02F
:104E400028E135E0DFCF0895CF93C82F0E942327B4
:104E5000C0939802CF9108958091C902843011F4D3
:104E600082E0089581E0089580919802811102C046
:104E70000C942C27089580E189BD82E189BD09B495
:104E800000FEFDCF8091D8008F7D8093D800809167
:104E9000E00082608093E0008091E00081FDFCCF23
:104EA0000895AF92BF92CF92DF92FF920F931F931C
:104EB000CF93DF936C01EB018A010E94B028F82E9A
:104EC000811123C00115110539F0F801808191810C
:104ED000C81BD90BC80ED91EB12CA12C2097A9F044
:104EE0008091E80085FD22C08091E8008E77809354
:104EF000E80001151105A1F0F80180819181A80E4B
:104F0000B91EB182A08285E0F82E8F2DDF91CF915E
:104F10001F910F91FF90DF90CF90BF90AF900895B9
:104F20000E94B0288823D1F2F82EEFCFF6018191AC
:104F30006F018093F1002197FFEFAF1ABF0ACECF28
:104F4000FC018091D0029091D10286179707A0F0C2
:104F50006115710529F49091E8009E779093E8001F
:104F600090E06115710551F4911108C08091E8003D
:104F700082FF34C080E00895BC01F2CF8091C90265
:104F80008823C1F18530C1F18091E80083FD30C0F4
:104F90008091E80082FDEACF8091E80080FFE1CFB8
:104FA0008091F3002091F200382F6115710519F0FE
:104FB0002830310558F091E02830310509F090E0B3
:104FC0002091E8002E772093E800CBCF8191809349
:104FD000F100615071092F5F3F4FE7CF8091C90207
:104FE000882341F0853041F08091E80083FFBECFF7
:104FF00081E0089582E0089583E00895FC018091A6
:10500000D0029091D10286179707A0F06115710523
:1050100029F48091E8008E778093E80090E0611594
:10502000710551F4911108C08091E80082FF35C0EC
:1050300080E00895BC01F2CF8091C9028823C9F1B4
:105040008530C9F18091E80083FD31C08091E8008E
:1050500082FDEACF8091E80080FFE1CF8091F300EC
:105060002091F200382F6115710519F028303105B3
:1050700058F091E02830310509F090E08091E80087
:105080008E778093E800CBCF84918093F1003196A6
:10509000615071092F5F3F4FE6CF8091C90288238D
:1050A00041F0853041F08091E80083FFBDCF81E081
:1050B000089582E0089583E00895982F973028F0AE
:1050C0008F708093E90081E008959093E900242F88
:1050D000762F50E0981731F07091EC002091ED00A0
:1050E0005091F00021FD02C09F5FE8CF3091EB00AE
:1050F0003E7F3093EB003091ED003D7F3093ED002B
:105100003091EB0031603093EB007093EC00209312
:10511000ED005093F0002091EE0027FDE5CF80E0F8
:1051200008958091CA0287FF13C08091E80082FF32
:1051300006C08091E8008B778093E80004C08091DE
:10514000C9028111F2CF08958091C9028823D9F351
:105150008091E80080FFF8CF8091E8008E77ECCF57
:105160002091E4003091E50085E6A9019091EC00E2
:1051700090FF06C09091E80090FF06C080E008957F
:105180009091E80092FDFACF9091C902992389F09D
:10519000953089F09091EB0095FD0FC02091E400CF
:1051A0003091E5004217530709F38150F1F684E08E
:1051B000089582E0089583E0089581E008950E94B3
:1051C0004D290E945529E0EEF0E0808181608083C6
:1051D000E8EDF0E080818F77808319BCA7EDB0E027
:1051E0008C918E7F8C9380818F7E80831092C802F9
:1051F00008950F931F93CF93DF930E944D290E9430
:105200005529C8EDD0E088818F77888388818068B0
:10521000888388818F7D888319BC1092C90210927F
:10522000C5021092C7021092C60200EE10E0F8010B
:1052300080818B7F808388818160888342E060E009
:1052400080E00E945D28E1EEF0E080818E7F808327
:10525000E2EEF0E0808181608083808188608083DD
:10526000F80180818E7F8083888180618883DF91CF
:10527000CF911F910F910895E8EDF0E080818F7E2E
:105280008083E7EDF0E080818160808384E082BFED
:1052900081E08093C8020C94F928E8EDF0E0808169
:1052A0008E7F80831092E20008951092DA001092AF
:1052B000E10008951F920F920FB60F9211242F93C1
:1052C0003F934F935F936F937F938F939F93AF938E
:1052D000BF93EF93FF938091E10082FF0BC0809119
:1052E000E20082FF07C08091E1008B7F8093E100A4
:1052F0000E94BB2B8091DA0080FF19C08091D800FA
:1053000080FF15C08091DA008E7F8093DA00809153
:10531000D90080FF94C080E189BD82E189BD09B4D4
:1053200000FEFDCF81E08093C9020E94B1258091EB
:10533000E10080FF19C08091E20080FF15C08091DC
:10534000E2008E7F8093E2008091E2008061809392
:10535000E2008091D80080628093D80019BC85E07B
:105360008093C9020E94C3258091E10084FF29C077
:105370008091E20084FF25C080E189BD82E189BD82
:1053800009B400FEFDCF8091D8008F7D8093D800B6
:105390008091E1008F7E8093E1008091E2008F7E1A
:1053A0008093E2008091E20081608093E20080912E
:1053B000C502882309F449C084E08093C9020E9491
:1053C000C4258091E10083FF29C08091E20083FF22
:1053D00025C08091E100877F8093E10082E0809387
:1053E000C9021092C5028091E1008E7F8093E10096
:1053F0008091E2008E7F8093E2008091E2008061E4
:105400008093E20042E060E080E00E945D288091AD
:10541000F00088608093F0000E94C225FF91EF9118
:10542000BF91AF919F918F917F916F915F914F91BC
:105430003F912F910F900FBE0F901F90189519BCA0
:105440001092C9020E94BF2572CF8091E30087FDB0
:1054500002C081E0B2CF83E0B0CF1F920F920FB6AF
:105460000F9211242F933F934F935F936F937F93EA
:105470008F939F93AF93BF93CF93EF93FF93C0917D
:10548000E900CF708091EC001092E9008091F0006B
:10549000877F8093F00078940E94692A1092E90037
:1054A0008091F00088608093F000C093E900FF9144
:1054B000EF91CF91BF91AF919F918F917F916F911C
:1054C0005F914F913F912F910F900FBE0F901F90C2
:1054D00018951F93CF93DF93CDB7DEB7AA970FB67A
:1054E000F894DEBF0FBECDBF8AEC92E02091F100B0
:1054F000FC012193CF01F2E0823D9F07B9F70E94A2
:10550000DA258091E80083FF1EC18091CA02909144
:10551000CB029A3008F017C1E92FF0E0E355FF4CB9
:105520000C947B2F803899F0823809F00CC180915F
:10553000CE028F70873008F006C18093E900809119
:10554000EB0085FB882780F91092E90006C0809166
:10555000C6029091C702911182609091E800977FF6
:105560009093E8008093F1001092F1008091E800A0
:105570008E77E5C0882309F4D3C0823009F0E3C0F8
:105580008091CC028111D6C08091CE028F702FEF16
:10559000280F263008F0D7C08093E9002091EB0057
:1055A00020FFC8C0933031F48091EB00806280937B
:1055B000EB00C0C09091EB0090619093EB0021E074
:1055C00030E001C0220F8A95EAF72093EA0010929A
:1055D000EA008091EB008860EACF8111B4C010919D
:1055E000CC021F778091E3008078812B8093E300C9
:1055F0008091E800877F8093E8000E949128809145
:10560000E80080FFFCCF8091E30080688093E30096
:1056100082E0111183E08093C90295C080588230E6
:1056200008F091C08091CC029091CD028C3D23E096
:105630009207A1F583E08A838AE289834FB7F894C1
:10564000DE01139620E03EE051E2E32FF0E05093BC
:105650005700E49120FF03C0E295EF703F5FEF70C9
:105660008E2F90E0EA30C0F0C7968D939D932F5F08
:10567000243159F74FBF8091E800877F8093E8007D
:105680006AE270E0CE0101960E94A0278091E800B6
:105690008B778093E80057C0C096E7CF6091CE0229
:1056A0007091CF02AE014F5F5F4F0E94C426BC01D4
:1056B000892B09F448C09091E800977F9093E80007
:1056C00089819A810E94FE27E1CF8038E1F580919F
:1056D000E800877F8093E8008091C5028093F10005
:1056E00045CF811130C09091CC02923060F580910D
:1056F000E800877F8093E8009093C5020E9491287C
:105700008091C502882311F084E005C08091E300F8
:1057100087FDFACF81E08093C9020E94C62513C09D
:105720008091CC02813079F481E0933009F080E0FF
:105730008093C7021092E9008091E800877F8093F0
:10574000E8000E9491288091E80083FF0AC08091C0
:10575000E800877F8093E8008091EB00806280936F
:10576000EB00AA960FB6F894DEBF0FBECDBFDF9157
:10577000CF911F9108950895CF938091C9028823F6
:1057800099F0C091E900CF708091EC0080FD0EC0CF
:1057900080E0C82B1092E9008091E80083FD0E9410
:1057A000692ACF70C093E900CF91089580E8F1CFC6
:1057B0005058BB27AA270E94F02B0C949B2D0E94C7
:1057C0008D2D38F00E94942D20F039F49F3F19F46C
:1057D00026F40C94632D0EF4E095E7FB0C945D2DFC
:1057E000E92F0E94AC2D58F3BA176207730784079C
:1057F000950720F079F4A6F50C94CE2D0EF4E095E3
:105800000B2EBA2FA02D0B01B90190010C01CA017A
:10581000A0011124FF27591B99F0593F50F4503E25
:1058200068F11A16F040A22F232F342F4427585F17
:10583000F3CF469537952795A795F0405395C9F72F
:105840007EF41F16BA0B620B730B840BBAF09150E7
:10585000A1F0FF0FBB1F661F771F881FC2F70EC086
:10586000BA0F621F731F841F48F487957795679559
:10587000B795F7959E3F08F0B0CF9395880F08F045
:105880009927EE0F9795879508950E94592C0C94AF
:105890009B2D0E94942D58F00E948D2D40F029F4EC
:1058A0005F3F29F00C945D2D51110C94CF2D0C9479
:1058B000632D0E94AC2D68F39923B1F3552391F326
:1058C000951B550BBB27AA2762177307840738F06F
:1058D0009F5F5F4F220F331F441FAA1FA9F335D0CC
:1058E0000E2E3AF0E0E832D091505040E695001C80
:1058F000CAF72BD0FE2F29D0660F771F881FBB1F3A
:10590000261737074807AB07B0E809F0BB0B802D17
:10591000BF01FF2793585F4F3AF09E3F510578F043
:105920000C945D2D0C94CF2D5F3FE4F3983ED4F39F
:10593000869577956795B795F7959F5FC9F7880F17
:10594000911D9695879597F90895E1E0660F771F69
:10595000881FBB1F621773078407BA0720F0621BFA
:10596000730B840BBA0BEE1F88F7E095089529F4AA
:1059700016F00C945D2D0C94CE2D0C94632D0E948A
:10598000B42DA8F39638A0F707F80F92E8942BE30C
:105990003AEA48EB5FE70E94612E0F920F920F9256
:1059A0004DB75EB70F920E94172EECEAF0E00E940E
:1059B000662D4F915F91EF91FF91E595EE1FFF1FCF
:1059C00049F0FE57E0684427EE0F441FFA95E1F7CF
:1059D0004195550B0E94E12D0F9007FE0C94D52D9B
:1059E00008950E94B42D88F09F5798F0B92F9927F9
:1059F000B751B0F0E1F0660F771F881F991F1AF0BA
:105A0000BA95C9F714C0B13091F00E94CE2DB1E023
:105A100008950C94CE2D672F782F8827B85F39F022
:105A2000B93FCCF3869577956795B395D9F73EF452
:105A300090958095709561957F4F8F4F9F4F0895FA
:105A4000E89409C097FB3EF4909580957095619518
:105A50007F4F8F4F9F4F9923A9F0F92F96E9BB27CE
:105A60009395F695879577956795B795F111F8CF4A
:105A7000FAF4BB0F11F460FF1BC06F5F7F4F8F4FB5
:105A80009F4F16C0882311F096E911C0772321F0AB
:105A90009EE8872F762F05C0662371F096E8862F43
:105AA00070E060E02AF09A95660F771F881FDAF79A
:105AB000880F9695879597F9089597F99F6780E8DD
:105AC00070E060E008959FEF80EC0895DF93CF933E
:105AD0001F930F93FF92EF92DF927B018C016894EA
