:100000000C9402030C9449030C9449030C94490387
:100010000C9449030C9449030C9449030C94490330
:100020000C9449030C9449030C942E270C9401283A
:100030000C94E01D0C9449030C9449030C9449035F
:100040000C9449030C9449030C9449030C94490300
:100050000C94AB060C94461E0C9449030C94490373
:100060000C9449030C9449030C9449030C944903E0
:100070000C9449030C9449030C9449030C944903D0
:100080000C9449030C9449030C9449030C944903C0
:100090000C9449030C9449030C9449030C944903B0
:1000A0000C9449030C9449030C94490307634236AA
:1000B000B79BD8A71A39685618AEBAAB558C1D3CF9
:1000C000B7CC5763BD6DEDFD753EF6177231BF00BD
:1000D0000000803F05A84CCDB2D44EB93836A902F5
:1000E0000C50B9918688083CA6AAAA2ABE00000036
:1000F000803F2CA1F1A202F002201E001F00200070
:1001000021002200230024002500260027002D00C6
:100110002E0000002A002B0014001A000800150011
:1001200017001C0018000C00120013002F003000F4
:1001300031000000390004001600070009000A0021
:100140000B000D000E000F003300340000002800EB
:100150000000E10000001D001B0006001900050062
:10016000110010003600370038000000E5000000E4
:10017000E000E300E200000000000000C00000001A
:1001800000000000E600C000C100E40000003500EF
:100190003A003B003C003D003E003F004000410073
:1001A000420043004400450000004C0000000000F5
:1001B00000000000000000000000000052000000ED
:1001C00046004700480000000000010050005100B8
:1001D0004F00000000000000500051004F000000E0
:1001E000000000000000000001000000AC00AE00B4
:1001F000AB00000000000000000000000000000054
:1002000000000100000001000100010000000000EA
:1002100000000000000000000000010000000000DD
:1002200001000000000000000000000000000000CD
:1002300000000000000000000000000000000000BE
:1002400000000000000000000000000000000000AE
:10025000000000000000000000000000000000009E
:1002600001000000C75CC85C000000000000000046
:10027000000000000000000000000000000001007D
:100280000000C05CC15CC35CC45CC55CC65CBF5C98
:10029000BB5CBD5CBC5C0000010000000100010013
:1002A000010000000000000000000000000000004D
:1002B000010000000000010000000000000000003C
:1002C000000000000001010203040506080A0C0FEB
:1002D0001114181C2024292E33393F464C535B62DD
:1002E0006A7179818A929AA2AAB2B9C1C8CFD5DCC3
:1002F000E1E7EBF0F4F7FAFCFDFEFFFEFDFCFAF798
:10030000F4F0EBE7E1DCD5CFC8C1B9B2AAA29A926A
:100310008A8179716A625B534C463F39332E2924B6
:10032000201C1814110F0C0A080605040302010111
:10033000000000000000000000006801F000B400B0
:1003400078005A007F3F1F643214643214783C1ED8
:100350001E140A0500000000000101010101010155
:10036000010102020202020202020203030303036A
:100370000303030404040404040505050505060637
:1003800006060607070707080808080909090A0AF0
:100390000A0A0B0B0B0C0C0C0D0D0D0E0E0F0F0F94
:1003A000101011111112121313141415151616171B
:1003B00017181819191A1A1B1C1C1D1D1E1F1F2087
:1003C000202122222324252526272728292A2B2BD2
:1003D0002C2D2E2F2F3031323334353636373839F5
:1003E0003A3B3C3D3E3F4041424344464748494AF0
:1003F0004B4C4D4F50515253555657585A5B5C5EBB
:100400005F606263646667696A6C6D6E7071737455
:100410007678797B7C7E8081838486888A8B8D8FB9
:1004200091929496989A9B9D9FA1A3A5A7A9ABADE5
:10043000AFB1B3B5B7B9BBBDBFC1C4C6C8CACCCFD5
:10044000D1D3D6D8DADCDFE1E4E6E8EBEDF0F2F583
:10045000F7FAFCFF040330000000140353003600D9
:1004600030002D0058002D005200470042000000CF
:1004700012034D00610073007300640072006F008E
:10048000700000000403090409026D00040100A0CB
:10049000FA09040000010301010009211101000112
:1004A0002240000705810308000A09040100010336
:1004B000010200092111010001224D0007058203FC
:1004C00008000A09040200010300000009211101CB
:1004D00000012236000705830308000A090403000F
:1004E0000103000000092111010001223900070564
:1004F00084032000011201100100000008EDFE60DD
:100500006001000102030105010906A101050719A7
:10051000E029E715002501950875018102050819F4
:100520000129059505750191029501750391010554
:1005300007190029F71500250195F875018102C0FA
:1005400005010980A10185021601002603001A8118
:10055000002A8300751095018100C0050C0901A1D6
:10056000018503160100269C021A01002A9C0275CF
:100570001095018100C005010902A1010901A10036
:100580000509190129051500250195057501810247
:100590009501750381010501093009311581257F18
:1005A00095027508810609381581257F9501750822
:1005B0008106050C0A38021581257F950175088191
:1005C00006C0C005010906A101050719E029E715C4
:1005D00000250195087501810295017508810105C5
:1005E0000819012905950575019102950175039179
:1005F000010507190029FF150026FF00950675085B
:100600008100C00011241FBECFEFDAE0DEBFCDBFF6
:1006100004B603FE27C08091940290919502A091A8
:100620009602B09197028730904BA740B04BD1F41F
:1006300010929402109295021092960210929702D4
:1006400014BE84B7877F84BF0FB6F894A8958091B5
:100650006000886180936000109260000FBEE0E04F
:10066000F8E3099511E0A0E0B1E0E0E1FCE502C0AB
:1006700005900D92AE33B107D9F722E0AEE3B1E0B9
:1006800001C01D92A439B207E1F70E945B240C94CB
:10069000B72D0C9400000C94F203CF93DF93EC0180
:1006A0006230C9F40E947D1C82729A81992359F0AC
:1006B000811107C089E20E94061CDF91CF910C9442
:1006C0004A1C85E3F8CF811104C089E20E940D1C09
:1006D000F4CF85E3FBCFDF91CF910895CF92DF92E6
:1006E000EF92FF928C3724E1920750F469E070E0BA
:1006F0000E94052DCB01FF90EF90DF90CF900895E1
:10070000B0E0A0E0BC01CD016A50774D8F4F9F4F04
:10071000982F872F762F662725EF38E241E050E0AB
:100720000E942D2D69017A01CA01B9010E94F52CA0
:100730009B01AC01C701B6010E94F52C672F782FF1
:10074000892F99276115710521E08207910591F69E
:100750006FEF7FEFCFCF81E0089581E008950C9493
:10076000AD030E9486162FEF84E39CE02150804069
:100770009040E1F700C000000C946A1E0C94140A2B
:100780008630D8F481111AC090918000977F9093A1
:100790008000282F30E0AFEFBFEF0E94552D25E0FD
:1007A00030E040E050E00E942D2DC9010E946E0310
:1007B00090938D0080938C00089585E09091800047
:1007C0009860E5CF80916F008170089510923F018D
:1007D00010923E0110924001EFE6F0E080818160CE
:1007E00080830895EFE6F0E080818E7F80830E9411
:1007F00090220C94C0030E94E20381110C94F20336
:100800000C94E603FF920F931F93CF93DF938C0119
:10081000FC01C081D1818091950181114FC08281FD
:10082000882309F446C0CE010E94961BF82E682F3B
:10083000CE010E94421BBE018F2D0E943607EC01A3
:10084000B8010E94AF03882309F4F3C0B801CE01B8
:100850000E94C209882309F4ECC0C83CFCE5DF070C
:1008600009F420C108F061C0C03C9CE5D90709F437
:10087000F1C0C8F5C531FCE5DF0728F5C2308CE5CD
:10088000D80708F09CC1C1159CE5D90709F4CCC074
:10089000C130DC4509F4D4C081E0809346018093E7
:1008A0004701C801DF91CF911F910F91FF900C94E8
:1008B000AB03CE010E946E1BF82EBDCFCE010E946D
:1008C000961BBE01BACFC531FCE5DF0709F423C290
:1008D000CF3BDC4509F7F8018281882309F4A9C0E0
:1008E0000E94FB03A6C0F8018281C43CFCE5DF073F
:1008F00009F4C9C068F4C23CECE5DE0709F4BAC0EB
:1009000008F4AFC0882309F494C00E94220D91C05E
:10091000C63C9CE5D90709F4C0C008F4B9C08823D7
:1009200009F487C00E94890D84C0C03DFCE5DF0743
:1009300009F406C188F5F8018281CC3CFCE5DF07AB
:1009400009F4C3C070F4CA3CECE5DE0709F4B7C093
:1009500008F4AFC0882309F46CC081E00E94050E42
:1009600068C0CE3C9CE5D90709F4D6C008F4C0C0E5
:10097000882309F45EC00E94E60B6F307105810583
:10098000910540F00E94E60B6431710581059105E7
:1009900008F476C08FE0E2CFC43DFCE5DF0709F440
:1009A00097C1C0F4F8018281C23DFCE5DF0709F47C
:1009B000E2C008F4DBC0882309F473C11092460139
:1009C0000E94101E909343018093420182E00E9496
:1009D000BD132FC0C83DECE5DE0709F4E0C0C93DFA
:1009E000FCE5DF0709F4E4C0C53DDC4509F054CF60
:1009F000F8018281811170C180914701811189C103
:100A000080914401909145010E941C1E883C9105F3
:100A100008F07FC180E20E94C41388E20E9477122E
:100A200088E20E946E1305C0F801828181110E9444
:100A3000B10380E0DF91CF911F910F91FF90089556
:100A4000F80182818823A9F380912D02816080932F
:100A50002D02EFCFF8018281882359F30E947C0E8A
:100A6000E8CF882331F30E947D1C827249F00E94F6
:100A7000120EDFCF8823E9F20E947D1C8272B9F347
:100A80000E94080ED6CF8823A1F20E943A0DD1CF42
:100A9000882379F20E94590DCCCF882351F20E940D
:100AA000710DC7CFF8018281882319F20E94A10D30
:100AB000C0CF882309F4BDCF0E94F40BBACF88239E
:100AC00009F4B7CF0E94090CB4CF882309F4B1CF41
:100AD0000E94E60B623071058105910538F00E9495
:100AE000E60B653071058105910550F282E036CF45
:100AF000882309F49ECF0E94E60B663071058105BC
:100B0000910540F00E94E60B683071058105910562
:100B100008F4B6CF86E022CF882309F48ACF0E945A
:100B2000E60B693071058105910540F00E94E60BE6
:100B30006E3071058105910508F4A2CF89E00ECFD2
:100B4000F8018281882309F474CF0E94E60B653195
:100B500071058105910540F00E94E60B6731710532
:100B60008105910508F48CCF85E1F8CE882309F43E
:100B700060CF88E1F3CE882309F45BCF0E94E60BB7
:100B8000693171058105910540F00E94E60B6232E2
:100B900071058105910508F473CF89E1DFCEF80175
:100BA0008281882309F445CF80E00E94F82441CF58
:100BB000F8018281882309F43CCF82E0F6CFF80166
:100BC0008281882309F46DCE0E94DF1C811102C04E
:100BD0000E94B91C0E94FC1C90E0909385028093B7
:100BE0008402FE01E350FC45809184028160E23181
:100BF000F10538F4E754F24D0C944F2D80918402A6
:100C0000826080938402809184020E94001D0E9471
:100C100086160FCF809184028460F3CF8091840286
:100C20008860EFCF809184028061EBCF8091840255
:100C30008062E7CF809184028064E3CF8091840258
:100C40008068DFCF809184028C60DBCF809184024A
:100C50008E7FD7CF809184028D7FD3CF8091840205
:100C60008B7FCFCF80918402877FCBCF809184020E
:100C70008F7EC7CF809184028F7DC3CF8091840205
:100C80008F7BBFCF809184028F77BBCF809184020E
:100C9000837FB7CF90918402892F97FB87F9805883
:100CA000B0CF8091460181110FC080914201909197
:100CB00043010E941C1E883C910530F486E20E948C
:100CC000771286E20E946E1382E00E94C413B1CEB6
:100CD000F8018281882351F0109247010E94101E72
:100CE000909345018093440180E271CE8091470149
:100CF00081110FC080914401909145010E941C1EFA
:100D0000883C910530F487E20E94771287E20E94C6
:100D10006E1380E2DACF0E947D1CF8019281992344
:100D200081F08A7A91E009F490E090934101811179
:100D300006C089E20E94061C0E944A1C7ACE85E306
:100D4000F9CF80914101811104C089E20E940D1CFC
:100D5000F3CF85E3FBCF1F920F920FB60F921124B2
:100D60002F933F934F935F936F937F938F939F93B3
:100D7000AF93BF93CF93EF93FF93209100018091A6
:100D80003E0190913F01019644EF249F9001112470
:100D9000B9010E94052D90933F0180933E01B90156
:100DA000660F672F661F770B71950E94052D6F7771
:100DB00080914001823041F4603451F480916F00A1
:100DC0008E7F80936F0004C0813011F46F37B1F3D0
:100DD000E62FF0E0E654FD4FC4910E949022282FA8
:100DE00041E051E0C49FC001C59F900D112465E012
:100DF00070E00E94052D269FC001279F900D1124B1
:100E00000E946E0390938D0080938C00FF91EF9170
:100E1000CF91BF91AF919F918F917F916F915F9192
:100E20004F913F912F910F900FBE0F901F901895EB
:100E3000279A2F988AE08093800089E1809381002F
:100E40008FEF9FEF90938700809386000E94ED21A3
:100E50000C94E6030E9418070C94110A08950C9450
:100E60002E070C942F0790E080E00895972F70E0F4
:100E70002FE0929F600D711D1124FB019BE4899F5F
:100E8000E00DF11D1124EE0FFF1FE850FF4F85917B
:100E900094910895FC01EE0FFF1FEE50FF4F8591D6
:100EA00094910895CF93DF930E9436070E942309FF
:100EB000EC01811521E5920708F049C0811530E564
:100EC000930708F021C1883E910508F5803E910501
:100ED00070F5883A910570F4853A910508F0A7C03D
:100EE0008130910521F1009711F1049700F5D0E0D0
:100EF000C0E01DC08D3B910508F4A4C0805C910941
:100F0000C03CD105A0F30E944A07EC0110C0811536
:100F1000904388F4C11580E2D80708F0ECC0C03FC8
:100F2000D10528F3CF3FD10509F008F4E2C0CE0186
:100F3000DF91CF910895C11590E4D90708F0E1C081
:100F4000CE019927D3FFDAC0EC01D86CF0CF811520
:100F500029E5920740F5811538E5930708F01AC195
:100F6000811544E5940778F4C11583E5D80708F0A6
:100F7000F8C0C11592E5D90708F0E2C0DC2FCC27F4
:100F8000C16FD06AD4CF811525E5920708F4FDC062
:100F9000811536E5930708F0AACFD82FCC27CC27A8
:100FA000DF71D062C4CF8B3B9C4509F4F8C0CC3BC9
:100FB0008CE5D807B8F4C93B9CE5D90709F4F2C021
:100FC00008F0F3C0C1153AE5D30708F090CFCE0181
:100FD00034E0969587953A95E1F78F70CF70C06EA3
:100FE000D82F90C0CE3B4CE5D40709F4E1C060F4A3
:100FF000CC3B9CE5D90709F4DEC0CD3BDC4509F0CC
:1010000076CFC0E0D2ED93CFCE01905681159042BD
:1010100008F06DCF8D2F8F710E949E0990E0982F60
:10102000882788279F719C012C2BE901BACF853A2C
:10103000910509F4C3C0863A910509F0C2C0C2E81F
:10104000D0E475CF883A910509F4BEC0893A91057C
:1010500009F4BDC08A3A910509F4BCC08B3A9105E8
:1010600009F4BBC08C3A910509F4BAC08B3B9105D9
:1010700009F4B9C08C3B910509F4B8C08D3A9105CB
:1010800009F4B7C0803B910509F4B6C08E3A9105CA
:1010900009F4B5C08F3A910509F4B4C0813B9105BC
:1010A00009F4B3C0823B910509F4B2C0833B9105BA
:1010B00009F4B1C0843B910509F4B0C0853B9105AA
:1010C00009F4AFC0863B910509F4AEC0873B91059A
:1010D00009F4ADC0883B910509F4ACC0893B91058A
:1010E00009F4ABC08A3B910509F4AAC0C0E0D4E47E
:1010F0001ECFD0651CCFCE019F7005CFEC01D06C08
:1011000016CFDF70D06A13CFE4E096958795EA9505
:10111000E1F783702C2F26952695237040E2249FBB
:1011200090011124382B8C2F8370C1E0D0E002C0D5
:10113000CC0FDD1F8A95E2F7C22BD32BDC68F7CEEC
:10114000CE018370992721E030E002C0220F331FC7
:101150008A95E2F7C695C69580E2C89FE001112402
:10116000EBCFCE018370992721E030E002C0220F3F
:10117000331F8A95E2F7C695C69590E2C99FE001B4
:101180001124C22BD32BDA68D2CED82FCC27C46F30
:10119000D06ACDCED82FCC27C06FD06AC8CEC0E0E1
:1011A000D1EDC5CEC0E0D4EDC2CEC0E0D5EDBFCE0E
:1011B000C0E0D3EDBCCEC0E0D0EDB9CEC1E8D0E404
:1011C000B6CEC3E8D0E4B3CEC2EED4E4B0CEC9EE1E
:1011D000D4E4ADCECAEED4E4AACEC5EBD4E4A7CE17
:1011E000C6EBD4E4A4CEC3EBD4E4A1CEC4EBD4E4E8
:1011F0009ECEC7EBD4E49BCECCECD4E498CECDEC21
:10120000D4E495CEC3E8D5E492CECAE8D5E48FCE37
:10121000C2E9D5E48CCEC4E9D5E489CEC1E2D6E4F6
:1012200086CEC3E2D6E483CEC4E2D6E480CEC5E265
:10123000D6E47DCEC6E2D6E47ACEC7E2D6E477CE57
:10124000CAE2D6E474CE8238910549F1B0F4813314
:10125000910509F462C048F48932910509F456C039
:101260008A32910509F460C008958533910509F427
:1012700046C08933910599F00895833E910531F177
:1012800038F4803E910591F0823E9105B1F00895C9
:10129000863E910521F1873E910551F108952091F7
:1012A00084022370D9F080EE90E0089520918402AA
:1012B00020FF14C089E390E008952091840222FF6A
:1012C0000DC024FD09C083EE90E0089520918402B2
:1012D00022FD31C024FF02C090E080E008952091FB
:1012E000840223FFFBCF24FDF7CF87EE90E0089523
:1012F0002091840223FFEECF86EE90E008952091A6
:10130000840225FFEBCF89E290E0089520918402CA
:1013100025FFE4CF85E390E008952091840226FF25
:10132000DDCF8AE290E008952091840226FFD6CF97
:1013300081E390E0089582EE90E008959091840218
:1013400092FF06C0282F2871283069F4877F8460B7
:1013500093FF06C0282F2871283161F4877E8461AD
:1013600094FD877E0895282F2471243089F78B7F80
:101370008860EECF282F2471243191F78B7E88610D
:10138000EFCF08950F931F93CF938C01FB018281C0
:10139000811106C0C1E08C2FCF911F910F9108954C
:1013A000C0915501C11125C006311C4599F70E9415
:1013B000C10981E0809355010E94101E9093540151
:1013C000809353011092480110924A0110924901F2
:1013D00010924C0110924B0110924E0110924D014F
:1013E0001092500110924F0110925201109251012F
:1013F000D2CF80915301909154010E941C1E8C32D7
:10140000914040F680914801E82FF0E0EE0FFF1F79
:10141000E75BFE4F118300838F5F80934801C0E03C
:10142000BACF0C944B0308950C94130ACF93DF9317
:1014300085B7806885BF85B7806885BFA5E2B1E0C4
:101440004AE251E0C1E0D0E08D91E82FE295EF70E3
:10145000F0E061A18F709E0101C0220F8A95EAF72A
:10146000922F9095962391A382A1822B82A34A1753
:101470005B0751F7A6E1B1E061E070E08D91E82FE4
:10148000E295EF70F0E041A18F709B0101C0220F47
:101490008A95EAF7922F9095942391A382A1822BAB
:1014A00082A381E0A532B80749F71092610110923A
:1014B0006001109257011092560110926301109230
:1014C0006201109259011092580110926501109218
:1014D000640110925B0110925A0110926701109200
:1014E000660110925D0110925C01109269011092E8
:1014F000680110925F0110925E01DF91CF910C9410
:101500002A074F925F927F928F929F92AF92BF92E3
:10151000CF92DF92EF92FF920F931F93CF93DF93BF
:1015200096E5492E91E0592E25E2E22E21E0F22E99
:1015300001E010E099249394E201A990B9902E0162
:10154000DE011E921E92F70181917F01E82FE29544
:10155000EF70F0E091A18F70980101C0220F8A9581
:10156000EAF7892F822B81A382A1822E8094882181
:1015700082A380EA8A95F1F786E1C82E81E0D82E11
:1015800090E080E0E60179916E01472F42954F701F
:1015900050E0EA0178A04D915C9111977F70E801CD
:1015A00002C0CC0FDD1F7A95E2F7BE01672109F07A
:1015B00072C0B801082E02C0660F771F0A94E2F7C6
:1015C000462B572B11965C934E9301968F309105C5
:1015D000C9F681A1882281A282A1282B22A38D9104
:1015E0009C91A816B90641F090926A010E94101EC3
:1015F00090936C0180936B01D0E64D16D1E05D06AF
:1016000009F09ACF80916A01882391F180916B0152
:1016100090916C010E941C1E069750F1809156011A
:1016200090915701909361018093600180915801DE
:1016300090915901909363018093620180915A01C6
:1016400090915B01909365018093640180915C01AE
:1016500090915D01909367018093660180915E0196
:1016600090915F01909369018093680110926A01E3
:101670000E94BE0381E0DF91CF911F910F91FF90F7
:10168000EF90DF90CF90BF90AF909F908F907F9022
:101690005F904F90089570E060E092CFE82FF0E007
:1016A000EE0FFF1FE05AFE4F80819181089508954B
:1016B000CF92DF92EF92FF920F931F93CF93DF931E
:1016C000E901662309F466C0E42EF12CEFEFF0E0A7
:1016D000E61BF109EE9D8001EF9D100DFE9D100DA2
:1016E0001124212FE12FFF27EE1AFF0A5CE3C52EFC
:1016F000D12CB6010E94052DFB01BC01E69EC00164
:10170000E79E900DF69E900D1124B6010E94052DC6
:10171000E230F10589F168F4812F262F210F3097EF
:1017200081F0242F461B319761F080E020E040E0FB
:1017300008C0E430F10551F128F1842F861B35975C
:10174000A1F7E42FF0E0EC5AFC4F4491E22FF0E0D7
:10175000EC5AFC4F9491E82FF0E0EC5AFC4FE491E6
:1017600049839883EA83DF91CF911F910F91FF9076
:10177000EF90DF90CF900895862F810FE42F412FB7
:101780002E2FDFCFE42FE61B842FF9CF842F462F97
:10179000410FD7CF842F242FD4CF88E090E00C9432
:1017A000772DAB01BC0188E090E00C94952DEBE522
:1017B000F2E083E0808311828FEF8283838314823F
:1017C00060817181828193810C94D10B60915B0265
:1017D00060FF06C066956F7370E090E080E008954A
:1017E00060E070E0CB01089580915F0290E0019687
:1017F0008430910514F083E090E080935F02609163
:101800005B0270915C0280915D0290915E020C948B
:10181000D10B80915F028150990B97FF02C090E03D
:1018200080E08430910514F083E090E080935F02C3
:1018300060915B0270915C0280915D0290915E020A
:101840000C94D10B80915B02E0E6F2E080FF06C0D1
:101850006AE070E080E692E00C942411118210821C
:101860001282339682E0EE37F807C1F7F1CF9091FC
:101870005B0290FF0CC0E0E6F2E08183608342836C
:10188000339692E0EE37F907C1F70C94220C0895D5
:10189000CF93DF9300D00F92CDB7DEB720915B02DC
:1018A00020FF0AC09E012F5F3F4F0E94580B4B81C3
:1018B00069818A810E94370C0F900F900F90DF9101
:1018C000CF9108953F924F925F926F927F928F9245
:1018D0009F92AF92BF92CF92DF92EF92FF920F93BF
:1018E0001F93CF93DF9300D00F92CDB7DEB78C015B
:1018F000462E542E322E80915B0280FF30C0982FEE
:101900009E77923009F040C09E012F5F3F4FC80183
:101910000E94580B4B8169818A810E94370C80910B
:101920005B0200FB87F980935B02902F9695809174
:101930005C028078892B10FB87F980935C024092CF
:101940005D0250925E02332051F060915B02709113
:101950005C0280915D0290915E020E94D10B0F901B
:101960000F900F90DF91CF911F910F91FF90EF900B
:10197000DF90CF90BF90AF909F908F907F906F90AF
:101980005F904F903F900895E82FE695EF739EE3A8
:101990009E0F9F73943018F450905E02C0CF9AE36C
:1019A0009E0F9F73993068F4881F8827881F909135
:1019B0005C02292F220F022F082B97FB112710F909
:1019C000AECF87E28E0F8F738A3008F0A8CFE9512F
:1019D000FF0B21E0E0FD2FEFEE7FE65CFC4F8591F1
:1019E00094916AE070E00E94052D26033001279F44
:1019F000700C1124680188E9C81A8EEFD80A80E6B5
:101A0000E82E82E0F82E9EE7A92E92E0B92E28E675
:101A1000822E99249394C601B4010E94052D97014A
:101A2000452D642D0E94580BC60CD71C83E0E80E90
:101A3000F11CAE14BF0479F70E94220C70CF21E094
:101A40000C94620CEBE5F2E02081221F2227221F7A
:101A500030915C02432F440F842F822B37FB992750
:101A600090F9089668E671E00E94192D4381628121
:101A70000C941F0D20915B02221F2227221F309100
:101A80005C02432F440F842F822B37FB992790F958
:101A90008830910540F4805A9E4F40915E026091DB
:101AA0005D020C941F0D089768E671E00E94192DE5
:101AB000F4CF60915D02683F90F4685F80915B02B3
:101AC000881F8827881F90915C02292F220F97FB7F
:101AD000992790F940915E02822B0C941F0D6FEFB5
:101AE000EDCF60915D02683090F0685080915B02AC
:101AF000881F8827881F90915C02292F220F97FB4F
:101B0000992790F940915E02822B0C941F0D60E0A2
:101B1000EDCF40915E02483F90F4485F80915B02B8
:101B2000881F8827881F90915C02292F220F97FB1E
:101B3000992790F960915D02822B0C941F0D4FEF55
:101B4000EDCF40915E02483090F0485080915B02AA
:101B5000881F8827881F90915C02292F220F97FBEE
:101B6000992790F960915D02822B0C941F0D40E043
:101B7000EDCF20E00C94620C90915B0290FF44C08A
:101B80009178811128C0926090935B02662351F096
:101B900060915B0270915C0280915D0290915E02A7
:101BA0000E94D10B80915B02982F9E779230D9F4DE
:101BB00010928201881F8827881F90915C02292F2C
:101BC000220F97FB992790F940915E0260915D0288
:101BD000822B0C94B90D833210F09464D5CF8F739F
:101BE000880F982BD1CF982F96959F732EE3290FAE
:101BF0002F73273120F491E090938201DBCF995D20
:101C00009F739A30B8F6D4CF089561E00C94BC0D60
:101C100080915B0286958F738F5F833208F081E03D
:101C20000C94050E80915B0286958F73815009F4A8
:101C300082E20C94050EEBE5F2E080818160808306
:101C400086958F730C94050E60E00C94BC0D80910A
:101C50002D02816080932D0281E0809383010E9498
:101C6000DF1C811104C00E94B91C0E94D70B0E9486
:101C7000CD0B60935B0270935C0280935D02909346
:101C80005E026E7761F40E94D70B0E94CD0B6093C9
:101C90005B0270935C0280935D0290935E0281E030
:101CA0008093820180915B0280FF04C086958F73D0
:101CB0000C94240E0895EBE5F2E08081816080832E
:101CC00086958F730C94240EEBE5F2E080818E7F75
:101CD000808360817181828193810E94D10B1092F7
:101CE00082012FEF80E792E0215080409040E1F7A1
:101CF00000C000000C94220C80915B0280FD0C94CB
:101D0000640E0C941B0EEBE5F2E080818E7F8083E5
:101D1000109282012FEF80E792E0215080409040A6
:101D2000E1F700C000000C94220C81E08093820156
:101D30000895109282010895CF93C82F8091800159
:101D4000909181010E941C1EEC2FF0E0E05BFC4FA3
:101D5000E491E817190611F008F042C00E94101E25
:101D6000909381018093800160917F0170E090E009
:101D700080E00E94F62A20E030E04FE753E40E9422
:101D8000192A2BED3FE049E450E40E941F2C0E94E9
:101D90008C2C0E94932A2BE43AE34EE25FE30E94EC
:101DA000AC2920EF3BEF48ED52E40E941F2C0E942B
:101DB000C52A462F80915B02881F8827881F909133
:101DC0005C02292F220F97FB992790F960915D0201
:101DD000822B0E94480C80917F018F5F80937F014E
:101DE000CF910895CF93C82F80917D0190917E016E
:101DF0000E941C1EEC2FF0E0E35BFC4FE491E8171F
:101E0000190609F0E8F40E94101E90937E01809359
:101E10007D0140915E0260915D0280917B01909115
:101E20007C010E94480C80917B0190917C0101967D
:101E300068E671E00E94052D90937C0180937B0100
:101E4000CF910895CF92DF92FF920F931F93CF937C
:101E5000DF93F82E8091790190917A010E941C1EE7
:101E6000EF2DE695F0E0E65BFC4FE491E8171906EC
:101E700009F0A8F50E94101E90937A0180937901D1
:101E800000E612E0D0E0C0E088E6C82EDD24D3945E
:101E900080917701909178018C0F9D1FB6010E946F
:101EA000052D980140915E0260915D020E94580BE1
:101EB000A4960D5F1F4FC83681E0D80749F70E94EE
:101EC000220C8091770190917801F0FE10C001966C
:101ED000BE010E94052D9093780180937701DF91D8
:101EE000CF911F910F91FF90DF90CF9008950197B0
:101EF000F2CFCF92DF92EF92FF920F931F93CF9387
:101F0000DF93C82FFF24FA9480FD02C0FF24F394CE
:101F100080917501909176010E941C1EC695EC2F50
:101F2000F0E0E95BFC4FE491E817190611F008F0C6
:101F300051C00E94101E909376018093750100E6B7
:101F400012E0D0E0C0E0F80111821082128294E029
:101F5000C92ED12CE12C809174018E0D87FD865FF6
:101F6000082E000C990B8C179D07E9F480915E02F6
:101F70008C9DA0018D9D500D11245595479555952B
:101F8000479580915B02881F8827881F90915C028B
:101F9000592F550F97FB992790F9980160915D0291
:101FA000852B0E94580BEF0CF1E0CF1AD10899F65F
:101FB00021960D5F1F4FCA30D10529F60E94220CD1
:101FC0008091740191E0F91210C081110CC089E078
:101FD00080937401DF91CF911F910F91FF90EF904B
:101FE000DF90CF9008958150F3CF90E00196BE012D
:101FF0000E94192DEDCF0F931F93CF93DF93C82F1E
:1020000080917201909173010E941C1EEC2FF0E0F0
:10201000EC5BFC4FE491E817190611F008F052C090
:102020000E94101E9093730180937201C0E6D2E06B
:10203000FE01118210821282339682E0EE37F80799
:10204000C1F710E000E080917101082E000C990B9F
:1020500008171907E4F180910201082E000C990B72
:1020600080179107A4F180915B02881F8827881F41
:1020700090915C02592F550F97FB992790F99E017B
:1020800040915E0260915D02852B0E94580B0F5FAC
:102090001F4F23960A301105B1F60E94220C809141
:1020A000010190917101980F9093710120910201AB
:1020B000280F20930201121614F499301CF0819518
:1020C00080930101DF91CF911F910F9108951982A3
:1020D00018821A82DCCFEF92FF920F931F93CF9357
:1020E000DF9380916F01909170010E941C1E883EC9
:1020F0009340C8F10E94101E9093700180936F016D
:10210000C0916D01D0916E012196C170DD27D093F1
:102110006E01C0936D0180E6E82E82E0F82E10E09B
:1021200008E7812F86958C0F9D2F911D817099272F
:10213000970140915E0260915D02FC010E9FC0011B
:102140000F9F900D11240E94580B1F5FF3E0EF0EBC
:10215000F11C1A3031F7DF91CF911F910F91FF9051
:10216000EF900C94220CDF91CF911F910F91FF9073
:10217000EF90089580918201882391F190915B0204
:10218000892F86958F732EE3280F2F73243018F430
:1021900082500C949C0E2AE3280F2F73233018F4DE
:1021A00086500C94F20E27E3280F2F73263018F474
:1021B00089500C94220F21E3280F2F73263018F436
:1021C0008F500C94790F2BE2280F2F73233018F4C3
:1021D00085510C94FB0F9E77903311F40C946B1087
:1021E000089531B3242F2095232331B3432B3FB7D8
:1021F000F894680F791F8617970711F43FBF089569
:10220000FC015191CF01E8E041BB000000C057FF45
:1022100021BB550F000000C000C000C021BB00C0A2
:10222000EA9591F7E8CF20B3242B20BB9B01220F26
:10223000331F620F731F0E94F11087EC90E001972B
:10224000F1F700C00000089540E40C94131190933E
:102250008901809388010895E0918801F0918901B6
:10226000309721F00190F081E02D099480E00895ED
:10227000E0918801F0918901309721F00280F3818B
:10228000E02D09940895E0918801F091890130973B
:1022900021F00480F581E02D0994089520918601B4
:1022A000309187012817390771F090938701809347
:1022B0008601E0918801F0918901309721F0068034
:1022C000F781E02D099408952091840130918501D2
:1022D0002817390771F09093850180938401E0916C
:1022E0008801F0918901309721F00084F185E02D7B
:1022F0000994089508950C947A1181E008950E943C
:10230000071E0E94160A0E94D91E0E94ED210C94FD
:10231000270E5F926F927F928F929F92AF92BF92A1
:10232000CF92DF92EF92FF920F931F93CF93DF93A1
:10233000CDB7DEB72A970FB6F894DEBF0FBECDBF7C
:102340000E94810A0E947D11882309F47AC09BE8CB
:10235000A92E91E0B92E10E000E088248394912CFE
:10236000502E802F0E944E0B7C01F501C190D19020
:102370005F01C816D90609F45EC080912D0281FD67
:102380000E94570B90E080E0CE24DF243401082E19
:1023900002C0660C771C0A94E2F7960126213721C9
:1023A000232B09F443C08E835F82E620F72081E06F
:1023B000EF2809F480E088870E94101E8160782F42
:1023C0009A8789874E815F8168858A850E94481235
:1023D000000F111FF801E557FE4F8081918168269B
:1023E0007926718260820E9457210E942C1190915F
:1023F0008A018917B9F10E942C1180938A012A96CB
:102400000FB6F894DEBF0FBECDBFDF91CF911F9105
:102410000F91FF90EF90DF90CF90BF90AF909F9083
:102420008F907F906F905F900C94310701968F3062
:10243000910509F0ABCF0F5F1F4F0530110509F073
:102440008FCF8FEF89838A831B820E94101E816049
:10245000782F9D838C8349815A816B818D810E9465
:102460004812C1CF2A960FB6F894DEBF0FBECDBF7B
:10247000DF91CF911F910F91FF90EF90DF90CF9060
:10248000BF90AF909F908F907F906F905F900895D6
:10249000CF93DF93CDB7DEB72B970FB6F894DEBF9F
:1024A0000FBECDBF4F83588769877A878B871E827F
:1024B0001D8285E0FE013796DE01119601900D9296
:1024C0008A95E1F749815A816B817C818D819E815A
:1024D0002B960FB6F894DEBF0FBECDBFDF91CF9124
:1024E0000C942419FC01808191810C94D81B8823C1
:1024F00009F4F3C08238B9F40E942C1181FDEDC0BB
:1025000089E30E94061C0E944A1C2FEF81EE94E092
:10251000215080409040E1F700C0000089E30E9414
:102520000D1C0C944A1C8338A1F40E942C1180FDD0
:10253000D4C083E50E94061C0E944A1C2FEF81EE46
:1025400094E0215080409040E1F700C0000083E516
:10255000E6CF8438A1F40E942C1182FDBEC087E42E
:102560000E94061C0E944A1C2FEF81EE94E021502D
:1025700080409040E1F700C0000087E4D0CF9CEF9E
:10258000980F913A18F40E94061CCBCF90E2980F56
:10259000983050F4877091E001C0990F8A95EAF75E
:1025A000892F0E94801CBDCF9BE5980F933070F45B
:1025B000853A31F0863A39F083E890E00C944E1178
:1025C00081E890E0FBCF82E890E0F8CF98E5980FA3
:1025D000953108F082C0883A09F440C0893A09F47C
:1025E00040C08A3A09F440C08B3A09F440C08C3AA2
:1025F00009F440C08B3B09F440C08C3B09F440C057
:102600008D3A09F440C0803B09F440C08E3A09F489
:1026100040C08F3A09F440C0813B09F440C0823B7E
:1026200009F440C0833B09F440C0843B09F440C036
:10263000853B09F440C0863B09F440C0873B09F460
:1026400040C0883B09F440C0893B09F440C08A3B44
:1026500009F440C090E080E00C94641182EE90E0B8
:10266000FBCF89EE90E0F8CF8AEE90E0F5CF85EBD6
:1026700090E0F2CF86EB90E0EFCF83EB90E0ECCFF1
:1026800084EB90E0E9CF87EB90E0E6CF8CEC90E034
:10269000E3CF8DEC90E0E0CF83E891E0DDCF8AE8F6
:1026A00091E0DACF82E991E0D7CF84E991E0D4CF0D
:1026B00081E292E0D1CF83E292E0CECF84E292E059
:1026C000CBCF85E292E0C8CF86E292E0C5CF87E229
:1026D00092E0C2CF8AE292E0BFCF0895882309F446
:1026E0004BC0823871F40E942C1181FF45C089E3F0
:1026F0000E94061C0E944A1C89E30E940D1C0C9437
:102700004A1C833859F40E942C1180FF35C083E5A0
:102710000E94061C0E944A1C83E5EFCF843859F4BE
:102720000E942C1182FF28C087E40E94061C0E9490
:102730004A1C87E4E2CF9CEF980F913AF0F290E2C6
:10274000980F983050F4877091E001C0990F8A95E6
:10275000EAF7892F0E94861CD2CF9BE5980F933011
:1027600020F490E080E00C944E11885A853120F4DA
:1027700090E080E00C9464110895882321F00E9479
:10278000801C0C944A1C0895882321F00E94861C0A
:102790000C944A1C08958F929F92AF92BF92CF9251
:1027A000DF92EF92FF920F931F93CF93DF937C0101
:1027B000D62FC72FFC01058102950F7012811111D0
:1027C0000E949D1C0E94431CC82E882371F0112377
:1027D000B1F080E28D0F883090F082E00E942D1CD5
:1027E0000E94431C91E0C82EC926DC2ED2949FE0A3
:1027F000D922ED2DF0E0E553F24D0C944F2DC12C74
:10280000F4CF0C2F0F70C07F11F00295007F1123C1
:10281000A9F0002359F080E28D0F883010F0D1111B
:1028200009C0802F0E94801C0E944A1C8D2F0E948C
:10283000771214C0802F0E94901CF6CF8D2F0E941B
:102840006E13002359F080E28D0F883010F0D11103
:1028500033C0802F0E94861C0E944A1C98E0D91623
:1028600039F0D91648F086EF8D0D8F70823020F444
:102870000E942C110E943107CC2009F4FCC10E9457
:10288000201C80FDF8C1F70112820E941A1C0E94D0
:10289000A61AC7010E9448160E941A1CDF91CF9108
:1028A0001F910F91FF90EF90DF90CF90BF90AF906E
:1028B0009F908F900C94C71A802F0E94961CCCCFAB
:1028C000FC2FFF70BF2EC07FC03219F0B29480EF92
:1028D000B822DD2369F0D13049F1112391F10023B1
:1028E00051F1F701858180FFA1CF8F70858323C0CF
:1028F000112381F0011106C00E94B61C8B290E9491
:10290000BD13ACCF0130C1F70E94B61C8B290E94C9
:10291000B01CA4CF011106C00E94B31C8B2D0E94D5
:10292000C4139CCF013009F499CFF6CF112329F0BD
:10293000063008F093CF8B2DE2CF053008F08ECF14
:10294000EDCF002359F38D2F0E946E1387CF8C2F6C
:1029500086958695837069F0813009F07FCF8D2F41
:102960009C2F9370111102C090E080E00E946411CE
:1029700075CF8D2F9C2F9370111102C090E080E0D5
:102980000E944E116BCF112309F1D53F99F0D63F2C
:10299000B9F0D43F49F480917E0290917F0281602A
:1029A00090937F0280937E028D2F0E9465200E946B
:1029B0004C2154CF80917E0290917F028260F0CFB3
:1029C00080917E0290917F028460EACFD53F89F0AA
:1029D000D63FA9F0D43F49F480917E0290917F02C6
:1029E0008E7F90937F0280937E028D2F0E94CD2058
:1029F000DECF80917E0290917F028D7FF2CF809119
:102A00007E0290917F028B7FECCF8C2F837009F038
:102A100047C0111123CF2D2F229526952770220F05
:102A2000220F6D2F6F70862E912CB12CA12C022EAF
:102A300004C0880C991CAA1CBB1C0A94D2F760E045
:102A400070E0CB01D4FF0FC06FE070E080E090E059
:102A500004C0660F771F881F991F2A95D2F76095CB
:102A6000709580959095C695C695C370C23051F00B
:102A700080F4682979298A299B29C13071F00E9444
:102A8000581AECCE682979298A299B290E946A1A4A
:102A9000E5CE0E94581AC501B4010E94461ADECE46
:102AA0008695112311F08C2F8170882309F4D6CEDE
:102AB0002D2F229526952770220F220F6D2F6F70D4
:102AC000862E912CB12CA12C022E04C0880C991CAE
:102AD000AA1CBB1C0A94D2F760E070E0CB01D4FFC3
:102AE0000FC06FE070E080E090E004C0660F771FD9
:102AF000881F991F2A95D2F76095709580959095BB
:102B0000C695C695C370C23051F080F46829792902
:102B10008A299B29C13071F00E941D1B9FCE682914
:102B200079298A299B290E942F1B98CE0E941D1B60
:102B3000C501B4010E940B1B91CEE0E2ED0FE5311F
:102B400008F04DC0F0E0E552F24D0C944F2DDF70CF
:102B50008C2F8F71112321F00E94A61A8D2FCFCEBA
:102B60000E94C71A8D2FDBCE112341F0053008F0EB
:102B700075CE8C2F8F710E94EA1A70CE063008F045
:102B80006DCEF7CF8C2F8F71112339F00E94A61ACA
:102B900065CE8C2F8F711123C9F30E94C71A5ECEA8
:102BA000112329F08C2F8F710E94911A57CE0E9409
:102BB0008C1A54CE112349F0CF718C2F0E94A61A83
:102BC00063E08C2F0E94241C49CE81E00E942D1CC2
:102BD000023008F443CE82E00E942D1C3FCE112328
:102BE00029F0011123CE8C2F8F71D0CF002369F0F3
:102BF000D93309F0A8CEFFEF27EE83E0F150204053
:102C00008040E1F700C000009ECE8C2F8F71C5CFB1
:102C10004C2F4F706D2FC7010E9433070E94BE19C1
:102C20001DCE11111BCECF70C230B1F040F4CC23B9
:102C300081F0C13009F012CE0E941E220FCEC430A6
:102C400089F068F080E0C53009F008CE0E94742257
:102C500005CE0E94062202CE0E943722FFCD0E949E
:102C60005122FCCD85E0F2CF4C2F4F706D2FC70164
:102C70000E944D03F3CDDF91CF911F910F91FF90F3
:102C8000EF90DF90CF90BF90AF909F908F9008957E
:102C90000F931F93CF93DF93EC018B819C81892B42
:102CA00029F08881998189238F3F29F4DF91CF9181
:102CB0001F910F910895CE010E9402048823B1F361
:102CC000688179818A810E94E21B8C010E94411BEC
:102CD0000E94431AB801CE01DF91CF911F910F914D
:102CE0000C94CB130E949D1C0E94AD1C0E94141CCE
:102CF0000E944A1C0E94E1210E944C2190E080E049
:102D00000E944E1190E080E00C9464110E948D1C92
:102D10000C9472160E94D81BE92FE295EF70E250D6
:102D2000EE3070F4F0E0E051F24D0C944F2D803F06
:102D300019F020F4803E20F481E00895843FE1F30F
:102D400080E00895803EC0F3813FD1F7F5CF93FB3B
:102D5000882780F90895CF93DF9300D000D00F9299
:102D6000CDB7DEB70F900F900F900F900F90DF91BF
:102D7000CF910895CF93DF9300D000D000D0CDB78E
:102D8000DEB726960FB6F894DEBF0FBECDBFDF913B
:102D9000CF9108951F93CF93DF93C091960116E0D2
:102DA000809197018C1304C0DF91CF911F910895FA
:102DB000D0E01C9FF0011D9FF00D1124E856FE4F3E
:102DC0004081518162817381848195810E94BA160C
:102DD0002196C770E5CF4091C8015091C90160911B
:102DE000CA017091CB018091CC019091CD010C94DE
:102DF000BA161F93CF93DF938091CD01807FC1F4EA
:102E00008091CA018823A1F080919601C091970119
:102E10006091C8017091C9014091CB015091CC01E2
:102E2000D62FD723DA01A095B09516E0C81304C0B9
:102E3000DF91CF911F91089590E04115510511F058
:102E4000DF3F31F401968770F1CF2A0F3B1F17C087
:102E5000189FF001199FF00D1124E856FE4F2181B3
:102E60002713F0CF20812613EDCF22812111EACF45
:102E7000238134812417350740F3241B350B283C6C
:102E8000310500F72091CD012F7020612093CD01F5
:102E900026E0289FF001299FF00D1124E356FE4FF4
:102EA00080818F708061808388EC91E00E94481659
:102EB000DF91CF911F910C94CA16BF92CF92DF92EF
:102EC000EF92FF920F931F93CF93DF93CDB7DEB7AF
:102ED00061970FB6F894DEBF0FBECDBF8C0185E0C1
:102EE000F801DE011D9601900D928A95E1F7D80157
:102EF0004C9111965C9111971296EC9012978091DB
:102F0000CB019091CC01009709F47FC12091C801B9
:102F10003091C901622F63236F3F09F476C1139684
:102F2000CD90DC90B090CA01BB2009F411C1C81645
:102F3000D906D0F1F601E81BF90BCF01FF24F39479
:102F4000883C910508F0F12C8091CD01982F907F5D
:102F5000FF2009F4B8C091117FC0FE2C351329C0A1
:102F6000241327C0E11025C08F7080618093CD01AC
:102F70000E94EB1688EC91E00E9448168091CD01EA
:102F8000D80115968C938F2D61960FB6F894DEBFFD
:102F90000FBECDBFDF91CF911F910F91FF90EF90AA
:102FA000DF90CF90BF900895809590958C0D9D1DDA
:102FB000C5CFCD2829F0852F84238F3F09F041C14B
:102FC00080E0B82FB170DB2E80FF3CC0809196016D
:102FD0002091970136E0821315C04D875E878D855D
:102FE0009E850E94D81B292F22952F702230F0F049
:102FF000243018F59F70F1F0F8019581907FD1F49D
:10300000D12C1EC090E0389FF001399FF00D1124A3
:10301000E856FE4F6181651306C06081641303C0EA
:103020006281E6120FC001968770D5CF9F7011F0B4
:10303000882331F3805E883018F3C8010E94481657
:10304000FD2CA1CFEE2009F49ECF8091CD018160AF
:103050008093CD01F12C97CF351306C0241304C003
:10306000D801EE2009F49AC04D875E878D859E8534
:103070000E948A16882319F1EE2009F18091CD0172
:10308000803270F02091C8013091C90138872F83B8
:103090001986DB86CA868C87CE0107960E94481661
:1030A00086E0F801A8ECB1E001900D928A95E1F775
:1030B0000E94F9160E94EB16FF24F39464CFC80116
:1030C0000E944816F9CF911113C07C2DD98AC88A65
:1030D0006E2D89890E94AB1688EC91E00E944816FB
:1030E00086E0E8ECF1E0DF011D928A95E9F763C024
:1030F000351312C0241310C0E1100EC0F8018583EF
:10310000C8010E944816E8ECF1E086E0DF011D925C
:103110008A95E9F7FB2C37CF4D875E878D859E8595
:103120000E948A16882359F2EE2049F28091CD013F
:10313000803208F4B5CF2091C8013091C9013A839B
:1031400029831B82DD82CC828E83CE010196A6CF9D
:10315000C816D90698F1F601E81BF90BCF01F12C3E
:10316000883C910508F049C0FE2CEE2009F4A7CF59
:10317000351332C0241330C08091CD0180FD23C0AF
:10318000982F907F01F1D80115968C931597903F59
:1031900039F0982F907F905F8F70892B15968C93C4
:1031A000C8010E94481686E0F801A8ECB1E0019041
:1031B0000D928A95E1F70E94EB16E5CE80959095E9
:1031C0008C0D9D1DCCCF86E0F801A8ECB1E00190FC
:1031D0000D928A95E1F7D7CE4D875E878D859E85C6
:1031E0000E948A1681115CCF8091CD01816080930D
:1031F000CD01C8010E944816C6CE7C2DD98AC88A46
:103200006E2D89890E94AB166BCFEE2009F457CF43
:103210004D875E878D859E850E948A16F82E8823AD
:1032200009F44DCF86E0F801A8ECB1E001900D92D1
:103230008A95E1F788EC91E00E9472120E94F916DB
:10324000BACF81E08E25BDCE1F93CF93DF93CDB74C
:10325000DEB72C970FB6F894DEBF0FBECDBF4F83FD
:10326000588769877A878B879C87CE0107960E944B
:103270005D17882369F08A859B85892B39F04F81FA
:103280005885842F85238F3F09F071C016E05FC0F9
:1032900086E0FE013796DE01119601900D928A9527
:1032A000E1F78A859B85892B89F388859F8189230E
:1032B0008F3F61F32091970130E0C901019687703B
:1032C0009927409196014817190671F40E948616B5
:1032D000109297011092960186E0E8ECF1E0DF0190
:1032E0001D928A95E9F7D2CF96E0929FD001939FE5
:1032F000B00D1124A856BE4FFE01319601900D92DB
:103300009A95E1F7809397010E94CA16BFCF819FDB
:10331000C001112488569E4F0E945D178823E9F052
:10332000E09196011E9FF0011124E856FE4F408166
:10333000518162817381848195810E94BA16809146
:10334000960190E00196877099278093960180916D
:103350009601909197018913DACF2C960FB6F894C5
:10336000DEBF0FBECDBFDF91CF911F91089569855C
:103370007A858B859C850E94BA1688CFEF92FF9242
:103380000F931F93CF93DF938C01892B81F0F12C46
:10339000EE24E394E8012196F8018491843770F4D7
:1033A000843008F05FC08130B1F08230A1F1DF914C
:1033B000CF911F910F91FF90EF900895853709F4F9
:1033C0004CC008F43DC09CE7980F903780F78F778A
:1033D0000E946E1349C00E5F1F4FFE01849190E260
:1033E000980F983060F48770FE2D01C0FF0F8A950A
:1033F000EAF78F2F0E94A01C0E944A1C02C00E9464
:1034000077128F2D815030F2EFE9FFE03197F1F71D
:1034100000C00000F7CF0E5F1F4FFE01849190E2C5
:10342000980F983050F48770FE2D01C0FF0F8A95D9
:10343000EAF78F2F0E94A61CDFCF0E946E13E1CF08
:103440000E5F1F4FFE01C491C150D8F28FE99FE07B
:103450000197F1F700C00000F7CF0E5F1F4FFE018C
:10346000F490CFCF0E9477128E01CBCF08950E94A7
:10347000361A6093040270930502809306029093BB
:1034800007020C94721608950C94371A0F931F9329
:10349000009104021091050220910602309107026A
:1034A000602B712B822B932B1F910F910C94371A49
:1034B0000F931F93009104021091050220910602C0
:1034C0003091070260237123822393231F910F9170
:1034D0000C94371A0F931F93009104021091050268
:1034E00020910602309107026027712782279327D7
:1034F0001F910F910C94371A0C94361A0C947C1A65
:103500000E947E1A6093000270930102809302026F
:10351000909303020C94721660E070E0CB010C945F
:10352000801A0F931F9341E050E060E070E08A0141
:103530009B0104C0000F111F221F331F8A95D2F771
:10354000C901B8011F910F910C94801A0F931F931A
:1035500041E050E060E070E004C0440F551F661F7A
:10356000771F8A95D2F78091000290910102A09175
:103570000202B09103028A019B01082B192B2A2B0E
:103580003B2BC901B8011F910F910C94801A0F9326
:103590001F9341E050E060E070E004C0440F551F0D
:1035A000661F771F8A95D2F7CB01BA016095709597
:1035B00080959095009100021091010220910202E5
:1035C0003091030260237123822393231F910F9173
:1035D0000C94801A0F931F9341E050E060E070E07C
:1035E00004C0440F551F661F771F8A95D2F780913C
:1035F000000290910102A0910202B09103028A019F
:103600009B01082719272A273B27C901B8011F91C9
:103610000F910C94801A0F931F9300910002109148
:1036200001022091020230910302602B712B822B48
:10363000932B1F910F910C94801A0F931F9300915D
:1036400000021091010220910202309103026023D6
:103650007123822393231F910F910C94801A0F934F
:103660001F930091000210910102209102023091FB
:10367000030260277127822793271F910F910C94D3
:10368000801A08952FE0929F800D1124982F977033
:1036900041E001C0440F9A95EAF786958695869594
:1036A00095E0899FF0011124E253FE4F90E080E005
:1036B00070E05191DF0111979B01082E02C03695F1
:1036C00027950A94E2F721702195252724232527A1
:1036D0002C9301968530910561F708952FE0929F14
:1036E000800D1124982F977086958695869525E0F4
:1036F000829FF0011124E253FE4F50E040E080E051
:10370000219130E0092E02C0369527950A94E2F700
:1037100021703327042E01C0220F0A94EAF7822B6E
:103720004F5F5F4F4530510559F70895BF92CF92D3
:10373000DF92EF92FF920F931F93CF93DF938C0151
:10374000C0900002D0900102E0900202F0900302CB
:103750008091040290910502A0910602B0910702A7
:10376000C82AD92AEA2AFB2ACFE1D0E0BC2ED70109
:10377000C6010C2E04C0B695A795979587950A9417
:10378000D2F780FD0EC0219788F7B12C8B2DDF91E9
:10379000CF911F910F91FF90EF90DF90CF90BF904E
:1037A0000895B8018C2F0E945207019761F3EECF64
:1037B000CF93DF93EC010E94961BBE01DF91CF9166
:1037C0000C9452071F93CF93DF93EB0190919501D7
:1037D000992331F0CB01DF91CF911F910C94D81B2D
:1037E000882379F0CB010E94961B182F682FCE01F9
:1037F0000E94421BBE01812FDF91CF911F910C943B
:103800005207CB010E946E1B182FF4CF682F8091B6
:103810000301909104010C946B1D682F80910301AA
:10382000909104010C94761D809103019091040104
:103830000C94811D80910802859585958595089544
:10384000809108028770089598E0899F9001112463
:10385000622B609308020C94A61A9091080280953E
:10386000892380930802282F277061F4282F082EBF
:10387000000C330B9217130629F0859585958595D5
:103880000C94C71A089590910802977081E009F48A
:1038900080E00895E0910301F091040180912C02F1
:1038A0008083E0910301F0910401808190912B02CB
:1038B000892B8083E0910301F09104018081909134
:1038C0002A02892B808390910902992381F0E0914B
:1038D0000301F09104018081892B80838091030191
:1038E000909104010E940E1D811110920902809195
:1038F0000301909104010C94381180912C020895D9
:1039000090912C02892B80932C02089580959091A0
:103910002C02982390932C02089510922C02089563
:1039200090912B02892B80932B0208958095909182
:103930002B02982390932B02089510922B02089546
:1039400090912A02892B80932A0208958095909164
:103950002A02982390932A02089510922A02089529
:103960008093090208951092090208958091090236
:1039700008956DEE7EEF90E080E00E94A12D60E062
:1039800082E090E00E94832D60E083E090E00E945E
:10399000832D60E084E090E00E94832D60E085E06C
:1039A00090E00E94832D60E086E090E00E94832DED
:1039B00040E050E0BA0188E090E00C94952D90E052
:1039C00080E00E947D2D21E08D3E9E4F09F020E099
:1039D000822F089582E090E00C946F2D682F82E092
:1039E00090E00C94832D83E090E00C946F2D682F71
:1039F00083E090E00C94832D84E090E00C946F2D94
:103A0000682F84E090E00C94832D86E090E00C9485
:103A10006F2D682F86E090E00C94832DFC01319689
:103A20009C01205E3F4F80E0919191118F5FE217E2
:103A3000F307D1F708959C01FC0132969FEF80E0D7
:103A40004191461751F09F3F19F4411101C0982F41
:103A50008F5F8E31A9F79F3F09F40895290F311D1B
:103A600097FD3A95F90162830895FC01329680969C
:103A70002191261303C0DF0111971C92E817F90763
:103A8000B9F70895E62FE695E695E695EF3169F0EA
:103A9000E80FF92FF11D677021E030E001C0220F1F
:103AA0006A95EAF78181822B81830895E62FE69556
:103AB000E695E695EF3171F0E80FF92FF11D67708B
:103AC00021E030E001C0220F6A95EAF7209581815C
:103AD00028232183089520911501222329F0209184
:103AE000840227FD0C94421D0C941B1D209115018E
:103AF000222329F02091840227FD0C94561D0C945A
:103B0000351DFC01319680961192E817F907E1F70F
:103B1000089580918B02843009F42EC010922E02F9
:103B200088E190E020E40FB6F894A89580936000B7
:103B30000FBE2093600080E00E94C00380E00E94DE
:103B400031070E94990E0E94830E83B7817F8460A3
:103B500083BF83B7816083BF7894889583B78E7F56
:103B600083BF0FB6F894A895809160008861809318
:103B70006000109260000FBE089508950895CF93DD
:103B80000E94BD1D0E94810A0E94BE1DC0E08C2FB4
:103B90000E944E0B892B31F4CF5FC530C1F780E016
:103BA000CF91089581E0FCCF0E9486160E94ED21FE
:103BB0000E942C110E9431070E945B0E0C94950EFE
:103BC0001F921FB61F9211248F939F93AF93BF93A1
:103BD00080912E02811113C0809180029091810208
:103BE000A0918202B09183024196A11DB11D8093E4
:103BF000800290938102A0938202B0938302BF91CE
:103C0000AF919F918F911F901FBE1F90189582E0DA
:103C100084BD93E095BD9AEF97BD80936E000895A3
:103C20002FB7F8948091800290918102A091820236
:103C3000B09183022FBF0895CF92DF92EF92FF924F
:103C40000F931F932FB7F8944091800250918102F7
:103C500060918202709183022FBF6A017B01EE2482
:103C6000FF248C0130E020E0C016D106E206F30606
:103C700050F0481B590BCA011F910F91FF90EF9014
:103C8000DF90CF90089541505109F3CF78941F925F
:103C90001FB61F9211248F939F93AF93BF93809170
:103CA000800290918102A0918202B09183020196DC
:103CB000A11DB11D8093800290938102A093820286
:103CC000B0938302BF91AF919F918F911F901FBEC0
:103CD0001F90189581E08093E00080E28093D800E7
:103CE0001092C9008FE19EE40197F1F700C0000037
:103CF00087E090EBDC018093940290939502A0936F
:103D00009602B093970288E19CE00FB6F894A895CC
:103D1000809360000FBE90936000FFCFAF92BF9280
:103D2000CF92DF92EF92FF920F931F93CF93C0E059
:103D3000CC24C394D12CE82EF12C8C2F0E944E0B56
:103D40005C0110E000E0C601002E02C0880F991F40
:103D50000A94E2F78A219B21892B99F40F5F1F4F68
:103D60000F30110581F7CF5FC53039F780E0CF9173
:103D70001F910F91FF90EF90DF90CF90BF90AF9089
:103D80000895602F7C2F80E00E943607E816F90620
:103D900029F781E0ECCFCF93C82F8CE20E948E1ED2
:103DA000882321F08C2FCF910C948E1E80E0CF9130
:103DB0000895CF930E94DF1C811102C00E94B91C9C
:103DC000C5E608C00E94810A8FE39CE90197F1F7DC
:103DD00000C00000C150B1F789E20E94CB1E8111E2
:103DE000EFC08AE20E94CB1E81110E94B91C85E0BF
:103DF0000E94CB1E81110E946A1E0E94EA1C8093C1
:103E00002D0287E00E94CB1E882371F08BE10E9477
:103E1000CB1E882309F4B1C090912D02892F8D7F8C
:103E200091FF826080932D0280912D020E94EE1CF2
:103E30000E94FC1C90E0909385028093840280EEA7
:103E40000E94CB1E882341F090918402892F8E7F9F
:103E500090FF81608093840289E30E94CB1E8823B7
:103E600041F090918402892F8D7F91FF8260809331
:103E7000840282EE0E94CB1E882341F0909184023E
:103E8000892F8B7F92FF84608093840286EE0E944C
:103E9000CB1E882341F090918402892F877F93FF66
:103EA00088608093840283EE0E94CB1E882341F0B9
:103EB00090918402892F8F7E94FF80618093840289
:103EC00085E30E94CB1E882341F090918402892FC4
:103ED0008F7D95FF80628093840281E30E94CB1ED8
:103EE000882341F090918402892F8F7B96FF806414
:103EF0008093840281E10E94CB1E882341F090913F
:103F00008402892F97FB87F98058809384028091DF
:103F100084020E94001D87E20E94CB1EC82F8EE102
:103F20000E94CB1E8111C2608FE10E94CB1E8111C5
:103F3000C46080E20E94CB1E8111C86081E20E94B1
:103F4000CB1E8111C06182E20E94CB1E8111C06232
:103F500083E20E94CB1E8111C06484E20E94CB1ECA
:103F6000882341F1C0688C2F0E94F71C6C2F70E0F1
:103F700090E080E0CF910C94441A8EE00E94CB1E1A
:103F8000882339F090912D02892F8B7F92FF8460D6
:103F900049CF80E10E94CB1E90912D02882329F009
:103FA000892F877F93FF88603DCF892F8E7F90FF79
:103FB000816038CFC111D7CF0E94F31C682FD7CFB3
:103FC000CF9108958091310280FF12C06091080165
:103FD00085E0689FB0011124759567957595679583
:103FE00060387105A8F561157105A1F1862F089556
:103FF00081FF09C06091080185E0689FB00111242C
:1040000075956795EDCF6091080182FD0AC080919A
:1040100032028823D1F0909107016091080189173D
:1040200028F085E0689FB0011124DACF869FB001A7
:10403000112485E0869F9001879F300D1124692F00
:1040400070E0C9010E94192DCBCF65E070E0CECFA2
:104050008FE7089581E008958091310280FF0CC0C0
:104060006091060170E07595679575956795611586
:10407000710549F1862F089581FF06C06091060100
:1040800070E075956795F3CF6091060182FD0BC0D6
:10409000909132029923A1F060910501809106016F
:1040A000961738F0682F70E06038710500F38FE7DD
:1040B0000895899FC001112470E00E94192DF4CF4A
:1040C00061E070E0D7CF81E00895803F31F40E9435
:1040D000E21F8195809335020895813F19F40E9473
:1040E000E21FF8CF823F31F40E94E21F8195809356
:1040F00034020895833F19F40E94E21FF8CF893FEC
:1041000029F40E942C208093360208958A3F21F4DE
:104110000E942C208195F7CF8B3F31F40E942C20F8
:1041200081958093370208958C3F19F40E942C20CA
:10413000F8CF843F31F48091330281608093330261
:104140000895853F21F4809133028260F7CF863F46
:1041500021F4809133028460F1CF873F21F4809174
:1041600033028860EBCF883F21F480913302806175
:10417000E5CF8D3F31F4809131028160809331022F
:1041800008958E3F21F4809131028260F7CF8F3FF6
:10419000B9F7809131028460F1CF90913402803F71
:1041A00041F48091350287FD10923502992371F018
:1041B0000895813F29F4809135021816ACF3F6CFAB
:1041C000823F81F497FFF2CF109234028091350242
:1041D00090913602892B90913702892B49F71092E2
:1041E00032020895833F19F4191674F3DFCF893F23
:1041F00039F4809136021816CCF610923602D6CFDA
:104200008A3F29F48091360287FFD0CFF6CF8B3FCB
:1042100039F48091370287FFC9CF10923702C6CF99
:104220008C3F29F4809137021816BCF3BFCF843F2E
:1042300031F4809133028E7F80933302B7CF853F74
:1042400021F4809133028D7FF7CF863F21F4809156
:1042500033028B7FF1CF873F21F480913302877F38
:10426000EBCF883F21F4809133028F7EE5CF8D3FE5
:1042700031F4809131028E7F8093310297CF8E3F4F
:1042800021F4809131028D7FF7CF8F3F09F08ECFDF
:10429000809131028B7FF0CF83E392E00E94431143
:1042A0000E94101E9093300280932F0208951F9356
:1042B000CF93DF9380912F02909130020E941C1EB9
:1042C000AC01909132022091090130E0911106C0B9
:1042D00020910A018AE0289F900111244217530778
:1042E00078F020913402C0913502D09136021091BD
:1042F0003702211109C08C2F8D2B812B09F05DC055
:10430000DF91CF911F9108959F3F19F09F5F909388
:104310003202121624F40E94E21F8093340280912C
:10432000340287FF05C00E94E21F8195809334020A
:104330001C1624F40E94E21F8093350280913502FE
:1043400087FF05C00E94E21F81958093350240914E
:104350003402442379F030913502332359F025EBB0
:104360004203A0011124509334023203900111241E
:10437000309335021D1624F40E942C2080933602BF
:104380008091360287FF05C00E942C208195809382
:104390003602111624F40E942C208093370280915B
:1043A000370287FF05C00E942C2081958093370239
:1043B000DF91CF911F910C944C219F3F09F0A6CF24
:1043C000B7CF85E0E3E3F2E0DF011D928A95E9F7DC
:1043D000109232021092310208950E94DF1C811166
:1043E00002C00E94B91C0E94051D809386028C3079
:1043F00020F081708A60809386028091860280FF1F
:1044000003C086950C94C00380E0FCCF80918602A7
:10441000982F9695953030F49F5F990F8170892B76
:1044200080938602809186028160809386020E943A
:10443000091D8091860286950C94C00380918602A6
:10444000982F9E7F79F08250809386028E7F91E034
:1044500009F490E08091860290FB80F980938602B7
:104460000E94091D8091860286950C94C00390914C
:104470008602892F8E7F90FF816080938602813033
:1044800019F483E080938602809186020E94091DC0
:104490008091860280FF03C086950C94C00380E063
:1044A000FCCF90918602892F86958F5F8F779170D0
:1044B0008630B8F4880F892B80938602809186021B
:1044C0008E7F91E009F490E08091860290FB80F964
:1044D000809386020E94091D8091860286950C9425
:1044E000C00390938602EACF863008F085E0982FCB
:1044F000990F809186028170892B809386028E7F2E
:1045000091E009F490E08091860290FB80F980931D
:1045100086020E94091D8091860286950C94C00334
:1045200080918602869508958091580208950F9390
:104530001F93CF93DF9300D00F92CDB7DEB78C01DE
:104540000E940825823011F0843019F583E08983B8
:104550001B830A838093E9008FEF9091E8008150DC
:1045600095FD06C095ED9A95F1F700008111F5CF04
:104570008091E80085FF0DC050E040E063E070E00E
:10458000CE0101960E9425258091E8008E778093C8
:10459000E8000F900F900F90DF91CF911F910F9136
:1045A0000895CF93DF9300D00F92CDB7DEB720915F
:1045B0008B02243031F522E02983805891099B83B6
:1045C0008A8383E08093E9008FEF9091E800815027
:1045D00095FD06C095ED9A95F1F700008111F5CF94
:1045E0008091E80085FF0DC050E040E063E070E09E
:1045F000CE0101960E9425258091E8008E77809358
:10460000E8000F900F900F90DF91CF910895CF9316
:10461000DF93EC010E940825823011F08430F9F418
:1046200082E08093E9008FEF9091E800815095FD42
:1046300006C095ED9A95F1F700008111F5CF8091B4
:10464000E80085FF0CC050E040E065E070E0CE017E
:104650000E9425258091E8008E778093E800DF9105
:10466000CF910895CF93DF93EC010E94082582300B
:1046700011F08430F9F4809115018823F1F08091D4
:10468000840287FF1AC084E08093E9008FEF909145
:10469000E800815095FD06C095E19A95F1F700007C
:1046A0008111F5CF8091E80050E040E060E270E0D9
:1046B00085FD1AC0DF91CF91089581E08093E900D4
:1046C0008FEF9091E800815095FD06C095ED9A9589
:1046D000F1F700008111F5CF8091E80085FFEACF66
:1046E00050E040E068E070E0CE010E942525809116
:1046F000E8008E778093E80080E2FE01A8E3B2E054
:1047000001900D928A95E1F7D5CF80918A028111AF
:1047100009C00E94B3260E9410278091E2008460A5
:104720008093E200089510928A02089508950895F2
:104730000C94D41D42E061EC81E00E94312642E0FD
:1047400061EC82E00E94312642E061EC83E00E944D
:10475000312642E261EC84E00C94312680918D0296
:10476000833009F455C030F4813071F1823009F49E
:1047700091C008958A3009F47DC08B3009F463C07C
:10478000893009F044C080918C02813209F03FC029
:104790008091900290919102009711F00397B9F5E2
:1047A0008091E800877F8093E8008091E80082FF95
:1047B0002AC08091F100809358028091E8008B77A5
:1047C0008093E8000C94652680918C02813AF9F47C
:1047D0008091E800877F8093E8008091900290911B
:1047E0009102892B61F460E288E392E070E00E941C
:1047F00074258091E8008B778093E800089560E04D
:1048000090E080E0F3CF80918B028111CECF0895AC
:1048100080918C02813AD9F7809190029091910217
:10482000892BA9F78091E800877F8093E800809129
:10483000E80080FFFCCF809115018093F10080910A
:10484000E8008E77BDCF80918C02813201F7809194
:10485000900290919102892BD1F68091E800877F98
:104860008093E8000E94652680918E028093150156
:104870000C94861680918C02813249F68091E80072
:10488000877F8093E8000E94652680918F02809345
:104890005902089580918C02813A09F0B8CF809135
:1048A000E800877F8093E8008091E80080FFFCCFDC
:1048B00080915902C2CF84B7877F84BF0FB6F89426
:1048C000A8958091600088618093600010926000DC
:1048D0000FBE80E880936100109261000E947B11FE
:1048E0000E94B3260E9410278091E200846080938A
:1048F000E20078940E9490290E947F118BE091E061
:104900000E94271180918B02853029F00E94891125
:104910000E94BA10F7CF0E94891D809189028823D6
:1049200089F30E94BF1D882369F30E940F25EACFF7
:104930000C949A24292F33272330310521F168F470
:104940002130310509F449C02230310509F44AC04B
:1049500090E080E030E020E029C02132310581F193
:1049600022323105A9F76430710590F7FB01EE0F93
:10497000FF1FE25DFE4F20813181665D7E4FFB01AE
:10498000808190E013C099278130910599F00097BC
:1049900041F08230910589F00397D1F6E4E5F4E027
:1049A00002C0E4E8F4E0849190E09F01FA013183D1
:1049B00020830895E0E7F4E0F6CFEAE5F4E0F3CFF2
:1049C0006430710528F6660F771FFB01EA5CFE4F25
:1049D0002081318189E090E0E9CF82E190E025EF0C
:1049E00034E0E4CF8DE690E028E834E0DFCF0895AE
:1049F000CF93C82F0E94F724C0935A02CF910895F5
:104A000080918B02843011F482E0089581E0089552
:104A100080915A02811102C00C940025089580E112
:104A200089BD82E189BD09B400FEFDCF8091D80027
:104A30008F7D8093D8008091E00082608093E000B9
:104A40008091E00081FDFCCF0895AF92BF92CF929C
:104A5000DF92FF920F931F93CF93DF936C01EB01D3
:104A60008A010E948426F82E811123C001151105A8
:104A700039F0F80180819181C81BD90BC80ED91E6D
:104A8000B12CA12C2097A9F08091E80085FD22C0CF
:104A90008091E8008E778093E80001151105A1F060
:104AA000F80180819181A80EB91EB182A08285E0B3
:104AB000F82E8F2DDF91CF911F910F91FF90DF90F6
:104AC000CF90BF90AF9008950E9484268823D1F2A2
:104AD000F82EEFCFF60181916F018093F1002197BD
:104AE000FFEFAF1ABF0ACECFFC01809192029091E6
:104AF000930286179707A0F06115710529F490912C
:104B0000E8009E779093E80090E06115710551F4FC
:104B1000911108C08091E80082FF34C080E00895C0
:104B2000BC01F2CF80918B028823C1F18530C1F1A5
:104B30008091E80083FD30C08091E80082FDEACFDB
:104B40008091E80080FFE1CF8091F3002091F20096
:104B5000382F6115710519F02830310558F091E0B2
:104B60002830310509F090E02091E8002E7720935D
:104B7000E800CBCF81918093F100615071092F5FE4
:104B80003F4FE7CF80918B02882341F0853041F081
:104B90008091E80083FFBECF81E0089582E0089510
:104BA00083E00895FC018091920290919302861710
:104BB0009707A0F06115710529F48091E8008E77C0
:104BC0008093E80090E06115710551F4911108C0DF
:104BD0008091E80082FF35C080E00895BC01F2CFEB
:104BE00080918B028823C9F18530C9F18091E8005A
:104BF00083FD31C08091E80082FDEACF8091E8001A
:104C000080FFE1CF8091F3002091F200382F6115F1
:104C1000710519F02830310558F091E02830310540
:104C200009F090E08091E8008E778093E800CBCF88
:104C300084918093F1003196615071092F5F3F4F4D
:104C4000E6CF80918B02882341F0853041F080913E
:104C5000E80083FFBDCF81E0089582E0089583E0FE
:104C60000895982F973028F08F708093E90081E0A5
:104C700008959093E900242F762F50E0981731F093
:104C80007091EC002091ED005091F00021FD02C0E8
:104C90009F5FE8CF3091EB003E7F3093EB00309187
:104CA000ED003D7F3093ED003091EB0031603093AB
:104CB000EB007093EC002093ED005093F0002091F6
:104CC000EE0027FDE5CF80E0089580918C0287FFFC
:104CD00013C08091E80082FF06C08091E8008B77C6
:104CE0008093E80004C080918B028111F2CF089577
:104CF00080918B028823D9F38091E80080FFF8CF60
:104D00008091E8008E77ECCF2091E4003091E500AF
:104D100085E6A9019091EC0090FF06C09091E80013
:104D200090FF06C080E008959091E80092FDFACFD0
:104D300090918B02992389F0953089F09091EB0046
:104D400095FD0FC02091E4003091E5004217530714
:104D500009F38150F1F684E0089582E0089583E03C
:104D6000089581E008950E9421270E942927E0EEFE
:104D7000F0E0808181608083E8EDF0E080818F77D2
:104D8000808319BCA7EDB0E08C918E7F8C938081DD
:104D90008F7E808310928A0208950F931F93CF9382
:104DA000DF930E9421270E942927C8EDD0E0888147
:104DB0008F77888388818068888388818F7D8883C6
:104DC00019BC10928B0210928702109289021092E5
:104DD000880200EE10E0F80180818B7F808388815B
:104DE0008160888342E060E080E00E943126E1EE4D
:104DF000F0E080818E7F8083E2EEF0E08081816050
:104E00008083808188608083F80180818E7F8083A9
:104E1000888180618883DF91CF911F910F910895E0
:104E2000E8EDF0E080818F7E8083E7EDF0E0808127
:104E30008160808384E082BF81E080938A020C9449
:104E4000CD26E8EDF0E080818E7F80831092E20035
:104E500008951092DA001092E10008951F920F92C7
:104E60000FB60F9211242F933F934F935F936F933D
:104E70007F938F939F93AF93BF93EF93FF93809113
:104E8000E10082FF0BC08091E20082FF07C08091A9
:104E9000E1008B7F8093E1000E948F298091DA00EE
:104EA00080FF19C08091D80080FF15C08091DA0082
:104EB0008E7F8093DA008091D90080FF94C080E1DA
:104EC00089BD82E189BD09B400FEFDCF81E08093F8
:104ED0008B020E9485238091E10080FF19C08091A0
:104EE000E20080FF15C08091E2008E7F8093E20097
:104EF0008091E20080618093E2008091D80080621E
:104F00008093D80019BC85E080938B020E94972380
:104F10008091E10084FF29C08091E20084FF25C0D8
:104F200080E189BD82E189BD09B400FEFDCF809199
:104F3000D8008F7D8093D8008091E1008F7E809390
:104F4000E1008091E2008F7E8093E2008091E20098
:104F500081608093E20080918702882309F449C030
:104F600084E080938B020E9498238091E10083FF6C
:104F700029C08091E20083FF25C08091E100877FF6
:104F80008093E10082E080938B02109287028091EF
:104F9000E1008E7F8093E1008091E2008E7F80931C
:104FA000E2008091E20080618093E20042E060E0F4
:104FB00080E00E9431268091F00088608093F000AC
:104FC0000E949623FF91EF91BF91AF919F918F9196
:104FD0007F916F915F914F913F912F910F900FBEF5
:104FE0000F901F90189519BC10928B020E9493236A
:104FF00072CF8091E30087FD02C081E0B2CF83E0F1
:10500000B0CF1F920F920FB60F9211242F933F93A0
:105010004F935F936F937F938F939F93AF93BF93C0
:10502000CF93EF93FF93C091E900CF708091EC0094
:105030001092E9008091F000877F8093F0007894CF
:105040000E943D281092E9008091F00088608093D2
:10505000F000C093E900FF91EF91CF91BF91AF9124
:105060009F918F917F916F915F914F913F912F9180
:105070000F900FBE0F901F9018951F93CF93DF9343
:10508000CDB7DEB7AA970FB6F894DEBF0FBECDBF7F
:105090008CE892E02091F100FC012193CF01F2E035
:1050A00084399F07B9F70E94AE238091E80083FFFF
:1050B0001EC180918C0290918D029A3008F017C128
:1050C000E92FF0E0E250F24D0C944F2D803899F02A
:1050D000823809F00CC1809190028F70873008F0FF
:1050E00006C18093E9008091EB0085FB882780F959
:1050F0001092E90006C08091880290918902911176
:1051000082609091E800977F9093E8008093F1008F
:105110001092F1008091E8008E77E5C0882309F4B1
:10512000D3C0823009F0E3C080918E028111D6C0D5
:10513000809190028F702FEF280F263008F0D7C093
:105140008093E9002091EB0020FFC8C0933031F438
:105150008091EB0080628093EB00C0C09091EB00E7
:1051600090619093EB0021E030E001C0220F8A951E
:10517000EAF72093EA001092EA008091EB00886041
:10518000EACF8111B4C010918E021F778091E300A5
:105190008078812B8093E3008091E800877F809363
:1051A000E8000E9465268091E80080FFFCCF809196
:1051B000E30080688093E30082E0111183E0809334
:1051C0008B0295C08058823008F091C080918E0289
:1051D00090918F028C3D23E09207A1F583E08A83B2
:1051E0008AE289834FB7F894DE01139620E03EE00F
:1051F00051E2E32FF0E050935700E49120FF03C009
:10520000E295EF703F5FEF708E2F90E0EA30C0F0D4
:10521000C7968D939D932F5F243159F74FBF80918F
:10522000E800877F8093E8006AE270E0CE01019693
:105230000E9474258091E8008B778093E80057C026
:10524000C096E7CF6091900270919102AE014F5FDE
:105250005F4F0E949824BC01892B09F448C09091AB
:10526000E800977F9093E80089819A810E94D22577
:10527000E1CF8038E1F58091E800877F8093E800F6
:10528000809187028093F10045CF811130C09091C9
:105290008E02923060F58091E800877F8093E8006D
:1052A000909387020E94652680918702882311F0DF
:1052B00084E005C08091E30087FDFACF81E0809310
:1052C0008B020E949A2313C080918E02813079F460
:1052D00081E0933009F080E0809389021092E90028
:1052E0008091E800877F8093E8000E946526809186
:1052F000E80083FF0AC08091E800877F8093E80080
:105300008091EB0080628093EB00AA960FB6F89430
:10531000DEBF0FBECDBFDF91CF911F9108950895DD
:10532000CF9380918B02882399F0C091E900CF70D0
:105330008091EC0080FD0EC080E0C82B1092E90047
:105340008091E80083FD0E943D28CF70C093E90062
:10535000CF91089580E8F1CF5058BB27AA270E942B
:10536000C4290C946F2B0E94612B38F00E94682B8B
:1053700020F039F49F3F19F426F40C94372B0EF4E7
:10538000E095E7FB0C94312BE92F0E94802B58F31A
:10539000BA17620773078407950720F079F4A6F51A
:1053A0000C94A22B0EF4E0950B2EBA2FA02D0B011E
:1053B000B90190010C01CA01A0011124FF27591B5A
:1053C00099F0593F50F4503E68F11A16F040A22F60
:1053D000232F342F4427585FF3CF469537952795D1
:1053E000A795F0405395C9F77EF41F16BA0B620BD0
:1053F000730B840BBAF09150A1F0FF0FBB1F661F17
:10540000771F881FC2F70EC0BA0F621F731F841F59
:1054100048F4879577956795B795F7959E3F08F07F
:10542000B0CF9395880F08F09927EE0F9795879541
:1054300008950E942D2A0C946F2B0E94682B58F01F
:105440000E94612B40F029F45F3F29F00C94312B2E
:1054500051110C94A32B0C94372B0E94802B68F3D2
:105460009923B1F3552391F3951B550BBB27AA271D
:1054700062177307840738F09F5F5F4F220F331F57
:10548000441FAA1FA9F335D00E2E3AF0E0E832D01F
:1054900091505040E695001CCAF72BD0FE2F29D022
:1054A000660F771F881FBB1F261737074807AB07F4
:1054B000B0E809F0BB0B802DBF01FF2793585F4F69
:1054C0003AF09E3F510578F00C94312B0C94A32BAD
:1054D0005F3FE4F3983ED4F3869577956795B7954B
:1054E000F7959F5FC9F7880F911D9695879597F956
:1054F0000895E1E0660F771F881FBB1F62177307CF
:105500008407BA0720F0621B730B840BBA0BEE1FE3
:1055100088F7E095089529F416F00C94312B0C943B
:10552000A22B0C94372B0E94882BA8F39638A0F757
:1055300007F80F92E8942BE33AEA48EB5FE70E9402
:10554000352C0F920F920F924DB75EB70F920E94BB
:10555000EB2BECEAF0E00E943A2B4F915F91EF9138
:10556000FF91E595EE1FFF1F49F0FE57E0684427C5
:10557000EE0F441FFA95E1F74195550B0E94B52BAC
:105580000F9007FE0C94A92B08950E94882B88F099
:105590009F5798F0B92F9927B751B0F0E1F0660FF7
:1055A000771F881F991F1AF0BA95C9F714C0B13038
:1055B00091F00E94A22BB1E008950C94A22B672FCA
:1055C000782F8827B85F39F0B93FCCF38695779567
:1055D0006795B395D9F73EF4909580957095619550
:1055E0007F4F8F4F9F4F0895E89409C097FB3EF47B
:1055F00090958095709561957F4F8F4F9F4F992320
:10560000A9F0F92F96E9BB279395F695879577959D
:105610006795B795F111F8CFFAF4BB0F11F460FF5D
:105620001BC06F5F7F4F8F4F9F4F16C0882311F0B5
:1056300096E911C0772321F09EE8872F762F05C0C9
:10564000662371F096E8862F70E060E02AF09A9564
:10565000660F771F881FDAF7880F9695879597F959
:10566000089597F99F6780E870E060E008959FEFE4
:1056700080EC0895DF93CF931F930F93FF92EF92E7
:10568000DF927B018C01689406C0DA2EEF010E9444
:10569000322CFE01E894A5912591359145915591C3
:1056A000A6F3EF010E94C429FE019701A801DA9434
:1056B00069F7DF90EF90FF900F911F91CF91DF91ED
:1056C000089500240A941616170618060906089568
:1056D00000240A9412161306140605060895092ECE
:1056E0000394000C11F4882352F0BB0F40F4BF2B3D
:1056F00011F460FF04C06F5F7F4F8F4F9F4F08957D
:1057000057FD9058440F551F59F05F3F71F0479572
:10571000880F97FB991F61F09F3F79F08795089557
:10572000121613061406551FF2CF4695F1DF08C076
:10573000161617061806991FF1CF86957105610593
:1057400008940895E894BB2766277727CB0197F93B
:1057500008959B01AC0160E070E080E89FE30C9449
:10576000192A0C94312B0C94942C0E94882BD8F37A
:105770009923C9F3940F511DA3F39150504094F015
:1057800059F0882332F0660F771F881F91505040E0
:10579000C1F79E3F51052CF7880F911D969587956F
:1057A00097F908955F3FACF0983E9CF0BB27869533
:1057B00077956795B79508F4B1609395C1F7BB0FDE
:1057C00058F711F460FFE8CF6F5F7F4F8F4F9F4F07
:1057D000E3CF0C94A32BFA01DC01AA0FBB1F9B01A2
:1057E000AC01BF5728F4222733274427507820C024
:1057F000B75190F4AB2F0024469537952795011C9F
:10580000A395D2F3002071F0220F331F441FB395EC
:10581000DAF30ED00C94AC2961307105A0E88A0748
:10582000B94630F49B01AC0166277727882790782A
:10583000309621F0208331834283538308950E9460
:10584000322C0C946F2B0E94612B38F00E94682B35
:1058500020F0952311F00C94312B0C94372B11244C
:105860000C94A32B0E94802B70F3959FC1F3950F8E
:1058700050E0551F629FF001729FBB27F00DB11DD4
:10588000639FAA27F00DB11DAA1F649F6627B00D64
:10589000A11D661F829F2227B00DA11D621F739F4D
:1058A000B00DA11D621F839FA00D611D221F749F5B
:1058B0003327A00D611D231F849F600D211D822FA2
:1058C000762F6A2F11249F5750409AF0F1F08823C9
:1058D0004AF0EE0FFF1FBB1F661F771F881F9150F6
:1058E0005040A9F79E3F510580F00C94312B0C9449
:1058F000A32B5F3FE4F3983ED4F3869577956795A5
:10590000B795F795E7959F5FC1F7FE2B880F911D1F
:105910009695879597F908959F930E94A42C0F90D0
:1059200007FCEE5F0C94CD2C9F3F31F0915020F49A
:10593000879577956795B795880F911D969587956B
:1059400097F908950C94372B0E94882BD8F3E8948C
:10595000E0E0BB279F57F0F02AED3FE049EC06C09E
:10596000EE0FBB0F661F771F881F28F0B23A620741
:105970007307840728F0B25A620B730B840BE3950C
:105980009A9572F7803830F49A95BB0F661F771F8F
:10599000881FD2F790480C94962CEF93E0FF07C035
:1059A000A2EA2AED3FE049EC5FEB0E94C4290E9485
:1059B0006F2B0F90039401FC9058E4EDF0E00C94F1
:1059C000E12C9F938F937F936F93FF93EF939B01B2
:1059D000AC010E941F2CEF91FF910E943A2B2F9156
:1059E0003F914F915F910C941F2CDB018F939F93FC
:1059F0000E94642DBF91AF91A29F800D911DA39F26
:105A0000900DB29F900D11240895AA1BBB1B51E16C
:105A100007C0AA1FBB1FA617B70710F0A61BB70B1E
:105A2000881F991F5A95A9F780959095BC01CD01C3
:105A3000089597FB072E16F4009407D077FD09D040
:105A40000E94052D07FC05D03EF4909581959F4F4F
:105A50000895709561957F4F0895A1E21A2EAA1BB3
:105A6000BB1BFD010DC0AA1FBB1FEE1FFF1FA2170E
:105A7000B307E407F50720F0A21BB30BE40BF50B0B
:105A8000661F771F881F991F1A9469F76095709594
:105A9000809590959B01AC01BD01CF010895EE0F5B
:105AA000FF1F0590F491E02D0994A29FB001B39FD0
:105AB000C001A39F700D811D1124911DB29F700D17
:105AC000811D1124911D08950E94552DA59F900DB3
:105AD000B49F900DA49F800D911D11240895F999F4
