:100000000C9441030C9488030C9488030C9488038B
:100010000C9488030C9488030C9488030C94880334
:100020000C9488030C9488030C94C7270C949A288A
:100030000C947B1E0C9488030C9488030C94880306
:100040000C9488030C9488030C9488030C94880304
:100050000C94B6090C94E11E0C9488030C9488034C
:100060000C9488030C9488030C9488030C948803E4
:100070000C9488030C9488030C9488030C948803D4
:100080000C9488030C9488030C9488030C948803C4
:100090000C9488030C9488030C9488030C948803B4
:1000A0000C9488030C9488030C94880307634236ED
:1000B000B79BD8A71A39685618AEBAAB558C1D3CF9
:1000C000B7CC5763BD6DEDFD753EF6177231BF00BD
:1000D0000000803F05A84CCDB2D44EB93836A902F5
:1000E0000C50B9918688083CA6AAAA2ABE00000036
:1000F000803F155C1E001F0020002100220023000D
:1001000024002500260027002D002E0000002A00D4
:100110002B0014001A000800150017001C0018001E
:100120000C00120013002F00300031000000E3002B
:1001300004001600070009000A000B000D000E0065
:100140000F0033003400000028000000E100000030
:100150001D001B00060019000500110010003600EC
:10016000370038000000E5000000E000E300E20096
:100170000000000000002C42000000000000E6002B
:1001800002510351E40000000100010001000100E0
:100190000100010001000100010001000100010057
:1001A0000100010001000100010001000100010047
:1001B0000100010001000100010001000100010037
:1001C0000100000001000100010001000100010028
:1001D0000100010001000100010001000100010017
:1001E0000000010001000100010001000100010008
:1001F00001000100010001000100000001000100F8
:100200000100010001000000000000002C000000BF
:100210000000000001000251035101000000350000
:100220003A003B003C003D003E003F0040004100E2
:10023000420043004400450000004C000000F40070
:10024000F000F5000000F90000000000520000007E
:10025000460047004800000000003900F200F100AD
:10026000F300FB00FA00FC00500051004F000000BA
:10027000000000000000000001000000AC00AE0023
:10028000AB00A900AA000000000000000000000070
:10029000000001000000010001000100000000005A
:1002A00000000153000000000000010000000000F9
:1002B000010000000000000000000000000000003D
:1002C00000000000000000000000E35CE25C0000B1
:1002D00000000000DE5CDF5CE05CE15C0000000030
:1002E000000000000000000000000000000000000E
:1002F0000100DB5CC75CC85CDC5CDD5C000000000E
:100300000000E45C000000000000000000000100AC
:100310000000C05CC15CC35CC45CC55CC65CBF5C07
:10032000BB5CBD5CBC5C0000010000000100010082
:1003300001000000000000000000000000000000BC
:1003400001000000000001000000000000000000AB
:10035000000000000001010203040506080A0C0F5A
:100360001114181C2024292E33393F464C535B624C
:100370006A7179818A929AA2AAB2B9C1C8CFD5DC32
:10038000E1E7EBF0F4F7FAFCFDFEFFFEFDFCFAF707
:10039000F4F0EBE7E1DCD5CFC8C1B9B2AAA29A92DA
:1003A0008A8179716A625B534C463F39332E292426
:1003B000201C1814110F0C0A080605040302010181
:1003C000000000000000000000006801F000B40020
:1003D00078005A0000000000000101010101010144
:1003E00001010202020202020202020303030303EA
:1003F00003030304040404040405050505050606B7
:1004000006060607070707080808080909090A0A6F
:100410000A0A0B0B0B0C0C0C0D0D0D0E0E0F0F0F13
:10042000101011111112121313141415151616179A
:1004300017181819191A1A1B1C1C1D1D1E1F1F2006
:10044000202122222324252526272728292A2B2B51
:100450002C2D2E2F2F303132333435363637383974
:100460003A3B3C3D3E3F4041424344464748494A6F
:100470004B4C4D4F50515253555657585A5B5C5E3A
:100480005F606263646667696A6C6D6E70717374D5
:100490007678797B7C7E8081838486888A8B8D8F39
:1004A00091929496989A9B9D9FA1A3A5A7A9ABAD65
:1004B000AFB1B3B5B7B9BBBDBFC1C4C6C8CACCCF55
:1004C000D1D3D6D8DADCDFE1E4E6E8EBEDF0F2F503
:1004D000F7FAFCFF04033000000014035300360059
:1004E00030002D0058002D0052004700420000004F
:1004F0001003530065006E0074007200610071000B
:1005000000000403090409026D00040100A0FA09B7
:100510000400000103010100092111010001224032
:10052000000705810308000A090401000103010214
:1005300000092111010001224D0007058203080076
:100540000A09040200010300000009211101000151
:100550002236000705830308000A0904030001038B
:100560000000000921110100012239000705840360
:100570002000011201100100000008EDFE60600182
:10058000000102030105010906A101050719E0297F
:10059000E715002501950875018102050819012953
:1005A00005950575019102950175039101050719DE
:1005B0000029F71500250195F875018102C0050194
:1005C0000980A10185021601002603001A81002A74
:1005D0008300751095018100C0050C0901A10185FA
:1005E00003160100269C021A01002A9C0275109530
:1005F000018100C005010902A1010901A10005094D
:10060000190129051500250195057501810295013E
:10061000750381010501093009311581257F950296
:100620007508810609381581257F950175088106B1
:10063000050C0A38021581257F950175088106C0D1
:10064000C005010906A101050719E029E7150025E4
:100650000195087501810295017508810105081948
:100660000129059505750191029501750391010513
:1006700007190029FF150026FF009506750881005F
:10068000C00011241FBECFEFDAE0DEBFCDBF04B63D
:1006900003FE27C08091C0029091C102A091C202C6
:1006A000B091C3028730904BA740B04BD1F4109269
:1006B000C0021092C1021092C2021092C30214BE74
:1006C00084B7877F84BF0FB6F894A89580916000A7
:1006D000886180936000109260000FBEE0E0F8E354
:1006E000099511E0A0E0B1E0E8E4FEE502C0059064
:1006F0000D92A634B107D9F722E0A6E4B1E001C01B
:100700001D92A03CB207E1F70E94F6240C94D32E70
:100710000C940000E5E5F2E08FEF118210828283F5
:100720008383359692E0E738F907B9F70895AF92D9
:10073000BF92CF92DF92EF92FF921F93CF93DF93FE
:100740007C010E940A1180E00E94FB10C5E5D2E006
:1007500087E8C82E82E0D82E1FEF98E6A92EBB248A
:10076000B39489E6E81681E0F80694F41B831A83B3
:10077000F982E8822596CC16DD0699F7DF91CF91B4
:100780001F91FF90EF90DF90CF90BF90AF900895B2
:100790000E94542E1B831A83B5010E94B22D9983A7
:1007A0008883E8CF1F93CF93DF93C5E5D2E010E0B5
:1007B0004B81442331F0212F6A81888199810E94E5
:1007C00068111F5F25961A3099F7DF91CF911F911D
:1007D000089590910501892B809305010895FC01EE
:1007E0009091050190FF17C082818823A1F092FFAC
:1007F0000FC00E94542E68E671E00E94B22D0E9444
:1008000097038091050183FF06C080E20C94E90301
:1008100087EE93E0F4CF0895809590910501982399
:100820009093050108958091490190914A010E9499
:10083000B71E209104012817190618F5E5E5F2E026
:1008400083818A30F8F08A508383359682E0E738D6
:10085000F807B1F780918502811116C080910501DA
:1008600081FF09C080E10E940C0480E20E940C0418
:1008700080E40E94E9030E94AB1E90934A0180939A
:10088000490108951382E1CF80E10E94E90380E2EB
:10089000F0CF80914701909148010E94B71E2091AE
:1008A00004012817190608F5E5E5F2E09FEF8381BA
:1008B000863FE0F4865F8383359682E0E738F80769
:1008C000B1F7809185028F3F99F48091050181FFF6
:1008D00006C080E10E940C0480E40E940C040E9487
:1008E000AB1E909348018093470108959383E4CF12
:1008F00080E40E94E903F3CF0E9479050E94D203AD
:100900008091050185FD0C94130486FD0C94490427
:10091000089590910501982311F00C940C040C9407
:10092000E90390918702892F86958F738093460102
:1009300082E090FF0DC00E94E90381E00E948904DB
:100940008091050180FF0BC081FD05C00C94420F12
:100950000E940C04F2CF809146010C94FB10089584
:1009600088E00C94890484E00C94890482E00C945F
:10097000890480910601909107018230910528F049
:1009800001979093070180930601089580910601D5
:1009900090910701803127E2920728F40196909305
:1009A00007018093060108958093080108959091AE
:1009B0008702292F221F2227221F80918802982F29
:1009C000990F922B87FB882780F93091890220911B
:1009D0008A02E5E5F2E090838183328323833596B2
:1009E00042E0E738F407B9F70895CF92DF92EF922B
:1009F000FF92CF93DF930E94AB1EBC0190E080E09A
:100A00000E948D2B20E030E04AEF54E40E94B22A8D
:100A100020ED3FE049E450E40E94B82C0E94252DCF
:100A20000E942C2B22EB3AE54CEB5EE30E94452A18
:100A300020E030E048ED52E40E94B82C6B017C01CC
:100A4000C5E5D2E0C701B6010E945E2B6B832596F7
:100A500082E0C738D807B1F7DF91CF91FF90EF90D0
:100A6000DF90CF90089580914D0190914E01E5E582
:100A7000F2E091838083359622E0E738F207C9F7E8
:100A8000019668E671E00E949E2D90934E0180933E
:100A90004D010895EF92FF920F931F93CF93DF9331
:100AA00020914D0130914E01C5E5D2E0790188E9F0
:100AB000E81A8EEFF80AF90108E611E0CF01B80153
:100AC0000E949E2D99838883B4962596EE15FF0586
:100AD000A9F7C9010196B8010E949E2D90934E017D
:100AE00080934D01DF91CF911F910F91FF90EF9077
:100AF00008958091050184FD28C080914B0190915B
:100B00004C010E94B71E2091060130910701281761
:100B10003907D8F40E94AB1E90934C0180934B018F
:100B2000809108018B3059F018F48A3031F0089523
:100B30008C3039F08D3039F008950C94D7040C9432
:100B4000F5040C9433050C944A0508950E94F206AE
:100B50000E942B23811103C085E00E940F238FEF99
:100B60008093890280938A020C948A030C947C04FB
:100B70000F931F93CF93DF93EC018B01CB010E9466
:100B8000EF03CD3D8CE5D80709F47BC018F5C03CD8
:100B9000FCE5DF0709F47DC070F4CD32D10509F41E
:100BA0003FC0AE9709F452C0C1E08C2FDF91CF91C6
:100BB0001F910F910895CB3DECE5DE0709F459C074
:100BC000CC3DDC4589F7F8018281882369F30E94D6
:100BD000B0043AC0C03E8CE5D80709F473C070F485
:100BE000CE3DFCE5DF0709F464C0CF3DDC45E1F60E
:100BF000F80182818823C1F28BE061C0C23EECE53E
:100C0000DE0709F44EC008F464C0C33EDC4561F65B
:100C1000F8018281882309F44CC00E94C60414C0E4
:100C20000E94121D85FFC0CF0E94121D81FFBCCF04
:100C3000F8018281882309F4B7CF0E94420F80E037
:100C40000E940F230E944E1DC0E0AFCF0E94121DD4
:100C500085FFAACF0E94121D81FFA6CFF8018281D5
:100C6000882309F4A1CF80E00E940F230E94B106DF
:100C7000EBCFF8018281882309F496CF0E9491047A
:100C8000E3CFF8018281882309F48ECF0E94B30458
:100C9000DBCFF801C281CC2309F486CF0E94B604D1
:100CA00084CFF8018281882309F47ECF0E94B904A1
:100CB000CBCFF8018281882309F476CF8AE00E94A5
:100CC000D404C2CFF8018281882309F46DCF8CE06F
:100CD000F6CFF8018281882309F466CF8DE0EFCF4B
:100CE000CF92DF92EF92FF928C3724E1920750F47B
:100CF00069E070E00E949E2DCB01FF90EF90DF90A5
:100D0000CF900895B0E0A0E0BC01CD016A50774DCE
:100D10008F4F9F4F982F872F762F662725EF38E22A
:100D200041E050E00E94C62D69017A01CA01B90173
:100D30000E948E2D9B01AC01C701B6010E948E2D31
:100D4000672F782F892F99276115710521E0820778
:100D5000910591F66FEF7FEFCFCF81E008950C946E
:100D6000B8050E941B172FEF84E39CE021508040C0
:100D70009040E1F700C000000C94051F0C941F0D7B
:100D80008630D8F481111AC090918000977F90939B
:100D90008000282F30E0AFEFBFEF0E94EE2D25E05E
:100DA00030E040E050E00E94C62DC9010E9470066C
:100DB00090938D0080938C00089585E09091800041
:100DC0009860E5CF80916F00817008951092500176
:100DD00010924F0110925101EFE6F0E080818160A6
:100DE00080830895EFE6F0E080818E7F80830E940B
:100DF0002B230C94C0060E94E20681110C94F2068B
:100E00000C94E606FF920F931F93CF93DF938C0110
:100E1000FC01C081D18180918F01811150C08281FC
:100E2000882309F447C0CE010E942B1CF82E682F9E
:100E3000CE010E94D71BBE018F2D0E94420AEC01F9
:100E4000B8010E94AF06882309F410C1B801CE0191
:100E50000E94CE0C882309F409C1C93CFCE5DF07D8
:100E600009F444C108F071C0C13C9CE5D90709F4FC
:100E700015C108F048C0C531FCE5DF0728F5C230D0
:100E80008CE5D80708F0B2C1C1159CE5D90709F473
:100E9000E8C0C130DC4509F4F0C081E0809357011F
:100EA00080935801C801DF91CF911F910F91FF905E
:100EB0000C94AD06CE010E94031CF82EBCCFCE01CF
:100EC0000E942B1CBE01B9CFCF3BFCE5DF0709F424
:100ED00045C208F0DCC0C531DC45F9F60E94121DA0
:100EE000F8019281992309F42FC28A7A91E009F4DA
:100EF00090E090935201811125C289E20E949B1CCF
:100F00000E94DF1CB3C0F8018281C53CFCE5DF070D
:100F100009F4DDC068F4C33CECE5DE0709F4D2C097
:100F200008F4C7C0882309F4A1C00E9451109EC0D4
:100F3000C73C9CE5D90709F4D4C008F4CDC0882388
:100F400009F494C00E94B81091C0C13DFCE5DF07D0
:100F500009F41CC1F0F5F8018281CD3CFCE5DF0706
:100F600009F4D9C0D8F4CB3CECE5DE0709F4CCC0D9
:100F700008F4C4C0882309F479C00E94F10E6230DD
:100F800071058105910540F00E94F10E65307105F3
:100F90008105910508F493C082E0BAC0CF3C9CE57E
:100FA000D90709F4DFC008F4C9C0882309F45EC07A
:100FB0000E94F10E653171058105910540F00E9496
:100FC000F10E673171058105910508F478C085E15E
:100FD0009FC0C53DFCE5DF0709F491C1C0F4F801ED
:100FE0008281C33DFCE5DF0709F4EBC008F4D5C0FE
:100FF000882309F46DC1109257010E94AB1E909393
:1010000054018093530182E00E9452142FC0C93DC5
:10101000ECE5DE0709F4DAC0CA3DFCE5DF0709F4B8
:10102000DEC0C63DDC4509F038CFF8018281811170
:101030006AC180915801811183C1809155019091BD
:1010400056010E94B71E883C910508F079C180E2E4
:101050000E94591488E20E940C1388E20E94031433
:1010600005C0F801828181110E94B10680E0DF9104
:10107000CF911F910F91FF900895F80182818823ED
:10108000A9F380912702816080932702EFCFF801B6
:101090008281882359F30E941311E8CFF8018281DD
:1010A000882321F30E94121D827249F00E940111CF
:1010B000DDCF8823D9F20E94121D8272B9F30E94FB
:1010C000FE10D4CF882391F20E943910CFCF88230D
:1010D00069F20E947010CACF882341F20E948810E2
:1010E000C5CF882319F20E94A010C0CFF8018281D9
:1010F000882309F4BBCF0E94FF0EB8CF882309F4E0
:10110000B5CF0E94140FB2CF882309F4AFCF81E08E
:101110000E94FB10ABCF882309F4A8CF0E94F10EE8
:10112000663071058105910538F00E94F10E683036
:1011300071058105910518F286E0EACF882309F44C
:1011400095CF0E94F10E693071058105910540F03F
:101150000E94F10E6E3071058105910508F4AFCF44
:1011600089E0D6CF882309F481CF0E94F10E6F3039
:1011700071058105910540F00E94F10E6431710501
:101180008105910508F49BCF8FE0C2CFF8018281E1
:10119000882309F46BCF88E1BBCF882309F466CF9D
:1011A0000E94F10E693171058105910540F00E94A0
:1011B000F10E623271058105910508F480CF89E155
:1011C000A7CF882309F452CF83E2A2CFF80182810E
:1011D000882309F44BCF80E00E94912547CFF80186
:1011E0008281882309F442CF82E0F6CFF801828120
:1011F000882309F457CE0E94741D811102C00E94F9
:101200004E1D0E94911D90E09093B1028093B00218
:10121000FE01E350FC458091B0028160E231F105AE
:1012200038F4EB52F14D0C94E82D8091B0028260BD
:101230008093B0028091B0020E94951D0E941B17FE
:1012400015CF8091B0028460F3CF8091B0028860A6
:10125000EFCF8091B0028061EBCF8091B0028062CD
:10126000E7CF8091B0028064E3CF8091B0028068C4
:10127000DFCF8091B0028C60DBCF8091B0028E7F97
:10128000D7CF8091B0028D7FD3CF8091B0028B7F7A
:10129000CFCF8091B002877FCBCF8091B0028F7E7D
:1012A000C7CF8091B0028F7DC3CF8091B0028F7B7A
:1012B000BFCF8091B0028F77BBCF8091B002837F88
:1012C000B7CF9091B002892F97FB87F98058B0CFA4
:1012D0008091570181110FC0809153019091540169
:1012E0000E94B71E883C910530F486E20E940C13E0
:1012F00086E20E94031482E00E945914B7CEF801DE
:101300008281882351F0109258010E94AB1E909365
:1013100056018093550180E277CE8091580181116A
:101320000FC080915501909156010E94B71E883CD4
:10133000910530F487E20E940C1387E20E940314A7
:1013400080E2DACF85E3DACD80915201811104C0C9
:1013500089E20E94A21CD4CD85E3FBCFF8018281F3
:10136000882309F483CE0E94FB0680CE1F920F9241
:101370000FB60F9211242F933F934F935F936F9368
:101380007F938F939F93AF93BF93CF93EF93FF93ED
:101390002091090180914F0190915001019644EFF5
:1013A000249F90011124B9010E949E2D9093500119
:1013B00080934F01B901660F672F661F770B7195F8
:1013C0000E949E2D6F7780915101823041F46034EC
:1013D00051F480916F008E7F80936F0004C0813044
:1013E00011F46F37B1F3E62FF0E0E65BFC4FC491E8
:1013F0000E942B23282F41E051E0C49FC001C59FCC
:10140000900D112465E070E00E949E2D269FC00182
:10141000279F900D11240E94700690938D00809359
:101420008C00FF91EF91CF91BF91AF919F918F91E0
:101430007F916F915F914F913F912F910F900FBED0
:101440000F901F901895279A2F988AE0809380001C
:1014500089E1809381008FEF9FEF909387008093C5
:1014600086000E9488220C94E6060E94230A0C94AF
:101470001D0D08950C94390A0C943A0A90E080E00E
:1014800008950895972F70E02FE0929F600D711DD1
:101490001124FB019BE4899FE00DF11D1124EE0F47
:1014A000FF1FEE50FF4F859194910895FC01EE0FC0
:1014B000FF1FE653FC4F859194910895CF93DF93DE
:1014C0000E94420A0E942F0CEC01811521E592072F
:1014D00008F049C0811530E5930708F021C1883E26
:1014E000910508F5803E910570F5883A910570F4F4
:1014F000853A910508F0A7C08130910521F1009748
:1015000011F1049700F5D0E0C0E01DC08D3B9105BE
:1015100008F4A4C0805C9109C03CD105A0F30E94EE
:10152000560AEC0110C08115904388F4C11580E281
:10153000D80708F0ECC0C03FD10528F3CF3FD10554
:1015400009F008F4E2C0CE01DF91CF910895C115F2
:1015500090E4D90708F0E1C0CE019927D3FFDAC0A3
:10156000EC01D86CF0CF811529E5920740F5811583
:1015700038E5930708F01AC1811544E5940778F41B
:10158000C11583E5D80708F0F8C0C11592E5D90761
:1015900008F0E2C0DC2FCC27C16FD06AD4CF811510
:1015A00025E5920708F4FDC0811536E5930708F09C
:1015B000AACFD82FCC27CC27DF71D062C4CF8B3BEA
:1015C0009C4509F4F8C0CC3B8CE5D807B8F4C93B7E
:1015D0009CE5D90709F4F2C008F0F3C0C1153AE55B
:1015E000D30708F090CFCE0134E0969587953A95D1
:1015F000E1F78F70CF70C06ED82F90C0CE3B4CE516
:10160000D40709F4E1C060F4CC3B9CE5D90709F4A8
:10161000DEC0CD3BDC4509F076CFC0E0D2ED93CF04
:10162000CE0190568115904208F06DCF8D2F8F71AD
:101630000E94AA0C90E0982F882788279F719C0110
:101640002C2BE901BACF853A910509F4C3C0863A3B
:10165000910509F0C2C0C2E8D0E475CF883A91057F
:1016600009F4BEC0893A910509F4BDC08A3A9105D2
:1016700009F4BCC08B3A910509F4BBC08C3A9105C2
:1016800009F4BAC08B3B910509F4B9C08C3B9105B4
:1016900009F4B8C08D3A910509F4B7C0803B9105B3
:1016A00009F4B6C08E3A910509F4B5C08F3A910598
:1016B00009F4B4C0813B910509F4B3C0823B9105A4
:1016C00009F4B2C0833B910509F4B1C0843B910594
:1016D00009F4B0C0853B910509F4AFC0863B910584
:1016E00009F4AEC0873B910509F4ADC0883B910574
:1016F00009F4ACC0893B910509F4ABC08A3B910564
:1017000009F4AAC0C0E0D4E41ECFD0651CCFCE013E
:101710009F7005CFEC01D06C16CFDF70D06A13CF6D
:10172000E4E096958795EA95E1F783702C2F26954E
:101730002695237040E2249F90011124382B8C2F92
:101740008370C1E0D0E002C0CC0FDD1F8A95E2F7C4
:10175000C22BD32BDC68F7CECE018370992721E012
:1017600030E002C0220F331F8A95E2F7C695C69576
:1017700080E2C89FE0011124EBCFCE01837099274E
:1017800021E030E002C0220F331F8A95E2F7C695B0
:10179000C69590E2C99FE0011124C22BD32BDA68D1
:1017A000D2CED82FCC27C46FD06ACDCED82FCC279D
:1017B000C06FD06AC8CEC0E0D1EDC5CEC0E0D4EDD8
:1017C000C2CEC0E0D5EDBFCEC0E0D3EDBCCEC0E010
:1017D000D0EDB9CEC1E8D0E4B6CEC3E8D0E4B3CE04
:1017E000C2EED4E4B0CEC9EED4E4ADCECAEED4E4B9
:1017F000AACEC5EBD4E4A7CEC6EBD4E4A4CEC3EB0B
:10180000D4E4A1CEC4EBD4E49ECEC7EBD4E49BCE0B
:10181000CCECD4E498CECDECD4E495CEC3E8D5E4BA
:1018200092CECAE8D5E48FCEC2E9D5E48CCEC4E925
:10183000D5E489CEC1E2D6E486CEC3E2D6E483CE37
:10184000C4E2D6E480CEC5E2D6E47DCEC6E2D6E4DC
:101850007ACEC7E2D6E477CECAE2D6E474CE823836
:10186000910549F1B0F48133910509F462C048F45F
:101870008932910509F456C08A32910509F460C095
:1018800008958533910509F446C08933910599F08F
:101890000895833E910531F138F4803E910591F031
:1018A000823E9105B1F00895863E910521F1873E73
:1018B000910551F108952091B0022370D9F080EE86
:1018C00090E008952091B00220FF14C089E390E0D9
:1018D00008952091B00222FF0DC024FD09C083EEBF
:1018E00090E008952091B00222FD31C024FF02C093
:1018F00090E080E008952091B00223FFFBCF24FD0B
:10190000F7CF87EE90E008952091B00223FFEECF4D
:1019100086EE90E008952091B00225FFEBCF89E29A
:1019200090E008952091B00225FFE4CF85E390E098
:1019300008952091B00226FFDDCF8AE290E008955D
:101940002091B00226FFD6CF81E390E0089582EE89
:1019500090E008959091B00292FF06C0282F287160
:10196000283069F4877F846093FF06C0282F287190
:10197000283161F4877E846194FD877E0895282F45
:101980002471243089F78B7F8860EECF282F247153
:10199000243191F78B7E8861EFCF08950F931F93C9
:1019A000CF938C01FB018281811106C0C1E08C2F95
:1019B000CF911F910F910895C0916601C11125C06B
:1019C00006311C4599F70E94CD0C81E08093660199
:1019D0000E94AB1E9093650180936401109259019F
:1019E00010925B0110925A0110925D0110925C01FD
:1019F00010925F0110925E011092610110926001DD
:101A00001092630110926201D2CF80916401909193
:101A100065010E94B71E8C32914040F680915901B9
:101A2000E82FF0E0EE0FFF1FE65AFE4F1183008310
:101A30008F5F80935901C0E0BACF0C94A6050C9437
:101A4000B605CF93DF9385B7806885BF85B780687B
:101A500085BFACE2B1E041E351E0C1E0D0E08D915F
:101A6000E82FE295EF70F0E061A18F709E0101C058
:101A7000220F8A95EAF7922F9095962391A382A13F
:101A8000822B82A34A175B0751F7ADE1B1E061E019
:101A900070E08D91E82FE295EF70F0E041A18F703A
:101AA0009B0101C0220F8A95EAF7922F909594230B
:101AB00091A382A1822B82A381E0AC32B80749F7BF
:101AC00010927201109271011092680110926701D8
:101AD000109274011092730110926A0110926901C0
:101AE000109276011092750110926C0110926B01A8
:101AF000109278011092770110926E0110926D0190
:101B000010927A01109279011092700110926F0177
:101B1000DF91CF910C94350A4F925F927F928F9212
:101B20009F92AF92BF92CF92DF92EF92FF920F936C
:101B30001F93CF93DF9397E6492E91E0592E2CE225
:101B4000E22E21E0F22E01E010E099249394E201CC
:101B5000A990B9902E01DE011E921E92F70181918B
:101B60007F01E82FE295EF70F0E091A18F7098016E
:101B700001C0220F8A95EAF7892F822B81A382A1C7
:101B8000822E8094882182A380EA8A95F1F78DE1E4
:101B9000C82E81E0D82E90E080E0E60179916E01B8
:101BA000472F42954F7050E0EA0178A04D915C912B
:101BB00011977F70E80102C0CC0FDD1F7A95E2F724
:101BC000BE01672109F072C0B801082E02C0660F7D
:101BD000771F0A94E2F7462B572B11965C934E938E
:101BE00001968F309105C9F681A1882281A282A138
:101BF000282B22A38D919C91A816B90641F09092B2
:101C00007B010E94AB1E90937D0180937C01D1E704
:101C10004D16D1E05D0609F09ACF80917B018823B3
:101C200091F180917C0190917D010E94B71E0697F1
:101C300050F18091670190916801909372018093B7
:101C400071018091690190916A0190937401809370
:101C5000730180916B0190916C0190937601809358
:101C6000750180916D0190916E0190937801809340
:101C7000770180916F019091700190937A01809328
:101C8000790110927B010E94BE0681E0DF91CF9125
:101C90001F910F91FF90EF90DF90CF90BF90AF908A
:101CA0009F908F907F905F904F90089570E060E0DC
:101CB00092CFE82FF0E0EE0FFF1FEF58FE4F80812C
:101CC000918108950895CF92DF92EF92FF920F9342
:101CD0001F93CF93DF93E901662309F466C0E42ED6
:101CE000F12CEFEFF0E0E61BF109EE9D8001EF9D96
:101CF000100DFE9D100D1124212FE12FFF27EE1A4C
:101D0000FF0A5CE3C52ED12CB6010E949E2DFB017B
:101D1000BC01E69EC001E79E900DF69E900D112439
:101D2000B6010E949E2DE230F10589F168F4812F01
:101D3000262F210F309781F0242F461B319761F019
:101D400080E020E040E008C0E430F10551F128F1E6
:101D5000842F861B3597A1F7E42FF0E0EC52FC4F5F
:101D60004491E22FF0E0EC52FC4F9491E82FF0E028
:101D7000EC52FC4FE49149839883EA83DF91CF9141
:101D80001F910F91FF90EF90DF90CF900895862FD5
:101D9000810FE42F412F2E2FDFCFE42FE61B842F5E
:101DA000F9CF842F462F410FD7CF842F242FD4CFA4
:101DB00088E090E00C946C2EAB01BC0188E090E0D0
:101DC0000C948A2EE7E8F2E083E0808311828FEFA3
:101DD00082838383148260817181828193810C94D8
:101DE000DC0E6091870260FF06C066956F7370E03D
:101DF00090E080E0089560E070E0CB01089580916C
:101E00008B0290E001968430910514F083E090E01D
:101E100080938B0260918702709188028091890281
:101E200090918A020C94DC0E80918B028150990B68
:101E300097FF02C090E080E08430910514F083E0C9
:101E400090E080938B02609187027091880280916C
:101E5000890290918A020C94DC0E80918702ECE852
:101E6000F2E080FF06C06AE070E08CE892E00C943B
:101E7000B911118210821282339682E0EA3AF80791
:101E8000C1F7F1CFE7E8F2E080818E7F8083608147
:101E90007181828193810E94DC0E2FEF80E792E0B6
:101EA000215080409040E1F700C000000C942D0FBD
:101EB000E7E8F2E080818E7F80832FEF80E792E079
:101EC000215080409040E1F700C000000C942D0F9D
:101ED0009091870290FF0CC0ECE8F2E08183608370
:101EE0004283339692E0EA3AF907C1F70C942D0F3A
:101EF00008953F924F925F926F927F928F929F923E
:101F0000AF92BF92CF92DF92EF92FF920F931F9307
:101F1000CF93DF9300D00F92CDB7DEB78C01462E62
:101F2000542E322E8091870280FF30C0982F9E77EA
:101F3000923009F040C09E012F5F3F4FC8010E94C0
:101F4000630E4B8169818A810E94680F80918702AC
:101F500000FB87F980938702902F969580918802E5
:101F60008078892B10FB87F9809388024092890240
:101F700050928A02332051F060918702709188025A
:101F80008091890290918A020E94DC0E0F900F903E
:101F90000F90DF91CF911F910F91FF90EF90DF9005
:101FA000CF90BF90AF909F908F907F906F905F90F9
:101FB0004F903F900895E82FE695EF739EE39E0FB4
:101FC0009F73943018F450908A02C0CF9AE39E0F0A
:101FD0009F73993068F4881F8827881F9091880222
:101FE000292F220F022F082B97FB112710F9AECFB4
:101FF00087E28E0F8F738A3008F0A8CFE951FF0B6C
:1020000021E0E0FD2FEFEE7FE653FC4F85919491A8
:102010006AE070E00E949E2D26033001279F700C1D
:102020001124680188E9C81A8EEFD80A8CE8E82ED6
:1020300082E0F82E9AEAA92E92E0B92E28E6822EA6
:1020400099249394C601B4010E949E2D9701452DB9
:10205000642D0E94630EC60CD71C83E0E80EF11CB1
:10206000AE14BF0479F70E942D0F70CF21E00C94BD
:10207000790FE7E8F2E02081221F2227221F30910A
:102080008802432F440F842F822B37FB992790F926
:10209000089668E671E00E94B22D438162810C943B
:1020A000361020918702221F2227221F309188029A
:1020B000432F440F842F822B37FB992790F98830C8
:1020C000910540F4805A9E4F40918A0260918902A6
:1020D0000C943610089768E671E00E94B22DF4CF98
:1020E00060918902683F90F4685F80918702881F41
:1020F0008827881F90918802292F220F97FB992704
:1021000090F940918A02822B0C9436106FEFEDCF3C
:1021100060918902683090F0685080918702881F32
:102120008827881F90918802292F220F97FB9927D3
:1021300090F940918A02822B0C94361060E0EDCF2A
:1021400040918A02483F90F4485F80918702881F3F
:102150008827881F90918802292F220F97FB9927A3
:1021600090F960918902822B0C9436104FEFEDCFDD
:1021700040918A02483090F0485080918702881F31
:102180008827881F90918802292F220F97FB992773
:1021900090F960918902822B0C94361040E0EDCFCB
:1021A00020E00C94790F8091870280FF23C0817812
:1021B000826080938702662351F06091870270915C
:1021C00088028091890290918A020E94DC0E80919F
:1021D0008702881F8827881F90918802292F220F45
:1021E00097FB992790F940918A0260918902822B8E
:1021F0000C94D010089561E00C94D31081E00C94FD
:10220000FB108091870286958F73815009F481E0DD
:102210000C94FB10E7E8F2E0808181608083869572
:102220008F730C94FB108091870280FD0C94420FF9
:102230000C940A1160E00C94D31080912702816005
:10224000809327020E94741D811104C00E944E1DBC
:102250000E94E20E0E94D80E60938702709388025B
:102260008093890290938A026E7761F40E94E20E55
:102270000E94D80E6093870270938802809389022F
:1022800090938A028091870280FF04C086958F73A5
:102290000C941A110895E7E8F2E080818160808350
:1022A00086958F730C941A119091870290FF0FC03E
:1022B0002A3068F430E0F901EE0FFF1FE20FF31F40
:1022C000E457FD4F8183608342830C942D0F089562
:1022D0001F93CF93DF9300D00F92CDB7DEB7122FAD
:1022E0002091870220FF0BC09E012F5F3F4F0E946D
:1022F000630E212F4B8169818A810E9454110F90B6
:102300000F900F90DF91CF911F91089531B3242F3B
:102310002095232331B3432B3FB7F894680F791FDF
:102320008617970711F43FBF0895FC015191CF0123
:10233000E8E041BB000000C057FF21BB550F000083
:1023400000C000C000C021BB00C0EA9591F7E8CFF3
:1023500020B3242B20BB9B01220F331F620F731F5E
:102360000E94861187EC90E00197F1F700C0000011
:10237000089540E40C94A811909383018093820106
:102380000895E0918201F0918301309721F001904E
:10239000F081E02D099480E00895E0918201F091B0
:1023A0008301309721F00280F381E02D0994089594
:1023B000E0918201F0918301309721F00480F58152
:1023C000E02D099408952091800130918101281712
:1023D000390771F09093810180938001E09182012F
:1023E000F0918301309721F00680F781E02D099468
:1023F000089520917E0130917F012817390771F0EF
:1024000090937F0180937E01E0918201F09183019E
:10241000309721F00084F185E02D09940895089506
:102420000C940F1281E008950E94A21E0E94210DBB
:102430000E94741F0E9488220C941D115F926F925B
:102440007F928F929F92AF92BF92CF92DF92EF9244
:10245000FF920F931F93CF93DF93CDB7DEB72A97E9
:102460000FB6F894DEBF0FBECDBF0E948C0D0E9448
:102470001212882309F47AC095E8A92E91E0B92EAA
:1024800010E000E088248394912C502E802F0E942D
:10249000590E7C01F501C190D1905F01C816D90693
:1024A00009F45EC08091270281FD0E94620E90E0D7
:1024B00080E0CE24DF243401082E02C0660C771C95
:1024C0000A94E2F7960126213721232B09F443C011
:1024D0008E835F82E620F72081E0EF2809F480E018
:1024E00088870E94AB1E8160782F9A8789874E81EA
:1024F0005F8168858A850E94DD12000F111FF80137
:10250000EB57FE4F80819181682679267182608227
:102510000E94F2210E94C111909184018917B9F1A2
:102520000E94C111809384012A960FB6F894DEBFF1
:102530000FBECDBFDF91CF911F910F91FF90EF9014
:10254000DF90CF90BF90AF909F908F907F906F90D3
:102550005F900C943C0A01968F30910509F0ABCF47
:102560000F5F1F4F0530110509F08FCF8FEF898363
:102570008A831B820E94AB1E8160782F9D838C838F
:1025800049815A816B818D810E94DD12C1CF2A96CB
:102590000FB6F894DEBF0FBECDBFDF91CF911F9174
:1025A0000F91FF90EF90DF90CF90BF90AF909F90F2
:1025B0008F907F906F905F900895CF93DF93CDB70A
:1025C000DEB72B970FB6F894DEBF0FBECDBF4F839B
:1025D000588769877A878B871E821D8285E0FE0176
:1025E0003796DE01119601900D928A95E1F74981A7
:1025F0005A816B817C818D819E812B960FB6F894D8
:10260000DEBF0FBECDBFDF91CF910C94B919FC0195
:10261000808191810C946D1C882309F4F3C0823869
:10262000B9F40E94C11181FDEDC089E30E949B1C99
:102630000E94DF1C2FEF81EE94E0215080409040FB
:10264000E1F700C0000089E30E94A21C0C94DF1C8B
:102650008338A1F40E94C11180FDD4C083E50E949B
:102660009B1C0E94DF1C2FEF81EE94E021508040E4
:102670009040E1F700C0000083E5E6CF8438A1F484
:102680000E94C11182FDBEC087E40E949B1C0E9473
:10269000DF1C2FEF81EE94E0215080409040E1F765
:1026A00000C0000087E4D0CF9CEF980F913A18F457
:1026B0000E949B1CCBCF90E2980F983050F487700B
:1026C00091E001C0990F8A95EAF7892F0E94151DA4
:1026D000BDCF9BE5980F933070F4853A31F0863A80
:1026E00039F083E890E00C94E31181E890E0FBCFAF
:1026F00082E890E0F8CF98E5980F953108F082C015
:10270000883A09F440C0893A09F440C08A3A09F489
:1027100040C08B3A09F440C08C3A09F440C08B3B6E
:1027200009F440C08C3B09F440C08D3A09F440C024
:10273000803B09F440C08E3A09F440C08F3A09F456
:1027400040C0813B09F440C0823B09F440C0833B58
:1027500009F440C0843B09F440C0853B09F440C003
:10276000863B09F440C0873B09F440C0883B09F42C
:1027700040C0893B09F440C08A3B09F440C090E066
:1027800080E00C94F91182EE90E0FBCF89EE90E0AE
:10279000F8CF8AEE90E0F5CF85EB90E0F2CF86EBB4
:1027A00090E0EFCF83EB90E0ECCF84EB90E0E9CFCB
:1027B00087EB90E0E6CF8CEC90E0E3CF8DEC90E0FF
:1027C000E0CF83E891E0DDCF8AE891E0DACF82E9DB
:1027D00091E0D7CF84E991E0D4CF81E292E0D1CFEC
:1027E00083E292E0CECF84E292E0CBCF85E292E02A
:1027F000C8CF86E292E0C5CF87E292E0C2CF8AE2FC
:1028000092E0BFCF0895882309F44BC0823871F459
:102810000E94C11181FF45C089E30E949B1C0E9458
:10282000DF1C89E30E94A21C0C94DF1C833859F43E
:102830000E94C11180FF35C083E50E949B1C0E944D
:10284000DF1C83E5EFCF843859F40E94C11182FF69
:1028500028C087E40E949B1C0E94DF1C87E4E2CF13
:102860009CEF980F913AF0F290E2980F983050F464
:10287000877091E001C0990F8A95EAF7892F0E942D
:102880001B1DD2CF9BE5980F933020F490E080E0A1
:102890000C94E311885A853120F490E080E00C9488
:1028A000F9110895882321F00E94151D0C94DF1C56
:1028B0000895882321F00E941B1D0C94DF1C0895AD
:1028C0008F929F92AF92BF92CF92DF92EF92FF9240
:1028D0000F931F93CF93DF937C01D62FC72FFC015B
:1028E000058102950F70128111110E94321D0E9404
:1028F000D81CC82E882371F01123B1F080E28D0F0F
:10290000883090F082E00E94C21C0E94D81C91E0A6
:10291000C82EC926DC2ED2949FE0D922ED2DF0E0FE
:10292000E951F14D0C94E82DC12CF4CF0C2F0F7010
:10293000C07F11F00295007F1123A9F0002359F008
:1029400080E28D0F883010F0D11109C0802F0E94D5
:10295000151D0E94DF1C8D2F0E940C1314C0802FA8
:102960000E94251DF6CF8D2F0E940314002359F0DD
:1029700080E28D0F883010F0D11133C0802F0E947B
:102980001B1D0E94DF1C98E0D91639F0D91648F0BB
:1029900086EF8D0D8F70823020F40E94C1110E944D
:1029A0003C0ACC2009F4FCC10E94B51C80FDF8C192
:1029B000F70112820E94AF1C0E943B1BC7010E94BC
:1029C000DD160E94AF1CDF91CF911F910F91FF90F8
:1029D000EF90DF90CF90BF90AF909F908F900C942E
:1029E0005C1B802F0E942B1DCCCFFC2FFF70BF2EB5
:1029F000C07FC03219F0B29480EFB822DD2369F0B5
:102A0000D13049F1112391F1002351F1F701858172
:102A100080FFA1CF8F70858323C0112381F0011126
:102A200006C00E944B1D8B290E945214ACCF01306E
:102A3000C1F70E944B1D8B290E94451DA4CF011197
:102A400006C00E94481D8B2D0E9459149CCF013056
:102A500009F499CFF6CF112329F0063008F093CF6F
:102A60008B2DE2CF053008F08ECFEDCF002359F348
:102A70008D2F0E94031487CF8C2F869586958370A7
:102A800069F0813009F07FCF8D2F9C2F9370111149
:102A900002C090E080E00E94F91175CF8D2F9C2F2D
:102AA0009370111102C090E080E00E94E3116BCF9F
:102AB000112309F1D53F99F0D63FB9F0D43F49F43D
:102AC0008091AA029091AB0281609093AB028093B7
:102AD000AA028D2F0E9400210E94E72154CF8091ED
:102AE000AA029091AB028260F0CF8091AA029091ED
:102AF000AB028460EACFD53F89F0D63FA9F0D43F3E
:102B000049F48091AA029091AB028E7F9093AB0220
:102B10008093AA028D2F0E946821DECF8091AA02A5
:102B20009091AB028D7FF2CF8091AA029091AB027F
:102B30008B7FECCF8C2F837009F047C0111123CF0E
:102B40002D2F229526952770220F220F6D2F6F7043
:102B5000862E912CB12CA12C022E04C0880C991C1D
:102B6000AA1CBB1C0A94D2F760E070E0CB01D4FF32
:102B70000FC06FE070E080E090E004C0660F771F48
:102B8000881F991F2A95D2F760957095809590952A
:102B9000C695C695C370C23051F080F46829792972
:102BA0008A299B29C13071F00E94ED1AECCE682968
:102BB00079298A299B290E94FF1AE5CE0E94ED1AE5
:102BC000C501B4010E94DB1ADECE8695112311F0F7
:102BD0008C2F8170882309F4D6CE2D2F229526952F
:102BE0002770220F220F6D2F6F70862E912CB12C23
:102BF000A12C022E04C0880C991CAA1CBB1C0A9490
:102C0000D2F760E070E0CB01D4FF0FC06FE070E05E
:102C100080E090E004C0660F771F881F991F2A95F7
:102C2000D2F76095709580959095C695C695C370BE
:102C3000C23051F080F4682979298A299B29C13052
:102C400071F00E94B21B9FCE682979298A299B299D
:102C50000E94C41B98CE0E94B21BC501B4010E9401
:102C6000A01B91CEE0E2ED0FE53108F04DC0F0E0A1
:102C7000E950F14D0C94E82DDF708C2F8F711123EA
:102C800021F00E943B1B8D2FCFCE0E945C1B8D2F0D
:102C9000DBCE112341F0053008F075CE8C2F8F71FB
:102CA0000E947F1B70CE063008F06DCEF7CF8C2FC0
:102CB0008F71112339F00E943B1B65CE8C2F8F71D1
:102CC0001123C9F30E945C1B5ECE112329F08C2FC7
:102CD0008F710E94261B57CE0E94211B54CE1123B8
:102CE00049F0CF718C2F0E943B1B63E08C2F0E9418
:102CF000B91C49CE81E00E94C21C023008F443CEC8
:102D000082E00E94C21C3FCE112329F0011123CE84
:102D10008C2F8F71D0CF002369F0D93309F0A8CE62
:102D2000FFEF27EE83E0F15020408040E1F700C044
:102D300000009ECE8C2F8F71C5CF4C2F4F706D2F02
:102D4000C7010E943E0A0E94531A1DCE11111BCECC
:102D5000CF70C230B1F040F4CC2381F0C13009F023
:102D600012CE0E94B9220FCEC43089F068F080E004
:102D7000C53009F008CE0E940F2305CE0E94A12283
:102D800002CE0E94D222FFCD0E94EC22FCCD85E033
:102D9000F2CF4C2F4F706D2FC7010E94410AF3CD27
:102DA000DF91CF911F910F91FF90EF90DF90CF9027
:102DB000BF90AF909F908F9008950F931F93CF93E4
:102DC000DF93EC018B819C81892B29F0888199818B
:102DD00089238F3F29F4DF91CF911F910F9108959F
:102DE000CE010E9402078823B1F3688179818A812C
:102DF0000E94771C8C010E94D61B0E94D81AB80131
:102E0000CE01DF91CF911F910F910C9460140E941D
:102E1000321D0E94421D0E94A91C0E94DF1C0E94BC
:102E20007C220E94E72190E080E00E94E31190E084
:102E300080E00C94F9110E94221D0C9407170E9447
:102E40006D1CE92FE295EF70E250EE3070F4F0E087
:102E5000E45FF04D0C94E82D803F19F020F4803EA3
:102E600020F481E00895843FE1F380E00895803EFE
:102E7000C0F3813FD1F7F5CF93FB882780F9089500
:102E8000CF93DF9300D000D00F92CDB7DEB70F9075
:102E90000F900F900F900F90DF91CF910895CF93E7
:102EA000DF9300D000D000D0CDB7DEB726960FB6A6
:102EB000F894DEBF0FBECDBFDF91CF9108951F9371
:102EC000CF93DF93C091900116E0809191018C1314
:102ED00004C0DF91CF911F910895D0E01C9FF001B5
:102EE0001D9FF00D1124EE56FE4F408151816281ED
:102EF0007381848195810E944F172196C770E5CF19
:102F00004091C2015091C3016091C4017091C5010B
:102F10008091C6019091C7010C944F171F93CF93D6
:102F2000DF938091C701807FC1F48091C401882321
:102F3000A1F080919001C09191016091C2017091C6
:102F4000C3014091C5015091C601D62FD723DA01A4
:102F5000A095B09516E0C81304C0DF91CF911F91E2
:102F6000089590E04115510511F0DF3F31F40196CD
:102F70008770F1CF2A0F3B1F17C0189FF001199FD0
:102F8000F00D1124EE56FE4F21812713F0CF208142
:102F90002613EDCF22812111EACF2381348124171A
:102FA000350740F3241B350B283C310500F72091F1
:102FB000C7012F7020612093C70126E0289FF001F0
:102FC000299FF00D1124E956FE4F80818F7080619A
:102FD000808382EC91E00E94DD16DF91CF911F91FA
:102FE0000C945F17BF92CF92DF92EF92FF920F93F4
:102FF0001F93CF93DF93CDB7DEB761970FB6F894E9
:10300000DEBF0FBECDBF8C0185E0F801DE011D964D
:1030100001900D928A95E1F7D8014C9111965C913F
:1030200011971296EC9012978091C5019091C6016C
:10303000009709F47FC12091C2013091C301622F32
:1030400063236F3F09F476C11396CD90DC90B09066
:10305000C401BB2009F411C1C816D906D0F1F6018C
:10306000E81BF90BCF01FF24F394883C910508F08D
:10307000F12C8091C701982F907FFF2009F4B8C0F0
:1030800091117FC0FE2C351329C0241327C0E110F5
:1030900025C08F7080618093C7010E94801782ECE9
:1030A00091E00E94DD168091C701D80115968C939E
:1030B0008F2D61960FB6F894DEBF0FBECDBFDF91A6
:1030C000CF911F910F91FF90EF90DF90CF90BF9025
:1030D0000895809590958C0D9D1DC5CFCD2829F024
:1030E000852F84238F3F09F041C180E0B82FB17054
:1030F000DB2E80FF3CC0809190012091910136E051
:10310000821315C04D875E878D859E850E946D1C3C
:10311000292F22952F702230F0F0243018F59F705F
:10312000F1F0F8019581907FD1F4D12C1EC090E090
:10313000389FF001399FF00D1124EE56FE4F61814A
:10314000651306C06081641303C06281E6120FC07C
:1031500001968770D5CF9F7011F0882331F3805E80
:10316000883018F3C8010E94DD16FD2CA1CFEE2097
:1031700009F49ECF8091C70181608093C701F12C33
:1031800097CF351306C0241304C0D801EE2009F4EC
:103190009AC04D875E878D859E850E941F17882364
:1031A00019F1EE2009F18091C701803270F0209171
:1031B000C2013091C30138872F831986DB86CA8606
:1031C0008C87CE0107960E94DD1686E0F801A2ECFE
:1031D000B1E001900D928A95E1F70E948E170E944E
:1031E0008017FF24F39464CFC8010E94DD16F9CF45
:1031F000911113C07C2DD98AC88A6E2D89890E94AD
:10320000401782EC91E00E94DD1686E0E2ECF1E0EE
:10321000DF011D928A95E9F763C0351312C02413AC
:1032200010C0E1100EC0F8018583C8010E94DD16B0
:10323000E2ECF1E086E0DF011D928A95E9F7FB2CD4
:1032400037CF4D875E878D859E850E941F17882307
:1032500059F2EE2049F28091C701803208F4B5CFCF
:103260002091C2013091C3013A8329831B82DD8200
:10327000CC828E83CE010196A6CFC816D90698F1CE
:10328000F601E81BF90BCF01F12C883C910508F001
:1032900049C0FE2CEE2009F4A7CF351332C0241309
:1032A00030C08091C70180FD23C0982F907F01F12D
:1032B000D80115968C931597903F39F0982F907FF1
:1032C000905F8F70892B15968C93C8010E94DD1634
:1032D00086E0F801A2ECB1E001900D928A95E1F749
:1032E0000E948017E5CE809590958C0D9D1DCCCFCA
:1032F00086E0F801A2ECB1E001900D928A95E1F729
:10330000D7CE4D875E878D859E850E941F178111C0
:103310005CCF8091C70181608093C701C8010E9482
:10332000DD16C6CE7C2DD98AC88A6E2D89890E9469
:1033300040176BCFEE2009F457CF4D875E878D8500
:103340009E850E941F17F82E882309F44DCF86E032
:10335000F801A2ECB1E001900D928A95E1F782ECC0
:1033600091E00E9407130E948E17BACF81E08E254C
:10337000BDCE1F93CF93DF93CDB7DEB72C970FB69B
:10338000F894DEBF0FBECDBF4F83588769877A8719
:103390008B879C87CE0107960E94F217882369F0DD
:1033A0008A859B85892B39F04F815885842F852309
:1033B0008F3F09F071C016E05FC086E0FE013796CE
:1033C000DE01119601900D928A95E1F78A859B8521
:1033D000892B89F388859F8189238F3F61F3209111
:1033E000910130E0C90101968770992740919001C1
:1033F0004817190671F40E941B1710929101109240
:10340000900186E0E2ECF1E0DF011D928A95E9F798
:10341000D2CF96E0929FD001939FB00D1124AE566B
:10342000BE4FFE01319601900D929A95E1F780937F
:1034300091010E945F17BFCF819FC00111248E565A
:103440009E4F0E94F2178823E9F0E09190011E9FA1
:10345000F0011124EE56FE4F40815181628173814B
:10346000848195810E944F178091900190E0019690
:10347000877099278093900180919001909191019C
:103480008913DACF2C960FB6F894DEBF0FBECDBFEE
:10349000DF91CF911F91089569857A858B859C85F1
:1034A0000E944F1788CFEF92FF920F931F93CF93F5
:1034B000DF938C01892B81F0F12CEE24E394E80159
:1034C0002196F8018491843770F4843008F05FC04D
:1034D0008130B1F08230A1F1DF91CF911F910F9136
:1034E000FF90EF900895853709F44CC008F43DC073
:1034F0009CE7980F903780F78F770E94031449C09C
:103500000E5F1F4FFE01849190E2980F983060F497
:103510008770FE2D01C0FF0F8A95EAF78F2F0E945A
:10352000351D0E94DF1C02C00E940C138F2D81509C
:1035300030F2EFE9FFE03197F1F700C00000F7CF7C
:103540000E5F1F4FFE01849190E2980F983050F467
:103550008770FE2D01C0FF0F8A95EAF78F2F0E941A
:103560003B1DDFCF0E940314E1CF0E5F1F4FFE0112
:10357000C491C150D8F28FE99FE00197F1F700C0E4
:103580000000F7CF0E5F1F4FFE01F490CFCF0E94D7
:103590000C138E01CBCF08950E94CB1A6093FE01CD
:1035A0007093FF0180930002909301020C9407171F
:1035B00008950C94CC1A0F931F930091FE01109163
:1035C000FF012091000230910102602B712B822BB0
:1035D000932B1F910F910C94CC1A0F931F93009172
:1035E000FE011091FF012091000230910102602341
:1035F0007123822393231F910F910C94CC1A0F9364
:103600001F930091FE011091FF0120910002309163
:10361000010260277127822793271F910F910C9435
:10362000CC1A0C94CB1A0C94111B0E94131B6093A0
:10363000FA017093FB018093FC019093FD010C94BF
:10364000071760E070E0CB010C94151B0F931F93DC
:1036500041E050E060E070E08A019B0104C0000F8F
:10366000111F221F331F8A95D2F7C901B8011F917C
:103670000F910C94151B0F931F9341E050E060E0F5
:1036800070E004C0440F551F661F771F8A95D2F75C
:103690008091FA019091FB01A091FC01B091FD0194
:1036A0008A019B01082B192B2A2B3B2BC901B8013E
:1036B0001F910F910C94151B0F931F9341E050E045
:1036C00060E070E004C0440F551F661F771F8A95A5
:1036D000D2F7CB01BA0160957095809590950091D5
:1036E000FA011091FB012091FC013091FD01602352
:1036F0007123822393231F910F910C94151B0F9319
:103700001F9341E050E060E070E004C0440F551F9B
:10371000661F771F8A95D2F78091FA019091FB017D
:10372000A091FC01B091FD018A019B010827192796
:103730002A273B27C901B8011F910F910C94151B33
:103740000F931F930091FA011091FB012091FC014E
:103750003091FD01602B712B822B932B1F910F91C8
:103760000C94151B0F931F930091FA011091FB010C
:103770002091FC013091FD0160237123822393236A
:103780001F910F910C94151B0F931F930091FA0139
:103790001091FB012091FC013091FD016027712700
:1037A000822793271F910F910C94151B08952FE0EA
:1037B000929F800D1124982F977041E001C0440F13
:1037C0009A95EAF786958695869595E0899FF0010A
:1037D0001124E853FE4F90E080E070E05191DF014A
:1037E00011979B01082E02C0369527950A94E2F79F
:1037F000217021952527242325272C930196853098
:10380000910561F708952FE0929F800D1124982F64
:10381000977086958695869525E0829FF001112404
:10382000E853FE4F50E040E080E0219130E0092E67
:1038300002C0369527950A94E2F721703327042EAB
:1038400001C0220F0A94EAF7822B4F5F5F4F453089
:10385000510559F70895BF92CF92DF92EF92FF92F0
:103860000F931F93CF93DF938C01C090FA01D090F8
:10387000FB01E090FC01F090FD018091FE01909130
:10388000FF01A0910002B0910102C82AD92AEA2AB8
:10389000FB2ACFE1D0E0BC2ED701C6010C2E04C01C
:1038A000B695A795979587950A94D2F780FD0EC097
:1038B000219788F7B12C8B2DDF91CF911F910F911C
:1038C000FF90EF90DF90CF90BF900895B8018C2FBC
:1038D0000E945E0A019761F3EECFCF93DF93EC0174
:1038E0000E942B1CBE01DF91CF910C945E0A1F93A6
:1038F000CF93DF93EB0190918F01992331F0CB01AE
:10390000DF91CF911F910C946D1C882379F0CB012E
:103910000E942B1C182F682FCE010E94D71BBE01BE
:10392000812FDF91CF911F910C945E0ACB010E94F1
:10393000031C182FF4CF682F80910A0190910B017E
:103940000C94001E682F80910A0190910B010C9439
:103950000B1E80910A0190910B010C94161E809110
:10396000020285958595859508958091020287705C
:10397000089598E0899F90011124622B60930202C0
:103980000C943B1B90910202809589238093020244
:10399000282F277061F4282F082E000C330B921764
:1039A000130629F08595859585950C945C1B0895E3
:1039B00090910202977081E009F480E00895E0910F
:1039C0000A01F0910B01809126028083E0910A01A7
:1039D000F0910B01808190912502892B8083E091E9
:1039E0000A01F0910B01808190912402892B808340
:1039F00090910302992381F0E0910A01F0910B016B
:103A00008081892B808380910A0190910B010E9413
:103A1000A31D81111092030280910A0190910B0164
:103A20000C94CD1180912602089590912602892B45
:103A30008093260208958095909126029823909372
:103A40002602089510922602089590912502892B4E
:103A50008093250208958095909125029823909354
:103A60002502089510922502089590912402892B31
:103A70008093240208958095909124029823909336
:103A80002402089510922402089580930302089559
:103A90001092030208958091030208956DEE7EEF67
:103AA00090E080E00E94962E60E082E090E00E942C
:103AB000782E60E083E090E00E94782E60E084E061
:103AC00090E00E94782E60E085E090E00E94782EE1
:103AD00060E086E090E00E94782E40E050E0BA017D
:103AE00088E090E00C948A2E90E080E00E94722E94
:103AF00021E08D3E9E4F09F020E0822F089582E064
:103B000090E00C94642E682F82E090E00C94782E64
:103B100083E090E00C94642E682F83E090E00C9496
:103B2000782E84E090E00C94642E682F84E090E07E
:103B30000C94782E86E090E00C94642E682F86E03A
:103B400090E00C94782EFC0131969C01205E3F4F52
:103B500080E0919191118F5FE217F307D1F70895FB
:103B60009C01FC0132969FEF80E04191461751F095
:103B70009F3F19F4411101C0982F8F5F8E31A9F733
:103B80009F3F09F40895290F311D97FD3A95F901DA
:103B900062830895FC01329680962191261303C01A
:103BA000DF0111971C92E817F907B9F70895E62F7E
:103BB000E695E695E695EF3169F0E80FF92FF11DEE
:103BC000677021E030E001C0220F6A95EAF7818139
:103BD000822B81830895E62FE695E695E695EF31F1
:103BE00071F0E80FF92FF11D677021E030E001C09E
:103BF000220F6A95EAF72095818128232183089571
:103C000020911C01222329F02091B00227FD0C9461
:103C1000D71D0C94B01D20911C01222329F0209166
:103C2000B00227FD0C94EB1D0C94CA1DFC013196CB
:103C300080961192E817F907E1F70895089508951D
:103C40000C941F1E8091B702843009F42EC010928C
:103C5000280288E190E020E40FB6F894A8958093BC
:103C600060000FBE2093600080E00E94C00680E0EC
:103C70000E943C0A0E94580F0E94201E83B7817F39
:103C8000846083BF83B7816083BF7894889583B74E
:103C90008E7F83BF0FB6F894A895809160008861ED
:103CA00080936000109260000FBE08950895CF9336
:103CB0000E941E1E0E948C0D0E94561EC0E08C2F7A
:103CC0000E94590E892B31F4CF5FC530C1F780E0D7
:103CD000CF91089581E0FCCF08950C946C1E0E9452
:103CE0001B170E9488220E94C1110E943C0A0E9458
:103CF0004B110C946D1E1F921FB61F9211248F93AF
:103D00009F93AF93BF9380912802811113C080913C
:103D1000AC029091AD02A091AE02B091AF0241967B
:103D2000A11DB11D8093AC029093AD02A093AE0291
:103D3000B093AF02BF91AF919F918F911F901FBE23
:103D40001F90189582E084BD93E095BD9AEF97BDD2
:103D500080936E0008952FB7F8948091AC029091F3
:103D6000AD02A091AE02B091AF022FBF0895CF92E5
:103D7000DF92EF92FF920F931F932FB7F894409129
:103D8000AC025091AD026091AE027091AF022FBFB4
:103D90006A017B01EE24FF248C0130E020E0C01694
:103DA000D106E206F30650F0481B590BCA011F91D9
:103DB0000F91FF90EF90DF90CF90089541505109FF
:103DC000F3CF78941F921FB61F9211248F939F9365
:103DD000AF93BF938091AC029091AD02A091AE02DF
:103DE000B091AF020196A11DB11D8093AC029093DA
:103DF000AD02A093AE02B093AF02BF91AF919F917D
:103E00008F911F901FBE1F90189581E08093E00056
:103E100080E28093D8001092C9008FE19EE4019760
:103E2000F1F700C0000087E090EBDC018093C00256
:103E30009093C102A093C202B093C30288E19CE0B8
:103E40000FB6F894A895809360000FBE9093600021
:103E5000FFCFAF92BF92CF92DF92EF92FF920F937C
:103E60001F93CF93C0E0CC24C394D12CE82EF12C27
:103E70008C2F0E94590E5C0110E000E0C601002E5C
:103E800002C0880F991F0A94E2F78A219B21892B8F
:103E900099F40F5F1F4F0F30110581F7CF5FC530C9
:103EA00039F780E0CF911F910F91FF90EF90DF9055
:103EB000CF90BF90AF900895602F7C2F80E00E943C
:103EC000420AE816F90629F781E0ECCFCF93C82F14
:103ED0008CE20E94291F882321F08C2FCF910C9413
:103EE000291F80E0CF910895CF930E94741D811106
:103EF00002C00E944E1DC5E608C00E948C0D8FE3D3
:103F00009CE90197F1F700C00000C150B1F789E2C8
:103F10000E94661F8111EFC08AE20E94661F811114
:103F20000E944E1D85E00E94661F81110E94051FA0
:103F30000E947F1D8093270287E00E94661F8823CE
:103F400071F08BE10E94661F882309F4B1C0909143
:103F50002702892F8D7F91FF8260809327028091B5
:103F600027020E94831D0E94911D90E09093B10250
:103F70008093B00280EE0E94661F882341F09091EA
:103F8000B002892F8E7F90FF81608093B00289E319
:103F90000E94661F882341F09091B002892F8D7F87
:103FA00091FF82608093B00282EE0E94661F882398
:103FB00041F09091B002892F8B7F92FF84608093B3
:103FC000B00286EE0E94661F882341F09091B002F5
:103FD000892F877F93FF88608093B00283EE0E94D1
:103FE000661F882341F09091B002892F8F7E94FF45
:103FF00080618093B00285E30E94661F882341F0B0
:104000009091B002892F8F7D95FF80628093B002DE
:1040100081E30E94661F882341F09091B002892FAE
:104020008F7B96FF80648093B00281E10E94661FBF
:10403000882341F09091B002892F97FB87F980582F
:104040008093B0028091B0020E94951D87E20E9489
:10405000661FC82F8EE10E94661F8111C2608FE12A
:104060000E94661F8111C46080E20E94661F811158
:10407000C86081E20E94661F8111C06182E20E94D5
:10408000661F8111C06283E20E94661F8111C064B5
:1040900084E20E94661F882341F1C0688C2F0E9431
:1040A0008C1D6C2F70E090E080E0CF910C94D91AB9
:1040B0008EE00E94661F882339F090912702892F95
:1040C0008B7F92FF846049CF80E10E94661F9091B0
:1040D0002702882329F0892F877F93FF88603DCFAF
:1040E000892F8E7F90FF816038CFC111D7CF0E947A
:1040F000881D682FD7CFCF91089580912B0280FF24
:1041000012C060910F0185E0689FB0011124759580
:1041100067957595679560387105A8F56115710506
:10412000A1F1862F089581FF09C060910F0185E0FC
:10413000689FB001112475956795EDCF60910F01CF
:1041400082FD0AC080912C028823D1F090910E014B
:1041500060910F01891728F085E0689FB001112454
:10416000DACF869FB001112485E0869F9001879F5A
:10417000300D1124692F70E0C9010E94B22DCBCF00
:1041800065E070E0CECF8FE7089581E008958091DB
:104190002B0280FF0CC060910D0170E07595679552
:1041A000759567956115710549F1862F089581FF11
:1041B00006C060910D0170E075956795F3CF609131
:1041C0000D0182FD0BC090912C029923A1F060910A
:1041D0000C0180910D01961738F0682F70E060385F
:1041E000710500F38FE70895899FC001112470E0E5
:1041F0000E94B22DF4CF61E070E0D7CF81E0089546
:10420000803F31F40E947D20819580932F02089594
:10421000813F19F40E947D20F8CF823F31F40E9443
:104220007D20819580932E020895833F19F40E948A
:104230007D20F8CF893F29F40E94C7208093300267
:1042400008958A3F21F40E94C7208195F7CF8B3FC4
:1042500031F40E94C72081958093310208958C3FEC
:1042600019F40E94C720F8CF843F31F480912D02C9
:10427000816080932D020895853F21F480912D0265
:104280008260F7CF863F21F480912D028460F1CFC8
:10429000873F21F480912D028860EBCF883F21F485
:1042A00080912D028061E5CF8D3F31F480912B020A
:1042B000816080932B0208958E3F21F480912B0220
:1042C0008260F7CF8F3FB9F780912B028460F1CFE6
:1042D00090912E02803F41F480912F0287FD109231
:1042E0002F02992371F00895813F29F480912F02C4
:1042F0001816ACF3F6CF823F81F497FFF2CF1092FD
:104300002E0280912F0290913002892B90913102E0
:10431000892B49F710922C020895833F19F419163E
:1043200074F3DFCF893F39F4809130021816CCF650
:1043300010923002D6CF8A3F29F48091300287FF55
:10434000D0CFF6CF8B3F39F48091310287FFC9CFB0
:1043500010923102C6CF8C3F29F480913102181699
:10436000BCF3BFCF843F31F480912D028E7F8093C8
:104370002D02B7CF853F21F480912D028D7FF7CF9D
:10438000863F21F480912D028B7FF1CF873F21F46E
:1043900080912D02877FEBCF883F21F480912D0201
:1043A0008F7EE5CF8D3F31F480912B028E7F8093FD
:1043B0002B0297CF8E3F21F480912B028D7FF7CF78
:1043C0008F3F09F08ECF80912B028B7FF0CF8DE253
:1043D00092E00E94D8110E94AB1E90932A02809313
:1043E000290208951F93CF93DF9380912902909122
:1043F0002A020E94B71EAC0190912C02209110015C
:1044000030E0911106C0209111018AE0289F9001AF
:1044100011244217530778F020912E02C0912F02E9
:10442000D091300210913102211109C08C2F8D2BB7
:10443000812B09F05DC0DF91CF911F9108959F3FBF
:1044400019F09F5F90932C02121624F40E947D2095
:1044500080932E0280912E0287FF05C00E947D204E
:10446000819580932E021C1624F40E947D20809357
:104470002F0280912F0287FF05C00E947D20819529
:1044800080932F0240912E02442379F030912F0225
:10449000332359F025EB4203A001112450932E023F
:1044A00032039001112430932F021D1624F40E9430
:1044B000C720809330028091300287FF05C00E94A0
:1044C000C720819580933002111624F40E94C720E2
:1044D000809331028091310287FF05C00E94C7207E
:1044E000819580933102DF91CF911F910C94E72148
:1044F0009F3F09F0A6CFB7CF85E0EDE2F2E0DF0104
:104500001D928A95E9F710922C0210922B020895C1
:104510000E94741D811102C00E944E1D0E949A1DAE
:104520008093B2028C3020F081708A608093B20256
:104530008091B20280FF03C086950C94C00680E093
:10454000FCCF8091B202982F9695953030F49F5F02
:10455000990F8170892B8093B2028091B2028160A1
:104560008093B2020E949E1D8091B20286950C94A7
:10457000C0068091B202982F9E7F79F0825080937E
:10458000B2028E7F91E009F490E08091B20290FB3C
:1045900080F98093B2020E949E1D8091B20286959E
:1045A0000C94C0069091B202892F8E7F90FF81609B
:1045B0008093B202813019F483E08093B20280913B
:1045C000B2020E949E1D8091B20280FF03C08695B8
:1045D0000C94C00680E0FCCF9091B202892F8695A2
:1045E0008F5F8F7791708630B8F4880F892B809316
:1045F000B2028091B2028E7F91E009F490E0809146
:10460000B20290FB80F98093B2020E949E1D8091BD
:10461000B20286950C94C0069093B202EACF86301F
:1046200008F085E0982F990F8091B2028170892B54
:104630008093B2028E7F91E009F490E08091B20203
:1046400090FB80F98093B2020E949E1D8091B2027D
:1046500086950C94C0068091B2028695089580914B
:10466000520208950F931F93CF93DF9300D00F92C0
:10467000CDB7DEB78C010E94A125823011F08430C5
:1046800019F583E089831B830A838093E9008FEF08
:104690009091E800815095FD06C095ED9A95F1F74F
:1046A00000008111F5CF8091E80085FF0DC050E03A
:1046B00040E063E070E0CE0101960E94BE2580914B
:1046C000E8008E778093E8000F900F900F90DF91B5
:1046D000CF911F910F910895CF93DF9300D00F9248
:1046E000CDB7DEB72091B702243031F522E029831F
:1046F000805891099B838A8383E08093E9008FEF40
:104700009091E800815095FD06C095ED9A95F1F7DE
:1047100000008111F5CF8091E80085FF0DC050E0C9
:1047200040E063E070E0CE0101960E94BE258091DA
:10473000E8008E778093E8000F900F900F90DF9144
:10474000CF910895CF93DF93EC010E94A125823091
:1047500011F08430F9F482E08093E9008FEF9091BA
:10476000E800815095FD06C095ED9A95F1F700009F
:104770008111F5CF8091E80085FF0CC050E040E04A
:1047800065E070E0CE010E94BE258091E8008E7742
:104790008093E800DF91CF910895CF93DF93EC01F0
:1047A0000E94A125823011F08430F9F480911C011F
:1047B0008823F1F08091B00287FF1AC084E08093D3
:1047C000E9008FEF9091E800815095FD06C095E1DA
:1047D0009A95F1F700008111F5CF8091E80050E043
:1047E00040E060E270E085FD1AC0DF91CF9108954E
:1047F00081E08093E9008FEF9091E800815095FD72
:1048000006C095ED9A95F1F700008111F5CF8091E2
:10481000E80085FFEACF50E040E068E070E0CE01BC
:104820000E94BE258091E8008E778093E80080E2A8
:10483000FE01A2E3B2E001900D928A95E1F7D5CF97
:104840008091B602811109C00E944C270E94A927BD
:104850008091E20084608093E20008951092B60295
:104860000895089508950C946F1E42E061EC81E074
:104870000E94CA2642E061EC82E00E94CA2642E021
:1048800061EC83E00E94CA2642E261EC84E00C9471
:10489000CA268091B902833009F455C030F48130C2
:1048A00071F1823009F491C008958A3009F47DC015
:1048B0008B3009F463C0893009F044C08091B8029C
:1048C000813209F03FC08091BC029091BD020097F7
:1048D00011F00397B9F58091E800877F8093E80095
:1048E0008091E80082FF2AC08091F10080935202FB
:1048F0008091E8008B778093E8000C94FE268091ED
:10490000B802813AF9F48091E800877F8093E8004B
:104910008091BC029091BD02892B61F460E282E338
:1049200092E070E00E940D268091E8008B778093E2
:10493000E800089560E090E080E0F3CF8091B70256
:104940008111CECF08958091B802813AD9F7809134
:10495000BC029091BD02892BA9F78091E800877F66
:104960008093E8008091E80080FFFCCF80911C01DB
:104970008093F1008091E8008E77BDCF8091B802DE
:10498000813201F78091BC029091BD02892BD1F652
:104990008091E800877F8093E8000E94FE26809146
:1049A000BA0280931C010C941B178091B8028132CB
:1049B00049F68091E800877F8093E8000E94FE26F8
:1049C0008091BB028093530208958091B802813A8E
:1049D00009F0B8CF8091E800877F8093E80080914C
:1049E000E80080FFFCCF80915302C2CF84B7877F5D
:1049F00084BF0FB6F894A895809160008861809379
:104A00006000109260000FBE80E8809361001092F9
:104A100061000E9410120E944C270E94A9278091D9
:104A2000E20084608093E20078940E94292A0E9428
:104A3000141282E191E00E94BC118091B70285308E
:104A400019F00E941E12F9CF0E94221E8091B50219
:104A5000882399F30E94571E882379F30E94A82582
:104A6000ECCF0C943325292F33272330310521F146
:104A700068F42130310509F449C02230310509F4C8
:104A80004AC090E080E030E020E029C021323105CA
:104A900081F122323105A9F76430710590F7FB01ED
:104AA000EE0FFF1FEB5CFE4F208131816F5C7E4F6C
:104AB000FB01808190E013C099278130910599F026
:104AC000009741F08230910589F00397D1F6E4ED2B
:104AD000F4E002C0E2E0F5E0849190E09F01FA0189
:104AE000318320830895E0EFF4E0F6CFEAEDF4E0BF
:104AF000F3CF6430710528F6660F771FFB01E35C86
:104B0000FE4F2081318189E090E0E9CF82E190E0A1
:104B100023E735E0E4CF8DE690E026E035E0DFCF17
:104B20000895CF93C82F0E949025C0935402CF912F
:104B300008958091B702843011F482E0089581E0F5
:104B4000089580915402811102C00C949925089512
:104B500080E189BD82E189BD09B400FEFDCF80916D
:104B6000D8008F7D8093D8008091E0008260809390
:104B7000E0008091E00081FDFCCF0895AF92BF92EC
:104B8000CF92DF92FF920F931F93CF93DF936C012D
:104B9000EB018A010E941D27F82E811123C0011507
:104BA000110539F0F80180819181C81BD90BC80E1D
:104BB000D91EB12CA12C2097A9F08091E80085FD89
:104BC00022C08091E8008E778093E80001151105DE
:104BD000A1F0F80180819181A80EB91EB182A08256
:104BE00085E0F82E8F2DDF91CF911F910F91FF90CF
:104BF000DF90CF90BF90AF9008950E941D2788232B
:104C0000D1F2F82EEFCFF60181916F018093F10080
:104C10002197FFEFAF1ABF0ACECFFC018091BE02F1
:104C20009091BF0286179707A0F06115710529F4CE
:104C30009091E8009E779093E80090E061157105EF
:104C400051F4911108C08091E80082FF34C080E0E7
:104C50000895BC01F2CF8091B7028823C1F185305D
:104C6000C1F18091E80083FD30C08091E80082FDB1
:104C7000EACF8091E80080FFE1CF8091F30020919E
:104C8000F200382F6115710519F02830310558F000
:104C900091E02830310509F090E02091E8002E776E
:104CA0002093E800CBCF81918093F100615071098E
:104CB0002F5F3F4FE7CF8091B702882341F08530C7
:104CC00041F08091E80083FFBECF81E0089582E04B
:104CD000089583E00895FC018091BE029091BF0287
:104CE00086179707A0F06115710529F48091E800F7
:104CF0008E778093E80090E06115710551F4911171
:104D000008C08091E80082FF35C080E00895BC01B2
:104D1000F2CF8091B7028823C9F18530C9F1809123
:104D2000E80083FD31C08091E80082FDEACF8091E8
:104D3000E80080FFE1CF8091F3002091F200382F4E
:104D40006115710519F02830310558F091E02830CF
:104D5000310509F090E08091E8008E778093E800BB
:104D6000CBCF84918093F1003196615071092F5F10
:104D70003F4FE6CF8091B702882341F0853041F064
:104D80008091E80083FFBDCF81E0089582E008951F
:104D900083E00895982F973028F08F708093E90072
:104DA00081E008959093E900242F762F50E0981722
:104DB00031F07091EC002091ED005091F00021FD58
:104DC00002C09F5FE8CF3091EB003E7F3093EB0055
:104DD0003091ED003D7F3093ED003091EB0031607C
:104DE0003093EB007093EC002093ED005093F000B3
:104DF0002091EE0027FDE5CF80E008958091B80274
:104E000087FF13C08091E80082FF06C08091E80010
:104E10008B778093E80004C08091B7028111F2CFB4
:104E200008958091B7028823D9F38091E80080FF2C
:104E3000F8CF8091E8008E77ECCF2091E40030919C
:104E4000E50085E6A9019091EC0090FF06C09091E5
:104E5000E80090FF06C080E008959091E80092FD80
:104E6000FACF9091B702992389F0953089F090910B
:104E7000EB0095FD0FC02091E4003091E500421752
:104E8000530709F38150F1F684E0089582E0089514
:104E900083E0089581E008950E94BA270E94C22706
:104EA000E0EEF0E0808181608083E8EDF0E08081D9
:104EB0008F77808319BCA7EDB0E08C918E7F8C93A7
:104EC00080818F7E80831092B60208950F931F9386
:104ED000CF93DF930E94BA270E94C227C8EDD0E08B
:104EE00088818F77888388818068888388818F7D97
:104EF000888319BC1092B7021092B3021092B502C7
:104F00001092B40200EE10E0F80180818B7F808364
:104F100088818160888342E060E080E00E94CA2648
:104F2000E1EEF0E080818E7F8083E2EEF0E0808130
:104F300081608083808188608083F80180818E7F9A
:104F40008083888180618883DF91CF911F910F9149
:104F50000895E8EDF0E080818F7E8083E7EDF0E05A
:104F600080818160808384E082BF81E08093B6028B
:104F70000C946627E8EDF0E080818E7F80831092AC
:104F8000E20008951092DA001092E10008951F9255
:104F90000F920FB60F9211242F933F934F935F936D
:104FA0006F937F938F939F93AF93BF93EF93FF93F1
:104FB0008091E10082FF0BC08091E20082FF07C078
:104FC0008091E1008B7F8093E1000E94282A8091EC
:104FD000DA0080FF19C08091D80080FF15C0809151
:104FE000DA008E7F8093DA008091D90080FF94C030
:104FF00080E189BD82E189BD09B400FEFDCF81E079
:105000008093B7020E9420248091E10080FF19C0A4
:105010008091E20080FF15C08091E2008E7F809336
:10502000E2008091E20080618093E2008091D800EC
:1050300080628093D80019BC85E08093B7020E94FB
:1050400032248091E10084FF29C08091E20084FF36
:1050500025C080E189BD82E189BD09B400FEFDCF94
:105060008091D8008F7D8093D8008091E1008F7E61
:105070008093E1008091E2008F7E8093E200809136
:10508000E20081608093E2008091B302882309F4FA
:1050900049C084E08093B7020E9433248091E100EC
:1050A00083FF29C08091E20083FF25C08091E10049
:1050B000877F8093E10082E08093B7021092B30271
:1050C0008091E1008E7F8093E1008091E2008E7FED
:1050D0008093E2008091E20080618093E20042E0F0
:1050E00060E080E00E94CA268091F0008860809392
:1050F000F0000E943124FF91EF91BF91AF919F91F9
:105100008F917F916F915F914F913F912F910F9070
:105110000FBE0F901F90189519BC1092B7020E94F5
:105120002E2472CF8091E30087FD02C081E0B2CFD0
:1051300083E0B0CF1F920F920FB60F9211242F93DE
:105140003F934F935F936F937F938F939F93AF930F
:10515000BF93CF93EF93FF93C091E900CF708091FD
:10516000EC001092E9008091F000877F8093F000BE
:1051700078940E94D6281092E9008091F00088600F
:105180008093F000C093E900FF91EF91CF91BF9120
:10519000AF919F918F917F916F915F914F913F91CF
:1051A0002F910F900FBE0F901F9018951F93CF93C4
:1051B000DF93CDB7DEB7AA970FB6F894DEBF0FBE68
:1051C000CDBF88EB92E02091F100FC012193CF014B
:1051D000F2E0803C9F07B9F70E9449248091E800E3
:1051E00083FF1EC18091B8029091B9029A3008F0F5
:1051F00017C1E92FF0E0E65EF04D0C94E82D803801
:1052000099F0823809F00CC18091BC028F70873010
:1052100008F006C18093E9008091EB0085FB8827A8
:1052200080F91092E90006C08091B4029091B50215
:10523000911182609091E800977F9093E8008093AD
:10524000F1001092F1008091E8008E77E5C088238C
:1052500009F4D3C0823009F0E3C08091BA02811111
:10526000D6C08091BC028F702FEF280F263008F037
:10527000D7C08093E9002091EB0020FFC8C0933095
:1052800031F48091EB0080628093EB00C0C090917C
:10529000EB0090619093EB0021E030E001C0220F21
:1052A0008A95EAF72093EA001092EA008091EB00D9
:1052B0008860EACF8111B4C01091BA021F77809143
:1052C000E3008078812B8093E3008091E800877F62
:1052D0008093E8000E94FE268091E80080FFFCCFCA
:1052E0008091E30080688093E30082E0111183E005
:1052F0008093B70295C08058823008F091C08091A9
:10530000BA029091BB028C3D23E09207A1F583E0A5
:105310008A838AE289834FB7F894DE01139620E0EE
:105320003EE051E2E32FF0E050935700E49120FF7C
:1053300003C0E295EF703F5FEF708E2F90E0EA3090
:10534000C0F0C7968D939D932F5F243159F74FBFBF
:105350008091E800877F8093E8006AE270E0CE01E8
:1053600001960E940D268091E8008B778093E800DB
:1053700057C0C096E7CF6091BC027091BD02AE01EC
:105380004F5F5F4F0E943125BC01892B09F448C053
:105390009091E800977F9093E80089819A810E941C
:1053A0006B26E1CF8038E1F58091E800877F80931C
:1053B000E8008091B3028093F10045CF811130C0A5
:1053C0009091BA02923060F58091E800877F8093D7
:1053D000E8009093B3020E94FE268091B3028823D6
:1053E00011F084E005C08091E30087FDFACF81E0F1
:1053F0008093B7020E94352413C08091BA02813095
:1054000079F481E0933009F080E08093B502109246
:10541000E9008091E800877F8093E8000E94FE26E3
:105420008091E80083FF0AC08091E800877F809325
:10543000E8008091EB0080628093EB00AA960FB6A3
:10544000F894DEBF0FBECDBFDF91CF911F910895BD
:105450000895CF938091B702882399F0C091E90015
:10546000CF708091EC0080FD0EC080E0C82B1092C0
:10547000E9008091E80083FD0E94D628CF70C09398
:10548000E900CF91089580E8F1CF5058BB27AA27B3
:105490000E945D2A0C94082C0E94FA2B38F00E947E
:1054A000012C20F039F49F3F19F426F40C94D02BF2
:1054B0000EF4E095E7FB0C94CA2BE92F0E94192CFF
:1054C00058F3BA17620773078407950720F079F439
:1054D000A6F50C943B2C0EF4E0950B2EBA2FA02DC4
:1054E0000B01B90190010C01CA01A0011124FF2791
:1054F000591B99F0593F50F4503E68F11A16F0408C
:10550000A22F232F342F4427585FF3CF469537958A
:105510002795A795F0405395C9F77EF41F16BA0B4F
:10552000620B730B840BBAF09150A1F0FF0FBB1FFD
:10553000661F771F881FC2F70EC0BA0F621F731F46
:10554000841F48F4879577956795B795F7959E3FA3
:1055500008F0B0CF9395880F08F09927EE0F979534
:10556000879508950E94C62A0C94082C0E94012C4D
:1055700058F00E94FA2B40F029F45F3F29F00C9478
:10558000CA2B51110C943C2C0C94D02B0E94192C3A
:1055900068F39923B1F3552391F3951B550BBB2762
:1055A000AA2762177307840738F09F5F5F4F220FA7
:1055B000331F441FAA1FA9F335D00E2E3AF0E0E89E
:1055C00032D091505040E695001CCAF72BD0FE2FE8
:1055D00029D0660F771F881FBB1F2617370748077C
:1055E000AB07B0E809F0BB0B802DBF01FF27935834
:1055F0005F4F3AF09E3F510578F00C94CA2B0C9403
:105600003C2C5F3FE4F3983ED4F3869577956795FD
:10561000B795F7959F5FC9F7880F911D9695879568
:1056200097F90895E1E0660F771F881FBB1F621787
:1056300073078407BA0720F0621B730B840BBA0B45
:10564000EE1F88F7E095089529F416F00C94CA2B04
:105650000C943B2C0C94D02B0E94212CA8F3963850
:10566000A0F707F80F92E8942BE33AEA48EB5FE7DC
:105670000E94CE2C0F920F920F924DB75EB70F92F1
:105680000E94842CECEAF0E00E94D32B4F915F91B2
:10569000EF91FF91E595EE1FFF1F49F0FE57E0687F
:1056A0004427EE0F441FFA95E1F74195550B0E94F0
:1056B0004E2C0F9007FE0C94422C08950E94212C32
:1056C00088F09F5798F0B92F9927B751B0F0E1F0C3
:1056D000660F771F881F991F1AF0BA95C9F714C073
:1056E000B13091F00E943B2CB1E008950C943B2C1A
:1056F000672F782F8827B85F39F0B93FCCF38695AC
:1057000077956795B395D9F73EF490958095709508
:1057100061957F4F8F4F9F4F0895E89409C097FB85
:105720003EF490958095709561957F4F8F4F9F4F78
:105730009923A9F0F92F96E9BB279395F6958795BC
:1057400077956795B795F111F8CFFAF4BB0F11F47F
:1057500060FF1BC06F5F7F4F8F4F9F4F16C0882326
:1057600011F096E911C0772321F09EE8872F762F5C
:1057700005C0662371F096E8862F70E060E02AF09D
:105780009A95660F771F881FDAF7880F9695879589
:1057900097F9089597F99F6780E870E060E00895B1
:1057A0009FEF80EC0895DF93CF931F930F93FF92A9
:1057B000EF92DF927B018C01689406C0DA2EEF0134
:1057C0000E94CB2CFE01E894A5912591359145913D
:1057D0005591A6F3EF010E945D2AFE019701A801F1
:1057E000DA9469F7DF90EF90FF900F911F91CF91BE
:1057F000DF91089500240A94161617061806090664
:10580000089500240A941216130614060506089536
:10581000092E0394000C11F4882352F0BB0F40F4BE
:10582000BF2B11F460FF04C06F5F7F4F8F4F9F4FFE
:10583000089557FD9058440F551F59F05F3F71F080
:105840004795880F97FB991F61F09F3F79F08795E7
:105850000895121613061406551FF2CF4695F1DF70
:1058600008C0161617061806991FF1CF8695710500
:10587000610508940895E894BB2766277727CB0134
:1058800097F908959B01AC0160E070E080E89FE328
:105890000C94B22A0C94CA2B0C942D2D0E94212C0E
:1058A000D8F39923C9F3940F511DA3F3915050409D
:1058B00094F059F0882332F0660F771F881F9150BB
:1058C0005040C1F79E3F51052CF7880F911D9695CA
:1058D000879597F908955F3FACF0983E9CF0BB2701
:1058E000869577956795B79508F4B1609395C1F75C
:1058F000BB0F58F711F460FFE8CF6F5F7F4F8F4FFA
:105900009F4FE3CF0C943C2CFA01DC01AA0FBB1F84
:105910009B01AC01BF5728F4222733274427507836
:1059200020C0B75190F4AB2F0024469537952795AA
:10593000011CA395D2F3002071F0220F331F441FE6
:10594000B395DAF30ED00C94452A61307105A0E8C6
:105950008A07B94630F49B01AC0166277727882770
:105960009078309621F020833183428353830895C9
:105970000E94CB2C0C94082C0E94FA2B38F00E9429
:10598000012C20F0952311F00C94CA2B0C94D02BF1
:1059900011240C943C2C0E94192C70F3959FC1F398
:1059A000950F50E0551F629FF001729FBB27F00DCD
:1059B000B11D639FAA27F00DB11DAA1F649F662722
:1059C000B00DA11D661F829F2227B00DA11D621F71
:1059D000739FB00DA11D621F839FA00D611D221F2B
:1059E000749F3327A00D611D231F849F600D211D0F
:1059F000822F762F6A2F11249F5750409AF0F1F092
:105A000088234AF0EE0FFF1FBB1F661F771F881FFA
:105A100091505040A9F79E3F510580F00C94CA2B3D
:105A20000C943C2C5F3FE4F3983ED4F38695779535
:105A30006795B795F795E7959F5FC1F7FE2B880FA0
:105A4000911D9695879597F908959F930E943D2DF6
:105A50000F9007FCEE5F0C94662D9F3F31F0915044
:105A600020F4879577956795B795880F911D969542
:105A7000879597F908950C94D02B0E94212CD8F388
:105A8000E894E0E0BB279F57F0F02AED3FE049ECB7
:105A900006C0EE0FBB0F661F771F881F28F0B23AB3
:105AA00062077307840728F0B25A620B730B840BEA
:105AB000E3959A9572F7803830F49A95BB0F661F7C
:105AC000771F881FD2F790480C942F2DEF93E0FF9B
:105AD00007C0A2EA2AED3FE049EC5FEB0E945D2A95
