:100000000C944A030C9491030C9491030C94910367
:100010000C9491030C9491030C9491030C94910310
:100020000C9491030C9491030C9419280C94EC28D3
:100030000C94CB1E0C9491030C9491030C9491039B
:100040000C9491030C9491030C9491030C949103E0
:100050000C9434070C94311F0C9491030C9491036D
:100060000C9491030C9491030C9491030C949103C0
:100070000C9491030C9491030C9491030C949103B0
:100080000C9491030C9491030C9491030C949103A0
:100090000C9491030C9491030C9491030C94910390
:1000A0000C9491030C9491030C94910307634236D2
:1000B000B79BD8A71A39685618AEBAAB558C1D3CF9
:1000C000B7CC5763BD6DEDFD753EF6177231BF00BD
:1000D0000000803F05A84CCDB2D44EB93836A902F5
:1000E0000C50B9918688083CA6AAAA2ABE00000036
:1000F000803F155C1E001F0020002100220023000D
:1001000024002500260027002D002E0000002A00D4
:100110002B0014001A000800150017001C0018001E
:100120000C00120013002F00300031000000E3002B
:1001300004001600070009000A000B000D000E0065
:100140000F0033003400000028000000E100000030
:100150001D001B00060019000500110010003600EC
:10016000370038000000E5000000E000E300E20096
:100170000000000000002C42000000000000E6002B
:1001800002510351E40000000100010001000100E0
:100190000100010001000100010001000100010057
:1001A0000100010001000100010001000100010047
:1001B0000100010001000100010001000100010037
:1001C0000100000001000100010001000100010028
:1001D0000100010001000100010001000100010017
:1001E0000000010001000100010001000100010008
:1001F00001000100010001000100000001000100F8
:100200000100010001000000000000002C000000BF
:100210000000000001000251035101000000350000
:100220003A003B003C003D003E003F0040004100E2
:10023000420043004400450000004C000000F40070
:10024000F000F50000000000000000005200000077
:10025000460047004800000000003900F200F100AD
:10026000F300000000000000500051004F000000AB
:10027000000000000000000001000000AC00AE0023
:10028000AB00A900AA000000000000000000000070
:10029000000001000000010001000100000000005A
:1002A00000000153000000000000010000000000F9
:1002B000010000000000000000000000000000003D
:1002C000000000000000000000000000000000002E
:1002D00000000000CB5CCC5CCD5CCE5CCF5CD05C25
:1002E000D35C0000000000000000000000000000DF
:1002F0000100DB5C0000C75CC85C0000000000007F
:1003000000000000000000000000000000000100EC
:100310000000C05CC15CC35CC45CC55CC65CBF5C07
:10032000BB5CBD5CBC5C0000010000000100010082
:1003300001000000000000000000000000000000BC
:1003400001000000000001000000000000000000AB
:10035000000000000001010203040506080A0C0F5A
:100360001114181C2024292E33393F464C535B624C
:100370006A7179818A929AA2AAB2B9C1C8CFD5DC32
:10038000E1E7EBF0F4F7FAFCFDFEFFFEFDFCFAF707
:10039000F4F0EBE7E1DCD5CFC8C1B9B2AAA29A92DA
:1003A0008A8179716A625B534C463F39332E292426
:1003B000201C1814110F0C0A080605040302010181
:1003C0000000000000000000000000046801F000D0
:1003D000B40078005A007F3F1F64321464321478EE
:1003E0003C1E1E140A05000000000001010101016D
:1003F00001010101020202020202020202030303DE
:1004000003030303030404040404040505050505AC
:100410000606060606070707070808080809090967
:100420000A0A0A0A0B0B0B0C0C0C0D0D0D0E0E0F0D
:100430000F0F101011111112121313141415151699
:10044000161717181819191A1A1B1C1C1D1D1E1F08
:100450001F20202122222324252526272728292A58
:100460002B2B2C2D2E2F2F3031323334353636377F
:1004700038393A3B3C3D3E3F404142434446474881
:10048000494A4B4C4D4F50515253555657585A5B51
:100490005C5E5F606263646667696A6C6D6E7071F2
:1004A00073747678797B7C7E8081838486888A8B5E
:1004B0008D8F91929496989A9B9D9FA1A3A5A7A991
:1004C000ABADAFB1B3B5B7B9BBBDBFC1C4C6C8CA88
:1004D000CCCFD1D3D6D8DADCDFE1E4E6E8EBEDF03F
:1004E000F2F5F7FAFCFF0403300000001403530098
:1004F000360030002D0058002D0052004700420009
:1005000000001003530065006E007400720061006B
:10051000710000000403090409026D00040100A039
:10052000FA09040000010301010009211101000181
:100530002240000705810308000A090401000103A5
:10054000010200092111010001224D00070582036B
:1005500008000A090402000103000000092111013A
:1005600000012236000705830308000A090403007E
:1005700001030000000921110100012239000705D3
:1005800084032000011201100100000008EDFE604C
:100590006001000102030105010906A10105071917
:1005A000E029E71500250195087501810205081964
:1005B00001290595057501910295017503910105C4
:1005C00007190029F71500250195F875018102C06A
:1005D00005010980A10185021601002603001A8188
:1005E000002A8300751095018100C0050C0901A146
:1005F000018503160100269C021A01002A9C02753F
:100600001095018100C005010902A1010901A100A5
:1006100005091901290515002501950575018102B6
:100620009501750381010501093009311581257F87
:1006300095027508810609381581257F9501750891
:100640008106050C0A38021581257F950175088100
:1006500006C0C005010906A101050719E029E71533
:100660000025019508750181029501750881010534
:1006700008190129059505750191029501750391E8
:10068000010507190029FF150026FF0095067508CA
:100690008100C00011241FBECFEFDAE0DEBFCDBF66
:1006A00004B603FE27C08091990290919A02A0910E
:1006B0009B02B0919C028730904BA740B04BD1F485
:1006C0001092990210929A0210929B0210929C0230
:1006D00014BE84B7877F84BF0FB6F894A895809125
:1006E0006000886180936000109260000FBEE0E0BF
:1006F000F8E3099511E0A0E0B1E0E6EEFDE502C007
:1007000005900D92AE33B107D9F722E0AEE3B1E028
:1007100001C01D92A939B207E1F70E9446250C9449
:10072000A22E0C9400000E9470040E947B23811171
:1007300003C085E00C945F2308950F931F93CF931C
:10074000DF938C01EB0180913E01882329F08A819F
:10075000882391F00E94F00E0E32110521F10B3D1D
:100760008CE5180789F10D32110521F40E945E1DF8
:1007700085FD05C081E012C00E94A70EEDCF0E944A
:100780005E1D81FFF7CF8A818823A1F30E94F00EBE
:1007900080E00E945F230E949A1D80E0DF91CF914C
:1007A0001F910F9108950E945E1D85FFE3CF0E9467
:1007B0005E1D81FFDFCF8A818823E1F280E00E9405
:1007C0005F230E942F04E9CF8A81882399F28091C8
:1007D0003E0191E0892780933E01DFCFCF92DF92E7
:1007E000EF92FF928C3724E1920750F469E070E0B9
:1007F0000E94F02DCB01FF90EF90DF90CF900895F5
:10080000B0E0A0E0BC01CD016A50774D8F4F9F4F03
:10081000982F872F762F662725EF38E241E050E0AA
:100820000E94182E69017A01CA01B9010E94E02DC7
:100830009B01AC01C701B6010E94E02D672F782F04
:10084000892F99276115710521E08207910591F69D
:100850006FEF7FEFCFCF81E008950C949D030E944E
:1008600067172FEF84E39CE0215080409040E1F730
:1008700000C000000C94551F0C949E0A8630D8F4DA
:1008800081111AC090918000977F90938000282F4B
:1008900030E0AFEFBFEF0E94402E25E030E040E0B7
:1008A00050E00E94182EC9010E94EE0390938D0023
:1008B00080938C00089585E0909180009860E5CF4A
:1008C00080916F00817008951092400110923F0155
:1008D00010924101EFE6F0E080818160808308950D
:1008E000EFE6F0E080818E7F80830E947B230C9472
:1008F0003E040E94600481110C9470040C94640402
:10090000FF920F931F93CF93DF938C01FC01C08163
:10091000D18180919A01811150C08281882309F48C
:1009200047C0CE010E94771CF82E682FCE010E948E
:10093000231CBE018F2D0E94C007EC01B8010E944C
:100940002D04882309F410C1B801CE010E944C0A7D
:10095000882309F409C1C93CFCE5DF0709F444C157
:1009600008F071C0C13C9CE5D90709F415C108F035
:1009700048C0C531FCE5DF0728F5C2308CE5D80753
:1009800008F0B2C1C1159CE5D90709F4E8C0C1302F
:10099000DC4509F4F0C081E0809347018093480171
:1009A000C801DF91CF911F910F91FF900C942B0400
:1009B000CE010E944F1CF82EBCCFCE010E94771CA6
:1009C000BE01B9CFCF3BFCE5DF0709F445C208F013
:1009D000DCC0C531DC45F9F60E945E1DF80192814C
:1009E000992309F42FC28A7A91E009F490E0909358
:1009F0004201811125C289E20E94E71C0E942B1D41
:100A0000B3C0F8018281C53CFCE5DF0709F4DDC015
:100A100068F4C33CECE5DE0709F4D2C008F4C7C0B3
:100A2000882309F4A1C00E94C40D9EC0C73C9CE568
:100A3000D90709F4D4C008F4CDC0882309F494C0C0
:100A40000E942B0E91C0C13DFCE5DF0709F41CC1DB
:100A5000F0F5F8018281CD3CFCE5DF0709F4D9C04F
:100A6000D8F4CB3CECE5DE0709F4CCC008F4C4C0F4
:100A7000882309F479C00E94700C623071058105E9
:100A8000910540F00E94700C65307105810591055B
:100A900008F493C082E0BAC0CF3C9CE5D90709F4C2
:100AA000DFC008F4C9C0882309F45EC00E94700C3E
:100AB000653171058105910540F00E94700C673128
:100AC00071058105910508F478C085E19FC0C53D99
:100AD000FCE5DF0709F491C1C0F4F8018281C33D50
:100AE000FCE5DF0709F4EBC008F4D5C0882309F45E
:100AF0006DC1109247010E94FB1E909344018093A8
:100B0000430182E00E949E142FC0C93DECE5DE0740
:100B100009F4DAC0CA3DFCE5DF0709F4DEC0C63DD2
:100B2000DC4509F038CFF801828181116AC18091DA
:100B30004801811183C180914501909146010E9435
:100B4000071F883C910508F079C180E20E94A51436
:100B500088E20E94581388E20E944F1405C0F801F1
:100B6000828181110E942F0480E0DF91CF911F913B
:100B70000F91FF900895F80182818823A9F3809155
:100B80003202816080933202EFCFF80182818823A4
:100B900059F30E94080FE8CFF8018281882321F3DE
:100BA0000E945E1D827249F00E949E0EDDCF882356
:100BB000D9F20E945E1D8272B9F30E94940ED4CFC6
:100BC000882391F20E94AC0DCFCF882369F20E9456
:100BD000E30DCACF882341F20E94FB0DC5CF8823C5
:100BE00019F20E94130EC0CFF8018281882309F404
:100BF000BBCF0E947E0CB8CF882309F4B5CF0E94EA
:100C0000930CB2CF882309F4AFCF81E00E94910EFC
:100C1000ABCF882309F4A8CF0E94700C6630710511
:100C20008105910538F00E94700C683071058105CE
:100C3000910518F286E0EACF882309F495CF0E9447
:100C4000700C693071058105910540F00E94700CAF
:100C50006E3071058105910508F4AFCF89E0D6CFDC
:100C6000882309F481CF0E94700C6F3071058105D3
:100C7000910540F00E94700C643171058105910569
:100C800008F49BCF8FE0C2CFF8018281882309F45A
:100C90006BCF88E1BBCF882309F466CF0E94700C2C
:100CA000693171058105910540F00E94700C623236
:100CB00071058105910508F480CF89E1A7CF8823CC
:100CC00009F452CF83E2A2CFF8018281882309F48C
:100CD0004BCF80E00E94E32547CFF8018281882333
:100CE00009F442CF82E0F6CFF8018281882309F42B
:100CF00057CE0E94C01D811102C00E949A1D0E9401
:100D0000DD1D90E090938A0280938902FE01E350FA
:100D1000FC45809189028160E231F10538F4EC559F
:100D2000F14D0C943A2E8091890282608093890261
:100D3000809189020E94E11D0E94671715CF809162
:100D400089028460F3CF809189028860EFCF80911F
:100D500089028061EBCF809189028062E7CF809128
:100D600089028064E3CF809189028068DFCF80911F
:100D700089028C60DBCF809189028E7FD7CF8091F2
:100D800089028D7FD3CF809189028B7FCFCF8091D5
:100D90008902877FCBCF809189028F7EC7CF8091D8
:100DA00089028F7DC3CF809189028F7BBFCF8091D5
:100DB00089028F77BBCF80918902837FB7CF9091D3
:100DC0008902892F97FB87F98058B0CF809147011E
:100DD00081110FC080914301909144010E94071F2F
:100DE000883C910530F486E20E94581386E20E9406
:100DF0004F1482E00E94A514B7CEF80182818823A7
:100E000051F0109248010E94FB1E9093460180937E
:100E1000450180E277CE8091480181110FC0809119
:100E20004501909146010E94071F883C910530F4CE
:100E300087E20E94581387E20E944F1480E2DACFC3
:100E400085E3DACD80914201811104C089E20E94DC
:100E5000EE1CD4CD85E3FBCFF8018281882309F411
:100E600083CE0E94790480CE1F920F920FB60F920C
:100E700011242F933F934F935F936F937F938F939F
:100E80009F93AF93BF93CF93EF93FF932091000174
:100E900080913F0190914001019644EF249F900181
:100EA0001124B9010E94F02D9093400180933F01DD
:100EB000B901660F672F661F770B71950E94F02DA1
:100EC0006F7780914101823041F4603451F4809118
:100ED0006F008E7F80936F0004C0813011F46F37F4
:100EE000B1F3E62FF0E0E65BFC4FC4910E947B2358
:100EF000282F41E051E0C49FC001C59F900D1124EF
:100F000065E070E00E94F02D269FC001279F900DA4
:100F100011240E94EE0390938D0080938C00FF912A
:100F2000EF91CF91BF91AF919F918F917F916F91F1
:100F30005F914F913F912F910F900FBE0F901F9097
:100F40001895279A2F988AE08093800089E18093F2
:100F500081008FEF9FEF90938700809386000E941F
:100F6000D8220C9464040E94A1070C949B0A089553
:100F70000C94B7070C94B80790E080E008950895AA
:100F8000972F70E02FE0929F600D711D1124FB01DF
:100F90009BE4899FE00DF11D1124EE0FFF1FEE5021
:100FA000FF4F859194910895FC01EE0FFF1FE653CA
:100FB000FC4F859194910895CF93DF930E94C007D1
:100FC0000E94AD09EC01811521E5920708F049C0A6
:100FD000811530E5930708F021C1883E910508F599
:100FE000803E910570F5883A910570F4853A910537
:100FF00008F0A7C08130910521F1009711F1049705
:1010000000F5D0E0C0E01DC08D3B910508F4A4C000
:10101000805C9109C03CD105A0F30E94D407EC018B
:1010200010C08115904388F4C11580E2D80708F0FC
:10103000ECC0C03FD10528F3CF3FD10509F008F43B
:10104000E2C0CE01DF91CF910895C11590E4D90798
:1010500008F0E1C0CE019927D3FFDAC0EC01D86CCB
:10106000F0CF811529E5920740F5811538E5930702
:1010700008F01AC1811544E5940778F4C11583E599
:10108000D80708F0F8C0C11592E5D90708F0E2C00A
:10109000DC2FCC27C16FD06AD4CF811525E592070C
:1010A00008F4FDC0811536E5930708F0AACFD82FC4
:1010B000CC27CC27DF71D062C4CF8B3B9C4509F491
:1010C000F8C0CC3B8CE5D807B8F4C93B9CE5D90700
:1010D00009F4F2C008F0F3C0C1153AE5D30708F0EF
:1010E00090CFCE0134E0969587953A95E1F78F70D1
:1010F000CF70C06ED82F90C0CE3B4CE5D40709F41A
:10110000E1C060F4CC3B9CE5D90709F4DEC0CD3BDF
:10111000DC4509F076CFC0E0D2ED93CFCE019056FA
:101120008115904208F06DCF8D2F8F710E94280A93
:1011300090E0982F882788279F719C012C2BE9012C
:10114000BACF853A910509F4C3C0863A910509F0F2
:10115000C2C0C2E8D0E475CF883A910509F4BEC098
:10116000893A910509F4BDC08A3A910509F4BCC0D9
:101170008B3A910509F4BBC08C3A910509F4BAC0C9
:101180008B3B910509F4B9C08C3B910509F4B8C0BB
:101190008D3A910509F4B7C0803B910509F4B6C0BA
:1011A0008E3A910509F4B5C08F3A910509F4B4C09F
:1011B000813B910509F4B3C0823B910509F4B2C0AB
:1011C000833B910509F4B1C0843B910509F4B0C09B
:1011D000853B910509F4AFC0863B910509F4AEC08B
:1011E000873B910509F4ADC0883B910509F4ACC07B
:1011F000893B910509F4ABC08A3B910509F4AAC06B
:10120000C0E0D4E41ECFD0651CCFCE019F7005CFC7
:10121000EC01D06C16CFDF70D06A13CFE4E0969566
:101220008795EA95E1F783702C2F269526952370F4
:1012300040E2249F90011124382B8C2F8370C1E051
:10124000D0E002C0CC0FDD1F8A95E2F7C22BD32B72
:10125000DC68F7CECE018370992721E030E002C030
:10126000220F331F8A95E2F7C695C69580E2C89F84
:10127000E0011124EBCFCE018370992721E030E00B
:1012800002C0220F331F8A95E2F7C695C69590E2F9
:10129000C99FE0011124C22BD32BDA68D2CED82FFC
:1012A000CC27C46FD06ACDCED82FCC27C06FD06AE0
:1012B000C8CEC0E0D1EDC5CEC0E0D4EDC2CEC0E016
:1012C000D5EDBFCEC0E0D3EDBCCEC0E0D0EDB9CE01
:1012D000C1E8D0E4B6CEC3E8D0E4B3CEC2EED4E4E5
:1012E000B0CEC9EED4E4ADCECAEED4E4AACEC5EBFE
:1012F000D4E4A7CEC6EBD4E4A4CEC3EBD4E4A1CE11
:10130000C4EBD4E49ECEC7EBD4E49BCECCECD4E4C7
:1013100098CECDECD4E495CEC3E8D5E492CECAE81D
:10132000D5E48FCEC2E9D5E48CCEC4E9D5E489CE2C
:10133000C1E2D6E486CEC3E2D6E483CEC4E2D6E4EC
:1013400080CEC5E2D6E47DCEC6E2D6E47ACEC7E250
:10135000D6E477CECAE2D6E474CE8238910549F15C
:10136000B0F48133910509F462C048F489329105E3
:1013700009F456C08A32910509F460C00895853396
:10138000910509F446C08933910599F00895833E8B
:10139000910531F138F4803E910591F0823E91053E
:1013A000B1F00895863E910521F1873E910551F1F6
:1013B0000895209189022370D9F080EE90E008957D
:1013C0002091890220FF14C089E390E008952091C4
:1013D000890222FF0DC024FD09C083EE90E008952C
:1013E0002091890222FD31C024FF02C090E080E0FC
:1013F00008952091890223FFFBCF24FDF7CF87EECC
:1014000090E008952091890223FFEECF86EE90E0D0
:1014100008952091890225FFEBCF89E290E008959D
:101420002091890225FFE4CF85E390E00895209183
:10143000890226FFDDCF8AE290E00895209189029B
:1014400026FFD6CF81E390E0089582EE90E00895E4
:101450009091890292FF06C0282F2871283069F4E4
:10146000877F846093FF06C0282F2871283161F49C
:10147000877E846194FD877E0895282F247124300F
:1014800089F78B7F8860EECF282F2471243191F764
:101490008B7E8861EFCF08950F931F93CF938C01BC
:1014A000FB018281811106C0C1E08C2FCF911F9179
:1014B0000F910895C0915601C11125C006311C45F8
:1014C00099F70E944B0A81E0809356010E94FB1E0F
:1014D00090935501809354011092490110924B0151
:1014E00010924A0110924D0110924C0110924F013E
:1014F00010924E011092510110925001109253011E
:1015000010925201D2CF80915401909155010E94C6
:10151000071F8C32914040F680914901E82FF0E09E
:10152000EE0FFF1FE65BFE4F118300838F5F8093FA
:101530004901C0E0BACF0C94930308950C949D0A1E
:10154000CF93DF9385B7806885BF85B7806885BFF7
:10155000A5E2B1E04AE251E0C1E0D0E08D91E82F90
:10156000E295EF70F0E061A18F709E0101C0220F43
:101570008A95EAF7922F9095962391A382A1822BC8
:1015800082A34A175B0751F7A6E1B1E061E070E082
:101590008D91E82FE295EF70F0E041A18F709B01F3
:1015A00001C0220F8A95EAF7922F9095942391A378
:1015B00082A1822B82A381E0A532B80749F710925D
:1015C000620110926101109258011092570110921D
:1015D00064011092630110925A0110925901109205
:1015E00066011092650110925C0110925B011092ED
:1015F00068011092670110925E0110925D011092D5
:101600006A01109269011092600110925F01DF91EE
:10161000CF910C94B3074F925F927F928F929F92DB
:10162000AF92BF92CF92DF92EF92FF920F931F93F0
:10163000CF93DF9397E5492E91E0592E25E2E22ED4
:1016400021E0F22E01E010E099249394E201A990A8
:10165000B9902E01DE011E921E92F70181917F0149
:10166000E82FE295EF70F0E091A18F70980101C032
:10167000220F8A95EAF7892F822B81A382A1822EDD
:101680008094882182A380EA8A95F1F786E1C82EAA
:1016900081E0D82E90E080E0E60179916E01472F3D
:1016A00042954F7050E0EA0178A04D915C911197FE
:1016B0007F70E80102C0CC0FDD1F7A95E2F7BE0112
:1016C000672109F072C0B801082E02C0660F771FAB
:1016D0000A94E2F7462B572B11965C934E93019692
:1016E0008F309105C9F681A1882281A282A1282B81
:1016F00022A38D919C91A816B90641F090926B019E
:101700000E94FB1E90936D0180936C01D1E64D16F3
:10171000D1E05D0609F09ACF80916B01882391F1A9
:1017200080916C0190916D010E94071F069750F106
:1017300080915701909158019093620180936101CB
:101740008091590190915A019093640180936301B3
:1017500080915B0190915C0190936601809365019B
:1017600080915D0190915E01909368018093670183
:1017700080915F019091600190936A01809369016B
:1017800010926B010E943C0481E0DF91CF911F9188
:101790000F91FF90EF90DF90CF90BF90AF909F9010
:1017A0008F907F905F904F90089570E060E092CFAF
:1017B000E82FF0E0EE0FFF1FEF59FE4F808191817F
:1017C00008950895CF92DF92EF92FF920F931F93A7
:1017D000CF93DF93E901662309F466C0E42EF12C70
:1017E000EFEFF0E0E61BF109EE9D8001EF9D100D9B
:1017F000FE9D100D1124212FE12FFF27EE1AFF0A65
:101800005CE3C52ED12CB6010E94F02DFB01BC017A
:10181000E69EC001E79E900DF69E900D1124B60144
:101820000E94F02DE230F10589F168F4812F262F16
:10183000210F309781F0242F461B319761F080E013
:1018400020E040E008C0E430F10551F128F1842F98
:10185000861B3597A1F7E42FF0E0EA51FC4F449145
:10186000E22FF0E0EA51FC4F9491E82FF0E0EA51CA
:10187000FC4FE49149839883EA83DF91CF911F91D4
:101880000F91FF90EF90DF90CF900895862F810FFA
:10189000E42F412F2E2FDFCFE42FE61B842FF9CF2B
:1018A000842F462F410FD7CF842F242FD4CF88E009
:1018B00090E00C94622EAB01BC0188E090E00C94A7
:1018C000802EE0E6F2E083E0808311828FEF828356
:1018D0008383148260817181828193810C945B0C7B
:1018E0006091600260FF06C066956F7370E090E0E3
:1018F00080E0089560E070E0CB010895809164027B
:1019000090E001968430910514F083E090E080939C
:101910006402609160027091610280916202909114
:1019200063020C945B0C809164028150990B97FFC9
:1019300002C090E080E08430910514F083E090E0F4
:1019400080936402609160027091610280916202F2
:10195000909163020C945B0C80916002E5E6F2E0EA
:1019600080FF06C06AE070E085E692E00C94051204
:10197000118210821282339682E0E338F807C1F7B1
:10198000F1CF9091600290FF0CC0E5E6F2E0818318
:1019900060834283339692E0E338F907C1F70C94F1
:1019A000AC0C0895CF93DF9300D00F92CDB7DEB784
:1019B0002091600220FF0AC09E012F5F3F4F0E94CE
:1019C000E20B4B8169818A810E94C10C0F900F90BC
:1019D0000F90DF91CF9108953F924F925F926F9257
:1019E0007F928F929F92AF92BF92CF92DF92EF92AF
:1019F000FF920F931F93CF93DF9300D00F92CDB739
:101A0000DEB78C01462E542E322E8091600280FF6C
:101A100030C0982F9E77923009F040C09E012F5F12
:101A20003F4FC8010E94E20B4B8169818A810E946D
:101A3000C10C8091600200FB87F980936002902FB7
:101A40009695809161028078892B10FB87F98093AD
:101A500061024092620250926302332051F0609121
:101A600060027091610280916202909163020E9413
:101A70005B0C0F900F900F90DF91CF911F910F9102
:101A8000FF90EF90DF90CF90BF90AF909F908F909E
:101A90007F906F905F904F903F900895E82FE6956C
:101AA000EF739EE39E0F9F73943018F4509063027F
:101AB000C0CF9AE39E0F9F73993068F4881F8827E0
:101AC000881F90916102292F220F022F082B97FB6C
:101AD000112710F9AECF87E28E0F8F738A3008F08E
:101AE000A8CFE951FF0B21E0E0FD2FEFEE7FE4539B
:101AF000FC4F859194916AE070E00E94F02D2603DE
:101B00003001279F700C1124680188E9C81A8EEFF4
:101B1000D80A85E6E82E82E0F82E93E8A92E92E016
:101B2000B92E28E6822E99249394C601B4010E940E
:101B3000F02D9701452D642D0E94E20BC60CD71C99
:101B400083E0E80EF11CAE14BF0479F70E94AC0CE0
:101B500070CF21E00C94EC0CE0E6F2E02081221F33
:101B60002227221F30916102432F440F842F822BA2
:101B700037FB992790F9089668E671E00E94042ED9
:101B8000438162810C94A90D20916002221F2227BB
:101B9000221F30916102432F440F842F822B37FB89
:101BA000992790F98830910540F4805A9E4F4091D2
:101BB0006302609162020C94A90D089768E671E0D7
:101BC0000E94042EF4CF60916202683F90F4685F37
:101BD00080916002881F8827881F90916102292FB9
:101BE000220F97FB992790F940916302822B0C9466
:101BF000A90D6FEFEDCF60916202683090F06850F0
:101C000080916002881F8827881F90916102292F88
:101C1000220F97FB992790F940916302822B0C9435
:101C2000A90D60E0EDCF40916302483F90F4485F1A
:101C300080916002881F8827881F90916102292F58
:101C4000220F97FB992790F960916202822B0C94E6
:101C5000A90D4FEFEDCF40916302483090F048500E
:101C600080916002881F8827881F90916102292F28
:101C7000220F97FB992790F960916202822B0C94B6
:101C8000A90D40E0EDCF20E00C94EC0C90916002A7
:101C900090FF46C09178811128C0926090936002B5
:101CA000662351F06091600270916102809162023E
:101CB000909163020E945B0C80916002382F3E7706
:101CC0003230D9F410928701881F8827881F90919D
:101CD0006102292F220F97FB992790F94091630207
:101CE00060916202822B0C94430E843210F0966451
:101CF000D5CF8F73880F982BD1CF982F96959F7340
:101D00002EE3290F2F73273110F0363421F491E0A0
:101D100090938701D9CF995D9F739A30A8F6D2CF5F
:101D2000089561E00C94460E8091600286958F7351
:101D30008F5F843208F081E00C94910E80916002F4
:101D400086958F73815009F483E20C94910EE0E63E
:101D5000F2E080818160808386958F730C94910E70
:101D600060E00C94460E80913202816080933202D2
:101D700081E0809388010E94C01D811104C00E94EF
:101D80009A1D0E94610C0E94570C60936002709330
:101D9000610280936202909363026E7761F40E9405
:101DA000610C0E94570C60936002709361028093F3
:101DB00062029093630281E08093870180916002C8
:101DC00080FF04C086958F730C94B00E0895E0E6F2
:101DD000F2E080818160808386958F730C94B00ED1
:101DE000E0E6F2E080818E7F808360817181828174
:101DF00093810E945B0C109287012FEF80E792E0A5
:101E0000215080409040E1F700C000000C94AC0CE1
:101E10008091600280FD0C94F00E0C94A70EE0E619
:101E2000F2E080818E7F8083109287012FEF80E720
:101E300092E0215080409040E1F700C000000C94F7
:101E4000AC0C81E08093870108951092870108957A
:101E5000CF93C82F80918501909186010E94071F22
:101E6000EC2FF0E0EE51FC4FE491E817190611F069
:101E700008F042C00E94FB1E90938601809385016A
:101E80006091840170E090E080E00E94E12B20E00E
:101E900030E04FE753E40E94042B2BED3FE049E490
:101EA00050E40E940A2D0E94772D0E947E2B2BE485
:101EB0003AE34EE25FE30E94972A20EF3BEF48EDC2
:101EC00052E40E940A2D0E94B02B462F809160029E
:101ED000881F8827881F90916102292F220F97FB66
:101EE000992790F960916202822B0E94D20C809116
:101EF00084018F5F80938401CF910895CF93C82F81
:101F000080918201909183010E94071FEC2FF0E0E5
:101F1000E152FC4FE491E817190609F0E8F40E9439
:101F2000FB1E909383018093820140916302609134
:101F3000620280918001909181010E94D20C809177
:101F4000800190918101019668E671E00E94F02D78
:101F50009093810180938001CF910895CF92DF9279
:101F6000FF920F931F93CF93DF93F82E80917E0102
:101F700090917F010E94071FEF2DE695F0E0E4525B
:101F8000FC4FE491E817190609F0A8F50E94FB1E22
:101F900090937F0180937E0105E612E0D0E0C0E0DF
:101FA00088E6C82EDD24D39480917C0190917D0138
:101FB0008C0F9D1FB6010E94F02D98014091630285
:101FC000609162020E94E20BA4960D5F1F4FC8361B
:101FD00081E0D80749F70E94AC0C80917C01909178
:101FE0007D01F0FE10C00196BE010E94F02D90937D
:101FF0007D0180937C01DF91CF911F910F91FF9024
:10200000DF90CF9008950197F2CFCF92DF92EF92B9
:10201000FF920F931F93CF93DF93C82FFF24FA945F
:1020200080FD02C0FF24F39480917A0190917B019E
:102030000E94071FC695EC2FF0E0E752FC4FE49199
:10204000E817190611F008F051C00E94FB1E90938A
:102050007B0180937A0105E612E0D0E0C0E0F80150
:1020600011821082128294E0C92ED12CE12C809131
:1020700079018E0D87FD865F082E000C990B8C1759
:102080009D07E9F4809163028C9DA0018D9D500D08
:102090001124559547955595479580916002881F65
:1020A0008827881F90916102592F550F97FB992718
:1020B00090F9980160916202852B0E94E20BEF0C6F
:1020C000F1E0CF1AD10899F621960D5F1F4FCA3063
:1020D000D10529F60E94AC0C8091790191E0F912AA
:1020E00010C081110CC089E080937901DF91CF91FC
:1020F0001F910F91FF90EF90DF90CF900895815046
:10210000F3CF90E00196BE010E94042EEDCF0F9315
:102110001F93CF93DF93C82F80917701909178011F
:102120000E94071FEC2FF0E0EA52FC4FE491E81701
:10213000190611F008F052C00E94FB1E909378011E
:1021400080937701C5E6D2E0FE01118210821282EF
:10215000339682E0E338F807C1F710E000E08091A1
:102160007601082E000C990B08171907E4F18091ED
:102170000201082E000C990B80179107A4F18091A1
:102180006002881F8827881F90916102592F550F80
:1021900097FB992790F99E0140916302609162023A
:1021A000852B0E94E20B0F5F1F4F23960A3011050B
:1021B000B1F60E94AC0C8091010190917601980FCC
:1021C0009093760120910201280F209302011216AC
:1021D00014F499301CF0819580930101DF91CF9127
:1021E0001F910F910895198218821A82DCCFEF9205
:1021F000FF920F931F93CF93DF938091740190917F
:1022000075010E94071F883E9340C8F10E94FB1E83
:102210009093750180937401C0917201D091730104
:102220002196C170DD27D0937301C093720185E6BA
:10223000E82E82E0F82E10E008E7812F86958C0FBB
:102240009D2F911D817099279701409163026091A4
:102250006202FC010E9FC0010F9F900D11240E948D
:10226000E20B1F5FF3E0EF0EF11C1A3031F7DF9144
:10227000CF911F910F91FF90EF900C94AC0CDF91D8
:10228000CF911F910F91FF90EF900895CF93DF931F
:1022900000D00F92CDB7DEB780917001909171019F
:1022A0000E94071FEAECF3E025913491821793070F
:1022B000C0F180916F0181110CC09E012F5F3F4FD3
:1022C0004FEF6FEF90E080E00E94E20B8A818093F5
:1022D0006F010E94FB1E90937101809370018091A9
:1022E0006E01813071F0882339F040E0823011F4C2
:1022F00040916F0180E003C080916F0140E060E099
:1023000004C060916F0140E080E00E94C10C8091A8
:102310006E0190E0019663E070E00E94042E8093CD
:102320006E010F900F900F90DF91CF9108958091E3
:1023300087018823B1F190916002892F86958F7370
:102340002EE3280F2F73243018F482500C94280F9A
:102350002AE3280F2F73233018F486500C947E0F35
:1023600027E3280F2F73263018F489500C94AE0FF2
:1023700021E3280F2F73263018F48F500C9405108A
:102380002BE2280F2F73233018F485510C948710FB
:102390009E77903311F40C94F710963411F40C944A
:1023A0004611089531B3242F2095232331B3432BB5
:1023B0003FB7F894680F791F8617970711F43FBF4E
:1023C0000895FC015191CF01E8E041BB000000C03D
:1023D00057FF21BB550F000000C000C000C021BB4B
:1023E00000C0EA9591F7E8CF20B3242B20BB9B01D6
:1023F000220F331F620F731F0E94D21187EC90E0EF
:102400000197F1F700C00000089540E40C94F41126
:1024100090938E0180938D010895E0918D01F0914C
:102420008E01309721F00190F081E02D099480E039
:102430000895E0918D01F0918E01309721F0028096
:10244000F381E02D09940895E0918D01F0918E01C2
:10245000309721F00480F581E02D099408952091B2
:102460008B0130918C012817390771F090938C0102
:1024700080938B01E0918D01F0918E01309721F0D6
:102480000680F781E02D099408952091890130910B
:102490008A012817390771F090938A018093890186
:1024A000E0918D01F0918E01309721F00084F1854B
:1024B000E02D0994089508950C945B1281E008952D
:1024C0000E94F21E0E94A00A0E94C41F0E94D822ED
:1024D0000C94B30E5F926F927F928F929F92AF9205
:1024E000BF92CF92DF92EF92FF920F931F93CF9301
:1024F000DF93CDB7DEB72A970FB6F894DEBF0FBED5
:10250000CDBF0E940B0B0E945E12882309F47AC093
:1025100090E9A92E91E0B92E10E000E08824839480
:10252000912C502E802F0E94D80B7C01F501C19078
:10253000D1905F01C816D90609F45EC080913202BD
:1025400081FD0E94E10B90E080E0CE24DF24340185
:10255000082E02C0660C771C0A94E2F79601262129
:102560003721232B09F443C08E835F82E620F720B6
:1025700081E0EF2809F480E088870E94FB1E8160DB
:10258000782F9A8789874E815F8168858A850E9426
:102590002913000F111FF801E057FE4F8081918130
:1025A00068267926718260820E9442220E940D1262
:1025B00090918F018917B9F10E940D1280938F01BC
:1025C0002A960FB6F894DEBF0FBECDBFDF91CF9134
:1025D0001F910F91FF90EF90DF90CF90BF90AF9041
:1025E0009F908F907F906F905F900C94BA070196A8
:1025F0008F30910509F0ABCF0F5F1F4F05301105EC
:1026000009F08FCF8FEF89838A831B820E94FB1E84
:102610008160782F9D838C8349815A816B818D8164
:102620000E942913C1CF2A960FB6F894DEBF0FBEC1
:10263000CDBFDF91CF911F910F91FF90EF90DF9071
:10264000CF90BF90AF909F908F907F906F905F9052
:102650000895CF93DF93CDB7DEB72B970FB6F894DD
:10266000DEBF0FBECDBF4F83588769877A878B87C0
:102670001E821D8285E0FE013796DE0111960190D3
:102680000D928A95E1F749815A816B817C818D8118
:102690009E812B960FB6F894DEBF0FBECDBFDF91A3
:1026A000CF910C94051AFC01808191810C94B91C86
:1026B000882309F4F3C08238B9F40E940D1281FD19
:1026C000EDC089E30E94E71C0E942B1D2FEF81EED5
:1026D00094E0215080409040E1F700C0000089E381
:1026E0000E94EE1C0C942B1D8338A1F40E940D1245
:1026F00080FDD4C083E50E94E71C0E942B1D2FEFB4
:1027000081EE94E0215080409040E1F700C000004D
:1027100083E5E6CF8438A1F40E940D1282FDBEC08D
:1027200087E40E94E71C0E942B1D2FEF81EE94E0AE
:10273000215080409040E1F700C0000087E4D0CFF6
:102740009CEF980F913A18F40E94E71CCBCF90E2CF
:10275000980F983050F4877091E001C0990F8A95D6
:10276000EAF7892F0E94611DBDCF9BE5980F93303A
:1027700070F4853A31F0863A39F083E890E00C94B1
:102780002F1281E890E0FBCF82E890E0F8CF98E547
:10279000980F953108F082C0883A09F440C0893A10
:1027A00009F440C08A3A09F440C08B3A09F440C0A9
:1027B0008C3A09F440C08B3B09F440C08C3B09F4CF
:1027C00040C08D3A09F440C0803B09F440C08E3AC5
:1027D00009F440C08F3A09F440C0813B09F440C07D
:1027E000823B09F440C0833B09F440C0843B09F4B8
:1027F00040C0853B09F440C0863B09F440C0873B9C
:1028000009F440C0883B09F440C0893B09F440C04A
:102810008A3B09F440C090E080E00C94451282EEBF
:1028200090E0FBCF89EE90E0F8CF8AEE90E0F5CF14
:1028300085EB90E0F2CF86EB90E0EFCF83EB90E07A
:10284000ECCF84EB90E0E9CF87EB90E0E6CF8CEC27
:1028500090E0E3CF8DEC90E0E0CF83E891E0DDCF36
:102860008AE891E0DACF82E991E0D7CF84E991E07C
:10287000D4CF81E292E0D1CF83E292E0CECF84E266
:1028800092E0CBCF85E292E0C8CF86E292E0C5CF5E
:1028900087E292E0C2CF8AE292E0BFCF0895882318
:1028A00009F44BC0823871F40E940D1281FF45C0BB
:1028B00089E30E94E71C0E942B1D89E30E94EE1C05
:1028C0000C942B1D833859F40E940D1280FF35C0E3
:1028D00083E50E94E71C0E942B1D83E5EFCF84381F
:1028E00059F40E940D1282FF28C087E40E94E71C61
:1028F0000E942B1D87E4E2CF9CEF980F913AF0F2F3
:1029000090E2980F983050F4877091E001C0990FD1
:102910008A95EAF7892F0E94671DD2CF9BE5980F11
:10292000933020F490E080E00C942F12885A853187
:1029300020F490E080E00C9445120895882321F063
:102940000E94611D0C942B1D0895882321F00E9484
:10295000671D0C942B1D08958F929F92AF92BF928A
:10296000CF92DF92EF92FF920F931F93CF93DF935B
:102970007C01D62FC72FFC01058102950F701281B3
:1029800011110E947E1D0E94241DC82E882371F003
:102990001123B1F080E28D0F883090F082E00E9428
:1029A0000E1D0E94241D91E0C82EC926DC2ED29453
:1029B0009FE0D922ED2DF0E0EA54F14D0C943A2E2F
:1029C000C12CF4CF0C2F0F70C07F11F00295007F47
:1029D0001123A9F0002359F080E28D0F883010F008
:1029E000D11109C0802F0E94611D0E942B1D8D2FC7
:1029F0000E94581314C0802F0E94711DF6CF8D2F96
:102A00000E944F14002359F080E28D0F883010F09F
:102A1000D11133C0802F0E94671D0E942B1D98E0AA
:102A2000D91639F0D91648F086EF8D0D8F708230A7
:102A300020F40E940D120E94BA07CC2009F4FCC1B8
:102A40000E94011D80FDF8C1F70112820E94FB1C4B
:102A50000E94871BC7010E9429170E94FB1CDF915F
:102A6000CF911F910F91FF90EF90DF90CF90BF908B
:102A7000AF909F908F900C94A81B802F0E94771D81
:102A8000CCCFFC2FFF70BF2EC07FC03219F0B294A4
:102A900080EFB822DD2369F0D13049F1112391F1A3
:102AA000002351F1F701858180FFA1CF8F708583CD
:102AB00023C0112381F0011106C00E94971D8B29AC
:102AC0000E949E14ACCF0130C1F70E94971D8B2944
:102AD0000E94911DA4CF011106C00E94941D8B2D50
:102AE0000E94A5149CCF013009F499CFF6CF112391
:102AF00029F0063008F093CF8B2DE2CF053008F097
:102B00008ECFEDCF002359F38D2F0E944F1487CF26
:102B10008C2F86958695837069F0813009F07FCF80
:102B20008D2F9C2F9370111102C090E080E00E94C5
:102B3000451275CF8D2F9C2F9370111102C090E01C
:102B400080E00E942F126BCF112309F1D53F99F03D
:102B5000D63FB9F0D43F49F480918302909184022A
:102B6000816090938402809383028D2F0E94502174
:102B70000E94372254CF8091830290918402826018
:102B8000F0CF80918302909184028460EACFD53F98
:102B900089F0D63FA9F0D43F49F480918302909107
:102BA00084028E7F90938402809383028D2F0E94F3
:102BB000B821DECF80918302909184028D7FF2CF85
:102BC00080918302909184028B7FECCF8C2F837055
:102BD00009F047C0111123CF2D2F2295269527707C
:102BE000220F220F6D2F6F70862E912CB12CA12CED
:102BF000022E04C0880C991CAA1CBB1C0A94D2F794
:102C000060E070E0CB01D4FF0FC06FE070E080E0C7
:102C100090E004C0660F771F881F991F2A95D2F78E
:102C20006095709580959095C695C695C370C23095
:102C300051F080F4682979298A299B29C13071F0E3
:102C40000E94391BECCE682979298A299B290E9488
:102C50004B1BE5CE0E94391BC501B4010E94271B06
:102C6000DECE8695112311F08C2F8170882309F414
:102C7000D6CE2D2F229526952770220F220F6D2F4D
:102C80006F70862E912CB12CA12C022E04C0880CC2
:102C9000991CAA1CBB1C0A94D2F760E070E0CB011F
:102CA000D4FF0FC06FE070E080E090E004C0660FDA
:102CB000771F881F991F2A95D2F760957095809588
:102CC0009095C695C695C370C23051F080F46829BE
:102CD00079298A299B29C13071F00E94FE1B9FCE61
:102CE000682979298A299B290E94101C98CE0E9464
:102CF000FE1BC501B4010E94EC1B91CEE0E2ED0F7A
:102D0000E53108F04DC0F0E0EA53F14D0C943A2E55
:102D1000DF708C2F8F71112321F00E94871B8D2F64
:102D2000CFCE0E94A81B8D2FDBCE112341F00530A2
:102D300008F075CE8C2F8F710E94CB1B70CE0630A1
:102D400008F06DCEF7CF8C2F8F71112339F00E94D0
:102D5000871B65CE8C2F8F711123C9F30E94A81B8E
:102D60005ECE112329F08C2F8F710E94721B57CEDB
:102D70000E946D1B54CE112349F0CF718C2F0E94FD
:102D8000871B63E08C2F0E94051D49CE81E00E94C5
:102D90000E1D023008F443CE82E00E940E1D3FCE8D
:102DA000112329F0011123CE8C2F8F71D0CF002356
:102DB00069F0D93309F0A8CEFFEF27EE83E0F15098
:102DC00020408040E1F700C000009ECE8C2F8F7124
:102DD000C5CF4C2F4F706D2FC7010E94BC070E94BA
:102DE0009F1A1DCE11111BCECF70C230B1F040F42E
:102DF000CC2381F0C13009F012CE0E9409230FCEFE
:102E0000C43089F068F080E0C53009F008CE0E9437
:102E10005F2305CE0E94F12202CE0E942223FFCD25
:102E20000E943C23FCCD85E0F2CF4C2F4F706D2FDC
:102E3000C7010E94BF07F3CDDF91CF911F910F9182
:102E4000FF90EF90DF90CF90BF90AF909F908F90CA
:102E500008950F931F93CF93DF93EC018B819C8197
:102E6000892B29F08881998189238F3F29F4DF916B
:102E7000CF911F910F910895CE010E948004882365
:102E8000B1F3688179818A810E94C31C8C010E9400
:102E9000221C0E94241BB801CE01DF91CF911F910B
:102EA0000F910C94AC140E947E1D0E948E1D0E94F6
:102EB000F51C0E942B1D0E94CC220E94372290E01C
:102EC00080E00E942F1290E080E00C9445120E9456
:102ED0006E1D0C9453170E94B91CE92FE295EF70F8
:102EE000E250EE3070F4F0E0E552F14D0C943A2EE1
:102EF000803F19F020F4803E20F481E00895843F63
:102F0000E1F380E00895803EC0F3813FD1F7F5CF33
:102F100093FB882780F90895CF93DF9300D000D0EA
:102F20000F92CDB7DEB70F900F900F900F900F90CC
:102F3000DF91CF910895CF93DF9300D000D000D0E0
:102F4000CDB7DEB726960FB6F894DEBF0FBECDBF65
:102F5000DF91CF9108951F93CF93DF93C0919B0191
:102F600016E080919C018C1304C0DF91CF911F91DA
:102F70000895D0E01C9FF0011D9FF00D1124E35631
:102F8000FE4F4081518162817381848195810E94CD
:102F90009B172196C770E5CF4091CD015091CE018E
:102FA0006091CF017091D0018091D1019091D201B7
:102FB0000C949B171F93CF93DF938091D201807F56
:102FC000C1F48091CF018823A1F080919B01C09131
:102FD0009C016091CD017091CE014091D001509142
:102FE000D101D62FD723DA01A095B09516E0C813EA
:102FF00004C0DF91CF911F91089590E041155105D4
:1030000011F0DF3F31F401968770F1CF2A0F3B1F9B
:1030100017C0189FF001199FF00D1124E356FE4FC1
:1030200021812713F0CF20812613EDCF228121119A
:10303000EACF238134812417350740F3241B350B55
:10304000283C310500F72091D2012F702061209398
:10305000D20126E0289FF001299FF00D1124EE55A2
:10306000FE4F80818F70806180838DEC91E00E94A3
:103070002917DF91CF911F910C94AB17BF92CF927C
:10308000DF92EF92FF920F931F93CF93DF93CDB711
:10309000DEB761970FB6F894DEBF0FBECDBF8C01CF
:1030A00085E0F801DE011D9601900D928A95E1F709
:1030B000D8014C9111965C9111971296EC90129751
:1030C0008091D0019091D101009709F47FC12091A6
:1030D000CD013091CE01622F63236F3F09F476C199
:1030E0001396CD90DC90B090CF01BB2009F411C1B4
:1030F000C816D906D0F1F601E81BF90BCF01FF2461
:10310000F394883C910508F0F12C8091D201982F1E
:10311000907FFF2009F4B8C091117FC0FE2C3513B9
:1031200029C0241327C0E11025C08F7080618093CF
:10313000D2010E94CC178DEC91E00E94291780915A
:10314000D201D80115968C938F2D61960FB6F89405
:10315000DEBF0FBECDBFDF91CF911F910F91FF90CA
:10316000EF90DF90CF90BF900895809590958C0D53
:103170009D1DC5CFCD2829F0852F84238F3F09F0D1
:1031800041C180E0B82FB170DB2E80FF3CC0809140
:103190009B0120919C0136E0821315C04D875E870C
:1031A0008D859E850E94B91C292F22952F70223073
:1031B000F0F0243018F59F70F1F0F8019581907FC0
:1031C000D1F4D12C1EC090E0389FF001399FF00D52
:1031D0001124E356FE4F6181651306C060816413BC
:1031E00003C06281E6120FC001968770D5CF9F7031
:1031F00011F0882331F3805E883018F3C8010E94F3
:103200002917FD2CA1CFEE2009F49ECF8091D20189
:1032100081608093D201F12C97CF351306C024131F
:1032200004C0D801EE2009F49AC04D875E878D85D1
:103230009E850E946B17882319F1EE2009F1809179
:10324000D201803270F02091CD013091CE013887CB
:103250002F831986DB86CA868C87CE0107960E944B
:10326000291786E0F801ADECB1E001900D928A9546
:10327000E1F70E94DA170E94CC17FF24F39464CF81
:10328000C8010E942917F9CF911113C07C2DD98A4A
:10329000C88A6E2D89890E948C178DEC91E00E945E
:1032A000291786E0EDECF1E0DF011D928A95E9F740
:1032B00063C0351312C0241310C0E1100EC0F80112
:1032C0008583C8010E942917EDECF1E086E0DF015B
:1032D0001D928A95E9F7FB2C37CF4D875E878D8548
:1032E0009E850E946B17882359F2EE2049F2809147
:1032F000D201803208F4B5CF2091CD013091CE01BA
:103300003A8329831B82DD82CC828E83CE01019693
:10331000A6CFC816D90698F1F601E81BF90BCF0124
:10332000F12C883C910508F049C0FE2CEE2009F4F0
:10333000A7CF351332C0241330C08091D20180FD55
:1033400023C0982F907F01F1D80115968C93159783
:10335000903F39F0982F907F905F8F70892B159652
:103360008C93C8010E94291786E0F801ADECB1E00A
:1033700001900D928A95E1F70E94CC17E5CE8095D9
:1033800090958C0D9D1DCCCF86E0F801ADECB1E0A1
:1033900001900D928A95E1F7D7CE4D875E878D8596
:1033A0009E850E946B1781115CCF8091D201816054
:1033B0008093D201C8010E942917C6CE7C2DD98ADC
:1033C000C88A6E2D89890E948C176BCFEE2009F474
:1033D00057CF4D875E878D859E850E946B17F82E8F
:1033E000882309F44DCF86E0F801ADECB1E00190FF
:1033F0000D928A95E1F78DEC91E00E9453130E94A3
:10340000DA17BACF81E08E25BDCE1F93CF93DF931D
:10341000CDB7DEB72C970FB6F894DEBF0FBECDBF89
:103420004F83588769877A878B879C87CE01079659
:103430000E943E18882369F08A859B85892B39F084
:103440004F815885842F85238F3F09F071C016E086
:103450005FC086E0FE013796DE01119601900D9265
:103460008A95E1F78A859B85892B89F388859F81D9
:1034700089238F3F61F320919C0130E0C9010196BF
:103480008770992740919B014817190671F40E9493
:10349000671710929C0110929B0186E0EDECF1E021
:1034A000DF011D928A95E9F7D2CF96E0929FD00175
:1034B000939FB00D1124A356BE4FFE01319601908B
:1034C0000D929A95E1F780939C010E94AB17BFCFB4
:1034D000819FC001112483569E4F0E943E1888236D
:1034E000E9F0E0919B011E9FF0011124E356FE4F8D
:1034F0004081518162817381848195810E949B17F3
:1035000080919B0190E001968770992780939B01A1
:1035100080919B0190919C018913DACF2C960FB674
:10352000F894DEBF0FBECDBFDF91CF911F910895FC
:1035300069857A858B859C850E949B1788CFEF9241
:10354000FF920F931F93CF93DF938C01892B81F010
:10355000F12CEE24E394E8012196F801849184375C
:1035600070F4843008F05FC08130B1F08230A1F196
:10357000DF91CF911F910F91FF90EF9008958537C4
:1035800009F44CC008F43DC09CE7980F903780F7D1
:103590008F770E944F1449C00E5F1F4FFE01849128
:1035A00090E2980F983060F48770FE2D01C0FF0FF5
:1035B0008A95EAF78F2F0E94811D0E942B1D02C061
:1035C0000E9458138F2D815030F2EFE9FFE03197C0
:1035D000F1F700C00000F7CF0E5F1F4FFE0184918E
:1035E00090E2980F983050F48770FE2D01C0FF0FC5
:1035F0008A95EAF78F2F0E94871DDFCF0E944F1414
:10360000E1CF0E5F1F4FFE01C491C150D8F28FE988
:103610009FE00197F1F700C00000F7CF0E5F1F4F4A
:10362000FE01F490CFCF0E9458138E01CBCF0895A6
:103630000E94171B6093090270930A0280930B0289
:1036400090930C020C94531708950C94181B0F932D
:103650001F930091090210910A0220910B023091F0
:103660000C02602B712B822B932B1F910F910C94CA
:10367000181B0F931F930091090210910A022091C9
:103680000B0230910C0260237123822393231F913C
:103690000F910C94181B0F931F9300910902109126
:1036A0000A0220910B0230910C02602771278227B9
:1036B00093271F910F910C94181B0C94171B0C94BB
:1036C0005D1B0E945F1B609305027093060280934E
:1036D0000702909308020C94531760E070E0CB014E
:1036E0000C94611B0F931F9341E050E060E070E089
:1036F0008A019B0104C0000F111F221F331F8A95EE
:10370000D2F7C901B8011F910F910C94611B0F935F
:103710001F9341E050E060E070E004C0440F551F8B
:10372000661F771F8A95D2F7809105029091060255
:10373000A0910702B09108028A019B01082B192B66
:103740002A2B3B2BC901B8011F910F910C94611BCF
:103750000F931F9341E050E060E070E004C0440F1D
:10376000551F661F771F8A95D2F7CB01BA01609566
:103770007095809590950091050210910602209118
:1037800007023091080260237123822393231F9143
:103790000F910C94611B0F931F9341E050E060E088
:1037A00070E004C0440F551F661F771F8A95D2F73B
:1037B0008091050290910602A0910702B091080243
:1037C0008A019B01082719272A273B27C901B8012D
:1037D0001F910F910C94611B0F931F930091050291
:1037E000109106022091070230910802602B712B84
:1037F000822B932B1F910F910C94611B0F931F939E
:1038000000910502109106022091070230910802F2
:1038100060237123822393231F910F910C94611BCA
:103820000F931F9300910502109106022091070249
:103830003091080260277127822793271F910F91EB
:103840000C94611B08952FE0929F800D1124982FF6
:10385000977041E001C0440F9A95EAF786958695E6
:10386000869595E0899FF0011124ED52FE4F90E07E
:1038700080E070E05191DF0111979B01082E02C09A
:10388000369527950A94E2F7217021952527242360
:1038900025272C9301968530910561F708952FE037
:1038A000929F800D1124982F977086958695869506
:1038B00025E0829FF0011124ED52FE4F50E040E0E0
:1038C00080E0219130E0092E02C0369527950A94B8
:1038D000E2F721703327042E01C0220F0A94EAF781
:1038E000822B4F5F5F4F4530510559F70895BF92C6
:1038F000CF92DF92EF92FF920F931F93CF93DF93BC
:103900008C01C0900502D0900602E0900702F09072
:1039100008028091090290910A02A0910B02B091D5
:103920000C02C82AD92AEA2AFB2ACFE1D0E0BC2E11
:10393000D701C6010C2E04C0B695A795979587951B
:103940000A94D2F780FD0EC0219788F7B12C8B2DF9
:10395000DF91CF911F910F91FF90EF90DF90CF906B
:10396000BF900895B8018C2F0E94DC07019761F386
:10397000EECFCF93DF93EC010E94771CBE01DF9165
:10398000CF910C94DC071F93CF93DF93EB019091C1
:103990009A01992331F0CB01DF91CF911F910C94C3
:1039A000B91C882379F0CB010E94771C182F682F4F
:1039B000CE010E94231CBE01812FDF91CF911F9168
:1039C0000C94DC07CB010E944F1C182FF4CF682FFA
:1039D00080910301909104010C944C1E682F8091FA
:1039E0000301909104010C94571E80910301909162
:1039F00004010C94621E80910D0285958595859534
:103A0000089580910D028770089598E0899F900134
:103A10001124622B60930D020C94871B90910D0270
:103A20008095892380930D02282F277061F4282F19
:103A3000082E000C330B9217130629F085958595F7
:103A400085950C94A81B089590910D02977081E0C4
:103A500009F480E00895E0910301F0910401809160
:103A600031028083E0910301F09104018081909103
:103A70003002892B8083E0910301F0910401808161
:103A800090912F02892B808390910E02992381F0CF
:103A9000E0910301F09104018081892B8083809162
:103AA0000301909104010E94EF1D811110920E02FA
:103AB00080910301909104010C94191280913102BC
:103AC000089590913102892B809331020895809559
:103AD000909131029823909331020895109231020F
:103AE000089590913002892B80933002089580953B
:103AF00090913002982390933002089510923002F2
:103B0000089590912F02892B80932F02089580951C
:103B100090912F02982390932F02089510922F02D4
:103B2000089580930E02089510920E0208958091D8
:103B30000E0208956DEE7EEF90E080E00E948C2EE4
:103B400060E082E090E00E946E2E60E083E090E012
:103B50000E946E2E60E084E090E00E946E2E60E095
:103B600085E090E00E946E2E60E086E090E00E948A
:103B70006E2E40E050E0BA0188E090E00C94802E78
:103B800090E080E00E94682E21E08D3E9E4F09F07B
:103B900020E0822F089582E090E00C945A2E682F46
:103BA00082E090E00C946E2E83E090E00C945A2E0C
:103BB000682F83E090E00C946E2E84E090E00C94EB
:103BC0005A2E682F84E090E00C946E2E86E090E0F0
:103BD0000C945A2E682F86E090E00C946E2EFC0117
:103BE00031969C01205E3F4F80E0919191118F5F53
:103BF000E217F307D1F708959C01FC0132969FEF7D
:103C000080E04191461751F09F3F19F4411101C0E6
:103C1000982F8F5F8E31A9F79F3F09F40895290FE0
:103C2000311D97FD3A95F90162830895FC013296A2
:103C300080962191261303C0DF0111971C92E8178B
:103C4000F907B9F70895E62FE695E695E695EF3181
:103C500069F0E80FF92FF11D677021E030E001C035
:103C6000220F6A95EAF78181822B81830895E62FDE
:103C7000E695E695E695EF3171F0E80FF92FF11D25
:103C8000677021E030E001C0220F6A95EAF72095C5
:103C9000818128232183089520911501222329F071
:103CA0002091890227FD0C94231E0C94FC1D209169
:103CB0001501222329F02091890227FD0C94371E3B
:103CC0000C94161EFC01319680961192E817F907A4
:103CD000E1F70895089508950C946B1E8091900269
:103CE000843009F430C01092330288E190E020E47F
:103CF0000FB6F894A895809360000FBE20936000E3
:103D000080E00E943E0480E00E94BA070E94250FD6
:103D10000E940F0F0E946C1E83B7817F846083BF57
:103D200083B7816083BF7894889583B78E7F83BF84
:103D30000FB6F894A8958091600088618093600028
:103D4000109260000FBE08950895CF930E946A1EDE
:103D50000E940B0B0E94A41EC0E08C2F0E94D80B67
:103D6000892B31F4CF5FC530C1F780E0CF91089542
:103D700081E0FCCF08950C94BA1E0E9467170E9440
:103D8000D8220E940D120E94BA070E94E70E0E94DC
:103D9000210F0C94BB1E1F921FB61F9211248F93EC
:103DA0009F93AF93BF9380913302811113C0809191
:103DB000850290918602A0918702B0918802419677
:103DC000A11DB11D8093850290938602A093870266
:103DD000B0938802BF91AF919F918F911F901FBEAA
:103DE0001F90189582E084BD93E095BD9AEF97BD32
:103DF00080936E0008952FB7F8948091850290917A
:103E00008602A0918702B09188022FBF0895CF92B9
:103E1000DF92EF92FF920F931F932FB7F894409188
:103E200085025091860260918702709188022FBFAF
:103E30006A017B01EE24FF248C0130E020E0C016F3
:103E4000D106E206F30650F0481B590BCA011F9138
:103E50000F91FF90EF90DF90CF900895415051095E
:103E6000F3CF78941F921FB61F9211248F939F93C4
:103E7000AF93BF938091850290918602A0918702B3
:103E8000B09188020196A11DB11D80938502909387
:103E90008602A0938702B0938802BF91AF919F9151
:103EA0008F911F901FBE1F90189581E08093E000B6
:103EB00080E28093D8001092C9008FE19EE40197C0
:103EC000F1F700C0000087E090EBDC0180939902DD
:103ED00090939A02A0939B02B0939C0288E19CE08D
:103EE0000FB6F894A895809360000FBE9093600081
:103EF000FFCFAF92BF92CF92DF92EF92FF920F93DC
:103F00001F93CF93C0E0CC24C394D12CE82EF12C86
:103F10008C2F0E94D80B5C0110E000E0C601002E3F
:103F200002C0880F991F0A94E2F78A219B21892BEE
:103F300099F40F5F1F4F0F30110581F7CF5FC53028
:103F400039F780E0CF911F910F91FF90EF90DF90B4
:103F5000CF90BF90AF900895602F7C2F80E00E949B
:103F6000C007E816F90629F781E0ECCFCF93C82FF8
:103F70008CE20E94791F882321F08C2FCF910C9422
:103F8000791F80E0CF910895CF930E94C01D8111C9
:103F900002C00E949A1DC5E608C00E940B0B8FE369
:103FA0009CE90197F1F700C00000C150B1F789E228
:103FB0000E94B61F8111EFC08AE20E94B61F8111D4
:103FC0000E949A1D85E00E94B61F81110E94551F14
:103FD0000E94CB1D8093320287E00E94B61F882387
:103FE00071F08BE10E94B61F882309F4B1C0909153
:103FF0003202892F8D7F91FF8260809332028091FF
:1040000032020E94CF1D0E94DD1D90E090938A0233
:104010008093890280EE0E94B61F882341F0909120
:104020008902892F8E7F90FF81608093890289E3C6
:104030000E94B61F882341F090918902892F8D7FBD
:1040400091FF82608093890282EE0E94B61F8823CE
:1040500041F090918902892F8B7F92FF8460809339
:10406000890286EE0E94B61F882341F09091890252
:10407000892F877F93FF88608093890283EE0E9457
:10408000B61F882341F090918902892F8F7E94FF7B
:1040900080618093890285E30E94B61F882341F0E6
:1040A00090918902892F8F7D95FF8062809389028C
:1040B00081E30E94B61F882341F090918902892FE5
:1040C0008F7B96FF80648093890281E10E94B61FF6
:1040D000882341F090918902892F97FB87F98058B6
:1040E00080938902809189020E94E11D87E20E94EB
:1040F000B61FC82F8EE10E94B61F8111C2608FE1EA
:104100000E94B61F8111C46080E20E94B61F811117
:10411000C86081E20E94B61F8111C06182E20E94E4
:10412000B61F8111C06283E20E94B61F8111C06474
:1041300084E20E94B61F882341F1C0688C2F0E9440
:10414000D81D6C2F70E090E080E0CF910C94251B7F
:104150008EE00E94B61F882339F090913202892F99
:104160008B7F92FF846049CF80E10E94B61F9091BF
:104170003202882329F0892F877F93FF88603DCF03
:10418000892F8E7F90FF816038CFC111D7CF0E94D9
:10419000D41D682FD7CFCF9108958091360280FF2C
:1041A00012C06091080185E0689FB00111247595E7
:1041B00067957595679560387105A8F56115710566
:1041C000A1F1862F089581FF09C06091080185E063
:1041D000689FB001112475956795EDCF6091080136
:1041E00082FD0AC0809137028823D1F090910701A7
:1041F00060910801891728F085E0689FB0011124BB
:10420000DACF869FB001112485E0869F9001879FB9
:10421000300D1124692F70E0C9010E94042ECBCF0C
:1042200065E070E0CECF8FE7089581E0089580913A
:10423000360280FF0CC06091060170E075956795AD
:10424000759567956115710549F1862F089581FF70
:1042500006C06091060170E075956795F3CF609197
:10426000060182FD0BC0909137029923A1F0609165
:10427000050180910601961738F0682F70E06038CC
:10428000710500F38FE70895899FC001112470E044
:104290000E94042EF4CF61E070E0D7CF81E0089552
:1042A000803F31F40E94CD20819580933A02089599
:1042B000813F19F40E94CD20F8CF823F31F40E9453
:1042C000CD208195809339020895833F19F40E948F
:1042D000CD20F8CF893F29F40E94172180933B021B
:1042E00008958A3F21F40E9417218195F7CF8B3FD3
:1042F00031F40E941721819580933C0208958C3FF0
:1043000019F40E941721F8CF843F31F480913802CC
:104310008160809338020895853F21F480913802AE
:104320008260F7CF863F21F4809138028460F1CF1C
:10433000873F21F4809138028860EBCF883F21F4D9
:10434000809138028061E5CF8D3F31F48091360253
:1043500081608093360208958E3F21F48091360269
:104360008260F7CF8F3FB9F7809136028460F1CF3A
:1043700090913902803F41F480913A0287FD10927A
:104380003A02992371F00895813F29F480913A020D
:104390001816ACF3F6CF823F81F497FFF2CF10925C
:1043A000390280913A0290913B02892B90913C0214
:1043B000892B49F7109237020895833F19F4191693
:1043C00074F3DFCF893F39F480913B021816CCF6A5
:1043D00010923B02D6CF8A3F29F480913B0287FF9F
:1043E000D0CFF6CF8B3F39F480913C0287FFC9CF05
:1043F00010923C02C6CF8C3F29F480913C021816E3
:10440000BCF3BFCF843F31F4809138028E7F80931C
:104410003802B7CF853F21F4809138028D7FF7CFE6
:10442000863F21F4809138028B7FF1CF873F21F4C2
:1044300080913802877FEBCF883F21F4809138024A
:104440008F7EE5CF8D3F31F4809136028E7F809351
:10445000360297CF8E3F21F4809136028D7FF7CFC1
:104460008F3F09F08ECF809136028B7FF0CF88E3AB
:1044700092E00E9424120E94FB1E909335028093CA
:10448000340208951F93CF93DF938091340290916B
:1044900035020E94071FAC0190913702209109015B
:1044A00030E0911106C020910A018AE0289F900116
:1044B00011244217530778F020913902C0913A0233
:1044C000D0913B0210913C02211109C08C2F8D2B01
:1044D000812B09F05DC0DF91CF911F9108959F3F1F
:1044E00019F09F5F90933702121624F40E94CD209A
:1044F000809339028091390287FF05C00E94CD2048
:104500008195809339021C1624F40E94CD2080935B
:104510003A0280913A0287FF05C00E94CD20819522
:1045200080933A0240913902442379F030913A0263
:10453000332359F025EB4203A00111245093390293
:1045400032039001112430933A021D1624F40E9484
:10455000172180933B0280913B0287FF05C00E9498
:104560001721819580933B02111624F40E94172194
:1045700080933C0280913C0287FF05C00E94172176
:10458000819580933C02DF91CF911F910C9437224B
:104590009F3F09F0A6CFB7CF85E0E8E3F2E0DF0167
:1045A0001D928A95E9F7109237021092360208950B
:1045B0000E94C01D811102C00E949A1D0E94E61D2A
:1045C00080938B028C3020F081708A6080938B0204
:1045D00080918B0280FF03C086950C943E0480E09E
:1045E000FCCF80918B02982F9695953030F49F5F89
:1045F000990F8170892B80938B0280918B0281604F
:1046000080938B020E94EA1D80918B0286950C9408
:104610003E0480918B02982F9E7F79F08250809388
:104620008B028E7F91E009F490E080918B0290FBE9
:1046300080F980938B020E94EA1D80918B028695FF
:104640000C943E0490918B02892F8E7F90FF8160A5
:1046500080938B02813019F483E080938B028091E8
:104660008B020E94EA1D80918B0280FF03C0869519
:104670000C943E0480E0FCCF90918B02892F8695AC
:104680008F5F8F7791708630B8F4880F892B809375
:104690008B0280918B028E7F91E009F490E08091F3
:1046A0008B0290FB80F980938B020E94EA1D80911F
:1046B0008B0286950C943E0490938B02EACF863051
:1046C00008F085E0982F990F80918B028170892BDB
:1046D00080938B028E7F91E009F490E080918B02B1
:1046E00090FB80F980938B020E94EA1D80918B02DF
:1046F00086950C943E0480918B0286950895809156
:104700005D0208950F931F93CF93DF9300D00F9214
:10471000CDB7DEB78C010E94F325823011F08430D2
:1047200019F583E089831B830A838093E9008FEF67
:104730009091E800815095FD06C095ED9A95F1F7AE
:1047400000008111F5CF8091E80085FF0DC050E099
:1047500040E063E070E0CE0101960E941026809157
:10476000E8008E778093E8000F900F900F90DF9114
:10477000CF911F910F910895CF93DF9300D00F92A7
:10478000CDB7DEB720919002243031F522E02983A5
:10479000805891099B838A8383E08093E9008FEF9F
:1047A0009091E800815095FD06C095ED9A95F1F73E
:1047B00000008111F5CF8091E80085FF0DC050E029
:1047C00040E063E070E0CE0101960E9410268091E7
:1047D000E8008E778093E8000F900F900F90DF91A4
:1047E000CF910895CF93DF93EC010E94F32582309F
:1047F00011F08430F9F482E08093E9008FEF90911A
:10480000E800815095FD06C095ED9A95F1F70000FE
:104810008111F5CF8091E80085FF0CC050E040E0A9
:1048200065E070E0CE010E9410268091E8008E774E
:104830008093E800DF91CF910895CF93DF93EC014F
:104840000E94F325823011F08430F9F48091150133
:104850008823F1F08091890287FF1AC084E0809359
:10486000E9008FEF9091E800815095FD06C095E139
:104870009A95F1F700008111F5CF8091E80050E0A2
:1048800040E060E270E085FD1AC0DF91CF910895AD
:1048900081E08093E9008FEF9091E800815095FDD1
:1048A00006C095ED9A95F1F700008111F5CF809142
:1048B000E80085FFEACF50E040E068E070E0CE011C
:1048C0000E9410268091E8008E778093E80080E2B5
:1048D000FE01ADE3B2E001900D928A95E1F7D5CFEC
:1048E00080918F02811109C00E949E270E94FB27A0
:1048F0008091E20084608093E200089510928F021C
:104900000895089508950C94BD1E42E061EC81E085
:104910000E941C2742E061EC82E00E941C2742E0DA
:1049200061EC83E00E941C2742E261EC84E00C947D
:104930001C2780919202833009F455C030F48130F5
:1049400071F1823009F491C008958A3009F47DC074
:104950008B3009F463C0893009F044C08091910222
:10496000813209F03FC080919502909196020097A4
:1049700011F00397B9F58091E800877F8093E800F4
:104980008091E80082FF2AC08091F10080935D024F
:104990008091E8008B778093E8000C9450278091F9
:1049A0009102813AF9F48091E800877F8093E800D2
:1049B0008091950290919602892B61F460E28DE3DB
:1049C00092E070E00E945F268091E8008B778093F0
:1049D000E800089560E090E080E0F3CF80919002DD
:1049E0008111CECF089580919102813AD9F78091BB
:1049F000950290919602892BA9F78091E800877F14
:104A00008093E8008091E80080FFFCCF8091150141
:104A10008093F1008091E8008E77BDCF8091910264
:104A2000813201F78091950290919602892BD1F6FF
:104A30008091E800877F8093E8000E945027809152
:104A40009302809315010C94671780919102813233
:104A500049F68091E800877F8093E8000E94502704
:104A60008091940280935E02089580919102813A30
:104A700009F0B8CF8091E800877F8093E8008091AB
:104A8000E80080FFFCCF80915E02C2CF84B7877FB1
:104A900084BF0FB6F894A8958091600088618093D8
:104AA0006000109260000FBE80E880936100109259
:104AB00061000E945C120E949E270E94FB27809149
:104AC000E20084608093E20078940E947B2A0E9436
:104AD00060128BE091E00E94081280919002853074
:104AE00029F00E946A120E949711F7CF0E946E1E51
:104AF00080918E02882389F30E94A51E882369F382
:104B00000E94FA25EACF0C948525292F33272330DC
:104B1000310521F168F42130310509F449C0223012
:104B2000310509F44AC090E080E030E020E029C07F
:104B30002132310581F122323105A9F76430710546
:104B400090F7FB01EE0FFF1FE25DFE4F20813181E8
:104B5000665D7E4FFB01808190E013C09927813014
:104B6000910599F0009741F08230910589F0039703
:104B7000D1F6E6EEF4E002C0E4E1F5E0849190E0E5
:104B80009F01FA01318320830895E2E0F5E0F6CF3A
:104B9000ECEEF4E0F3CF6430710528F6660F771F72
:104BA000FB01EA5CFE4F2081318189E090E0E9CF92
:104BB00082E190E025E835E0E4CF8DE690E028E161
:104BC00035E0DFCF0895CF93C82F0E94E225C09330
:104BD0005F02CF91089580919002843011F482E0B9
:104BE000089581E0089580915F02811102C00C94C4
:104BF000EB25089580E189BD82E189BD09B400FEFD
:104C0000FDCF8091D8008F7D8093D8008091E00007
:104C100082608093E0008091E00081FDFCCF0895E8
:104C2000AF92BF92CF92DF92FF920F931F93CF93D9
:104C3000DF936C01EB018A010E946F27F82E81112E
:104C400023C00115110539F0F80180819181C81B3D
:104C5000D90BC80ED91EB12CA12C2097A9F0809198
:104C6000E80085FD22C08091E8008E778093E800FF
:104C700001151105A1F0F80180819181A80EB91EDE
:104C8000B182A08285E0F82E8F2DDF91CF911F9108
:104C90000F91FF90DF90CF90BF90AF9008950E944A
:104CA0006F278823D1F2F82EEFCFF60181916F01A3
:104CB0008093F1002197FFEFAF1ABF0ACECFFC011E
:104CC000809197029091980286179707A0F061153E
:104CD000710529F49091E8009E779093E80090E0A8
:104CE0006115710551F4911108C08091E80082FFAF
:104CF00034C080E00895BC01F2CF809190028823F7
:104D0000C1F18530C1F18091E80083FD30C0809110
:104D1000E80082FDEACF8091E80080FFE1CF80913A
:104D2000F3002091F200382F6115710519F0283039
:104D3000310558F091E02830310509F090E02091DC
:104D4000E8002E772093E800CBCF81918093F1008B
:104D5000615071092F5F3F4FE7CF80919002882308
:104D600041F0853041F08091E80083FFBECF81E0C3
:104D7000089582E0089583E00895FC0180919702F0
:104D80009091980286179707A0F06115710529F494
:104D90008091E8008E778093E80090E061157105BE
:104DA00051F4911108C08091E80082FF35C080E085
:104DB0000895BC01F2CF809190028823C9F185301B
:104DC000C9F18091E80083FD31C08091E80082FD47
:104DD000EACF8091E80080FFE1CF8091F30020913D
:104DE000F200382F6115710519F02830310558F09F
:104DF00091E02830310509F090E08091E8008E774D
:104E00008093E800CBCF84918093F100319661507C
:104E100071092F5F3F4FE6CF80919002882341F0C8
:104E2000853041F08091E80083FFBDCF81E0089597
:104E300082E0089583E00895982F973028F08F70CE
:104E40008093E90081E008959093E900242F762F64
:104E500050E0981731F07091EC002091ED005091E6
:104E6000F00021FD02C09F5FE8CF3091EB003E7F54
:104E70003093EB003091ED003D7F3093ED003091A9
:104E8000EB0031603093EB007093EC002093ED0069
:104E90005093F0002091EE0027FDE5CF80E00895CB
:104EA0008091910287FF13C08091E80082FF06C0C5
:104EB0008091E8008B778093E80004C08091900295
:104EC0008111F2CF0895809190028823D9F38091C7
:104ED000E80080FFF8CF8091E8008E77ECCF20913A
:104EE000E4003091E50085E6A9019091EC0090FF87
:104EF00006C09091E80090FF06C080E00895909170
:104F0000E80092FDFACF90919002992389F09530B4
:104F100089F09091EB0095FD0FC02091E400309155
:104F2000E5004217530709F38150F1F684E0089534
:104F300082E0089583E0089581E008950E940C289E
:104F40000E941428E0EEF0E0808181608083E8ED2B
:104F5000F0E080818F77808319BCA7EDB0E08C9161
:104F60008E7F8C9380818F7E808310928F02089534
:104F70000F931F93CF93DF930E940C280E94142855
:104F8000C8EDD0E088818F778883888180688883A6
:104F900088818F7D888319BC1092900210928C02B8
:104FA00010928E0210928D0200EE10E0F8018081C6
:104FB0008B7F808388818160888342E060E080E02D
:104FC0000E941C27E1EEF0E080818E7F8083E2EE7C
:104FD000F0E0808181608083808188608083F80137
:104FE00080818E7F8083888180618883DF91CF91EB
:104FF0001F910F910895E8EDF0E080818F7E80830E
:10500000E7EDF0E080818160808384E082BF81E011
:1050100080938F020C94B827E8EDF0E080818E7FBA
:1050200080831092E20008951092DA001092E1005D
:1050300008951F920F920FB60F9211242F933F9352
:105040004F935F936F937F938F939F93AF93BF9390
:10505000EF93FF938091E10082FF0BC08091E2000B
:1050600082FF07C08091E1008B7F8093E1000E9466
:105070007A2A8091DA0080FF19C08091D80080FFE1
:1050800015C08091DA008E7F8093DA008091D9007C
:1050900080FF94C080E189BD82E189BD09B400FE32
:1050A000FDCF81E0809390020E9470248091E10006
:1050B00080FF19C08091E20080FF15C08091E2005E
:1050C0008E7F8093E2008091E20080618093E20015
:1050D0008091D80080628093D80019BC85E08093CD
:1050E00090020E9482248091E10084FF29C0809177
:1050F000E20084FF25C080E189BD82E189BD09B459
:1051000000FEFDCF8091D8008F7D8093D8008091E4
:10511000E1008F7E8093E1008091E2008F7E80939A
:10512000E2008091E20081608093E20080918C0235
:10513000882309F449C084E0809390020E9483246C
:105140008091E10083FF29C08091E20083FF25C0A8
:105150008091E100877F8093E10082E0809390025C
:1051600010928C028091E1008E7F8093E10080910B
:10517000E2008E7F8093E2008091E2008061809364
:10518000E20042E060E080E00E941C278091F00095
:1051900088608093F0000E948124FF91EF91BF917D
:1051A000AF919F918F917F916F915F914F913F91BF
:1051B0002F910F900FBE0F901F90189519BC109251
:1051C00090020E947E2472CF8091E30087FD02C08E
:1051D00081E0B2CF83E0B0CF1F920F920FB60F9253
:1051E00011242F933F934F935F936F937F938F93EC
:1051F0009F93AF93BF93CF93EF93FF93C091E90039
:10520000CF708091EC001092E9008091F000877FD0
:105210008093F00078940E9428291092E9008091F0
:10522000F00088608093F000C093E900FF91EF9157
:10523000CF91BF91AF919F918F917F916F915F912E
:105240004F913F912F910F900FBE0F901F90189587
:105250001F93CF93DF93CDB7DEB7AA970FB6F8941D
:10526000DEBF0FBECDBF81E992E02091F100FC01CD
:105270002193CF01F2E089399F07B9F70E94992461
:105280008091E80083FF1EC180919102909192026B
:105290009A3008F017C1E92FF0E0E751F14D0C9476
:1052A0003A2E803899F0823809F00CC1809195022D
:1052B0008F70873008F006C18093E9008091EB0081
:1052C00085FB882780F91092E90006C080918D0245
:1052D00090918E02911182609091E800977F909357
:1052E000E8008093F1001092F1008091E8008E7741
:1052F000E5C0882309F4D3C0823009F0E3C080916F
:1053000093028111D6C0809195028F702FEF280FE4
:10531000263008F0D7C08093E9002091EB0020FFF1
:10532000C8C0933031F48091EB0080628093EB0031
:10533000C0C09091EB0090619093EB0021E030E0D1
:1053400001C0220F8A95EAF72093EA001092EA0042
:105350008091EB008860EACF8111B4C01091930274
:105360001F778091E3008078812B8093E300809108
:10537000E800877F8093E8000E9450278091E80032
:1053800080FFFCCF8091E30080688093E30082E09F
:10539000111183E08093900295C08058823008F00C
:1053A00091C080919302909194028C3D23E09207EA
:1053B000A1F583E08A838AE289834FB7F894DE01FE
:1053C000139620E03EE051E2E32FF0E050935700C7
:1053D000E49120FF03C0E295EF703F5FEF708E2FE6
:1053E00090E0EA30C0F0C7968D939D932F5F2431F3
:1053F00059F74FBF8091E800877F8093E8006AE209
:1054000070E0CE0101960E945F268091E8008B77C4
:105410008093E80057C0C096E7CF609195027091E5
:105420009602AE014F5F5F4F0E948325BC01892B1E
:1054300009F448C09091E800977F9093E800898133
:105440009A810E94BD26E1CF8038E1F58091E80085
:10545000877F8093E80080918C028093F10045CF94
:10546000811130C090919302923060F58091E800F4
:10547000877F8093E80090938C020E945027809150
:105480008C02882311F084E005C08091E30087FD41
:10549000FACF81E0809390020E94852413C080910E
:1054A0009302813079F481E0933009F080E08093B9
:1054B0008E021092E9008091E800877F8093E800D7
:1054C0000E9450278091E80083FF0AC08091E80085
:1054D000877F8093E8008091EB0080628093EB00EF
:1054E000AA960FB6F894DEBF0FBECDBFDF91CF9165
:1054F0001F9108950895CF9380919002882399F089
:10550000C091E900CF708091EC0080FD0EC080E07A
:10551000C82B1092E9008091E80083FD0E942829A1
:10552000CF70C093E900CF91089580E8F1CF505833
:10553000BB27AA270E94AF2A0C945A2C0E944C2CFD
:1055400038F00E94532C20F039F49F3F19F426F4D0
:105550000C94222C0EF4E095E7FB0C941C2CE92F04
:105560000E946B2C58F3BA176207730784079507DC
:1055700020F079F4A6F50C948D2C0EF4E0950B2E0A
:10558000BA2FA02D0B01B90190010C01CA01A00195
:105590001124FF27591B99F0593F50F4503E68F1F0
:1055A0001A16F040A22F232F342F4427585FF3CF31
:1055B000469537952795A795F0405395C9F77EF402
:1055C0001F16BA0B620B730B840BBAF09150A1F04B
:1055D000FF0FBB1F661F771F881FC2F70EC0BA0FD1
:1055E000621F731F841F48F4879577956795B79559
:1055F000F7959E3F08F0B0CF9395880F08F0992754
:10560000EE0F9795879508950E94182B0C945A2CAD
:105610000E94532C58F00E944C2C40F029F45F3F1C
:1056200029F00C941C2C51110C948E2C0C94222CCF
:105630000E946B2C68F39923B1F3552391F3951BCA
:10564000550BBB27AA2762177307840738F09F5FA3
:105650005F4F220F331F441FAA1FA9F335D00E2E10
:105660003AF0E0E832D091505040E695001CCAF77D
:105670002BD0FE2F29D0660F771F881FBB1F261740
:1056800037074807AB07B0E809F0BB0B802DBF0117
:10569000FF2793585F4F3AF09E3F510578F00C94E6
:1056A0001C2C0C948E2C5F3FE4F3983ED4F386952B
:1056B00077956795B795F7959F5FC9F7880F911D07
:1056C0009695879597F90895E1E0660F771F881FF3
:1056D000BB1F621773078407BA0720F0621B730BA6
:1056E000840BBA0BEE1F88F7E095089529F416F0A5
:1056F0000C941C2C0C948D2C0C94222C0E94732C3A
:10570000A8F39638A0F707F80F92E8942BE33AEA4B
:1057100048EB5FE70E94202D0F920F920F924DB73A
:105720005EB70F920E94D62CECEAF0E00E94252C86
:105730004F915F91EF91FF91E595EE1FFF1F49F0AB
:10574000FE57E0684427EE0F441FFA95E1F74195B4
:10575000550B0E94A02C0F9007FE0C94942C0895DA
:105760000E94732C88F09F5798F0B92F9927B75152
:10577000B0F0E1F0660F771F881F991F1AF0BA95F5
:10578000C9F714C0B13091F00E948D2CB1E008959A
:105790000C948D2C672F782F8827B85F39F0B93F8C
:1057A000CCF3869577956795B395D9F73EF49095A8
:1057B0008095709561957F4F8F4F9F4F0895E89426
:1057C00009C097FB3EF490958095709561957F4F49
:1057D0008F4F9F4F9923A9F0F92F96E9BB279395F7
:1057E000F695879577956795B795F111F8CFFAF407
:1057F000BB0F11F460FF1BC06F5F7F4F8F4F9F4F38
:1058000016C0882311F096E911C0772321F09EE895
:10581000872F762F05C0662371F096E8862F70E0FB
:1058200060E02AF09A95660F771F881FDAF7880FD5
:105830009695879597F9089597F99F6780E870E0A6
:1058400060E008959FEF80EC0895DF93CF931F935E
:105850000F93FF92EF92DF927B018C01689406C058
:10586000DA2EEF010E941D2DFE01E894A5912591ED
:10587000359145915591A6F3EF010E94AF2AFE01A3
:105880009701A801DA9469F7DF90EF90FF900F91EC
:105890001F91CF91DF91089500240A9416161706E0
:1058A00018060906089500240A9412161306140611
:1058B00005060895092E0394000C11F4882352F074
:1058C000BB0F40F4BF2B11F460FF04C06F5F7F4F2C
:1058D0008F4F9F4F089557FD9058440F551F59F013
:1058E0005F3F71F04795880F97FB991F61F09F3FCD
:1058F00079F087950895121613061406551FF2CFF6
:105900004695F1DF08C0161617061806991FF1CF45
:1059100086957105610508940895E894BB2766276C
:105920007727CB0197F908959B01AC0160E070E007
:1059300080E89FE30C94042B0C941C2C0C947F2D7A
:105940000E94732CD8F39923C9F3940F511DA3F32C
:105950009150504094F059F0882332F0660F771F31
:10596000881F91505040C1F79E3F51052CF7880F7A
:10597000911D9695879597F908955F3FACF0983EF5
:105980009CF0BB27869577956795B79508F4B1602D
:105990009395C1F7BB0F58F711F460FFE8CF6F5F25
:1059A0007F4F8F4F9F4FE3CF0C948E2CFA01DC0179
:1059B000AA0FBB1F9B01AC01BF5728F42227332736
:1059C0004427507820C0B75190F4AB2F002446955F
:1059D00037952795011CA395D2F3002071F0220F73
:1059E000331F441FB395DAF30ED00C94972A61301D
:1059F0007105A0E88A07B94630F49B01AC0166271F
:105A0000772788279078309621F02083318342834E
:105A1000538308950E941D2D0C945A2C0E944C2CE7
:105A200038F00E94532C20F0952311F00C941C2C7C
:105A30000C94222C11240C948E2C0E946B2C70F34D
:105A4000959FC1F3950F50E0551F629FF001729F23
:105A5000BB27F00DB11D639FAA27F00DB11DAA1F32
:105A6000649F6627B00DA11D661F829F2227B00D7F
:105A7000A11D621F739FB00DA11D621F839FA00D0A
:105A8000611D221F749F3327A00D611D231F849F5A
:105A9000600D211D822F762F6A2F11249F575040B1
:105AA0009AF0F1F088234AF0EE0FFF1FBB1F661F2C
:105AB000771F881F91505040A9F79E3F510580F0F5
:105AC0000C941C2C0C948E2C5F3FE4F3983ED4F382
:105AD000869577956795B795F795E7959F5FC1F799
