:100000000C944A030C9491030C9491030C94910367
:100010000C9491030C9491030C9491030C94910310
:100020000C9491030C9491030C945E280C94312948
:100030000C94101F0C9491030C9491030C94910355
:100040000C9491030C9491030C9491030C949103E0
:100050000C9479070C94761F0C9491030C949103E3
:100060000C9491030C9491030C9491030C949103C0
:100070000C9491030C9491030C9491030C949103B0
:100080000C9491030C9491030C9491030C949103A0
:100090000C9491030C9491030C9491030C94910390
:1000A0000C9491030C9491030C94910307634236D2
:1000B000B79BD8A71A39685618AEBAAB558C1D3CF9
:1000C000B7CC5763BD6DEDFD753EF6177231BF00BD
:1000D0000000803F05A84CCDB2D44EB93836A902F5
:1000E0000C50B9918688083CA6AAAA2ABE00000036
:1000F000803F155C1E001F0020002100220023000D
:1001000024002500260027002D002E0000002A00D4
:100110002B0014001A000800150017001C0018001E
:100120000C00120013002F00300031000000E3002B
:1001300004001600070009000A000B000D000E0065
:100140000F0033003400000028000000E100000030
:100150001D001B00060019000500110010003600EC
:10016000370038000000E5000000E000E300E20096
:100170000000000000002C42000000000000E6002B
:1001800002510351E40000000100010001000100E0
:100190000100010001000100010001000100010057
:1001A0000100010001000100010001000100010047
:1001B0000100010001000100010001000100010037
:1001C0000100000001000100010001000100010028
:1001D0000100010001000100010001000100010017
:1001E0000000010001000100010001000100010008
:1001F00001000100010001000100000001000100F8
:100200000100010001000000000000002C000000BF
:100210000000000001000251035101000000350000
:100220003A003B003C003D003E003F0040004100E2
:10023000420043004400450000004C000000F40070
:10024000F000F50000000000000000005200000077
:10025000460047004800000000003900F200F100AD
:10026000F300000000000000500051004F000000AB
:10027000000000000000000001000000AC00AE0023
:10028000AB00A900AA000000000000000000000070
:10029000000001000000010001000100000000005A
:1002A00000000153000000000000010000000000F9
:1002B000010000000000000000000000000000003D
:1002C000000000000000000000000000000000002E
:1002D00000000000CB5CCC5CCD5CCE5CCF5CD05C25
:1002E000D35C0000000000000000000000000000DF
:1002F0000100DB5C0000C75CC85C0000000000007F
:1003000000000000000000000000000000000100EC
:100310000000C05CC15CC35CC45CC55CC65CBF5C07
:10032000BB5CBD5CBC5C0000010000000100010082
:1003300001000000000000000000000000000000BC
:1003400001000000000001000000000000000000AB
:10035000000000000001010203040506080A0C0F5A
:100360001114181C2024292E33393F464C535B624C
:100370006A7179818A929AA2AAB2B9C1C8CFD5DC32
:10038000E1E7EBF0F4F7FAFCFDFEFFFEFDFCFAF707
:10039000F4F0EBE7E1DCD5CFC8C1B9B2AAA29A92DA
:1003A0008A8179716A625B534C463F39332E292426
:1003B000201C1814110F0C0A080605040302010181
:1003C0000000000000000000000000046801F000D0
:1003D000B40078005A007F3F1F64321464321478EE
:1003E0003C1E1E140A05000000000001010101016D
:1003F00001010101020202020202020202030303DE
:1004000003030303030404040404040505050505AC
:100410000606060606070707070808080809090967
:100420000A0A0A0A0B0B0B0C0C0C0D0D0D0E0E0F0D
:100430000F0F101011111112121313141415151699
:10044000161717181819191A1A1B1C1C1D1D1E1F08
:100450001F20202122222324252526272728292A58
:100460002B2B2C2D2E2F2F3031323334353636377F
:1004700038393A3B3C3D3E3F404142434446474881
:10048000494A4B4C4D4F50515253555657585A5B51
:100490005C5E5F606263646667696A6C6D6E7071F2
:1004A00073747678797B7C7E8081838486888A8B5E
:1004B0008D8F91929496989A9B9D9FA1A3A5A7A991
:1004C000ABADAFB1B3B5B7B9BBBDBFC1C4C6C8CA88
:1004D000CCCFD1D3D6D8DADCDFE1E4E6E8EBEDF03F
:1004E000F2F5F7FAFCFF0403300000001403530098
:1004F000360030002D0058002D0052004700420009
:1005000000001003530065006E007400720061006B
:10051000710000000403090409026D00040100A039
:10052000FA09040000010301010009211101000181
:100530002240000705810308000A090401000103A5
:10054000010200092111010001224D00070582036B
:1005500008000A090402000103000000092111013A
:1005600000012236000705830308000A090403007E
:1005700001030000000921110100012239000705D3
:1005800084032000011201100100000008EDFE604C
:100590006001000102030105010906A10105071917
:1005A000E029E71500250195087501810205081964
:1005B00001290595057501910295017503910105C4
:1005C00007190029F71500250195F875018102C06A
:1005D00005010980A10185021601002603001A8188
:1005E000002A8300751095018100C0050C0901A146
:1005F000018503160100269C021A01002A9C02753F
:100600001095018100C005010902A1010901A100A5
:1006100005091901290515002501950575018102B6
:100620009501750381010501093009311581257F87
:1006300095027508810609381581257F9501750891
:100640008106050C0A38021581257F950175088100
:1006500006C0C005010906A101050719E029E71533
:100660000025019508750181029501750881010534
:1006700008190129059505750191029501750391E8
:10068000010507190029FF150026FF0095067508CA
:100690008100C00011241FBECFEFDAE0DEBFCDBF66
:1006A00004B603FE27C08091A2029091A302A091FC
:1006B000A402B091A5028730904BA740B04BD1F473
:1006C0001092A2021092A3021092A4021092A5020C
:1006D00014BE84B7877F84BF0FB6F894A895809125
:1006E0006000886180936000109260000FBEE0E0BF
:1006F000F8E3099511E0A0E0B1E0E6E7FFE502C00C
:1007000005900D92A434B107D9F722E0A4E4B1E03A
:1007100001C01D92A23AB207E1F70E948B250C940A
:100720006A2F0C9400000E94B5040E94C02381111E
:1007300003C085E00C94A42308950F931F93CF93D7
:10074000DF938C01EB0180914701882391F08A812E
:100750008823F9F00E94EC0E81E00E94D60E0E94E0
:10076000EB2E68E671E00E94492E4FEF6FEF0E947A
:10077000EE0D0E32110589F10B3D8CE51807F1F1F4
:100780000D32110521F40E94A31D85FD16C0C1E0A4
:1007900061C080914601409144016091450190E023
:1007A0000E94EE0D809105010E94D60E80910401F9
:1007B0008111DFCF0E94350FDCCF0E94A31D81FF86
:1007C000E6CF8A81882319F30E94350F80E00E94CA
:1007D000A4230E94DF1DC0E03DC00E94A31D85FF31
:1007E000D6CF0E94A31D81FFD2CF8A81882379F2C0
:1007F00080E00E94A4230E947404EDCF8A818823A4
:1008000031F290916902892F86958F73809305014B
:10081000C92FC170C0930401292F221F2227221F34
:1008200090916A02990F922B9093460190916B02DE
:100830009093450190916C029093440190914701EF
:1008400021E09227909347019111C5CFC11108C0B3
:100850000E94350F8C2FDF91CF911F910F9108953A
:100860000E94D60EB8CFCF92DF92EF92FF928C37D4
:1008700024E1920750F469E070E00E94352ECB012C
:10088000FF90EF90DF90CF900895B0E0A0E0BC0122
:10089000CD016A50774D8F4F9F4F982F872F762F1E
:1008A000662725EF38E241E050E00E945D2E6901A5
:1008B0007A01CA01B9010E94252E9B01AC01C70132
:1008C000B6010E94252E672F782F892F9927611551
:1008D000710521E08207910591F66FEF7FEFCFCF91
:1008E00081E008950C949D030E94AC172FEF84E3E0
:1008F0009CE0215080409040E1F700C000000C9443
:100900009A1F0C94E30A8630D8F481111AC0909192
:100910008000977F90938000282F30E0AFEFBFEFEB
:100920000E94852E25E030E040E050E00E945D2EE0
:10093000C9010E94330490938D0080938C00089528
:1009400085E0909180009860E5CF80916F00817084
:100950000895109249011092480110924A01EFE661
:10096000F0E08081816080830895EFE6F0E080818F
:100970008E7F80830E94C0230C9483040E94A50470
:1009800081110C94B5040C94A904FF920F931F934A
:10099000CF93DF938C01FC01C081D1818091A301B1
:1009A000811150C08281882309F447C0CE010E9482
:1009B000BC1CF82E682FCE010E94681CBE018F2D32
:1009C0000E940508EC01B8010E947204882309F412
:1009D00010C1B801CE010E94910A882309F409C10F
:1009E000C93CFCE5DF0709F444C108F071C0C13C13
:1009F0009CE5D90709F415C108F048C0C531FCE5EC
:100A0000DF0728F5C2308CE5D80708F0B2C1C11560
:100A10009CE5D90709F4E8C0C130DC4509F4F0C011
:100A200081E08093500180935101C801DF91CF9103
:100A30001F910F91FF900C947004CE010E94941CA2
:100A4000F82EBCCFCE010E94BC1CBE01B9CFCF3B5B
:100A5000FCE5DF0709F445C208F0DCC0C531DC4520
:100A6000F9F60E94A31DF8019281992309F42FC27F
:100A70008A7A91E009F490E090934B01811125C2AC
:100A800089E20E942C1D0E94701DB3C0F801828172
:100A9000C53CFCE5DF0709F4DDC068F4C33CECE5C8
:100AA000DE0709F4D2C008F4C7C0882309F4A1C046
:100AB0000E94090E9EC0C73C9CE5D90709F4D4C02A
:100AC00008F4CDC0882309F494C00E94700E91C030
:100AD000C13DFCE5DF0709F41CC1F0F5F801828196
:100AE000CD3CFCE5DF0709F4D9C0D8F4CB3CECE5FC
:100AF000DE0709F4CCC008F4C4C0882309F479C027
:100B00000E94B50C623071058105910540F00E948C
:100B1000B50C653071058105910508F493C082E03C
:100B2000BAC0CF3C9CE5D90709F4DFC008F4C9C0BE
:100B3000882309F45EC00E94B50C653171058105FA
:100B4000910540F00E94B50C673171058105910552
:100B500008F478C085E19FC0C53DFCE5DF0709F4D6
:100B600091C1C0F4F8018281C33DFCE5DF0709F4BF
:100B7000EBC008F4D5C0882309F46DC11092500170
:100B80000E94401F90934D0180934C0182E00E948F
:100B9000E3142FC0C93DECE5DE0709F4DAC0CA3D15
:100BA000FCE5DF0709F4DEC0C63DDC4509F038CFBF
:100BB000F801828181116AC180915101811183C143
:100BC00080914E0190914F010E944C1F883C9105ED
:100BD00008F079C180E20E94EA1488E20E949D1325
:100BE00088E20E94941405C0F801828181110E945C
:100BF000740480E0DF91CF911F910F91FF900895D1
:100C0000F80182818823A9F380913B02816080935F
:100C10003B02EFCFF8018281882359F30E944D0FE8
:100C2000E8CFF8018281882321F30E94A31D8272FC
:100C300049F00E94E30EDDCF8823D9F20E94A31D64
:100C40008272B9F30E94D90ED4CF882391F20E9408
:100C5000F10DCFCF882369F20E94280ECACF8823D6
:100C600041F20E94400EC5CF882319F20E94580E0F
:100C7000C0CFF8018281882309F4BBCF0E94C30C46
:100C8000B8CF882309F4B5CF0E94D80CB2CF8823FF
:100C900009F4AFCF81E00E94D60EABCF882309F4D0
:100CA000A8CF0E94B50C663071058105910538F01A
:100CB0000E94B50C683071058105910518F286E037
:100CC000EACF882309F495CF0E94B50C69307105ED
:100CD0008105910540F00E94B50C6E3071058105CB
:100CE000910508F4AFCF89E0D6CF882309F481CFEE
:100CF0000E94B50C6F3071058105910540F00E948E
:100D0000B50C643171058105910508F49BCF8FE026
:100D1000C2CFF8018281882309F46BCF88E1BBCF71
:100D2000882309F466CF0E94B50C693171058105ED
:100D3000910540F00E94B50C623271058105910564
:100D400008F480CF89E1A7CF882309F452CF83E24A
:100D5000A2CFF8018281882309F44BCF80E00E9462
:100D6000282647CFF8018281882309F442CF82E008
:100D7000F6CFF8018281882309F457CE0E94051E20
:100D8000811102C00E94DF1D0E94221E90E09093FC
:100D9000930280939202FE01E350FC4580919202FF
:100DA0008160E231F10538F4E459F04D0C947F2E66
:100DB00080919202826080939202809192020E94BE
:100DC000261E0E94AC1715CF809192028460F3CF4B
:100DD000809192028860EFCF809192028061EBCF88
:100DE000809192028062E7CF809192028064E3CF8B
:100DF000809192028068DFCF809192028C60DBCF7D
:100E0000809192028E7FD7CF809192028D7FD3CF37
:100E1000809192028B7FCFCF80919202877FCBCF40
:100E2000809192028F7EC7CF809192028F7DC3CF37
:100E3000809192028F7BBFCF809192028F77BBCF40
:100E400080919202837FB7CF90919202892F97FB76
:100E500087F98058B0CF8091500181110FC08091E7
:100E60004C0190914D010E944C1F883C910530F43B
:100E700086E20E949D1386E20E94941482E00E9402
:100E8000EA14B7CEF8018281882351F01092510103
:100E90000E94401F90934F0180934E0180E277CED5
:100EA0008091510181110FC080914E0190914F01AD
:100EB0000E944C1F883C910530F487E20E949D13EC
:100EC00087E20E94941480E2DACF85E3DACD809144
:100ED0004B01811104C089E20E94331DD4CD85E30A
:100EE000FBCFF8018281882309F483CE0E94BE04DF
:100EF00080CE1F920F920FB60F9211242F933F9323
:100F00004F935F936F937F938F939F93AF93BF9311
:100F1000CF93EF93FF932091060180914801909128
:100F20004901019644EF249F90011124B9010E94C8
:100F3000352E9093490180934801B901660F672FC0
:100F4000661F770B71950E94352E6F7780914A014D
:100F5000823041F4603451F480916F008E7F809331
:100F60006F0004C0813011F46F37B1F3E62FF0E069
:100F7000E65BFC4FC4910E94C023282F41E051E062
:100F8000C49FC001C59F900D112465E070E00E94D0
:100F9000352E269FC001279F900D11240E943304F7
:100FA00090938D0080938C00FF91EF91CF91BF9132
:100FB000AF919F918F917F916F915F914F913F91F1
:100FC0002F910F900FBE0F901F901895279A2F9872
:100FD0008AE08093800089E1809381008FEF9FEF0A
:100FE00090938700809386000E941D230C94A9048F
:100FF0000E94E6070C94E00A08950C94FC070C94F8
:10100000FD0790E080E008950895972F70E02FE0AD
:10101000929F600D711D1124FB019BE4899FE00DDF
:10102000F11D1124EE0FFF1FEE50FF4F859194919B
:101030000895FC01EE0FFF1FE653FC4F859194913C
:101040000895CF93DF930E9405080E94F209EC01F6
:10105000811521E5920708F049C0811530E5930715
:1010600008F021C1883E910508F5803E910570F594
:10107000883A910570F4853A910508F0A7C081304F
:10108000910521F1009711F1049700F5D0E0C0E03F
:101090001DC08D3B910508F4A4C0805C9109C03C43
:1010A000D105A0F30E941908EC0110C081159043EE
:1010B00088F4C11580E2D80708F0ECC0C03FD10524
:1010C00028F3CF3FD10509F008F4E2C0CE01DF914B
:1010D000CF910895C11590E4D90708F0E1C0CE0181
:1010E0009927D3FFDAC0EC01D86CF0CF811529E540
:1010F000920740F5811538E5930708F01AC181156C
:1011000044E5940778F4C11583E5D80708F0F8C0E2
:10111000C11592E5D90708F0E2C0DC2FCC27C16FDA
:10112000D06AD4CF811525E5920708F4FDC081155A
:1011300036E5930708F0AACFD82FCC27CC27DF714C
:10114000D062C4CF8B3B9C4509F4F8C0CC3B8CE506
:10115000D807B8F4C93B9CE5D90709F4F2C008F0F8
:10116000F3C0C1153AE5D30708F090CFCE0134E0C3
:10117000969587953A95E1F78F70CF70C06ED82F0E
:1011800090C0CE3B4CE5D40709F4E1C060F4CC3B01
:101190009CE5D90709F4DEC0CD3BDC4509F076CFEC
:1011A000C0E0D2ED93CFCE0190568115904208F069
:1011B0006DCF8D2F8F710E946D0A90E0982F882738
:1011C00088279F719C012C2BE901BACF853A9105A4
:1011D00009F4C3C0863A910509F0C2C0C2E8D0E460
:1011E00075CF883A910509F4BEC0893A910509F492
:1011F000BDC08A3A910509F4BCC08B3A910509F447
:10120000BBC08C3A910509F4BAC08B3B910509F437
:10121000B9C08C3B910509F4B8C08D3A910509F429
:10122000B7C0803B910509F4B6C08E3A910509F428
:10123000B5C08F3A910509F4B4C0813B910509F41A
:10124000B3C0823B910509F4B2C0833B910509F418
:10125000B1C0843B910509F4B0C0853B910509F408
:10126000AFC0863B910509F4AEC0873B910509F4F8
:10127000ADC0883B910509F4ACC0893B910509F4E8
:10128000ABC08A3B910509F4AAC0C0E0D4E41ECFEC
:10129000D0651CCFCE019F7005CFEC01D06C16CF6E
:1012A000DF70D06A13CFE4E096958795EA95E1F771
:1012B00083702C2F26952695237040E2249F900161
:1012C0001124382B8C2F8370C1E0D0E002C0CC0FEA
:1012D000DD1F8A95E2F7C22BD32BDC68F7CECE0157
:1012E0008370992721E030E002C0220F331F8A95D6
:1012F000E2F7C695C69580E2C89FE0011124EBCFC6
:10130000CE018370992721E030E002C0220F331F05
:101310008A95E2F7C695C69590E2C99FE00111242F
:10132000C22BD32BDA68D2CED82FCC27C46FD06A89
:10133000CDCED82FCC27C06FD06AC8CEC0E0D1EDBB
:10134000C5CEC0E0D4EDC2CEC0E0D5EDBFCEC0E08A
:10135000D3EDBCCEC0E0D0EDB9CEC1E8D0E4B6CE7E
:10136000C3E8D0E4B3CEC2EED4E4B0CEC9EED4E448
:10137000ADCECAEED4E4AACEC5EBD4E4A7CEC6EB7C
:10138000D4E4A4CEC3EBD4E4A1CEC4EBD4E49ECE8B
:10139000C7EBD4E49BCECCECD4E498CECDECD4E433
:1013A00095CEC3E8D5E492CECAE8D5E48FCEC2E9A3
:1013B000D5E48CCEC4E9D5E489CEC1E2D6E486CEAC
:1013C000C3E2D6E483CEC4E2D6E480CEC5E2D6E45E
:1013D0007DCEC6E2D6E47ACEC7E2D6E477CECAE2C4
:1013E000D6E474CE8238910549F1B0F48133910589
:1013F00009F462C048F48932910509F456C08A3272
:10140000910509F460C008958533910509F446C03B
:101410008933910599F00895833E910531F138F4AF
:10142000803E910591F0823E9105B1F00895863E8F
:10143000910521F1873E910551F108952091920285
:101440002370D9F080EE90E008952091920220FF61
:1014500014C089E390E008952091920222FF0DC00C
:1014600024FD09C083EE90E008952091920222FDB0
:1014700031C024FF02C090E080E0089520919202E4
:1014800023FFFBCF24FDF7CF87EE90E00895209156
:10149000920223FFEECF86EE90E008952091920213
:1014A00025FFEBCF89E290E008952091920225FF7D
:1014B000E4CF85E390E008952091920226FFDDCFEE
:1014C0008AE290E008952091920226FFD6CF81E330
:1014D00090E0089582EE90E008959091920292FF3C
:1014E00006C0282F2871283069F4877F846093FF15
:1014F00006C0282F2871283161F4877E846194FD0D
:10150000877E0895282F2471243089F78B7F886087
:10151000EECF282F2471243191F78B7E8861EFCF95
:1015200008950F931F93CF938C01FB01828181114A
:1015300006C0C1E08C2FCF911F910F910895C091EB
:101540005F01C11125C006311C4599F70E94900A20
:1015500081E080935F010E94401F90935E01809321
:101560005D01109252011092540110925301109299
:101570005601109255011092580110925701109285
:101580005A011092590110925C0110925B01D2CF66
:1015900080915D0190915E010E944C1F8C329140C0
:1015A00040F680915201E82FF0E0EE0FFF1FED5A58
:1015B000FE4F118300838F5F80935201C0E0BACF4A
:1015C0000C94930308950C94E20ACF93DF9385B7AC
:1015D000806885BF85B7806885BFABE2B1E040E336
:1015E00051E0C1E0D0E08D91E82FE295EF70F0E09E
:1015F00061A18F709E0101C0220F8A95EAF7922F98
:101600009095962391A382A1822B82A34A175B0710
:1016100051F7ACE1B1E061E070E08D91E82FE29527
:10162000EF70F0E041A18F709B0101C0220F8A95FD
:10163000EAF7922F9095942391A382A1822B82A303
:1016400081E0AB32B80749F710926B0110926A0142
:10165000109261011092600110926D0110926C0164
:10166000109263011092620110926F0110926E014C
:101670001092650110926401109271011092700134
:10168000109267011092660110927301109272011C
:101690001092690110926801DF91CF910C94F807C4
:1016A0004F925F927F928F929F92AF92BF92CF9212
:1016B000DF92EF92FF920F931F93CF93DF9390E609
:1016C000492E91E0592E2BE2E22E21E0F22E01E08C
:1016D00010E099249394E201A990B9902E01DE01C3
:1016E0001E921E92F70181917F01E82FE295EF7023
:1016F000F0E091A18F70980101C0220F8A95EAF75E
:10170000892F822B81A382A1822E8094882182A39B
:1017100080EA8A95F1F78CE1C82E81E0D82E90E01E
:1017200080E0E60179916E01472F42954F7050E0BD
:10173000EA0178A04D915C9111977F70E80102C099
:10174000CC0FDD1F7A95E2F7BE01672109F072C068
:10175000B801082E02C0660F771F0A94E2F7462BE5
:10176000572B11965C934E9301968F309105C9F6D5
:1017700081A1882281A282A1282B22A38D919C91F4
:10178000A816B90641F0909274010E94401F9093F0
:10179000760180937501DAE64D16D1E05D0609F019
:1017A0009ACF80917401882391F180917501909175
:1017B00076010E944C1F069750F180916001909134
:1017C000610190936B0180936A0180916201909115
:1017D000630190936D0180936C01809164019091FD
:1017E000650190936F0180936E01809166019091E5
:1017F00067019093710180937001809168019091CD
:1018000069019093730180937201109274010E9498
:10181000810481E0DF91CF911F910F91FF90EF90B4
:10182000DF90CF90BF90AF909F908F907F905F9010
:101830004F90089570E060E092CFE82FF0E0EE0F57
:10184000FF1FE659FE4F8081918108950895CF9240
:10185000DF92EF92FF920F931F93CF93DF93E901F3
:10186000662309F466C0E42EF12CEFEFF0E0E61BEE
:10187000F109EE9D8001EF9D100DFE9D100D1124CC
:10188000212FE12FFF27EE1AFF0A5CE3C52ED12C92
:10189000B6010E94352EFB01BC01E69EC001E79E09
:1018A000900DF69E900D1124B6010E94352EE23067
:1018B000F10589F168F4812F262F210F309781F0EF
:1018C000242F461B319761F080E020E040E008C003
:1018D000E430F10551F128F1842F861B3597A1F7EB
:1018E000E42FF0E0EA51FC4F4491E22FF0E0EA519E
:1018F000FC4F9491E82FF0E0EA51FC4FE4914983CA
:101900009883EA83DF91CF911F910F91FF90EF9021
:10191000DF90CF900895862F810FE42F412F2E2F37
:10192000DFCFE42FE61B842FF9CF842F462F410F02
:10193000D7CF842F242FD4CF88E090E00C94032FAE
:10194000AB01BC0188E090E00C94212FE9E6F2E0C5
:1019500083E0808311828FEF82838383148260818E
:101960007181828193810C94A00C6091690260FF67
:1019700006C066956F7370E090E080E0089560E0C7
:1019800070E0CB01089580916D0290E00196843063
:10199000910514F083E090E080936D0260916902FC
:1019A00070916A0280916B0290916C020C94A00C71
:1019B00080916D028150990B97FF02C090E080E00A
:1019C0008430910514F083E090E080936D02609183
:1019D000690270916A0280916B0290916C020C9482
:1019E000A00C80916902EEE6F2E080FF06C06AE09A
:1019F00070E08EE692E00C944A12118210821282FC
:101A0000339682E0EC38F807C1F7F1CF9091690284
:101A100090FF0CC0EEE6F2E0818360834283339650
:101A200092E0EC38F907C1F70C94F10C0895CF93CC
:101A3000DF9300D00F92CDB7DEB72091690220FF6F
:101A40000AC09E012F5F3F4F0E94270C4B81698186
:101A50008A810E94060D0F900F900F90DF91CF9119
:101A600008953F924F925F926F927F928F929F92D2
:101A7000AF92BF92CF92DF92EF92FF920F931F939C
:101A8000CF93DF9300D00F92CDB7DEB78C01462EF7
:101A9000542E322E8091690280FF30C0982F9E779D
:101AA000923009F040C09E012F5F3F4FC8010E9455
:101AB000270C4B8169818A810E94060D8091690201
:101AC00000FB87F980936902902F969580916A02B6
:101AD0008078892B10FB87F980936A0240926B0211
:101AE00050926C02332051F06091690270916A0249
:101AF00080916B0290916C020E94A00C0F900F904D
:101B00000F90DF91CF911F910F91FF90EF90DF9099
:101B1000CF90BF90AF909F908F907F906F905F908D
:101B20004F903F900895E82FE695EF739EE39E0F48
:101B30009F73943018F450906C02C0CF9AE39E0FBC
:101B40009F73993068F4881F8827881F90916A02D4
:101B5000292F220F022F082B97FB112710F9AECF48
:101B600087E28E0F8F738A3008F0A8CFE951FF0B00
:101B700021E0E0FD2FEFEE7FE453FC4F859194913F
:101B80006AE070E00E94352E26033001279F700C1A
:101B90001124680188E9C81A8EEFD80A8EE6E82E6B
:101BA00082E0F82E9CE8A92E92E0B92E28E6822E3B
:101BB00099249394C601B4010E94352E9701452DB6
:101BC000642D0E94270CC60CD71C83E0E80EF11C84
:101BD000AE14BF0479F70E94F10C70CF21E00C9491
:101BE000310DE9E6F2E02081221F2227221F3091E9
:101BF0006A02432F440F842F822B37FB992790F9D9
:101C0000089668E671E00E94492E438162810C9437
:101C1000EE0D20916902221F2227221F30916A02B5
:101C2000432F440F842F822B37FB992790F988305C
:101C3000910540F4805A9E4F40916C0260916B0276
:101C40000C94EE0D089768E671E00E94492EF4CFDF
:101C500060916B02683F90F4685F80916902881F11
:101C60008827881F90916A02292F220F97FB9927B6
:101C700090F940916C02822B0C94EE0D6FEFEDCF3A
:101C800060916B02683090F0685080916902881F03
:101C90008827881F90916A02292F220F97FB992786
:101CA00090F940916C02822B0C94EE0D60E0EDCF28
:101CB00040916C02483F90F4485F80916902881F10
:101CC0008827881F90916A02292F220F97FB992756
:101CD00090F960916B02822B0C94EE0D4FEFEDCFDB
:101CE00040916C02483090F0485080916902881F02
:101CF0008827881F90916A02292F220F97FB992726
:101D000090F960916B02822B0C94EE0D40E0EDCFC8
:101D100020E00C94310D9091690290FF46C09178BB
:101D2000811128C0926090936902662351F06091FE
:101D3000690270916A0280916B0290916C020E941C
:101D4000A00C80916902382F3E773230D9F410927E
:101D50009001881F8827881F90916A02292F220FDF
:101D600097FB992790F940916C0260916B02822B4E
:101D70000C94880E843210F09664D5CF8F73880F40
:101D8000982BD1CF982F96959F732EE3290F2F7301
:101D9000273110F0363421F491E090939001D9CF9F
:101DA000995D9F739A30A8F6D2CF089561E00C94A4
:101DB0008B0E8091690286958F738F5F843208F055
:101DC00081E00C94D60E8091690286958F738150C4
:101DD00009F483E20C94D60EE9E6F2E0808181609A
:101DE000808386958F730C94D60E60E00C948B0ED6
:101DF00080913B02816080933B0281E0809391015E
:101E00000E94051E811104C00E94DF1D0E94A60CC5
:101E10000E949C0C6093690270936A0280936B022B
:101E200090936C026E7761F40E94A60C0E949C0C49
:101E30006093690270936A0280936B0290936C02C4
:101E400081E0809390018091690280FF04C08695B3
:101E50008F730C94F50E0895E9E6F2E080818160BD
:101E6000808386958F730C94F50EE9E6F2E080810D
:101E70008E7F808360817181828193810E94A00C1A
:101E8000109290012FEF80E792E021508040904027
:101E9000E1F700C000000C94F10C8091690280FD14
:101EA0000C94350F0C94EC0EE9E6F2E080818E7F05
:101EB0008083109290012FEF80E792E021508040C4
:101EC0009040E1F700C000000C94F10C81E0809399
:101ED00090010895109290010895CF93C82F80919A
:101EE0008E0190918F010E944C1FEC2FF0E0EE517B
:101EF000FC4FE491E817190611F008F042C00E9467
:101F0000401F90938F0180938E0160918D0170E04E
:101F100090E080E00E94262C20E030E04FE753E480
:101F20000E94492B2BED3FE049E450E40E944F2DE5
:101F30000E94BC2D0E94C32B2BE43AE34EE25FE3E8
:101F40000E94DC2A20EF3BEF48ED52E40E944F2D27
:101F50000E94F52B462F80916902881F8827881FD1
:101F600090916A02292F220F97FB992790F960918F
:101F70006B02822B0E94170D80918D018F5F8093E1
:101F80008D01CF910895CF93C82F80918B019091AF
:101F90008C010E944C1FEC2FF0E0E152FC4FE491C9
:101FA000E817190609F0E8F40E94401F90938C018D
:101FB00080938B0140916C0260916B02809189014A
:101FC00090918A010E94170D8091890190918A0158
:101FD000019668E671E00E94352E90938A01809305
:101FE0008901CF910895CF92DF92FF920F931F93B3
:101FF000CF93DF93F82E80918701909188010E9402
:102000004C1FEF2DE695F0E0E452FC4FE491E81709
:10201000190609F0A8F50E94401F9093880180934B
:1020200087010EE612E0D0E0C0E088E6C82EDD248D
:10203000D39480918501909186018C0F9D1FB601EC
:102040000E94352E980140916C0260916B020E94B3
:10205000270CA4960D5F1F4FC83681E0D80749F7BB
:102060000E94F10C8091850190918601F0FE10C0D4
:102070000196BE010E94352E9093860180938501C2
:10208000DF91CF911F910F91FF90DF90CF90089536
:102090000197F2CFCF92DF92EF92FF920F931F93AF
:1020A000CF93DF93C82FFF24FA9480FD02C0FF2452
:1020B000F39480918301909184010E944C1FC695F6
:1020C000EC2FF0E0E752FC4FE491E817190611F00D
:1020D00008F051C00E94401F9093840180938301B7
:1020E0000EE612E0D0E0C0E0F80111821082128208
:1020F00094E0C92ED12CE12C809182018E0D87FDB8
:10210000865F082E000C990B8C179D07E9F48091CF
:102110006C028C9DA0018D9D500D11245595479505
:102120005595479580916902881F8827881F90914F
:102130006A02592F550F97FB992790F998016091E2
:102140006B02852B0E94270CEF0CF1E0CF1AD1080F
:1021500099F621960D5F1F4FCA30D10529F60E94CE
:10216000F10C8091820191E0F91210C081110CC034
:1021700089E080938201DF91CF911F910F91FF90B1
:10218000EF90DF90CF9008958150F3CF90E00196CB
:10219000BE010E94492EEDCF0F931F93CF93DF9383
:1021A000C82F80918001909181010E944C1FEC2FDB
:1021B000F0E0EA52FC4FE491E817190611F008F03C
:1021C00052C00E94401F9093810180938001CEE60F
:1021D000D2E0FE01118210821282339682E0EC3846
:1021E000F807C1F710E000E080917F01082E000C95
:1021F000990B08171907E4F180910801082E000CCB
:10220000990B80179107A4F180916902881F882794
:10221000881F90916A02592F550F97FB992790F9C3
:102220009E0140916C0260916B02852B0E94270CED
:102230000F5F1F4F23960A301105B1F60E94F10C73
:102240008091070190917F01980F90937F012091D9
:102250000801280F20930801121614F499301CF07D
:10226000819580930701DF91CF911F910F91089580
:10227000198218821A82DCCFEF92FF920F931F937C
:10228000CF93DF9380917D0190917E010E944C1F3E
:10229000883E9340C8F10E94401F90937E01809336
:1022A0007D01C0917B01D0917C012196C170DD2719
:1022B000D0937C01C0937B018EE6E82E82E0F82E5D
:1022C00010E008E7812F86958C0F9D2F911D81705E
:1022D0009927970140916C0260916B02FC010E9F5F
:1022E000C0010F9F900D11240E94270C1F5FF3E087
:1022F000EF0EF11C1A3031F7DF91CF911F910F9142
:10230000FF90EF900C94F10CDF91CF911F910F9102
:10231000FF90EF900895CF93DF9300D00F92CDB749
:10232000DEB78091790190917A010E944C1FEAEC0E
:10233000F3E02591349182179307C0F180917801E1
:1023400081110CC09E012F5F3F4F4FEF6FEF90E068
:1023500080E00E94270C8A81809378010E94401FB0
:1023600090937A018093790180917701813071F0A7
:10237000882339F040E0823011F44091780180E008
:1023800003C08091780140E060E004C06091780172
:1023900040E080E00E94060D8091770190E0019678
:1023A00063E070E00E94492E809377010F900F90B8
:1023B0000F90DF91CF910895809190018823B1F122
:1023C00090916902892F86958F732EE3280F2F73C2
:1023D000243018F482500C946D0F2AE3280F2F73C9
:1023E000233018F486500C94C30F27E3280F2F7363
:1023F000263018F489500C94F30F21E3280F2F7323
:10240000263018F48F500C944A102BE2280F2F73AB
:10241000233018F485510C94CC109E77903311F42E
:102420000C943C11963411F40C948B11089531B333
:10243000242F2095232331B3432B3FB7F894680F03
:10244000791F8617970711F43FBF0895FC0151913A
:10245000CF01E8E041BB000000C057FF21BB550F92
:10246000000000C000C000C021BB00C0EA9591F789
:10247000E8CF20B3242B20BB9B01220F331F620F18
:10248000731F0E94171287EC90E00197F1F700C0CC
:102490000000089540E40C943912909397018093C2
:1024A00096010895E0919601F0919701309721F0FF
:1024B0000190F081E02D099480E00895E09196016B
:1024C000F0919701309721F00280F381E02D09947B
:1024D0000895E0919601F0919701309721F00480E2
:1024E000F581E02D09940895209194013091950192
:1024F0002817390771F09093950180939401E0912A
:102500009601F0919701309721F00680F781E02D38
:102510000994089520919201309193012817390769
:1025200071F09093930180939201E0919601F09164
:102530009701309721F00084F185E02D09940895EA
:1025400008950C94A01281E008950E94371F0E9404
:10255000E50A0E9409200E941D230C94F80E5F9248
:102560006F927F928F929F92AF92BF92CF92DF92A3
:10257000EF92FF920F931F93CF93DF93CDB7DEB708
:102580002A970FB6F894DEBF0FBECDBF0E94500B46
:102590000E94A312882309F47AC099E9A92E91E038
:1025A000B92E10E000E088248394912C502E802FC7
:1025B0000E941D0C7C01F501C190D1905F01C816ED
:1025C000D90609F45EC080913B0281FD0E94260C71
:1025D00090E080E0CE24DF243401082E02C0660C97
:1025E000771C0A94E2F7960126213721232B09F460
:1025F00043C08E835F82E620F72081E0EF2809F454
:1026000080E088870E94401F8160782F9A878987A1
:102610004E815F8168858A850E946E13000F111FAD
:10262000F801E756FE4F80819181682679267182F4
:1026300060820E9487220E9452129091980189170D
:10264000B9F10E945212809398012A960FB6F8941D
:10265000DEBF0FBECDBFDF91CF911F910F91FF90D5
:10266000EF90DF90CF90BF90AF909F908F907F9032
:102670006F905F900C94FF0701968F30910509F0E1
:10268000ABCF0F5F1F4F0530110509F08FCF8FEFD4
:1026900089838A831B820E94401F8160782F9D83DB
:1026A0008C8349815A816B818D810E946E13C1CFC9
:1026B0002A960FB6F894DEBF0FBECDBFDF91CF9143
:1026C0001F910F91FF90EF90DF90CF90BF90AF9050
:1026D0009F908F907F906F905F900895CF93DF933E
:1026E000CDB7DEB72B970FB6F894DEBF0FBECDBFC8
:1026F0004F83588769877A878B871E821D8285E082
:10270000FE013796DE01119601900D928A95E1F750
:1027100049815A816B817C818D819E812B960FB678
:10272000F894DEBF0FBECDBFDF91CF910C944A1A53
:10273000FC01808191810C94FE1C882309F4F3C074
:102740008238B9F40E94521281FDEDC089E30E94E3
:102750002C1D0E94701D2FEF81EE94E021508040CF
:102760009040E1F700C0000089E30E94331D0C9403
:10277000701D8338A1F40E94521280FDD4C083E5FD
:102780000E942C1D0E94701D2FEF81EE94E02150BD
:1027900080409040E1F700C0000083E5E6CF843838
:1027A000A1F40E94521282FDBEC087E40E942C1D3B
:1027B0000E94701D2FEF81EE94E0215080409040E8
:1027C000E1F700C0000087E4D0CF9CEF980F913A6A
:1027D00018F40E942C1DCBCF90E2980F983050F443
:1027E000877091E001C0990F8A95EAF7892F0E94BE
:1027F000A61DBDCF9BE5980F933070F4853A31F05C
:10280000863A39F083E890E00C94741281E890E005
:10281000FBCF82E890E0F8CF98E5980F953108F06B
:1028200082C0883A09F440C0893A09F440C08A3A23
:1028300009F440C08B3A09F440C08C3A09F440C016
:102840008B3B09F440C08C3B09F440C08D3A09F43D
:1028500040C0803B09F440C08E3A09F440C08F3A32
:1028600009F440C0813B09F440C0823B09F440C0F8
:10287000833B09F440C0843B09F440C0853B09F424
:1028800040C0863B09F440C0873B09F440C0883B08
:1028900009F440C0893B09F440C08A3B09F440C0B8
:1028A00090E080E00C948A1282EE90E0FBCF89EEFB
:1028B00090E0F8CF8AEE90E0F5CF85EB90E0F2CF94
:1028C00086EB90E0EFCF83EB90E0ECCF84EB90E0F1
:1028D000E9CF87EB90E0E6CF8CEC90E0E3CF8DEC96
:1028E00090E0E0CF83E891E0DDCF8AE891E0DACFB5
:1028F00082E991E0D7CF84E991E0D4CF81E292E000
:10290000D1CF83E292E0CECF84E292E0CBCF85E2DA
:1029100092E0C8CF86E292E0C5CF87E292E0C2CFD4
:102920008AE292E0BFCF0895882309F44BC0823831
:1029300071F40E94521281FF45C089E30E942C1D50
:102940000E94701D89E30E94331D0C94701D833812
:1029500059F40E94521280FF35C083E50E942C1D5D
:102960000E94701D83E5EFCF843859F40E94521203
:1029700082FF28C087E40E942C1D0E94701D87E4FE
:10298000E2CF9CEF980F913AF0F290E2980F9830D6
:1029900050F4877091E001C0990F8A95EAF7892F6A
:1029A0000E94AC1DD2CF9BE5980F933020F490E0AD
:1029B00080E00C947412885A853120F490E080E015
:1029C0000C948A120895882321F00E94A61D0C946D
:1029D000701D0895882321F00E94AC1D0C94701D79
:1029E00008958F929F92AF92BF92CF92DF92EF9213
:1029F000FF920F931F93CF93DF937C01D62FC72FA6
:102A0000FC01058102950F70128111110E94C31DF6
:102A10000E94691DC82E882371F01123B1F080E255
:102A20008D0F883090F082E00E94531D0E94691D36
:102A300091E0C82EC926DC2ED2949FE0D922ED2D3C
:102A4000F0E0E258F04D0C947F2EC12CF4CF0C2F07
:102A50000F70C07F11F00295007F1123A9F00023B1
:102A600059F080E28D0F883010F0D11109C0802F0D
:102A70000E94A61D0E94701D8D2F0E949D1314C0E0
:102A8000802F0E94B61DF6CF8D2F0E949414002334
:102A900059F080E28D0F883010F0D11133C0802FB3
:102AA0000E94AC1D0E94701D98E0D91639F0D9160D
:102AB00048F086EF8D0D8F70823020F40E94521204
:102AC0000E94FF07CC2009F4FCC10E94461D80FD36
:102AD000F8C1F70112820E94401D0E94CC1BC70161
:102AE0000E946E170E94401DDF91CF911F910F91A0
:102AF000FF90EF90DF90CF90BF90AF909F908F901E
:102B00000C94ED1B802F0E94BC1DCCCFFC2FFF70BE
:102B1000BF2EC07FC03219F0B29480EFB822DD23FF
:102B200069F0D13049F1112391F1002351F1F701FE
:102B3000858180FFA1CF8F70858323C0112381F011
:102B4000011106C00E94DC1D8B290E94E314ACCF4A
:102B50000130C1F70E94DC1D8B290E94D61DA4CF35
:102B6000011106C00E94D91D8B2D0E94EA149CCF32
:102B7000013009F499CFF6CF112329F0063008F07F
:102B800093CF8B2DE2CF053008F08ECFEDCF002311
:102B900059F38D2F0E94941487CF8C2F869586959C
:102BA000837069F0813009F07FCF8D2F9C2F937057
:102BB000111102C090E080E00E948A1275CF8D2F23
:102BC0009C2F9370111102C090E080E00E9474125B
:102BD0006BCF112309F1D53F99F0D63FB9F0D43F1F
:102BE00049F480918C0290918D02816090938D02C6
:102BF00080938C028D2F0E9495210E947C2254CFBD
:102C000080918C0290918D028260F0CF80918C0235
:102C100090918D028460EACFD53F89F0D63FA9F02C
:102C2000D43F49F480918C0290918D028E7F9093D5
:102C30008D0280938C028D2F0E94FD21DECF80912A
:102C40008C0290918D028D7FF2CF80918C029091B9
:102C50008D028B7FECCF8C2F837009F047C0111150
:102C600023CF2D2F229526952770220F220F6D2F0F
:102C70006F70862E912CB12CA12C022E04C0880CD2
:102C8000991CAA1CBB1C0A94D2F760E070E0CB012F
:102C9000D4FF0FC06FE070E080E090E004C0660FEA
:102CA000771F881F991F2A95D2F760957095809598
:102CB0009095C695C695C370C23051F080F46829CE
:102CC00079298A299B29C13071F00E947E1BECCEA4
:102CD000682979298A299B290E94901BE5CE0E94A8
:102CE0007E1BC501B4010E946C1BDECE86951123AC
:102CF00011F08C2F8170882309F4D6CE2D2F2295C8
:102D000026952770220F220F6D2F6F70862E912C23
:102D1000B12CA12C022E04C0880C991CAA1CBB1C2F
:102D20000A94D2F760E070E0CB01D4FF0FC06FE0EF
:102D300070E080E090E004C0660F771F881F991F45
:102D40002A95D2F76095709580959095C695C69511
:102D5000C370C23051F080F4682979298A299B29EF
:102D6000C13071F00E94431C9FCE682979298A29BD
:102D70009B290E94551C98CE0E94431CC501B4019A
:102D80000E94311C91CEE0E2ED0FE53108F04DC01C
:102D9000F0E0E257F04D0C947F2EDF708C2F8F7196
:102DA000112321F00E94CC1B8D2FCFCE0E94ED1B52
:102DB0008D2FDBCE112341F0053008F075CE8C2F1E
:102DC0008F710E94101C70CE063008F06DCEF7CFC8
:102DD0008C2F8F71112339F00E94CC1B65CE8C2F64
:102DE0008F711123C9F30E94ED1B5ECE112329F0D0
:102DF0008C2F8F710E94B71B57CE0E94B21B54CEEE
:102E0000112349F0CF718C2F0E94CC1B63E08C2FD3
:102E10000E944A1D49CE81E00E94531D023008F4F1
:102E200043CE82E00E94531D3FCE112329F00111B1
:102E300023CE8C2F8F71D0CF002369F0D93309F0C6
:102E4000A8CEFFEF27EE83E0F15020408040E1F76D
:102E500000C000009ECE8C2F8F71C5CF4C2F4F70BD
:102E60006D2FC7010E9401080E94E41A1DCE1111A6
:102E70001BCECF70C230B1F040F4CC2381F0C13012
:102E800009F012CE0E944E230FCEC43089F068F0B4
:102E900080E0C53009F008CE0E94A42305CE0E9430
:102EA000362302CE0E946723FFCD0E948123FCCDF2
:102EB00085E0F2CF4C2F4F706D2FC7010E940408A0
:102EC000F3CDDF91CF911F910F91FF90EF90DF90A5
:102ED000CF90BF90AF909F908F9008950F931F93C6
:102EE000CF93DF93EC018B819C81892B29F0888122
:102EF000998189238F3F29F4DF91CF911F910F9101
:102F00000895CE010E94C5048823B1F368817981B8
:102F10008A810E94081D8C010E94671C0E94691B07
:102F2000B801CE01DF91CF911F910F910C94F11454
:102F30000E94C31D0E94D31D0E943A1D0E94701D55
:102F40000E9411230E947C2290E080E00E94741273
:102F500090E080E00C948A120E94B31D0C949817A4
:102F60000E94FE1CE92FE295EF70E250EE3070F403
:102F7000F0E0ED55F04D0C947F2E803F19F020F4D9
:102F8000803E20F481E00895843FE1F380E00895DD
:102F9000803EC0F3813FD1F7F5CF93FB882780F9BE
:102FA0000895CF93DF9300D000D00F92CDB7DEB756
:102FB0000F900F900F900F900F90DF91CF91089589
:102FC000CF93DF9300D000D000D0CDB7DEB72696E8
:102FD0000FB6F894DEBF0FBECDBFDF91CF9108953D
:102FE0001F93CF93DF93C091A40116E08091A501B8
:102FF0008C1304C0DF91CF911F910895D0E01C9FE6
:10300000F0011D9FF00D1124EA55FE4F40815181C2
:1030100062817381848195810E94E0172196C77037
:10302000E5CF4091D6015091D7016091D8017091C0
:10303000D9018091DA019091DB010C94E0171F9384
:10304000CF93DF938091DB01807FC1F48091D80121
:103050008823A1F08091A401C091A5016091D601BF
:103060007091D7014091D9015091DA01D62FD72321
:10307000DA01A095B09516E0C81304C0DF91CF9196
:103080001F91089590E04115510511F0DF3F31F493
:1030900001968770F1CF2A0F3B1F17C0189FF001D0
:1030A000199FF00D1124EA55FE4F21812713F0CF0F
:1030B00020812613EDCF22812111EACF2381348193
:1030C0002417350740F3241B350B283C310500F746
:1030D0002091DB012F7020612093DB0126E0289FE7
:1030E000F001299FF00D1124E555FE4F80818F706E
:1030F0008061808386ED91E00E946E17DF91CF9111
:103100001F910C94F017BF92CF92DF92EF92FF9233
:103110000F931F93CF93DF93CDB7DEB761970FB6B1
:10312000F894DEBF0FBECDBF8C0185E0F801DE0153
:103130001D9601900D928A95E1F7D8014C91119658
:103140005C9111971296EC9012978091D901909111
:10315000DA01009709F47FC12091D6013091D7019F
:10316000622F63236F3F09F476C11396CD90DC90F4
:10317000B090D801BB2009F411C1C816D906D0F10E
:10318000F601E81BF90BCF01FF24F394883C91056D
:1031900008F0F12C8091DB01982F907FFF2009F43B
:1031A000B8C091117FC0FE2C351329C0241327C04D
:1031B000E11025C08F7080618093DB010E9411189F
:1031C00086ED91E00E946E178091DB01D801159683
:1031D0008C938F2D61960FB6F894DEBF0FBECDBFD6
:1031E000DF91CF911F910F91FF90EF90DF90CF90E3
:1031F000BF900895809590958C0D9D1DC5CFCD28CD
:1032000029F0852F84238F3F09F041C180E0B82F3A
:10321000B170DB2E80FF3CC08091A4012091A501FC
:1032200036E0821315C04D875E878D859E850E948E
:10323000FE1C292F22952F702230F0F0243018F533
:103240009F70F1F0F8019581907FD1F4D12C1EC0D0
:1032500090E0389FF001399FF00D1124EA55FE4FA0
:103260006181651306C06081641303C06281E61248
:103270000FC001968770D5CF9F7011F0882331F36E
:10328000805E883018F3C8010E946E17FD2CA1CF14
:10329000EE2009F49ECF8091DB0181608093DB01F9
:1032A000F12C97CF351306C0241304C0D801EE20AB
:1032B00009F49AC04D875E878D859E850E94B01760
:1032C000882319F1EE2009F18091DB01803270F042
:1032D0002091D6013091D70138872F831986DB865C
:1032E000CA868C87CE0107960E946E1786E0F80189
:1032F000A6EDB1E001900D928A95E1F70E941F18AA
:103300000E941118FF24F39464CFC8010E946E1725
:10331000F9CF911113C07C2DD98AC88A6E2D898965
:103320000E94D11786ED91E00E946E1786E0E6EDCF
:10333000F1E0DF011D928A95E9F763C0351312C0F1
:10334000241310C0E1100EC0F8018583C8010E944B
:103350006E17E6EDF1E086E0DF011D928A95E9F750
:10336000FB2C37CF4D875E878D859E850E94B017D9
:10337000882359F2EE2049F28091DB01803208F473
:10338000B5CF2091D6013091D7013A8329831B8292
:10339000DD82CC828E83CE010196A6CFC816D906D7
:1033A00098F1F601E81BF90BCF01F12C883C91054F
:1033B00008F049C0FE2CEE2009F4A7CF351332C027
:1033C000241330C08091DB0180FD23C0982F907FB3
:1033D00001F1D80115968C931597903F39F0982FED
:1033E000907F905F8F70892B15968C93C8010E94F7
:1033F0006E1786E0F801A6EDB1E001900D928A9576
:10340000E1F70E941118E5CE809590958C0D9D1DD9
:10341000CCCF86E0F801A6EDB1E001900D928A953F
:10342000E1F7D7CE4D875E878D859E850E94B017C8
:1034300081115CCF8091DB0181608093DB01C80149
:103440000E946E17C6CE7C2DD98AC88A6E2D8989B6
:103450000E94D1176BCFEE2009F457CF4D875E87BE
:103460008D859E850E94B017F82E882309F44DCFD4
:1034700086E0F801A6EDB1E001900D928A95E1F7A2
:1034800086ED91E00E9498130E941F18BACF81E048
:103490008E25BDCE1F93CF93DF93CDB7DEB72C978C
:1034A0000FB6F894DEBF0FBECDBF4F835887698734
:1034B0007A878B879C87CE0107960E948318882382
:1034C00069F08A859B85892B39F04F815885842F37
:1034D00085238F3F09F071C016E05FC086E0FE01D2
:1034E0003796DE01119601900D928A95E1F78A8553
:1034F0009B85892B89F388859F8189238F3F61F381
:103500002091A50130E0C90101968770992740916B
:10351000A4014817190671F40E94AC171092A50176
:103520001092A40186E0E6EDF1E0DF011D928A959C
:10353000E9F7D2CF96E0929FD001939FB00D11246E
:10354000AA55BE4FFE01319601900D929A95E1F772
:103550008093A5010E94F017BFCF819FC001112465
:103560008A559E4F0E9483188823E9F0E091A401B8
:103570001E9FF0011124EA55FE4F40815181628166
:103580007381848195810E94E0178091A40190E06D
:103590000196877099278093A4018091A40190914E
:1035A000A5018913DACF2C960FB6F894DEBF0FBEB3
:1035B000CDBFDF91CF911F91089569857A858B8565
:1035C0009C850E94E01788CFEF92FF920F931F9384
:1035D000CF93DF938C01892B81F0F12CEE24E394BF
:1035E000E8012196F8018491843770F4843008F062
:1035F0005FC08130B1F08230A1F1DF91CF911F9196
:103600000F91FF90EF900895853709F44CC008F4AE
:103610003DC09CE7980F903780F78F770E949414F5
:1036200049C00E5F1F4FFE01849190E2980F9830C1
:1036300060F48770FE2D01C0FF0F8A95EAF78F2F87
:103640000E94C61D0E94701D02C00E949D138F2DF6
:10365000815030F2EFE9FFE03197F1F700C0000050
:10366000F7CF0E5F1F4FFE01849190E2980F9830C4
:1036700050F48770FE2D01C0FF0F8A95EAF78F2F57
:103680000E94CC1DDFCF0E949414E1CF0E5F1F4F2C
:10369000FE01C491C150D8F28FE99FE00197F1F784
:1036A00000C00000F7CF0E5F1F4FFE01F490CFCF98
:1036B0000E949D138E01CBCF08950E945C1B6093E6
:1036C00012027093130280931402909315020C94CB
:1036D000981708950C945D1B0F931F93009112028D
:1036E000109113022091140230911502602B712B5E
:1036F000822B932B1F910F910C945D1B0F931F93A3
:1037000000911202109113022091140230911502BF
:1037100060237123822393231F910F910C945D1BCF
:103720000F931F9300911202109113022091140223
:103730003091150260277127822793271F910F91DF
:103740000C945D1B0C945C1B0C94A21B0E94A41B8C
:1037500060930E0270930F028093100290931102F7
:103760000C94981760E070E0CB010C94A61B0F93AB
:103770001F9341E050E060E070E08A019B0104C0CB
:10378000000F111F221F331F8A95D2F7C901B801FC
:103790001F910F910C94A61B0F931F9341E050E0D3
:1037A00060E070E004C0440F551F661F771F8A95C4
:1037B000D2F780910E0290910F02A0911002B09169
:1037C00011028A019B01082B192B2A2B3B2BC901C3
:1037D000B8011F910F910C94A61B0F931F9341E00A
:1037E00050E060E070E004C0440F551F661F771F73
:1037F0008A95D2F7CB01BA01609570958095909526
:1038000000910E0210910F022091100230911102CE
:1038100060237123822393231F910F910C94A61B85
:103820000F931F9341E050E060E070E004C0440F4C
:10383000551F661F771F8A95D2F780910E029091CF
:103840000F02A0911002B09111028A019B0108277A
:1038500019272A273B27C901B8011F910F910C9402
:10386000A61B0F931F9300910E0210910F0220913F
:10387000100230911102602B712B822B932B1F9120
:103880000F910C94A61B0F931F9300910E021091A1
:103890000F022091100230911102602371238223C4
:1038A00093231F910F910C94A61B0F931F930091CC
:1038B0000E0210910F022091100230911102602728
:1038C0007127822793271F910F910C94A61B0895AF
:1038D0002FE0929F800D1124982F977041E001C036
:1038E000440F9A95EAF786958695869595E0899F87
:1038F000F0011124E452FE4F90E080E070E051911D
:10390000DF0111979B01082E02C0369527950A9476
:10391000E2F7217021952527242325272C93019652
:103920008530910561F708952FE0929F800D112455
:10393000982F977086958695869525E0829FF00151
:103940001124E452FE4F50E040E080E0219130E04D
:10395000092E02C0369527950A94E2F72170332785
:10396000042E01C0220F0A94EAF7822B4F5F5F4FAB
:103970004530510559F70895BF92CF92DF92EF92EB
:10398000FF920F931F93CF93DF938C01C0900E0291
:10399000D0900F02E0901002F0901102809112027C
:1039A00090911302A0911402B0911502C82AD92A4D
:1039B000EA2AFB2ACFE1D0E0BC2ED701C6010C2EAB
:1039C00004C0B695A795979587950A94D2F780FD80
:1039D0000EC0219788F7B12C8B2DDF91CF911F91CD
:1039E0000F91FF90EF90DF90CF90BF900895B801B6
:1039F0008C2F0E942108019761F3EECFCF93DF93C4
:103A0000EC010E94BC1CBE01DF91CF910C942108F7
:103A10001F93CF93DF93EB019091A301992331F092
:103A2000CB01DF91CF911F910C94FE1C882379F07C
:103A3000CB010E94BC1C182F682FCE010E94681C6D
:103A4000BE01812FDF91CF911F910C942108CB01F2
:103A50000E94941C182FF4CF682F80910901909137
:103A60000A010C94911E682F8091090190910A011E
:103A70000C949C1E8091090190910A010C94A71E40
:103A800080911602859585958595089580911602F9
:103A90008770089598E0899F90011124622B6093AC
:103AA00016020C94CC1B909116028095892380936A
:103AB0001602282F277061F4282F082E000C330BD4
:103AC0009217130629F08595859585950C94ED1B25
:103AD000089590911602977081E009F480E00895AE
:103AE000E0910901F0910A0180913A028083E0910E
:103AF0000901F0910A01808190913902892B80831C
:103B0000E0910901F0910A01808190913802892B9E
:103B1000808390911702992381F0E0910901F0913F
:103B20000A018081892B80838091090190910A018B
:103B30000E94341E81111092170280910901909108
:103B40000A010C945E1280913A02089590913A0213
:103B5000892B80933A020895809590913A02982398
:103B600090933A02089510923A0208959091390282
:103B7000892B80933902089580959091390298237A
:103B80009093390208951092390208959091380265
:103B9000892B80933802089580959091380298235C
:103BA0009093380208951092380208958093170276
:103BB00008951092170208958091170208956DEEEE
:103BC0007EEF90E080E00E942D2F60E082E090E0A8
:103BD0000E940F2F60E083E090E00E940F2F60E0D2
:103BE00084E090E00E940F2F60E085E090E00E946A
:103BF0000F2F60E086E090E00E940F2F40E050E041
:103C0000BA0188E090E00C94212F90E080E00E94BF
:103C1000092F21E08D3E9E4F09F020E0822F08956C
:103C200082E090E00C94FB2E682F82E090E00C94F0
:103C30000F2F83E090E00C94FB2E682F83E090E040
:103C40000C940F2F84E090E00C94FB2E682F84E0FE
:103C500090E00C940F2F86E090E00C94FB2E682FE0
:103C600086E090E00C940F2FFC0131969C01205EC1
:103C70003F4F80E0919191118F5FE217F307D1F7E9
:103C800008959C01FC0132969FEF80E04191461718
:103C900051F09F3F19F4411101C0982F8F5F8E3171
:103CA000A9F79F3F09F40895290F311D97FD3A9513
:103CB000F90162830895FC013296809621912613C2
:103CC00003C0DF0111971C92E817F907B9F70895AF
:103CD000E62FE695E695E695EF3169F0E80FF92FC6
:103CE000F11D677021E030E001C0220F6A95EAF70C
:103CF0008181822B81830895E62FE695E695E695EE
:103D0000EF3171F0E80FF92FF11D677021E030E01D
:103D100001C0220F6A95EAF720958181282321832B
:103D2000089520911B01222329F02091920227FD62
:103D30000C94681E0C94411E20911B01222329F033
:103D40002091920227FD0C947C1E0C945B1EFC01BA
:103D5000319680961192E817F907E1F708950895D2
:103D600008950C94B01E80919902843009F430C0FB
:103D700010923C0288E190E020E40FB6F894A895F8
:103D8000809360000FBE2093600080E00E94830457
:103D900080E00E94FF070E946A0F0E94540F0E9459
:103DA000B11E83B7817F846083BF83B7816083BF87
:103DB0007894889583B78E7F83BF0FB6F894A895C3
:103DC00080916000886180936000109260000FBE57
:103DD00008950895CF930E94AF1E0E94500B0E9439
:103DE000E91EC0E08C2F0E941D0C892B31F4CF5F9F
:103DF000C530C1F780E0CF91089581E0FCCF0895F0
:103E00000C94FF1E0E94AC170E941D230E945212A8
:103E10000E94FF070E942C0F0E94660F0C94001F47
:103E20001F921FB61F9211248F939F93AF93BF933E
:103E300080913C02811113C080918E0290918F027B
:103E4000A0919002B09191024196A11DB11D809365
:103E50008E0290938F02A0939002B0939102BF9133
:103E6000AF919F918F911F901FBE1F90189582E078
:103E700084BD93E095BD9AEF97BD80936E00089541
:103E80002FB7F89480918E0290918F02A0919002AA
:103E9000B09191022FBF0895CF92DF92EF92FF92DF
:103EA0000F931F932FB7F89440918E0250918F0279
:103EB00060919002709191022FBF6A017B01EE2404
:103EC000FF248C0130E020E0C016D106E206F306A4
:103ED00050F0481B590BCA011F910F91FF90EF90B2
:103EE000DF90CF90089541505109F3CF78941F92FD
:103EF0001FB61F9211248F939F93AF93BF9380910E
:103F00008E0290918F02A0919002B0919102019641
:103F1000A11DB11D80938E0290938F02A0939002F9
:103F2000B0939102BF91AF919F918F911F901FBE4F
:103F30001F90189581E08093E00080E28093D80084
:103F40001092C9008FE19EE40197F1F700C00000D4
:103F500087E090EBDC018093A2029093A302A093F0
:103F6000A402B093A50288E19CE00FB6F894A8954E
:103F7000809360000FBE90936000FFCFAF92BF921E
:103F8000CF92DF92EF92FF920F931F93CF93C0E0F7
:103F9000CC24C394D12CE82EF12C8C2F0E941D0C24
:103FA0005C0110E000E0C601002E02C0880F991FDE
:103FB0000A94E2F78A219B21892B99F40F5F1F4F06
:103FC0000F30110581F7CF5FC53039F780E0CF9111
:103FD0001F910F91FF90EF90DF90CF90BF90AF9027
:103FE0000895602F7C2F80E00E940508E816F906EE
:103FF00029F781E0ECCFCF93C82F8CE20E94BE1F3F
:10400000882321F08C2FCF910C94BE1F80E0CF919C
:104010000895CF930E94051E811102C00E94DF1DEA
:10402000C5E608C00E94500B8FE39CE90197F1F7A9
:1040300000C00000C150B1F789E20E94FB1F81114E
:10404000EFC08AE20E94FB1F81110E94DF1D85E004
:104050000E94FB1F81110E949A1F0E94101E8093D4
:104060003B0287E00E94FB1F882371F08BE10E94D6
:10407000FB1F882309F4B1C090913B02892F8D7FEB
:1040800091FF826080933B0280913B020E94141E4C
:104090000E94221E90E0909393028093920280EE01
:1040A0000E94FB1F882341F090919202892F8E7FFE
:1040B00090FF81608093920289E30E94FB1F882316
:1040C00041F090919202892F8D7F91FF82608093C1
:1040D000920282EE0E94FB1F882341F0909192028F
:1040E000892F8B7F92FF84608093920286EE0E94DC
:1040F000FB1F882341F090919202892F877F93FFC5
:1041000088608093920283EE0E94FB1F882341F017
:1041100090919202892F8F7E94FF8061809392020A
:1041200085E30E94FB1F882341F090919202892F22
:104130008F7D95FF80628093920281E30E94FB1F36
:10414000882341F090919202892F8F7B96FF8064A3
:104150008093920281E10E94FB1F882341F090919D
:104160009202892F97FB87F9805880939202809161
:1041700092020E94261E87E20E94FB1FC82F8EE13A
:104180000E94FB1F8111C2608FE10E94FB1F811101
:10419000C46080E20E94FB1F8111C86081E20E941E
:1041A000FB1F8111C06182E20E94FB1F8111C0626E
:1041B00083E20E94FB1F8111C06484E20E94FB1F06
:1041C000882341F1C0688C2F0E941D1E6C2F70E067
:1041D00090E080E0CF910C946A1B8EE00E94FB1F60
:1041E000882339F090913B02892F8B7F92FF846066
:1041F00049CF80E10E94FB1F90913B02882329F068
:10420000892F877F93FF88603DCF892F8E7F90FF16
:10421000816038CFC111D7CF0E94191E682FD7CF28
:10422000CF91089580913F0280FF12C060910E01EE
:1042300085E0689FB0011124759567957595679520
:1042400060387105A8F561157105A1F1862F0895F3
:1042500081FF09C060910E0185E0689FB0011124C3
:1042600075956795EDCF60910E0182FD0AC0809132
:1042700040028823D1F090910D0160910E018917C1
:1042800028F085E0689FB0011124DACF869FB00145
:10429000112485E0869F9001879F300D1124692F9E
:1042A00070E0C9010E94492ECBCF65E070E0CECF0F
:1042B0008FE7089581E0089580913F0280FF0CC050
:1042C00060910C0170E0759567957595679561151E
:1042D000710549F1862F089581FF06C060910C0198
:1042E00070E075956795F3CF60910C0182FD0BC06E
:1042F000909140029923A1F060910B0180910C01F3
:10430000961738F0682F70E06038710500F38FE77A
:104310000895899FC001112470E00E94492EF4CFB6
:1043200061E070E0D7CF81E00895803F31F40E94D2
:1043300012218195809343020895813F19F40E94D0
:104340001221F8CF823F31F40E941221819580938F
:1043500042020895833F19F40E941221F8CF893F49
:1043600029F40E945C218093440208958A3F21F43D
:104370000E945C218195F7CF8B3F31F40E945C2134
:1043800081958093450208958C3F19F40E945C2129
:10439000F8CF843F31F480914102816080934102E3
:1043A0000895853F21F4809141028260F7CF863FD6
:1043B00021F4809141028460F1CF873F21F4809104
:1043C00041028860EBCF883F21F4809141028061F7
:1043D000E5CF8D3F31F480913F02816080933F02B1
:1043E00008958E3F21F480913F028260F7CF8F3F86
:1043F000B9F780913F028460F1CF90914202803FF3
:1044000041F48091430287FD10924302992371F099
:104410000895813F29F4809143021816ACF3F6CF3A
:10442000823F81F497FFF2CF1092420280914302C3
:1044300090914402892B90914502892B49F7109263
:1044400040020895833F19F4191674F3DFCF893FB2
:1044500039F4809144021816CCF610924402D6CF5B
:104460008A3F29F48091440287FFD0CFF6CF8B3F5B
:1044700039F48091450287FFC9CF10924502C6CF1B
:104480008C3F29F4809145021816BCF3BFCF843FBE
:1044900031F4809141028E7F80934102B7CF853FF6
:1044A00021F4809141028D7FF7CF863F21F48091E6
:1044B00041028B7FF1CF873F21F480914102877FBA
:1044C000EBCF883F21F4809141028F7EE5CF8D3F75
:1044D00031F480913F028E7F80933F0297CF8E3FD1
:1044E00021F480913F028D7FF7CF8F3F09F08ECF6F
:1044F00080913F028B7FF0CF81E492E00E946912AD
:104500000E94401F90933E0280933D0208951F93A6
:10451000CF93DF9380913D0290913E020E944C1F09
:10452000AC019091400220910F0130E0911106C042
:10453000209110018AE0289F90011124421753070F
:1045400078F020914202C0914302D0914402109130
:104550004502211109C08C2F8D2B812B09F05DC0E4
:10456000DF91CF911F9108959F3F19F09F5F909326
:104570004002121624F40E9412218093420280917C
:10458000420287FF05C00E9412218195809342025A
:104590001C1624F40E94122180934302809143024E
:1045A00087FF05C00E9412218195809343024091AC
:1045B0004202442379F030914302332359F025EB32
:1045C0004203A001112450934202320390011124AE
:1045D000309343021D1624F40E945C218093440210
:1045E0008091440287FF05C00E945C2181958093E1
:1045F0004402111624F40E945C21809345028091AC
:10460000450287FF05C00E945C2181958093450289
:10461000DF91CF911F910C947C229F3F09F0A6CF90
:10462000B7CF85E0E1E4F2E0DF011D928A95E9F77A
:104630001092400210923F0208950E94051E8111BF
:1046400002C00E94DF1D0E942B1E809394028C30BA
:1046500020F081708A60809394028091940280FFA0
:1046600003C086950C94830480E0FCCF8091940273
:10467000982F9695953030F49F5F990F8170892B14
:1046800080939402809194028160809394020E94AE
:104690002F1E8091940286950C948304809194023D
:1046A000982F9E7F79F08250809394028E7F91E0C4
:1046B00009F490E08091940290FB80F98093940239
:1046C0000E942F1E8091940286950C9483049091F1
:1046D0009402892F8E7F90FF8160809394028130B5
:1046E00019F483E080939402809194020E942F1E1B
:1046F0008091940280FF03C086950C94830480E02F
:10470000FCCF90919402892F86958F5F8F7791705F
:104710008630B8F4880F892B80939402809194029C
:104720008E7F91E009F490E08091940290FB80F9F3
:10473000809394020E942F1E8091940286950C947F
:10474000830490939402EACF863008F085E0982F96
:10475000990F809194028170892B809394028E7FAF
:1047600091E009F490E08091940290FB80F98093AD
:1047700094020E942F1E8091940286950C948304CB
:1047800080919402869508958091660208950F9312
:104790001F93CF93DF9300D00F92CDB7DEB78C017C
:1047A0000E943826823011F0843019F583E0898325
:1047B0001B830A838093E9008FEF9091E80081507A
:1047C00095FD06C095ED9A95F1F700008111F5CFA2
:1047D0008091E80085FF0DC050E040E063E070E0AC
:1047E000CE0101960E9455268091E8008E77809335
:1047F000E8000F900F900F90DF91CF911F910F91D4
:104800000895CF93DF9300D00F92CDB7DEB72091FC
:104810009902243031F522E02983805891099B8345
:104820008A8383E08093E9008FEF9091E8008150C4
:1048300095FD06C095ED9A95F1F700008111F5CF31
:104840008091E80085FF0DC050E040E063E070E03B
:10485000CE0101960E9455268091E8008E778093C4
:10486000E8000F900F900F90DF91CF910895CF93B4
:10487000DF93EC010E943826823011F08430F9F485
:1048800082E08093E9008FEF9091E800815095FDE0
:1048900006C095ED9A95F1F700008111F5CF809152
:1048A000E80085FF0CC050E040E065E070E0CE011C
:1048B0000E9455268091E8008E778093E800DF9172
:1048C000CF910895CF93DF93EC010E943826823078
:1048D00011F08430F9F480911B018823F1F080916C
:1048E000920287FF1AC084E08093E9008FEF9091D5
:1048F000E800815095FD06C095E19A95F1F700001A
:104900008111F5CF8091E80050E040E060E270E076
:1049100085FD1AC0DF91CF91089581E08093E90071
:104920008FEF9091E800815095FD06C095ED9A9526
:10493000F1F700008111F5CF8091E80085FFEACF03
:1049400050E040E068E070E0CE010E945526809182
:10495000E8008E778093E80080E2FE01A6E4B2E0F2
:1049600001900D928A95E1F7D5CF8091980281113F
:1049700009C00E94E3270E9440288091E2008460E1
:104980008093E20008951092980208950895089582
:104990000C94021F42E061EC81E00E94612742E03A
:1049A00061EC82E00E94612742E061EC83E00E94BA
:1049B000612742E261EC84E00C94612780919B02C4
:1049C000833009F455C030F4813071F1823009F43C
:1049D00091C008958A3009F47DC08B3009F463C01A
:1049E000893009F044C080919A02813209F03FC0B9
:1049F00080919E0290919F02009711F00397B9F564
:104A00008091E800877F8093E8008091E80082FF32
:104A10002AC08091F100809366028091E8008B7734
:104A20008093E8000C94952780919A02813AF9F4DA
:104A30008091E800877F8093E80080919E029091AA
:104A40009F02892B61F460E286E492E070E00E94AC
:104A5000A4268091E8008B778093E800089560E0B9
:104A600090E080E0F3CF809199028111CECF08953C
:104A700080919A02813AD9F780919E0290919F028B
:104A8000892BA9F78091E800877F8093E8008091C7
:104A9000E80080FFFCCF80911B018093F1008091A2
:104AA000E8008E77BDCF80919A02813201F7809124
:104AB0009E0290919F02892BD1F68091E800877F1A
:104AC0008093E8000E94952780919C0280931B01AF
:104AD0000C94AC1780919A02813249F68091E800DB
:104AE000877F8093E8000E94952780919D028093A4
:104AF0006702089580919A02813A09F0B8CF8091B7
:104B0000E800877F8093E8008091E80080FFFCCF79
:104B100080916702C2CF84B7877F84BF0FB6F894B5
:104B2000A895809160008861809360001092600079
:104B30000FBE80E880936100109261000E94A11274
:104B40000E94E3270E9440288091E20084608093C5
:104B5000E20078940E94C02A0E94A51281E191E0AF
:104B60000E944D1280919902853029F00E94AF1267
:104B70000E94DC11F7CF0E94B31E80919702882318
:104B800089F30E94EA1E882369F30E943F26EACF38
:104B90000C94CA25292F33272330310521F168F4DD
:104BA0002130310509F449C02230310509F44AC0E9
:104BB00090E080E030E020E029C02132310581F131
:104BC00022323105A9F76430710590F7FB01EE0F31
:104BD000FF1FEC5CFE4F20813181605D7E4FFB0149
:104BE000808190E013C099278130910599F000975A
:104BF00041F08230910589F00397D1F6E6EEF4E0BA
:104C000002C0E4E1F5E0849190E09F01FA01318374
:104C100020830895E2E0F5E0F6CFECEEF4E0F3CF88
:104C20006430710528F6660F771FFB01E45CFE4FC8
:104C30002081318189E090E0E9CF82E190E025E8B0
:104C400035E0E4CF8DE690E028E135E0DFCF089550
:104C5000CF93C82F0E942726C0936802CF91089552
:104C600080919902843011F482E0089581E00895E2
:104C700080916802811102C00C943026089580E171
:104C800089BD82E189BD09B400FEFDCF8091D800C5
:104C90008F7D8093D8008091E00082608093E00057
:104CA0008091E00081FDFCCF0895AF92BF92CF923A
:104CB000DF92FF920F931F93CF93DF936C01EB0171
:104CC0008A010E94B427F82E811123C00115110515
:104CD00039F0F80180819181C81BD90BC80ED91E0B
:104CE000B12CA12C2097A9F08091E80085FD22C06D
:104CF0008091E8008E778093E80001151105A1F0FE
:104D0000F80180819181A80EB91EB182A08285E050
:104D1000F82E8F2DDF91CF911F910F91FF90DF9093
:104D2000CF90BF90AF9008950E94B4278823D1F20E
:104D3000F82EEFCFF60181916F018093F10021975A
:104D4000FFEFAF1ABF0ACECFFC018091A002909175
:104D5000A10286179707A0F06115710529F49091BB
:104D6000E8009E779093E80090E06115710551F49A
:104D7000911108C08091E80082FF34C080E008955E
:104D8000BC01F2CF809199028823C1F18530C1F135
:104D90008091E80083FD30C08091E80082FDEACF79
:104DA0008091E80080FFE1CF8091F3002091F20034
:104DB000382F6115710519F02830310558F091E050
:104DC0002830310509F090E02091E8002E772093FB
:104DD000E800CBCF81918093F100615071092F5F82
:104DE0003F4FE7CF80919902882341F0853041F011
:104DF0008091E80083FFBECF81E0089582E00895AE
:104E000083E00895FC018091A0029091A102861791
:104E10009707A0F06115710529F48091E8008E775D
:104E20008093E80090E06115710551F4911108C07C
:104E30008091E80082FF35C080E00895BC01F2CF88
:104E4000809199028823C9F18530C9F18091E800E9
:104E500083FD31C08091E80082FDEACF8091E800B7
:104E600080FFE1CF8091F3002091F200382F61158F
:104E7000710519F02830310558F091E028303105DE
:104E800009F090E08091E8008E778093E800CBCF26
:104E900084918093F1003196615071092F5F3F4FEB
:104EA000E6CF80919902882341F0853041F08091CE
:104EB000E80083FFBDCF81E0089582E0089583E09C
:104EC0000895982F973028F08F708093E90081E043
:104ED00008959093E900242F762F50E0981731F031
:104EE0007091EC002091ED005091F00021FD02C086
:104EF0009F5FE8CF3091EB003E7F3093EB00309125
:104F0000ED003D7F3093ED003091EB003160309348
:104F1000EB007093EC002093ED005093F000209193
:104F2000EE0027FDE5CF80E0089580919A0287FF8B
:104F300013C08091E80082FF06C08091E8008B7763
:104F40008093E80004C0809199028111F2CF089506
:104F5000809199028823D9F38091E80080FFF8CFEF
:104F60008091E8008E77ECCF2091E4003091E5004D
:104F700085E6A9019091EC0090FF06C09091E800B1
:104F800090FF06C080E008959091E80092FDFACF6E
:104F900090919902992389F0953089F09091EB00D6
:104FA00095FD0FC02091E4003091E50042175307B2
:104FB00009F38150F1F684E0089582E0089583E0DA
:104FC000089581E008950E9451280E945928E0EE3A
:104FD000F0E0808181608083E8EDF0E080818F7770
:104FE000808319BCA7EDB0E08C918E7F8C9380817B
:104FF0008F7E80831092980208950F931F93CF9312
:10500000DF930E9451280E945928C8EDD0E0888182
:105010008F77888388818068888388818F7D888363
:1050200019BC109299021092950210929702109258
:10503000960200EE10E0F80180818B7F80838881EA
:105040008160888342E060E080E00E946127E1EEB9
:10505000F0E080818E7F8083E2EEF0E080818160ED
:105060008083808188608083F80180818E7F808347
:10507000888180618883DF91CF911F910F9108957E
:10508000E8EDF0E080818F7E8083E7EDF0E08081C5
:105090008160808384E082BF81E0809398020C94D9
:1050A000FD27E8EDF0E080818E7F80831092E200A2
:1050B00008951092DA001092E10008951F920F9265
:1050C0000FB60F9211242F933F934F935F936F93DB
:1050D0007F938F939F93AF93BF93EF93FF938091B1
:1050E000E10082FF0BC08091E20082FF07C0809147
:1050F000E1008B7F8093E1000E94BF2A8091DA005B
:1051000080FF19C08091D80080FF15C08091DA001F
:105110008E7F8093DA008091D90080FF94C080E177
:1051200089BD82E189BD09B400FEFDCF81E0809395
:1051300099020E94B5248091E10080FF19C08091FE
:10514000E20080FF15C08091E2008E7F8093E20034
:105150008091E20080618093E2008091D8008062BB
:105160008093D80019BC85E0809399020E94C724DF
:105170008091E10084FF29C08091E20084FF25C076
:1051800080E189BD82E189BD09B400FEFDCF809137
:10519000D8008F7D8093D8008091E1008F7E80932E
:1051A000E1008091E2008F7E8093E2008091E20036
:1051B00081608093E20080919502882309F449C0C0
:1051C00084E0809399020E94C8248091E10083FFCB
:1051D00029C08091E20083FF25C08091E100877F94
:1051E0008093E10082E08093990210929502809171
:1051F000E1008E7F8093E1008091E2008E7F8093BA
:10520000E2008091E20080618093E20042E060E091
:1052100080E00E9461278091F00088608093F00018
:105220000E94C624FF91EF91BF91AF919F918F9102
:105230007F916F915F914F913F912F910F900FBE92
:105240000F901F90189519BC109299020E94C324C8
:1052500072CF8091E30087FD02C081E0B2CF83E08E
:10526000B0CF1F920F920FB60F9211242F933F933E
:105270004F935F936F937F938F939F93AF93BF935E
:10528000CF93EF93FF93C091E900CF708091EC0032
:105290001092E9008091F000877F8093F00078946D
:1052A0000E946D291092E9008091F000886080933F
:1052B000F000C093E900FF91EF91CF91BF91AF91C2
:1052C0009F918F917F916F915F914F913F912F911E
:1052D0000F900FBE0F901F9018951F93CF93DF93E1
:1052E000CDB7DEB7AA970FB6F894DEBF0FBECDBF1D
:1052F0008AE992E02091F100FC012193CF01F2E0D4
:10530000823A9F07B9F70E94DE248091E80083FF6C
:105310001EC180919A0290919B029A3008F017C1A9
:10532000E92FF0E0EF54F04D0C947F2E803899F087
:10533000823809F00CC180919E028F70873008F08E
:1053400006C18093E9008091EB0085FB882780F9F6
:105350001092E90006C080919602909197029111F7
:1053600082609091E800977F9093E8008093F1002D
:105370001092F1008091E8008E77E5C0882309F44F
:10538000D3C0823009F0E3C080919C028111D6C065
:1053900080919E028F702FEF280F263008F0D7C023
:1053A0008093E9002091EB0020FFC8C0933031F4D6
:1053B0008091EB0080628093EB00C0C09091EB0085
:1053C00090619093EB0021E030E001C0220F8A95BC
:1053D000EAF72093EA001092EA008091EB008860DF
:1053E000EACF8111B4C010919C021F778091E30035
:1053F0008078812B8093E3008091E800877F809301
:10540000E8000E9495278091E80080FFFCCF809102
:10541000E30080688093E30082E0111183E08093D1
:10542000990295C08058823008F091C080919C020A
:1054300090919D028C3D23E09207A1F583E08A8341
:105440008AE289834FB7F894DE01139620E03EE0AC
:1054500051E2E32FF0E050935700E49120FF03C0A6
:10546000E295EF703F5FEF708E2F90E0EA30C0F072
:10547000C7968D939D932F5F243159F74FBF80912D
:10548000E800877F8093E8006AE270E0CE01019631
:105490000E94A4268091E8008B778093E80057C093
:1054A000C096E7CF60919E0270919F02AE014F5F60
:1054B0005F4F0E94C825BC01892B09F448C0909118
:1054C000E800977F9093E80089819A810E940227E3
:1054D000E1CF8038E1F58091E800877F8093E80094
:1054E000809195028093F10045CF811130C0909159
:1054F0009C02923060F58091E800877F8093E800FD
:10550000909395020E94952780919502882311F02F
:1055100084E005C08091E30087FDFACF81E08093AD
:1055200099020E94CA2413C080919C02813079F4B0
:1055300081E0933009F080E0809397021092E900B7
:105540008091E800877F8093E8000E9495278091F2
:10555000E80083FF0AC08091E800877F8093E8001D
:105560008091EB0080628093EB00AA960FB6F894CE
:10557000DEBF0FBECDBFDF91CF911F91089508957B
:10558000CF9380919902882399F0C091E900CF7060
:105590008091EC0080FD0EC080E0C82B1092E900E5
:1055A0008091E80083FD0E946D29CF70C093E900CF
:1055B000CF91089580E8F1CF5058BB27AA270E94C9
:1055C000F42A0C949F2C0E94912C38F00E94982C65
:1055D00020F039F49F3F19F426F40C94672C0EF454
:1055E000E095E7FB0C94612CE92F0E94B02C58F356
:1055F000BA17620773078407950720F079F4A6F5B8
:105600000C94D22C0EF4E0950B2EBA2FA02D0B018A
:10561000B90190010C01CA01A0011124FF27591BF7
:1056200099F0593F50F4503E68F11A16F040A22FFD
:10563000232F342F4427585FF3CF4695379527956E
:10564000A795F0405395C9F77EF41F16BA0B620B6D
:10565000730B840BBAF09150A1F0FF0FBB1F661FB4
:10566000771F881FC2F70EC0BA0F621F731F841FF7
:1056700048F4879577956795B795F7959E3F08F01D
:10568000B0CF9395880F08F09927EE0F97958795DF
:1056900008950E945D2B0C949F2C0E94982C58F02A
:1056A0000E94912C40F029F45F3F29F00C94612C6A
:1056B00051110C94D32C0C94672C0E94B02C68F3DD
:1056C0009923B1F3552391F3951B550BBB27AA27BB
:1056D00062177307840738F09F5F5F4F220F331FF5
:1056E000441FAA1FA9F335D00E2E3AF0E0E832D0BD
:1056F00091505040E695001CCAF72BD0FE2F29D0C0
:10570000660F771F881FBB1F261737074807AB0791
:10571000B0E809F0BB0B802DBF01FF2793585F4F06
:105720003AF09E3F510578F00C94612C0C94D32CE8
:105730005F3FE4F3983ED4F3869577956795B795E8
:10574000F7959F5FC9F7880F911D9695879597F9F3
:105750000895E1E0660F771F881FBB1F621773076C
:105760008407BA0720F0621B730B840BBA0BEE1F81
:1057700088F7E095089529F416F00C94612C0C94A8
:10578000D22C0C94672C0E94B82CA8F39638A0F762
:1057900007F80F92E8942BE33AEA48EB5FE70E94A0
:1057A000652D0F920F920F924DB75EB70F920E9428
:1057B0001B2DECEAF0E00E946A2C4F915F91EF9173
:1057C000FF91E595EE1FFF1F49F0FE57E068442763
:1057D000EE0F441FFA95E1F74195550B0E94E52C19
:1057E0000F9007FE0C94D92C08950E94B82C88F0D5
:1057F0009F5798F0B92F9927B751B0F0E1F0660F95
:10580000771F881F991F1AF0BA95C9F714C0B130D5
:1058100091F00E94D22CB1E008950C94D22C672F05
:10582000782F8827B85F39F0B93FCCF38695779504
:105830006795B395D9F73EF49095809570956195ED
:105840007F4F8F4F9F4F0895E89409C097FB3EF418
:1058500090958095709561957F4F8F4F9F4F9923BD
:10586000A9F0F92F96E9BB279395F695879577953B
:105870006795B795F111F8CFFAF4BB0F11F460FFFB
:105880001BC06F5F7F4F8F4F9F4F16C0882311F053
:1058900096E911C0772321F09EE8872F762F05C067
:1058A000662371F096E8862F70E060E02AF09A9502
:1058B000660F771F881FDAF7880F9695879597F9F7
:1058C000089597F99F6780E870E060E008959FEF82
:1058D00080EC0895DF93CF931F930F93FF92EF9285
:1058E000DF927B018C01689406C0DA2EEF010E94E2
:1058F000622DFE01E894A591259135914591559130
:10590000A6F3EF010E94F42AFE019701A801DA94A0
:1059100069F7DF90EF90FF900F911F91CF91DF918A
:10592000089500240A941616170618060906089505
:1059300000240A9412161306140605060895092E6B
:105940000394000C11F4882352F0BB0F40F4BF2BDA
:1059500011F460FF04C06F5F7F4F8F4F9F4F08951A
:1059600057FD9058440F551F59F05F3F71F0479510
:10597000880F97FB991F61F09F3F79F087950895F5
:10598000121613061406551FF2CF4695F1DF08C014
:10599000161617061806991FF1CF86957105610531
:1059A00008940895E894BB2766277727CB0197F9D9
:1059B00008959B01AC0160E070E080E89FE30C94E7
:1059C000492B0C94612C0C94C42D0E94B82CD8F354
:1059D0009923C9F3940F511DA3F39150504094F0B3
:1059E00059F0882332F0660F771F881F915050407E
:1059F000C1F79E3F51052CF7880F911D969587950D
:105A000097F908955F3FACF0983E9CF0BB278695D0
:105A100077956795B79508F4B1609395C1F7BB0F7B
:105A200058F711F460FFE8CF6F5F7F4F8F4F9F4FA4
:105A3000E3CF0C94D32CFA01DC01AA0FBB1F9B010E
:105A4000AC01BF5728F4222733274427507820C0C1
:105A5000B75190F4AB2F0024469537952795011C3C
:105A6000A395D2F3002071F0220F331F441FB3958A
:105A7000DAF30ED00C94DC2A61307105A0E88A07B5
:105A8000B94630F49B01AC016627772788279078C8
:105A9000309621F0208331834283538308950E94FE
:105AA000622D0C949F2C0E94912C38F00E94982C0F
:105AB00020F0952311F00C94612C0C94672C112488
:105AC0000C94D32C0E94B02C70F3959FC1F3950FCA
:105AD00050E0551F629FF001729FBB27F00DB11D72
