:100000000C944A030C9491030C9491030C94910367
:100010000C9491030C9491030C9491030C94910310
:100020000C9491030C9491030C94F9270C94CC2814
:100030000C94AB1E0C9491030C9491030C949103BB
:100040000C9491030C9491030C9491030C949103E0
:100050000C9414070C94111F0C9491030C949103AD
:100060000C9491030C9491030C9491030C949103C0
:100070000C9491030C9491030C9491030C949103B0
:100080000C9491030C9491030C9491030C949103A0
:100090000C9491030C9491030C9491030C94910390
:1000A0000C9491030C9491030C94910307634236D2
:1000B000B79BD8A71A39685618AEBAAB558C1D3CF9
:1000C000B7CC5763BD6DEDFD753EF6177231BF00BD
:1000D0000000803F05A84CCDB2D44EB93836A902F5
:1000E0000C50B9918688083CA6AAAA2ABE00000036
:1000F000803F155C1E001F0020002100220023000D
:1001000024002500260027002D002E0000002A00D4
:100110002B0014001A000800150017001C0018001E
:100120000C00120013002F00300031000000E3002B
:1001300004001600070009000A000B000D000E0065
:100140000F0033003400000028000000E100000030
:100150001D001B00060019000500110010003600EC
:10016000370038000000E5000000E000E300E20096
:100170000000000000002C42000000000000E6002B
:1001800002510351E40000000100010001000100E0
:100190000100010001000100010001000100010057
:1001A0000100010001000100010001000100010047
:1001B0000100010001000100010001000100010037
:1001C0000100000001000100010001000100010028
:1001D0000100010001000100010001000100010017
:1001E0000000010001000100010001000100010008
:1001F00001000100010001000100000001000100F8
:100200000100010001000000000000002C000000BF
:100210000000000001000251035101000000350000
:100220003A003B003C003D003E003F0040004100E2
:10023000420043004400450000004C000000F40070
:10024000F000F50000000000000000005200000077
:10025000460047004800000000003900F200F100AD
:10026000F300000000000000500051004F000000AB
:10027000000000000000000001000000AC00AE0023
:10028000AB00A900AA000000000000000000000070
:10029000000001000000010001000100000000005A
:1002A00000000153000000000000010000000000F9
:1002B000010000000000000000000000000000003D
:1002C000000000000000000000000000000000002E
:1002D00000000000CB5CCC5CCD5CCE5CCF5CD05C25
:1002E000D35C0000000000000000000000000000DF
:1002F000010000000000C75CC85C000000000000B6
:1003000000000000000000000000000000000100EC
:100310000000C05CC15CC35CC45CC55CC65CBF5C07
:10032000BB5CBD5CBC5C0000010000000100010082
:1003300001000000000000000000000000000000BC
:1003400001000000000001000000000000000000AB
:10035000000000000001010203040506080A0C0F5A
:100360001114181C2024292E33393F464C535B624C
:100370006A7179818A929AA2AAB2B9C1C8CFD5DC32
:10038000E1E7EBF0F4F7FAFCFDFEFFFEFDFCFAF707
:10039000F4F0EBE7E1DCD5CFC8C1B9B2AAA29A92DA
:1003A0008A8179716A625B534C463F39332E292426
:1003B000201C1814110F0C0A080605040302010181
:1003C0000000000000000000000000046801F000D0
:1003D000B40078005A007F3F1F64321464321478EE
:1003E0003C1E1E140A05000000000001010101016D
:1003F00001010101020202020202020202030303DE
:1004000003030303030404040404040505050505AC
:100410000606060606070707070808080809090967
:100420000A0A0A0A0B0B0B0C0C0C0D0D0D0E0E0F0D
:100430000F0F101011111112121313141415151699
:10044000161717181819191A1A1B1C1C1D1D1E1F08
:100450001F20202122222324252526272728292A58
:100460002B2B2C2D2E2F2F3031323334353636377F
:1004700038393A3B3C3D3E3F404142434446474881
:10048000494A4B4C4D4F50515253555657585A5B51
:100490005C5E5F606263646667696A6C6D6E7071F2
:1004A00073747678797B7C7E8081838486888A8B5E
:1004B0008D8F91929496989A9B9D9FA1A3A5A7A991
:1004C000ABADAFB1B3B5B7B9BBBDBFC1C4C6C8CA88
:1004D000CCCFD1D3D6D8DADCDFE1E4E6E8EBEDF03F
:1004E000F2F5F7FAFCFF0403300000001403530098
:1004F000360030002D0058002D0052004700420009
:1005000000001003530065006E007400720061006B
:10051000710000000403090409026D00040100A039
:10052000FA09040000010301010009211101000181
:100530002240000705810308000A090401000103A5
:10054000010200092111010001224D00070582036B
:1005500008000A090402000103000000092111013A
:1005600000012236000705830308000A090403007E
:1005700001030000000921110100012239000705D3
:1005800084032000011201100100000008EDFE604C
:100590006001000102030105010906A10105071917
:1005A000E029E71500250195087501810205081964
:1005B00001290595057501910295017503910105C4
:1005C00007190029F71500250195F875018102C06A
:1005D00005010980A10185021601002603001A8188
:1005E000002A8300751095018100C0050C0901A146
:1005F000018503160100269C021A01002A9C02753F
:100600001095018100C005010902A1010901A100A5
:1006100005091901290515002501950575018102B6
:100620009501750381010501093009311581257F87
:1006300095027508810609381581257F9501750891
:100640008106050C0A38021581257F950175088100
:1006500006C0C005010906A101050719E029E71533
:100660000025019508750181029501750881010534
:1006700008190129059505750191029501750391E8
:10068000010507190029FF150026FF0095067508CA
:100690008100C00011241FBECFEFDAE0DEBFCDBF66
:1006A00004B603FE27C08091980290919902A09110
:1006B0009A02B0919B028730904BA740B04BD1F487
:1006C000109298021092990210929A0210929B0234
:1006D00014BE84B7877F84BF0FB6F894A895809125
:1006E0006000886180936000109260000FBEE0E0BF
:1006F000F8E3099511E0A0E0B1E0E6EAFDE502C00B
:1007000005900D92AE33B107D9F722E0AEE3B1E028
:1007100001C01D92A839B207E1F70E9426250C946A
:10072000822E0C9400000E9450040E945B238111D1
:1007300003C085E00C943F230895CF93DF93EB0132
:100740008D32910531F08E97C1F081E0DF91CF912C
:1007500008950E943E1D85FFF8CF0E943E1D81FF37
:10076000F4CF8A81882389F30E94D00E80E00E9412
:100770003F230E947A1D80E0E9CF0E943E1D85FF45
:10078000E4CF0E943E1D81FFE0CF8A818823E9F2F9
:1007900080E00E943F230E940F04EDCFCF92DF92B2
:1007A000EF92FF928C3724E1920750F469E070E0F9
:1007B0000E94D02DCB01FF90EF90DF90CF90089555
:1007C000B0E0A0E0BC01CD016A50774D8F4F9F4F44
:1007D000982F872F762F662725EF38E241E050E0EB
:1007E0000E94F82D69017A01CA01B9010E94C02D49
:1007F0009B01AC01C701B6010E94C02D672F782F65
:10080000892F99276115710521E08207910591F6DD
:100810006FEF7FEFCFCF81E008950C949D030E948E
:1008200047172FEF84E39CE0215080409040E1F790
:1008300000C000000C94351F0C947E0A8630D8F45A
:1008400081111AC090918000977F90938000282F8B
:1008500030E0AFEFBFEF0E94202E25E030E040E017
:1008600050E00E94F82DC9010E94CE0390938D00A4
:1008700080938C00089585E0909180009860E5CF8A
:1008800080916F008170089510923F0110923E0197
:1008900010924001EFE6F0E080818160808308954E
:1008A000EFE6F0E080818E7F80830E945B230C94D2
:1008B0001E040E94400481110C9450040C944404C2
:1008C000FF920F931F93CF93DF938C01FC01C081A4
:1008D000D18180919901811150C08281882309F4CE
:1008E00047C0CE010E94571CF82E682FCE010E94EF
:1008F000031CBE018F2D0E94A007EC01B8010E94CD
:100900000D04882309F410C1B801CE010E942C0AFD
:10091000882309F409C1C93CFCE5DF0709F444C197
:1009200008F071C0C13C9CE5D90709F415C108F075
:1009300048C0C531FCE5DF0728F5C2308CE5D80793
:1009400008F0B2C1C1159CE5D90709F4E8C0C1306F
:10095000DC4509F4F0C081E08093460180934701B3
:10096000C801DF91CF911F910F91FF900C940B0460
:10097000CE010E942F1CF82EBCCFCE010E94571C26
:10098000BE01B9CFCF3BFCE5DF0709F445C208F053
:10099000DCC0C531DC45F9F60E943E1DF8019281AC
:1009A000992309F42FC28A7A91E009F490E0909398
:1009B0004101811125C289E20E94C71C0E940B1DC2
:1009C000B3C0F8018281C53CFCE5DF0709F4DDC056
:1009D00068F4C33CECE5DE0709F4D2C008F4C7C0F4
:1009E000882309F4A1C00E94A40D9EC0C73C9CE5C9
:1009F000D90709F4D4C008F4CDC0882309F494C001
:100A00000E940B0E91C0C13DFCE5DF0709F41CC13B
:100A1000F0F5F8018281CD3CFCE5DF0709F4D9C08F
:100A2000D8F4CB3CECE5DE0709F4CCC008F4C4C034
:100A3000882309F479C00E94500C62307105810549
:100A4000910540F00E94500C6530710581059105BB
:100A500008F493C082E0BAC0CF3C9CE5D90709F402
:100A6000DFC008F4C9C0882309F45EC00E94500C9E
:100A7000653171058105910540F00E94500C673188
:100A800071058105910508F478C085E19FC0C53DD9
:100A9000FCE5DF0709F491C1C0F4F8018281C33D90
:100AA000FCE5DF0709F4EBC008F4D5C0882309F49E
:100AB0006DC1109246010E94DB1E9093430180930A
:100AC000420182E00E947E142FC0C93DECE5DE07A2
:100AD00009F4DAC0CA3DFCE5DF0709F4DEC0C63D13
:100AE000DC4509F038CFF801828181116AC180911B
:100AF0004701811183C180914401909145010E9479
:100B0000E71E883C910508F079C180E20E948514B7
:100B100088E20E94381388E20E942F1405C0F80171
:100B2000828181110E940F0480E0DF91CF911F919B
:100B30000F91FF900895F80182818823A9F3809195
:100B40003102816080933102EFCFF80182818823E6
:100B500059F30E94E80EE8CFF8018281882321F33F
:100B60000E943E1D827249F00E947E0EDDCF8823D6
:100B7000D9F20E943E1D8272B9F30E94740ED4CF46
:100B8000882391F20E948C0DCFCF882369F20E94B6
:100B9000C30DCACF882341F20E94DB0DC5CF882345
:100BA00019F20E94F30DC0CFF8018281882309F465
:100BB000BBCF0E945E0CB8CF882309F4B5CF0E944A
:100BC000730CB2CF882309F4AFCF81E00E94710E7D
:100BD000ABCF882309F4A8CF0E94500C6630710572
:100BE0008105910538F00E94500C6830710581052F
:100BF000910518F286E0EACF882309F495CF0E9488
:100C0000500C693071058105910540F00E94500C2F
:100C10006E3071058105910508F4AFCF89E0D6CF1C
:100C2000882309F481CF0E94500C6F307105810533
:100C3000910540F00E94500C6431710581059105C9
:100C400008F49BCF8FE0C2CFF8018281882309F49A
:100C50006BCF88E1BBCF882309F466CF0E94500C8C
:100C6000693171058105910540F00E94500C623296
:100C700071058105910508F480CF89E1A7CF88230C
:100C800009F452CF83E2A2CFF8018281882309F4CC
:100C90004BCF80E00E94C32547CFF8018281882393
:100CA00009F442CF82E0F6CFF8018281882309F46B
:100CB00057CE0E94A01D811102C00E947A1D0E9481
:100CC000BD1D90E09093890280938802FE01E3505D
:100CD000FC45809188028160E231F10538F4EC57DF
:100CE000F14D0C941A2E80918802826080938802C4
:100CF000809188020E94C11D0E94471715CF8091E4
:100D000088028460F3CF809188028860EFCF809161
:100D100088028061EBCF809188028062E7CF80916A
:100D200088028064E3CF809188028068DFCF809161
:100D300088028C60DBCF809188028E7FD7CF809134
:100D400088028D7FD3CF809188028B7FCFCF809117
:100D50008802877FCBCF809188028F7EC7CF80911A
:100D600088028F7DC3CF809188028F7BBFCF809117
:100D700088028F77BBCF80918802837FB7CF909115
:100D80008802892F97FB87F98058B0CF8091460160
:100D900081110FC080914201909143010E94E71E92
:100DA000883C910530F486E20E94381386E20E9466
:100DB0002F1482E00E948514B7CEF8018281882327
:100DC00051F0109247010E94DB1E909345018093E1
:100DD000440180E277CE8091470181110FC080915C
:100DE0004401909145010E94E71E883C910530F432
:100DF00087E20E94381387E20E942F1480E2DACF44
:100E000085E3DACD80914101811104C089E20E941D
:100E1000CE1CD4CD85E3FBCFF8018281882309F471
:100E200083CE0E94590480CE1F920F920FB60F926C
:100E300011242F933F934F935F936F937F938F93DF
:100E40009F93AF93BF93CF93EF93FF9320910001B4
:100E500080913E0190913F01019644EF249F9001C3
:100E60001124B9010E94D02D90933F0180933E013F
:100E7000B901660F672F661F770B71950E94D02D01
:100E80006F7780914001823041F4603451F4809159
:100E90006F008E7F80936F0004C0813011F46F3734
:100EA000B1F3E62FF0E0E65BFC4FC4910E945B23B8
:100EB000282F41E051E0C49FC001C59F900D11242F
:100EC00065E070E00E94D02D269FC001279F900D05
:100ED00011240E94CE0390938D0080938C00FF918B
:100EE000EF91CF91BF91AF919F918F917F916F9132
:100EF0005F914F913F912F910F900FBE0F901F90D8
:100F00001895279A2F988AE08093800089E1809332
:100F100081008FEF9FEF90938700809386000E945F
:100F2000B8220C9444040E9481070C947B0A089513
:100F30000C9497070C94980790E080E0089508952A
:100F4000972F70E02FE0929F600D711D1124FB011F
:100F50009BE4899FE00DF11D1124EE0FFF1FEE5061
:100F6000FF4F859194910895FC01EE0FFF1FE6530A
:100F7000FC4F859194910895CF93DF930E94A00731
:100F80000E948D09EC01811521E5920708F049C006
:100F9000811530E5930708F021C1883E910508F5D9
:100FA000803E910570F5883A910570F4853A910577
:100FB00008F0A7C08130910521F1009711F1049745
:100FC00000F5D0E0C0E01DC08D3B910508F4A4C041
:100FD000805C9109C03CD105A0F30E94B407EC01EC
:100FE00010C08115904388F4C11580E2D80708F03D
:100FF000ECC0C03FD10528F3CF3FD10509F008F47C
:10100000E2C0CE01DF91CF910895C11590E4D907D8
:1010100008F0E1C0CE019927D3FFDAC0EC01D86C0B
:10102000F0CF811529E5920740F5811538E5930742
:1010300008F01AC1811544E5940778F4C11583E5D9
:10104000D80708F0F8C0C11592E5D90708F0E2C04A
:10105000DC2FCC27C16FD06AD4CF811525E592074C
:1010600008F4FDC0811536E5930708F0AACFD82F04
:10107000CC27CC27DF71D062C4CF8B3B9C4509F4D1
:10108000F8C0CC3B8CE5D807B8F4C93B9CE5D90740
:1010900009F4F2C008F0F3C0C1153AE5D30708F02F
:1010A00090CFCE0134E0969587953A95E1F78F7011
:1010B000CF70C06ED82F90C0CE3B4CE5D40709F45A
:1010C000E1C060F4CC3B9CE5D90709F4DEC0CD3B20
:1010D000DC4509F076CFC0E0D2ED93CFCE0190563B
:1010E0008115904208F06DCF8D2F8F710E94080AF4
:1010F00090E0982F882788279F719C012C2BE9016D
:10110000BACF853A910509F4C3C0863A910509F032
:10111000C2C0C2E8D0E475CF883A910509F4BEC0D8
:10112000893A910509F4BDC08A3A910509F4BCC019
:101130008B3A910509F4BBC08C3A910509F4BAC009
:101140008B3B910509F4B9C08C3B910509F4B8C0FB
:101150008D3A910509F4B7C0803B910509F4B6C0FA
:101160008E3A910509F4B5C08F3A910509F4B4C0DF
:10117000813B910509F4B3C0823B910509F4B2C0EB
:10118000833B910509F4B1C0843B910509F4B0C0DB
:10119000853B910509F4AFC0863B910509F4AEC0CB
:1011A000873B910509F4ADC0883B910509F4ACC0BB
:1011B000893B910509F4ABC08A3B910509F4AAC0AB
:1011C000C0E0D4E41ECFD0651CCFCE019F7005CF08
:1011D000EC01D06C16CFDF70D06A13CFE4E09695A7
:1011E0008795EA95E1F783702C2F26952695237035
:1011F00040E2249F90011124382B8C2F8370C1E092
:10120000D0E002C0CC0FDD1F8A95E2F7C22BD32BB2
:10121000DC68F7CECE018370992721E030E002C070
:10122000220F331F8A95E2F7C695C69580E2C89FC4
:10123000E0011124EBCFCE018370992721E030E04B
:1012400002C0220F331F8A95E2F7C695C69590E239
:10125000C99FE0011124C22BD32BDA68D2CED82F3C
:10126000CC27C46FD06ACDCED82FCC27C06FD06A20
:10127000C8CEC0E0D1EDC5CEC0E0D4EDC2CEC0E056
:10128000D5EDBFCEC0E0D3EDBCCEC0E0D0EDB9CE41
:10129000C1E8D0E4B6CEC3E8D0E4B3CEC2EED4E425
:1012A000B0CEC9EED4E4ADCECAEED4E4AACEC5EB3E
:1012B000D4E4A7CEC6EBD4E4A4CEC3EBD4E4A1CE51
:1012C000C4EBD4E49ECEC7EBD4E49BCECCECD4E408
:1012D00098CECDECD4E495CEC3E8D5E492CECAE85E
:1012E000D5E48FCEC2E9D5E48CCEC4E9D5E489CE6D
:1012F000C1E2D6E486CEC3E2D6E483CEC4E2D6E42D
:1013000080CEC5E2D6E47DCEC6E2D6E47ACEC7E290
:10131000D6E477CECAE2D6E474CE8238910549F19C
:10132000B0F48133910509F462C048F48932910523
:1013300009F456C08A32910509F460C008958533D6
:10134000910509F446C08933910599F00895833ECB
:10135000910531F138F4803E910591F0823E91057E
:10136000B1F00895863E910521F1873E910551F136
:101370000895209188022370D9F080EE90E00895BE
:101380002091880220FF14C089E390E00895209105
:10139000880222FF0DC024FD09C083EE90E008956D
:1013A0002091880222FD31C024FF02C090E080E03D
:1013B00008952091880223FFFBCF24FDF7CF87EE0D
:1013C00090E008952091880223FFEECF86EE90E012
:1013D00008952091880225FFEBCF89E290E00895DF
:1013E0002091880225FFE4CF85E390E008952091C5
:1013F000880226FFDDCF8AE290E0089520918802DE
:1014000026FFD6CF81E390E0089582EE90E0089524
:101410009091880292FF06C0282F2871283069F425
:10142000877F846093FF06C0282F2871283161F4DC
:10143000877E846194FD877E0895282F247124304F
:1014400089F78B7F8860EECF282F2471243191F7A4
:101450008B7E8861EFCF08950F931F93CF938C01FC
:10146000FB018281811106C0C1E08C2FCF911F91B9
:101470000F910895C0915501C11125C006311C4539
:1014800099F70E942B0A81E0809355010E94DB1E90
:1014900090935401809353011092480110924A0195
:1014A0001092490110924C0110924B0110924E0182
:1014B00010924D011092500110924F011092520162
:1014C00010925101D2CF80915301909154010E940A
:1014D000E71E8C32914040F680914801E82FF0E001
:1014E000EE0FFF1FE75BFE4F118300838F5F80933A
:1014F0004801C0E0BACF0C94930308950C947D0A80
:10150000CF93DF9385B7806885BF85B7806885BF37
:10151000A5E2B1E04AE251E0C1E0D0E08D91E82FD0
:10152000E295EF70F0E061A18F709E0101C0220F83
:101530008A95EAF7922F9095962391A382A1822B08
:1015400082A34A175B0751F7A6E1B1E061E070E0C2
:101550008D91E82FE295EF70F0E041A18F709B0133
:1015600001C0220F8A95EAF7922F9095942391A3B8
:1015700082A1822B82A381E0A532B80749F710929D
:101580006101109260011092570110925601109261
:101590006301109262011092590110925801109249
:1015A00065011092640110925B0110925A01109231
:1015B00067011092660110925D0110925C01109219
:1015C00069011092680110925F0110925E01DF9133
:1015D000CF910C9493074F925F927F928F929F923C
:1015E000AF92BF92CF92DF92EF92FF920F931F9331
:1015F000CF93DF9396E5492E91E0592E25E2E22E16
:1016000021E0F22E01E010E099249394E201A990E8
:10161000B9902E01DE011E921E92F70181917F0189
:10162000E82FE295EF70F0E091A18F70980101C072
:10163000220F8A95EAF7892F822B81A382A1822E1D
:101640008094882182A380EA8A95F1F786E1C82EEA
:1016500081E0D82E90E080E0E60179916E01472F7D
:1016600042954F7050E0EA0178A04D915C9111973E
:101670007F70E80102C0CC0FDD1F7A95E2F7BE0152
:10168000672109F072C0B801082E02C0660F771FEB
:101690000A94E2F7462B572B11965C934E930196D2
:1016A0008F309105C9F681A1882281A282A1282BC1
:1016B00022A38D919C91A816B90641F090926A01DF
:1016C0000E94DB1E90936C0180936B01D0E64D1657
:1016D000D1E05D0609F09ACF80916A01882391F1EB
:1016E00080916B0190916C010E94E71E069750F16A
:1016F0008091560190915701909361018093600110
:1017000080915801909159019093630180936201F7
:1017100080915A0190915B019093650180936401DF
:1017200080915C0190915D019093670180936601C7
:1017300080915E0190915F019093690180936801AF
:1017400010926A010E941C0481E0DF91CF911F91E9
:101750000F91FF90EF90DF90CF90BF90AF909F9050
:101760008F907F905F904F90089570E060E092CFEF
:10177000E82FF0E0EE0FFF1FE05AFE4F80819181CD
:1017800008950895CF92DF92EF92FF920F931F93E7
:10179000CF93DF93E901662309F466C0E42EF12CB0
:1017A000EFEFF0E0E61BF109EE9D8001EF9D100DDB
:1017B000FE9D100D1124212FE12FFF27EE1AFF0AA5
:1017C0005CE3C52ED12CB6010E94D02DFB01BC01DB
:1017D000E69EC001E79E900DF69E900D1124B60185
:1017E0000E94D02DE230F10589F168F4812F262F77
:1017F000210F309781F0242F461B319761F080E054
:1018000020E040E008C0E430F10551F128F1842FD8
:10181000861B3597A1F7E42FF0E0EA51FC4F449185
:10182000E22FF0E0EA51FC4F9491E82FF0E0EA510A
:10183000FC4FE49149839883EA83DF91CF911F9114
:101840000F91FF90EF90DF90CF900895862F810F3A
:10185000E42F412F2E2FDFCFE42FE61B842FF9CF6B
:10186000842F462F410FD7CF842F242FD4CF88E049
:1018700090E00C94422EAB01BC0188E090E00C9407
:10188000602EEFE5F2E083E0808311828FEF8283A8
:101890008383148260817181828193810C943B0CDB
:1018A00060915F0260FF06C066956F7370E090E024
:1018B00080E0089560E070E0CB01089580916302BC
:1018C00090E001968430910514F083E090E08093DD
:1018D000630260915F027091600280916102909159
:1018E00062020C943B0C809163028150990B97FF2C
:1018F00002C090E080E08430910514F083E090E035
:101900008093630260915F02709160028091610236
:10191000909162020C943B0C80915F02E4E6F2E04D
:1019200080FF06C06AE070E084E692E00C94E51166
:10193000118210821282339682E0E238F807C1F7F2
:10194000F1CF90915F0290FF0CC0E4E6F2E081835A
:1019500060834283339692E0E238F907C1F70C9432
:101960008C0C0895CF93DF9300D00F92CDB7DEB7E4
:1019700020915F0220FF0AC09E012F5F3F4F0E940F
:10198000C20B4B8169818A810E94A10C0F900F903C
:101990000F90DF91CF9108953F924F925F926F9297
:1019A0007F928F929F92AF92BF92CF92DF92EF92EF
:1019B000FF920F931F93CF93DF9300D00F92CDB779
:1019C000DEB78C01462E542E322E80915F0280FFAE
:1019D00030C0982F9E77923009F040C09E012F5F53
:1019E0003F4FC8010E94C20B4B8169818A810E94CE
:1019F000A10C80915F0200FB87F980935F02902F1A
:101A00009695809160028078892B10FB87F98093EE
:101A100060024092610250926202332051F0609164
:101A20005F027091600280916102909162020E9457
:101A30003B0C0F900F900F90DF91CF911F910F9162
:101A4000FF90EF90DF90CF90BF90AF909F908F90DE
:101A50007F906F905F904F903F900895E82FE695AC
:101A6000EF739EE39E0F9F73943018F450906202C0
:101A7000C0CF9AE39E0F9F73993068F4881F882720
:101A8000881F90916002292F220F022F082B97FBAD
:101A9000112710F9AECF87E28E0F8F738A3008F0CE
:101AA000A8CFE951FF0B21E0E0FD2FEFEE7FE453DB
:101AB000FC4F859194916AE070E00E94D02D26033E
:101AC0003001279F700C1124680188E9C81A8EEF35
:101AD000D80A84E6E82E82E0F82E92E8A92E92E059
:101AE000B92E28E6822E99249394C601B4010E944F
:101AF000D02D9701452D642D0E94C20BC60CD71C1A
:101B000083E0E80EF11CAE14BF0479F70E948C0C40
:101B100070CF21E00C94CC0CEFE5F2E02081221F85
:101B20002227221F30916002432F440F842F822BE3
:101B300037FB992790F9089668E671E00E94E42D3A
:101B4000438162810C94890D20915F02221F22271C
:101B5000221F30916002432F440F842F822B37FBCA
:101B6000992790F98830910540F4805A9E4F409112
:101B70006202609161020C94890D089768E671E039
:101B80000E94E42DF4CF60916102683F90F4685F99
:101B900080915F02881F8827881F90916002292FFB
:101BA000220F97FB992790F940916202822B0C94A7
:101BB000890D6FEFEDCF60916102683090F0685051
:101BC00080915F02881F8827881F90916002292FCB
:101BD000220F97FB992790F940916202822B0C9477
:101BE000890D60E0EDCF40916202483F90F4485F7C
:101BF00080915F02881F8827881F90916002292F9B
:101C0000220F97FB992790F960916102822B0C9427
:101C1000890D4FEFEDCF40916202483090F048506F
:101C200080915F02881F8827881F90916002292F6A
:101C3000220F97FB992790F960916102822B0C94F7
:101C4000890D40E0EDCF20E00C94CC0C90915F0228
:101C500090FF46C09178811128C0926090935F02F6
:101C6000662351F060915F02709160028091610281
:101C7000909162020E943B0C80915F02382F3E7768
:101C80003230D9F410928601881F8827881F9091DE
:101C90006002292F220F97FB992790F94091620249
:101CA00060916102822B0C94230E843210F09664B2
:101CB000D5CF8F73880F982BD1CF982F96959F7380
:101CC0002EE3290F2F73273110F0363421F491E0E1
:101CD00090938601D9CF995D9F739A30A8F6D2CFA1
:101CE000089561E00C94260E80915F0286958F73B3
:101CF0008F5F843208F081E00C94710E80915F0256
:101D000086958F73815009F483E20C94710EEFE590
:101D1000F2E080818160808386958F730C94710ED0
:101D200060E00C94260E8091310281608093310234
:101D300081E0809387010E94A01D811104C00E9450
:101D40007A1D0E94410C0E94370C60935F027093D1
:101D5000600280936102909362026E7761F40E9448
:101D6000410C0E94370C60935F0270936002809375
:101D700061029093620281E08093860180915F020C
:101D800080FF04C086958F730C94900E0895EFE544
:101D9000F2E080818160808386958F730C94900E31
:101DA000EFE5F2E080818E7F8083608171818281A6
:101DB00093810E943B0C109286012FEF80E792E006
:101DC000215080409040E1F700C000000C948C0C42
:101DD00080915F0280FD0C94D00E0C94870EEFE58D
:101DE000F2E080818E7F8083109286012FEF80E762
:101DF00092E0215080409040E1F700C000000C9438
:101E00008C0C81E0809386010895109286010895DC
:101E1000CF93C82F80918401909185010E94E71E85
:101E2000EC2FF0E0EE51FC4FE491E817190611F0A9
:101E300008F042C00E94DB1E9093850180938401CC
:101E40006091830170E090E080E00E94C12B20E06F
:101E500030E04FE753E40E94E42A2BED3FE049E4F1
:101E600050E40E94EA2C0E94572D0E945E2B2BE426
:101E70003AE34EE25FE30E94772A20EF3BEF48ED22
:101E800052E40E94EA2C0E94902B462F80915F0220
:101E9000881F8827881F90916002292F220F97FBA7
:101EA000992790F960916102822B0E94B20C809177
:101EB00083018F5F80938301CF910895CF93C82FC3
:101EC00080918101909182010E94E71EEC2FF0E049
:101ED000E152FC4FE491E817190609F0E8F40E947A
:101EE000DB1E909382018093810140916202609198
:101EF000610280917F01909180010E94B20C8091DB
:101F00007F0190918001019668E671E00E94D02DDA
:101F10009093800180937F01CF910895CF92DF92BB
:101F2000FF920F931F93CF93DF93F82E80917D0143
:101F300090917E010E94E71EEF2DE695F0E0E452BD
:101F4000FC4FE491E817190609F0A8F50E94DB1E82
:101F500090937E0180937D0104E612E0D0E0C0E022
:101F600088E6C82EDD24D39480917B0190917C017A
:101F70008C0F9D1FB6010E94D02D980140916202E6
:101F8000609161020E94C20BA4960D5F1F4FC8367C
:101F900081E0D80749F70E948C0C80917B019091D9
:101FA0007C01F0FE10C00196BE010E94D02D9093DE
:101FB0007C0180937B01DF91CF911F910F91FF9066
:101FC000DF90CF9008950197F2CFCF92DF92EF92FA
:101FD000FF920F931F93CF93DF93C82FFF24FA94A0
:101FE00080FD02C0FF24F3948091790190917A01E1
:101FF0000E94E71EC695EC2FF0E0E752FC4FE491FB
:10200000E817190611F008F051C00E94DB1E9093EA
:102010007A018093790104E612E0D0E0C0E0F80193
:1020200011821082128294E0C92ED12CE12C809171
:1020300078018E0D87FD865F082E000C990B8C179A
:102040009D07E9F4809162028C9DA0018D9D500D49
:102050001124559547955595479580915F02881FA6
:102060008827881F90916002592F550F97FB992759
:1020700090F9980160916102852B0E94C20BEF0CD0
:10208000F1E0CF1AD10899F621960D5F1F4FCA30A3
:10209000D10529F60E948C0C8091780191E0F9120B
:1020A00010C081110CC089E080937801DF91CF913D
:1020B0001F910F91FF90EF90DF90CF900895815086
:1020C000F3CF90E00196BE010E94E42DEDCF0F9377
:1020D0001F93CF93DF93C82F809176019091770162
:1020E0000E94E71EEC2FF0E0EA52FC4FE491E81763
:1020F000190611F008F052C00E94DB1E9093770180
:1021000080937601C4E6D2E0FE0111821082128231
:10211000339682E0E238F807C1F710E000E08091E2
:102120007501082E000C990B08171907E4F180912E
:102130000201082E000C990B80179107A4F18091E1
:102140005F02881F8827881F90916002592F550FC2
:1021500097FB992790F99E0140916202609161027C
:10216000852B0E94C20B0F5F1F4F23960A3011056B
:10217000B1F60E948C0C8091010190917501980F2D
:102180009093750120910201280F209302011216ED
:1021900014F499301CF0819580930101DF91CF9167
:1021A0001F910F910895198218821A82DCCFEF9245
:1021B000FF920F931F93CF93DF93809173019091C0
:1021C00074010E94E71E883E9340C8F10E94DB1E06
:1021D0009093740180937301C0917101D091720149
:1021E0002196C170DD27D0937201C093710184E6FE
:1021F000E82E82E0F82E10E008E7812F86958C0FFC
:102200009D2F911D817099279701409162026091E5
:102210006102FC010E9FC0010F9F900D11240E94CE
:10222000C20B1F5FF3E0EF0EF11C1A3031F7DF91A4
:10223000CF911F910F91FF90EF900C948C0CDF9138
:10224000CF911F910F91FF90EF900895CF93DF935F
:1022500000D00F92CDB7DEB780916F0190917001E1
:102260000E94E71EEAECF3E0259134918217930770
:10227000C0F180916E0181110CC09E012F5F3F4F14
:102280004FEF6FEF90E080E00E94C20B8A81809355
:102290006E010E94DB1E9093700180936F0180910C
:1022A0006D01813071F0882339F040E0823011F403
:1022B00040916E0180E003C080916E0140E060E0DB
:1022C00004C060916E0140E080E00E94A10C80910A
:1022D0006D0190E0019663E070E00E94E42D809330
:1022E0006D010F900F900F90DF91CF910895809125
:1022F00086018823B1F190915F02892F86958F73B3
:102300002EE3280F2F73243018F482500C94080FFA
:102310002AE3280F2F73233018F486500C945E0F95
:1023200027E3280F2F73263018F489500C948E0F52
:1023300021E3280F2F73263018F48F500C94E50FEB
:102340002BE2280F2F73233018F485510C9467105B
:102350009E77903311F40C94D710963411F40C94AA
:102360002611089531B3242F2095232331B3432B15
:102370003FB7F894680F791F8617970711F43FBF8E
:102380000895FC015191CF01E8E041BB000000C07D
:1023900057FF21BB550F000000C000C000C021BB8B
:1023A00000C0EA9591F7E8CF20B3242B20BB9B0116
:1023B000220F331F620F731F0E94B21187EC90E04F
:1023C0000197F1F700C00000089540E40C94D41187
:1023D00090938D0180938C010895E0918C01F09190
:1023E0008D01309721F00190F081E02D099480E07B
:1023F0000895E0918C01F0918D01309721F00280D9
:10240000F381E02D09940895E0918C01F0918D0104
:10241000309721F00480F581E02D099408952091F2
:102420008A0130918B012817390771F090938B0145
:1024300080938A01E0918C01F0918D01309721F019
:102440000680F781E02D099408952091880130914C
:1024500089012817390771F09093890180938801C9
:10246000E0918C01F0918D01309721F00084F1858D
:10247000E02D0994089508950C943B1281E008958D
:102480000E94D21E0E94800A0E94A41F0E94B822AD
:102490000C94930E5F926F927F928F929F92AF9265
:1024A000BF92CF92DF92EF92FF920F931F93CF9341
:1024B000DF93CDB7DEB72A970FB6F894DEBF0FBE15
:1024C000CDBF0E94EB0A0E943E12882309F47AC015
:1024D0009FE8A92E91E0B92E10E000E088248394B3
:1024E000912C502E802F0E94B80B7C01F501C190D9
:1024F000D1905F01C816D90609F45EC080913102FF
:1025000081FD0E94C10B90E080E0CE24DF243401E5
:10251000082E02C0660C771C0A94E2F79601262169
:102520003721232B09F443C08E835F82E620F720F6
:1025300081E0EF2809F480E088870E94DB1E81603B
:10254000782F9A8789874E815F8168858A850E9466
:102550000913000F111FF801E157FE4F808191818F
:1025600068267926718260820E9422220E94ED11E3
:1025700090918E018917B9F10E94ED1180938E011F
:102580002A960FB6F894DEBF0FBECDBFDF91CF9174
:102590001F910F91FF90EF90DF90CF90BF90AF9081
:1025A0009F908F907F906F905F900C949A07019608
:1025B0008F30910509F0ABCF0F5F1F4F053011052C
:1025C00009F08FCF8FEF89838A831B820E94DB1EE5
:1025D0008160782F9D838C8349815A816B818D81A5
:1025E0000E940913C1CF2A960FB6F894DEBF0FBE22
:1025F000CDBFDF91CF911F910F91FF90EF90DF90B2
:10260000CF90BF90AF909F908F907F906F905F9092
:102610000895CF93DF93CDB7DEB72B970FB6F8941D
:10262000DEBF0FBECDBF4F83588769877A878B8700
:102630001E821D8285E0FE013796DE011196019013
:102640000D928A95E1F749815A816B817C818D8158
:102650009E812B960FB6F894DEBF0FBECDBFDF91E3
:10266000CF910C94E519FC01808191810C94991C07
:10267000882309F4F3C08238B9F40E94ED1181FD7A
:10268000EDC089E30E94C71C0E940B1D2FEF81EE55
:1026900094E0215080409040E1F700C0000089E3C1
:1026A0000E94CE1C0C940B1D8338A1F40E94ED11E6
:1026B00080FDD4C083E50E94C71C0E940B1D2FEF34
:1026C00081EE94E0215080409040E1F700C000008E
:1026D00083E5E6CF8438A1F40E94ED1182FDBEC0EF
:1026E00087E40E94C71C0E940B1D2FEF81EE94E02F
:1026F000215080409040E1F700C0000087E4D0CF37
:102700009CEF980F913A18F40E94C71CCBCF90E22F
:10271000980F983050F4877091E001C0990F8A9516
:10272000EAF7892F0E94411DBDCF9BE5980F93309A
:1027300070F4853A31F0863A39F083E890E00C94F1
:102740000F1281E890E0FBCF82E890E0F8CF98E5A7
:10275000980F953108F082C0883A09F440C0893A50
:1027600009F440C08A3A09F440C08B3A09F440C0E9
:102770008C3A09F440C08B3B09F440C08C3B09F40F
:1027800040C08D3A09F440C0803B09F440C08E3A05
:1027900009F440C08F3A09F440C0813B09F440C0BD
:1027A000823B09F440C0833B09F440C0843B09F4F8
:1027B00040C0853B09F440C0863B09F440C0873BDC
:1027C00009F440C0883B09F440C0893B09F440C08B
:1027D0008A3B09F440C090E080E00C94251282EE20
:1027E00090E0FBCF89EE90E0F8CF8AEE90E0F5CF55
:1027F00085EB90E0F2CF86EB90E0EFCF83EB90E0BB
:10280000ECCF84EB90E0E9CF87EB90E0E6CF8CEC67
:1028100090E0E3CF8DEC90E0E0CF83E891E0DDCF76
:102820008AE891E0DACF82E991E0D7CF84E991E0BC
:10283000D4CF81E292E0D1CF83E292E0CECF84E2A6
:1028400092E0CBCF85E292E0C8CF86E292E0C5CF9E
:1028500087E292E0C2CF8AE292E0BFCF0895882358
:1028600009F44BC0823871F40E94ED1181FF45C01C
:1028700089E30E94C71C0E940B1D89E30E94CE1CA5
:102880000C940B1D833859F40E94ED1180FF35C064
:1028900083E50E94C71C0E940B1D83E5EFCF84389F
:1028A00059F40E94ED1182FF28C087E40E94C71CE2
:1028B0000E940B1D87E4E2CF9CEF980F913AF0F253
:1028C00090E2980F983050F4877091E001C0990F12
:1028D0008A95EAF7892F0E94471DD2CF9BE5980F72
:1028E000933020F490E080E00C940F12885A8531E8
:1028F00020F490E080E00C9425120895882321F0C4
:102900000E94411D0C940B1D0895882321F00E9404
:10291000471D0C940B1D08958F929F92AF92BF920A
:10292000CF92DF92EF92FF920F931F93CF93DF939B
:102930007C01D62FC72FFC01058102950F701281F3
:1029400011110E945E1D0E94041DC82E882371F083
:102950001123B1F080E28D0F883090F082E00E9468
:10296000EE1C0E94041D91E0C82EC926DC2ED294D4
:102970009FE0D922ED2DF0E0EA56F14D0C941A2E8D
:10298000C12CF4CF0C2F0F70C07F11F00295007F87
:102990001123A9F0002359F080E28D0F883010F048
:1029A000D11109C0802F0E94411D0E940B1D8D2F47
:1029B0000E94381314C0802F0E94511DF6CF8D2F16
:1029C0000E942F14002359F080E28D0F883010F000
:1029D000D11133C0802F0E94471D0E940B1D98E02B
:1029E000D91639F0D91648F086EF8D0D8F708230E8
:1029F00020F40E94ED110E949A07CC2009F4FCC13A
:102A00000E94E11C80FDF8C1F70112820E94DB1CCC
:102A10000E94671BC7010E9409170E94DB1CDF91FF
:102A2000CF911F910F91FF90EF90DF90CF90BF90CB
:102A3000AF909F908F900C94881B802F0E94571D01
:102A4000CCCFFC2FFF70BF2EC07FC03219F0B294E4
:102A500080EFB822DD2369F0D13049F1112391F1E3
:102A6000002351F1F701858180FFA1CF8F7085830D
:102A700023C0112381F0011106C00E94771D8B290C
:102A80000E947E14ACCF0130C1F70E94771D8B29C4
:102A90000E94711DA4CF011106C00E94741D8B2DD0
:102AA0000E9485149CCF013009F499CFF6CF1123F1
:102AB00029F0063008F093CF8B2DE2CF053008F0D7
:102AC0008ECFEDCF002359F38D2F0E942F1487CF87
:102AD0008C2F86958695837069F0813009F07FCFC1
:102AE0008D2F9C2F9370111102C090E080E00E9406
:102AF000251275CF8D2F9C2F9370111102C090E07D
:102B000080E00E940F126BCF112309F1D53F99F09D
:102B1000D63FB9F0D43F49F480918202909183026C
:102B2000816090938302809382028D2F0E943021D6
:102B30000E94172254CF809182029091830282607A
:102B4000F0CF80918202909183028460EACFD53FDA
:102B500089F0D63FA9F0D43F49F480918202909148
:102B600083028E7F90938302809382028D2F0E9436
:102B70009821DECF80918202909183028D7FF2CFE7
:102B800080918202909183028B7FECCF8C2F837097
:102B900009F047C0111123CF2D2F229526952770BC
:102BA000220F220F6D2F6F70862E912CB12CA12C2D
:102BB000022E04C0880C991CAA1CBB1C0A94D2F7D4
:102BC00060E070E0CB01D4FF0FC06FE070E080E008
:102BD00090E004C0660F771F881F991F2A95D2F7CF
:102BE0006095709580959095C695C695C370C230D6
:102BF00051F080F4682979298A299B29C13071F024
:102C00000E94191BECCE682979298A299B290E94E8
:102C10002B1BE5CE0E94191BC501B4010E94071BA6
:102C2000DECE8695112311F08C2F8170882309F454
:102C3000D6CE2D2F229526952770220F220F6D2F8D
:102C40006F70862E912CB12CA12C022E04C0880C02
:102C5000991CAA1CBB1C0A94D2F760E070E0CB015F
:102C6000D4FF0FC06FE070E080E090E004C0660F1A
:102C7000771F881F991F2A95D2F7609570958095C8
:102C80009095C695C695C370C23051F080F46829FE
:102C900079298A299B29C13071F00E94DE1B9FCEC1
:102CA000682979298A299B290E94F01B98CE0E94C5
:102CB000DE1BC501B4010E94CC1B91CEE0E2ED0FFA
:102CC000E53108F04DC0F0E0EA55F14D0C941A2EB4
:102CD000DF708C2F8F71112321F00E94671B8D2FC5
:102CE000CFCE0E94881B8D2FDBCE112341F0053003
:102CF00008F075CE8C2F8F710E94AB1B70CE063002
:102D000008F06DCEF7CF8C2F8F71112339F00E9410
:102D1000671B65CE8C2F8F711123C9F30E94881B0E
:102D20005ECE112329F08C2F8F710E94521B57CE3B
:102D30000E944D1B54CE112349F0CF718C2F0E945D
:102D4000671B63E08C2F0E94E51C49CE81E00E9446
:102D5000EE1C023008F443CE82E00E94EE1C3FCE0F
:102D6000112329F0011123CE8C2F8F71D0CF002396
:102D700069F0D93309F0A8CEFFEF27EE83E0F150D8
:102D800020408040E1F700C000009ECE8C2F8F7164
:102D9000C5CF4C2F4F706D2FC7010E949C070E941A
:102DA0007F1A1DCE11111BCECF70C230B1F040F48E
:102DB000CC2381F0C13009F012CE0E94E9220FCE5F
:102DC000C43089F068F080E0C53009F008CE0E9478
:102DD0003F2305CE0E94D12202CE0E940223FFCDC6
:102DE0000E941C23FCCD85E0F2CF4C2F4F706D2F3D
:102DF000C7010E949F07F3CDDF91CF911F910F91E3
:102E0000FF90EF90DF90CF90BF90AF909F908F900A
:102E100008950F931F93CF93DF93EC018B819C81D7
:102E2000892B29F08881998189238F3F29F4DF91AB
:102E3000CF911F910F910895CE010E9460048823C5
:102E4000B1F3688179818A810E94A31C8C010E9460
:102E5000021C0E94041BB801CE01DF91CF911F918B
:102E60000F910C948C140E945E1D0E946E1D0E9496
:102E7000D51C0E940B1D0E94AC220E94172290E0DC
:102E800080E00E940F1290E080E00C9425120E94D6
:102E90004E1D0C9433170E94991CE92FE295EF7098
:102EA000E250EE3070F4F0E0E554F14D0C941A2E3F
:102EB000803F19F020F4803E20F481E00895843FA3
:102EC000E1F380E00895803EC0F3813FD1F7F5CF74
:102ED00093FB882780F90895CF93DF9300D000D02B
:102EE0000F92CDB7DEB70F900F900F900F900F900D
:102EF000DF91CF910895CF93DF9300D000D000D021
:102F0000CDB7DEB726960FB6F894DEBF0FBECDBFA5
:102F1000DF91CF9108951F93CF93DF93C0919A01D2
:102F200016E080919B018C1304C0DF91CF911F911B
:102F30000895D0E01C9FF0011D9FF00D1124E45670
:102F4000FE4F4081518162817381848195810E940D
:102F50007B172196C770E5CF4091CC015091CD01F0
:102F60006091CE017091CF018091D0019091D101FB
:102F70000C947B171F93CF93DF938091D101807FB7
:102F8000C1F48091CE018823A1F080919A01C09173
:102F90009B016091CC017091CD014091CF01509186
:102FA000D001D62FD723DA01A095B09516E0C8132B
:102FB00004C0DF91CF911F91089590E04115510514
:102FC00011F0DF3F31F401968770F1CF2A0F3B1FDC
:102FD00017C0189FF001199FF00D1124E456FE4F01
:102FE00021812713F0CF20812613EDCF22812111DB
:102FF000EACF238134812417350740F3241B350B96
:10300000283C310500F72091D1012F7020612093D9
:10301000D10126E0289FF001299FF00D1124EF55E2
:10302000FE4F80818F70806180838CEC91E00E94E4
:103030000917DF91CF911F910C948B17BF92CF92FC
:10304000DF92EF92FF920F931F93CF93DF93CDB751
:10305000DEB761970FB6F894DEBF0FBECDBF8C010F
:1030600085E0F801DE011D9601900D928A95E1F749
:10307000D8014C9111965C9111971296EC90129791
:103080008091CF019091D001009709F47FC12091E8
:10309000CC013091CD01622F63236F3F09F476C1DB
:1030A0001396CD90DC90B090CE01BB2009F411C1F5
:1030B000C816D906D0F1F601E81BF90BCF01FF24A1
:1030C000F394883C910508F0F12C8091D101982F60
:1030D000907FFF2009F4B8C091117FC0FE2C3513FA
:1030E00029C0241327C0E11025C08F708061809310
:1030F000D1010E94AC178CEC91E00E9409178091DD
:10310000D101D80115968C938F2D61960FB6F89446
:10311000DEBF0FBECDBFDF91CF911F910F91FF900A
:10312000EF90DF90CF90BF900895809590958C0D93
:103130009D1DC5CFCD2829F0852F84238F3F09F011
:1031400041C180E0B82FB170DB2E80FF3CC0809180
:103150009A0120919B0136E0821315C04D875E874E
:103160008D859E850E94991C292F22952F702230D3
:10317000F0F0243018F59F70F1F0F8019581907F00
:10318000D1F4D12C1EC090E0389FF001399FF00D92
:103190001124E456FE4F6181651306C060816413FB
:1031A00003C06281E6120FC001968770D5CF9F7071
:1031B00011F0882331F3805E883018F3C8010E9433
:1031C0000917FD2CA1CFEE2009F49ECF8091D101EB
:1031D00081608093D101F12C97CF351306C0241361
:1031E00004C0D801EE2009F49AC04D875E878D8512
:1031F0009E850E944B17882319F1EE2009F18091DA
:10320000D101803270F02091CC013091CD0138870E
:103210002F831986DB86CA868C87CE0107960E948B
:10322000091786E0F801ACECB1E001900D928A95A7
:10323000E1F70E94BA170E94AC17FF24F39464CF01
:10324000C8010E940917F9CF911113C07C2DD98AAA
:10325000C88A6E2D89890E946C178CEC91E00E94BF
:10326000091786E0ECECF1E0DF011D928A95E9F7A1
:1032700063C0351312C0241310C0E1100EC0F80152
:103280008583C8010E940917ECECF1E086E0DF01BC
:103290001D928A95E9F7FB2C37CF4D875E878D8588
:1032A0009E850E944B17882359F2EE2049F28091A7
:1032B000D101803208F4B5CF2091CC013091CD01FD
:1032C0003A8329831B82DD82CC828E83CE010196D4
:1032D000A6CFC816D90698F1F601E81BF90BCF0165
:1032E000F12C883C910508F049C0FE2CEE2009F431
:1032F000A7CF351332C0241330C08091D10180FD97
:1033000023C0982F907F01F1D80115968C931597C3
:10331000903F39F0982F907F905F8F70892B159692
:103320008C93C8010E94091786E0F801ACECB1E06B
:1033300001900D928A95E1F70E94AC17E5CE809539
:1033400090958C0D9D1DCCCF86E0F801ACECB1E0E2
:1033500001900D928A95E1F7D7CE4D875E878D85D6
:103360009E850E944B1781115CCF8091D1018160B5
:103370008093D101C8010E940917C6CE7C2DD98A3D
:10338000C88A6E2D89890E946C176BCFEE2009F4D4
:1033900057CF4D875E878D859E850E944B17F82EEF
:1033A000882309F44DCF86E0F801ACECB1E0019040
:1033B0000D928A95E1F78CEC91E00E9433130E9404
:1033C000BA17BACF81E08E25BDCE1F93CF93DF937E
:1033D000CDB7DEB72C970FB6F894DEBF0FBECDBFCA
:1033E0004F83588769877A878B879C87CE0107969A
:1033F0000E941E18882369F08A859B85892B39F0E5
:103400004F815885842F85238F3F09F071C016E0C6
:103410005FC086E0FE013796DE01119601900D92A5
:103420008A95E1F78A859B85892B89F388859F8119
:1034300089238F3F61F320919B0130E0C901019600
:103440008770992740919A014817190671F40E94D4
:10345000471710929B0110929A0186E0ECECF1E084
:10346000DF011D928A95E9F7D2CF96E0929FD001B5
:10347000939FB00D1124A456BE4FFE0131960190CA
:103480000D929A95E1F780939B010E948B17BFCF15
:10349000819FC001112484569E4F0E941E188823CC
:1034A000E9F0E0919A011E9FF0011124E456FE4FCD
:1034B0004081518162817381848195810E947B1753
:1034C00080919A0190E001968770992780939A01E4
:1034D00080919A0190919B018913DACF2C960FB6B7
:1034E000F894DEBF0FBECDBFDF91CF911F9108953D
:1034F00069857A858B859C850E947B1788CFEF92A2
:10350000FF920F931F93CF93DF938C01892B81F050
:10351000F12CEE24E394E8012196F801849184379C
:1035200070F4843008F05FC08130B1F08230A1F1D6
:10353000DF91CF911F910F91FF90EF900895853704
:1035400009F44CC008F43DC09CE7980F903780F711
:103550008F770E942F1449C00E5F1F4FFE01849188
:1035600090E2980F983060F48770FE2D01C0FF0F35
:103570008A95EAF78F2F0E94611D0E940B1D02C0E1
:103580000E9438138F2D815030F2EFE9FFE0319720
:10359000F1F700C00000F7CF0E5F1F4FFE018491CE
:1035A00090E2980F983050F48770FE2D01C0FF0F05
:1035B0008A95EAF78F2F0E94671DDFCF0E942F1494
:1035C000E1CF0E5F1F4FFE01C491C150D8F28FE9C9
:1035D0009FE00197F1F700C00000F7CF0E5F1F4F8B
:1035E000FE01F490CFCF0E9438138E01CBCF089507
:1035F0000E94F71A609308027093090280930A02EE
:1036000090930B020C94331708950C94F81A0F93AF
:103610001F93009108021091090220910A02309133
:103620000B02602B712B822B932B1F910F910C940B
:10363000F81A0F931F93009108021091090220912C
:103640000A0230910B0260237123822393231F917E
:103650000F910C94F81A0F931F9300910802109188
:10366000090220910A0230910B02602771278227FC
:1036700093271F910F910C94F81A0C94F71A0C943D
:103680003D1B0E943F1B60930402709305028093D0
:103690000602909307020C94331760E070E0CB01B0
:1036A0000C94411B0F931F9341E050E060E070E0E9
:1036B0008A019B0104C0000F111F221F331F8A952E
:1036C000D2F7C901B8011F910F910C94411B0F93C0
:1036D0001F9341E050E060E070E004C0440F551FCC
:1036E000661F771F8A95D2F7809104029091050298
:1036F000A0910602B09107028A019B01082B192BA9
:103700002A2B3B2BC901B8011F910F910C94411B2F
:103710000F931F9341E050E060E070E004C0440F5D
:10372000551F661F771F8A95D2F7CB01BA016095A6
:10373000709580959095009104021091050220915A
:1037400006023091070260237123822393231F9185
:103750000F910C94411B0F931F9341E050E060E0E8
:1037600070E004C0440F551F661F771F8A95D2F77B
:103770008091040290910502A0910602B091070287
:103780008A019B01082719272A273B27C901B8016D
:103790001F910F910C94411B0F931F9300910402F2
:1037A000109105022091060230910702602B712BC7
:1037B000822B932B1F910F910C94411B0F931F93FE
:1037C0000091040210910502209106023091070237
:1037D00060237123822393231F910F910C94411B2B
:1037E0000F931F930091040210910502209106028D
:1037F0003091070260277127822793271F910F912D
:103800000C94411B08952FE0929F800D1124982F56
:10381000977041E001C0440F9A95EAF78695869526
:10382000869595E0899FF0011124EE52FE4F90E0BD
:1038300080E070E05191DF0111979B01082E02C0DA
:10384000369527950A94E2F72170219525272423A0
:1038500025272C9301968530910561F708952FE077
:10386000929F800D1124982F977086958695869546
:1038700025E0829FF0011124EE52FE4F50E040E01F
:1038800080E0219130E0092E02C0369527950A94F8
:10389000E2F721703327042E01C0220F0A94EAF7C1
:1038A000822B4F5F5F4F4530510559F70895BF9206
:1038B000CF92DF92EF92FF920F931F93CF93DF93FC
:1038C0008C01C0900402D0900502E0900602F090B6
:1038D00007028091080290910902A0910A02B0911A
:1038E0000B02C82AD92AEA2AFB2ACFE1D0E0BC2E53
:1038F000D701C6010C2E04C0B695A795979587955C
:103900000A94D2F780FD0EC0219788F7B12C8B2D39
:10391000DF91CF911F910F91FF90EF90DF90CF90AB
:10392000BF900895B8018C2F0E94BC07019761F3E6
:10393000EECFCF93DF93EC010E94571CBE01DF91C5
:10394000CF910C94BC071F93CF93DF93EB01909121
:103950009901992331F0CB01DF91CF911F910C9404
:10396000991C882379F0CB010E94571C182F682FCF
:10397000CE010E94031CBE01812FDF91CF911F91C8
:103980000C94BC07CB010E942F1C182FF4CF682F7A
:1039900080910301909104010C942C1E682F80915A
:1039A0000301909104010C94371E809103019091C2
:1039B00004010C94421E80910C0285958595859595
:1039C000089580910C028770089598E0899F900176
:1039D0001124622B60930C020C94671B90910C02D3
:1039E0008095892380930C02282F277061F4282F5B
:1039F000082E000C330B9217130629F08595859538
:103A000085950C94881B089590910C02977081E025
:103A100009F480E00895E0910301F09104018091A0
:103A200030028083E0910301F09104018081909144
:103A30002F02892B8083E0910301F09104018081A2
:103A400090912E02892B808390910D02992381F011
:103A5000E0910301F09104018081892B80838091A2
:103A60000301909104010E94CF1D811110920D025B
:103A700080910301909104010C94F911809130021E
:103A8000089590913002892B80933002089580959B
:103A90009091300298239093300208951092300252
:103AA000089590912F02892B80932F02089580957D
:103AB00090912F02982390932F02089510922F0235
:103AC000089590912E02892B80932E02089580955F
:103AD00090912E02982390932E02089510922E0218
:103AE000089580930D02089510920D02089580911B
:103AF0000D0208956DEE7EEF90E080E00E946C2E46
:103B000060E082E090E00E944E2E60E083E090E072
:103B10000E944E2E60E084E090E00E944E2E60E015
:103B200085E090E00E944E2E60E086E090E00E94EA
:103B30004E2E40E050E0BA0188E090E00C94602EF8
:103B400090E080E00E94482E21E08D3E9E4F09F0DB
:103B500020E0822F089582E090E00C943A2E682FA6
:103B600082E090E00C944E2E83E090E00C943A2E8C
:103B7000682F83E090E00C944E2E84E090E00C944B
:103B80003A2E682F84E090E00C944E2E86E090E070
:103B90000C943A2E682F86E090E00C944E2EFC0197
:103BA00031969C01205E3F4F80E0919191118F5F93
:103BB000E217F307D1F708959C01FC0132969FEFBD
:103BC00080E04191461751F09F3F19F4411101C027
:103BD000982F8F5F8E31A9F79F3F09F40895290F21
:103BE000311D97FD3A95F90162830895FC013296E3
:103BF00080962191261303C0DF0111971C92E817CC
:103C0000F907B9F70895E62FE695E695E695EF31C1
:103C100069F0E80FF92FF11D677021E030E001C075
:103C2000220F6A95EAF78181822B81830895E62F1E
:103C3000E695E695E695EF3171F0E80FF92FF11D65
:103C4000677021E030E001C0220F6A95EAF7209505
:103C5000818128232183089520911501222329F0B1
:103C60002091880227FD0C94031E0C94DC1D2091EA
:103C70001501222329F02091880227FD0C94171E9C
:103C80000C94F61DFC01319680961192E817F90705
:103C9000E1F70895089508950C944B1E80918F02CA
:103CA000843009F430C01092320288E190E020E4C0
:103CB0000FB6F894A895809360000FBE2093600023
:103CC00080E00E941E0480E00E949A070E94050F77
:103CD0000E94EF0E0E944C1E83B7817F846083BFD9
:103CE00083B7816083BF7894889583B78E7F83BFC5
:103CF0000FB6F894A8958091600088618093600069
:103D0000109260000FBE08950895CF930E944A1E3E
:103D10000E94EB0A0E94841EC0E08C2F0E94B80B08
:103D2000892B31F4CF5FC530C1F780E0CF91089582
:103D300081E0FCCF08950C949A1E0E9447170E94C0
:103D4000B8220E94ED110E949A070E94C70E0E949D
:103D5000010F0C949B1E1F921FB61F9211248F936C
:103D60009F93AF93BF9380913202811113C08091D2
:103D7000840290918502A0918602B09187024196BB
:103D8000A11DB11D8093840290938502A0938602A9
:103D9000B0938702BF91AF919F918F911F901FBEEB
:103DA0001F90189582E084BD93E095BD9AEF97BD72
:103DB00080936E0008952FB7F894809184029091BB
:103DC0008502A0918602B09187022FBF0895CF92FD
:103DD000DF92EF92FF920F931F932FB7F8944091C9
:103DE00084025091850260918602709187022FBFF4
:103DF0006A017B01EE24FF248C0130E020E0C01634
:103E0000D106E206F30650F0481B590BCA011F9178
:103E10000F91FF90EF90DF90CF900895415051099E
:103E2000F3CF78941F921FB61F9211248F939F9304
:103E3000AF93BF938091840290918502A0918602F6
:103E4000B09187020196A11DB11D809384029093C9
:103E50008502A0938602B0938702BF91AF919F9194
:103E60008F911F901FBE1F90189581E08093E000F6
:103E700080E28093D8001092C9008FE19EE4019700
:103E8000F1F700C0000087E090EBDC01809398021E
:103E900090939902A0939A02B0939B0288E19CE0D0
:103EA0000FB6F894A895809360000FBE90936000C1
:103EB000FFCFAF92BF92CF92DF92EF92FF920F931C
:103EC0001F93CF93C0E0CC24C394D12CE82EF12CC7
:103ED0008C2F0E94B80B5C0110E000E0C601002EA0
:103EE00002C0880F991F0A94E2F78A219B21892B2F
:103EF00099F40F5F1F4F0F30110581F7CF5FC53069
:103F000039F780E0CF911F910F91FF90EF90DF90F4
:103F1000CF90BF90AF900895602F7C2F80E00E94DB
:103F2000A007E816F90629F781E0ECCFCF93C82F58
:103F30008CE20E94591F882321F08C2FCF910C9482
:103F4000591F80E0CF910895CF930E94A01D811149
:103F500002C00E947A1DC5E608C00E94EB0A8FE3EA
:103F60009CE90197F1F700C00000C150B1F789E268
:103F70000E94961F8111EFC08AE20E94961F811154
:103F80000E947A1D85E00E94961F81110E94351FB4
:103F90000E94AB1D8093310287E00E94961F882308
:103FA00071F08BE10E94961F882309F4B1C09091B3
:103FB0003102892F8D7F91FF826080933102809141
:103FC00031020E94AF1D0E94BD1D90E090938902B6
:103FD0008093880280EE0E94961F882341F0909182
:103FE0008802892F8E7F90FF81608093880289E309
:103FF0000E94961F882341F090918802892F8D7F1F
:1040000091FF82608093880282EE0E94961F88232F
:1040100041F090918802892F8B7F92FF846080937A
:10402000880286EE0E94961F882341F090918802B4
:10403000892F877F93FF88608093880283EE0E9498
:10404000961F882341F090918802892F8F7E94FFDC
:1040500080618093880285E30E94961F882341F047
:1040600090918802892F8F7D95FF806280938802CE
:1040700081E30E94961F882341F090918802892F46
:104080008F7B96FF80648093880281E10E94961F57
:10409000882341F090918802892F97FB87F98058F7
:1040A00080938802809188020E94C11D87E20E944D
:1040B000961FC82F8EE10E94961F8111C2608FE16A
:1040C0000E94961F8111C46080E20E94961F811198
:1040D000C86081E20E94961F8111C06182E20E9445
:1040E000961F8111C06283E20E94961F8111C064F5
:1040F00084E20E94961F882341F1C0688C2F0E94A1
:10410000B81D6C2F70E090E080E0CF910C94051BFF
:104110008EE00E94961F882339F090913102892FFA
:104120008B7F92FF846049CF80E10E94961F90911F
:104130003102882329F0892F877F93FF88603DCF44
:10414000892F8E7F90FF816038CFC111D7CF0E9419
:10415000B41D682FD7CFCF9108958091350280FF8D
:1041600012C06091080185E0689FB0011124759527
:1041700067957595679560387105A8F561157105A6
:10418000A1F1862F089581FF09C06091080185E0A3
:10419000689FB001112475956795EDCF6091080176
:1041A00082FD0AC0809136028823D1F090910701E8
:1041B00060910801891728F085E0689FB0011124FB
:1041C000DACF869FB001112485E0869F9001879FFA
:1041D000300D1124692F70E0C9010E94E42DCBCF6E
:1041E00065E070E0CECF8FE7089581E0089580917B
:1041F000350280FF0CC06091060170E075956795EF
:10420000759567956115710549F1862F089581FFB0
:1042100006C06091060170E075956795F3CF6091D7
:10422000060182FD0BC0909136029923A1F06091A6
:10423000050180910601961738F0682F70E060380C
:10424000710500F38FE70895899FC001112470E084
:104250000E94E42DF4CF61E070E0D7CF81E00895B3
:10426000803F31F40E94AD208195809339020895FA
:10427000813F19F40E94AD20F8CF823F31F40E94B3
:10428000AD208195809338020895833F19F40E94F0
:10429000AD20F8CF893F29F40E94F72080933A029D
:1042A00008958A3F21F40E94F7208195F7CF8B3F34
:1042B00031F40E94F720819580933B0208958C3F52
:1042C00019F40E94F720F8CF843F31F4809137022F
:1042D0008160809337020895853F21F480913702F1
:1042E0008260F7CF863F21F4809137028460F1CF5E
:1042F000873F21F4809137028860EBCF883F21F41B
:10430000809137028061E5CF8D3F31F48091350295
:1043100081608093350208958E3F21F480913502AB
:104320008260F7CF8F3FB9F7809135028460F1CF7B
:1043300090913802803F41F48091390287FD1092BC
:104340003902992371F00895813F29F4809139024F
:104350001816ACF3F6CF823F81F497FFF2CF10929C
:1043600038028091390290913A02892B90913B0258
:10437000892B49F7109236020895833F19F41916D4
:1043800074F3DFCF893F39F480913A021816CCF6E6
:1043900010923A02D6CF8A3F29F480913A0287FFE1
:1043A000D0CFF6CF8B3F39F480913B0287FFC9CF46
:1043B00010923B02C6CF8C3F29F480913B02181625
:1043C000BCF3BFCF843F31F4809137028E7F80935E
:1043D0003702B7CF853F21F4809137028D7FF7CF29
:1043E000863F21F4809137028B7FF1CF873F21F404
:1043F00080913702877FEBCF883F21F4809137028D
:104400008F7EE5CF8D3F31F4809135028E7F809392
:10441000350297CF8E3F21F4809135028D7FF7CF03
:104420008F3F09F08ECF809135028B7FF0CF87E3ED
:1044300092E00E9404120E94DB1E9093340280934B
:10444000330208951F93CF93DF93809133029091AD
:1044500034020E94E71EAC019091360220910901BE
:1044600030E0911106C020910A018AE0289F900156
:1044700011244217530778F020913802C091390275
:10448000D0913A0210913B02211109C08C2F8D2B43
:10449000812B09F05DC0DF91CF911F9108959F3F5F
:1044A00019F09F5F90933602121624F40E94AD20FB
:1044B000809338028091380287FF05C00E94AD20AA
:1044C0008195809338021C1624F40E94AD208093BD
:1044D00039028091390287FF05C00E94AD20819585
:1044E0008093390240913802442379F030913902A7
:1044F000332359F025EB4203A001112450933802D5
:10450000320390011124309339021D1624F40E94C5
:10451000F72080933A0280913A0287FF05C00E94FB
:10452000F720819580933A02111624F40E94F72017
:1045300080933B0280913B0287FF05C00E94F720D9
:10454000819580933B02DF91CF911F910C941722AC
:104550009F3F09F0A6CFB7CF85E0E7E3F2E0DF01A8
:104560001D928A95E9F7109236021092350208954D
:104570000E94A01D811102C00E947A1D0E94C61DCA
:1045800080938A028C3020F081708A6080938A0246
:1045900080918A0280FF03C086950C941E0480E0FF
:1045A000FCCF80918A02982F9695953030F49F5FCA
:1045B000990F8170892B80938A0280918A02816091
:1045C00080938A020E94CA1D80918A0286950C946B
:1045D0001E0480918A02982F9E7F79F082508093EA
:1045E0008A028E7F91E009F490E080918A0290FB2C
:1045F00080F980938A020E94CA1D80918A02869562
:104600000C941E0490918A02892F8E7F90FF816006
:1046100080938A02813019F483E080938A0280912A
:104620008A020E94CA1D80918A0280FF03C086957B
:104630000C941E0480E0FCCF90918A02892F86950D
:104640008F5F8F7791708630B8F4880F892B8093B5
:104650008A0280918A028E7F91E009F490E0809135
:104660008A0290FB80F980938A020E94CA1D809181
:104670008A0286950C941E0490938A02EACF8630B3
:1046800008F085E0982F990F80918A028170892B1C
:1046900080938A028E7F91E009F490E080918A02F3
:1046A00090FB80F980938A020E94CA1D80918A0241
:1046B00086950C941E0480918A02869508958091B7
:1046C0005C0208950F931F93CF93DF9300D00F9256
:1046D000CDB7DEB78C010E94D325823011F0843033
:1046E00019F583E089831B830A838093E9008FEFA8
:1046F0009091E800815095FD06C095ED9A95F1F7EF
:1047000000008111F5CF8091E80085FF0DC050E0D9
:1047100040E063E070E0CE0101960E94F0258091B8
:10472000E8008E778093E8000F900F900F90DF9154
:10473000CF911F910F910895CF93DF9300D00F92E7
:10474000CDB7DEB720918F02243031F522E02983E6
:10475000805891099B838A8383E08093E9008FEFDF
:104760009091E800815095FD06C095ED9A95F1F77E
:1047700000008111F5CF8091E80085FF0DC050E069
:1047800040E063E070E0CE0101960E94F025809148
:10479000E8008E778093E8000F900F900F90DF91E4
:1047A000CF910895CF93DF93EC010E94D3258230FF
:1047B00011F08430F9F482E08093E9008FEF90915A
:1047C000E800815095FD06C095ED9A95F1F700003F
:1047D0008111F5CF8091E80085FF0CC050E040E0EA
:1047E00065E070E0CE010E94F0258091E8008E77B0
:1047F0008093E800DF91CF910895CF93DF93EC0190
:104800000E94D325823011F08430F9F48091150193
:104810008823F1F08091880287FF1AC084E080939A
:10482000E9008FEF9091E800815095FD06C095E179
:104830009A95F1F700008111F5CF8091E80050E0E2
:1048400040E060E270E085FD1AC0DF91CF910895ED
:1048500081E08093E9008FEF9091E800815095FD11
:1048600006C095ED9A95F1F700008111F5CF809182
:10487000E80085FFEACF50E040E068E070E0CE015C
:104880000E94F0258091E8008E778093E80080E216
:10489000FE01ACE3B2E001900D928A95E1F7D5CF2D
:1048A00080918E02811109C00E947E270E94DB2721
:1048B0008091E20084608093E200089510928E025D
:1048C0000895089508950C949D1E42E061EC81E0E6
:1048D0000E94FC2642E061EC82E00E94FC2642E05D
:1048E00061EC83E00E94FC2642E261EC84E00C94DF
:1048F000FC2680919102833009F455C030F4813058
:1049000071F1823009F491C008958A3009F47DC0B4
:104910008B3009F463C0893009F044C08091900263
:10492000813209F03FC080919402909195020097E6
:1049300011F00397B9F58091E800877F8093E80034
:104940008091E80082FF2AC08091F10080935C0290
:104950008091E8008B778093E8000C943027809159
:104960009002813AF9F48091E800877F8093E80013
:104970008091940290919502892B61F460E28CE31E
:1049800092E070E00E943F268091E8008B77809350
:10499000E800089560E090E080E0F3CF80918F021E
:1049A0008111CECF089580919002813AD9F78091FC
:1049B000940290919502892BA9F78091E800877F56
:1049C0008093E8008091E80080FFFCCF8091150182
:1049D0008093F1008091E8008E77BDCF80919002A6
:1049E000813201F78091940290919502892BD1F642
:1049F0008091E800877F8093E8000E9430278091B3
:104A00009202809315010C94471780919002813295
:104A100049F68091E800877F8093E8000E94302764
:104A20008091930280935D02089580919002813A73
:104A300009F0B8CF8091E800877F8093E8008091EB
:104A4000E80080FFFCCF80915D02C2CF84B7877FF2
:104A500084BF0FB6F894A895809160008861809318
:104A60006000109260000FBE80E880936100109299
:104A700061000E943C120E947E270E94DB278091E9
:104A8000E20084608093E20078940E945B2A0E9496
:104A900040128BE091E00E94E81180918F028530F6
:104AA00029F00E944A120E947711F7CF0E944E1EF1
:104AB00080918D02882389F30E94851E882369F3E3
:104AC0000E94DA25EACF0C946525292F332723305D
:104AD000310521F168F42130310509F449C0223053
:104AE000310509F44AC090E080E030E020E029C0C0
:104AF0002132310581F122323105A9F76430710587
:104B000090F7FB01EE0FFF1FE25DFE4F2081318128
:104B1000665D7E4FFB01808190E013C09927813054
:104B2000910599F0009741F08230910589F0039743
:104B3000D1F6E6EEF4E002C0E4E1F5E0849190E025
:104B40009F01FA01318320830895E2E0F5E0F6CF7A
:104B5000ECEEF4E0F3CF6430710528F6660F771FB2
:104B6000FB01EA5CFE4F2081318189E090E0E9CFD2
:104B700082E190E025E835E0E4CF8DE690E028E1A1
:104B800035E0DFCF0895CF93C82F0E94C225C09390
:104B90005E02CF91089580918F02843011F482E0FB
:104BA000089581E0089580915E02811102C00C9405
:104BB000CB25089580E189BD82E189BD09B400FE5D
:104BC000FDCF8091D8008F7D8093D8008091E00048
:104BD00082608093E0008091E00081FDFCCF089529
:104BE000AF92BF92CF92DF92FF920F931F93CF931A
:104BF000DF936C01EB018A010E944F27F82E81118F
:104C000023C00115110539F0F80180819181C81B7D
:104C1000D90BC80ED91EB12CA12C2097A9F08091D8
:104C2000E80085FD22C08091E8008E778093E8003F
:104C300001151105A1F0F80180819181A80EB91E1E
:104C4000B182A08285E0F82E8F2DDF91CF911F9148
:104C50000F91FF90DF90CF90BF90AF9008950E948A
:104C60004F278823D1F2F82EEFCFF60181916F0103
:104C70008093F1002197FFEFAF1ABF0ACECFFC015E
:104C8000809196029091970286179707A0F0611580
:104C9000710529F49091E8009E779093E80090E0E8
:104CA0006115710551F4911108C08091E80082FFEF
:104CB00034C080E00895BC01F2CF80918F02882338
:104CC000C1F18530C1F18091E80083FD30C0809151
:104CD000E80082FDEACF8091E80080FFE1CF80917B
:104CE000F3002091F200382F6115710519F028307A
:104CF000310558F091E02830310509F090E020911D
:104D0000E8002E772093E800CBCF81918093F100CB
:104D1000615071092F5F3F4FE7CF80918F02882349
:104D200041F0853041F08091E80083FFBECF81E003
:104D3000089582E0089583E00895FC018091960231
:104D40009091970286179707A0F06115710529F4D5
:104D50008091E8008E778093E80090E061157105FE
:104D600051F4911108C08091E80082FF35C080E0C5
:104D70000895BC01F2CF80918F028823C9F185305C
:104D8000C9F18091E80083FD31C08091E80082FD87
:104D9000EACF8091E80080FFE1CF8091F30020917D
:104DA000F200382F6115710519F02830310558F0DF
:104DB00091E02830310509F090E08091E8008E778D
:104DC0008093E800CBCF84918093F10031966150BD
:104DD00071092F5F3F4FE6CF80918F02882341F00A
:104DE000853041F08091E80083FFBDCF81E00895D8
:104DF00082E0089583E00895982F973028F08F700F
:104E00008093E90081E008959093E900242F762FA4
:104E100050E0981731F07091EC002091ED00509126
:104E2000F00021FD02C09F5FE8CF3091EB003E7F94
:104E30003093EB003091ED003D7F3093ED003091E9
:104E4000EB0031603093EB007093EC002093ED00A9
:104E50005093F0002091EE0027FDE5CF80E008950B
:104E60008091900287FF13C08091E80082FF06C006
:104E70008091E8008B778093E80004C080918F02D6
:104E80008111F2CF089580918F028823D9F3809108
:104E9000E80080FFF8CF8091E8008E77ECCF20917A
:104EA000E4003091E50085E6A9019091EC0090FFC7
:104EB00006C09091E80090FF06C080E008959091B0
:104EC000E80092FDFACF90918F02992389F09530F6
:104ED00089F09091EB0095FD0FC02091E400309196
:104EE000E5004217530709F38150F1F684E0089575
:104EF00082E0089583E0089581E008950E94EC2700
:104F00000E94F427E0EEF0E0808181608083E8ED8C
:104F1000F0E080818F77808319BCA7EDB0E08C91A1
:104F20008E7F8C9380818F7E808310928E02089575
:104F30000F931F93CF93DF930E94EC270E94F427D7
:104F4000C8EDD0E088818F778883888180688883E6
:104F500088818F7D888319BC10928F0210928B02FA
:104F600010928D0210928C0200EE10E0F801808108
:104F70008B7F808388818160888342E060E080E06D
:104F80000E94FC26E1EEF0E080818E7F8083E2EEDD
:104F9000F0E0808181608083808188608083F80177
:104FA00080818E7F8083888180618883DF91CF912B
:104FB0001F910F910895E8EDF0E080818F7E80834E
:104FC000E7EDF0E080818160808384E082BF81E052
:104FD00080938E020C949827E8EDF0E080818E7F1C
:104FE00080831092E20008951092DA001092E1009E
:104FF00008951F920F920FB60F9211242F933F9393
:105000004F935F936F937F938F939F93AF93BF93D0
:10501000EF93FF938091E10082FF0BC08091E2004B
:1050200082FF07C08091E1008B7F8093E1000E94A6
:105030005A2A8091DA0080FF19C08091D80080FF41
:1050400015C08091DA008E7F8093DA008091D900BC
:1050500080FF94C080E189BD82E189BD09B400FE72
:10506000FDCF81E080938F020E9450248091E10067
:1050700080FF19C08091E20080FF15C08091E2009E
:105080008E7F8093E2008091E20080618093E20055
:105090008091D80080628093D80019BC85E080930D
:1050A0008F020E9462248091E10084FF29C08091D8
:1050B000E20084FF25C080E189BD82E189BD09B499
:1050C00000FEFDCF8091D8008F7D8093D800809125
:1050D000E1008F7E8093E1008091E2008F7E8093DB
:1050E000E2008091E20081608093E20080918B0277
:1050F000882309F449C084E080938F020E946324CE
:105100008091E10083FF29C08091E20083FF25C0E8
:105110008091E100877F8093E10082E080938F029D
:1051200010928B028091E1008E7F8093E10080914C
:10513000E2008E7F8093E2008091E20080618093A4
:10514000E20042E060E080E00E94FC268091F000F6
:1051500088608093F0000E946124FF91EF91BF91DD
:10516000AF919F918F917F916F915F914F913F91FF
:105170002F910F900FBE0F901F90189519BC109291
:105180008F020E945E2472CF8091E30087FD02C0EF
:1051900081E0B2CF83E0B0CF1F920F920FB60F9293
:1051A00011242F933F934F935F936F937F938F932C
:1051B0009F93AF93BF93CF93EF93FF93C091E90079
:1051C000CF708091EC001092E9008091F000877F11
:1051D0008093F00078940E9408291092E900809151
:1051E000F00088608093F000C093E900FF91EF9198
:1051F000CF91BF91AF919F918F917F916F915F916F
:105200004F913F912F910F900FBE0F901F901895C7
:105210001F93CF93DF93CDB7DEB7AA970FB6F8945D
:10522000DEBF0FBECDBF80E992E02091F100FC010E
:105230002193CF01F2E088399F07B9F70E947924C2
:105240008091E80083FF1EC18091900290919102AD
:105250009A3008F017C1E92FF0E0E753F14D0C94B4
:105260001A2E803899F0823809F00CC1809194028E
:105270008F70873008F006C18093E9008091EB00C1
:1052800085FB882780F91092E90006C080918C0286
:1052900090918D02911182609091E800977F909398
:1052A000E8008093F1001092F1008091E8008E7781
:1052B000E5C0882309F4D3C0823009F0E3C08091AF
:1052C00092028111D6C0809194028F702FEF280F27
:1052D000263008F0D7C08093E9002091EB0020FF32
:1052E000C8C0933031F48091EB0080628093EB0072
:1052F000C0C09091EB0090619093EB0021E030E012
:1053000001C0220F8A95EAF72093EA001092EA0082
:105310008091EB008860EACF8111B4C010919202B5
:105320001F778091E3008078812B8093E300809148
:10533000E800877F8093E8000E9430278091E80092
:1053400080FFFCCF8091E30080688093E30082E0DF
:10535000111183E080938F0295C08058823008F04D
:1053600091C080919202909193028C3D23E092072C
:10537000A1F583E08A838AE289834FB7F894DE013E
:10538000139620E03EE051E2E32FF0E05093570007
:10539000E49120FF03C0E295EF703F5FEF708E2F26
:1053A00090E0EA30C0F0C7968D939D932F5F243133
:1053B00059F74FBF8091E800877F8093E8006AE249
:1053C00070E0CE0101960E943F268091E8008B7725
:1053D0008093E80057C0C096E7CF60919402709127
:1053E0009502AE014F5F5F4F0E946325BC01892B80
:1053F00009F448C09091E800977F9093E800898174
:105400009A810E949D26E1CF8038E1F58091E800E5
:10541000877F8093E80080918B028093F10045CFD5
:10542000811130C090919202923060F58091E80035
:10543000877F8093E80090938B020E9430278091B1
:105440008B02882311F084E005C08091E30087FD82
:10545000FACF81E080938F020E94652413C080916F
:105460009202813079F481E0933009F080E08093FA
:105470008D021092E9008091E800877F8093E80018
:105480000E9430278091E80083FF0AC08091E800E5
:10549000877F8093E8008091EB0080628093EB002F
:1054A000AA960FB6F894DEBF0FBECDBFDF91CF91A5
:1054B0001F9108950895CF9380918F02882399F0CA
:1054C000C091E900CF708091EC0080FD0EC080E0BB
:1054D000C82B1092E9008091E80083FD0E94082902
:1054E000CF70C093E900CF91089580E8F1CF505874
:1054F000BB27AA270E948F2A0C943A2C0E942C2C9E
:1055000038F00E94332C20F039F49F3F19F426F430
:105510000C94022C0EF4E095E7FB0C94FC2BE92F85
:105520000E944B2C58F3BA1762077307840795073C
:1055300020F079F4A6F50C946D2C0EF4E0950B2E6A
:10554000BA2FA02D0B01B90190010C01CA01A001D5
:105550001124FF27591B99F0593F50F4503E68F130
:105560001A16F040A22F232F342F4427585FF3CF71
:10557000469537952795A795F0405395C9F77EF442
:105580001F16BA0B620B730B840BBAF09150A1F08B
:10559000FF0FBB1F661F771F881FC2F70EC0BA0F11
:1055A000621F731F841F48F4879577956795B79599
:1055B000F7959E3F08F0B0CF9395880F08F0992794
:1055C000EE0F9795879508950E94F82A0C943A2C2F
:1055D0000E94332C58F00E942C2C40F029F45F3F9D
:1055E00029F00C94FC2B51110C946E2C0C94022C71
:1055F0000E944B2C68F39923B1F3552391F3951B2B
:10560000550BBB27AA2762177307840738F09F5FE3
:105610005F4F220F331F441FAA1FA9F335D00E2E50
:105620003AF0E0E832D091505040E695001CCAF7BD
:105630002BD0FE2F29D0660F771F881FBB1F261780
:1056400037074807AB07B0E809F0BB0B802DBF0157
:10565000FF2793585F4F3AF09E3F510578F00C9426
:10566000FC2B0C946E2C5F3FE4F3983ED4F38695AC
:1056700077956795B795F7959F5FC9F7880F911D47
:105680009695879597F90895E1E0660F771F881F33
:10569000BB1F621773078407BA0720F0621B730BE6
:1056A000840BBA0BEE1F88F7E095089529F416F0E5
:1056B0000C94FC2B0C946D2C0C94022C0E94532CFB
:1056C000A8F39638A0F707F80F92E8942BE33AEA8C
:1056D00048EB5FE70E94002D0F920F920F924DB79B
:1056E0005EB70F920E94B62CECEAF0E00E94052C07
:1056F0004F915F91EF91FF91E595EE1FFF1F49F0EC
:10570000FE57E0684427EE0F441FFA95E1F74195F4
:10571000550B0E94802C0F9007FE0C94742C08955A
:105720000E94532C88F09F5798F0B92F9927B751B2
:10573000B0F0E1F0660F771F881F991F1AF0BA9535
:10574000C9F714C0B13091F00E946D2CB1E00895FA
:105750000C946D2C672F782F8827B85F39F0B93FEC
:10576000CCF3869577956795B395D9F73EF49095E8
:105770008095709561957F4F8F4F9F4F0895E89466
:1057800009C097FB3EF490958095709561957F4F89
:105790008F4F9F4F9923A9F0F92F96E9BB27939537
:1057A000F695879577956795B795F111F8CFFAF447
:1057B000BB0F11F460FF1BC06F5F7F4F8F4F9F4F78
:1057C00016C0882311F096E911C0772321F09EE8D6
:1057D000872F762F05C0662371F096E8862F70E03C
:1057E00060E02AF09A95660F771F881FDAF7880F16
:1057F0009695879597F9089597F99F6780E870E0E7
:1058000060E008959FEF80EC0895DF93CF931F939E
:105810000F93FF92EF92DF927B018C01689406C098
:10582000DA2EEF010E94FD2CFE01E894A59125914E
:10583000359145915591A6F3EF010E948F2AFE0103
:105840009701A801DA9469F7DF90EF90FF900F912C
:105850001F91CF91DF91089500240A941616170620
:1058600018060906089500240A9412161306140651
:1058700005060895092E0394000C11F4882352F0B4
:10588000BB0F40F4BF2B11F460FF04C06F5F7F4F6C
:105890008F4F9F4F089557FD9058440F551F59F053
:1058A0005F3F71F04795880F97FB991F61F09F3F0D
:1058B00079F087950895121613061406551FF2CF36
:1058C0004695F1DF08C0161617061806991FF1CF86
:1058D00086957105610508940895E894BB276627AD
:1058E0007727CB0197F908959B01AC0160E070E048
:1058F00080E89FE30C94E42A0C94FC2B0C945F2D1D
:105900000E94532CD8F39923C9F3940F511DA3F38C
:105910009150504094F059F0882332F0660F771F71
:10592000881F91505040C1F79E3F51052CF7880FBA
:10593000911D9695879597F908955F3FACF0983E35
:105940009CF0BB27869577956795B79508F4B1606D
:105950009395C1F7BB0F58F711F460FFE8CF6F5F65
:105960007F4F8F4F9F4FE3CF0C946E2CFA01DC01D9
:10597000AA0FBB1F9B01AC01BF5728F42227332776
:105980004427507820C0B75190F4AB2F002446959F
:1059900037952795011CA395D2F3002071F0220FB3
:1059A000331F441FB395DAF30ED00C94772A61307D
:1059B0007105A0E88A07B94630F49B01AC0166275F
:1059C000772788279078309621F02083318342838F
:1059D000538308950E94FD2C0C943A2C0E942C2C89
:1059E00038F00E94332C20F0952311F00C94FC2BFE
:1059F0000C94022C11240C946E2C0E944B2C70F3EE
:105A0000959FC1F3950F50E0551F629FF001729F63
:105A1000BB27F00DB11D639FAA27F00DB11DAA1F72
:105A2000649F6627B00DA11D661F829F2227B00DBF
:105A3000A11D621F739FB00DA11D621F839FA00D4A
:105A4000611D221F749F3327A00D611D231F849F9A
:105A5000600D211D822F762F6A2F11249F575040F1
:105A60009AF0F1F088234AF0EE0FFF1FBB1F661F6C
:105A7000771F881F91505040A9F79E3F510580F035
:105A80000C94FC2B0C946E2C5F3FE4F3983ED4F303
:105A9000869577956795B795F795E7959F5FC1F7D9
:105AA000FE2B880F911D9695879597F908959F93E2
:105AB0000E946F2D0F9007FCEE5F0C94982D9F3F76
:105AC00031F0915020F4879577956795B795880FB9
:105AD000911D9695879597F908950C94022C0E9434
