:100000000C944A030C9491030C9491030C94910367
:100010000C9491030C9491030C9491030C94910310
:100020000C9491030C9491030C9466290C94392A36
:100030000C9418200C9491030C9491030C9491034C
:100040000C9491030C9491030C9491030C949103E0
:100050000C9453080C947E200C9491030C949103FF
:100060000C9491030C9491030C9491030C949103C0
:100070000C9491030C9491030C9491030C949103B0
:100080000C9491030C9491030C9491030C949103A0
:100090000C9491030C9491030C9491030C94910390
:1000A0000C9491030C9491030C94910307634236D2
:1000B000B79BD8A71A39685618AEBAAB558C1D3CF9
:1000C000B7CC5763BD6DEDFD753EF6177231BF00BD
:1000D0000000803F05A84CCDB2D44EB93836A902F5
:1000E0000C50B9918688083CA6AAAA2ABE00000036
:1000F000803F155C1E001F0020002100220023000D
:1001000024002500260027002D002E0000002A00D4
:100110002B0014001A000800150017001C0018001E
:100120000C00120013002F00300031000000E3002B
:1001300004001600070009000A000B000D000E0065
:100140000F0033003400000028000000E100000030
:100150001D001B00060019000500110010003600EC
:10016000370038000000E5000000E000E300E20096
:100170000000000000002C42000000000000E6002B
:1001800002510351E40000000100010001000100E0
:100190000100010001000100010001000100010057
:1001A0000100010001000100010001000100010047
:1001B0000100010001000100010001000100010037
:1001C0000100000001000100010001000100010028
:1001D0000100010001000100010001000100010017
:1001E0000000010001000100010001000100010008
:1001F00001000100010001000100000001000100F8
:100200000100010001000000000000002C000000BF
:100210000000000001000251035101000000350000
:100220003A003B003C003D003E003F0040004100E2
:10023000420043004400450000004C000000F40070
:10024000F000F5000000F90000000000520000007E
:10025000460047004800000000003900F200F100AD
:10026000F300FB00FA00FC00500051004F000000BA
:10027000000000000000000001000000AC00AE0023
:10028000AB00A900AA000000000000000000000070
:10029000000001000000010001000100000000005A
:1002A00000000153000000000000010000000000F9
:1002B000010000000000000000000000000000003D
:1002C000000000000000000000000000000000002E
:1002D00000000000CB5CCC5CCD5CCE5CCF5CD05C25
:1002E000D35C0000000000000000000000000000DF
:1002F0000100DB5CC75CC85CDC5CDD5C000000000E
:1003000000000000000000000000000000000100EC
:100310000000C05CC15CC35CC45CC55CC65CBF5C07
:10032000BB5CBD5CBC5C0000010000000100010082
:1003300001000000000000000000000000000000BC
:1003400001000000000001000000000000000000AB
:10035000000000000001010203040506080A0C0F5A
:100360001114181C2024292E33393F464C535B624C
:100370006A7179818A929AA2AAB2B9C1C8CFD5DC32
:10038000E1E7EBF0F4F7FAFCFDFEFFFEFDFCFAF707
:10039000F4F0EBE7E1DCD5CFC8C1B9B2AAA29A92DA
:1003A0008A8179716A625B534C463F39332E292426
:1003B000201C1814110F0C0A080605040302010181
:1003C0000000000000000000000000046801F000D0
:1003D000B40078005A007F3F1F64321464321478EE
:1003E0003C1E1E140A05000000000001010101016D
:1003F00001010101020202020202020202030303DE
:1004000003030303030404040404040505050505AC
:100410000606060606070707070808080809090967
:100420000A0A0A0A0B0B0B0C0C0C0D0D0D0E0E0F0D
:100430000F0F101011111112121313141415151699
:10044000161717181819191A1A1B1C1C1D1D1E1F08
:100450001F20202122222324252526272728292A58
:100460002B2B2C2D2E2F2F3031323334353636377F
:1004700038393A3B3C3D3E3F404142434446474881
:10048000494A4B4C4D4F50515253555657585A5B51
:100490005C5E5F606263646667696A6C6D6E7071F2
:1004A00073747678797B7C7E8081838486888A8B5E
:1004B0008D8F91929496989A9B9D9FA1A3A5A7A991
:1004C000ABADAFB1B3B5B7B9BBBDBFC1C4C6C8CA88
:1004D000CCCFD1D3D6D8DADCDFE1E4E6E8EBEDF03F
:1004E000F2F5F7FAFCFF0403300000001403530098
:1004F000360030002D0058002D0052004700420009
:1005000000001003530065006E007400720061006B
:10051000710000000403090409026D00040100A039
:10052000FA09040000010301010009211101000181
:100530002240000705810308000A090401000103A5
:10054000010200092111010001224D00070582036B
:1005500008000A090402000103000000092111013A
:1005600000012236000705830308000A090403007E
:1005700001030000000921110100012239000705D3
:1005800084032000011201100100000008EDFE604C
:100590006001000102030105010906A10105071917
:1005A000E029E71500250195087501810205081964
:1005B00001290595057501910295017503910105C4
:1005C00007190029F71500250195F875018102C06A
:1005D00005010980A10185021601002603001A8188
:1005E000002A8300751095018100C0050C0901A146
:1005F000018503160100269C021A01002A9C02753F
:100600001095018100C005010902A1010901A100A5
:1006100005091901290515002501950575018102B6
:100620009501750381010501093009311581257F87
:1006300095027508810609381581257F9501750891
:100640008106050C0A38021581257F950175088100
:1006500006C0C005010906A101050719E029E71533
:100660000025019508750181029501750881010534
:1006700008190129059505750191029501750391E8
:10068000010507190029FF150026FF0095067508CA
:100690008100C00011241FBECFEFDAE0DEBFCDBF66
:1006A00004B603FE27C08091DD029091DE02A09186
:1006B000DF02B091E0028730904BA740B04BD1F4FD
:1006C0001092DD021092DE021092DF021092E00220
:1006D00014BE84B7877F84BF0FB6F894A895809125
:1006E0006000886180936000109260000FBEE0E0BF
:1006F000F8E3099511E0A0E0B1E0E6E8F1E602C018
:1007000005900D92A634B107D9F722E0A6E4B1E036
:1007100001C01D92AD3DB207E1F70E9493260C94F3
:1007200072300C9400000E948F050E94C824811131
:1007300003C085E00E94AC248FEF8093A6028093D3
:10074000A7020895CF93DF93EC010E94C50F81E0CB
:100750000E94AF0FE8E4F1E08FEFD183C083828382
:100760008383369691E0E438F907B9F7DF91CF91AA
:100770000895E8E4F1E01382369681E0E438F80762
:10078000D1F708957F928F929F92AF92BF92CF92AE
:10079000DF92EF92FF920F931F93CF93DF93082F77
:1007A0000E94C50F81E00E94AF0F0E94B903D0E004
:1007B000C0E010E08AE0A82EB12C96E0792EC01798
:1007C000D10774F0DF91CF911F910F91FF90EF90BF
:1007D000DF90CF90BF90AF909F908F907F900895C3
:1007E0000E94F32FB5010E94512F7C014C019924E6
:1007F0000E94F32F887691706C012E2D4FEF6FEFD2
:100800000E941F100E944820909347018093460148
:10081000789CF001799CF00D1124E85BFE4FE48296
:10082000D182C0828FEF828383832196C8CFCF93FA
:10083000DF9380914601909147010E9454202091BE
:1008400005012817190690F4C8E4D1E08B818A309D
:1008500080F08A508B830E944820909347018093B8
:100860004601269681E0C438D80781F7DF91CF9101
:1008700008951B82F0CFCF93DF93C8E4D1E04B8182
:10088000442331F02C816A81888199810E941F1054
:10089000269681E0C438D80791F7809181018111B3
:1008A00006C080910401DF91CF910C94AF0FDF91CE
:1008B000CF9108958091060180FF07C00E943B04FC
:1008C0008091060184FD0C9417040895909106010F
:1008D000892B8093060108958095909106019823B5
:1008E00090930601089590910601982311F00C94BD
:1008F0006C040C9466040F931F93CF93DF938C01C9
:10090000EB018091060180FF0DC09A81992351F07F
:1009100083FF1AC00E94F32F68E671E00E94512FF6
:100920000E94A2030B3D8CE5180709F44AC0B8F4F5
:100930000D32110509F10E32110591F181E0DF91BF
:10094000CF911F910F91089582FFECCF0E94F32F5A
:100950006AE070E00E94512F0E94C203E3CF0C3D79
:100960008CE5180709F451C00D3D1C4539F78A8103
:10097000882321F388E04EC00E94AB1E85FFDECFA6
:100980000E94AB1E81FFDACF8A818823B9F20E94D0
:100990003D1080E00E94AC240E94E71E80E0CFCF93
:1009A0000E94AB1E85FFCACF0E94AB1E81FFC6CF3F
:1009B0008A81882319F280E00E94AC240E944E05AF
:1009C000EDCF8A81882309F4B9CF9091A402892FB1
:1009D00086958F738093040182E090FF0EC00E9481
:1009E000660481E00E9473048091060180FFD6CFE7
:1009F00081FD06C00E943D10D1CF0E946C04F1CF52
:100A0000809104010E94AF0FC9CF8A81882309F425
:100A100095CF80E10E947304C1CFCF92DF92EF9215
:100A2000FF928C3724E1920750F469E070E00E9455
:100A30003D2FCB01FF90EF90DF90CF900895B0E075
:100A4000A0E0BC01CD016A50774D8F4F9F4F982F8A
:100A5000872F762F662725EF38E241E050E00E948D
:100A6000652F69017A01CA01B9010E942D2F9B01EE
:100A7000AC01C701B6010E942D2F672F782F892F57
:100A800099276115710521E08207910591F66FEFB5
:100A90007FEFCFCF81E008950C947B040E94B418BF
:100AA0002FEF84E39CE0215080409040E1F700C0AC
:100AB00000000C94A2200C94BC0B8630D8F4811159
:100AC0001AC090918000977F90938000282F30E08B
:100AD000AFEFBFEF0E948D2F25E030E040E050E007
:100AE0000E94652FC9010E940D0590938D0080938F
:100AF0008C00089585E0909180009860E5CF80910A
:100B00006F008170089510928501109284011092F7
:100B10008601EFE6F0E08081816080830895EFE652
:100B2000F0E080818E7F80830E94C8240C945D0554
:100B30000E947F0581110C948F050C948305FF9210
:100B40000F931F93CF93DF938C01FC01C081D18160
:100B50008091DE01811150C08281882309F447C051
:100B6000CE010E94C41DF82E682FCE010E94701D78
:100B7000BE018F2D0E94DF08EC01B8010E944C05D8
:100B8000882309F410C1B801CE010E946B0B8823A1
:100B900009F409C1C93CFCE5DF0709F444C108F0C8
:100BA00071C0C13C9CE5D90709F415C108F048C0E3
:100BB000C531FCE5DF0728F5C2308CE5D80708F021
:100BC000B2C1C1159CE5D90709F4E8C0C130DC45C4
:100BD00009F4F0C081E080938C0180938D01C801FD
:100BE000DF91CF911F910F91FF900C944A05CE0198
:100BF0000E949C1DF82EBCCFCE010E94C41DBE01D8
:100C0000B9CFCF3BFCE5DF0709F445C208F0DCC0F3
:100C1000C531DC45F9F60E94AB1EF801928199239B
:100C200009F42FC28A7A91E009F490E09093870149
:100C3000811125C289E20E94341E0E94781EB3C031
:100C4000F8018281C53CFCE5DF0709F4DDC068F4EA
:100C5000C33CECE5DE0709F4D2C008F4C7C0882322
:100C600009F4A1C00E94E20E9EC0C73C9CE5D907D2
:100C700009F4D4C008F4CDC0882309F494C00E94BC
:100C8000490F91C0C13DFCE5DF0709F41CC1F0F537
:100C9000F8018281CD3CFCE5DF0709F4D9C0D8F426
:100CA000CB3CECE5DE0709F4CCC008F4C4C08823D3
:100CB00009F479C00E948E0D62307105810591059D
:100CC00040F00E948E0D653071058105910508F494
:100CD00093C082E0BAC0CF3C9CE5D90709F4DFC0DD
:100CE00008F4C9C0882309F45EC00E948E0D6531E6
:100CF00071058105910540F00E948E0D67317105E7
:100D00008105910508F478C085E19FC0C53DFCE5EB
:100D1000DF0709F491C1C0F4F8018281C33DFCE50D
:100D2000DF0709F4EBC008F4D5C0882309F46DC1CE
:100D300010928C010E944820909389018093880131
:100D400082E00E94EB152FC0C93DECE5DE0709F4F7
:100D5000DAC0CA3DFCE5DF0709F4DEC0C63DDC456C
:100D600009F038CFF801828181116AC180918D012B
:100D7000811183C180918A0190918B010E9454203E
:100D8000883C910508F079C180E20E94F21588E262
:100D90000E94A51488E20E949C1505C0F80182817A
:100DA00081110E944E0580E0DF91CF911F910F913C
:100DB000FF900895F80182818823A9F3809176023B
:100DC000816080937602EFCFF8018281882359F306
:100DD0000E945510E8CFF8018281882321F30E94F8
:100DE000AB1E827249F00E94BC0FDDCF8823D9F27E
:100DF0000E94AB1E8272B9F30E94B20FD4CF882337
:100E000091F20E94CA0ECFCF882369F20E94010F8F
:100E1000CACF882341F20E94190FC5CF882319F247
:100E20000E94310FC0CFF8018281882309F4BBCF23
:100E30000E949C0DB8CF882309F4B5CF0E94B10D54
:100E4000B2CF882309F4AFCF81E00E94AF0FABCFC0
:100E5000882309F4A8CF0E948E0D663071058105A4
:100E6000910538F00E948E0D68307105810591055D
:100E700018F286E0EACF882309F495CF0E948E0D00
:100E8000693071058105910540F00E948E0D6E302C
:100E900071058105910508F4AFCF89E0D6CF88238D
:100EA00009F481CF0E948E0D6F3071058105910587
:100EB00040F00E948E0D643171058105910508F4A2
:100EC0009BCF8FE0C2CFF8018281882309F46BCFDA
:100ED00088E1BBCF882309F466CF0E948E0D69316B
:100EE00071058105910540F00E948E0D62327105F9
:100EF0008105910508F480CF89E1A7CF882309F403
:100F000052CF83E2A2CFF8018281882309F44BCF2C
:100F100080E00E94302747CFF8018281882309F4BE
:100F200042CF82E0F6CFF8018281882309F457CEC0
:100F30000E940D1F811102C00E94E71E0E942A1FFD
:100F400090E09093CE028093CD02FE01E350FC45E9
:100F50008091CD028160E231F10538F4EC58FF4C0C
:100F60000C94872F8091CD0282608093CD02809176
:100F7000CD020E942E1F0E94B41815CF8091CD0281
:100F80008460F3CF8091CD028860EFCF8091CD0255
:100F90008061EBCF8091CD028062E7CF8091CD025E
:100FA0008064E3CF8091CD028068DFCF8091CD0255
:100FB0008C60DBCF8091CD028E7FD7CF8091CD0228
:100FC0008D7FD3CF8091CD028B7FCFCF8091CD020B
:100FD000877FCBCF8091CD028F7EC7CF8091CD020E
:100FE0008F7DC3CF8091CD028F7BBFCF8091CD020B
:100FF0008F77BBCF8091CD02837FB7CF9091CD0209
:10100000892F97FB87F98058B0CF80918C0181118F
:101010000FC080918801909189010E945420883CE2
:10102000910530F486E20E94A51486E20E949C1588
:1010300082E00E94F215B7CEF8018281882351F038
:1010400010928D010E94482090938B0180938A0119
:1010500080E277CE80918D0181110FC080918A014D
:1010600090918B010E945420883C910530F487E2D6
:101070000E94A51487E20E949C1580E2DACF85E3E6
:10108000DACD80918701811104C089E20E943B1E64
:10109000D4CD85E3FBCFF8018281882309F483CE88
:1010A0000E94980580CE1F920F920FB60F921124C6
:1010B0002F933F934F935F936F937F938F939F9360
:1010C000AF93BF93CF93EF93FF932091070180914C
:1010D000840190918501019644EF249F9001112491
:1010E000B9010E943D2F9093850180938401B9013D
:1010F000660F672F661F770B71950E943D2F6F77E4
:1011000080918601823041F4603451F480916F0007
:101110008E7F80936F0004C0813011F46F37B1F37C
:10112000E62FF0E0E65BFC4FC4910E94C824282F14
:1011300041E051E0C49FC001C59F900D112465E0BE
:1011400070E00E943D2F269FC001279F900D112423
:101150000E940D0590938D0080938C00FF91EF917C
:10116000CF91BF91AF919F918F917F916F915F913F
:101170004F913F912F910F900FBE0F901F90189598
:10118000279A2F988AE08093800089E180938100DC
:101190008FEF9FEF90938700809386000E94252415
:1011A0000C9483050E94C0080C94BA0B08950C940B
:1011B000D6080C94D70890E080E008950895972F02
:1011C00070E02FE0929F600D711D1124FB019BE4E4
:1011D000899FE00DF11D1124EE0FFF1FEE50FF4F10
:1011E000859194910895FC01EE0FFF1FE653FC4F8B
:1011F000859194910895CF93DF930E94DF080E9418
:10120000CC0AEC01811521E5920708F049C081154F
:1012100030E5930708F021C1883E910508F5803E2E
:10122000910570F5883A910570F4853A910508F0BA
:10123000A7C08130910521F1009711F1049700F5C5
:10124000D0E0C0E01DC08D3B910508F4A4C0805CD7
:101250009109C03CD105A0F30E94F308EC0110C035
:101260008115904388F4C11580E2D80708F0ECC0DE
:10127000C03FD10528F3CF3FD10509F008F4E2C003
:10128000CE01DF91CF910895C11590E4D90708F000
:10129000E1C0CE019927D3FFDAC0EC01D86CF0CFC2
:1012A000811529E5920740F5811538E5930708F087
:1012B0001AC1811544E5940778F4C11583E5D80770
:1012C00008F0F8C0C11592E5D90708F0E2C0DC2F9C
:1012D000CC27C16FD06AD4CF811525E5920708F4D9
:1012E000FDC0811536E5930708F0AACFD82FCC278B
:1012F000CC27DF71D062C4CF8B3B9C4509F4F8C08A
:10130000CC3B8CE5D807B8F4C93B9CE5D90709F478
:10131000F2C008F0F3C0C1153AE5D30708F090CF4A
:10132000CE0134E0969587953A95E1F78F70CF70AE
:10133000C06ED82F90C0CE3B4CE5D40709F4E1C075
:1013400060F4CC3B9CE5D90709F4DEC0CD3BDC451D
:1013500009F076CFC0E0D2ED93CFCE019056811543
:10136000904208F06DCF8D2F8F710E94470B90E057
:10137000982F882788279F719C012C2BE901BACFD1
:10138000853A910509F4C3C0863A910509F0C2C0B7
:10139000C2E8D0E475CF883A910509F4BEC0893A15
:1013A000910509F4BDC08A3A910509F4BCC08B3A95
:1013B000910509F4BBC08C3A910509F4BAC08B3B86
:1013C000910509F4B9C08C3B910509F4B8C08D3A78
:1013D000910509F4B7C0803B910509F4B6C08E3A77
:1013E000910509F4B5C08F3A910509F4B4C0813B69
:1013F000910509F4B3C0823B910509F4B2C0833B67
:10140000910509F4B1C0843B910509F4B0C0853B56
:10141000910509F4AFC0863B910509F4AEC0873B46
:10142000910509F4ADC0883B910509F4ACC0893B36
:10143000910509F4ABC08A3B910509F4AAC0C0E04C
:10144000D4E41ECFD0651CCFCE019F7005CFEC0138
:10145000D06C16CFDF70D06A13CFE4E096958795F5
:10146000EA95E1F783702C2F26952695237040E2AC
:10147000249F90011124382B8C2F8370C1E0D0E081
:1014800002C0CC0FDD1F8A95E2F7C22BD32BDC689C
:10149000F7CECE018370992721E030E002C0220F01
:1014A000331F8A95E2F7C695C69580E2C89FE00192
:1014B0001124EBCFCE018370992721E030E002C0E8
:1014C000220F331F8A95E2F7C695C69590E2C99F11
:1014D000E0011124C22BD32BDA68D2CED82FCC272F
:1014E000C46FD06ACDCED82FCC27C06FD06AC8CEFB
:1014F000C0E0D1EDC5CEC0E0D4EDC2CEC0E0D5EDA8
:10150000BFCEC0E0D3EDBCCEC0E0D0EDB9CEC1E8D7
:10151000D0E4B6CEC3E8D0E4B3CEC2EED4E4B0CECD
:10152000C9EED4E4ADCECAEED4E4AACEC5EBD4E481
:10153000A7CEC6EBD4E4A4CEC3EBD4E4A1CEC4EBD7
:10154000D4E49ECEC7EBD4E49BCECCECD4E498CECE
:10155000CDECD4E495CEC3E8D5E492CECAE8D5E488
:101560008FCEC2E9D5E48CCEC4E9D5E489CEC1E200
:10157000D6E486CEC3E2D6E483CEC4E2D6E480CEFF
:10158000C5E2D6E47DCEC6E2D6E47ACEC7E2D6E4A2
:1015900077CECAE2D6E474CE8238910549F1B0F430
:1015A0008133910509F462C048F48932910509F448
:1015B00056C08A32910509F460C0089585339105BB
:1015C00009F446C08933910599F00895833E910549
:1015D00031F138F4803E910591F0823E9105B1F0F1
:1015E0000895863E910521F1873E910551F10895B8
:1015F0002091CD022370D9F080EE90E008952091E3
:10160000CD0220FF14C089E390E008952091CD021F
:1016100022FF0DC024FD09C083EE90E008952091C3
:10162000CD0222FD31C024FF02C090E080E0089589
:101630002091CD0223FFFBCF24FDF7CF87EE90E072
:1016400008952091CD0223FFEECF86EE90E008951D
:101650002091CD0225FFEBCF89E290E00895209103
:10166000CD0225FFE4CF85E390E008952091CD02DF
:1016700026FFDDCF8AE290E008952091CD0226FF7B
:10168000D6CF81E390E0089582EE90E008959091A6
:10169000CD0292FF06C0282F2871283069F4877F79
:1016A000846093FF06C0282F2871283161F4877E5B
:1016B000846194FD877E0895282F2471243089F752
:1016C0008B7F8860EECF282F2471243191F78B7E99
:1016D0008861EFCF08950F931F93CF938C01FB0187
:1016E0008281811106C0C1E08C2FCF911F910F9193
:1016F0000895C0919B01C11125C006311C4599F781
:101700000E946A0B81E080939B010E944820909385
:101710009A018093990110928E011092900110927B
:101720008F011092920110929101109294011092E7
:1017300093011092960110929501109298011092C7
:101740009701D2CF8091990190919A010E945420E3
:101750008C32914040F680918E01E82FF0E0EE0F40
:10176000FF1FE157FE4F118300838F5F80938E012F
:10177000C0E0BACF0C9493030C945A04CF93DF9338
:1017800085B7806885BF85B7806885BFACE2B1E06A
:1017900041E351E0C1E0D0E08D91E82FE295EF7098
:1017A000F0E061A18F709E0101C0220F8A95EAF7D7
:1017B000922F9095962391A382A1822B82A34A1700
:1017C0005B0751F7ADE1B1E061E070E08D91E82F8A
:1017D000E295EF70F0E041A18F709B0101C0220FF4
:1017E0008A95EAF7922F9095942391A382A1822B58
:1017F00082A381E0AC32B80749F71092A70110929A
:10180000A60110929D0110929C011092A9011092C4
:10181000A80110929F0110929E011092AB011092AC
:10182000AA011092A1011092A0011092AD01109294
:10183000AC011092A3011092A2011092AF0110927C
:10184000AE011092A5011092A401DF91CF910C94EA
:10185000D2084F925F927F928F929F92AF92BF92E7
:10186000CF92DF92EF92FF920F931F93CF93DF936C
:101870009CE9492E91E0592E2CE2E22E21E0F22E35
:1018800001E010E099249394E201A990B9902E010F
:10189000DE011E921E92F70181917F01E82FE295F1
:1018A000EF70F0E091A18F70980101C0220F8A952E
:1018B000EAF7892F822B81A382A1822E809488212E
:1018C00082A380EA8A95F1F78DE1C82E81E0D82EB7
:1018D00090E080E0E60179916E01472F42954F70CC
:1018E00050E0EA0178A04D915C9111977F70E8017A
:1018F00002C0CC0FDD1F7A95E2F7BE01672109F027
:1019000072C0B801082E02C0660F771F0A94E2F772
:10191000462B572B11965C934E9301968F30910571
:10192000C9F681A1882281A282A1282B22A38D91B0
:101930009C91A816B90641F09092B0010E944820EF
:101940009093B2018093B101D6EA4D16D1E05D06C5
:1019500009F09ACF8091B001882391F18091B10173
:101960009091B2010E945420069750F180919C0101
:1019700090919D019093A7018093A60180919E0173
:1019800090919F019093A9018093A8018091A0015B
:101990009091A1019093AB018093AA018091A20143
:1019A0009091A3019093AD018093AC018091A4012B
:1019B0009091A5019093AF018093AE011092B00178
:1019C0000E945B0581E0DF91CF911F910F91FF9005
:1019D000EF90DF90CF90BF90AF909F908F907F90CF
:1019E0005F904F90089570E060E092CFE82FF0E0B4
:1019F000EE0FFF1FEA55FE4F8081918108950895F3
:101A0000CF92DF92EF92FF920F931F93CF93DF93CA
:101A1000E901662309F466C0E42EF12CEFEFF0E053
:101A2000E61BF109EE9D8001EF9D100DFE9D100D4E
:101A30001124212FE12FFF27EE1AFF0A5CE3C52EA8
:101A4000D12CB6010E943D2FFB01BC01E69EC001D6
:101A5000E79E900DF69E900D1124B6010E943D2F39
:101A6000E230F10589F168F4812F262F210F30979C
:101A700081F0242F461B319761F080E020E040E0A8
:101A800008C0E430F10551F128F1842F861B359709
:101A9000A1F7E42FF0E0EA51FC4F4491E22FF0E08F
:101AA000EA51FC4F9491E82FF0E0EA51FC4FE491A9
:101AB00049839883EA83DF91CF911F910F91FF9023
:101AC000EF90DF90CF900895862F810FE42F412F64
:101AD0002E2FDFCFE42FE61B842FF9CF842F462F44
:101AE000410FD7CF842F242FD4CF88E090E00C94DF
:101AF0000B30AB01BC0188E090E00C942930E4EAA3
:101B0000F2E083E0808311828FEF828383831482EB
:101B100060817181828193810C94790D6091A4021E
:101B200060FF06C066956F7370E090E080E00895F6
:101B300060E070E0CB0108958091A80290E00196EA
:101B40008430910514F083E090E08093A8026091C6
:101B5000A4027091A5028091A6029091A7020C9414
:101B6000790D8091A8028150990B97FF02C090E0F7
:101B700080E08430910514F083E090E08093A80227
:101B80006091A4027091A5028091A6029091A70293
:101B90000C94790D8091A402E9EAF2E080FF06C07E
:101BA0006AE070E089EA92E00C945213118210828C
:101BB0001282339682E0E73CF807C1F7F1CF9091AB
:101BC000A40290FF0CC0E9EAF2E0818360834283C3
:101BD000339692E0E73CF907C1F70C94CA0D0895DB
:101BE000CF93DF9300D00F92CDB7DEB72091A40240
:101BF00020FF0AC09E012F5F3F4F0E94000D4B81C6
:101C000069818A810E94DF0D0F900F900F90DF9104
:101C1000CF9108953F924F925F926F927F928F92F1
:101C20009F92AF92BF92CF92DF92EF92FF920F936B
:101C30001F93CF93DF9300D00F92CDB7DEB78C0107
:101C4000462E542E322E8091A40280FF30C0982F51
:101C50009E77923009F040C09E012F5F3F4FC80130
:101C60000E94000D4B8169818A810E94DF0D809165
:101C7000A40200FB87F98093A402902F969580918F
:101C8000A5028078892B10FB87F98093A5024092EA
:101C9000A6025092A702332051F06091A4027091E5
:101CA000A5028091A6029091A7020E94790D0F9043
:101CB0000F900F90DF91CF911F910F91FF90EF90B8
:101CC000DF90CF90BF90AF909F908F907F906F905C
:101CD0005F904F903F900895E82FE695EF739EE355
:101CE0009E0F9F73943018F45090A702C0CF9AE3D0
:101CF0009E0F9F73993068F4881F8827881F9091E2
:101D0000A502292F220F022F082B97FB112710F96C
:101D1000AECF87E28E0F8F738A3008F0A8CFE951DB
:101D2000FF0B21E0E0FD2FEFEE7FE453FC4F8591A8
:101D300094916AE070E00E943D2F26033001279FB6
:101D4000700C1124680188E9C81A8EEFD80A89EA54
:101D5000E82E82E0F82E97ECA92E92E0B92E28E624
:101D6000822E99249394C601B4010E943D2F9701BD
:101D7000452D642D0E94000DC60CD71C83E0E80E93
:101D8000F11CAE14BF0479F70E94CA0D70CF21E098
:101D90000C940A0EE4EAF2E02081221F2227221F7F
:101DA0003091A502432F440F842F822B37FB9927B4
:101DB00090F9089668E671E00E94512F4381628194
:101DC0000C94C70E2091A402221F2227221F3091BB
:101DD000A502432F440F842F822B37FB992790F9BC
:101DE0008830910540F4805A9E4F4091A70260913F
:101DF000A6020C94C70E089768E671E00E94512F66
:101E0000F4CF6091A602683F90F4685F8091A402CD
:101E1000881F8827881F9091A502292F220F97FBE2
:101E2000992790F94091A702822B0C94C70E6FEF6F
:101E3000EDCF6091A602683090F068508091A402C6
:101E4000881F8827881F9091A502292F220F97FBB2
:101E5000992790F94091A702822B0C94C70E60E05D
:101E6000EDCF4091A702483F90F4485F8091A402D3
:101E7000881F8827881F9091A502292F220F97FB82
:101E8000992790F96091A602822B0C94C70E4FEF10
:101E9000EDCF4091A702483090F048508091A402C5
:101EA000881F8827881F9091A502292F220F97FB52
:101EB000992790F96091A602822B0C94C70E40E0FE
:101EC000EDCF20E00C940A0E9091A40290FF46C042
:101ED0009178811128C092609093A402662351F0FA
:101EE0006091A4027091A5028091A6029091A70230
:101EF0000E94790D8091A402382F3E773230D9F4B8
:101F00001092CC01881F8827881F9091A502292F45
:101F1000220F97FB992790F94091A7026091A602A2
:101F2000822B0C94610F843210F09664D5CF8F739E
:101F3000880F982BD1CF982F96959F732EE3290F5A
:101F40002F73273110F0363421F491E09093CC01B7
:101F5000D9CF995D9F739A30A8F6D2CF089561E0EA
:101F60000C94640F8091A40286958F738F5F8432E6
:101F700008F081E00C94AF0F8091A40286958F73D6
:101F8000815009F483E20C94AF0FE4EAF2E080811F
:101F90008160808386958F730C94AF0F60E00C9402
:101FA000640F809176028160809376020E940D1FFB
:101FB000811104C00E94E71E0E947F0D0E94750DD2
:101FC0006093A4027093A5028093A6029093A70247
:101FD0006E7761F40E947F0D0E94750D6093A402DC
:101FE0007093A5028093A6029093A70281E080934C
:101FF000CC018091A40280FF04C086958F730C945D
:10200000CE0F0895E4EAF2E08081816080838695B6
:102010008F730C94CE0F9091A40290FF0FC02A30C2
:1020200068F430E0F901EE0FFF1FE20FF31FE755F0
:10203000FD4F8183608342830C94CA0D08951F93E2
:10204000CF93DF9300D00F92CDB7DEB7122F209140
:10205000A40220FF0BC09E012F5F3F4F0E94000D86
:10206000212F4B8169818A810E940B100F900F9064
:102070000F90DF91CF911F910895E4EAF2E0808103
:102080008E7F808360817181828193810E94790D2E
:102090001092CC012FEF80E792E0215080409040D9
:1020A000E1F700C000000C94CA0D8091A40280FDED
:1020B0000C943D100C94C50FE4EAF2E080818E7F11
:1020C00080831092CC012FEF80E792E02150804076
:1020D0009040E1F700C000000C94CA0D81E08093AD
:1020E000CC0108951092CC010895CF93C82F809110
:1020F000CA019091CB010E945420EC2FF0E0EE51E8
:10210000FC4FE491E817190611F008F042C00E9454
:1021100048209093CB018093CA016091C90170E07F
:1021200090E080E00E942E2D20E030E04FE753E465
:102130000E94512C2BED3FE049E450E40E94572EC1
:102140000E94C42E0E94CB2C2BE43AE34EE25FE3C4
:102150000E94E42B20EF3BEF48ED52E40E94572E03
:102160000E94FD2C462F8091A402881F8827881F7B
:102170009091A502292F220F97FB992790F9609142
:10218000A602822B0E94F00D8091C9018F5F80937F
:10219000C901CF910895CF93C82F8091C701909125
:1021A000C8010E945420EC2FF0E0E152FC4FE49172
:1021B000E817190609F0E8F40E9448209093C80136
:1021C0008093C7014091A7026091A6028091C5014A
:1021D0009091C6010E94F00D8091C5019091C601B9
:1021E000019668E671E00E943D2F9093C6018093AE
:1021F000C501CF910895CF92DF92FF920F931F9365
:10220000CF93DF93F82E8091C3019091C4010E9477
:102210005420EF2DE695F0E0E452FC4FE491E817EE
:10222000190609F0A8F50E9448209093C4018093F4
:10223000C30109EA12E0D0E0C0E088E6C82EDD2440
:10224000D3948091C1019091C2018C0F9D1FB60162
:102250000E943D2F98014091A7026091A6020E9422
:10226000000DA4960D5F1F4FC83681E0D80749F7CF
:102270000E94CA0D8091C1019091C201F0FE10C070
:102280000196BE010E943D2F9093C2018093C1012F
:10229000DF91CF911F910F91FF90DF90CF90089524
:1022A0000197F2CFCF92DF92EF92FF920F931F939D
:1022B000CF93DF93C82FFF24FA9480FD02C0FF2440
:1022C000F3948091BF019091C0010E945420C69563
:1022D000EC2FF0E0E752FC4FE491E817190611F0FB
:1022E00008F051C00E9448209093C0018093BF0124
:1022F00009EA12E0D0E0C0E0F801118210821282F7
:1023000094E0C92ED12CE12C8091BE018E0D87FD69
:10231000865F082E000C990B8C179D07E9F48091BD
:10232000A7028C9DA0018D9D500D112455954795B8
:10233000559547958091A402881F8827881F909102
:10234000A502592F550F97FB992790F99801609195
:10235000A602852B0E94000DEF0CF1E0CF1AD108E8
:1023600099F621960D5F1F4FCA30D10529F60E94BC
:10237000CA0D8091BE0191E0F91210C081110CC00C
:1023800089E08093BE01DF91CF911F910F91FF9063
:10239000EF90DF90CF9008958150F3CF90E00196B9
:1023A000BE010E94512FEDCF0F931F93CF93DF9368
:1023B000C82F8091BC019091BD010E945420EC2F48
:1023C000F0E0EA52FC4FE491E817190611F008F02A
:1023D00052C00E9448209093BD018093BC01C9EA7D
:1023E000D2E0FE01118210821282339682E0E73C35
:1023F000F807C1F710E000E08091BB01082E000C47
:10240000990B08171907E4F180910901082E000CB7
:10241000990B80179107A4F18091A402881F882747
:10242000881F9091A502592F550F97FB992790F976
:102430009E014091A7026091A602852B0E94000D8B
:102440000F5F1F4F23960A301105B1F60E94CA0D87
:10245000809108019091BB01980F9093BB0120914E
:102460000901280F20930901121614F499301CF069
:10247000819580930801DF91CF911F910F9108956D
:10248000198218821A82DCCFEF92FF920F931F936A
:10249000CF93DF938091B9019091BA010E945420AB
:1024A000883E9340C8F10E9448209093BA018093DF
:1024B000B901C091B701D091B8012196C170DD2753
:1024C000D093B801C093B70189EAE82E82E0F82ED4
:1024D00010E008E7812F86958C0F9D2F911D81704C
:1024E000992797014091A7026091A602FC010E9FD7
:1024F000C0010F9F900D11240E94000D1F5FF3E09B
:10250000EF0EF11C1A3031F7DF91CF911F910F912F
:10251000FF90EF900C94CA0DDF91CF911F910F9116
:10252000FF90EF900895CF93DF9300D00F92CDB737
:10253000DEB78091B5019091B6010E945420EAEC7B
:10254000F3E02591349182179307C0F18091B40193
:1025500081110CC09E012F5F3F4F4FEF6FEF90E056
:1025600080E00E94000D8A818093B4010E9448207F
:102570009093B6018093B5018091B301813071F0E1
:10258000882339F040E0823011F44091B40180E0BA
:1025900003C08091B40140E060E004C06091B401E8
:1025A00040E080E00E94DF0D8091B30190E0019651
:1025B00063E070E00E94512F8093B3010F900F9061
:1025C0000F90DF91CF9108958091CC018823B1F1D4
:1025D0009091A402892F86958F732EE3280F2F7375
:1025E000243018F482500C9475102AE3280F2F73AE
:1025F000233018F486500C94CB1027E3280F2F7348
:10260000263018F489500C94FB1021E3280F2F7307
:10261000263018F48F500C9452112BE2280F2F7390
:10262000233018F485510C94D4119E77903311F413
:102630000C944412963411F40C949312089531B30F
:10264000242F2095232331B3432B3FB7F894680FF1
:10265000791F8617970711F43FBF0895FC01519128
:10266000CF01E8E041BB000000C057FF21BB550F80
:10267000000000C000C000C021BB00C0EA9591F777
:10268000E8CF20B3242B20BB9B01220F331F620F06
:10269000731F0E941F1387EC90E00197F1F700C0B1
:1026A0000000089540E40C9441139093D20180936C
:1026B000D1010895E091D101F091D201309721F03C
:1026C0000190F081E02D099480E00895E091D1011E
:1026D000F091D201309721F00280F381E02D09942E
:1026E0000895E091D101F091D201309721F004805A
:1026F000F581E02D099408952091CF013091D0010A
:102700002817390771F09093D0018093CF01E091A1
:10271000D101F091D201309721F00680F781E02DB0
:10272000099408952091CD013091CE0128173907E1
:1027300071F09093CE018093CD01E091D101F091A1
:10274000D201309721F00084F185E02D099408959D
:1027500008950C94A81381E008950E943F200E94E0
:10276000BE0B0E9411210E9425240C94D10F5F9270
:102770006F927F928F929F92AF92BF92CF92DF9291
:10278000EF92FF920F931F93CF93DF93CDB7DEB7F6
:102790002A970FB6F894DEBF0FBECDBF0E94290C5A
:1027A0000E94AB13882309F47AC094EDA92E91E01E
:1027B000B92E10E000E088248394912C502E802FB5
:1027C0000E94F60C7C01F501C190D1905F01C81602
:1027D000D90609F45EC08091760281FD0E94FF0C4B
:1027E00090E080E0CE24DF243401082E02C0660C85
:1027F000771C0A94E2F7960126213721232B09F44E
:1028000043C08E835F82E620F72081E0EF2809F441
:1028100080E088870E9448208160782F9A87898786
:102820004E815F8168858A850E947614000F111F92
:10283000F801EC52FE4F80819181682679267182E1
:1028400060820E948F230E945A139091D3018917AE
:10285000B9F10E945A138093D3012A960FB6F894C7
:10286000DEBF0FBECDBFDF91CF911F910F91FF90C3
:10287000EF90DF90CF90BF90AF909F908F907F9020
:102880006F905F900C94D90801968F30910509F0F4
:10289000ABCF0F5F1F4F0530110509F08FCF8FEFC2
:1028A00089838A831B820E9448208160782F9D83C0
:1028B0008C8349815A816B818D810E947614C1CFAE
:1028C0002A960FB6F894DEBF0FBECDBFDF91CF9131
:1028D0001F910F91FF90EF90DF90CF90BF90AF903E
:1028E0009F908F907F906F905F900895CF93DF932C
:1028F000CDB7DEB72B970FB6F894DEBF0FBECDBFB6
:102900004F83588769877A878B871E821D8285E06F
:10291000FE013796DE01119601900D928A95E1F73E
:1029200049815A816B817C818D819E812B960FB666
:10293000F894DEBF0FBECDBFDF91CF910C94521B38
:10294000FC01808191810C94061E882309F4F3C058
:102950008238B9F40E945A1381FDEDC089E30E94C8
:10296000341E0E94781E2FEF81EE94E021508040AB
:102970009040E1F700C0000089E30E943B1E0C94E8
:10298000781E8338A1F40E945A1380FDD4C083E5D9
:102990000E94341E0E94781E2FEF81EE94E0215099
:1029A00080409040E1F700C0000083E5E6CF843826
:1029B000A1F40E945A1382FDBEC087E40E94341E17
:1029C0000E94781E2FEF81EE94E0215080409040CD
:1029D000E1F700C0000087E4D0CF9CEF980F913A58
:1029E00018F40E94341ECBCF90E2980F983050F428
:1029F000877091E001C0990F8A95EAF7892F0E94AC
:102A0000AE1EBDCF9BE5980F933070F4853A31F040
:102A1000863A39F083E890E00C947C1381E890E0EA
:102A2000FBCF82E890E0F8CF98E5980F953108F059
:102A300082C0883A09F440C0893A09F440C08A3A11
:102A400009F440C08B3A09F440C08C3A09F440C004
:102A50008B3B09F440C08C3B09F440C08D3A09F42B
:102A600040C0803B09F440C08E3A09F440C08F3A20
:102A700009F440C0813B09F440C0823B09F440C0E6
:102A8000833B09F440C0843B09F440C0853B09F412
:102A900040C0863B09F440C0873B09F440C0883BF6
:102AA00009F440C0893B09F440C08A3B09F440C0A6
:102AB00090E080E00C94921382EE90E0FBCF89EEE0
:102AC00090E0F8CF8AEE90E0F5CF85EB90E0F2CF82
:102AD00086EB90E0EFCF83EB90E0ECCF84EB90E0DF
:102AE000E9CF87EB90E0E6CF8CEC90E0E3CF8DEC84
:102AF00090E0E0CF83E891E0DDCF8AE891E0DACFA3
:102B000082E991E0D7CF84E991E0D4CF81E292E0ED
:102B1000D1CF83E292E0CECF84E292E0CBCF85E2C8
:102B200092E0C8CF86E292E0C5CF87E292E0C2CFC2
:102B30008AE292E0BFCF0895882309F44BC082381F
:102B400071F40E945A1381FF45C089E30E94341E2C
:102B50000E94781E89E30E943B1E0C94781E8338E5
:102B600059F40E945A1380FF35C083E50E94341E39
:102B70000E94781E83E5EFCF843859F40E945A13DF
:102B800082FF28C087E40E94341E0E94781E87E4DA
:102B9000E2CF9CEF980F913AF0F290E2980F9830C4
:102BA00050F4877091E001C0990F8A95EAF7892F58
:102BB0000E94B41ED2CF9BE5980F933020F490E092
:102BC00080E00C947C13885A853120F490E080E0FA
:102BD0000C9492130895882321F00E94AE1E0C9449
:102BE000781E0895882321F00E94B41E0C94781E4C
:102BF00008958F929F92AF92BF92CF92DF92EF9201
:102C0000FF920F931F93CF93DF937C01D62FC72F93
:102C1000FC01058102950F70128111110E94CB1EDB
:102C20000E94711EC82E882371F01123B1F080E23A
:102C30008D0F883090F082E00E945B1E0E94711E12
:102C400091E0C82EC926DC2ED2949FE0D922ED2D2A
:102C5000F0E0EA57FF4C0C94872FC12CF4CF0C2FD7
:102C60000F70C07F11F00295007F1123A9F000239F
:102C700059F080E28D0F883010F0D11109C0802FFB
:102C80000E94AE1E0E94781E8D2F0E94A51414C0B3
:102C9000802F0E94BE1EF6CF8D2F0E949C15002310
:102CA00059F080E28D0F883010F0D11133C0802FA1
:102CB0000E94B41E0E94781E98E0D91639F0D916E9
:102CC00048F086EF8D0D8F70823020F40E945A13E9
:102CD0000E94D908CC2009F4FCC10E944E1E80FD40
:102CE000F8C1F70112820E94481E0E94D41CC7013D
:102CF0000E9476180E94481EDF91CF911F910F917C
:102D0000FF90EF90DF90CF90BF90AF909F908F900B
:102D10000C94F51C802F0E94C41ECCCFFC2FFF709A
:102D2000BF2EC07FC03219F0B29480EFB822DD23ED
:102D300069F0D13049F1112391F1002351F1F701EC
:102D4000858180FFA1CF8F70858323C0112381F0FF
:102D5000011106C00E94E41E8B290E94EB15ACCF26
:102D60000130C1F70E94E41E8B290E94DE1EA4CF11
:102D7000011106C00E94E11E8B2D0E94F2159CCF0E
:102D8000013009F499CFF6CF112329F0063008F06D
:102D900093CF8B2DE2CF053008F08ECFEDCF0023FF
:102DA00059F38D2F0E949C1587CF8C2F8695869581
:102DB000837069F0813009F07FCF8D2F9C2F937045
:102DC000111102C090E080E00E94921375CF8D2F08
:102DD0009C2F9370111102C090E080E00E947C1340
:102DE0006BCF112309F1D53F99F0D63FB9F0D43F0D
:102DF00049F48091C7029091C80281609093C80203
:102E00008093C7028D2F0E949D220E94842354CF5D
:102E10008091C7029091C8028260F0CF8091C70272
:102E20009091C8028460EACFD53F89F0D63FA9F0DF
:102E3000D43F49F48091C7029091C8028E7F90934D
:102E4000C8028093C7028D2F0E940523DECF809198
:102E5000C7029091C8028D7FF2CF8091C7029091F6
:102E6000C8028B7FECCF8C2F837009F047C0111103
:102E700023CF2D2F229526952770220F220F6D2FFD
:102E80006F70862E912CB12CA12C022E04C0880CC0
:102E9000991CAA1CBB1C0A94D2F760E070E0CB011D
:102EA000D4FF0FC06FE070E080E090E004C0660FD8
:102EB000771F881F991F2A95D2F760957095809586
:102EC0009095C695C695C370C23051F080F46829BC
:102ED00079298A299B29C13071F00E94861CECCE89
:102EE000682979298A299B290E94981CE5CE0E948D
:102EF000861CC501B4010E94741CDECE8695112388
:102F000011F08C2F8170882309F4D6CE2D2F2295B5
:102F100026952770220F220F6D2F6F70862E912C11
:102F2000B12CA12C022E04C0880C991CAA1CBB1C1D
:102F30000A94D2F760E070E0CB01D4FF0FC06FE0DD
:102F400070E080E090E004C0660F771F881F991F33
:102F50002A95D2F76095709580959095C695C695FF
:102F6000C370C23051F080F4682979298A299B29DD
:102F7000C13071F00E944B1D9FCE682979298A29A2
:102F80009B290E945D1D98CE0E944B1DC501B40176
:102F90000E94391D91CEE0E2ED0FE53108F04DC001
:102FA000F0E0EA56FF4C0C94872FDF708C2F8F7166
:102FB000112321F00E94D41C8D2FCFCE0E94F51C2E
:102FC0008D2FDBCE112341F0053008F075CE8C2F0C
:102FD0008F710E94181D70CE063008F06DCEF7CFAD
:102FE0008C2F8F71112339F00E94D41C65CE8C2F49
:102FF0008F711123C9F30E94F51C5ECE112329F0B5
:103000008C2F8F710E94BF1C57CE0E94BA1C54CEC9
:10301000112349F0CF718C2F0E94D41C63E08C2FB8
:103020000E94521E49CE81E00E945B1E023008F4CD
:1030300043CE82E00E945B1E3FCE112329F0011196
:1030400023CE8C2F8F71D0CF002369F0D93309F0B4
:10305000A8CEFFEF27EE83E0F15020408040E1F75B
:1030600000C000009ECE8C2F8F71C5CF4C2F4F70AB
:103070006D2FC7010E94DB080E94EC1B1DCE1111B1
:103080001BCECF70C230B1F040F4CC2381F0C13000
:1030900009F012CE0E9456240FCEC43089F068F099
:1030A00080E0C53009F008CE0E94AC2405CE0E9415
:1030B0003E2402CE0E946F24FFCD0E948924FCCDC5
:1030C00085E0F2CF4C2F4F706D2FC7010E94DE08B4
:1030D000F3CDDF91CF911F910F91FF90EF90DF9093
:1030E000CF90BF90AF909F908F9008950F931F93B4
:1030F000CF93DF93EC018B819C81892B29F0888110
:10310000998189238F3F29F4DF91CF911F910F91EE
:103110000895CE010E949F058823B1F368817981CB
:103120008A810E94101E8C010E946F1D0E94711CDA
:10313000B801CE01DF91CF911F910F910C94F91539
:103140000E94CB1E0E94DB1E0E94421E0E94781E1F
:103150000E9419240E94842390E080E00E947C1346
:1031600090E080E00C9492130E94BB1E0C94A01877
:103170000E94061EE92FE295EF70E250EE3070F4E7
:10318000F0E0E555FF4C0C94872F803F19F020F4B8
:10319000803E20F481E00895843FE1F380E00895CB
:1031A000803EC0F3813FD1F7F5CF93FB882780F9AC
:1031B0000895CF93DF9300D000D00F92CDB7DEB744
:1031C0000F900F900F900F900F90DF91CF91089577
:1031D000CF93DF9300D000D000D0CDB7DEB72696D6
:1031E0000FB6F894DEBF0FBECDBFDF91CF9108952B
:1031F0001F93CF93DF93C091DF0116E08091E00130
:103200008C1304C0DF91CF911F910895D0E01C9FD3
:10321000F0011D9FF00D1124EF51FE4F40815181AF
:1032200062817381848195810E94E8182196C7701C
:10323000E5CF4091110250911202609113027091FA
:10324000140280911502909116020C94E8181F93B5
:10325000CF93DF9380911602807FC1F48091130297
:103260008823A1F08091DF01C091E00160911102FB
:10327000709112024091140250911502D62FD7235B
:10328000DA01A095B09516E0C81304C0DF91CF9184
:103290001F91089590E04115510511F0DF3F31F481
:1032A00001968770F1CF2A0F3B1F17C0189FF001BE
:1032B000199FF00D1124EF51FE4F21812713F0CFFC
:1032C00020812613EDCF22812111EACF2381348181
:1032D0002417350740F3241B350B283C310500F734
:1032E000209116022F7020612093160226E0289F5D
:1032F000F001299FF00D1124EA51FE4F80818F705B
:103300008061808381E192E00E947618DF91CF9105
:103310001F910C94F818BF92CF92DF92EF92FF9218
:103320000F931F93CF93DF93CDB7DEB761970FB69F
:10333000F894DEBF0FBECDBF8C0185E0F801DE0141
:103340001D9601900D928A95E1F7D8014C91119646
:103350005C9111971296EC901297809114029091C3
:103360001502009709F47FC12091110230911202D9
:10337000622F63236F3F09F476C11396CD90DC90E2
:10338000B0901302BB2009F411C1C816D906D0F1C0
:10339000F601E81BF90BCF01FF24F394883C91055B
:1033A00008F0F12C80911602982F907FFF2009F4ED
:1033B000B8C091117FC0FE2C351329C0241327C03B
:1033C000E11025C08F708061809316020E94191948
:1033D00081E192E00E94761880911602D80115963C
:1033E0008C938F2D61960FB6F894DEBF0FBECDBFC4
:1033F000DF91CF911F910F91FF90EF90DF90CF90D1
:10340000BF900895809590958C0D9D1DC5CFCD28BA
:1034100029F0852F84238F3F09F041C180E0B82F28
:10342000B170DB2E80FF3CC08091DF012091E00174
:1034300036E0821315C04D875E878D859E850E947C
:10344000061E292F22952F702230F0F0243018F517
:103450009F70F1F0F8019581907FD1F4D12C1EC0BE
:1034600090E0389FF001399FF00D1124EF51FE4F8D
:103470006181651306C06081641303C06281E61236
:103480000FC001968770D5CF9F7011F0882331F35C
:10349000805E883018F3C8010E947618FD2CA1CFF9
:1034A000EE2009F49ECF809116028160809316026F
:1034B000F12C97CF351306C0241304C0D801EE2099
:1034C00009F49AC04D875E878D859E850E94B81845
:1034D000882319F1EE2009F180911602803270F0F4
:1034E000209111023091120238872F831986DB86D2
:1034F000CA868C87CE0107960E94761886E0F8016E
:10350000A1E1B2E001900D928A95E1F70E9427199E
:103510000E941919FF24F39464CFC8010E94761801
:10352000F9CF911113C07C2DD98AC88A6E2D898953
:103530000E94D91881E192E00E94761886E0E1E1CC
:10354000F2E0DF011D928A95E9F763C0351312C0DE
:10355000241310C0E1100EC0F8018583C8010E9439
:103560007618E1E1F2E086E0DF011D928A95E9F745
:10357000FB2C37CF4D875E878D859E850E94B818BE
:10358000882359F2EE2049F280911602803208F425
:10359000B5CF20911102309112023A8329831B8208
:1035A000DD82CC828E83CE010196A6CFC816D906C5
:1035B00098F1F601E81BF90BCF01F12C883C91053D
:1035C00008F049C0FE2CEE2009F4A7CF351332C015
:1035D000241330C08091160280FD23C0982F907F65
:1035E00001F1D80115968C931597903F39F0982FDB
:1035F000907F905F8F70892B15968C93C8010E94E5
:10360000761886E0F801A1E1B2E001900D928A956A
:10361000E1F70E941919E5CE809590958C0D9D1DBE
:10362000CCCF86E0F801A1E1B2E001900D928A953D
:10363000E1F7D7CE4D875E878D859E850E94B818AD
:1036400081115CCF80911602816080931602C801BF
:103650000E947618C6CE7C2DD98AC88A6E2D89899B
:103660000E94D9186BCFEE2009F457CF4D875E87A3
:103670008D859E850E94B818F82E882309F44DCFB9
:1036800086E0F801A1E1B2E001900D928A95E1F7A0
:1036900081E192E00E94A0140E942719BACF81E034
:1036A0008E25BDCE1F93CF93DF93CDB7DEB72C977A
:1036B0000FB6F894DEBF0FBECDBF4F835887698722
:1036C0007A878B879C87CE0107960E948B19882367
:1036D00069F08A859B85892B39F04F815885842F25
:1036E00085238F3F09F071C016E05FC086E0FE01C0
:1036F0003796DE01119601900D928A95E1F78A8541
:103700009B85892B89F388859F8189238F3F61F36E
:103710002091E00130E0C90101968770992740911E
:10372000DF014817190671F40E94B4181092E001E5
:103730001092DF0186E0E1E1F2E0DF011D928A955F
:10374000E9F7D2CF96E0929FD001939FB00D11245C
:10375000AF51BE4FFE01319601900D929A95E1F75F
:103760008093E0010E94F818BFCF819FC00111240F
:103770008F519E4F0E948B198823E9F0E091DF0161
:103780001E9FF0011124EF51FE4F40815181628153
:103790007381848195810E94E8188091DF0190E017
:1037A0000196877099278093DF018091DF019091C6
:1037B000E0018913DACF2C960FB6F894DEBF0FBE66
:1037C000CDBFDF91CF911F91089569857A858B8553
:1037D0009C850E94E81888CFEF92FF920F931F9369
:1037E000CF93DF938C01892B81F0F12CEE24E394AD
:1037F000E8012196F8018491843770F4843008F050
:103800005FC08130B1F08230A1F1DF91CF911F9183
:103810000F91FF90EF900895853709F44CC008F49C
:103820003DC09CE7980F903780F78F770E949C15DA
:1038300049C00E5F1F4FFE01849190E2980F9830AF
:1038400060F48770FE2D01C0FF0F8A95EAF78F2F75
:103850000E94CE1E0E94781E02C00E94A5148F2DC9
:10386000815030F2EFE9FFE03197F1F700C000003E
:10387000F7CF0E5F1F4FFE01849190E2980F9830B2
:1038800050F48770FE2D01C0FF0F8A95EAF78F2F45
:103890000E94D41EDFCF0E949C15E1CF0E5F1F4F08
:1038A000FE01C491C150D8F28FE99FE00197F1F772
:1038B00000C00000F7CF0E5F1F4FFE01F490CFCF86
:1038C0000E94A5148E01CBCF08950E94641C6093C2
:1038D0004D0270934E0280934F02909350020C94CD
:1038E000A01808950C94651C0F931F9300914D022E
:1038F00010914E0220914F0230915002602B712B9B
:10390000822B932B1F910F910C94651C0F931F9387
:1039100000914D0210914E0220914F0230915002C1
:1039200060237123822393231F910F910C94651CB4
:103930000F931F9300914D0210914E0220914F0260
:103940003091500260277127822793271F910F9192
:103950000C94651C0C94641C0C94AA1C0E94AC1C56
:103960006093490270934A0280934B0290934C02F9
:103970000C94A01860E070E0CB010C94AE1C0F9387
:103980001F9341E050E060E070E08A019B0104C0B9
:10399000000F111F221F331F8A95D2F7C901B801EA
:1039A0001F910F910C94AE1C0F931F9341E050E0B8
:1039B00060E070E004C0440F551F661F771F8A95B2
:1039C000D2F78091490290914A02A0914B02B091A6
:1039D0004C028A019B01082B192B2A2B3B2BC90176
:1039E000B8011F910F910C94AE1C0F931F9341E0EF
:1039F00050E060E070E004C0440F551F661F771F61
:103A00008A95D2F7CB01BA01609570958095909513
:103A10000091490210914A0220914B0230914C02D0
:103A200060237123822393231F910F910C94AE1C6A
:103A30000F931F9341E050E060E070E004C0440F3A
:103A4000551F661F771F8A95D2F780914902909182
:103A50004A02A0914B02B0914C028A019B010827B7
:103A600019272A273B27C901B8011F910F910C94F0
:103A7000AE1C0F931F930091490210914A022091AE
:103A80004B0230914C02602B712B822B932B1F9198
:103A90000F910C94AE1C0F931F930091490210914B
:103AA0004A0220914B0230914C0260237123822301
:103AB00093231F910F910C94AE1C0F931F930091B1
:103AC000490210914A0220914B0230914C0260272A
:103AD0007127822793271F910F910C94AE1C089594
:103AE0002FE0929F800D1124982F977041E001C024
:103AF000440F9A95EAF786958695869595E0899F75
:103B0000F0011124E95EFD4F90E080E070E05191FA
:103B1000DF0111979B01082E02C0369527950A9464
:103B2000E2F7217021952527242325272C93019640
:103B30008530910561F708952FE0929F800D112443
:103B4000982F977086958695869525E0829FF0013F
:103B50001124E95EFD4F50E040E080E0219130E02B
:103B6000092E02C0369527950A94E2F72170332773
:103B7000042E01C0220F0A94EAF7822B4F5F5F4F99
:103B80004530510559F70895BF92CF92DF92EF92D9
:103B9000FF920F931F93CF93DF938C01C090490244
:103BA000D0904A02E0904B02F0904C0280914D027E
:103BB00090914E02A0914F02B0915002C82AD92A8A
:103BC000EA2AFB2ACFE1D0E0BC2ED701C6010C2E99
:103BD00004C0B695A795979587950A94D2F780FD6E
:103BE0000EC0219788F7B12C8B2DDF91CF911F91BB
:103BF0000F91FF90EF90DF90CF90BF900895B801A4
:103C00008C2F0E94FB08019761F3EECFCF93DF93D7
:103C1000EC010E94C41DBE01DF91CF910C94FB0802
:103C20001F93CF93DF93EB019091DE01992331F045
:103C3000CB01DF91CF911F910C94061E882379F060
:103C4000CB010E94C41D182F682FCE010E94701D49
:103C5000BE01812FDF91CF911F910C94FB08CB0106
:103C60000E949C1D182FF4CF682F80910A0190911B
:103C70000B010C94991F682F80910A0190910B0100
:103C80000C94A41F80910A0190910B010C94AF1F1A
:103C90008091510285958595859508958091510271
:103CA0008770089598E0899F90011124622B60939A
:103CB00051020C94D41C90915102809589238093D9
:103CC0005102282F277061F4282F082E000C330B87
:103CD0009217130629F08595859585950C94F51C0A
:103CE000089590915102977081E009F480E0089561
:103CF000E0910A01F0910B01809175028083E091BF
:103D00000A01F0910B01808190917402892B8083CC
:103D1000E0910A01F0910B01808190917302892B4F
:103D2000808390915202992381F0E0910A01F091F1
:103D30000B018081892B808380910A0190910B0176
:103D40000E943C1F81111092520280910A019091B1
:103D50000B010C9466138091750208959091750281
:103D6000892B809375020895809590917502982310
:103D700090937502089510927502089590917402BF
:103D8000892B8093740208958095909174029823F2
:103D900090937402089510927402089590917302A2
:103DA000892B8093730208958095909173029823D4
:103DB00090937302089510927302089580935202B3
:103DC00008951092520208958091520208956DEE66
:103DD0007EEF90E080E00E94353060E082E090E08D
:103DE0000E94173060E083E090E00E94173060E0AE
:103DF00084E090E00E94173060E085E090E00E944F
:103E0000173060E086E090E00E94173040E050E01C
:103E1000BA0188E090E00C94293090E080E00E94A4
:103E2000113021E08D3E9E4F09F020E0822F089551
:103E300082E090E00C940330682F82E090E00C94D4
:103E4000173083E090E00C940330682F83E090E01B
:103E50000C94173084E090E00C940330682F84E0D9
:103E600090E00C94173086E090E00C940330682FBB
:103E700086E090E00C941730FC0131969C01205EA6
:103E80003F4F80E0919191118F5FE217F307D1F7D7
:103E900008959C01FC0132969FEF80E04191461706
:103EA00051F09F3F19F4411101C0982F8F5F8E315F
:103EB000A9F79F3F09F40895290F311D97FD3A9501
:103EC000F90162830895FC013296809621912613B0
:103ED00003C0DF0111971C92E817F907B9F708959D
:103EE000E62FE695E695E695EF3169F0E80FF92FB4
:103EF000F11D677021E030E001C0220F6A95EAF7FA
:103F00008181822B81830895E62FE695E695E695DB
:103F1000EF3171F0E80FF92FF11D677021E030E00B
:103F200001C0220F6A95EAF7209581812823218319
:103F3000089520911C01222329F02091CD0227FD14
:103F40000C94701F0C94491F20911C01222329F00E
:103F50002091CD0227FD0C94841F0C94631FFC015B
:103F6000319680961192E817F907E1F708950895C0
:103F700008950C94B81F8091D402843009F430C0A5
:103F80001092770288E190E020E40FB6F894A895AB
:103F9000809360000FBE2093600080E00E945D056A
:103FA00080E00E94D9080E9472100E945C100E945A
:103FB000B91F83B7817F846083BF83B7816083BF6C
:103FC0007894889583B78E7F83BF0FB6F894A895B1
:103FD00080916000886180936000109260000FBE45
:103FE00008950895CF930E94B71F0E94290C0E9444
:103FF000F11FC0E08C2F0E94F60C892B31F4CF5FAB
:10400000C530C1F780E0CF91089581E0FCCF0895DD
:104010000C9407200E94B4180E9425240E945A1371
:104020000E94D9080E9402100E946E100C94082071
:104030001F921FB61F9211248F939F93AF93BF932C
:1040400080917702811113C08091C9029091CA02B8
:10405000A091CB02B091CC024196A11DB11D8093DD
:10406000C9029093CA02A093CB02B093CC02BF9135
:10407000AF919F918F911F901FBE1F90189582E066
:1040800084BD93E095BD9AEF97BD80936E0008952F
:104090002FB7F8948091C9029091CA02A091CB02E7
:1040A000B091CC022FBF0895CF92DF92EF92FF9292
:1040B0000F931F932FB7F8944091C9025091CA02F1
:1040C0006091CB027091CC022FBF6A017B01EE247C
:1040D000FF248C0130E020E0C016D106E206F30692
:1040E00050F0481B590BCA011F910F91FF90EF90A0
:1040F000DF90CF90089541505109F3CF78941F92EB
:104100001FB61F9211248F939F93AF93BF938091FB
:10411000C9029091CA02A091CB02B091CC02019643
:10412000A11DB11D8093C9029093CA02A093CB0236
:10413000B093CC02BF91AF919F918F911F901FBE02
:104140001F90189581E08093E00080E28093D80072
:104150001092C9008FE19EE40197F1F700C00000C2
:1041600087E090EBDC018093DD029093DE02A09368
:10417000DF02B093E00288E19CE00FB6F894A895C6
:10418000809360000FBE90936000FFCFAF92BF920C
:10419000CF92DF92EF92FF920F931F93CF93C0E0E5
:1041A000CC24C394D12CE82EF12C8C2F0E94F60C39
:1041B0005C0110E000E0C601002E02C0880F991FCC
:1041C0000A94E2F78A219B21892B99F40F5F1F4FF4
:1041D0000F30110581F7CF5FC53039F780E0CF91FF
:1041E0001F910F91FF90EF90DF90CF90BF90AF9015
:1041F0000895602F7C2F80E00E94DF08E816F90602
:1042000029F781E0ECCFCF93C82F8CE20E94C62023
:10421000882321F08C2FCF910C94C62080E0CF9181
:104220000895CF930E940D1F811102C00E94E71EC6
:10423000C5E608C00E94290C8FE39CE90197F1F7BD
:1042400000C00000C150B1F789E20E940321811132
:10425000EFC08AE20E94032181110E94E71E85E0DF
:104260000E94032181110E94A2200E94181F8093A6
:10427000760287E00E940321882371F08BE10E947F
:104280000321882309F4B1C090917602892F8D7F94
:1042900091FF826080937602809176020E941C1FBB
:1042A0000E942A1F90E09093CE028093CD0280EE70
:1042B0000E940321882341F09091CD02892F8E7FA7
:1042C00090FF81608093CD0289E30E9403218823BF
:1042D00041F09091CD02892F8D7F91FF8260809374
:1042E000CD0282EE0E940321882341F09091CD02FD
:1042F000892F8B7F92FF84608093CD0286EE0E948F
:104300000321882341F09091CD02892F877F93FF6D
:1043100088608093CD0283EE0E940321882341F0C0
:104320009091CD02892F8F7E94FF80618093CD0282
:1043300085E30E940321882341F09091CD02892FCB
:104340008F7D95FF80628093CD0281E30E940321DF
:10435000882341F09091CD02892F8F7B96FF806456
:104360008093CD0281E10E940321882341F0909146
:10437000CD02892F97FB87F980588093CD028091D9
:10438000CD020E942E1F87E20E940321C82F8EE1DA
:104390000E9403218111C2608FE10E9403218111DB
:1043A000C46080E20E9403218111C86081E20E9402
:1043B00003218111C06182E20E9403218111C06248
:1043C00083E20E9403218111C06484E20E940321E0
:1043D000882341F1C0688C2F0E94251F6C2F70E04C
:1043E00090E080E0CF910C94721C8EE00E9403213B
:1043F000882339F090917602892F8B7F92FF846019
:1044000049CF80E10E94032190917602882329F010
:10441000892F877F93FF88603DCF892F8E7F90FF04
:10442000816038CFC111D7CF0E94211F682FD7CF0D
:10443000CF91089580917A0280FF12C060910F01A0
:1044400085E0689FB001112475956795759567950E
:1044500060387105A8F561157105A1F1862F0895E1
:1044600081FF09C060910F0185E0689FB0011124B0
:1044700075956795EDCF60910F0182FD0AC080911F
:104480007B028823D1F090910E0160910F01891772
:1044900028F085E0689FB0011124DACF869FB00133
:1044A000112485E0869F9001879F300D1124692F8C
:1044B00070E0C9010E94512FCBCF65E070E0CECFF4
:1044C0008FE7089581E0089580917A0280FF0CC003
:1044D00060910D0170E0759567957595679561150B
:1044E000710549F1862F089581FF06C060910D0185
:1044F00070E075956795F3CF60910D0182FD0BC05B
:1045000090917B029923A1F060910C0180910D01A3
:10451000961738F0682F70E06038710500F38FE768
:104520000895899FC001112470E00E94512FF4CF9B
:1045300061E070E0D7CF81E00895803F31F40E94C0
:104540001A22819580937E020895813F19F40E947A
:104550001A22F8CF823F31F40E941A22819580936B
:104560007D020895833F19F40E941A22F8CF893FF3
:1045700029F40E94642280937F0208958A3F21F4E7
:104580000E9464228195F7CF8B3F31F40E94642210
:1045900081958093800208958C3F19F40E946422D3
:1045A000F8CF843F31F480917C02816080937C025B
:1045B0000895853F21F480917C028260F7CF863F89
:1045C00021F480917C028460F1CF873F21F48091B7
:1045D0007C028860EBCF883F21F480917C0280616F
:1045E000E5CF8D3F31F480917A02816080937A0229
:1045F00008958E3F21F480917A028260F7CF8F3F39
:10460000B9F780917A028460F1CF90917D02803F6A
:1046100041F480917E0287FD10927E02992371F011
:104620000895813F29F480917E021816ACF3F6CFED
:10463000823F81F497FFF2CF10927D0280917E023B
:1046400090917F02892B90918002892B49F71092DB
:104650007B020895833F19F4191674F3DFCF893F65
:1046600039F480917F021816CCF610927F02D6CFD3
:104670008A3F29F480917F0287FFD0CFF6CF8B3F0E
:1046800039F48091800287FFC9CF10928002C6CF93
:104690008C3F29F4809180021816BCF3BFCF843F71
:1046A00031F480917C028E7F80937C02B7CF853F6E
:1046B00021F480917C028D7FF7CF863F21F4809199
:1046C0007C028B7FF1CF873F21F480917C02877F32
:1046D000EBCF883F21F480917C028F7EE5CF8D3F28
:1046E00031F480917A028E7F80937A0297CF8E3F49
:1046F00021F480917A028D7FF7CF8F3F09F08ECF22
:1047000080917A028B7FF0CF8CE792E00E94711348
:104710000E944820909379028093780208951F9315
:10472000CF93DF9380917802909179020E94542078
:10473000AC0190917B022091100130E0911106C0F4
:10474000209111018AE0289F9001112442175307FC
:1047500078F020917D02C0917E02D0917F0210916D
:104760008002211109C08C2F8D2B812B09F05DC097
:10477000DF91CF911F9108959F3F19F09F5F909314
:104780007B02121624F40E941A2280937D028091EB
:104790007D0287FF05C00E941A22819580937D02C9
:1047A0001C1624F40E941A2280937E0280917E02BD
:1047B00087FF05C00E941A22819580937E02409156
:1047C0007D02442379F030917E02332359F025EBAA
:1047D0004203A001112450937D0232039001112461
:1047E00030937E021D1624F40E94642280937F027F
:1047F00080917F0287FF05C00E946422819580938B
:104800007F02111624F40E9464228093800280911A
:10481000800287FF05C00E946422819580938002F8
:10482000DF91CF911F910C9484239F3F09F0A6CF75
:10483000B7CF85E0ECE7F2E0DF011D928A95E9F75A
:1048400010927B0210927A0208950E940D1F81112E
:1048500002C00E94E71E0E94331F8093CF028C305B
:1048600020F081708A608093CF028091CF0280FF18
:1048700003C086950C945D0580E0FCCF8091CF024B
:10488000982F9695953030F49F5F990F8170892B02
:104890008093CF028091CF0281608093CF020E94EB
:1048A000371F8091CF0286950C945D058091CF02D1
:1048B000982F9E7F79F082508093CF028E7F91E077
:1048C00009F490E08091CF0290FB80F98093CF02B1
:1048D0000E94371F8091CF0286950C945D059091C0
:1048E000CF02892F8E7F90FF81608093CF0281302D
:1048F00019F483E08093CF028091CF020E94371F8A
:104900008091CF0280FF03C086950C945D0580E006
:10491000FCCF9091CF02892F86958F5F8F77917012
:104920008630B8F4880F892B8093CF028091CF0214
:104930008E7F91E009F490E08091CF0290FB80F9A6
:104940008093CF020E94371F8091CF0286950C94EE
:104950005D059093CF02EACF863008F085E0982F6E
:10496000990F8091CF028170892B8093CF028E7F27
:1049700091E009F490E08091CF0290FB80F9809360
:10498000CF020E94371F8091CF0286950C945D055F
:104990008091CF02869508958091A10208950F938A
:1049A0001F93CF93DF9300D00F92CDB7DEB78C016A
:1049B0000E944027823011F0843019F583E089830A
:1049C0001B830A838093E9008FEF9091E800815068
:1049D00095FD06C095ED9A95F1F700008111F5CF90
:1049E0008091E80085FF0DC050E040E063E070E09A
:1049F000CE0101960E945D278091E8008E7780931A
:104A0000E8000F900F900F90DF91CF911F910F91C1
:104A10000895CF93DF9300D00F92CDB7DEB72091EA
:104A2000D402243031F522E02983805891099B83F8
:104A30008A8383E08093E9008FEF9091E8008150B2
:104A400095FD06C095ED9A95F1F700008111F5CF1F
:104A50008091E80085FF0DC050E040E063E070E029
:104A6000CE0101960E945D278091E8008E778093A9
:104A7000E8000F900F900F90DF91CF910895CF93A2
:104A8000DF93EC010E944027823011F08430F9F46A
:104A900082E08093E9008FEF9091E800815095FDCE
:104AA00006C095ED9A95F1F700008111F5CF809140
:104AB000E80085FF0CC050E040E065E070E0CE010A
:104AC0000E945D278091E8008E778093E800DF9157
:104AD000CF910895CF93DF93EC010E94402782305D
:104AE00011F08430F9F480911C018823F1F0809159
:104AF000CD0287FF1AC084E08093E9008FEF909188
:104B0000E800815095FD06C095E19A95F1F7000007
:104B10008111F5CF8091E80050E040E060E270E064
:104B200085FD1AC0DF91CF91089581E08093E9005F
:104B30008FEF9091E800815095FD06C095ED9A9514
:104B4000F1F700008111F5CF8091E80085FFEACFF1
:104B500050E040E068E070E0CE010E945D27809167
:104B6000E8008E778093E80080E2FE01A1E8B2E0E1
:104B700001900D928A95E1F7D5CF8091D3028111F2
:104B800009C00E94EB280E9448298091E2008460BD
:104B90008093E20008951092D30208950895089535
:104BA0000C940A2042E061EC81E00E94692842E016
:104BB00061EC82E00E94692842E061EC83E00E949F
:104BC000692842E261EC84E00C9469288091D60265
:104BD000833009F455C030F4813071F1823009F42A
:104BE00091C008958A3009F47DC08B3009F463C008
:104BF000893009F044C08091D502813209F03FC06C
:104C00008091D9029091DA02009711F00397B9F5DB
:104C10008091E800877F8093E8008091E80082FF20
:104C20002AC08091F1008093A1028091E8008B77E7
:104C30008093E8000C949D288091D502813AF9F484
:104C40008091E800877F8093E8008091D90290915D
:104C5000DA02892B61F460E281E892E070E00E9460
:104C6000AC278091E8008B778093E800089560E09E
:104C700090E080E0F3CF8091D4028111CECF0895EF
:104C80008091D502813AD9F78091D9029091DA02C8
:104C9000892BA9F78091E800877F8093E8008091B5
:104CA000E80080FFFCCF80911C018093F10080918F
:104CB000E8008E77BDCF8091D502813201F78091D7
:104CC000D9029091DA02892BD1F68091E800877F92
:104CD0008093E8000E949D288091D70280931C0158
:104CE0000C94B4188091D502813249F68091E80085
:104CF000877F8093E8000E949D288091D80280934E
:104D0000A20208958091D502813A09F0B8CF80912E
:104D1000E800877F8093E8008091E80080FFFCCF67
:104D20008091A202C2CF84B7877F84BF0FB6F89468
:104D3000A895809160008861809360001092600067
:104D40000FBE80E880936100109261000E94A91359
:104D50000E94EB280E9448298091E20084608093A1
:104D6000E20078940E94C82B0E94AD1382E191E08A
:104D70000E9455138091D402853029F00E94B71308
:104D80000E94E412F7CF0E94BB1F8091D2028823B9
:104D900089F30E94F21F882369F30E944727EACF14
:104DA0000C94D226292F33272330310521F168F4C2
:104DB0002130310509F449C02230310509F44AC0D7
:104DC00090E080E030E020E029C02132310581F11F
:104DD00022323105A9F76430710590F7FB01EE0F1F
:104DE000FF1FEB5CFE4F208131816F5C7E4FFB012A
:104DF000808190E013C099278130910599F0009748
:104E000041F08230910589F00397D1F6E6EEF4E0A7
:104E100002C0E4E1F5E0849190E09F01FA01318362
:104E200020830895E2E0F5E0F6CFECEEF4E0F3CF76
:104E30006430710528F6660F771FFB01E35CFE4FB7
:104E40002081318189E090E0E9CF82E190E025E89E
:104E500035E0E4CF8DE690E028E135E0DFCF08953E
:104E6000CF93C82F0E942F27C093A302CF910895FC
:104E70008091D402843011F482E0089581E0089595
:104E80008091A302811102C00C943827089580E11B
:104E900089BD82E189BD09B400FEFDCF8091D800B3
:104EA0008F7D8093D8008091E00082608093E00045
:104EB0008091E00081FDFCCF0895AF92BF92CF9228
:104EC000DF92FF920F931F93CF93DF936C01EB015F
:104ED0008A010E94BC28F82E811123C001151105FA
:104EE00039F0F80180819181C81BD90BC80ED91EF9
:104EF000B12CA12C2097A9F08091E80085FD22C05B
:104F00008091E8008E778093E80001151105A1F0EB
:104F1000F80180819181A80EB91EB182A08285E03E
:104F2000F82E8F2DDF91CF911F910F91FF90DF9081
:104F3000CF90BF90AF9008950E94BC288823D1F2F3
:104F4000F82EEFCFF60181916F018093F100219748
:104F5000FFEFAF1ABF0ACECFFC018091DB02909128
:104F6000DC0286179707A0F06115710529F490916E
:104F7000E8009E779093E80090E06115710551F488
:104F8000911108C08091E80082FF34C080E008954C
:104F9000BC01F2CF8091D4028823C1F18530C1F1E8
:104FA0008091E80083FD30C08091E80082FDEACF67
:104FB0008091E80080FFE1CF8091F3002091F20022
:104FC000382F6115710519F02830310558F091E03E
:104FD0002830310509F090E02091E8002E772093E9
:104FE000E800CBCF81918093F100615071092F5F70
:104FF0003F4FE7CF8091D402882341F0853041F0C4
:105000008091E80083FFBECF81E0089582E008959B
:1050100083E00895FC018091DB029091DC02861709
:105020009707A0F06115710529F48091E8008E774B
:105030008093E80090E06115710551F4911108C06A
:105040008091E80082FF35C080E00895BC01F2CF76
:105050008091D4028823C9F18530C9F18091E8009C
:1050600083FD31C08091E80082FDEACF8091E800A5
:1050700080FFE1CF8091F3002091F200382F61157D
:10508000710519F02830310558F091E028303105CC
:1050900009F090E08091E8008E778093E800CBCF14
:1050A00084918093F1003196615071092F5F3F4FD9
:1050B000E6CF8091D402882341F0853041F0809181
:1050C000E80083FFBDCF81E0089582E0089583E08A
:1050D0000895982F973028F08F708093E90081E031
:1050E00008959093E900242F762F50E0981731F01F
:1050F0007091EC002091ED005091F00021FD02C074
:105100009F5FE8CF3091EB003E7F3093EB00309112
:10511000ED003D7F3093ED003091EB003160309336
:10512000EB007093EC002093ED005093F000209181
:10513000EE0027FDE5CF80E008958091D50287FF3E
:1051400013C08091E80082FF06C08091E8008B7751
:105150008093E80004C08091D4028111F2CF0895B9
:105160008091D4028823D9F38091E80080FFF8CFA2
:105170008091E8008E77ECCF2091E4003091E5003B
:1051800085E6A9019091EC0090FF06C09091E8009F
:1051900090FF06C080E008959091E80092FDFACF5C
:1051A0009091D402992389F0953089F09091EB0089
:1051B00095FD0FC02091E4003091E50042175307A0
:1051C00009F38150F1F684E0089582E0089583E0C8
:1051D000089581E008950E9459290E946129E0EE16
:1051E000F0E0808181608083E8EDF0E080818F775E
:1051F000808319BCA7EDB0E08C918E7F8C93808169
:105200008F7E80831092D30208950F931F93CF93C4
:10521000DF930E9459290E946129C8EDD0E088815E
:105220008F77888388818068888388818F7D888351
:1052300019BC1092D4021092D0021092D202109295
:10524000D10200EE10E0F80180818B7F808388819D
:105250008160888342E060E080E00E946928E1EE9E
:10526000F0E080818E7F8083E2EEF0E080818160DB
:105270008083808188608083F80180818E7F808335
:10528000888180618883DF91CF911F910F9108956C
:10529000E8EDF0E080818F7E8083E7EDF0E08081B3
:1052A0008160808384E082BF81E08093D3020C948C
:1052B0000529E8EDF0E080818E7F80831092E20086
:1052C00008951092DA001092E10008951F920F9253
:1052D0000FB60F9211242F933F934F935F936F93C9
:1052E0007F938F939F93AF93BF93EF93FF9380919F
:1052F000E10082FF0BC08091E20082FF07C0809135
:10530000E1008B7F8093E1000E94C72B8091DA003F
:1053100080FF19C08091D80080FF15C08091DA000D
:105320008E7F8093DA008091D90080FF94C080E165
:1053300089BD82E189BD09B400FEFDCF81E0809383
:10534000D4020E94BD258091E10080FF19C08091A8
:10535000E20080FF15C08091E2008E7F8093E20022
:105360008091E20080618093E2008091D8008062A9
:105370008093D80019BC85E08093D4020E94CF2589
:105380008091E10084FF29C08091E20084FF25C064
:1053900080E189BD82E189BD09B400FEFDCF809125
:1053A000D8008F7D8093D8008091E1008F7E80931C
:1053B000E1008091E2008F7E8093E2008091E20024
:1053C00081608093E2008091D002882309F449C073
:1053D00084E08093D4020E94D0258091E10083FF75
:1053E00029C08091E20083FF25C08091E100877F82
:1053F0008093E10082E08093D4021092D0028091E9
:10540000E1008E7F8093E1008091E2008E7F8093A7
:10541000E2008091E20080618093E20042E060E07F
:1054200080E00E9469288091F00088608093F000FD
:105430000E94CE25FF91EF91BF91AF919F918F91E7
:105440007F916F915F914F913F912F910F900FBE80
:105450000F901F90189519BC1092D4020E94CB2572
:1054600072CF8091E30087FD02C081E0B2CF83E07C
:10547000B0CF1F920F920FB60F9211242F933F932C
:105480004F935F936F937F938F939F93AF93BF934C
:10549000CF93EF93FF93C091E900CF708091EC0020
:1054A0001092E9008091F000877F8093F00078945B
:1054B0000E94752A1092E9008091F0008860809324
:1054C000F000C093E900FF91EF91CF91BF91AF91B0
:1054D0009F918F917F916F915F914F913F912F910C
:1054E0000F900FBE0F901F9018951F93CF93DF93CF
:1054F000CDB7DEB7AA970FB6F894DEBF0FBECDBF0B
:1055000085ED92E02091F100FC012193CF01F2E0C2
:105510008D3D9F07B9F70E94E6258091E80083FF43
:105520001EC18091D5029091D6029A3008F017C121
:10553000E92FF0E0E754FF4C0C94872F803899F066
:10554000823809F00CC18091D9028F70873008F041
:1055500006C18093E9008091EB0085FB882780F9E4
:105560001092E90006C08091D1029091D20291116F
:1055700082609091E800977F9093E8008093F1001B
:105580001092F1008091E8008E77E5C0882309F43D
:10559000D3C0823009F0E3C08091D7028111D6C018
:1055A0008091D9028F702FEF280F263008F0D7C0D6
:1055B0008093E9002091EB0020FFC8C0933031F4C4
:1055C0008091EB0080628093EB00C0C09091EB0073
:1055D00090619093EB0021E030E001C0220F8A95AA
:1055E000EAF72093EA001092EA008091EB008860CD
:1055F000EACF8111B4C01091D7021F778091E300E8
:105600008078812B8093E3008091E800877F8093EE
:10561000E8000E949D288091E80080FFFCCF8091E7
:10562000E30080688093E30082E0111183E08093BF
:10563000D40295C08058823008F091C08091D70282
:105640009091D8028C3D23E09207A1F583E08A83F4
:105650008AE289834FB7F894DE01139620E03EE09A
:1056600051E2E32FF0E050935700E49120FF03C094
:10567000E295EF703F5FEF708E2F90E0EA30C0F060
:10568000C7968D939D932F5F243159F74FBF80911B
:10569000E800877F8093E8006AE270E0CE0101961F
:1056A0000E94AC278091E8008B778093E80057C078
:1056B000C096E7CF6091D9027091DA02AE014F5FD8
:1056C0005F4F0E94D026BC01892B09F448C09091FD
:1056D000E800977F9093E80089819A810E940A28C8
:1056E000E1CF8038E1F58091E800877F8093E80082
:1056F0008091D0028093F10045CF811130C090910C
:10570000D702923060F58091E800877F8093E800AF
:105710009093D0020E949D288091D002882311F09E
:1057200084E005C08091E30087FDFACF81E080939B
:10573000D4020E94D22513C08091D702813079F41F
:1057400081E0933009F080E08093D2021092E9006A
:105750008091E800877F8093E8000E949D288091D7
:10576000E80083FF0AC08091E800877F8093E8000B
:105770008091EB0080628093EB00AA960FB6F894BC
:10578000DEBF0FBECDBFDF91CF911F910895089569
:10579000CF938091D402882399F0C091E900CF7013
:1057A0008091EC0080FD0EC080E0C82B1092E900D3
:1057B0008091E80083FD0E94752ACF70C093E900B4
:1057C000CF91089580E8F1CF5058BB27AA270E94B7
:1057D000FC2B0C94A72D0E94992D38F00E94A02D2F
:1057E00020F039F49F3F19F426F40C946F2D0EF439
:1057F000E095E7FB0C94692DE92F0E94B82D58F332
:10580000BA17620773078407950720F079F4A6F5A5
:105810000C94DA2D0EF4E0950B2EBA2FA02D0B016F
:10582000B90190010C01CA01A0011124FF27591BE5
:1058300099F0593F50F4503E68F11A16F040A22FEB
:10584000232F342F4427585FF3CF4695379527955C
:10585000A795F0405395C9F77EF41F16BA0B620B5B
:10586000730B840BBAF09150A1F0FF0FBB1F661FA2
:10587000771F881FC2F70EC0BA0F621F731F841FE5
:1058800048F4879577956795B795F7959E3F08F00B
:10589000B0CF9395880F08F09927EE0F97958795CD
:1058A00008950E94652C0C94A72D0E94A02D58F0FD
:1058B0000E94992D40F029F45F3F29F00C94692D46
:1058C00051110C94DB2D0C946F2D0E94B82D68F3B0
:1058D0009923B1F3552391F3951B550BBB27AA27A9
:1058E00062177307840738F09F5F5F4F220F331FE3
:1058F000441FAA1FA9F335D00E2E3AF0E0E832D0AB
:1059000091505040E695001CCAF72BD0FE2F29D0AD
:10591000660F771F881FBB1F261737074807AB077F
:10592000B0E809F0BB0B802DBF01FF2793585F4FF4
:105930003AF09E3F510578F00C94692D0C94DB2DC4
:105940005F3FE4F3983ED4F3869577956795B795D6
:10595000F7959F5FC9F7880F911D9695879597F9E1
:105960000895E1E0660F771F881FBB1F621773075A
:105970008407BA0720F0621B730B840BBA0BEE1F6F
:1059800088F7E095089529F416F00C94692D0C948D
:10599000DA2D0C946F2D0E94C02DA8F39638A0F735
:1059A00007F80F92E8942BE33AEA48EB5FE70E948E
:1059B0006D2E0F920F920F924DB75EB70F920E940D
:1059C000232EECEAF0E00E94722D4F915F91EF914F
:1059D000FF91E595EE1FFF1F49F0FE57E068442751
:1059E000EE0F441FFA95E1F74195550B0E94ED2DFE
:1059F0000F9007FE0C94E12D08950E94C02D88F0B1
:105A00009F5798F0B92F9927B751B0F0E1F0660F82
:105A1000771F881F991F1AF0BA95C9F714C0B130C3
:105A200091F00E94DA2DB1E008950C94DA2D672FE1
:105A3000782F8827B85F39F0B93FCCF386957795F2
:105A40006795B395D9F73EF49095809570956195DB
:105A50007F4F8F4F9F4F0895E89409C097FB3EF406
:105A600090958095709561957F4F8F4F9F4F9923AB
:105A7000A9F0F92F96E9BB279395F6958795779529
:105A80006795B795F111F8CFFAF4BB0F11F460FFE9
:105A90001BC06F5F7F4F8F4F9F4F16C0882311F041
:105AA00096E911C0772321F09EE8872F762F05C055
:105AB000662371F096E8862F70E060E02AF09A95F0
:105AC000660F771F881FDAF7880F9695879597F9E5
:105AD000089597F99F6780E870E060E008959FEF70
